:020000040800F2
:1000000000400020A10600087D5F0008815F000815
:1000100000000000000000000000000000000000E0
:10002000000000000000000000000000855F0008E4
:100030000000000000000000895F00088D5F0008DC
:100040004907000849070008490700084907000850
:1000500049070008955F0008A15F000849070008EC
:100060004907000849070008490700084907000830
:100070004907000849070008490700084907000820
:100080004907000849070008490700084907000810
:100090004907000849070008490700084907000800
:1000A00049070008490700084907000849070008F0
:1000B000490700084907000849070008856000084B
:1000C00010B5064C2378002B07D1054B002B02D02E
:1000D000044800E000BF0123237010BDE8010020A8
:1000E00000000000C8AA0008044B10B5002B03D084
:1000F0000349044800E000BF10BDC04600000000F6
:10010000EC010020C8AA0008002243088B4274D3E7
:1001100003098B425FD3030A8B4244D3030B8B4208
:1001200028D3030C8B420DD3FF22090212BA030C11
:100130008B4202D31212090265D0030B8B4219D3F2
:1001400000E0090AC30B8B4201D3CB03C01A524112
:10015000830B8B4201D38B03C01A5241430B8B425A
:1001600001D34B03C01A5241030B8B4201D30B0343
:10017000C01A5241C30A8B4201D3CB02C01A52416A
:10018000830A8B4201D38B02C01A5241430A8B422D
:1001900001D34B02C01A5241030A8B4201D30B0216
:1001A000C01A5241CDD2C3098B4201D3CB01C01A30
:1001B000524183098B4201D38B01C01A524143093A
:1001C0008B4201D34B01C01A524103098B4201D328
:1001D0000B01C01A5241C3088B4201D3CB00C01A95
:1001E000524183088B4201D38B00C01A524143080D
:1001F0008B4201D34B00C01A5241411A00D2014632
:10020000524110467047FFE701B5002000F0F0F8BA
:1002100002BDC0460029F7D076E7704703460B437E
:100220007FD4002243088B4274D303098B425FD3EF
:10023000030A8B4244D3030B8B4228D3030C8B421B
:100240000DD3FF22090212BA030C8B4202D3121201
:10025000090265D0030B8B4219D300E0090AC30BD6
:100260008B4201D3CB03C01A5241830B8B4201D383
:100270008B03C01A5241430B8B4201D34B03C01A6C
:100280005241030B8B4201D30B03C01A5241C30AE4
:100290008B4201D3CB02C01A5241830A8B4201D355
:1002A0008B02C01A5241430A8B4201D34B02C01A3F
:1002B0005241030A8B4201D30B02C01A5241CDD2E4
:1002C000C3098B4201D3CB01C01A524183098B422F
:1002D00001D38B01C01A524143098B4201D34B0118
:1002E000C01A524103098B4201D30B01C01A52417B
:1002F000C3088B4201D3CB00C01A524183088B4202
:1003000001D38B00C01A524143088B4201D34B00EA
:10031000C01A5241411A00D201465241104670475C
:100320005DE0CA0F00D04942031000D34042534061
:1003300000229C4603098B422DD3030A8B4212D321
:10034000FC22890112BA030A8B420CD38901921153
:100350008B4208D3890192118B4204D389013AD090
:10036000921100E08909C3098B4201D3CB01C01A65
:10037000524183098B4201D38B01C01A5241430978
:100380008B4201D34B01C01A524103098B4201D366
:100390000B01C01A5241C3088B4201D3CB00C01AD3
:1003A000524183088B4201D38B00C01A5241D9D2EB
:1003B00043088B4201D34B00C01A5241411A00D26C
:1003C0000146634652415B10104601D34042002B68
:1003D00000D54942704763465B1000D3404201B5E7
:1003E000002000F005F802BD0029F8D016E770479C
:1003F0007047C046002B11D1002A0FD1002900D12F
:10040000002802D00021C943080007B4024802A115
:100410004018029003BDC046D9FFFFFF03B46846F1
:1004200001B5029800F034F8019B9E4602B00CBC66
:100430007047C046F0B5CE469946030C9C4613045F
:1004400047461B0C1D000E0061460404240C80B5B9
:100450000700100C4B436543414360432C0CC0180C
:1004600024188C46A34203D980235B029846C444D7
:10047000494679435643230C2D042D0C89196344B6
:1004800024046019C918C0BCB946B046F0BDC046C6
:10049000F0B557464E464546DE46E0B504000D0031
:1004A0009246994683B08B4230D82DD0494650466B
:1004B00000F0BAF829000600200000F0B5F8331A61
:1004C0009846203B34D49B4653465A469340424676
:1004D0001F00534693401E00AF423BD8AF4200D1AD
:1004E00079E05B46A41BBD41002B00DA76E00022D8
:1004F00000230092019301235A4693400193012364
:1005000042469340009329E08242CFD90022002343
:10051000009201930C9B002B01D01C605D60009841
:10052000019903B0F0BCBB46B246A946A046F0BD57
:1005300042469B4620239B1A5246DA40414613000E
:100540004A468A40170042461F43534693401E00C6
:10055000AF42C3D900220023009201934346002BEF
:10056000D8D0FB0772081A4346467B080EE0AB4220
:1005700001D1A2420CD8A41A9D41012024196D4139
:100580000021013E24184D41002E06D0AB42EED989
:10059000013E24196D41002EF8D1009801995B4667
:1005A00000196941002B24DB2B005A464446D340F6
:1005B0002A00E2401C005B461500002B2ADB2600C7
:1005C0009E40330026004746BE403200801A9941C3
:1005D000009001919EE7A342BCD882E742462023C7
:1005E00000219B1A0022009101920122DA4001921F
:1005F00085E7424620239B1A2A0046469A4023005C
:10060000F340444613432A00E2401C005B461500B9
:10061000002BD4DA42462F002023260097409B1A55
:10062000DE403B003343CDE710B5002903D100F095
:1006300007F8203002E0080000F002F810BDC046C4
:100640001C2101231B04984201D3000C10391B0A02
:10065000984201D3000A08391B09984201D30009C6
:10066000043902A2105C40187047C046040302021D
:100670000101010100000000000000000023C25C35
:100680000133002AFBD1581E7047000003B47146A5
:10069000490840004900095E49008E4403BC704788
:1006A0001E4885461E4801681E4A914212D100210B
:1006B00001601D4801680122114301601B48016867
:1006C00003229143012211430160194801688D46BC
:1006D000416808471448016801221143016013482A
:1006E000016803229143016012481349134A002311
:1006F00002E0D458C4500433C4188C42F9D3104AD1
:10070000104C002301E013600432A242FBD305F039
:10071000E3FC09F06BFD03F063FBFEE70040002003
:10072000F03F0020EFBEADDE181002400000014097
:1007300000C8FF1F00000020E401002020D10008B5
:10074000E80100209C2E0020FEE700003E280AD889
:100750002A2806D9074B2B38C0B2C34001201840C5
:1007600070470020FCE7FD235B38184043425841A6
:10077000C0B2F5E70F000A00F8B5070010000C0042
:100780001600FFF77BFFA04216D8002816D00024E1
:1007900002E00134A04211D0395D335D0A00613AB4
:1007A000192A01D82039C9B21D00613D192D01D87F
:1007B000203BDBB29942ECD00020F8BD0120FCE7E1
:1007C000F0B5C646060000B5100088461700FFF7D2
:1007D00055FF404516D8002818D0002502E0013505
:1007E000A84213D0745D7B5D2200613A192A01D8BA
:1007F000203CE4B21A00613A192A01D8203BDBB24E
:100800009C42ECD0002080BCB846F0BD40450FD2E1
:1008100001213318074846441A78093AD2B2172AF8
:10082000F0D80400D4402142ECD001339E42F3D1F1
:100830000120E8E71300800070B5040007F0BCFD5C
:100840002100FFF7E7FC0B0061088B421FD2580123
:10085000C01A8000C018C000FFF756FC114B5C683E
:10086000002C00D1104CFA210E4B890040439D68AA
:10087000FFF74AFCFA2160438900FFF745FC80221C
:100880000A4B641BD200A0420AD99A6170BDE41AD7
:100890006001001B80000019C000FFF735FCDDE798
:1008A0009A62F3E710E000E080BB0000001400480B
:1008B000F0B5C64600B586B0182836D90F223D4B94
:1008C0000F241A70002303930133FF3301933A4F2F
:1008D000FD3B01ADEB600121384A90201368C00553
:1008E0008B4313600022364B29001A7002232A61C1
:1008F0006B6005F0ADFFA3001B199B00FB181A6984
:10090000304B1A60304A1278002A4DD119681A68A3
:10091000E023DB051A40F0231B050020194007F0F7
:1009200003FC06B080BCB846F0BD8600224F3618E6
:10093000B600BE19337A040098461E4B1022187078
:10094000002102A809F01EFC80235B0001AD019389
:10095000FD3BEB604346002BBDD000220021002070
:1009600007F0E2FB0022174B90201A6002232900B7
:10097000C0056B602B6105F06BFF01210F4B1A68FE
:100980008A431A6072899A62B289DA62013252101D
:100990005A630B4A596111700B4A1278002AC0D170
:1009A0001A680A431A60BCE700220021002007F001
:1009B000BBFBB6E7381B002078CE0008002C0140B6
:1009C0001B170020201700201A170020F0B5D6466C
:1009D0004F464646C0B58046FFF750FE071E20D062
:1009E000184B85269A46AE239B00994653464A46A5
:1009F00000249B58B6003D1B402D1FD8A9B21248B9
:100A00009A59002A16D14346181909F0E3F85346BB
:100A10004A460D499B589A59002A07D16419A742A2
:100A2000E9D8E0BCBA46B146A846F0BD0139002974
:100A3000F1D1F3E701380028E2D1E4E74025402175
:100A4000DDE7C046A81B0020400D0300F0B54F466F
:100A50004646D6468046C0B50F1E20D0184B852688
:100A60009A46AE239B00994653464A4600249B581B
:100A7000B6003D1B402D1FD8A9B212489A59002A32
:100A800016D14346181909F0A5F853464A460D49B0
:100A90009B589A59002A07D16419A742E9D8E0BCAB
:100AA000BA46B146A846F0BD01390029F1D1F3E7B5
:100AB00001380028E2D1E4E740254021DDE7C046C7
:100AC000A81B0020400D03000FB400B5A3B024AB59
:100AD00004CB802102A8019309F03AFB02A8FFF79A
:100AE00075FF23B008BC04B01847C046010070B5BC
:100AF00000281DD0144B4201D3181878012816D1B4
:100B000012485C6984461248624484469D69644484
:100B10002B001048FFF7D8FF29002000FFF796FFB1
:100B20000D48FFF753FF0D4B1B78022B04D070BD0F
:100B30000B4D0C4C0C4AEBE70C48FFF747FF01222A
:100B40000B4B1A70F3E7C046004001080140010852
:100B50000048010840AB000858AB0008391B0020D2
:100B60007706000000C8000830AB000868AB00083A
:100B70009916002000B5104B8FB01A78182A18D893
:100B800093000E499B189B005B58182168460C4A3D
:100B900009F07AFA6B460B4A202106A809F074FA8C
:100BA000094806A9FFF790FF1222084B1A700FB0F0
:100BB00000BD074BE9E7C046381B002078CE00088F
:100BC00098AB0008A4AB0008ACAB00084C020020B6
:100BD00028AB000800B5164B83B01878172801D948
:100BE00003B000BD0130C0B2FFF762FE0122114B1D
:100BF0001A7007F0E1FB104B1860FFF7BBFF802174
:100C000001220E48C90005F0C9FF00230193019B92
:100C10000B4A934205DC019B01330193019B9342F4
:100C2000F9DD802100220548C90005F0B7FFD7E7AC
:100C3000381B0020CC160020C816002000140048E5
:100C40005FEA000000B5164B83B01878002801D188
:100C500003B000BD0138C0B2FFF72AFE0122114BDC
:100C60001A7007F0A9FB104B1860FFF783FF802173
:100C700001220E48C90005F091FF00230193019B5A
:100C80000B4A934205DC019B01330193019B934284
:100C9000F9DD802100220548C90005F07FFFD7E774
:100CA000381B0020CC160020C81600200014004875
:100CB0005FEA0000012370B50C4E0024337000235E
:100CC00001200B4D0B4A2B7001331178012903D100
:100CD0000124411C2B54C8B20133DBB22032402B1B
:100CE000F3D1002C00D0307070BDC0460902002046
:100CF0000C020020204001080020054B05491A780D
:100D0000012A01D19A69801820338B42F7D17047AC
:100D10002040010800480108F0B58DB005F0E4FC62
:100D200000233422012600930193174C174B0294A1
:100D300003966946DA6001A805F04CFC051E05D053
:100D400005F0E6FCFFF7B6FF0DB0F0BD11200F2255
:100D50000F4904AF68443E7009F06EFA80235B00CF
:100D600008930C4B0C4E0A930C4B09950C4D0B93AE
:100D70006E442100325900230220043405F006FDA0
:100D8000AC42F6D1DCE7C04600400108002002403A
:100D900030AB00087706000010C0FEF70101C0BFAD
:100DA00020400108F0B54546DE4657464E46E0B5C0
:100DB0003F4C00253F4B4048A54402E0203383428E
:100DC00012D01A78012AF9D16E1C14AA6D01541997
:100DD00022001900B0C9B0C2B0C9B0C2203330C9B6
:100DE00030C2F5B28342ECD105F07EFC0023342200
:100DF000012600930193314C314B029403966946CE
:100E0000DA6001A805F0E6FB804600280BD005F06B
:100E10007FFCFFF74FFF2B4B9D44F0BCBB46B24617
:100E2000A946A046F0BD112004AF0F222649684410
:100E30003E7009F001FA80235B0008934346099352
:100E4000224B234E0A93234B1A4F0B936E442100DF
:100E5000325900230220043405F098FCBC42F6D13C
:100E6000002DD4D014AB99460CAB9A465B429B46FE
:100E70004F4653464A4613CA13C313CA13C35446B4
:100E80000C4E03CA03C35E442268311900230220BA
:100E9000043405F07BFCA742F6D143460133DBB2B4
:100EA000984620239C46E144E3444545E1D1AEE722
:100EB000ACF7FFFF2040010800480108004001088E
:100EC000002002405408000030AB00087706000004
:100ED00010C0FEF70101C0BF0C4B10B59C46440189
:100EE00064442378012B00D010BD05F0FDFB3422B3
:100EF000074B2100DA6001200022002305F046FCA8
:100F000005F006FCFFF74EFFEEE7C0460040010883
:100F1000002002401D4B10B5DA691D4B9A4230D1BA
:100F20001C4B1D4902E020338B422DD01A78FF2A3A
:100F3000F9D01A78012AF6D001240020154B164961
:100F400004E000280ED120338B4206D01A78FF2A05
:100F5000F7D1203301208B42F8D1002C0ED1FFF7BE
:100F6000A9FE10E01A78012A08D020338B42F4D071
:100F70001A78FF2AE7D01A78012AF6D1FFF712FF74
:100F800001E0FFF7C9FE10BD0024D6E700400108CC
:100F90000101C0BF204001080048010810B500242D
:100FA0000F4B00211C600F4B10220F481C7009F0E2
:100FB000E9F803220D4B0E481C700E4B1A70FFF718
:100FC00005FD0D4C2000FFF701FD0C48FFF7FEFC6E
:100FD0002000FFF7FBFC0A48FFF7F8FC10BDC046F5
:100FE000A8160020AC160020B0160020C016002065
:100FF000C0AB0008391B0020CCAB000804AC0008D3
:101000003CAC0008F0B5D64646464F462A4BC0B524
:1010100098468CB06D461800FFF7D8FC2748FFF7BC
:10102000D5FC4046FFF7D2FC2548FFF7CFFC4046F1
:10103000FFF7CCFC234B2A00190051C951C251C9FA
:1010400051C21833160013CB13C213CB13C20023A3
:101050001D4FFB56052B01DD05233B701B4A002469
:1010600091461B4A924608E048460134FFF72CFDA2
:101070000435062C0DD00023FB56A2002968B25877
:10108000A342F1D150460134FFF71EFD0435062C72
:10109000F1D14046FFF79AFC0E48FFF797FC404617
:1010A000FFF794FC0C48FFF791FC0CB0E0BCBA468B
:1010B000B146A846F0BDC046CCAB000878AC0008ED
:1010C000B0AC0008E0AA0008C316002008AD000874
:1010D000E8AC000820AD000858AD0008F0B5DE46C9
:1010E00057464E464546924BE0B59A46180087B0A3
:1010F000FFF76CFC8F48FFF769FC5046FFF766FC72
:101100008D48FFF763FC5046FFF760FC8B4B019363
:101110001B78002B00D1D7E00D270D230022884E2D
:10112000B256BA4201DB013B3370864B002498462D
:10113000854B02AD9946854B00969B460C2C00D9F9
:10114000B6E04246A300D3589F46019B1B78002B74
:1011500000D0BCE02A007E4B43CB43C21B787D49C4
:101160001370009B2A001B785BB2A3422DD0484627
:10117000FFF7AAFC0134BC42E0D15046FFF726FC41
:101180007548FFF723FC5046FFF720FC7348FFF734
:101190001DFC07B0F0BCBB46B246A946A046F0BD58
:1011A0006F4B1B78012B00D1B7E0022B00D1B8E0C8
:1011B0006C4B10216C4A280008F066FF009B2A0047
:1011C0001B786A495BB2A342D1D15846FFF77CFC39
:1011D000D0E7019B1B78002B00D086E0644B1021E8
:1011E0002800614A08F050FF6249BAE7624B1B7859
:1011F000012B00D187E0022B00D196E0032B00D118
:1012000091E05E4B80E05E4B1B78002B73D1584B16
:1012100010212800544A08F037FF5A49A1E75A4BD9
:101220001B78002B65D1524B102128004E4A08F044
:101230002BFF564995E7564B1B78002B61D14C4B41
:1012400010212800484A08F01FFF524989E7524BF5
:10125000197818295FD88B00504A5B189B009B585F
:1012600010212800404A08F00FFF4D4979E74D4B07
:101270001B78002B43D1414B102128004A4A08F02B
:1012800003FF4A496DE74A4B1B78002B35D1384B99
:1012900010212800344A08F0F7FE464961E7464B22
:1012A000102128001B68454A08F0EEFE444958E723
:1012B000444B1B78002B1AD12D4B102128002A4AB1
:1012C00008F0E2FE40494CE70B270B2326E73F4B93
:1012D0001B78052B23D83E4A9B009B5810212800E1
:1012E000214A08F0D1FE3B493BE73B4B77E73A4BBD
:1012F000E3E7394B98E7384B8AE7374BC8E7374B7A
:10130000BAE7354B9CE7364B10212800164A08F007
:10131000BBFE344925E7344BA2E7344B49E7344B55
:10132000DCE7344B45E7344BEEE7344BECE7C046A3
:10133000CCAB00084CAF000884AF00081A1700209F
:10134000C316002010C5000814B00008F4AF000850
:10135000E4AF000814AF000820AD000858AD000845
:1013600019170020C8AD0008BCAF000830AF000856
:1013700088AD0008F8AE00080D0000209CAD000804
:101380000A000020C0AE00080B000020A4AE000838
:101390001817002088AE0008381B002078CE0008FF
:1013A0006CAE00080E000020D8AF000850AE000858
:1013B0000F00002034AE000810000020C8AF000865
:1013C00018AE000814000020FCAD00080C0000203E
:1013D000E8C70008E0AD000880AD000894AD000843
:1013E000A4AD0008DCAE000828AB0008D4AD0008AE
:1013F000BCAD0008D8AD0008B4AD0008ACAD000825
:10140000F0B54E46DE4645465746E0B59FB0FFF77D
:1014100051FC624B624A98461B78914612789E1C9A
:10142000F6B252B2B24202DB4A46013313705D4D4E
:101430002800FFF7CBFA5C48FFF7C8FA2800FFF74F
:10144000C5FA5A48FFF7C2FA2800FFF7BFFA002E84
:101450004FD0574B00249A46564B9B46564B04930D
:10146000564B05935B46AB460393350029E0544B3E
:101470001F5D002F64D0534A534B944680227F0156
:10148000FB189B696744D200934200D37EE006AE0E
:10149000102130004D4A08F0F7FD4B461B785BB237
:1014A000A3425DD04A4A23005021019600970AA822
:1014B00008F0EAFD50460AA90134FFF705FBA542F2
:1014C00016DD43461B78A342D1DC4A46127852B25D
:1014D000A34247D094424DD0342203990AA808F081
:1014E000ABFE013450460AA9FFF7EEFAA542E8DC4C
:1014F0005D462800FFF76AFA0022364B3648197815
:10150000012901D19969521820338342F7D19305FB
:10151000990D1B0D5B18414609785B0A920A013947
:101520002E48FFF7D1FA2800FFF750FA2C48FFF7B2
:101530004DFA1FB0F0BCBB46B246A946A046F0BD6E
:1015400006210120274F06AE030000913000102134
:10155000254A08F099FD4B461B785BB2A342A1D106
:10156000224AA0E794420BD0342205990AA808F039
:1015700063FE9FE73C2204990AA808F05DFE99E704
:101580003C221B490AA808F057FE93E79905980AE0
:101590008B0D090DC918490AD5E7C046090200207C
:1015A000C3160020CCAB00082CB0000864B00008C3
:1015B00044BC00089CB1000860B100082CB10008D0
:1015C0000C02002001400108004001089CB0000806
:1015D000D4B000082040010800480108D0B100083C
:1015E0000CB2000830AB0008A4B00008B0B000088E
:1015F000F0B0000810B50A48FFF7E8F9094B1B786E
:10160000002B04D0012B08D0022B03D010BDFFF714
:10161000F9FCFBE7FFF7F4FEF8E7FFF75FFDF5E7FE
:10162000C0AB0008C4160020F0B5DE4657464E4653
:101630004546E0B54F4A504B116885B0994236D0C7
:101640000F239B460E3B9A46002398460233994649
:101650000023012701260125002001219C4601339A
:10166000102200925C46454A14705446444A177052
:10167000444A1670444A1570444A14704446444A19
:1016800014704C46434A14706446434A1470434AEB
:101690001070434A1170434A1370434B009A1A600A
:1016A00005B0F0BCBB46B246A946A046F0BD1379D2
:1016B00057799B46137A96799A46937AD5799946C3
:1016C000D37A547A9C46137B0193507B0290937B90
:1016D000190003931369526918008046009301981A
:1016E000254B434480465B44DB199B195B195344EB
:1016F0001B1902984B446344434480464344884644
:1017000043449A429CD15B46182B01D90F239B4638
:101710007B1E9F41731E9E416B1E9D415346FFB22F
:10172000F6B2EDB2032B01D901239A46631E9C4108
:10173000E3B298464B46052B01D9022399466146F0
:10174000022200238A425B416246019802995B4271
:101750001A40431E98414B1E9941039B94465A1EC2
:101760009341009AC0B2043AC9B2DBB23C2A00D815
:1017700078E775E700F80108042C07BF381B002044
:10178000140000200F0000200E0000200D0000209B
:101790001A1700200C00002019170020181700202D
:1017A0000B0000200A00002010000020F0B5574672
:1017B0004E464546DE460023E0B58DB006A9CB7304
:1017C0003B4B06933B4B1A783B4B93461A783B4B6B
:1017D00092461A783A4B91461A783A4B90461A78C4
:1017E000394B140052461F78384B00941E78384B02
:1017F0001D7813024A4610045A46134342460343D7
:101800001206134307933B02300423432A06034383
:101810001343274A089394462E4B1C782E4B0C7387
:10182000187848732D4B009A1B7801938B732C4BBF
:101830001B680B61634494465B445344019A4B44D8
:10184000434463449446DB199B195B191B19254CCF
:101850001B186344182220004B6108F085FC002807
:1018600006D10DB0F0BCBB46B246A946A046F0BDBD
:1018700004F03AFF002302A90293039303A8013363
:101880000494059304F0A6FE00280DD102AB9C46FB
:10189000154E164D664421003259002302200434AF
:1018A00004F074FFAC42F6D104F032FFD9E7C04631
:1018B000042C07BF381B0020140000200F0000205C
:1018C0000E0000200D0000201A1700200C00002040
:1018D00019170020181700200B0000200A00002014
:1018E0001000002000F801081008FEF718F80108A1
:1018F00002220B4B10B51A700023FF21094A0A4837
:1019000013700A4A13700A4A11700A4A7F39137019
:101910000122094B49011A70002205F03FF910BD60
:10192000391B0020C416002000080048C316002000
:1019300009000020C1160020C2160020F8B5424858
:10194000FFF744F84148FFF741F84148FFF73EF8F8
:101950004048FFF73BF84048FFF738F83F4B404816
:101960001978FFF7B1F83F4C3F4927003F4EE13768
:101970003F4DFF3732002800FFF7A6F821681434E6
:10198000A742F7D13B4A2800FFF79EF83A4B3B4865
:101990001978FFF799F83A4B3A481978FFF794F815
:1019A000394B1B68202B4DD047D80121082B03D081
:1019B000103B5A42534159003448FFF785F8344BE5
:1019C00034481978FFF780F8334B34481978FFF71B
:1019D0007BF8334B33481978FFF776F8324B3348AE
:1019E0001978FFF771F8324B32481978FFF76CF825
:1019F000314B32481978FFF767F8314B19780529D0
:101A000000D902212F48FFF75FF82F4B02221978E7
:101A100000238A425B415B4219402C48FFF754F88F
:101A20002B48FEF7D3FF2B48FEF7D0FF2A48FEF7DE
:101A3000CDFF2A48FEF7CAFFF8BD403B5A4253414A
:101A40009900B9E70321B7E750B2000864B2000873
:101A500084B20008A4B20008C8B20008381B0020F5
:101A6000E8B200088CCE000848B2000890B3000825
:101A700010B3000828C000080D00002018B30008AB
:101A80001400002058B300081000002094B3000890
:101A90000F000020E0B300080E0000201CB4000876
:101AA0001817002054B400080B0000208CB4000864
:101AB0000A000020C8B400081A17002000B500086A
:101AC0000C00002038B5000819170020A0B5000848
:101AD000D8B50008FCB5000820B6000840B60008DC
:101AE000224BF0B5D969224B22489C4661444B42B7
:101AF0005941214B83B0C9B21A78012A01D1013171
:101B0000C9B220338342F7D100221B4B194C1878FD
:101B1000012801D1986912182033A342F7D1B023CC
:101B200016481B02FEF7D0FF15481649FEF7CCFFFA
:101B30000125114C144F0F4E03E020340135B442FF
:101B40000ED02378012BF8D1A369617C621C00912F
:101B5000380029002034FEF7B7FF0135B442F0D138
:101B60000A48FEF733FF03B0F0BDC046004001084D
:101B7000FFFE3F4000480108204001084CB6000825
:101B800064B600087706000088B60008A4B600080E
:101B900010B5A0B03022002114A808F0F3FA1022EA
:101BA000002102A808F0EEFA1C2200210CA808F07F
:101BB000E9FA1822002106A808F0E4FA32231024DA
:101BC000139313A8313B16931B93189317941994EE
:101BD00005F0F6FF072300240121029302A8043B2D
:101BE00003930494059406F011FB80230CA89B0238
:101BF0000C93129405F004FF8022A0210020D2054E
:101C0000C90406F091FA80210C4B0905DA6906A88F
:101C10000A43DA61DB6922220B400193019B802396
:101C20009B050793064B06940993202308940A9278
:101C30000B9305F09BFF20B010BDC0460010024082
:101C40007FBB000030B587B014220021684608F041
:101C500099FA8021154D01222800C90004F09EFF49
:101C6000802128000122090104F098FFFF220024AE
:101C70000023694612020E4800920193029404F078
:101C8000E7FDC022002369462800920000920193DC
:101C9000029404F0DDFD0023064A694606480092DE
:101CA0000193029404F0D4FD07B030BD0008004851
:101CB00000040048FFFF00000010004830B583B06A
:101CC000FFF774FD80250022364B374C1A70ED006B
:101CD000364B200029001A6004F060FFA562344CE6
:101CE0002278182A53D8930032499B189B005958E0
:101CF0003148FEF7E9FE314B1B78002B10D0304BFA
:101D00001B78012B4CD0022B43D12E492E4B1B7834
:101D1000052B43D82D4A9B009A582D48FEF7D4FE38
:101D2000FFF790FFFA239B000193019B5A1E01923B
:101D3000002BFAD1802100222648C900019B04F023
:101D40002DFFFA239B000093009B5A1E0092002B4C
:101D5000FAD12078009BFEF7ABFD802100224901DB
:101D60001C4804F01BFF0A2006F02CFB8025802174
:101D70000D4CED0001221748490104F00FFF00222D
:101D80002900200004F00AFFA56203B030BD12490B
:101D9000AEE70D4B11491B78052BBBD9104ABCE7A8
:101DA0001049B3E7391B002000140048D01600206A
:101DB000381B002078CE0008B0B600081A170020A3
:101DC00019170020D8AD00080C000020E8C7000853
:101DD000ECB600080008004828AB0008C8AD0008B1
:101DE000BCAD0008D4AD000870B50D0001268021FF
:101DF0001B4A03041B0C82B05361020C04003240E6
:101E00001848490004F0CAFE8021620C154832408F
:101E1000890004F0C3FEFF21134B2D025A691148BB
:101E200011402943596180210022090104F0B6FEC6
:101E30000A230193019B5A1E0192002BFAD18021A3
:101E4000012208480901019B04F0A8FE0A2300931F
:101E5000009B5A1E0092002BFAD1009B02B070BD6D
:101E600000100048000800480004004830B58021F8
:101E700001251D4A03041B0C85B05361020C0400AC
:101E80002A401A48490004F089FE8021620C174854
:101E90002A40890004F082FE0A230393039B5A1E02
:101EA0000392002BFAD1802100221048C900039B25
:101EB00004F074FE0A230293029B5A1E0292002B26
:101EC000FAD16A468021029B094BD41D1B69074841
:101ED0001B0ADBB2D371C900012204F05FFE207837
:101EE000C0B205B030BDC046001000480008004830
:101EF00000040048F8B50E0005004027224C234A94
:101F00002368AA211B041B0C134323602048FFF7FE
:101F10006BFF55211F48FFF767FFA0211C48FFF703
:101F200063FF31002800FFF75FFF23681A4E1B0490
:101F30001B0C23602800FFF799FF04002800FFF71F
:101F400095FF444027420FD0013E002EF2D12800D9
:101F5000FFF78CFF04002800FFF788FF604007426E
:101F60000FD001267642E5E72800FFF77FFF040047
:101F70002800FFF77BFF4440274202D0013E002E9D
:101F8000D8D10020F8BDC0460004004800005555D7
:101F900055550000AA2A000050C3000070B5402625
:101FA000264C274A2368AA211B041B0C13432360D9
:101FB0002448FFF719FF55212348FFF715FF80211B
:101FC0002048FFF711FFAA211E48FFF70DFF5521FA
:101FD0001D48FFF709FF10211A48FFF705FF236886
:101FE0001A4D1B041B0C23600A20FFF73FFF04005F
:101FF0000A20FFF73BFF444026420FD0013D002D51
:10200000F2D10A20FFF732FF04000A20FFF72EFF6B
:10201000604006420FD001256D42E5E70A20FFF738
:1020200025FF04000A20FFF721FF4440264202D08A
:10203000013D002DD8D1002070BDC04600040048ED
:102040000000555555550000AA2A0000404B4C0091
:10205000D0B586B014220021684608F093F880219C
:10206000154C01222000C90004F098FD80212000B9
:102070000122090104F092FDC0220123002601275C
:10208000694620009200009201930296039704F0A3
:10209000DFFB0123094A6946094800920193029631
:1020A000039704F0D5FB0749074A0B681B041B0C78
:1020B00013430B6006B0D0BD00080048FFFF0000CE
:1020C000001000480004004800005555F0B5DE46F9
:1020D00057464E464546E0B5CFB08B460390049236
:1020E000002901D1002081E10123D14A05E001331B
:1020F000DBB22032402B00D18BE11178FF29F6D1E1
:102100005BB2059300250320C94BCA4902E0203386
:102110008B420DD01A78012AF9D15A699C6912199B
:10212000033282439542F2D2203315008B42F1D123
:102130005B46B0225B191202934200D8C3E0002034
:10214000BB4BBC491A78012A01D19A698018203307
:102150008B42F7D1B02358441B029842C2D8B648EC
:10216000FEF734FC802300259B029A46B34B0FAC4C
:10217000A946012625000193029403E001360435A7
:10218000402E34D0AE4B7201D7183B78012BF5D1DD
:10219000AC49BB698C46019862443100FEF794FC5F
:1021A0004B46A44A2B6090467B6900249844FFF775
:1021B0004FFFBB69002B0FD02B004546B04656465B
:1021C0009A46295D3019FFF795FEBB690134A34299
:1021D000F7D85546B24646460322BB6901369A44B3
:1021E000BB690435033393439944402ECAD19648C2
:1021F000029CFEF7EBFB04F077FA00230022099320
:102200008C4B09A90A920B9316230AA80C9304F08D
:10221000E1F94EAB984680239B024D4601935B4605
:10222000834F0695079303E004342037444540D09C
:102230003B78012BF8D1FFF705FD80210022834870
:10224000C90004F0ABFC7B4A236891469944BB6902
:102250000022002B23D07E4BA2469B464B46B9461C
:10226000170002933D00002400264B469B69FF2087
:102270009D4200D2F4E0A040083406430135202CF2
:10228000F3D1029B3200D9190220002304F07EFA18
:102290004B469B690437BB42E4D84F465446019AEB
:1022A000BB6994469C4463460434019320374445FB
:1022B000BED1079B069D9B4604F02AFA6548FEF7AF
:1022C00085FBFEF76FFD5B4B634C9A46AA44534671
:1022D0005C446419DB0AE40ADB02E402E41AE40A5F
:1022E000994604F001FA002C00D1C6E08027E402F0
:1022F000A0462B003F014F44B84445463E004946A6
:1023000098460EAC0B0002E004339E420CD01A68D3
:102310000132F9D000230A93236001336160200069
:10232000A3600AA904F056F980231B019C46664469
:102330003900B54201D06744E4E74546FFF782FC27
:10234000802100224148C90004F028FC002398465F
:102350003F4B0195994623005C469B464646002527
:102360000027FF20A64248D3A8400835074301367E
:10237000202DF6D15146002341443A00022004F0BA
:1023800005FA04239C46E04400264445E6D85B4613
:10239000A3461C000123237008AB9C4619200F2282
:1023A00060440399019D07F006FF049B3422637487
:1023B0005B46A361294B267466826561E661DA603B
:1023C000059B16AE5D011E4B2D1B9C466544226885
:1023D000291900230220043404F0D8F9A642F6D1CA
:1023E00004F096F9FEF766FC6B46187D4FB0F0BC22
:1023F000BB46B246A946A046F0BDFFF729FE4B46B4
:102400004A461B6830001B041B0C1360FFF72EFDAF
:10241000AAE7FEF7C7FC0123054A05E00133DBB25A
:102420002032402B00D15DE61178FF29F6D167E616
:10243000204001080048010820B7000864B70008E0
:10244000004001080140010890B70008000800485A
:1024500000040048ACB70008FF4F0108002002400C
:10246000FFF7F6FD5B465A461B681B041B0C136006
:10247000019BE818FFF7FAFCFDE60EAC5EE7C046EC
:10248000F0B54E464546DE465746E0B587B01C00DF
:1024900010AB1B780E008046111E019300D1FBE0AB
:1024A00032008148FEF710FB802100227F4849015D
:1024B00004F074FB80210122C9007D4804F06EFB0A
:1024C0007C48FEF783FAFFF7C3FDFFF767FD7A4804
:1024D000FEF77CFA04AB9A465146784B1A68049290
:1024E0009A888A809B798B71002C2ED08023B51D11
:1024F000DB029D4200D97EE0092D29D90A2128005E
:10250000FDF702FE814653469B1B9B466C4B64279E
:102510000093330000244E46994611E04346195D6E
:1025200020000134FFF7E6FC31002000FDF772FEC9
:10253000002967D0AC4200D173E06437AC426ED260
:10254000A145EBD85B46195DEAE73500092DD5D8E2
:10255000002D00D0A5E05B48FEF738FA5A48FEF798
:1025600035FA5A48FEF732FA019B0125002B00D1BB
:102570008EE05748FEF72AFA802100224C48C90015
:1025800004F00CFBFFF75EFBFA239B000393039B15
:102590005A1E0392002BFAD1802100224348C90021
:1025A000039B04F0FBFAFA239B000293029C631E38
:1025B0000293002CFAD18021002249013B48029B62
:1025C00004F0ECFA0A2005F0FDFE802101223748D4
:1025D000490104F0E3FA3F4B1C703F4B1C703F4B2A
:1025E0001C703F4B1C70280007B0F0BCBB46B246C5
:1025F000A946A046F0BD0A213000FDF785FD350053
:10260000814680E729003800FDF77EFD2B000100A0
:1026100022000098FEF758FA6437AC4290D34E4639
:102620000BE029003800FDF76FFD254C01002B0061
:102630002A0020004E46FEF747FA2248FEF7C6F968
:1026400053469B1B00249A460AE0434620001F5D28
:10265000FFF70CFC87420CD10134AC4200D17DE77E
:10266000A642F2D8534620001F5DFFF7FFFB8742CA
:10267000F2D01C4D03003A0028002100FEF724FA96
:102680001248FEF7A3F9019B0025002B00D070E74C
:102690001548FEF79BF9A6E731001448FEF714FA37
:1026A00002E7012399462EE7F0B70008000800482A
:1026B000001400482CB800083CB8000894AD00088D
:1026C00044B800086CB80008B8B80008C0B80008E2
:1026D000ECB80008D5160020D4160020371B0020C7
:1026E000391B002080B8000808B9000810B800089D
:1026F00000B5114883B0FEF769F91049104B09780D
:102700001B78104A009110481049FFF7B9FE0023CA
:102710000F4A13700F4A13600F4A13600F4A136079
:102720000F4A13700F4A13800F4A138000220F4B79
:102730001A7003B000BDC04638B900080F00002071
:102740000E00002068B9000800C8000877060000E5
:102750005502002068020020640200205C02002074
:10276000540200206E0200206C0200204D02002066
:1027700010B582B0002809D03F2805D80E4B400183
:10278000C3181A78012A06D002B010BDFFF7B0FFB7
:10279000FFF794FAF8E7094A996982185C690848D2
:1027A000084B2018084C1B7824780094FFF768FE2B
:1027B000FFF784FAE8E7C04600400108014001083D
:1027C000004801080E0000200F00002010B52E4820
:1027D0008AB0FEF7FBF8AE2385212C4C9B00E05815
:1027E0002B4A89004358002B49D100230193019BB8
:1027F000284A934205DC019B01330193019B9342DC
:10280000F9DD200006F054FD200006F02DFD8021AA
:10281000214B89025A6906A80A435A615B690C2256
:102820000B4002930021029B07F0ACFC8022902019
:102830000123520104A9C0050492059304F008F88D
:102840008021902000224901C00504F0A7F900234F
:102850000393039B114A934205DC039B01330393CB
:10286000039B9342F9DD0E4B0E4A1A60BFF34F8F64
:102870000D4B0E4ADA60BFF34F8FC046FDE7013AB9
:10288000002AAFD1B1E7C04680B90008A81B0020DC
:10289000400D03001FA10700001002403F420F003F
:1028A000F03F0020EFBEADDE00ED00E00400FA05D1
:1028B00070B5764D04002B78002B05D1052807D87C
:1028C000734B84001B599F46012B02D0022B27D04B
:1028D00070BD0C28FCD86F4B84001B599F46FEF737
:1028E000A3FEFFF7EBF9F3E7022300222B706A4BFC
:1028F0001A706A4B01321A70EAE700210122664B16
:102900002A701970654B1A70E2E76548FEF75EF8A9
:10291000FFF7EEFEDCE7FEF749FFFFF7CFF9D7E759
:10292000FEF7C8F95F4B1B78A3420AD87DD000237D
:10293000594A2B7013700122584B1A70C8E7FFF7E1
:1029400045FF594B185DFFF713FFC1E7574B1B7845
:10295000002B44D0564C2078002900DC8FE0062163
:102960000130FDF741FD2170B2E7504A137859421A
:102970004B411370ACE74F4A137800295EDD032109
:1029800001330B401370A3E74B4A137859424B4174
:1029900013709DE7494A137859424B41137097E7EA
:1029A000474A137859424B41137091E7454B1878C9
:1029B000002948DD19210130FDF716FDC8B2FDF7E9
:1029C00077FF85E7404A137859424B4113707FE700
:1029D0003E4A137859424B41137079E70023012294
:1029E0002B702D4B1A702D4B1A7071E7384C2078D4
:1029F00000291DDD03210130FDF7F6FC217067E79A
:102A0000344A137859424B41137061E7324A1368D4
:102A1000002920DD042B29D0082B2DD0102B28D005
:102A2000202B20D00423136052E7FEF7B7FA4FE7BC
:102A300003210230FDF7D8FC217049E7032103335D
:102A40000B40137044E719211830FDF7CDFCC8B2D4
:102A5000FDF72EFF3CE7402B0BD0202B0CD0102B8A
:102A600004D0082BDED04023136031E70823136025
:102A70002EE7202313602BE71023136028E706219D
:102A80000530FDF7B1FC217022E7C046C4160020D6
:102A900044C500085CC50008C3160020C21600200B
:102AA000B4B90008090200200C0200201A17002007
:102AB0000C0000200D0000200A0000200B00002068
:102AC00018170020381B00200E00002014000020E2
:102AD000191700200F0000201000002070B590266C
:102AE00004000125F605C2098021300004F056F8E3
:102AF000A20930002A40402104F050F86209300059
:102B00002A40202104F04AF8220930002A401021EE
:102B100004F044F8E20830002A40082104F03EF8AE
:102B2000A20830002A40042104F038F8620830007E
:102B30002A40022104F032F82A003000012122400C
:102B400004F02CF870BDC04610B5022800D010BDAE
:102B500000228021104804F021F8104B104A197807
:102B60001278914203D100220E4B1A70EFE71A78C7
:102B70000D49D2B2885C3F221978C0B201310A40B7
:102B80001A70FFF7ABFF01228021034804F006F81A
:102B90000122044B1A70DAE700080048D51600201D
:102BA000D4160020371B0020D8160020F0B5574659
:102BB0004E46DE464546E0B507000E0095B00429B6
:102BC00006D90522C24907F0E5FA002800D152E1F2
:102BD00031003800BF4AFDF7CFFD002800D03AE1B0
:102BE00031003800BC4AFDF7C7FD002800D032E1B3
:102BF00031003800B94AFDF7E3FD002800D036E186
:102C000031003800B64AFDF7DBFD002800D02EE188
:102C100031003800B34AFDF7D3FD002800D026E18B
:102C200031003800B04AFDF7CBFD002800D02AE182
:102C300031003800AD4AFDF7C3FD002800D01EE189
:102C400031003800AA4AFDF7BBFD002800D016E18C
:102C5000082E2CD931003800A64AFDF78DFD00283A
:102C600000D083E1092E00D19AE131003800A24A58
:102C7000FDF782FD002800D0D8E1310038009F4ADE
:102C8000FDF77AFD002800D092E1112E07D931001E
:102C900038009B4AFDF770FD002800D0F6E13100B6
:102CA0003800984AFDF768FD002800D09AE131000D
:102CB0003800954AFDF784FD002800D004E131007A
:102CC0003800924AFDF77CFD002800D0FCE031007E
:102CD00038008F4AFDF774FD002800D0BBE03100BA
:102CE00038008C4AFDF76CFD002800D0B3E03100BD
:102CF0003800894AFDF740FD002800D0AFE13100DF
:102D00003800864AFDF738FD002800D0A7E1052EDF
:102D100022D931003800824AFDF72EFD002814D058
:102D20007B7900241A00303A791D092A0AD8A200BA
:102D3000121952000131D4180B78303C1A00303A85
:102D4000092AF4D93D2B00D1F7E131003800754A4A
:102D5000FDF712FD00285DD131003800724AFDF701
:102D60002FFD002800D0C0E1310038006F4AFDF788
:102D700027FD002800D0B8E1310038006C4AFDF78B
:102D80001FFD002800D0CFE131003800694AFDF76F
:102D900017FD002800D0C7E131003800664AFDF772
:102DA0000FFD002800D0F6E131003800634AFDF73E
:102DB00007FD041E00D0EEE1614D2B789946002BF3
:102DC00000D0F6E15F4B1B78002B01D100F0C8FE6C
:102DD0005D4B1B68B34201D900F0C2FE5B4B1B7810
:102DE000002B01D100F0B1FEB0460026B844B84532
:102DF00001D100F075FE402E01D100F075FE3C7847
:102E00002000FDF7A3FC002802D004AB9C5501363E
:102E10000137ECE77A79791D1300303B092B01D992
:102E200000F042FE0024A3001B195B0001319B1837
:102E30000A78303B1C001300303B092BF3D92100EA
:102E40004348FDF741FE1E2C15D01F2C01D100F088
:102E500082FF202C02D101223E4B1A700124200057
:102E600015B0F0BCBB46B246A946A046F0BD012253
:102E7000394B1A70F2E70122384B1A70EEE7012243
:102E8000374B1A70EAE70122364B1A70E6E72378CF
:102E9000022B01D100F01EFC2378062B00D1D0E3D9
:102EA0002378032B00D1B2E32378042BD6D1002E54
:102EB000D4D03B78202B07D000D9A1E30D2B03D031
:102EC0001B2BC8D00A2BC9D10122274B1A70C5E78A
:102ED000DCB90008E4B90008ECB90008F4B900084E
:102EE000FCB90008E0B9000808BA000810BA0008E8
:102EF00018BA000824BA000830BA00083CBA000822
:102F000048BA000868BA000874BA00087CBA000819
:102F100088BA000890BA00089CBA0008A4BA000851
:102F2000ACBA0008C8BA0008E0BA0008E8BA00085D
:102F3000F0BA0008F8BA000800BB000808BB000897
:102F4000391B00201400002010000020181700205A
:102F5000D0BA0008941600203A1B002095160020D5
:102F6000921600209316002096160020797A3800D9
:102F70000B00303B0930092B00D9C7E000231A00B1
:102F800093009B185B0001305A180178303A0B000F
:102F9000303B092BF4D91300C54A5BB213705DE7CF
:102FA00009213800C34AFDF7E7FB002800D176E687
:102FB000797A38000B00303B0930092B00D9B1E099
:102FC00000231A0093009B185B0001305A18017807
:102FD000303A0B00303B092BF4D91300B64A5BB2F0
:102FE00013703BE73A007B7A0932002B73D0002044
:102FF000B24C0FE00A2B0FD00F280FD01900203948
:103000005E2903D83B2B01D0235401305378013281
:10301000002B01D00D2BEDD100285DD00023012223
:103020002354A74B1A70A74B1A7017E7B97A3800C8
:103030000B00303B0A30092B7DD800231A00930087
:103040009B185B0001305A180178303A0B00303B76
:10305000092BF4D913009C4A5BB21370FEE60222DE
:103060009A4BFF211A700023994A9A4813709A4A82
:1030700013709A4A11709A4A802113700122994B59
:1030800049011A70002203F089FDE7E63A00BB7C93
:103090001232002B3CD00020884C0FE00A2B0FD0BE
:1030A0000F280FD0190020395E2903D83B2B01D0FF
:1030B0002354013053780132002B01D00D2BEDD178
:1030C000002826D00023022223547D4B1A707D4B0A
:1030D000013A1A70C2E6794C10222000824907F0AA
:1030E0006AF82000FDF7CAFA98E7804B1B78172B87
:1030F00000D9B3E60133D8B2FDF7DAFB01227C4BED
:103100001A7005F059F97B4B1860A7E6002343E7D6
:103110006A4C10222000744907F04DF82000FDF79A
:10312000ADFACFE7002359E7704B1B78002B00D195
:1031300094E6013BDFE700238DE700250A220131F9
:1031400003E05543303D5D1901310B7818003038EC
:103150000928F6D923000A3B0B2B0FD8664A9B009F
:10316000D3589F46654B1A6804921B7904AA1371C1
:1031700004239D4200D8535D614A136001225C4BD9
:103180001A7005F019F95B4B2A00186021005D48A0
:10319000FDF79AFC62E6554B1978182901D900F021
:1031A000DFFD14224A43584BD1585848FDF78CFC98
:1031B00054E6022B00D103E1032B00D1C0E0012B28
:1031C00000D04BE605F0F8F80122514B1860514B46
:1031D0001A70514A13689B191360504B1B78002BCF
:1031E00030D02300B0464C4600269946B844B84536
:1031F00055D0402E22D03D782800FDF7A7FA0028B0
:1032000002D004AB9D5501360137F0E72A00511E6C
:103210008A41434B1A70B1E72A00511E8A413F4B45
:103220001A70ABE72A00511E8A413E4B1A70A5E77F
:103230002A00511E8A413C4B1A709FE74B46A1461B
:103240001C0004AF394B9A461B78002B00D175E166
:103250008021BB19C9028C46C8469B463A003448B7
:10326000344D354F354E0194934500D152E13968C4
:10327000614512D201882B8801318905890D8B4265
:103280000BD003889BB2994613789A464B46544616
:10329000F45401803968013139600132E4E74B466A
:1032A000A1461C00002E01D14C46D8E504AFC9E769
:1032B000030000203CBA0008010000208016002016
:1032C000901600209116002002000020391B0020DB
:1032D000C416002000080048C31600200900002082
:1032E000C1160020C21600205CBA0008381B00205E
:1032F000CC160020C816002090C500085CBB000852
:1033000010000020B4BA000878CE000810BB0008F6
:1033100058020020550200206002002018170020EB
:103320000B0000200E0000200F000020540200209F
:103330006E0200206C020020640200207002002057
:10334000C14C2378002B00D0A1E5BB190193BF4BE2
:1033500000219B4608239946183398465B463A005D
:103360008A46BB4E02940393019B934200D1BFE077
:1033700013781B2B00D1A9E00D2B00D19AE00A2B6A
:1033800000D197E0082B7ED07F2B7CD01F00203F00
:103390005E2F51D8307884460E284DD86446471C9D
:1033A000AA48FFB203558346002084465846644627
:1033B0003770C4553F293FD804A84F1C43543CE004
:1033C000A44B1A78002A32D1002E00D146E5A24C37
:1033D0002378002B29D0012B20D00622022B16D0D7
:1033E00000203B78012E08D03B5C202B01D0092B1C
:1033F00026D101308642F7D130E5202BF4D10022CE
:10340000964B9A56964B1A70964B1E7026E5FDF712
:1034100051FC954B1A780232D2B2E1E7934B0B2262
:103420001B78002BDCD00232DAE70622D8E7012233
:1034300018708F4B1A7011E50F003900013293E7B5
:10344000864200D80AE53B1898463B5C1B2B00D10E
:10345000A1E12578002D00D08FE1352B00D9C4E201
:10346000302B00D859E104F0A7FF824B7B4A18604B
:1034700043461B78313B5BB21370794A13700122CB
:10348000784B1A70EAE43378002BD5D0574603986E
:10349000013BDBB2C754CF1C33703F2FCCD848461A
:1034A00004AB58540B0004A98C4641466344597040
:1034B0009870C2E7664D029C2B78644E002B0DD0AD
:1034C00000222B78F25401232370C7E40223624ABE
:1034D0002B7013700122664B1A70BFE410226649EC
:1034E000300006F068FE3000FDF7C8F82870E7E706
:1034F000002900D1B2E4AE22604B92009A58852395
:103500009B00D358002B00D0A8E489B204A806F091
:1035100061FBA3E402882B88C146019C9A423CD3FC
:1035200003882A889B1A9BB2554AD31A9BB27F2BD9
:1035300000D9B9E60122534B1A7090E4524B1A6835
:103540009846802392195B019A4246D942461268F6
:103550009D1A93422FD1524601231370BA199146F6
:10356000A2467D1949494A4F4A4E4B48A9451DD0AC
:103570000B883A8801339B059B0D9A420BD00A8831
:1035800092B294462A78904662464446B4540B80E0
:103590000368013303600135E8E78021C9008C46E8
:1035A00003882A8863449B1A9BB2BDE70122354BEE
:1035B00054461A7053E443461868384B2A00C01822
:1035C000390006F039FE434642461B685B1913601A
:1035D000314A13685B191360BDE7434618682F4BE7
:1035E0003200C018390006F027FE434642461B68E9
:1035F0004C469B191360284A13689B1913602EE4EC
:1036000020229343432B00D028E4FFF724FC002E14
:1036100001D1FFF723FC3B784E2B00D1A5E000D869
:1036200095E06E2B00D1A0E020229343592B01D0CE
:10363000FFF714FC01221A4B1A701A4B1A70FFF78D
:103640000DFC0022202141E0C0160020B016002011
:10365000AC16002099160020C4160020C3160020C6
:103660000900002008000020090200201A1700208D
:10367000C2160020040200205CBA0008A81B00202B
:10368000FF0300003C260020680200206E0200209C
:103690006C020020700200206402002070060020EE
:1036A0009716002098160020BB5C1B2B00D10DE75D
:1036B000302B00D10AE718008843512800D105E7D4
:1036C000180031380132082800D866E1B242EBD147
:1036D000FFF7C4FB04F070FED64BD74A186013689E
:1036E000B1469B191360D54B80269846D44CB944FB
:1036F000F602B94501D1FFF7B1FB43461B783D788F
:10370000002B04D02800FDF721F8002803D0206802
:10371000B04200D277E10137EBE7082B00D160E13E
:10372000302B00D15DE10D2B00D148E10A2B00D1F7
:1037300045E1202B01D0FFF791FB0022C14B9A56A7
:10374000C14B1A700122C14B1A70FFF787FB0A3B6D
:10375000DBB2162B01D9FFF781FBBD4ADA4013001B
:10376000DB0700D566E7FFF779FB0022B94B1A703B
:10377000B94B01321A70FFF771FB012D00D1BCE08B
:10378000022DD0D11A00083AD2B2772ACBD8B34949
:1037900092008A589746831CB34205D24146497825
:1037A0005B291AD04F2918D02378013B012B00D870
:1037B000A0E00122AA4B1A70FFF750FBA14BA94AC7
:1037C0001B7812785BB2934201DBFFF747FBA64AF6
:1037D000D256A64B1A70FFF741FBF95C3339C9B2D8
:1037E0001129E1D8A24B89005B589F46954B9D4A11
:1037F0001B7812785BB2934201DBFFF72FFB9A4AEA
:10380000D2569C4B1A70FFF729FB01229A4B1A7073
:10381000FFF724FB934A303B1278DBB29A4201D87F
:10382000FFF71CFB874A13700122944B1A70FFF7B5
:1038300015FB0330B042B7D23B5C7E2BB4D123786A
:10384000022B01D0FFF70AFB7E4B864A1B781278C9
:103850005BB2934201DBFFF701FB834AD35C002B91
:1038600001D1FFF7FBFA864A5BB21370FFF7F6FA55
:103870002378012B01D0FFF7F1FA724B013A1B7844
:103880005BB2934201DBFFF7E9FA6F4A1370FF2244
:103890006E4B1A70FFF7E2FA2378012B01D0FFF785
:1038A000DDFA6849013A097849B2914201DBFFF734
:1038B000D5FA654A1170654A1370FFF7CFFA61496E
:1038C0000B7801335BB2934200DB002301220B70C3
:1038D0006A4B1A70FFF7C2FA5A490B78013B58B28B
:1038E0001B0601D5501E40B20122644B08701A70AD
:1038F000FFF7B4FA0023237094E71A00313A082A3C
:103900003BD92022190091430A0041292CD05D495E
:103910000978002908D0542A00D17FE02822190014
:1039200091430A00432975D0512B07D00FD8302B73
:1039300004D0422B02D0082B00D0F4E60023012251
:103940002370404B1A704D4B1A70FFF787FA623B99
:10395000DBB21D2B01D9FFF781FA4B4ADA40130085
:10396000DB07EBD4FFF77AFA364B383A1A70364B4E
:103970001A70364B1D70FFF771FA04F01DFD434BB2
:10398000304A186043461B78313B5BB213702E4AB5
:1039900013702E4B1D70FFF761FA303BDBB296427D
:1039A00008D9BA5C303AD2B2092A03D80A214B436B
:1039B0009B18DBB2364A5BB21370FFF74FFA04F084
:1039C000FBFC324B1B68C01A642801D8FFF746FA8B
:1039D000B3E6623BDAB22C4BD340DB0701D4FFF7EE
:1039E0003DFA0522174B1A70AAE65AB2002A01DAEC
:1039F000FFF734FA612BECD8422BF2D0512B01D0D7
:103A0000FFF72CFAEDE7431C290023600137FEF78E
:103A100071FA6EE60B4B383A1A7091E6094B4A3A46
:103A20001A708DE6052D01D9FFF7A8FB194B1D7003
:103A3000FFF7A4FBA0160020A41600200B00002016
:103A4000A8160020C316002009000020080000204E
:103A5000090040009716002098160020C0C50008F5
:103A6000C1160020090200200C02002005000020E1
:103A7000A0C70008060000209A160020C2160020E9
:103A8000070000201A1700200180002004020020F7
:103A9000040000200C000020022D01D9FFF76EFB6E
:103AA000B14B1D70FFF76AFB0021B048FDF70CF821
:103AB000FFF7D4F92A00511E8A41AD4B1A70FFF767
:103AC0005DFB0322AB4B2A401A70FFF757FB182D02
:103AD00001D9FFF753FBE8B2FCF7EAFEFFF74EFB14
:103AE000002E01D1FFF7BAF904AB984601278021D7
:103AF0003A00A148C9002F7003F050F8802100223D
:103B000049019E4803F04AF800239D4C9D4D9E4A72
:103B100023602B6013609D4A17709D4A13709D4A65
:103B200013809D4A13809D4A137004F045FC9C4B02
:103B30003200186041469B4806F07EFB9A4826609A
:103B40002E60FCF743FFFFF789F9402E00D940268D
:103B500004AB320039001800984606F06DFBC5E74B
:103B6000844B1B78012B00D19CE0022B00D185E017
:103B7000032B65D08D4B1B78002B07D07A4B1B781D
:103B8000002B00D0BEE0012E00D1A1E0884B894976
:103B90001B7800200193BB1903933F239B46864B60
:103BA00001269A46854BD44699460A238A4698466A
:103BB0003A000C78824F039B93421AD0019B1578F0
:103BC000002B05D00D2D4AD00A2D44D00024300002
:103BD00059463B7801330B4061460978029399427C
:103BE00005D04B463978C9B25D54029B3B70013217
:103BF000E1E75146002800D00C70724C2378002B6E
:103C000001D0FFF72BF96C4A6D4B11781B78994264
:103C100001D1FFF723F913786849DBB2C85C3F2173
:103C20001378C0B201330B401370FEF757FF012227
:103C30008021524802F0B2FF01232370FFF70EF9F2
:103C4000012E97D13B782B2B10D02D2B92D1FCF746
:103C5000F9FFFFF703F9002C0CD10120B8E7300081
:103C600034004546B4E7FB787E2B83D1FCF7B2FFE6
:103C7000FFF7F4F80024012001329CE7032E00D066
:103C800078E73B781B2B00D074E77B785B2B02D066
:103C90004F2B00D06EE7BB78412BE7D0422B00D0F2
:103CA00068E7D4E7042E00D064E73B781B2B00D0F4
:103CB00060E77B785B2B00D05CE7BB78352BD2D0FC
:103CC000362B00D056E7FB787E2B00D052E7BEE7BC
:103CD0003B78202B00D059E704AA11003A4B31CB96
:103CE00031C131CB31C1394B64211B78052B01D84F
:103CF0009B00995872B6364A13685B18136062B617
:103D0000FFF7ACF8012B07D1012E00D03EE73B783E
:103D1000092B00D03AE7DFE7022B00D036E7012E6F
:103D200000D033E73B780D2BD6D00A2B00D02DE7FF
:103D3000D2E72A00511E8A411C4B1A70254B187875
:103D4000FCF7B6FDFFF71AFA2A00511E8A41184BFC
:103D50001A70FFF713FA01221F4B1A70FFF77EF853
:103D60001E49FFF722FAC04619170020D0BA0008F2
:103D7000140000200D000020001400480008004836
:103D800068020020640200205C020020550200202E
:103D9000540200206E0200206C0200204D02002020
:103DA000580200207006002020BB00081A170020CF
:103DB0000A00002008020020D5160020D816002096
:103DC000D4160020371B002010AB00080C00002088
:103DD000D0160020381B00207D16002028AB0008DC
:103DE000F0B5DE4657464E464546E0B501269024DE
:103DF000C5B0FE4D02AF04F0C3FAAB693A193343C4
:103E0000AB61AB690321334013601300F84A1B68B0
:103E1000136889468B431360FDF7BAFE64231B19B0
:103E200014220021D81906F0ADF980226B699203A3
:103E300013436B616B69EF481340CC22B9180B60D8
:103E40000B0080221B686B69D20313436B616B69A3
:103E500000241340D022B9180B600B0080221B688D
:103E60006B69120313436B616B691340D422B91859
:103E70000B600B0080221B686B69920213436B611D
:103E80006B6992461340D822B9180B600B00802250
:103E90001B686B69D20213436B616B691340DC22B0
:103EA000B9180B600B0080221B686B695203134327
:103EB0006B616B691340E022B9188022D2009046F2
:103EC0000B600B00002241461B6802F067FE0122D6
:103ED000C949CA4802F062FE90200022FF21C005B5
:103EE00002F05CFE84210022C448490102F056FE23
:103EF000F423C34AF9180A60F8217A181460FC22E6
:103F0000B81804609020903B1A18D119BD4802F0EF
:103F10009FFCF4234046FA181060F821FC22902000
:103F20007918BA180E6014607A1C903BFF32146046
:103F30001A18D119AF4802F08BFCF4230222F918A9
:103F40000A60F821B0487918086083469020FA3258
:103F5000903BBA1816601A18D119A84802F078FCDC
:103F6000F4230420F9180860F821083379180E604A
:103F7000F9180C6049467A1CFF32983B8C3011606E
:103F80001918C9199D4802F063FCF4220823B918D6
:103F90000B60594690200432BA18F4331160F918B6
:103FA000983B0C601918C919944802F051FCF4238D
:103FB000FF21FA18116007397A181660FC22902048
:103FC000BA1814607A1C903BFF3216601A189020C1
:103FD000D119C00502F03CFCF4231020F821FA1896
:103FE000106008337A18834614608030FA18983BC2
:103FF00016601A18D119814802F02AFCF4226023B5
:10400000F821BA1813607A181460902002229C33A9
:10401000F918983B0A601A18D119784802F018FC70
:10402000F4237749FA181160F8217A181460FC22F9
:104030009020903BBA1814601A18D119734802F0F6
:1040400007FCF4238421FA1849011160F82190201B
:104050000833FA1879180E6014607A1C983BFF3206
:1040600014601A18D119654802F0F2FBC023F4223B
:104070009B00BA18F8211360FC23902079180C607B
:10408000F918983B0C601918C9195C4802F0E0FB5C
:104090008023F4225B00BA18F821136002227918F9
:1040A0000A604A469020043BF9180C60791CFF31E5
:1040B0000A60791D983BFF310C6019189020CA19CD
:1040C0001100C00502F0C4FBC023F4221B01BA1882
:1040D000F8211360FC23902079180E60F9180C6009
:1040E000791C983BFF310E601918CA19110043481A
:1040F00002F0AEFBF423FF21FA181160F822083316
:10410000BA18FB18146090201C6064231A18D11987
:104110003F4802F09DFB00220021052002F0FAF941
:10412000052002F021FA00220021062002F0F2F917
:10413000062002F019FA52466B69002113436B61A5
:104140006B6913409422B8180360036890236C20B5
:10415000C0180C22C01906F015F8F42180227B1833
:1041600052011A60902064231B189020043192465B
:104170007A181660D919C00502F06AFB9020002257
:104180005146C00502F00AFD642004F01BF990209E
:104190005146C00502F068FC05F0C6FC902054238F
:1041A0001B180C220021D81905F0ECFF194A1A4BF4
:1041B0000420136080235B029361C2235946FF33BE
:1041C000D3619E3B5061FF3B100093469160D454F5
:1041D000BA605460D46016611462946201F0D2FF38
:1041E000E4210A2379180B60514617E000100240C1
:1041F0000000014000140048040C000000080048C2
:10420000FFFF0000001000480000211000040048DB
:10421000000C00483C1B002000240140DE33FB184A
:104220001960EC234946FB189022196054239B180F
:10423000D919584602F0DCF88022AB691201134309
:10424000AB61AB69D0481340C822B9180B600B00B2
:10425000E0221B68CD4BFF321C609A62783AFF3A2D
:10426000DE625E639A61802212021E625A648022BC
:1042700041461A607F3A02F091FC502004F0A2F807
:1042800000224146C04802F089FCC14B1C70BB674C
:10429000C04B1C609A46C04B1C607B63BF4B1C60CC
:1042A0009B46BF4B1C70FB60BE4B1C60FDF7CAFCFD
:1042B000FA23A4229B00BA181360A4217B181B6860
:1042C00079185A1E0A60002BF7D10B0080210022BA
:1042D000B548C9001B6802F061FCFA23A0229B00CC
:1042E000BA181360A022BB181C68BA18631E1360AA
:1042F000002CF7D180211300AB48012249011B6833
:1043000002F04CFC8021A048C900002202F046FCCB
:104310008C22A64BBA1813601C70FDF785F9FCF7C8
:10432000F9FDA34B1878BB64FCF7C2FA10219E4834
:1043300002F02EFC9F4BA04ABB65187043425841C7
:10434000FA66107004F038F89C4B18607B659C4B43
:104350001C603B649B4B1C70FB619B4B1C70BB61E6
:104360009A4B1C703B639A4B1C603B61994B1C60E1
:104370007B60994B1C603B62984B1C607B61984B47
:10438000FB631C70974B7B641C70974B1C80BB625B
:10439000964B7B621C80964B1A00BB630023137004
:1043A0008422944BBA1813608822934BBA18136076
:1043B0008022924BBA18BB66914B7B66914B3B6651
:1043C000914B1360914BFB67914B3B67914BFB64A7
:1043D0008423FB181B681B78002B00D08EE28823F7
:1043E000FB181B681B78002B00D07FE2BA6E137895
:1043F0005BB2002B09DBFF231478F86C21001370EB
:10440000FCF762FB2000FEF7B3F97A6E13785BB21B
:10441000002B06DBFF23107813703F2801D8FCF730
:1044200065FB3A6E13785BB2002B11DBFF23147827
:104430001370631E3E2B02D82000FCF74DFD2100B7
:104440007548FCF741FB88220123BA1812681370E3
:104450008023FB181B681B78002B00D012E2FB6F37
:104460001B78002B00D0FAE13B6F1B78DCB2002BED
:1044700000D002E2694E3378002B00D00AE310210D
:10448000494802F085FBBB6D1C78844200D15EE296
:10449000187003F091FF7B6D1860FB6E1B78002B8A
:1044A00000D065E28C23FB181B681B78022B00D11F
:1044B0007CE2032B00D1EFE0594C012B00D125E227
:1044C0002378002B20D05B461A6853461B689A421B
:1044D00000D231E25B4652461B6812689B1A9BB2BF
:1044E0008022920093420FD2002323704D4B1A7802
:1044F0004D4B1B78002A00D1BAE3002B04D1234A8C
:10450000013311680B4313608C23FB181B681B7865
:10451000002B00D007E153461A685B461B689A429D
:1045200000D107E1AE2341499B00CA58A43BD358B0
:10453000002B00D0FEE05A4615685246796B12688F
:104540003B4E0A603278D1B28846002A00D19BE304
:10455000524638481268825C0D2A01D100F0EDFF06
:104560000A2A01D100F0E9FF52461268AA4201D29C
:1045700000F0FDFE524680211268C900891A554696
:10458000002966D100F082FF00140048002C014091
:10459000371B00202C17002028170020241700208C
:1045A000341B0020301B002000080048391B00206D
:1045B000381B0020000000207C1600207816002008
:1045C000741600207216002071160020701600204C
:1045D00068020020640200205C02002058020020D3
:1045E00055020020540200206E0200206C020020C0
:1045F0004D02002093160020921600200300002098
:104600000200002001000020911600207D160020ED
:104610009516002064BB000878BB000894160020A3
:104620001C1700201B1700201A170020A81B0020B1
:104630004C020020301700202A688218D25C0D2A14
:104640000AD02A688218D25C0A2A05D0013399421E
:1046500002D032789A42EFD8AA461D1E01D100F04E
:1046600015FF53461B68A9B2C01805F0B3FA5346AC
:1046700052461B68EB18136080231268DB009A42D5
:1046800002D300235246136033789D4201D200F0DA
:10469000F2FF0023337012E3DA4D2B78012B01D1A6
:1046A00000F0B4FD2B78022B00D13EE32B78062BD3
:1046B00001D100F019FD2B78032B01D100F022FF6E
:1046C0002B78042B01D100F0B0FF2B78CE4C052BBA
:1046D00000D0F5E6CD4BCE4ECE4D1A78280031688D
:1046E000FDF7F4FC041E01D101F036FA2100CA489E
:1046F0002A003368FCF7E8F92100C848FCF7E4F920
:10470000C74803F05FFE8C220223BA1812681370A8
:10471000C44A13700122C44B1A708823FB181B680B
:104720001A70B94CCCE6032B04D1B64B1B78042B82
:1047300000D1F0E672B68C23FB181B68BA6F1B78A9
:104740001278134300D11DE262B6B84BFB651B78AB
:10475000002B00D033E2B64C2378002B00D0ECE1E4
:104760008C23FB181B681B78002B00D030E6B14A65
:104770001278002A00D12BE6AF4A1168002900D137
:1047800026E672B611681360894662B6AB4B1B7899
:10479000002B01D000F0A0FFA94AAA495368AA48FB
:1047A000096803400B435360BA6CA84B1178A848C2
:1047B0008A00521892009B185C684B46844201D8CC
:1047C00000F0CEFD642B01D900F000FE01204B4625
:1047D000002B01D100F053FE0124032800D98408E6
:1047E000002556469B4B7B670023982204E0C04679
:1047F0009822BB181B680133B9180B600B689C42E8
:10480000F5D85B4632681B689A4222D0AE237A6F95
:104810009B00D258A43BD3589846002B19D15B4635
:104820001B6832689A4201D301F0FAF83C213268E1
:1048300088469A1A3B2A03D832689B1A9BB298463C
:10484000854B30684146C01805F0C4F933684344CD
:1048500033600135A945C7D1B24600F010FE0023F0
:10486000FA6F7E481370FCF7B1F8FDF741FF3B6F1C
:104870001B78DCB2002B00D1FCE500233A6F1370EB
:10488000FDF7A4FF80230025624CFB181B687449C8
:104890000F2220001D7005F08EFC2000E573FBF751
:1048A000EDFE704B704A1870704B1B78DBB21370C2
:1048B000FF226F4B1A706F4B1D70FDF7C9FBFDF7A0
:1048C0006DFB534B1D606C4B1D6003F075FD8C221E
:1048D0006A4BBA1818600323126821001370022271
:1048E000484B67481A70FCF7EFF8B8E588220023B8
:1048F000BA1812681370FDF7F3F877E584220023E5
:10490000BA1812681370FDF719F868E57B6C1B780C
:10491000002B00D01EE2FB6B1B78002B01D000F0B7
:1049200013FC2378002B00D104E75B461A6853463A
:104930001B689A4200D3CDE580215B465246C900F0
:104940008C461B68126863449B1A9BB2C8E503F04F
:1049500033FD7B6D1B68C01A0E2800D89DE5FB6EE9
:104960001D78002C00D012E3002D01D100F007FDCE
:1049700003F022FD3B6C1B68C01AFA235B019842CE
:1049800000D2E8E001243B6B32211C70FBF7BCFB3A
:1049900080223C4BD200044200D0F1E09A628C238A
:1049A000FB181B681B78022B00D082E5364A13786F
:1049B000D9B2002B00D0AEE12E480378DAB2002B3A
:1049C00001D000F01AFC31490B785BB2002B01DA00
:1049D00000F08EFCFF230C780B70631E3E2B02D878
:1049E0002000FCF779FA2A482100FCF76DF89620A0
:1049F000400003F0E7FCFCF7FDFD8C23FB181B686F
:104A00001B7856E5C01600201C1700200B00002064
:104A1000A8160020B0160020F0C0000828C1000829
:104A2000DC050000C4160020C21600203A1B00203E
:104A3000CC1600201A170020D01600201B170020CB
:104A40000010024020170020FFFFFF8078CE0008F2
:104A5000006CDC02A81B002030170020B4B900084D
:104A600080160020AC1600207E1600209016002034
:104A7000090000209A160020A4160020A01600208D
:104A80008CBB000800140048C1160020070000205D
:104A900024BC000880210122E048C900347002F0E3
:104AA0007DF8802100224901DD4802F077F80A20D4
:104AB00003F088FC802101224901D94802F06EF8F8
:104AC0003C2003F07FFC80210022C900D34802F083
:104AD00065F8D44B1C60D44B1C70D44B1C70BB6F5E
:104AE0001C70BC6C2078FBF7E3FE2178182900D9F4
:104AF0000FE18B005B18CE4A9B009958CD48FBF71D
:104B0000E3FFCD4B1B78002B00D1B8E4CB4B1B78D7
:104B1000012B01D100F0F3FCC949022B01D000F0B8
:104B200012FCC84B1B78052B00D9DBE2C64A9B0060
:104B30009A58C648FBF7C8FFA1E403F03DFCC44BFC
:104B40001B68C01AC34B984200D809E600232370A3
:104B5000FCF72CFE04E6BF4B984201D900F033FD70
:104B60008C23FA22FB181B6892001B78904201D21A
:104B700000F0ECFB0123FA6913708022A74BD200EE
:104B80009A618FE462B64021A54802F001F8B24B69
:104B90001870002800D191E272B6B04B1869C0B20B
:104BA000FDF79CFF012280219D4801F0F7FF62B6CE
:104BB00062B6AB4BFB651B78002B00D1CBE56B4697
:104BC000FB62A84B80219C46E54402AB002294483E
:104BD00049013B6501F0E2FF0A2003F0F3FB0022EC
:104BE0003B6D16009846A04CA04D04E00136AE4245
:104BF00001D100F034FFFDF72BFA236830001B04CD
:104C00001B0C2360FDF732F943469855FF28EDD180
:104C1000B0463B2E01D800F06AFF85239B00444636
:104C20000026994692493D6D7967AE227B6F9200CE
:104C30009A584B46D358002BFBD128003C213C3CD2
:104C400004F0C8FF3C363C353B2CEED8464501D23B
:104C500000F0D9FC8C23FB181B681B78002B01D1BA
:104C600000F0BAFC0023FA6D1370FB6A9D4672E5F2
:104C7000002B00D048E47F4A7F4953687F48096889
:104C800003400B4353603FE453461B68AB4200D2E2
:104C900047E353461A68F1239B009A4201D200F081
:104CA00020FC5346802118681B68C900C91A744B40
:104CB00089B2C01804F08EFF534642461A6023782A
:104CC000002B00D136E55B461A6853461B689A42B2
:104CD00001D200F0FAFB5B4652461B6812689B1A31
:104CE0009BB280229200934200D323E500232370DD
:104CF000644B514A1B781278002B01D100F054FD0F
:104D0000002A00D016E501235F4A11680B431360A7
:104D100010E55E49F2E600231370FCF7CFFF8C2309
:104D2000FB181B681B78FFF7C4FB594C2368002B4A
:104D300000D1BBE403F040FB564B1B68C01A63284C
:104D400001D900F07CFD8C23FB181B68524C1B78AA
:104D5000FFF7B3FBBB6B1B78002B01D100F0D1FE3A
:104D6000B96A786A0B884D4D0288A8464C4E9A4223
:104D700000D1BCE04B4B80257B674B4B3C65994693
:104D80005B46FB655346B34604008A463E6AED0225
:104D9000FB621EE03368AB4200D1F1E05B461B785A
:104DA000002B10D053461A8823889A4200D281E003
:104DB00053461B8822889B1A3C4A9BB2D31A9BB24B
:104DC000FF2B00D985E053461A8823889A4200D1E8
:104DD00087E0424623889BB2D15C2388C9B2013365
:104DE0009B059B0D23803368AB42D3D23068431CB4
:104DF0003360FDF77FF84B4632681B689A42CDD38B
:104E000031682B48FBF760FE80224B46D200944667
:104E10004A461B6863441360C0E7C046001400485C
:104E200000080048D0160020D5160020D416002017
:104E300078CE0008A0BB00081A1700201917002020
:104E4000D8AD00080C000020E8C70008ECB6000848
:104E5000C8160020B70B0000361B0020000C0048CD
:104E60003A1B002078ECFFFF000400488813000084
:104E7000A81B00200010024020170020FFFFFF8029
:104E8000301700201B170020002C014028AB000821
:104E9000A8160020A01600201C1700207002002079
:104EA0003C260020F8C1000850020020FF0300004B
:104EB000E0C1000880215346C9008C461B88228827
:104EC00063449B1AE34A9BB2D31A9BB2FF2B00D8D0
:104ED00079E704F0ABFE53461A8823889A4200D043
:104EE00077E7FB6D5E469B46FB6A3C6D9A463378DE
:104EF000002B00D040E2BB6B1B78002B01D1FFF7E9
:104F0000DFFABB6A1A887B6A1B889A4201D0FFF7D6
:104F1000D7FA03F051FA7B691B68C01A632801D8DD
:104F2000FFF7CEFACC4B1B78002B08D080223B6ACF
:104F3000D2021B680633934201D800F0A3FE8023FF
:104F4000386ADB02026819009A4200D80168C34837
:104F5000FBF7BAFDC24B1B78002B01D000F0B9FE65
:104F6000C048FBF733FD0023FA6B13707A6C1370A3
:104F7000BA6B13703A69136004F058FEFFF7A0FA99
:104F8000786FFBF723FD33680133336006E7012CAC
:104F900001D0FFF782FA002D01D1FFF783FA002339
:104FA000FA6E137003F008FA396B3A6C09781268DC
:104FB000002901D000F01CFD831AFA22520193420D
:104FC00001D300F015FDBA691278002A01D000F073
:104FD0002BFEA54A934201D900F026FEFA69127809
:104FE000002A01D000F025FEFA24A400A34201D338
:104FF00000F01FFE8C22BA18126812780E2B01D80E
:1050000000F0F8FC022A01D100F023FF012A01D1AF
:1050100000F0D9FE802101229448C90001F0BEFDB4
:10502000802100224901924801F0B8FD0A2003F0D6
:10503000C9F98021012249018D4801F0AFFD3C20D2
:1050400003F0C0F980210022C900884801F0A6FDC4
:105050000023884ABC6C1360874A20781370874A03
:105060001370BA6F1370FBF723FC2178182901D94C
:1050700000F0A6FE14224A43814BD1588148FBF729
:1050800023FD814B1B78002B01D100F0B3FC7F4B3B
:105090001B78012B01D100F090FE7D49022B00D03E
:1050A0007C497D4B7D4A1B78052B02D87C4A9B00AE
:1050B0009A587C48FBF708FD00F09CFC20216C48C6
:1050C00001F066FD784B1870002800D16CE1FB6898
:1050D0001B78002B01D100F0FDFC72B6B86801F01E
:1050E00083F95CE56D4A24E5704A13785BB2002BC6
:1050F00001DAFFF716FBFF2314781370631E3E2BB3
:1051000002D82000FBF7E8FE21006948FBF7DCFC31
:10511000FBF7F2FDB02300211B02984200D2191ABE
:10512000644B1B688B4200D94CE36348FBF7CCFC13
:105130006248FBF74BFC03232B708933FB181B6879
:105140005F4C1B78FFF7B9F903F036F97B691B68F0
:10515000C01A632801D8FFF7B3F95A4B5A4D1B7890
:10516000002B28D02B68002B25D039692A680B68C2
:1051700000269A4202D92E680B68F61A6420296824
:105180002B68704398462B6899463B691B687B6780
:10519000FAF7BAFFF865FA20800041467043FAF743
:1051A000B3FF0A21FBF736F80091FB6D49467A6F91
:1051B0004648FBF789FC464A3E699046284A264BFA
:1051C000127831681B78404600920022FDF758F9AA
:1051D0000023FA6B13707A68336013603A6A2B60AD
:1051E00013607A6C1370BA6A13807A6A1380BA6B90
:1051F000137004F01BFDFFF763F90170FBF7CEFE9F
:105200008C23FB181B681B78FFF753F93149324890
:10521000FBF75AFC3148FBF7D9FBFCF719FFFCF709
:10522000BDFE2F48FBF7D2FB2E48FBF7CFFB002239
:10523000204B1A602C4B1A6003F0BEF82B4B204C0D
:10524000186002232B708A33FB181B681B78FFF74A
:1052500034F9C046FF0300000E00002034C20008ED
:105260000F00002008B90008B70B00000014004828
:1052700000080048D0160020D5160020D4160020C3
:1052800078CE0008A0BB00081A17002019170020CC
:10529000D8AD0008C8AD00080C000020BCAD000867
:1052A000E8C70008ECB60008351B00200400002009
:1052B00024BC0008A8160020F0BE0008BCBE0008F0
:1052C0001C17002018170020600200205CC2000894
:1052D00070060020B01600203CBC00084CBC000842
:1052E00068BC000874BC0008A4160020A0160020AA
:1052F000E4490B785BB2002B5DDAE3490B785BB2D3
:10530000002B00DA80E2FF2308780B703F2800D9D9
:1053100019E5FBF7EBFB8C23FB181B681B78FFF7E9
:10532000C8F853461B68EB1A3B2B00D9D9E053460B
:1053300018681968D54B691AC01889B204F04AFC7C
:1053400053461D60BBE4D249FFF7EBFB022B01D0B3
:10535000FFF7AFF88022CF4BD2009A61FFF726FB10
:10536000642B33D82100FAF7CFFEFFF730FA52460C
:105370001168691AFFF703F904F058FCBBE5012333
:10538000FA6E137003F018F880213B6C002218604D
:10539000FB69C1481D70BB6949011D703B6B1D70E5
:1053A00001F0FCFBFFF779F800228021BA4801F0F8
:1053B000F5FBFFF7C9F9FF2308780B70FDF7D8F963
:1053C0008C23FB181B681B78FFF773F80023B34A84
:1053D00048460021FBF72EF822000023FBF70AF8CD
:1053E000041E00D1F4E1AE4B5E4698468023DB00FC
:1053F000994655462100642C00D964219C20002345
:10540000381803609C203B184A001B6852188C46D1
:1054100052009A420AD9C0469C203B181B68391892
:1054200001330B600B689342F5D361462A683368F9
:10543000641A9A421FD0AE2342469B00D258A43B26
:10544000D3589A46002B16D133682A689A4220D244
:105450003C212A688A469A1A3B2A03D82A689B1A52
:105460009BB29A46894B28685146C01804F0B2FB9B
:105470002B6853442B60002CBCD1B346AA46894A02
:10548000894953680B405360FEF7A2FF0125FFF7DF
:10549000E8F84A462B68D31A3C2293463B2B04D8A3
:1054A0004A462B68D31A9BB29B46784B28685946CC
:1054B000C01804F08FFB2B685B444B4502D22B686D
:1054C0005B449A4653462B60D5E780215B465246A3
:1054D000C9008C461B68126863449B1A9BB2FFF795
:1054E00000FC53461868694B3C21C01804F072FB5D
:1054F000534652461B683C331360FFF7E0FB6B4991
:10550000FFF70FFB6A4B1A78002A01D1FFF709F960
:1055100000221A70674B1B78DCB2934200D02FE256
:105520006548FBF753FA654B1C7005232B708733D6
:10553000FB181B681B78FEF7BFFF90215422604BBD
:105540005218D219138056224B235218D2191370B5
:1055500053461B689D4200D169E357235B18DA1953
:105560008023DB009C460023A14698462C0053462E
:1055700005008D39100010E01A680131AA5CC9B22B
:1055800002701A6801321A601A68624501D34246F5
:105590001A601A680130A24209D01A68AA5C0D2A62
:1055A00003D01A68AA5C0A2A01D11029E4D14C461A
:1055B0009A46902254239B18D81904F00BFB002321
:1055C0003370FFF77CFB96200123BA6980001370CB
:1055D000FBF732F9FEF766FFFCF734FB802100226F
:1055E000C9002D4801F0DAFA0A2002F0EBFE102182
:1055F000294801F0CDFA002800D07BE2012002F01A
:10560000E1FEFFF72FFBAE23852225499B00C958F9
:1056100092008B58002BFCD14346991B3B6D89B2FD
:10562000981904F0D7FAFFF715FBFB6E32781B7858
:105630001A4300D1CEE08021002249011648327081
:1056400001F0ACFAFDF754F81E48FBF7BFF91E480D
:10565000FBF7BCF99620C00002F0B4FE8C220223B6
:10566000BA181268194C1370194A13700122194B99
:105670001A70FEF725FF33785B1BDBB23370FFF740
:105680001EFBC04606000020050000203017002049
:10569000C8AD0008001400480008004840420F0050
:1056A000A81B002000100240FFFFFFF0D4AD00084F
:1056B000981600209716002070BF00089B16002047
:1056C0001B5B00002CC000086CC000081C170020E9
:1056D000C4160020C216002001250026E14C2368D4
:1056E0002B432360E04B7B67B14214D0B046564653
:1056F0008A462369AB43236104E05B4632681B683A
:105700009A420FD123691D42F7D001239C46E04401
:10571000C245EED1B2460121D24A13688B431360D1
:10572000FEF756FEAE237A6F9B00D258A43BD358A7
:105730009946002BE6D15B461B6832689A4213D229
:105740003C21326889469A1A3B2A03D832689B1A50
:105750009BB29946C54B30684946C01804F03AFAE6
:1057600033684B443360CDE780223C213368D2005C
:10577000D31AF9653B2B03D83368D21A93B2FB6571
:10578000BA4B3068F96DC01804F024FAF96D802224
:105790008C463368D2006344934202D28946336810
:1057A00099444B463360ADE7002A01D0FEF7C2FFB3
:1057B000AF4AB0495368B048096803400B4353608F
:1057C000FEF7B8FFAD48591AFBF77EF9FFF7BBFAB1
:1057D000013408E6AA4B1978CCB2002900D0D5E1F3
:1057E00002F0EAFDA74B1B68C01AA74B984201D8EC
:1057F000FFF7A9FA8021A5482200490101F0CEF95E
:10580000A348FBF7E3F890E6A24B197849B20029C8
:1058100000DBA9E1A04B1978002900D0C0E1FB6EA4
:105820001B78002B01D0FFF78EFA9620C000FBF703
:1058300003F88C23FB181B681B78FEF73AFE974889
:105840002168FBF741F9964B1B78002B24D0954B30
:105850001E68002E20D023689946002398464E45A6
:1058600002D94B46F31A9846434664203100584308
:10587000FAF74AFC7867FA2042468000504331002C
:10588000FAF742FC0A21FAF7C5FC00914A463100BA
:105890007B6F8548FBF718F9FBF72EFAB02300223F
:1058A0001B02984200D279E1B02321681B02994281
:1058B00000D9B4E1914200D994E17C4B1A78022AD4
:1058C00000D158E21A78D6B2012A00D030E4002282
:1058D00077481A70FBF77AF87648FBF777F8764B3B
:1058E0001E70764B1B78002B00D048E2FCF7AAF91B
:1058F000FA23B4229B00BA181360B4217B181A68EB
:105900007918531E0B60002AF7D10B0080215F48E5
:10591000C9001B6801F042F9FA23B0229B00BA18B3
:105920001360B022BB181E68BA18731E1360002ED5
:10593000F7D113001B68BB6C1878FAF7B9FF5B4608
:1059400080211E6053465E4C320049014F481E6064
:10595000267001F023F90A2002F034FD8021012293
:105960004A48490101F01AF902F026FD454B18603A
:1059700004232B708833FB181B681B78FEF79DFDF2
:105980005048FBF723F84B48FBF720F84E48FBF74D
:105990001DF84E48FBF71AF80122474B1A70474B87
:1059A0001B78002B00D0FEE0FCF74CF9FA23BC2258
:1059B0009B00BA181360BC217B181A687918531E13
:1059C0000B60002AF7D10B0080213048C9001B680A
:1059D00001F0E4F8FA23B8229B00BA181360B82249
:1059E000BB181E68BA18731E1360002EF7D1A0E70B
:1059F000FCF77EFE0023FA691370BA6913703A6BE4
:105A000013708C33FB181B681A78002A01D0FEF73C
:105A100044FD80212E48C90001F0C0F8FEF73DFD8D
:105A200080223C213368D2008A46D31A3B2B03D80C
:105A30003368D31A9BB29A460C4B30685146C01853
:105A400004F0C8F880223368D2005344934202D253
:105A500033685344984643463360FEF7FAFEB04637
:105A6000FFF7DBF8002C0140A81B002030170020B6
:105A70000010024020170020FFFFFF8028BF000811
:105A8000961600209C1600200F27000000080048F2
:105A9000B4C0000809000020C2160020BCBC0008E9
:105AA0000B000020A4160020DCBC00087E1600209D
:105AB00084BE0008A4BE00089B1600200E00002033
:105AC0001C17002094BF0008B8BF0008F4BF0008EE
:105AD00000140048BC68200000F0F8FB0121200001
