:020000040800F2
:10000000004000202D1A0008491900085319000863
:1000100000000000000000000000000000000000E0
:100020000000000000000000000000005B19000854
:100030000000000000000000651900086F190008AA
:100040007D1A00087D1A00087D1A00087D1A000834
:100050007D1A00087D1900088D1900087D1A000816
:100060007D1A00087D1A00087D1A00087D1A000814
:100070007D1A00087D1A00087D1A00087D1A000804
:100080007D1A00087D1A00087D1A00087D1A0008F4
:100090007D1A00087D1A00087D1A00087D1A0008E4
:1000A0007D1A00087D1A00087D1A00087D1A0008D4
:1000B0007D1A00087D1A00087D1A00089D190008A5
:1000C00010B5064C2378002B07D1054B002B02D02E
:1000D000044800E000BF0123237010BDCC010020C4
:1000E00000000000B09D0008044B10B5002B03D0A9
:1000F0000349044800E000BF10BDC04600000000F6
:10010000D0010020B09D00080023C25C0133002A0A
:10011000FBD1581E7047000003B4714649084000E7
:100120004900095E49008E4403BC70470022430821
:100130008B4274D303098B425FD3030A8B4244D3AF
:10014000030B8B4228D3030C8B420DD3FF220902F1
:1001500012BA030C8B4202D31212090265D0030BB0
:100160008B4219D300E0090AC30B8B4201D3CB03A6
:10017000C01A5241830B8B4201D38B03C01A5241E8
:10018000430B8B4201D34B03C01A5241030B8B42EA
:1001900001D30B03C01A5241C30A8B4201D3CB02D5
:1001A000C01A5241830A8B4201D38B02C01A5241BA
:1001B000430A8B4201D34B02C01A5241030A8B42BD
:1001C00001D30B02C01A5241CDD2C3098B4201D3D5
:1001D000CB01C01A524183098B4201D38B01C01A53
:1001E000524143098B4201D34B01C01A52410309CA
:1001F0008B4201D30B01C01A5241C3088B4201D379
:10020000CB00C01A524183088B4201D38B00C01A25
:10021000524143088B4201D34B00C01A5241411A4C
:1002200000D20146524110467047FFE701B5002059
:1002300000F006F802BDC0460029F7D076E7704707
:100240007047C04680B582B000AF0200BB1D1A8067
:10025000BB1D1B88082B0ED10F4B1A690F4B1B6857
:10026000D1B20F4AD1540D4B1B6801339B059A0D37
:100270000A4B1A600CE0BB1D1B88022B08D1094BEE
:1002800000228021180002F0E4FA074B00221A70C5
:10029000C046BD4602B080BD000400483C060020B8
:1002A00034020020000800482B02002080B582B0F4
:1002B00000AF0200FB1D1A70FB1D1B78313B062BA3
:1002C00041D89A00224BD3181B689F468023DA0539
:1002D000A023DB041900002004F0E8FB33E08023B6
:1002E000DA0580231B051900002004F0DFFB2AE05B
:1002F000C0239A0580231B051900002004F0D6FBBB
:1003000021E0A023DB0400221900002004F0CEFB32
:1003100019E080239A0580231B051900002004F0B2
:10032000C5FB10E080235A0580231B05190000201F
:1003300004F0BCFB07E080231B050022190000200D
:1003400004F0B4FBC046C046BD4602B080BDC04606
:10035000F49E000890B591B000AF786039603B68BA
:10036000022B00D98FE07B681B78213B1F2B00D923
:100370007AE09A00674BD3181B689F46664B0122B0
:100380001A70C2E0654B1B689AB2654B11001800E9
:1003900008F0B6FBB9E07B681A78624B1A707B688C
:1003A0001B781800FFF782FF5F4B1221180008F03E
:1003B000A7FBAAE07B681A785A4B1A707B681B78F7
:1003C0001800FFF773FF594B1221180008F098FB33
:1003D0009BE07B681A78534B1A707B681B78180077
:1003E000FFF764FF524B1221180008F089FB8CE0E4
:1003F0007B681A784B4B1A707B681B781800FFF7E4
:1004000055FF4C4B1221180008F07AFB7DE07B6809
:100410001A78444B1A707B681B781800FFF746FF68
:10042000454B1221180008F06BFB6EE07B681A78D0
:100430003C4B1A707B681B781800FFF737FF3F4B67
:100440001221180008F05CFB5FE07B681A78354BDE
:100450001A707B681B781800FFF728FF384B1221B1
:10046000180008F04DFB50E07B681B78180001F085
:1004700081F9344B01228021180002F0EAF9324B55
:1004800001221A7041E0314B1B78002B12D12F4B07
:1004900001221A7080235B012A480022190002F011
:1004A000D8F98023DB002A480122190002F0D1F993
:1004B00001F024F90023FB6310E0264B18687A68EA
:1004C000FB6BD3181B78190001F0E2F8214B1B6875
:1004D0005A1C204B1A60FB6B0133FB63FA6B3B68C1
:1004E0009A42EAD33A681C4908243B19180008F0DC
:1004F000C3FF3B191800FFF707FE03009AB23B1930
:100500001100180008F0FCFAC046C046BD4611B004
:1005100090BDC046109F0008280200203C06002025
:10052000340200202A020020C89D0008DC9D00083B
:10053000F09D0008049E0008189E00082C9E0008EC
:10054000409E0008000800482B02002029020020DD
:100550000014004830020020549E000880B582B08C
:1005600000AF094AAE239B00D3587B607A6885238D
:100570009B00D358002B01D0012300E0002318007A
:10058000BD4602B080BDC04650060020F0B58DB01B
:1005900000AF01F075FA00F04DFA00F043FB08F0EF
:1005A00023FA00F0E5FAE44B00221A70E34B002234
:1005B0001A60E34B00221A60E24B00221A60E24B01
:1005C00000221A70E14B00221A6000F0C7FCFA23E7
:1005D0009B00180000F0AEFF8023DB00DC48002207
:1005E000190002F036F9FA239B00180000F0A2FF70
:1005F00080235B01D6480122190002F02AF9D54B6D
:1006000000221A700F261823F218D619D04B102189
:10061000180002F001F9030033700F261823F218B6
:10062000D3191A7880235B01C948190002F011F927
:100630001823F318DB191B78002B36D1C54B1B7818
:10064000012B32D1BC4B00221A70BC4B00221A6025
:10065000BB4B00221A60BB4B00221A60BB4B00222E
:100660001A6000F07BFCFA239B00180000F062FF88
:100670008023DB00B6480022190002F0EAF8FA23D2
:100680009B00180000F056FF80235B01B048012258
:10069000190002F0DEF88023DB00AF4800221900C9
:1006A00002F0D7F8AB4B00221A70A64B1A68A44B85
:1006B0001B689A4206D2A24B1A68A24B1B68D31A37
:1006C000022B09D99E4B1B68032B0AD89D4B1A6835
:1006D000FF239B009A4204D900220021002004F04D
:1006E000E5F9964B1A68974B1B689A426CD0FFF756
:1006F00035FF031E68D1062001F0F9FE914B1A6800
:10070000964B1A60062001F0E2FE8C4B1A688C4B67
:100710001A608A4B1A68914B1B689A4229D28F4BF8
:100720001A68864B1B68D31A3B2B13D8834B1A6865
:100730008B4BD018894B1B689AB2804B1B689BB2BD
:10074000D31A9BB2190008F0DBF9844B1A687B4B73
:100750001A6034E0794B1A68814BD3183C21180099
:1007600008F0CEF9754B1B683C331A00734B1A60C6
:1007700025E0724B1A68F1239B009A4211D36F4B0C
:100780001A68774BD0186D4B1B689BB28022D20041
:10079000D31A9BB2190008F0B3F9684B00221A6013
:1007A0000DE0664B1A686E4BD3183C21180008F018
:1007B000A7F9624B1B683C331A00604B1A60694B07
:1007C0001B781800FFF772FD72B6C0465A4B1B78B3
:1007D000002B54D162B6C0465D4B4021180002F098
:1007E0001BF803001A00604B1A705F4B1B78002B3C
:1007F0000FD072B6C0465D4B1B69DBB2180000F02B
:10080000B9FF534B01228021180002F022F862B692
:1008100035E04F4B2021180001F0FEFF03001A00C5
:10082000534B1A70524B1B78002B22D0464B1B782F
:10083000002B0BD14F4B180001F0EAFA4D4B012170
:10084000180001F039FB404B01221A7072B6C04605
:10085000484B180001F0C2FB0300DBB2180000F0A7
:1008600089FF3B4B01228021180001F0F2FF62B6A4
:1008700005E0374B00228021180001F0EAFF62B644
:10088000C0463D4B1B78002B00D1BBE66B461E00DB
:100890003A4B3B623B6A013BFB613B6ABB60002316
:1008A000FB60B968FA680B005B0F1000C5001D43C0
:1008B0000B00DC003B6A3B6000237B6039687A6890
:1008C0000B005B0F1000C0007861786918437861F5
:1008D0000B00DB003B613B6A0733DB08DB006A4649
:1008E000D31A9D466B460033BB6180235B011848D9
:1008F0000022190001F0ADFF0A2001F025F90023C4
:10090000FB6213E0FB6A180000F05AFE03001900B6
:10091000BA69FB6AD3180A1C1A70BA69FB6AD31841
:100920001B78FF2B2CD0FB6A0133FB62FA6A3B6A0F
:100930009A42E7D325E0C0462B020020340600206F
:10094000380600203C0600202E0200203002002045
:10095000000800482902002000140048400600203A
:10096000340200202A0200202C020020000C004843
:100970002D020020E801002028020020881300003A
:10098000C0460023BB620EE0C046FFF7E7FD031E32
:10099000FBD1BA69BB6AD3183C21180008F0B0F843
:1009A000BB6A3C33BB62FA6ABB6AD31A3B2BEBD8F7
:1009B000BA6AFB6A9A4210D2C046FFF7CFFD031E07
:1009C000FBD1BA69BB6AD018FB6A9AB2BB6A9BB208
:1009D000D31A9BB2190008F093F8134B1B78002B25
:1009E0001CD100F0BBFA8023DB0010480022190064
:1009F00001F02FFF0A2001F0A7F80C4B102118007E
:100A000001F00AFF031E06D080235B010748012284
:100A1000190001F01EFF012001F096F8044B00229E
:100A20001A70B546EEE5C0462902002000080048CD
:100A30002802002090B5A1B000AF4C243B1918004B
:100A400034231A00002108F039FD3C23FB1818005C
:100A500010231A00002108F031FD2023FB18180094
:100A60001C231A00002108F029FD0823FB18180098
:100A700018231A00002108F021FD21007B183222E2
:100A80001A607B180122DA607B1801221A627B1837
:100A900001225A617B1810221A617B1810229A6178
:100AA0007B1800225A627B18180003F09FFB031E7C
:100AB00001D000F0CCFE3C217B1807221A607B1885
:100AC00003225A607B1800229A607B180022DA60A9
:100AD0007B180121180003F00FFF031E01D000F066
:100AE000B6FE20217B18802292021A607B18002219
:100AF0009A617B18180004F099F8031E01D000F0E9
:100B0000A6FE8023DA05A023DB041900002003F0F1
:100B1000CDFF154BDA69144B802109050A43DA61D0
:100B2000114BDA6980231B0513407B607B68082129
:100B30007B1800221A607B18802292055A607B186D
:100B400000229A607B18094ADA607B1822221A6117
:100B50007B1820225A617B18180004F065F9C04602
:100B6000BD4621B090BDC046001002407FBB0000D2
:100B700080B584B000AF3B1D18000C231A00002183
:100B800008F09CFC254B264A1A60244B00225A6030
:100B9000224B10229A60214B0022DA601F4B012267
:100BA0001A611E4B04225A611C4B00221A761B4B01
:100BB00000225A76194B01229A76184B0022DA76D7
:100BC000164BC222FF32DA61144B00221A62134B19
:100BD000242200219954114B00229A620F4B1800D5
:100BE00000F0D6FF031E01D000F031FE3B1D0A22AB
:100BF0001A603B1D802252015A603B1D03229A60FD
:100C00003A1D064B1100180001F0F4F9031E01D043
:100C100000F01DFEC046BD4604B080BDE8010020C6
:100C20000024014090B58DB000AF1C243B19180082
:100C300014231A00002108F041FCBE4B5A69BD4B39
:100C4000802189030A435A61BA4B5A6980239B0366
:100C50001340BB61BB69B74B5A69B64B8021C903CE
:100C60000A435A61B34B5A698023DB0313407B610B
:100C70007B69B04B5A69AF4B802109030A435A6123
:100C8000AC4B5A6980231B0313403B613B69A94B62
:100C90005A69A84B802189020A435A61A54B5A69B7
:100CA00080239B021340FB60FB68A24B5A69A14B57
:100CB0008021C9020A435A619E4B5A698023DB0294
:100CC0001340BB60BB689B4B5A699A4B8021490318
:100CD0000A435A61974B5A6980235B0313407B6038
:100CE0007B688023DB0094480022190001F0B1FDED
:100CF0009249934B0122180001F0ABFD9023DB05D4
:100D00000022FF21180001F0A4FD84235B018C4820
:100D10000022190001F09DFD3B198A4A1A603B1917
:100D200000225A603B1900229A603B19864A19003A
:100D3000100001F0F9FB21007B188022D2001A601C
:100D40000C003B1901225A603B1900229A603B19A2
:100D50000022DA603B19784A1900100001F0E4FB28
:100D60003B1902221A603B19784A5A603B1901224A
:100D70009A603B19724A1900100001F0D5FB3B192B
:100D800004221A603B1901225A603B1900229A6022
:100D90003B190322DA603B19694A1900100001F07F
:100DA000C3FB3B1908221A603B19694A5A603B1978
:100DB00000229A603B19624A1900100001F0B4FB4E
:100DC0003B19FF221A603B1901225A603B1900228D
:100DD0009A603B190122DA603A199023DB05110071
:100DE000180001F0A1FB3B1910221A603B190022E8
:100DF0005A603B1901229A603B19514A19001000B0
:100E000001F092FB3B1960221A603B1900225A60E4
:100E10003B1902229A603B19494A1900100001F05F
:100E200083FB3B19474A1A603B1900225A603B1961
:100E300000229A603B19474A1900100001F074FB28
:100E400021007B18842252011A600C003B190122F8
:100E50005A603B1900229A603B190022DA603B1964
:100E6000374A1900100001F05FFB21007B18C022F7
:100E700092001A600C003B1900225A603B190022B4
:100E80009A603B192E4A1900100001F04DFB210019
:100E90007B18802252001A600C003B1902225A6013
:100EA0003B1900229A603B190322DA603B190022A9
:100EB0001A613A199023DB051100180001F034FB88
:100EC00021007B18C02212011A600C003B1901227C
:100ED0005A603B1900229A603B190122DA603B19E3
:100EE000174A1900100001F01FFB21007B18FF2298
:100EF0001A607B1800225A607B1800229A607B18C7
:100F0000154A1900100001F00FFB002200210520F6
:100F100001F0C8FA052001F0DAFA002200210620CB
:100F200001F0C0FA062001F0D2FAC046BD460DB06D
:100F300090BDC0460010024000140048040C0000A0
:100F400000080048FFFF00000010004800002110CA
:100F50000000111000040048000C004880B586B065
:100F600000AF3B1D180014231A00002108F0A6FA58
:100F70008023DB001F480122190001F06AFC802356
:100F80001B011C480122190001F063FC3B1DFF22DC
:100F900012021A603B1D00225A603B1D00229A601B
:100FA0003B1D154A1900100001F0BEFA3B1DC0227E
:100FB00092001A603B1D00225A603B1D00229A607D
:100FC0003B1D0C4A1900100001F0AEFA3B1D0B4A04
:100FD0001A603B1D00225A603B1D00229A603B1D97
:100FE000074A1900100001F09FFAC046BD4606B03E
:100FF00080BDC0460008004800040048FFFF000014
:101000000010004880B586B000AF3B1D18001423C7
:101010001A00002108F052FA8023DB002248012246
:10102000190001F016FC80231B011F480122190042
:1010300001F00FFC3B1DFF2212021A603B1D002233
:101040005A603B1D00229A603B1D184A190010008F
:1010500001F06AFA3B1DC02292001A603B1D01227A
:101060005A603B1D00229A603B1D0122DA603B1D45
:101070000D4A1900100001F057FA3B1D0C4A1A6086
:101080003B1D01225A603B1D00229A603B1D01223C
:10109000DA603B1D074A1900100001F045FAC0460E
:1010A000BD4606B080BDC0460008004800040048A8
:1010B000FFFF00000010004880B586B000AF3B1D68
:1010C000180014231A00002108F0F8F98023DB002F
:1010D00023480122190001F0BCFB80231B0120489A
:1010E0000122190001F0B5FB3B1DC02292001A60DD
:1010F0003B1D01225A603B1D00229A603B1D0122CC
:10110000DA603B1D164A1900100001F00DFA3B1D74
:10111000144A1A603B1D01225A603B1D00229A604E
:101120003B1D0122DA603B1D0F4A1900100001F03F
:10113000FBF93B1DFF2212021A603B1D01225A607F
:101140003B1D00229A603B1D0122DA603B1D074ACD
:101150001900100001F0E8F9C046BD4606B080BD98
:1011600000080048FFFF000000100048000400488D
:1011700080B582B000AF78607B685B0CDBB2012287
:101180001340DAB280239B006548190001F061FB2F
:101190007B681B0CDBB201221340DAB280235B00B8
:1011A0005F48190001F055FB7B68DB0BDBB20122C5
:1011B0001340DAB280231B025A48190001F049FBA0
:1011C0007B689B0BDBB201221340DAB28023DB0188
:1011D0005448190001F03DFB7B685B0BDBB2012238
:1011E0001340DAB280239B014E48190001F031FB15
:1011F0007B681B0BDBB201221340DAB280235B0158
:101200004848190001F025FB7B68DB0ADBB20122AC
:101210001340DAB280231B014248190001F019FB88
:101220007B689B0ADBB201221340DAB28023DB0029
:101230003C48190001F00DFB7B685B0ADBB2012220
:101240001340DAB280239B003648190001F001FBFD
:101250007B681B0ADBB201221340DAB280235B00F9
:101260003048190001F0F5FA7B68DB09DBB2012296
:101270001340DBB22B481A00802101F0EAFA7B68A8
:101280009B09DBB201221340DBB226481A00402141
:1012900001F0DFFA7B685B09DBB201221340DBB2AD
:1012A00020481A00202101F0D4FA7B681B09DBB228
:1012B00001221340DBB21B481A00102101F0C9FAC9
:1012C0007B68DB08DBB201221340DBB215481A0051
:1012D000082101F0BEFA7B689B08DBB201221340B3
:1012E000DBB210481A00042101F0B3FA7B685B08F6
:1012F000DBB201221340DBB20A481A00022101F0DE
:10130000A8FA7B68DBB201221340DBB205481A0061
:10131000012101F09EFAC046BD4602B080BDC04624
:10132000000800480010004880B582B000AF0200FD
:10133000FB1D1A70FB1D1B78DB09DAB280231B0230
:101340003048190001F085FAFB1D1B789B09DBB2C0
:1013500001221340DAB28023DB012A48190001F090
:1013600078FAFB1D1B785B09DBB201221340DAB26D
:1013700080239B012348190001F06BFAFB1D1B78A9
:101380001B09DBB201221340DAB280235B011D4846
:10139000190001F05EFAFB1D1B78DB08DBB20122AD
:1013A0001340DAB280231B011648190001F051FAEC
:1013B000FB1D1B789B08DBB201221340DAB28023AD
:1013C000DB001048190001F044FAFB1D1B785B0894
:1013D000DBB201221340DAB280239B0009481900D6
:1013E00001F037FAFB1D1B7801221340DAB280238B
:1013F0005B000448190001F02CFAC046BD4602B05B
:1014000080BDC0460004004880B582B000AFFB1D1F
:1014100000221A7080231B02454A1900100001F0B7
:10142000FBF90300DB015AB2FB1D1B785BB21343CF
:101430005AB2FB1D1A708023DB013D4A19001000CF
:1014400001F0EAF903009B015AB2FB1D1B785BB265
:1014500013435AB2FB1D1A7080239B01344A1900B2
:10146000100001F0D9F903005B015AB2FB1D1B7893
:101470005BB213435AB2FB1D1A7080235B012C4AE6
:101480001900100001F0C8F903001B015AB2FB1D3E
:101490001B785BB213435AB2FB1D1A7080231B01E9
:1014A000234A1900100001F0B7F90300DB005AB21B
:1014B000FB1D1B785BB213435AB2FB1D1A708023CD
:1014C000DB001B4A1900100001F0A6F903009B0085
:1014D0005AB2FB1D1B785BB213435AB2FB1D1A7044
:1014E00080239B00124A1900100001F095F90300B7
:1014F0005B005AB2FB1D1B785BB213435AB2FB1D53
:101500001A7080235B000A4A1900100001F084F968
:1015100003005AB2FB1D1B785BB213435AB2FB1D8A
:101520001A70FB1D1B781800BD4602B080BDC04676
:101530000004004880B584B000AF78607B68FB6031
:10154000C046FB685A1EFA60002BFAD1FB68DBB27A
:101550001800BD4604B080BD90B585B000AF78607E
:101560007B681800FFF704FE0A20FFF7E3FF030083
:101570001A000F243B191A708023DB000F48002249
:10158000190001F066F90A20FFF7D4FF03001A00E2
:101590003B191A70FFF738FF03001A003B191A7045
:1015A0008023DB0005480122190001F052F93B19A4
:1015B0001B78DBB21800BD4605B090BD000800489E
:1015C00080B582B000AF7860FFF71CFD7B68180023
:1015D000FFF7C2FF03001800BD4602B080BD000047
:1015E00090B585B000AF78600A00FB1C1A707B686C
:1015F0001800FFF7BDFDFB1C1B781800FFF794FED9
:1016000080231B010E480022190001F022F90A2054
:10161000FFF790FF03001A000F243B191A70802374
:101620001B0107480122190001F013F93B191B782F
:10163000DBB21800FFF77EFFC046BD4605B090BD87
:101640000008004890B585B000AF78607B6818004E
:10165000FFF782FF030019000F243B1940220A40C4
:101660001A707B681800FFF777FF030019000E203F
:101670003B1840220A401A703A193B1812781B781E
:10168000D31A5A1E9341DBB21800BD4605B090BD77
:1016900080B582B000AF78600A00FB1C1A70FFF7BB
:1016A0000BFD144BAA211800FFF79AFF124B55218E
:1016B0001800FFF795FF0F4BA0211800FFF790FFD0
:1016C000FB1C1A787B6811001800FFF789FFFFF7F1
:1016D00099FC7B681800FFF7B5FF031EF9D17B6802
:1016E0001800FFF7AFFF031EF3D100231800BD461B
:1016F00002B080BD55550000AA2A000080B582B016
:1017000000AF0A237B60FFF7D7FC184BAA21180013
:10171000FFF766FF164B55211800FFF761FF134BCB
:1017200080211800FFF75CFF104BAA211800FFF77B
:1017300057FF0F4B55211800FFF752FF0B4B10219D
:101740001800FFF74DFFFFF75DFC7B681800FFF7FF
:1017500079FF031EF9D17B681800FFF773FF031EA2
:10176000F3D100231800BD4602B080BD55550000DE
:10177000AA2A000080B582B000AF0200FB1D1A70DB
:10178000FB1D1B78DB09DAB29023DB0580211800F2
:1017900001F05FF8FB1D1B789B09DBB201221340AF
:1017A000DAB29023DB054021180001F052F8FB1D4E
:1017B0001B785B09DBB201221340DAB29023DB0510
:1017C0002021180001F045F8FB1D1B781B09DBB236
:1017D00001221340DAB29023DB051021180001F03A
:1017E00038F8FB1D1B78DB08DBB201221340DAB2AC
:1017F0009023DB050821180001F02BF8FB1D1B7856
:101800009B08DBB201221340DAB29023DB050421EE
:10181000180001F01EF8FB1D1B785B08DBB20122EB
:101820001340DAB29023DB050221180001F011F811
:10183000FB1D1B7801221340DAB29023DB05012146
:10184000180001F006F8C046BD4602B080BD80B564
:1018500000AFC046BD4680BD80B582B000AF164B1C
:101860009A69154B01210A439A61134B9B69012226
:1018700013407B607B68104BDA690F4B8021490570
:101880000A43DA610C4BDA6980235B0513403B6045
:101890003B6805235B4200220121180000F002FE94
:1018A00002235B4200220121180000F0FBFDC0462C
:1018B000BD4602B080BDC0460010024090B58BB05E
:1018C00000AF786014243B19180014231A0000217B
:1018D00007F0F4FD7B681B68184A93422AD1184B25
:1018E0009A69174B802189000A439A61144B9A69BF
:1018F00080239B0013403B613B69114B5A69104B9D
:10190000802109030A435A610D4B5A6980231B0346
:101910001340FB60FB683B1901221A603B1903224C
:101920005A603B1900229A603B19064A19001000C0
:1019300000F0FAFDC046BD460BB090BD002401404A
:10194000001002400008004880B500AFC046BD4608
:1019500080BD80B500AFC046FDE780B500AFC04692
:10196000BD4680BD80B500AFC046BD4680BD80B5D8
:1019700000AF00F0CDF8C046BD4680BD80B500AFD9
:10198000022000F083FFC046BD4680BD80B500AF99
:10199000082000F07BFFC046BD4680BD80B500AF8B
:1019A000034B180001F0C4F8C046BD4680BDC046D8
:1019B000E412002080B586B000AF7860144A154B61
:1019C000D31A7B617B693B61134B1B68002B02D1EF
:1019D000114B124A1A60104B1A687B68D3183A6987
:1019E0009A4207D207F072FD03000C221A6001230D
:1019F0005B4209E0084B1B68FB60074B1A687B6879
:101A0000D218054B1A60FB681800BD4606B080BDB1
:101A1000004000200004000044060020401900207F
:101A200080B500AFC046BD4680BD00000D4885466C
:101A30000D480E490E4A002302E0D458C450043326
:101A4000C4188C42F9D30B4A0B4C002301E01360FD
:101A50000432A242FBD3FFF7E3FF07F03DFDFEF7A0
:101A600095FDFEE70040002000000020CC01002092
:101A7000CCA00008CC01002040190020FEE70000A7
:101A800080B500AF074B1A68064B10210A431A6055
:101A9000012000F009F8FFF7DFFE00231800BD4623
:101AA00080BDC0460020024090B583B000AF786092
:101AB000144B1C68144B1B781900FA239800FEF78E
:101AC00035FB030019002000FEF730FB030018006F
:101AD00000F01DFD031E01D001230FE07B68032BE6
:101AE0000BD8796801235B420022180000F0DAFC71
:101AF000064B7A681A60002300E001231800BD46F7
:101B000003B090BD00000020080000200400002069
:101B100080B500AF054B1B781A00054B1B68D21827
:101B2000034B1A60C046BD4680BDC0460800002079
:101B30004806002080B500AF024B1B681800BD4668
:101B400080BDC0464806002080B584B000AF7860F4
:101B5000FFF7F0FF0300BB607B68FB60FB680133AD
:101B600005D00A4B1B781A00FB689B18FB60C04627
:101B7000FFF7E0FF0200BB68D31AFA689A42F7D871
:101B8000C046C046BD4604B080BDC0460800002027
:101B900080B584B000AF78600F23FB1800221A7064
:101BA0000023BB607B68002B01D1012325E17B680A
:101BB0009B6B002B0AD17B680022DA637B6834229E
:101BC000002199547B681800FFF778FE7B689B6BB7
:101BD0001022134000D003E10F23FB181B78002BC9
:101BE00000D0FDE07B681B689B680422134000D096
:101BF000F6E07B689B6B834A134002221A437B68A2
:101C00009A637B681B689B6803221340012B12D1E7
:101C10007B681B681B6801221340012B09D07B687D
:101C20001B68DA6880231B021A4080231B029A4239
:101C300001D1012300E00023002B16D17B681B6833
:101C4000DB681822934319007B689A687B681B68DD
:101C50000A43DA607B681B681B699B0099087B68F4
:101C60005A687B681B680A431A617B681B68DA68DC
:101C70007B681B6864490A40DA607B681B7E9A03B4
:101C80007B685B7EDB031A437B689B7E5B031A43A6
:101C90007B689B6A012B02D080235B0100E000235C
:101CA0001A437B68DB681A437B681B69022B01D1EE
:101CB000042300E000231A437B6824215B5C5B0063
:101CC0001343BA681343BB607B68DB7E012B15D1DD
:101CD0007B689B7E002B05D1BB6880225202134398
:101CE000BB600BE07B689B6B20221A437B689A6386
:101CF0007B68DB6B01221A437B68DA637B68DA69F5
:101D0000C223FF339A4207D07B68DA697B681B6A7B
:101D10001343BA681343BB607B681B68D9687B6850
:101D20001B68BA680A43DA607B68DA6A80235B055D
:101D30009A421BD07B68DB6A012B17D07B68DB6A79
:101D4000022B13D07B68DB6A032B0FD07B68DB6A26
:101D5000042B0BD07B68DB6A052B07D07B68DB6A22
:101D6000062B03D07B68DB6A072B12D17B681B68CC
:101D70005A697B681B6807218A435A617B681B6824
:101D800059697B68DB6A07221A407B681B680A4333
:101D90005A617B681B68DB681C4A1340BA689A4228
:101DA0000BD17B680022DA637B689B6B0322934331
:101DB00001221A437B689A631CE07B689B6B1222AA
:101DC000934310221A437B689A637B68DB6B012282
:101DD0001A437B68DA630F23FB1801221A7009E0AB
:101DE0007B689B6B10221A437B689A630F23FB1856
:101DF00001221A700F23FB181B781800BD4604B08F
:101E000080BDC046FDFEFFFF1902FEFFE7FF3F83D6
:101E100090B585B000AF78600F23FB1800221A70D0
:101E20007B681B689B680422134038D17B6834228E
:101E30009B5C012B01D1022338E07B683422012115
:101E400099547B685B7E012B07D00F23FC187B68BD
:101E5000180000F0DDF9030023700F23FB181B7836
:101E6000002B20D17B689B6B124A134080225200CA
:101E70001A437B689A637B680022DA637B683422AA
:101E8000002199547B681B681C221A607B681B68C0
:101E90009A687B681B6804210A439A6003E00F2359
:101EA000FB1802221A700F23FB181B781800BD467E
:101EB00005B090BDFEF0FFFF80B584B000AF786044
:101EC00039607B685B69082B02D10823FB6014E052
:101ED0007B681B68DB6801221340012B0BD17B68F8
:101EE0009B6B20221A437B689A637B683422002113
:101EF000995401236BE00C23FB60FFF71BFE0300EA
:101F0000BB6019E03B68013316D03B68002B07D05B
:101F1000FFF710FE0200BB68D31A3A689A420BD250
:101F20007B689B6B04221A437B689A637B6834222C
:101F30000021995403234AE07B681B681B68FA68F8
:101F40001340DFD07B689B6B802292001A437B6832
:101F50009A637B681B68DA68C0231B0113402DD18C
:101F60007B689B7E002B29D17B681B681B6808223D
:101F70001340082B22D17B681B689B680422134006
:101F800010D17B681B685A687B681B680C218A43E8
:101F90005A607B689B6B104A134001221A437B688E
:101FA0009A630BE07B689B6B20221A437B689A63E1
:101FB0007B68DB6B01221A437B68DA637B681B7EDC
:101FC000002B03D17B681B680C221A6000231800C9
:101FD000BD4604B080BDC046FEFEFFFF80B582B0A6
:101FE00000AF78607B681B681B6C1800BD4602B0B0
:101FF00080BD000080B584B000AF786039600F23E9
:10200000FB1800221A700023BB607B68DA6A802309
:102010005B059A4211D07B68DB6A012B0DD07B688F
:10202000DB6A022B09D07B68DB6A032B05D07B6857
:10203000DB6A042B01D07B68DB6A7B6834229B5C03
:10204000012B01D10223D0E07B6834220121995475
:102050007B681B689B680422134000D0B4E03B6897
:102060005B68644A934200D182E07B681B68996A8E
:102070003B681B6801229A407B681B680A439A628E
:102080007B68DA6A80235B059A4237D07B68DB6A1B
:10209000012B33D07B68DB6A022B2FD07B68DB6A95
:1020A000032B2BD07B68DB6A042B27D07B68DB6A91
:1020B000052B23D07B68DB6A062B1FD07B68DB6A8D
:1020C000072B1BD03B689A687B681B685B690721FC
:1020D0000B409A4212D07B681B685A697B681B6868
:1020E00007218A435A617B681B6859693B689B6872
:1020F00007221A407B681B680A435A613B681B68C9
:10210000102B07D03B681B68112B03D03B681B6862
:10211000122B63D1384B19683B681B68102B09D010
:102120003B681B68112B02D18023DB0304E0802372
:102130005B0401E080231B042F4A0B4313603B68C0
:102140001B68102B4AD12D4B1B682D491800FDF739
:10215000EDFF03001A0013009B009B185B00BB609F
:1021600002E0BB68013BBB60BB68002BF9D135E0E6
:102170007B681B689A6A3B681B68012199400B00C9
:10218000D9437B681B680A409A623B681B68102B26
:1021900007D03B681B68112B03D03B681B68122BD0
:1021A0001CD1154B19683B681B68102B07D03B6886
:1021B0001B68112B01D1134B02E0134B00E0134BB2
:1021C0000D4A0B40136009E07B689B6B20221A4389
:1021D0007B689A630F23FB1801221A707B683422F4
:1021E000002199540F23FB181B781800BD4604B03A
:1021F00080BDC046011000000827014000000020FB
:1022000040420F00FFFFBFFFFFFFFFFEFFFF7FFF0A
:1022100080B584B000AF78600023FB600023BB6012
:102220007B681B689B6803221340012B12D17B68DB
:102230001B681B6801221340012B09D07B681B68B7
:10224000DA6880231B021A4080231B029A4201D1C4
:10225000012300E00023002B4BD17B681B689B68A7
:10226000264A13400DD07B689B6B10221A437B6873
:102270009A637B68DB6B01221A437B68DA63012374
:1022800038E07B681B689A687B681B6801210A43F9
:102290009A601B4B1B681B491800FDF747FF0300A2
:1022A000BB6002E0BB68013BBB60BB68002BF9D19F
:1022B000FFF740FC0300FB6014E0FFF73BFC02006B
:1022C000FB68D31A022B0DD97B689B6B10221A4333
:1022D0007B689A637B68DB6B01221A437B68DA6355
:1022E000012307E07B681B681B6801221340012B58
:1022F000E3D100231800BD4604B080BD1700008064
:102300000000002040420F0080B582B000AF020004
:10231000FB1D1A70FB1D1B787F2B09D8FB1D1B783A
:102320001A001F231A40044B012191400A001A6031
:10233000C046BD4602B080BD00E100E080B582B07D
:1023400000AF0200FB1D1A70FB1D1B787F2B10D8FD
:10235000FB1D1B781A001F231340084901229A40D5
:10236000130080228B50BFF34F8FC046BFF36F8F97
:10237000C046C046BD4602B080BDC04600E100E098
:1023800090B583B000AF02003960FB1D1A70FB1DD1
:102390001B787F2B28D82F4AFB1D1B785BB29B082C
:1023A000C0339B009B58FA1D1278110003220A408B
:1023B000D200FF2191400A00D2431A4011003B682D
:1023C0009B01FF221A40FB1D1B78180003230340CA
:1023D000DB009A401F48FB1D1B785BB29B080A4339
:1023E000C0339B001A5031E01B4AFB1D1B781900BB
:1023F0000F230B40083B9B0806339B00D318043384
:102400001B68FA1D1278110003220A40D200FF2136
:1024100091400A00D2431A4011003B689B01FF2201
:102420001A40FB1D1B78180003230340DB009A4071
:102430000948FB1D1B781C000F232340083B9B0809
:102440000A4306339B00C31804331A60C046BD46D6
:1024500003B090BD00E100E000ED00E080B582B087
:1024600000AF78607B685A1E80235B049A4201D3D8
:10247000012310E00A4B7A68013A5A6001235B425B
:1024800003211800FFF77CFF054B00229A60044BE4
:1024900007221A6000231800BD4602B080BDC04666
:1024A00010E000E080B584B000AFB9607A600F2121
:1024B0007B18021C1A70BA687B181B785BB211007B
:1024C0001800FFF75DFFC046BD4604B080BD80B573
:1024D00082B000AF0200FB1D1A70FB1D1B785BB2BF
:1024E0001800FFF711FFC046BD4602B080BD80B5A1
:1024F00082B000AF0200FB1D1A70FB1D1B785BB29F
:102500001800FFF71BFFC046BD4602B080BD80B576
:1025100082B000AF78607B681800FFF79FFF030070
:102520001800BD4602B080BD80B586B000AF7860AF
:10253000396000237B6155E13B681B6801217A69A2
:1025400091400A001340FB60FB68002B00D146E17C
:102550003B685B68012B0BD03B685B68022B07D0A4
:102560003B685B68112B03D03B685B68122B30D152
:102570007B689B683B617B695B0003229A40130088
:10258000DA433B6913403B613B68DA687B695B0077
:102590009A4013003A6913433B617B683A699A6039
:1025A0007B685B683B6101227B699A401300DA43D8
:1025B0003B6913403B613B685B681B0901221A4081
:1025C0007B699A4013003A6913433B617B683A691F
:1025D0005A607B68DB683B617B695B0003229A4041
:1025E0001300DA433B6913403B613B689A687B699F
:1025F0005B009A4013003A6913433B617B683A6978
:10260000DA603B685B68022B03D03B685B68122B87
:1026100023D17B69DA087B6808329200D3583B618A
:102620007B69072213409B000F229A401300DA4374
:102630003B6913403B613B681A697B6907210B408A
:102640009B009A4013003A6913433B617B69DA08A7
:102650007B68083292003969D1507B681B683B6106
:102660007B695B0003229A401300DA433B69134005
:102670003B613B685B6803221A407B695B009A40C0
:1026800013003A6913433B617B683A691A603B68FF
:102690005A6880235B05134000D1A0E0574B9A692C
:1026A000564B01210A439A61544B9B690122134006
:1026B000BB60BB68524A7B699B0802339B009B58F6
:1026C0003B617B69032213409B000F229A40130059
:1026D000DA433B6913403B617A689023DB059A42F9
:1026E00019D07B68474A934213D07B68464A93428D
:1026F0000DD07B68454A934207D07B68444A934299
:1027000001D1042308E0052306E0032304E00223AB
:1027100002E0012300E000237A6903210A409200CD
:1027200093403A6913433B6135497B699B08023307
:102730009B003A695A50374B1B683B61FB68DA4390
:102740003B6913403B613B685A6880235B0213403E
:1027500003D03A69FB6813433B612E4B3A691A6018
:102760002C4B5B683B61FB68DA433B6913403B6180
:102770003B685A6880239B02134003D03A69FB6888
:1027800013433B61234B3A695A60224B9B683B6180
:10279000FB68DA433B6913403B613B685A6880231E
:1027A0005B03134003D03A69FB6813433B61194B49
:1027B0003A699A60174BDB683B61FB68DA433B6917
:1027C00013403B613B685A6880239B03134003D04E
:1027D0003A69FB6813433B610E4B3A69DA607B69E7
:1027E00001337B613B681A687B69DA40131E00D0B5
:1027F000A2E6C046C046BD4606B080BD00100240FD
:10280000000001400004004800080048000C004897
:10281000001000480004014080B584B000AF78602B
:102820000A00BB1C1A807B681B69BA1C1288134003
:1028300004D00F23FB1801221A7003E00F23FB18AA
:1028400000221A700F23FB181B781800BD4604B035
:1028500080BD80B582B000AF786008001100BB1C5D
:10286000021C1A807B1C0A1C1A707B1C1B78002B14
:1028700004D0BB1C1A887B689A6103E0BB1C1A88D1
:102880007B689A62C046BD4602B080BD80B582B00A
:1028900000AF0200BB1D1A80094B5B69BA1D12888C
:1028A000134008D0064BBA1D12885A61BB1D1B8805
:1028B0001800FDF7C7FCC046BD4602B080BDC0464B
:1028C00000040140F0B58BB006AF78607B68002B48
:1028D00001D10123FFE07B68814A9B5CDBB2002BC6
:1028E00008D17A68AA239B000021D1547B68180084
:1028F00006F064FA7B687A4A032199547B681B6866
:10290000180002F0EFFA0F23FB1800221A7058E0AB
:102910000F203B181B7879685A1C13009B009B18EA
:10292000DB00CB18013301221A703B181B78796841
:102930005A1C13009B009B18DB003A1812785A545B
:1029400004003B181A783B191B7898B27968130079
:102950009B009B18DB00CB183633021C1A803B19F6
:102960001B7879685A1C13009B009B18DB00CB185E
:10297000033300221A703B191A78796813009B0000
:102980009B18DB00CB18383300221A603B191A78E9
:10299000796813009B009B18DB00CB183C330022A6
:1029A0001A603B191A78796813009B009B18DB00AA
:1029B000CB18403300221A603B191A783B190132B8
:1029C0001A700F217B181A787B685B689A429FD334
:1029D0007B1800221A7056E00F243B191A78786889
:1029E0006A23FF33190013009B009B18DB00C318F8
:1029F0005B1800221A703B191A787868B4235900C2
:102A000013009B009B18DB00C3185B183A1912785F
:102A10001A703B191A7878686C23FF331900130079
:102A20009B009B18DB00C3185B1800221A703B192F
:102A30001A787868BC23590013009B009B18DB00B0
:102A4000C3185B1800221A603B191A787868BE23F5
:102A5000590013009B009B18DB00C3185B18002271
:102A60001A603B191A787868C023590013009B003C
:102A70009B18DB00C3185B1800221A603B191A78F8
:102A80003B1901321A700F23FB181A787B685B68B8
:102A90009A42A1D37B6818687B686A4611001A00C5
:102AA000103270CA70C130CA30C159689A68DB6888
:102AB00002F032FA7B682422002199547B68084A8C
:102AC000012199547B68DB69012B03D17B681800D5
:102AD00001F056FB00231800BD4605B0F0BDC0460E
:102AE000A902000080B582B000AF78607A68AA239E
:102AF0009B00D35C012B01D1022314E07A68AA2346
:102B00009B000121D1547B681B68180002F0D4F9A6
:102B10007B681B68180004F065F97A68AA239B009B
:102B20000021D15400231800BD4602B080BD000032
:102B300080B582B000AF78607B681B68180004F035
:102B400067F9020080231B021A4080231B029A426D
:102B500003D17B68180000F0BBFB7B681B68180082
:102B600004F056F902008023DB001A408023DB00CA
:102B70009A4214D17B681B6844229B5A9AB27B68A4
:102B80001B68A2490A4091B2442299527B681800FE
:102B900006F09FF97B680021180000F045F97B687A
:102BA0001B68180004F034F902008023DB011A408E
:102BB0008023DB019A420BD17B681B6844229B5A1D
:102BC0009AB27B681B6892490A4091B2442299529A
:102BD0007B681B68180004F01BF9020080239B012E
:102BE0001A4080239B019A420BD17B681B684422C8
:102BF0009B5A9AB27B681B6886490A4091B244226C
:102C000099527B681B68180004F002F902008023C7
:102C10005B011A4080235B019A4237D17B681B68B5
:102C200040229B5A9AB27B681B6804218A4391B266
:102C3000402299527B681B6840229B5A9AB27B685B
:102C40001B6808218A4391B2402299527A68B823BE
:102C50009B00D35C012B09D17A68B8239B0000212B
:102C6000D1547B680021180001F0B4FA7B68180089
:102C700006F070F97B681B6844229B5A9AB27B6805
:102C80001B6865490A4091B2442299527B681B68CF
:102C9000180004F0BDF8020080231B011A408023B5
:102CA0001B019A4227D17B681B6840229B5A9AB22B
:102CB0007B681B6808210A4391B2402299527B68C5
:102CC0001B6844229B5A9AB27B681B6853490A408E
:102CD00091B2442299527B681B6840229B5A9AB257
:102CE0007B681B6804210A4391B2402299527B6899
:102CF000180006F013F97B681B68180004F088F8C8
:102D0000030080221340802B45D17B681B6844223E
:102D10009B5A9AB27B681B6880218A4391B24422F5
:102D200099527A68B8239B00D35C002B2FD17B6823
:102D30001B6840229B5A9AB27B681B6804210A4395
:102D400091B2402299527B681B6840229B5A9AB2EA
:102D50007B681B6808210A4391B2402299527A6825
:102D6000B8239B000121D1547B681B6854229B5AD5
:102D70009BB29B083C22134019007A68B9239B0040
:102D8000D1507B680121180001F024FA03E07B6830
:102D9000180006F0C3F87B681B68180004F038F8C8
:102DA000020080239B001A4080239B009A420FD18F
:102DB0007B681B6844229B5A9AB27B681B6818493F
:102DC0000A4091B2442299527B68180006F072F8CA
:102DD0007B681B68180004F01BF8020080235B006E
:102DE0001A4080235B009A420BD17B681B68442207
:102DF0009B5A9AB27B681B680A490A4091B24422E6
:102E00009952C046BD4602B080BDC046FFFBFFFFE1
:102E1000FFBFFFFFFFDFFFFFFFEFFFFFFFF7FFFF3A
:102E2000FFFDFFFFFFFEFFFF80B582B000AF7860BF
:102E30000A00FB1C1A707A68AA239B00D35C012B42
:102E400001D1022317E07A68AA239B000121D15403
:102E50007B68FA1C242112785A547B681A68FB1C80
:102E60001B781900100003F0A9FF7A68AA239B00C1
:102E70000021D15400231800BD4602B080BD90B59A
:102E800085B000AF78600C0010001900FB1C221CFC
:102E90001A703B00021C1A80BB1C0A1C1A700B2300
:102EA000FB1800221A70FB1C1B785BB2002B0FDA98
:102EB000FB1C1B78072213405A1C13009B009B1815
:102EC000DB007A68D318FB60FB6801225A700FE0C0
:102ED000FB1C1B7807221A4013009B009B18DB0089
:102EE0006933FF337A68D318FB60FB6800225A709D
:102EF000FB1C1B7807221340DAB2FB681A703B00F8
:102F00001A88FB681A61FB68BA1C1278DA70FB68D1
:102F10005B78002B04D0FB681B781A00FB68DA8111
:102F2000BB1C1B78022B02D1FB6800221A717A6845
:102F3000AA239B00D35C012B01D1022313E07A6802
:102F4000AA239B000121D1547B681B68FA681100F9
:102F5000180002F009F87A68AA239B000021D154D6
:102F60000B23FB181B781800BD4605B090BD80B53B
:102F700084B000AF78600A00FB1C1A70FB1C1B7841
:102F80005BB2002B0FDAFB1C1B78072213405A1C84
:102F900013009B009B18DB007A68D318FB60FB686A
:102FA00001225A700FE0FB1C1B7807221A40130005
:102FB0009B009B18DB006933FF337A68D318FB60F2
:102FC000FB6800225A70FB1C1B7807221340DAB200
:102FD000FB681A707A68AA239B00D35C012B01D18D
:102FE000022311E07A68AA239B000121D1547B6857
:102FF0001B68FA681100180002F00CFB7A68AA231B
:103000009B000021D15400231800BD4604B080BDB0
:1030100080B586B000AFF8607A603B600B203B184B
:103020000A1C1A7001007B181B7807221A40130033
:103030009B009B18DB006933FF33FA68D3187B6170
:103040007B697A685A617B693A689A617B69002278
:10305000DA617B6900225A707B181B7807221340C3
:10306000DAB27B691A707B181B780722134007D1EC
:10307000FB681B687A691100180002F08BFC06E0FF
:10308000FB681B687A691100180002F083FC0023BA
:103090001800BD4606B080BD80B582B000AF786034
:1030A0000A00FB1C1A70FB1C1B7807221A40786868
:1030B000C223590013009B009B18DB00C3185B1848
:1030C0001B681800BD4602B080BD80B586B000AF59
:1030D000F8607A603B600B203B180A1C1A703B18A2
:1030E0001B78072213405A1C13009B009B18DB001F
:1030F000FA68D3187B617B697A685A617B693A68A0
:103100009A617B692422012199547B693A681A6289
:103110007B690022DA617B6901225A703B181B78B7
:1031200007221340DAB27B691A703B181B7807221A
:10313000134007D1FB681B687A691100180002F080
:1031400029FC06E0FB681B687A691100180002F090
:1031500021FC00231800BD4606B080BD80B584B0B8
:1031600000AF78600A00FB1C1A70FB1C1B7807225A
:103170001A407B685B689A4201D9012346E0FB1C38
:103180001B785BB2002B0FDAFB1C1B780722134065
:103190005A1C13009B009B18DB007A68D318FB6055
:1031A000FB6801225A700DE0FB1C1A7813009B008B
:1031B0009B18DB006933FF337A68D318FB60FB6828
:1031C00000225A70FB6801229A70FB1C1B780722B0
:1031D0001340DAB2FB681A707A68AA239B00D35CAA
:1031E000012B01D1022311E07A68AA239B0001215F
:1031F000D1547B681B68FA681100180003F0DCFCEE
:103200007A68AA239B000021D15400231800BD46F0
:1032100004B080BD80B584B000AF78600A00FB1CAC
:103220001A70FB1C1B780F221A407B685B689A425D
:1032300001D9012348E0FB1C1B785BB2002B0FDA9D
:10324000FB1C1B78072213405A1C13009B009B1881
:10325000DB007A68D318FB60FB6801225A700FE02C
:10326000FB1C1B7807221A4013009B009B18DB00F5
:103270006933FF337A68D318FB60FB6800225A7009
:10328000FB6800229A70FB1C1B7807221340DAB2FD
:10329000FB681A707A68AA239B00D35C012B01D1CA
:1032A000022311E07A68AA239B000121D1547B6894
:1032B0001B68FA681100180003F0CEFC7A68AA2394
:1032C0009B000021D15400231800BD4604B080BDEE
:1032D000B0B58EB000AF78601CE37B681A682E2012
:1032E0003B184421525A1A803B181B88DAB22D240D
:1032F0003B190F210A401A703B191B78002B00D094
:103300005DE13B181B881022134052D17B681B687B
:103310001B889AB20E203B18DA490A401A807B6853
:103320001B683A181288D8490A4392B21A807B68FF
:1033300028337B627B681B6850229B5A9BB21A0021
:103340007B6A1B78DB00D2187B681B68D318CF4AD6
:10335000944663441B889B059A0D7B6ADA617B6AFD
:103360005A697B6ADB69D2187B6A5A617B680021E3
:10337000180005F081FD7B6824229B5CDBB2002BEA
:1033800000D1C7E27B6A9B69002B00D0C2E27B6858
:1033900024229B5CDBB2802252421343DAB27B6868
:1033A0001B6811004C2299527B68242200219954F9
:1033B000B0E27B686933FF337B627B681A682A213D
:1033C0007B1812881A807B181A8880231B011340EF
:1033D00037D07B681B6850229B5A9BB21A007B6ACD
:1033E0001B78DB00D2187B681B68D318A84A944668
:1033F00063441B889B059A0D7B6ADA617B681868B9
:103400007B68AC22920099187B6ADA887B6ADB6958
:103410009BB203F04EFD7B681B681B889AB210209C
:103420003B189C490A401A807B681B683A1812882E
:1034300080210A4392B21A807B68180005F0E6FCEE
:1034400068E22A23FB1800229B5E002B00DB61E26E
:103450007B681B681B889AB21C203B188D490A4068
:103460001A807B681B683A18128880210A4392B23E
:103470001A807B681B6850229B5A9BB21A007B6A99
:103480001B78DB00D2187B681B68D318804A9446EF
:1034900063441B889B059A0D7B6ADA617B6ADB6952
:1034A000002B1AD07B6A5B69002B16D07B681868EA
:1034B0007B6A59697B6ADA887B6ADB699BB203F0B5
:1034C000F8FC7B6A5A697B6ADB69D2187B6A5A61AD
:1034D0007B680021180005F0AEFC7B681B68BB61AF
:1034E0007B681B6850229B5A9BB21A00BB699B18D1
:1034F000BB61BB69664A944663447B617B6A1B6916
:10350000002B10D17B691B889BB2634A13409AB28F
:103510007B691A807B691B889BB25B4A13439AB212
:103520007B691A802BE07B6A1B693E2B12D87B6A71
:103530001B695B083B637B6A1B690122134002D055
:103540003B6B01333B633B6B9BB29B029AB27B6943
:103550001A8014E07B6A1B695B093B637B6A1B6909
:103560001F22134002D13B6B013B3B633B6B9BB281
:103570009B029BB2444A13439AB27B691A807B68D0
:103580001B681B889AB212203B1844490A401A80D3
:103590003B183A181288802149014A401A803B188A
:1035A0003A181288802189014A401A807B681B687A
:1035B0003A1812883A490A4392B21A80AAE17B6803
:1035C0001B681A002D203B181B789B00D2182A215B
:1035D0007B1812881A807B1800229B5E002B00DB70
:1035E0000BE17B681B681A003B181B789B00D31803
:1035F0001B889AB228243B1926490A401A807B6806
:103600001B681A003B181B789B00D3183A191288C4
:1036100080210A4392B21A803B181A7813009B004B
:103620009B18DB006933FF337A68D3187B627B6AAF
:103630001B7B002B36D17B681B6850229B5A9BB2A8
:103640001A007B6A1B78DB00D2187B681B68D318D2
:103650000F4A944663441A8836243B199205920D0A
:103660001A803B191B88002B00D19EE07B681868EC
:103670007B6A59697B6ADA883B191B8803F019FC5D
:1036800093E0C0460F8FFFFF0080FFFF02040000A1
:10369000060400008F0F0000FF83FFFF8FBFFFFFB6
:1036A0008080FFFF7B6ADB78022B0CD13623FC186D
:1036B0002A23FB181A88796A7B68180000F044F9FD
:1036C0000300238071E07B681B681A007B6A1B780B
:1036D0009B00D3181B889AB222203B1894490A40B9
:1036E0001A807B681B681A007B6A1B789B00D318C2
:1036F0003A1812888F490A4392B21A807B681B6875
:103700001A007B6A1B789B00D3181B889BB21A0097
:103710008023DB01134024D07B681B6850229B5A16
:103720009BB21A007B6A1B78DB00D2187B681B688F
:10373000D318814A944663441A8836243B1992056B
:10374000920D1A803B191B88002B2ED07B681868BD
:103750007B6A59697B6A1A893B191B8803F0A9FBAC
:1037600023E07B681B6850229B5A9BB21A007B6A3D
:103770001B78DB00D2187B681B68D3186F4A94460D
:1037800063441A8836243B199205920D1A803B191E
:103790001B88002B09D07B6818687B6A59697B6A93
:1037A0005A893B191B8803F084FB7B6ADA6936214E
:1037B0007B181B88D2187B6ADA617B6A5A697B188E
:1037C0001B88D2187B6A5A617B6A9B69002B05D0E3
:1037D0007B181A887B6A1B699A4207D27B6A1A781F
:1037E0007B681100180005F026FB06E07B681B686B
:1037F0007A6A1100180002F0CDF82A243B191B88C0
:103800008022134000D185E02D203B181B785A1CE4
:1038100013009B009B18DB007A68D3187B627B68DF
:103820001B681A003B181B789B00D3181B889AB2A0
:1038300020257B1942490A401A807B681B681A00C0
:103840003B181B789B00D3187A1912883D490A430C
:1038500092B21A807B6ADB78022B09D17B6ADB7813
:10386000022B4FD13B191A8880235B00134049D1AA
:103870007B681B6850229B5A9BB21A007B6A1B789C
:10388000DB00D2187B681B68D3182B4A944663442C
:103890001A881E217B189205920D1A807B6A9A69FC
:1038A0007B181B889A4207D97B6A9A697B181B8808
:1038B000D21A7B6A9A6102E07B6A00229A617B6A73
:1038C0009B69002B07D17B6A1A787B68110018006E
:1038D00005F0D2FA1EE07B6A5A691E217B181B880C
:1038E000D2187B6A5A617B6ADA697B181B88D21806
:1038F0007B6ADA617B681B687A6A1100180002F043
:1039000049F807E02A23FB181A88796A7B681800AF
:1039100000F036F97B681B6844229B5A9BB21BB2AD
:10392000002B00DAD9E400231800BD460EB0B0BD6C
:103930008F8FFFFFC080FFFF02040000060400001D
:103940000F8FFFFF0080FFFF90B589B000AFF860D8
:10395000B960BB1D1A80BB1D1A888023DB01134090
:1039600000D17DE0FB681B6850229B5A9BB21A0075
:10397000BB681B78DB00D218FB681B68D3187A4A37
:10398000944663441A881A217B189205920D1A8076
:10399000BB689A697B181B889A4207D3BB689A69EF
:1039A0007B181B88D21ABB689A6102E0BB680022B0
:1039B0009A61BB689B69002B21D1FB681B681A00C8
:1039C000BB681B789B00D3181B889AB218203B1841
:1039D00066490A401A803B183A18128880218901EA
:1039E0004A401A80FB681B681A00BB681B789B0062
:1039F000D3183A1812885E490A4392B21A80BB1D46
:103A00001B88402213401AD0FB681B681A00BB6851
:103A10001B789B00D3181B889AB216203B18554977
:103A20000A401A80FB681B681A00BB681B789B0061
:103A3000D3183A18128850490A4392B21A801A24AD
:103A40003B191B88002B00D186E0FB681868BB6817
:103A50005969BB681A893B191B8803F02AFA7BE075
:103A6000FB681B6850229B5A9BB21A00BB681B78EC
:103A7000DB00D218FB681B68D318404A94466344A5
:103A80001A881A217B189205920D1A80BB689A69D0
:103A90007B181B889A4207D3BB689A697B181B88DE
:103AA000D21ABB689A6102E0BB6800229A61BB68C7
:103AB0009B69002B21D1FB681B681A00BB681B782F
:103AC0009B00D3181B889AB21E203B1827490A4036
:103AD0001A803B183A181288802189014A401A80BE
:103AE000FB681B681A00BB681B789B00D3183A1848
:103AF00012881F490A4392B21A80BB1D1B884022BC
:103B000013401AD1FB681B681A00BB681B789B0026
:103B1000D3181B889AB21C203B1816490A401A80F9
:103B2000FB681B681A00BB681B789B00D3183A1807
:103B3000128811490A4392B21A801A243B191B8831
:103B4000002B09D0FB681868BB685969BB685A89A3
:103B50003B191B8803F0ADF91A23FB181B881800CA
:103B6000BD4609B090BDC046020400008FBFFFFFF4
:103B70008080FFFF8F8FFFFFC080FFFF06040000E3
:103B800080B594B000AFF860B960BB1D1A80BB1D52
:103B90001B884022134000D12EE1FB681B68502295
:103BA0009B5A9BB21A00BB681B78DB00D218FB68DB
:103BB0001B68D318BB4A944663441A8848217B1873
:103BC0009205920D1A80BB689A697B181B889A42ED
:103BD00007D9BB689A697B181B88D21ABB689A619F
:103BE00002E0BB6800229A61BB689B69002B29D167
:103BF000BB681A78FB681100180005F03DF9BB1D81
:103C00001A888023DB01134000D130E2FB681B6877
:103C10001A00BB681B789B00D3181B889AB2162029
:103C20003B18A1490A401A80FB681B681A00BB6850
:103C30001B789B00D3183A1812889C490A4392B209
:103C40001A8014E2BB1D1A888023DB0113401AD0AE
:103C5000FB681B681A00BB681B789B00D3181B8885
:103C60009AB22A203B1890490A401A80FB681B68C8
:103C70001A00BB681B789B00D3183A1812888B492E
:103C80000A4392B21A80BB6824229B5C012B00D0AD
:103C9000EDE1BB685A6948217B181B88D218BB68C4
:103CA0005A61BB68DA697B181B88D218BB68DA6175
:103CB000BB681A6ABB681B699A4209D3BB681B6957
:103CC0007B64BB681A6A7B6CD21ABB681A6216E006
:103CD000BB681B6A002B08D14823FB181B887B6438
:103CE000BB6824220021995409E0BB6824220021EA
:103CF0009954BB681B6A7B64BB6800221A62BB686C
:103D00005B78002B50D1FB681B68FB61FB681B686C
:103D100050229B5A9BB21A00FB699B18FB61BB683F
:103D20001B78DA00FB69D3185E4A94466344BB6192
:103D30007B6C002B10D1BB691B889BB25C4A134083
:103D40009AB2BB691A80BB691B889BB2594A13435C
:103D50009AB2BB691A8044E07B6C3E2B10D87B6C16
:103D60005B08FB627B6C0122134002D0FB6A0133CB
:103D7000FB62FB6A9BB29B029AB2BB691A8030E07D
:103D80007B6C5B09FB627B6C1F22134002D1FB6AD8
:103D9000013BFB62FB6A9BB29B029BB2454A134309
:103DA0009AB2BB691A801CE0BB685B78012B18D102
:103DB000FB681B687B62FB681B6850229B5A9BB2A6
:103DC0001A007B6A9B187B62BB681B78DA007B6AEF
:103DD000D318344A944663443B627B6C9AB23B6A84
:103DE0001A80FB681868BB685969BB681A897B6CC4
:103DF0009BB203F01BF83AE1FB681B6850229B5A08
:103E00009BB21A00BB681B78DB00D218FB681B68EA
:103E1000D318294A944663441A8848217B1892058E
:103E2000920D1A80BB689A697B181B889A4207D347
:103E3000BB689A697B181B88D21ABB689A6102E03A
:103E4000BB6800229A61BB689B69002B36D1BB68B6
:103E50001A78FB681100180005F00EF8BB1D1A88CF
:103E60008023DB01134000D001E1FB681B681A00CE
:103E7000BB681B789B00D3181B889AB24A203B185A
:103E800009490A401A80FB681B681A00BB681B7846
:103E90009B00D3183A18128804490A4392B21A8038
:103EA000E5E0C046020400008F8FFFFF80C0FFFFE7
:103EB000FF83FFFF0080FFFF06040000BB1D1A8880
:103EC0008023DB0113401AD1FB681B681A00BB6812
:103ED0001B789B00D3181B889AB232203B187A4972
:103EE0000A401A80FB681B681A00BB681B789B009D
:103EF000D3183A18128875490A4392B21A80BB68DF
:103F000024229B5C012B00D0B1E0BB685A69482198
:103F10007B181B88D218BB685A61BB68DA697B18AA
:103F20001B88D218BB68DA61BB681A6ABB681B6958
:103F30009A4209D3BB681B697B64BB681A6A7B6CB5
:103F4000D21ABB681A6216E0BB681B6A002B08D144
:103F50004823FB181B887B64BB68242200219954EA
:103F600009E0BB681B6A7B64BB6800221A62BB68FD
:103F7000242200219954FB681B683B64BB685B7872
:103F8000002B50D1FB681B68BB63FB681B68502289
:103F90009B5A9BB21A00BB6B9B18BB63BB681B7818
:103FA000DA00BB6BD3184A4A944663447B637B6C4C
:103FB000002B10D17B6B1B889BB2464A13409AB2F0
:103FC0007B6B1A807B6B1B889BB2434A13439AB26C
:103FD0007B6B1A8041E07B6C3E2B10D87B6C5B08BE
:103FE000FB647B6C0122134002D0FB6C0133FB6449
:103FF000FB6C9BB29B029AB27B6B1A802DE07B6CB0
:104000005B09FB647B6C1F22134002D1FB6C013BFC
:10401000FB64FB6C9BB29B029BB22F4A13439AB288
:104020007B6B1A8019E0BB685B78012B15D1FB68AC
:104030001B6850229B5A9BB21A003B6C9B183B6436
:10404000BB681B78DA003B6CD318214A9446634462
:10405000FB637B6C9AB2FB6B1A80FB681868BB68C9
:104060005969BB685A897B6C9BB202F0DFFEFB6822
:104070001B681A00BB681B789B00D3181B889AB278
:1040800014203B1815490A401A803B183A18128828
:1040900010214A401A803B183A18128820214A40C1
:1040A0001A80FB681B681A00BB681B789B00D3183A
:1040B0003A1812880A490A4392B21A80002318005B
:1040C000BD4614B080BDC0468F8FFFFF80C0FFFF8C
:1040D00006040000FF83FFFF0080FFFFBF8FFFFF8C
:1040E0008080FFFF90B587B000AFF8600800110036
:1040F0007B600A243B19021C1A800823FB180A1C47
:104100001A8021007B181B88802213409BB2002B51
:104110000CD07B181B88072213405A1C13009B00ED
:104120009B18DB00FA68D3187B610BE00A23FB18AD
:104130001A8813009B009B18DB006933FF33FA6871
:10414000D3187B610823FB181B88002B07D17B69E0
:1041500000221A737B689AB27B69DA800BE07B6974
:1041600001221A737B689AB27B691A817B681B0CE7
:104170009AB27B695A8100231800BD4607B090BDF2
:1041800080B584B000AF78607B681B68FB607A689C
:10419000BA239B000121D1507A68B8239B000021EB
:1041A000D154FB6854229B5A9BB20122134399B20B
:1041B000FB6854229952FB6854229B5A9BB20222FC
:1041C000134399B2FB685422995200231800BD464C
:1041D00004B080BD80B582B000AF78600A00FB1CDF
:1041E0001A70C046BD4602B080BD000080B588B0E0
:1041F00000AF78607B68002B02D1012300F076FBD2
:104200007B681B680122134000D18EE0C54B5B68C0
:104210000C221340042B0ED0C24B5B680C221340BF
:10422000082B17D1BF4B5A68C0235B021A4080236A
:104230005B029A420ED1BB4B1A6880239B0213404B
:1042400000D171E07B685B68002B00D06CE001233B
:1042500000F04CFB7B685B68012B07D1B14B1A68FF
:10426000B04B802149020A431A602FE07B685B68EB
:10427000002B0CD1AB4B1A68AA4BAB490A401A6011
:10428000A84B1A68A74BA9490A401A601EE07B6830
:104290005B68052B0ED1A34B1A68A24B8021C90283
:1042A0000A431A609F4B1A689E4B802149020A43B9
:1042B0001A600BE09B4B1A689A4B9B490A401A60A4
:1042C000984B1A68974B99490A401A607B685B685B
:1042D000002B14D0FDF72EFC0300BB6108E0FDF7B6
:1042E00029FC0200BB69D31A642B01D90323FDE228
:1042F0008C4B1A6880239B021340F0D015E0FDF729
:1043000019FC0300BB6108E0FDF714FC0200BB6967
:10431000D31A642B01D90323E8E2824B1A68802365
:104320009B021340F0D100E0C0467B681B6802226C
:10433000134000D16CE07B4B5B680C2213400ED025
:10434000784B5B680C221340082B1FD1754B5A68C1
:10435000C0235B021A4080231B029A4216D1714B84
:104360001B680222134005D07B68DB68012B01D05B
:104370000123BBE26B4B1B68F822934319007B6857
:104380001B69DA00674B0A431A6041E07B68DB680F
:10439000002B24D0634B1A68624B01210A431A6038
:1043A000FDF7C8FB0300BB6108E0FDF7C3FB02009B
:1043B000BB69D31A022B01D9032397E2594B1B681F
:1043C00002221340F1D0574B1B68F8229343190087
:1043D0007B681B69DA00534B0A431A6018E0514BA3
:1043E0001A68504B01218A431A60FDF7A3FB0300B2
:1043F000BB6108E0FDF79EFB0200BB69D31A022BEC
:1044000001D9032372E2474B1B6802221340F1D10A
:104410007B681B680822134036D07B68DB69002B61
:1044200019D0404B5A6A3F4B01210A435A62FDF7AB
:1044300081FB0300BB6108E0FDF77CFB0200BB6968
:10444000D31A022B01D9032350E2364B5B6A0222B6
:104450001340F1D018E0334B5A6A324B01218A43A2
:104460005A62FDF767FB0300BB6108E0FDF762FBE2
:104470000200BB69D31A022B01D9032336E2294B70
:104480005B6A02221340F1D17B681B68042213404F
:1044900000D1B5E01F203B1800221A70214BDA69C9
:1044A00080235B05134010D11E4BDA691D4B802120
:1044B00049050A43DA611B4BDA6980235B05134027
:1044C000FB60FB683B1801221A70194B1A688023A5
:1044D0005B0013401AD1164B1A68154B8021490016
:1044E0000A431A60FDF726FB0300BB6108E0FDF7F5
:1044F00021FB0200BB69D31A642B01D90323F5E128
:104500000B4B1A6880235B001340F0D07B689B68DC
:10451000012B0FD1034B1A6A024B01210A431A6285
:1045200036E0C04600100240FFFFFEFFFFFFFBFF2A
:10453000007000407B689B68002B0CD1CA4B1A6A44
:10454000C94B01218A431A62C74B1A6AC64B042120
:104550008A431A621CE07B689B68052B0CD1C24B16
:104560001A6AC14B04210A431A62BF4B1A6ABE4B36
:1045700001210A431A620BE0BB4B1A6ABA4B0121B4
:104580008A431A62B84B1A6AB74B04218A431A62EB
:104590007B689B68002B14D0FDF7CCFA0300BB614D
:1045A00009E0FDF7C7FA0200BB69D31AAF4A93428C
:1045B00001D903239AE1AC4B1B6A02221340F0D0CD
:1045C00013E0FDF7B7FA0300BB6109E0FDF7B2FAAB
:1045D0000200BB69D31AA54A934201D9032385E19E
:1045E000A14B1B6A02221340F0D11F23FB181B783A
:1045F000012B05D19C4BDA699B4B9D490A40DA613E
:104600007B681B681022134063D07B685B69012BB9
:104610002AD1954B5A6B944B04210A435A63924B0F
:104620005A6B914B01210A435A63FDF783FA030049
:10463000BB6108E0FDF77EFA0200BB69D31A022BCA
:1046400001D9032352E1884B5B6B02221340F1D066
:10465000854B5B6BF822934319007B689B69DA00FA
:10466000814B0A435A6334E07B685B69053311D19F
:104670007D4B5A6B7C4B04218A435A637A4B5B6BAC
:10468000F822934319007B689B69DA00764B0A4352
:104690005A631EE0744B5A6B734B04210A435A63EE
:1046A000714B5A6B704B01218A435A63FDF742FAF2
:1046B0000300BB6108E0FDF73DFA0200BB69D31AB5
:1046C000022B01D9032311E1674B5B6B02221340DC
:1046D000F1D17B681B68202213405CD0624B5B6881
:1046E0000C2213400C2B0ED05F4B5B680C22134046
:1046F000082B14D15C4B5A68C0235B021A40C023BC
:104700005B029A420BD1584B5A6B80235B021340D9
:1047100040D07B681B6A012B3CD00123E6E07B681C
:104720001B6A002B1BD0504B5A6B4F4B8021490208
:104730000A435A63FDF7FEF90300BB6108E0FDF789
:10474000F9F90200BB69D31A022B01D90323CDE08A
:10475000454B5A6B80235B021340F0D01BE0424B69
:104760005A6B414B43490A405A63FDF7E3F9030092
:10477000BB6108E0FDF7DEF90200BB69D31A022B2A
:1047800001D90323B2E0384B5A6B80235B021340FC
:10479000F0D100E0C0467B685B6A002B00D1A4E04A
:1047A000314B5B680C221340082B00D178E07B680A
:1047B0005B6A022B4CD12C4B1A682B4B2E490A40BA
:1047C0001A60FDF7B7F90300BB6108E0FDF7B2F925
:1047D0000200BB69D31A022B01D9032386E0224BC6
:1047E0001A6880239B041340F0D11F4BDB6A0F2211
:1047F000934319007B681A6B1B4B0A43DA621A4B0E
:104800005B681E4A134019007B68DA6A7B689B6A02
:104810001A43154B0A435A60134B1A68124B8021F6
:1048200049040A431A60FDF785F90300BB6108E0FB
:10483000FDF780F90200BB69D31A022B01D90323CB
:1048400054E0094B1A6880239B041340F0D04CE0DD
:10485000054B1A68044B08490A401A60FDF76AF9CB
:104860000300BB6115E0C046001002408813000041
:10487000FFFFFFEFFFFFFEFFFFFFFFFEFF7FC2FF17
:10488000FDF758F90200BB69D31A022B01D90323A3
:104890002CE0184B1A6880239B041340F0D124E0CD
:1048A0007B685B6A012B01D101231FE0114B5B6820
:1048B0007B61104BDB6A3B617A69C0235B021A4063
:1048C0007B689B6A9A420ED13B690F221A407B6833
:1048D0001B6B9A4207D17A69F0239B031A407B68CD
:1048E000DB6A9A4201D0012300E000231800BD4694
:1048F00008B080BD0010024080B584B000AF786081
:1049000039607B68002B01D10123BFE0614B1B683C
:10491000012213403A689A4211D95E4B1B6801226A
:10492000934319005B4B3A680A431A60594B1B6862
:10493000012213403A689A4201D00123A6E07B6825
:104940001B680222134015D07B681B6804221340A9
:1049500006D0514B5A68504BE021C9000A435A60B7
:104960004D4B5B68F022934319007B689A684A4B71
:104970000A435A607B681B68012213404CD07B6855
:104980005B68012B07D1444B1A6880239B021340BC
:1049900020D101237AE07B685B68022B07D13E4B74
:1049A0001A6880239B04134014D101236EE07B68B6
:1049B0005B68032B07D1384B5A6B80235B02134093
:1049C00008D1012362E0344B1B680222134001D15D
:1049D00001235BE0304B5B680322934319007B6843
:1049E0005A682D4B0A435A60FDF7A4F80300FB6098
:1049F00009E0FDF79FF80200FB68D31A274A9342AB
:104A000001D9032342E0244B5B680C221A407B68E7
:104A10005B689B009A42ECD11E4B1B68012213403D
:104A20003A689A4211D21B4B1B680122934319002A
:104A3000184B3A680A431A60164B1B680122134050
:104A40003A689A4201D0012320E07B681B68042267
:104A5000134009D0104B5B68114A134019007B6862
:104A6000DA680D4B0A435A6000F060F801000A4B07
:104A70005B681B090F2213400A4AD35C0A00DA4024
:104A8000094B1A600120FDF70FF800231800BD46FE
:104A900004B080BD002002400010024088130000D6
:104AA000FFF8FFFF909F00080000002080B58AB04B
:104AB00000AFF860B9607A6014203B1802225A6097
:104AC0003B180322DA603B1800229A603B188022D0
:104AD00052001A603B1800221A61124B5A69114B9E
:104AE000802189020A435A610E4B5A6980239B0236
:104AF00013403B613B693A189023DB051100180015
:104B0000FDF712FD074B5B68074A13401900BA68AE
:104B10007B681A43034B0A435A60C046BD460AB03D
:104B200080BDC04600100240FFFFFF8090B58FB0EF
:104B300000AF1423FB18384A13CA13C312681A6053
:104B40003B1D364A13CA13C312681A600023FB6266
:104B50000023BB6200237B6300237B6200233B6353
:104B60002F4B5B68FB62FB6A0C2213400C2B47D077
:104B700049D8042B02D0082B03D044E0294B3B63D7
:104B800044E0FB6A9B0C0F2213401422BA18D35C3A
:104B90007B62234BDB6A0F2213403A1DD35CBB625E
:104BA000FA6AC0235B021A4080235B029A4209D151
:104BB000B96A1C48FBF7BAFA03001A007B6A534330
:104BC0007B631AE0FA6AC0235B021A40C0235B02CF
:104BD0009A4209D1B96A1448FBF7A8FA03001A00EF
:104BE0007B6A53437B6308E0B96A0E48FBF79EFA81
:104BF00003001A007B6A53437B637B6B3B6305E0D6
:104C0000094B3B6302E0074B3B63C0463B6B18001C
:104C1000BD460FB090BDC046849E0008949E00081B
:104C20000010024000127A00006CDC0280B586B0F1
:104C300000AF786000233B610023FB607B681A684B
:104C400080235B02134000D18EE017203B18002226
:104C50001A706E4BDA6980235B05134010D16B4BE1
:104C6000DA696A4B802149050A43DA61674BDA69E0
:104C700080235B051340BB60BB683B1801221A70A0
:104C8000634B1A6880235B0013401AD1604B1A688B
:104C90005F4B802149000A431A60FCF74BFF030079
:104CA0003B6108E0FCF746FF02003B69D31A642B26
:104CB00001D90323A6E0564B1A6880235B001340FA
:104CC000F0D0524B1A6AC0239B001340FB60FB6874
:104CD000002B34D07B685A68C0239B001340FA68CD
:104CE0009A422CD0494B1B6A4A4A1340FB60474BFF
:104CF0001A6A464B802149020A431A62434B1A6AD8
:104D0000424B45490A401A62404BFA681A62FB68F6
:104D10000122134013D0FCF70DFF03003B6109E0B3
:104D2000FCF708FF02003B69D31A3C4A934201D9C1
:104D3000032367E0354B1B6A02221340F0D0334B4C
:104D40001B6A344A134019007B685A682F4B0A4388
:104D50001A621723FB181B78012B05D12B4BDA693C
:104D60002A4B2F490A40DA617B681B6801221340F5
:104D700009D0264B1B6B0322934319007B689A686A
:104D8000224B0A431A637B681B680222134009D036
:104D90001E4B1B6B234A134019007B68DA681B4BC0
:104DA0000A431A637B681B682022134009D0174B03
:104DB0001B6B1022934319007B681A69134B0A433B
:104DC0001A637B681A6880239B02134009D00F4B3B
:104DD0001B6B8022934319007B689A690B4B0A4333
:104DE0001A637B681A688023DB00134009D0074BE5
:104DF0001B6B4022934319007B685A69034B0A439B
:104E00001A6300231800BD4606B080BD00100240A2
:104E100000700040FFFCFFFFFFFFFEFF8813000053
:104E2000FFFFFFEFFFFFFCFF80B584B000AF7860AD
:104E30000023FB601C4B1A691B4B802109050A43A8
:104E40001A61194B1A69184B18490A401A617B6894
:104E50001A687B685B681A437B689B681343FB6036
:104E60007B68DB68FA681343FB607B681B691B0483
:104E7000FA681343FB600E4BFA685A600C4B1B68D0
:104E80000C4A134019007B685B691A02084B0A43FD
:104E90001A60074B1A68064B60210A431A60C04625
:104EA000BD4604B080BDC04600100240FFFFFFF7C2
:104EB000006C0040FFC0FFFF80B584B000AF786099
:104EC0007B68442200219952054BFB60FB6899B234
:104ED0007B684022995200231800BD4604B080BD73
:104EE00080BF000080B584B000AF7860094BFB60E4
:104EF0007B6840229B5A9BB2FA6892B2D24392B22C
:104F0000134099B27B684022995200231800BD4695
:104F100004B080BD80BF000084B090B583B000AF06
:104F200078600420102400190824A446BC4460447E
:104F30000160426083607B684022012199527B6856
:104F40004022002199527B684422002199527B68BB
:104F500050220021995200231800BD4603B090BC96
:104F600008BC04B01847000080B59AB000AF786064
:104F700039606723FB1800221A707A683B681B7837
:104F80009B00D3181B889AB26423FB18CF490A40B0
:104F90001A803B68DB78032B17D028DC022B0ED05D
:104FA00025DC002B02D0012B18D020E06422BB1896
:104FB000BA181288802189000A431A801CE06422F2
:104FC000BB18BA1812881A8016E06422BB18BA18E7
:104FD0001288C021C9000A431A800DE06422BB1860
:104FE000BA1812888021C9000A431A8004E0672396
:104FF000FB1801221A70C0467A683B681B789B0038
:10500000D3186422BA181288B1490A4392B21A809E
:105010007A683B681B789B00D3181B889BB21BB235
:10502000AC4A13401AB23B681B781BB213431AB246
:105030005E217B181A807A683B681B789B00D31826
:105040007A181288A2490A4392B21A803B681B7BE5
:10505000002B00D050E13B685B78002B00D17AE058
:105060007B687B617B6850229B5A9BB21A007B69EC
:105070009B187B613B681B78DA007B69D318802220
:10508000D200944663443B613B68DB885B089BB27B
:10509000DB189AB23B691A807A683B681B789B00E0
:1050A000D2180E217B1812881A807B181B88402288
:1050B000134016D07A683B681B789B00D3181B8876
:1050C0009AB20C203B1883490A401A807A683B68E0
:1050D0001B789B00D3183A1812887F490A4392B272
:1050E0001A803B68DB78012B1DD07A683B681B78FF
:1050F0009B00D3181B889AB208203B1877490A40B6
:105100001A803B183A18128820214A401A807A687F
:105110003B681B789B00D3183A1812886C490A43E5
:1051200092B21A805EE27A683B681B789B00D318C3
:105130001B889AB20A203B1868490A401A807A688C
:105140003B681B789B00D3183A18128860490A43C1
:1051500092B21A8046E27B68FB627B6850229B5ABF
:105160009BB21A00FB6A9B18FB623B681B78DA0053
:10517000FB6AD3185A4A94466344BB623B68DB8897
:105180005B089BB2DB189AB2BB6A1A807B687B62B1
:105190007B6850229B5A9BB21A007B6A9B187B62E9
:1051A0003B681B78DA007B6AD3184E4A9446634406
:1051B0003B623B681B69002B10D13B6A1B889BB28A
:1051C000494A13409AB23B6A1A803B6A1B889BB2D9
:1051D000464A13439AB23B6A1A802BE03B681B692C
:1051E0003E2B12D83B681B695B083B663B681B691A
:1051F0000122134002D03B6E01333B663B6E9BB2F3
:105200009B029AB23B6A1A8014E03B681B695B09F7
:105210003B663B681B691F22134002D13B6E013B7A
:105220003B663B6E9BB29B029BB2304A13439AB2E1
:105230003B6A1A807A683B681B789B00D2181E2153
:105240007B1812881A807B181A888023DB01134090
:1052500016D07A683B681B789B00D3181B889AB2DB
:105260001C203B181B490A401A807A683B681B784F
:105270009B00D3183A1812881D490A4392B21A802B
:105280007A683B681B789B00D3181B889AB21A2057
:105290003B1818490A401A803B183A181288802196
:1052A00049014A401A803B183A1812888021890126
:1052B0004A401A807A683B681B789B00D3183A18DA
:1052C000128803490A4392B21A808BE18F89FFFF4B
:1052D0008080FFFF8F8FFFFFC080FFFFBF8FFFFF2A
:1052E0000404000006040000FF83FFFF0080FFFFAE
:1052F00080C0FFFF8FBFFFFF7A683B681B789B0071
:10530000D3181B889AB25C203B18BA490A401A800D
:105310007A683B681B789B00D3183A181288B64904
:105320000A4392B21A807B68BB657B6850229B5A05
:105330009BB21A00BB6D9B18BB653B681B78DA00FB
:10534000BB6DD3188022D200944663447B653B68D2
:105350001B895B089BB2DB189AB27B6D1A807B6855
:105360003B657B6850229B5A9BB21A003B6D9B1891
:105370003B653B681B78DA003B6DD3189F4A944627
:105380006344FB643B685B895B089BB2DB189AB2A1
:10539000FB6C1A803B685B78002B00D087E07A6852
:1053A0003B681B789B00D2183C217B1812881A801E
:1053B0007B181A888023DB01134016D07A683B687B
:1053C0001B789B00D3181B889AB23A203B18894956
:1053D0000A401A807A683B681B789B00D3183A18F9
:1053E000128887490A4392B21A807A683B681B7810
:1053F0009B00D21838217B1812881A807B181B88D2
:105400004022134016D07A683B681B789B00D31863
:105410001B889AB236203B1876490A401A807A686F
:105420003B681B789B00D3183A18128875490A43C9
:1054300092B21A807A683B681B789B00D3181B884D
:105440009AB234203B1870490A401A803B183A1827
:105450001288802149014A401A803B183A18128864
:10546000802189014A401A807A683B681B789B003A
:10547000D3183A18128865490A4392B21A807A689A
:105480003B681B789B00D3181B889AB232203B18CC
:105490005F490A401A807A683B681B789B00D318E2
:1054A0003A18128859490A4392B21A809AE07A68E7
:1054B0003B681B789B00D2184A217B1812881A80FF
:1054C0007B181A888023DB01134016D07A683B686A
:1054D0001B789B00D3181B889AB248203B1845497B
:1054E0000A401A807A683B681B789B00D3183A18E8
:1054F000128843490A4392B21A807A683B681B7843
:105500009B00D21846217B1812881A807B181B88B2
:105510004022134016D07A683B681B789B00D31852
:105520001B889AB244203B1832490A401A807A6894
:105530003B681B789B00D3183A18128831490A43FC
:1055400092B21A803B68DB78012B1DD07A683B68E9
:105550001B789B00D3181B889AB240203B182C491B
:105560000A401A803B183A18128820214A401A80B3
:105570007A683B681B789B00D3183A181288234935
:105580000A4392B21A8016E07A683B681B789B0047
:10559000D3181B889AB242203B181D490A401A8032
:1055A0007A683B681B789B00D3183A181288174911
:1055B0000A4392B21A807A683B681B789B00D31822
:1055C0001B889AB23E203B180F490A401A807A681D
:1055D0003B681B789B00D3183A1812880B490A4382
:1055E00092B21A806723FB181B781800BD461AB0C8
:1055F00080BDC0468F8FFFFF8081FFFF0404000045
:1056000080C0FFFFC080FFFF8FBFFFFF8080FFFFD4
:10561000BF8FFFFF80B58CB000AF786039603B680A
:105620001B7B002B00D07EE03B685B78002B3CD0DE
:105630007A683B681B789B00D2180C217B18128873
:105640001A807B181B884022134016D07A683B686A
:105650001B789B00D3181B889AB20A203B18C749B5
:105660000A401A807A683B681B789B00D3183A1866
:105670001288C3490A4392B21A807A683B681B7841
:105680009B00D3181B889AB208203B18BD490A40DA
:105690001A807A683B681B789B00D3183A181288E6
:1056A000B9490A4392B21A8063E17A683B681B7871
:1056B0009B00D21812217B1812881A807B181A8836
:1056C0008023DB01134016D07A683B681B789B006F
:1056D000D3181B889AB210203B18A8490A401A8098
:1056E0007A683B681B789B00D3183A181288A74940
:1056F0000A4392B21A807A683B681B789B00D318E1
:105700001B889AB20E203B18A1490A401A807A6879
:105710003B681B789B00D3183A1812889A490A43B1
:1057200092B21A8025E13B685B78002B00D090E0B4
:105730007A683B681B789B00D21820217B1812885E
:105740001A807B181A888023DB01134016D07A68F0
:105750003B681B789B00D3181B889AB21E203B180D
:1057600086490A401A807A683B681B789B00D318E8
:105770003A18128885490A4392B21A807A683B68BF
:105780001B789B00D2181C217B1812881A807B186A
:105790001B884022134016D07A683B681B789B0018
:1057A000D3181B889AB21A203B1874490A401A80F1
:1057B0007A683B681B789B00D3183A1812887049A6
:1057C0000A4392B21A807A683B681B789B00D31810
:1057D0001B889AB218203B1868490A401A807A68D8
:1057E0003B681B789B00D3183A18128864490A4317
:1057F00092B21A807A683B681B789B00D3181B888A
:105800009AB216203B1862490A401A807A683B68AF
:105810001B789B00D3183A1812885B490A4392B24E
:105820001A807A683B681B789B00D3181B889AB251
:1058300014203B1853490A401A807A683B681B7849
:105840009B00D3183A1812884F490A4392B21A8023
:105850008FE07A683B681B789B00D2182E217B185A
:1058600012881A807B181A888023DB01134016D017
:105870007A683B681B789B00D3181B889AB22C204F
:105880003B183E490A401A807A683B681B789B00A7
:10589000D3183A1812883D490A4392B21A807A689E
:1058A0003B681B789B00D2182A217B1812881A802B
:1058B0007B181B884022134016D07A683B681B78FF
:1058C0009B00D3181B889AB228203B182B490A400A
:1058D0001A807A683B681B789B00D3183A181288A4
:1058E00027490A4392B21A807A683B681B789B006A
:1058F000D3181B889AB226203B1820490A401A80E8
:105900007A683B681B789B00D3183A1812881F49A5
:105910000A4392B21A807A683B681B789B00D318BE
:105920001B889AB224203B1816490A401A807A68CC
:105930003B681B789B00D3183A18128812490A4317
:1059400092B21A807A683B681B789B00D3181B8838
:105950009AB222203B180E490A401A807A683B68A6
:105960001B789B00D3183A18128807490A4392B251
:105970001A8000231800BD460CB080BD8F8FFFFF3A
:10598000C080FFFFBF8FFFFF8080FFFF80C0FFFF51
:105990008FBFFFFFB0B5C4B000AF786039603B681F
:1059A0005B78012B01D000F039FD3B689A693B68B8
:1059B0001B699A4206D93B681B6986225200BA18B5
:1059C000136005E03B689B6986225200BA18136099
:1059D0003B681B7B002B25D13B6859693B68DA8803
:1059E000862464003B191B689BB2786801F01EFA9C
:1059F0007B687B617B6850229B5A9BB21A007B6953
:105A00009B187B613B681B78DA007B69D318D04A0E
:105A1000944663443B613B191B689AB23B691A8008
:105A200000F0CAFC3B68DB78022B00D046E33B6801
:105A30001A6A3B681B699A4200D8ECE27A683B68B4
:105A40001B789B00D3181B889AB25A203B18C14977
:105A50000A401A807A683B681B789B00D3183A1872
:105A60001288BD490A4392B21A803B681A6A86219D
:105A700049007B181B68D21A3B681A627A683B6837
:105A80001B789B00D3181B889BB21A00402313403D
:105A900000D169E17B687B633B685B78002B68D150
:105AA0007B68FB627B6850229B5A9BB21A00FB6AA0
:105AB0009B18FB623B681B78DA00FB6AD318A74A85
:105AC00094466344BB627B181B68002B10D1BB6AF1
:105AD0001B889BB2A24A13409AB2BB6A1A80BB6A67
