:020000040800F2
:1000000000400020A10600084137000845370008DD
:1000100000000000000000000000000000000000E0
:100020000000000000000000000000004937000848
:1000300000000000000000004D37000851370008A4
:100040004907000849070008490700084907000850
:1000500049070008593700086537000849070008B4
:100060004907000849070008490700084907000830
:100070004907000849070008490700084907000820
:100080004907000849070008490700084907000810
:100090004907000849070008490700084907000800
:1000A00049070008490700084907000849070008F0
:1000B00049070008490700084907000849380008AF
:1000C00010B5064C2378002B07D1054B002B02D02E
:1000D000044800E000BF0123237010BDE0010020B0
:1000E0000000000064820008044B10B5002B03D010
:1000F0000349044800E000BF10BDC04600000000F6
:10010000E401002064820008002243088B4274D37B
:1001100003098B425FD3030A8B4244D3030B8B4208
:1001200028D3030C8B420DD3FF22090212BA030C11
:100130008B4202D31212090265D0030B8B4219D3F2
:1001400000E0090AC30B8B4201D3CB03C01A524112
:10015000830B8B4201D38B03C01A5241430B8B425A
:1001600001D34B03C01A5241030B8B4201D30B0343
:10017000C01A5241C30A8B4201D3CB02C01A52416A
:10018000830A8B4201D38B02C01A5241430A8B422D
:1001900001D34B02C01A5241030A8B4201D30B0216
:1001A000C01A5241CDD2C3098B4201D3CB01C01A30
:1001B000524183098B4201D38B01C01A524143093A
:1001C0008B4201D34B01C01A524103098B4201D328
:1001D0000B01C01A5241C3088B4201D3CB00C01A95
:1001E000524183088B4201D38B00C01A524143080D
:1001F0008B4201D34B00C01A5241411A00D2014632
:10020000524110467047FFE701B5002000F0F0F8BA
:1002100002BDC0460029F7D076E7704703460B437E
:100220007FD4002243088B4274D303098B425FD3EF
:10023000030A8B4244D3030B8B4228D3030C8B421B
:100240000DD3FF22090212BA030C8B4202D3121201
:10025000090265D0030B8B4219D300E0090AC30BD6
:100260008B4201D3CB03C01A5241830B8B4201D383
:100270008B03C01A5241430B8B4201D34B03C01A6C
:100280005241030B8B4201D30B03C01A5241C30AE4
:100290008B4201D3CB02C01A5241830A8B4201D355
:1002A0008B02C01A5241430A8B4201D34B02C01A3F
:1002B0005241030A8B4201D30B02C01A5241CDD2E4
:1002C000C3098B4201D3CB01C01A524183098B422F
:1002D00001D38B01C01A524143098B4201D34B0118
:1002E000C01A524103098B4201D30B01C01A52417B
:1002F000C3088B4201D3CB00C01A524183088B4202
:1003000001D38B00C01A524143088B4201D34B00EA
:10031000C01A5241411A00D201465241104670475C
:100320005DE0CA0F00D04942031000D34042534061
:1003300000229C4603098B422DD3030A8B4212D321
:10034000FC22890112BA030A8B420CD38901921153
:100350008B4208D3890192118B4204D389013AD090
:10036000921100E08909C3098B4201D3CB01C01A65
:10037000524183098B4201D38B01C01A5241430978
:100380008B4201D34B01C01A524103098B4201D366
:100390000B01C01A5241C3088B4201D3CB00C01AD3
:1003A000524183088B4201D38B00C01A5241D9D2EB
:1003B00043088B4201D34B00C01A5241411A00D26C
:1003C0000146634652415B10104601D34042002B68
:1003D00000D54942704763465B1000D3404201B5E7
:1003E000002000F005F802BD0029F8D016E770479C
:1003F0007047C046002B11D1002A0FD1002900D12F
:10040000002802D00021C943080007B4024802A115
:100410004018029003BDC046D9FFFFFF03B46846F1
:1004200001B5029800F034F8019B9E4602B00CBC66
:100430007047C046F0B5CE469946030C9C4613045F
:1004400047461B0C1D000E0061460404240C80B5B9
:100450000700100C4B436543414360432C0CC0180C
:1004600024188C46A34203D980235B029846C444D7
:10047000494679435643230C2D042D0C89196344B6
:1004800024046019C918C0BCB946B046F0BDC046C6
:10049000F0B557464E464546DE46E0B504000D0031
:1004A0009246994683B08B4230D82DD0494650466B
:1004B00000F0BAF829000600200000F0B5F8331A61
:1004C0009846203B34D49B4653465A469340424676
:1004D0001F00534693401E00AF423BD8AF4200D1AD
:1004E00079E05B46A41BBD41002B00DA76E00022D8
:1004F00000230092019301235A4693400193012364
:1005000042469340009329E08242CFD90022002343
:10051000009201930C9B002B01D01C605D60009841
:10052000019903B0F0BCBB46B246A946A046F0BD57
:1005300042469B4620239B1A5246DA40414613000E
:100540004A468A40170042461F43534693401E00C6
:10055000AF42C3D900220023009201934346002BEF
:10056000D8D0FB0772081A4346467B080EE0AB4220
:1005700001D1A2420CD8A41A9D41012024196D4139
:100580000021013E24184D41002E06D0AB42EED989
:10059000013E24196D41002EF8D1009801995B4667
:1005A00000196941002B24DB2B005A464446D340F6
:1005B0002A00E2401C005B461500002B2ADB2600C7
:1005C0009E40330026004746BE403200801A9941C3
:1005D000009001919EE7A342BCD882E742462023C7
:1005E00000219B1A0022009101920122DA4001921F
:1005F00085E7424620239B1A2A0046469A4023005C
:10060000F340444613432A00E2401C005B461500B9
:10061000002BD4DA42462F002023260097409B1A55
:10062000DE403B003343CDE710B5002903D100F095
:1006300007F8203002E0080000F002F810BDC046C4
:100640001C2101231B04984201D3000C10391B0A02
:10065000984201D3000A08391B09984201D30009C6
:10066000043902A2105C40187047C046040302021D
:100670000101010100000000000000000023C25C35
:100680000133002AFBD1581E7047000003B47146A5
:10069000490840004900095E49008E4403BC704788
:1006A0001E4885461E4801681E4A914212D100210B
:1006B00001601D4801680122114301601B48016867
:1006C00003229143012211430160194801688D46BC
:1006D000416808471448016801221143016013482A
:1006E000016803229143016012481349134A002311
:1006F00002E0D458C4500433C4188C42F9D3104AD1
:10070000104C002301E013600432A242FBD303F03B
:10071000C5F807F039F901F0EFFCFEE700400020D2
:10072000F03F0020EFBEADDE181002400000014097
:1007300000C8FF1F00000020DC010020A495000875
:10074000E0010020C42D0020FEE70000F8B50700FE
:1007500010000C001600FFF791FFA04216D80028E9
:1007600016D0002402E00134A04211D0395D335D7F
:100770000A00613A192A01D82039C9B21D00613D29
:10078000192D01D8203BDBB29942ECD00020F8BDF6
:100790000120FCE770B5040005F0F0F92100FFF737
:1007A00039FD0B0061088B421FD25801C01A80002E
:1007B000C018C000FFF7A8FC114B5C68002C00D1EA
:1007C000104CFA210E4B890040439D68FFF79CFCBA
:1007D000FA2160438900FFF797FC80220A4B641BD3
:1007E000D200A0420AD99A6170BDE41A6001001BD0
:1007F00080000019C000FFF787FCDDE79A62F3E78D
:1008000010E000E080BB00000014004810B5022892
:1008100000D010BD00228021034803F0A1FD00227A
:10082000024B1A70F5E7C046000800485B1A00202A
:10083000F0B5C64600B586B0182836D90F223D4B14
:100840000F241A70002303930133FF3301933A4FAF
:10085000FD3B01ADEB600121384A90201368C005D3
:100860008B4313600022364B29001A7002232A6141
:100870006B6003F0CFFBA3001B199B00FB181A69E8
:10088000304B1A60304A1278002A4DD119681A6824
:10089000E023DB051A40F0231B050020194005F07A
:1008A00025F806B080BCB846F0BD8600224F361849
:1008B000B600BE19337A040098461E4B10221870F9
:1008C000002102A807F040F880235B0001AD0193EE
:1008D000FD3BEB604346002BBDD0002200210020F1
:1008E00005F004F80022174B90201A60022329001B
:1008F000C0056B602B6103F08DFB01210F4B1A6863
:100900008A431A6072899A62B289DA62013252109D
:100910005A630B4A596111700B4A1278002AC0D1F0
:100920001A680A431A60BCE700220021002004F084
:10093000DDFFB6E75C1A0020FC920008002C0140A5
:10094000421600204416002041160020F0B5D6467D
:100950004F464646C0B58046FFF790FE071E20D0A2
:10096000184B85269A46AE239B00994653464A4625
:1009700000249B58B6003D1B402D1FD8A9B2124839
:100980009A59002A16D14346181906F005FD534618
:100990004A460D499B589A59002A07D16419A74223
:1009A000E9D8E0BCBA46B146A846F0BD01390029F5
:1009B000F1D1F3E701380028E2D1E4E740254021F6
:1009C000DDE7C046D01A0020400D03000FB400B58B
:1009D000A3B024AB04CB802102A8019306F09AFFB8
:1009E00002A8FFF7B3FF23B008BC04B01847C04605
:1009F00010B51C4C82B02078172801D902B010BD68
:100A00000130C0B2FFF714FF0122174B1A7005F036
:100A1000B5F8164B22781860182A20D8930014498C
:100A20009B189B0059581348FFF7D0FF80210122E3
:100A30001148C90003F094FC00230193019B0F4A65
:100A4000934205DC019B01330193019B9342F9DD45
:100A5000802100220848C90003F082FCCEE7084943
:100A6000E1E7C0465C1A002038160020341600204A
:100A7000FC9200089C820008001400485FEA000015
:100A80009482000810B51C4C82B02078002801D157
:100A900002B010BD0138C0B2FFF7CAFE0122174BE9
:100AA0001A7005F06BF8164B22781860182A20D8B7
:100AB000930014499B189B0059581348FFF786FF71
:100AC000802101221148C90003F04AFC0023019350
:100AD000019B0F4A934205DC019B01330193019B6B
:100AE0009342F9DD802100220848C90003F038FC58
:100AF000CEE70849E1E7C0465C1A0020381600201E
:100B000034160020FC9200089C8200080014004863
:100B10005FEA000094820008F0B5DE4657464E4674
:100B20004546E0B5904887B0FFF710FF8F4B9946D8
:100B30001800FFF70BFF8E48FFF708FF4846FFF746
:100B400005FF8C4F3B78002B00D1B7E08A48FFF7B8
:100B5000FDFE4846FFF7FAFE3B78002B00D1AAE0E5
:100B60000B2293460021854E7156594501DB013A0F
:100B70003270834A59469246824A00240192824A40
:100B800002AD90463A00009137009346002B57D1B2
:100B9000082C00D9E6E0019AA300D3589F467B4B6E
:100BA0001B78012B00D1CFE0022B00D1D2E0032B28
:100BB00000D1D5E0764B10212800764A06F046FE9B
:100BC0000023FB567449A3422ED12A007348FFF735
:100BD000FDFE009B01349C422ED14846FFF7B6FE35
:100BE0006F48FFF7B3FE4846FFF7B0FE6D48FFF7CA
:100BF000ADFE07B0F0BCBB46B246A946A046F0BD6C
:100C0000694B1978182900D9A0E08B00674A5B1856
:100C10009B009B58102128005E4A06F017FE64498D
:100C20000023FB56A342D0D02A004046FFF7CEFE59
:100C3000009B01349C42D0D05B461B78002BA7D090
:100C40000A2C2CD85246A300D3589F46594B1B78E8
:100C5000002B77D14E4B10212800574A06F0F6FDA5
:100C60005649DDE7564B1B78002B69D1554B1021B7
:100C70002800484A06F0EAFD5349D1E72A00534BC1
:100C800043CB43C21B7852491370C9E7514B102123
:100C900028001B68504A06F0D9FD5049C0E7504B68
:100CA0001B78002B4AD1474B10212800394A06F007
:100CB000CDFD4C49B4E70922934653E74A48FFF774
:100CC00045FE46E72A00494B43CB43C21B784849BF
:100CD0001370A5E7102128003A4B2E4A06F0B6FD06
:100CE00044499DE72A00414B43CB43C21B7842490C
:100CF000137095E7414B1B78012B2FD0022B2BD182
:100D00003F4B10212800234A06F0A0FD3D4987E70C
:100D10003D4B1B78052B1BD83C4A9B009B58102150
:100D200028001C4A06F092FD394979E71021280075
:100D3000384B184A06F08AFD2E4971E7354BB3E768
:100D4000344B94E7344B86E7344B34E7344B61E75C
:100D5000344BE4E7344B2EE7344BD2E7344BD0E747
:100D6000344B28E734495BE7688400087484000842
:100D7000AC84000841160020E484000832160020EC
:100D8000E88B0008C48B0008BC8500080200002026
:100D9000D482000854850008C08300089C850008A0
:100DA000D48500080C8600085C1A0020FC9200081C
:100DB000A4830008030000207085000888830008D1
:100DC00004000020C08200086C8300088C850008A5
:100DD0004C84000808000020608500083483000867
:100DE0000C000020188300081C8500087C85000882
:100DF00050830008DC83000830840008401600207F
:100E0000108300081484000801000020648C00088E
:100E1000F8830008B8820008CC820008DC82000851
:100E200094820008F4820008E4820008008300082D
:100E30000C830008EC820008E0890008F0B5CE467B
:100E40004746344A344B116880B5994224D00F2369
:100E500099460E3B984601330125012401200021CB
:100E60009C46002610274A462C4B1A7042462C4BB3
:100E70001D702C4B1C702C4B18702C4B1A7062463A
:100E80002B4B19702B4B1A702B4B1E702B4B1F606A
:100E9000C0BCB946B046F0BD1379D7689946137AFD
:100EA00055799846937A94799C461B4BD079FB18D8
:100EB0004B445B191B19517A1B184344D67A5B18B3
:100EC000634412699B199A42C1D14B46182B01D930
:100ED0000F2399466B1E9D41631E9C41431E984102
:100EE0004346EDB2E4B2C0B2032B01D901239846C8
:100EF0004B1E99416346C9B2052B01D902239C467A
:100F000000230222B2425B415B421E403B1F3C2B4E
:100F1000A9D9A7E700F80108022C07BF5C1A002036
:100F20000C0000200400002003000020020000202C
:100F3000411600200100002040160020080000207B
:100F4000F0B557464E464546DE46E0B5354B8BB0CC
:100F50000593354B1B789846344B1B789C46344B95
:100F60001F78344B3C041E78334BA2461D78334B1C
:100F700044461878324B1978324B1A7800239B4636
:100F800063461B0223433406A146544623434C4682
:100F900023430C04A2461406A146544606930302BA
:100FA0002B4323434C4623431E4C0793A146264B19
:100FB0001B6808934B4443446344DB199B195B193A
:100FC0001B18224D5B189B182800142205A90993B1
:100FD00006F0ACFC002806D10BB0F0BCBB46B24614
:100FE000A946A046F0BD02F061FF5B4601A901934E
:100FF000029302A801330395049302F0CDFE00286A
:101000000CD1134E2C00134D6E4421003259002395
:101010000220043402F09CFFAC42F6D102F05AFFE9
:10102000DAE7C046022C07BF5C1A00200C00002043
:1010300004000020030000200200002041160020D0
:1010400001000020401600200800002000F80108E0
:101050001408FEF714F8010802220A4B10B51A70A2
:101060000022FF21084B09481A70094B1970094BDF
:101070007F391A70084B01321A704901002203F0BF
:101080006FF910BD5D1A00203216002000080048DC
:1010900000000020301600203116002010B5A0B04E
:1010A0003022002114A806F04FFC1022002102A8D3
:1010B00006F04AFC1C2200210CA806F045FC182270
:1010C000002106A806F040FC32231024139313A835
:1010D000313B16931B9318931794199404F052F90B
:1010E000072300240121029302A8043B03930494E4
:1010F000059404F06DFC80230CA89B020C931294C1
:1011000004F060F88022A0210020D205C90404F078
:10111000EDFB80210C4B0905DA6906A80A43DA6168
:10112000DB6922220B400193019B80239B050793DF
:10113000064B06940993202308940A920B9304F01B
:10114000F7F820B010BDC046001002407FBB000081
:1011500030B587B014220021684606F0F5FB8021E7
:10116000154D01222800C90003F0FAF8802128005B
:101170000122090103F0F4F8FF220024002369464C
:1011800012020E4800920193029402F043FFC02223
:10119000002369462800920000920193029402F015
:1011A00039FF0023064A69460648009201930294DB
:1011B00002F030FF07B030BD0008004800040048CE
:1011C000FFFF00000010004830B583B0FFF7B8FE05
:1011D00080250022364B374C1A70ED00364B20002C
:1011E00029001A6003F0BCF8A562344C2278182A52
:1011F00053D8930032499B189B0059583148FFF748
:10120000E5FB314B1B78002B10D0304B1B78012BAA
:101210004CD0022B43D12E492E4B1B78052B43D8A3
:101220002D4A9B009A582D48FFF7D0FBFFF790FFFF
:10123000FA239B000193019B5A1E0192002BFAD1C5
:10124000802100222648C900019B03F089F8FA2377
:101250009B000093009B5A1E0092002BFAD120782D
:10126000009BFFF7E5FA8021002249011C4803F0AA
:1012700077F80A2004F088FC802580210D4CED00D1
:1012800001221748490103F06BF8002229002000D1
:1012900003F066F8A56203B030BD1249AEE70D4B0E
:1012A00011491B78052BBBD9104ABCE71049B3E79D
:1012B0005D1A0020001400483C1600205C1A002033
:1012C000FC920008348600084116002040160020D9
:1012D0001083000801000020648C0008708600085C
:1012E000000800489482000800830008F482000887
:1012F0000C83000870B50D00012680211B4A0304F1
:101300001B0C82B05361020C0400324018484900A3
:1013100003F026F88021620C15483240890003F062
:101320001FF8FF21134B2D025A6911481140294320
:10133000596180210022090103F012F80A23019368
:10134000019B5A1E0192002BFAD1802101220848EC
:101350000901019B03F004F80A230093009B5A1E25
:101360000092002BFAD1009B02B070BD0010004823
:10137000000800480004004830B5802101251D4ABE
:1013800003041B0C85B05361020C04002A401A4868
:10139000490002F0E5FF8021620C17482A408900CD
:1013A00002F0DEFF0A230393039B5A1E0392002BD5
:1013B000FAD1802100221048C900039B02F0D0FF1F
:1013C0000A230293029B5A1E0292002BFAD16A460C
:1013D0008021029B094BD41D1B6907481B0ADBB205
:1013E000D371C900012202F0BBFF2078C0B205B062
:1013F00030BDC04600100048000800480004004806
:10140000F8B50E0005004027224C234A2368AA2184
:101410001B041B0C134323602048FFF76BFF55216F
:101420001F48FFF767FFA0211C48FFF763FF31004B
:101430002800FFF75FFF23681A4E1B041B0C236074
:101440002800FFF799FF04002800FFF795FF4440AC
:1014500027420FD0013E002EF2D12800FFF78CFF6B
:1014600004002800FFF788FF604007420FD00126E4
:101470007642E5E72800FFF77FFF04002800FFF72A
:101480007BFF4440274202D0013E002ED8D10020ED
:10149000F8BDC046000400480000555555550000F1
:1014A000AA2A000050C3000070B54026264C274AE7
:1014B0002368AA211B041B0C134323602448FFF755
:1014C00019FF55212348FFF715FF80212048FFF71A
:1014D00011FFAA211E48FFF70DFF55211D48FFF7F8
:1014E00009FF10211A48FFF705FF23681A4D1B0456
:1014F0001B0C23600A20FFF73FFF04000A20FFF7C0
:101500003BFF444026420FD0013D002DF2D10A207E
:10151000FFF732FF04000A20FFF72EFF604006426B
:101520000FD001256D42E5E70A20FFF725FF0400F3
:101530000A20FFF721FF4440264202D0013D002D42
:10154000D8D1002070BDC0460004004800005555A9
:1015500055550000AA2A0000404B4C00D0B586B07B
:1015600014220021684606F0EFF98021154C012273
:101570002000C90002F0F4FE8021200001220901B0
:1015800002F0EEFEC022012300260127694620005A
:101590009200009201930296039702F03BFD012313
:1015A000094A69460948009201930296039702F09E
:1015B00031FD0749074A0B681B041B0C13430B60E2
:1015C00006B0D0BD00080048FFFF00000010004832
:1015D0000004004800005555F0B54E464546DE462D
:1015E0005746E0B587B01C0010AB1B780E00804654
:1015F000111E019300D1F4E032007E48FFF7E6F9B6
:10160000802100227C48490102F0AAFE80210122AB
:10161000C9007A4802F0A4FE7948FFF797F9FFF76E
:101620009DFFFFF741FF7748FFF790F904AB9A461B
:101630005146754B1A6804929A888A809B798B71FF
:10164000002C2DD08023B51DDB029D4200D977E010
:10165000092D28D90A212800FEF756FD8146534658
:101660009B1B9B46694B64270093330000244E4626
:10167000994610E04346195D20000134FFF7C0FE93
:1016800031002000FEF7C6FD002960D0AC426DD0CD
:101690006437AC4268D2A145ECD85B46195DEBE7F4
:1016A0003500092DD6D8002D00D09FE05848FFF70F
:1016B0004DF95848FFF74AF95748FFF747F9019B9A
:1016C0000125002B00D188E05448FFF73FF9802125
:1016D00000224A48C90002F043FEFFF739FDFA2311
:1016E0009B000393039B5A1E0392002BFAD1802187
:1016F00000224148C900039B02F032FEFA239B00FE
:101700000293029C631E0293002CFAD180210022D6
:1017100049013948029B02F023FE0A2004F034FA02
:10172000802101223448490102F01AFE3C4B1C7012
:10173000280007B0F0BCBB46B246A946A046F0BDA3
:101740000A213000FEF7E0FC3500814687E72900DA
:101750003800FEF7D9FC2B00010022000098FFF7AB
:1017600035F96437AC4296D34E460BE02900380079
:10177000FEF7CAFC254C01002B002A0020004E4633
:10178000FFF724F92248FFF7E1F853469B1B00249A
:101790009A460AE0434620001F5DFFF7EDFD8742B1
:1017A0000CD10134AC4200D183E7A642F2D85346B3
:1017B00020001F5DFFF7E0FD8742F2D0194D0300C6
:1017C0003A0028002100FFF701F91348FFF7BEF89F
:1017D000019B0025002B00D076E71348FFF7B6F8F1
:1017E000A6E731001148FFF7F1F809E70123994610
:1017F00035E7C046A48600080008004800140048E9
:10180000E0860008F0860008CC820008F886000810
:10181000208700086C87000874870008A0870008EC
:101820005D1A002034870008BC870008C4860008C1
:1018300000B5104883B0FFF789F801230E4A0093E2
:101840000E4900230E48FFF7C7FE00230D4A137010
:101850000D4A13600D4A13600D4A13600D4A137050
:101860000D4A13800D4A138000220D4B1A7003B0ED
:1018700000BDC046EC8700081C8800087D060000FB
:101880007C8C0008090200201802002014020020AD
:1018900010020020080200201E0200201C0200206E
:1018A0000002002010B5354B1A78002A0BD1082809
:1018B00008D8334A800012589746324A1378594262
:1018C0004B41137010BD0A28FCD82F4A80001258D3
:1018D00097462E48FFF73AF8FFF7AAFFF2E70323EF
:1018E0002B490A78013213400B70EBE7294B192181
:1018F00018780130FEF778FDC8B2FEF799FFE1E7EE
:10190000254A137859424B411370DBE7234A137879
:1019100059424B411370D5E7214B1A68042A24D051
:10192000082A1FD0102A23D0202A24D004221A608B
:10193000C8E7FFF749FCC5E701221A70C2E7194C56
:10194000032120780130FEF74FFD2170BAE7002215
:101950001A70B7E7144C062120780130FEF744FDD9
:101960002170AFE710221A60ACE708221A60A9E7DD
:1019700020221A60A6E740221A60A3E74116002041
:10198000148C00080C000020388C000834880008F3
:10199000020000205C1A0020030000200400002048
:1019A00008000020401600200100002010B52E483D
:1019B0008AB0FEF7CBFFAE2385212C4C9B00E0586C
:1019C0002B4A89004358002B49D100230193019BE6
:1019D000284A934205DC019B01330193019B93420A
:1019E000F9DD200005F046F8200005F01FF8802101
:1019F000214B89025A6906A80A435A615B690C2285
:101A00000B4002930021029B05F09EFF8022902054
:101A10000123520104A9C0050492059302F0FAFAC9
:101A20008021902000224901C00502F099FC00238A
:101A30000393039B114A934205DC039B01330393F9
:101A4000039B9342F9DD0E4B0E4A1A60BFF34F8F92
:101A50000D4B0E4ADA60BFF34F8FC046FDE7013AE7
:101A6000002AAFD1B1E7C0465C880008D01A002038
:101A7000400D03001FA10700001002403F420F006D
:101A8000F03F0020EFBEADDE00ED00E00400FA05FF
:101A900070B5902604000125F605C20980213000AA
:101AA00002F05EFCA20930002A40402102F058FCFE
:101AB000620930002A40202102F052FC2209300045
:101AC0002A40102102F04CFCE20830002A40082194
:101AD00002F046FCA20830002A40042102F040FC3B
:101AE000620830002A40022102F03AFC2A0030004D
:101AF0000121224002F034FC70BDC046F0B54546DD
:101B0000DE4657464E46E0B50C00050087B0042976
:101B10006ED90522BE4905F01FFF002800D1B0E0B4
:101B2000BC4F3E78002E00D0AFE021002800BA4A1A
:101B3000FEF70CFE002800D0F4E021002800B74A90
:101B4000FEF704FE002800D0ECE021002800B44A93
:101B5000FEF7FCFD002800D0B9E021002800B14AC2
:101B6000FEF7F4FD061E00D0B1E0AF4B1B78002B52
:101B700000D1B0E0AD4B1B68A34200D9ABE080219F
:101B800001230122AA48C90099463B7002F0E8FBF4
:101B9000802100224901A74802F0E2FB4A46A64BF9
:101BA000A64F1E609846A64B3E601E60A54B1A705D
:101BB0000022A54B1E70A54B1E80A54B1E80A54B79
:101BC0001A7003F0DBFFA44B220018602900A34821
:101BD00005F000FF4346A2481C603C60FEF7B6FEDD
:101BE000012007B0F0BCBB46B246A946A046F0BDF6
:101BF000884F3E78002E98D0022E5AD0012EEFD179
:101C000003F0BCFF944B904F18608E4B1E703B78D6
:101C1000002B00D0C1E08022874B520198461B6800
:101C20001B19934200D8E2E143461E68931B994674
:101C3000B24200D002E201233B708A4B9C466644CC
:101C40003619002E00D1DEE02900874B4944B14609
:101C500098467E4A7E48794E894413880488013329
:101C60009B059B0D9C4208D0454614880F78A4B272
:101C70002F55138033680133336001318945ECD12E
:101C8000C1E00122794B1A70AAE7022EB6D1784B37
:101C90001878414241410123494299430B310023C5
:101CA000EA5C202A01D0092A50D101339C42F7D89E
:101CB00096E7002994D06E4B1878002800D161E196
:101CC0000B21012CEBD12B78202BE8D15FE00122F6
:101CD000684B1A7084E7684B1B78012B00D105E133
:101CE000022B00D1EFE0032B00D159E1604B1B78B0
:101CF000002B07D0614B1B78002B00D01EE1012C7C
:101D000000D16FE1002C00D16AE72B781800FFF7B3
:101D1000BFFE01228021474802F022FB0122584BDE
:101D20001A705DE702230022FF213B70554B4148AA
:101D30001A70554B19708021544B49011A70544B3D
:101D400001321A70002202F00BFB49E79C4200D8D6
:101D500046E7EE181B2A00D1A2E01300313BDBB2AC
:101D6000002800D0D8E0072B00D852E1202A0ED05E
:101D700000D92DE10A2A02D00D2A00D030E703F065
:101D8000FDFE444B1B68C01A642800D828E70022D7
:101D90003C4B9A563C4B1A7022E7002C00D15FE175
:101DA0008023DB029B46304BA24699462349274AB3
:101DB0002748AA440B685B4513D213880788013370
:101DC0009B059B0D9F420CD01788BFB2BC462F7855
:101DD0006646B8464F464446BC5513800B680133EF
:101DE0000B600135AA45E5D111880388994200D2DC
:101DF000CDE0138802889B1A9BB2274AD31A9BB264
:101E00007F2B00D9ECE60122244B00201A70E8E673
:101E1000908800085D1A002098880008A0880008B3
:101E2000A8880008B08800080C00002008000020E6
:101E30000014004800080048180200201402002086
:101E40001002002009020020080200201E020020CB
:101E50001C020020000200200C02002020060020AE
:101E6000B888000800F0FFFF200200202F16002095
:101E7000411600202E1600200200002040160020EF
:101E80005B1A0020321600200000002030160020CF
:101E900031160020FC010020FF0300006425002013
:101EA0000233A3420BD272785B2A01D04F2A06D1AB
:101EB000EB5C412B00D1EFE0422B00D1D3E00122BB
:101EC0007F4B1A708CE6032C00D00FE72B7818009C
:101ED0001B2B00D1D3E07B4A1278002A00D116E7F1
:101EE000794A1278002A00D010E710E7042C00D0BD
:101EF000FCE62B7818001B2BEDD16A785B2AEAD11F
:101F0000AA78352A00D1D4E0362AE4D1EA787E2AAC
:101F1000E1D1FEF7B7FD63E6082B7AD92023110043
:101F20009943412900D021E703F028FE0922674B9D
:101F30001860674B1A70674B1A7051E6012B74D00A
:101F4000022B00D0DEE6012C00D0DBE62B78180057
:101F50000D2B02D00A2B00D0D9E669460A005E4B51
:101F600031CB31C231CB31C25C4B64201B78052BA5
:101F700001D89B00585872B6594A13681B18136051
:101F800062B62DE60921012C00D088E69BE680216F
:101F9000C9008C461388028863449B1A9BB22CE7C5
:101FA000012C00D0AEE62B7818002B2B00D184E05A
:101FB0002D2BAED0434A1278002A00D1A7E6424A20
:101FC0001278002A0FD0012A33D0022ABFD09DE612
:101FD000202311009943512900D170E7302A00D005
:101FE000FEE56CE72878202800D090E6B5E7434668
:101FF00018683C4B2200C018290005F0EBFC434652
:1020000042461B681B191360374A13681B1913607B
:10201000E6E503F0B3FD2D4B2D4A18603378313BD4
:102020005BB213702B4A1370DAE5012C00D069E61D
:102030002B781800092B00D069E68EE74346186814
:10204000284B4A46C018290005F0C4FC43464246C6
:102050001B684B441360244A13684B441360EAE541
:10206000224A2348C0E61A4A137801335BB28B42F6
:1020700000DB0023137001221E4B1A70B0E56A7852
:102080005B2A02D04F2A00D025E7AA78412A14D033
:10209000422A00D01FE73CE70D4A1378013B58B2B3
:1020A0001B0601D5481E40B210700122114B1A7058
:1020B00096E5EA787E2A00D00DE7FEF799FC8FE5D9
:1020C000301600204116002040160020FC010020A0
:1020D00032160020000000207C8200080100002051
:1020E0003C16002020060020140200201E020020C2
:1020F0001C02002031160020F0B5DE4657464E4641
:102100004546E0B50126B9B002AF03F01BFD03213F
:10211000FD4DFE4AAB6989463343AB61AB69002490
:102120003340BB67BB6F13688B431360FEF7B6FF8A
:1021300078204C231B1814220021D81905F004FC28
:1021400080226B69920313436B616B69F048134003
:10215000A022B9180B600B0080221B686B69D203A8
:1021600013436B616B691340A422B9180B600B0019
:1021700080221B686B69120313436B616B69134008
:10218000A822B9180B600B0080221B686B699202B1
:1021900013436B616B6992461340AC22B9180B6014
:1021A0000B0080221B686B69D20213436B616B6961
:1021B0001340B022B9180B600B0080221B686B69BA
:1021C000520313436B616B691340B422B918802228
:1021D000D20090460B600B00002241461B6802F0C3
:1021E000BFF80122CB49CC4802F0BAF89020002277
:1021F000FF21C00502F0B4F884210022C64849013D
:1022000002F0AEF8C423C54AF9180A60C8217A184A
:102210001460CC227820783BBA1814601A18D119AF
:10222000BF4801F0F7FEC4234046FA181060C821E9
:10223000CC227918BA180E601460D0227820B91810
:10224000783B0C601918C919B14801F0E3FEC423AA
:102250000222F9180A60C821B2487918086083463A
:102260007820CA32B918783B0E601918C919AA48E3
:1022700001F0D0FEC4230420F9180860C8210833F7
:1022800079180E60D022F9180C604946B818016020
:102290007820803B1918C9199F4801F0BBFEC42261
:1022A0000823B9180B6059460432B8180160782029
:1022B000C433F918803B0C601918C919964801F00D
:1022C000A9FEC423FF21CC22F81801603739781801
:1022D0000660B81804320460B81806607820783BAD
:1022E0001818C1199020C00501F094FEC4231020D5
:1022F000F9180860C8218346083378180460F81874
:1023000006607820803B1818C119834801F082FECE
:10231000C4226023C821B818036078186C330460A5
:10232000C23AF81802607820803B1818C1197A4820
:1023300001F070FEC4237949F8180160C821CC224D
:1023400078180460B81804607820783B1818C11910
:10235000754801F05FFEC4238421F818490101602B
:10236000C821083378180660D022F8180460782055
:10237000803BBA1814601A18D119674801F04AFE58
:10238000C422C023B818C8219B000360CC2378184E
:102390000460F81804607820803B1818C1195E4862
:1023A00001F038FEC4228023C821B8185B00036006
:1023B000C23A781802604A46343BF8180831046083
:1023C000781802607820D132803BBA1814601A184D
:1023D0009020D2191100C00501F01CFEC023C422B8
:1023E000C8211B01BA181360CC2378207A18083151
:1023F00016607918FA18803B14600E601918CA1913
:102400001100454801F006FEC423FF21FA181160AF
:10241000C8220833BA18FB18146078201C604C23BB
:102420001A18D119414801F0F5FD002200210520BC
:1024300001F052FC052001F079FC00220021062069
:1024400001F04AFC062001F071FC52466B695420F1
:1024500013436B616B6900211340FB67FB6F7823AB
:10246000C0180C22C01905F06FFAC42180227B1815
:1024700052011A6078204C231B1890200431924698
:102480007A181660D919C00501F0C4FD9020002209
:102490005146C00501F064FF642003F075FB9020F5
:1024A0005146C00501F0C2FE04F020FF7820402311
:1024B0001B180C220021D81905F046FA1C4A1D4BA6
:1024C0000420136080235B029361C2235946FF33CB
:1024D000D3619E3B5061FF3B100093469160D45402
:1024E000FA605460D46016611462946201F02CFAB0
:1024F000B8210A2379180B605146B233FB181960D2
:10250000C0234946FB1817E00010024000000140BC
:1025100000140048040C000000080048FFFF000001
:10252000001000480000211000040048000C004882
:10253000601A0020002401407822196040239B1873
:10254000D919584601F036FB8022AB6912011343BA
:10255000AB61AB69E4481340B822B9180B600B00BB
:10256000E0221B68E14BFF321C609A62783AFF3A26
:10257000DE625E639A61802212021E625A648022C9
:1025800041461A607F3A01F0EBFE502003F0FCFA5E
:1025900000224146D44801F0E3FED54B1C70FB6499
:1025A000D44B1C609A46D44B1C607B62D34B1C609E
:1025B0009B46D34B1C70BB60D24B1C60FEF7C8FD22
:1025C000FA238C229B00BA1813608C217B181B689D
:1025D00079185A1E0A60002BF7D10B0080210022C7
:1025E000C948C9001B6801F0BBFEFA2388229B0082
:1025F000BA1813608822BB181C68BA18631E1360CF
:10260000002CF7D180211300BF48012249011B682B
:1026100001F0A6FE80210022C900B34801F0A0FE0F
:10262000BA4B7B671C70FEF709FCB94B1878FB634B
:10263000FEF7FEF81021B44801F08CFEB54B18707F
:10264000FB65B54B3B67187003F098FAB34B186005
:10265000FB66B34B1C60BB64B24B1C703B63B24B5C
:102660001C70BB63B14B1C707B64B14B1C607B6006
:10267000B04B1C603B60B04B1C609C46AF4B1C6079
:102680003B61AF4B1C70FB62AE4B7B631C70AE4B6F
:102690001C80FB61AD4B1C80BB61AD4B1A00BB6263
:1026A00000231370AB4B7B651B78002B00D015E229
:1026B000A94B62467B66A94B7A61BB66A84BBB659A
:1026C000A84B3B655B46D3469A467B6E1B78002B36
:1026D00000D082E210218C4801F03CFE3A6F137862
:1026E000834204D0107003F049FAFB6E186003F0C7
:1026F00045FAFB6E1B68C01A222800D80EE23B6F19
:10270000FD6D1C782B78A34214D02C70002C00D0C7
:10271000E9E103F033FA8021BB6C002218603B6BC7
:1027200079481C70BB6B49011C707B6C1C7001F0FC
:1027300017FE2C78002C00D1F5E17B6F1B78022B63
:1027400000D10BE2012B00D125E2BB6E1B78002BE0
:1027500021D053461A685B461B689A4200D231E288
:1027600053465A461B6812689B1A9BB280229200FD
:10277000934210D20023BA6E13707B4B1A787B4BB6
:102780001B78002A00D134E3002B04D1574A0133CF
:1027900011680B4313607B6F1B78002B54D15B4691
:1027A0001A6853461B689A424ED0AE2370499B006C
:1027B000CA58A43BD458002C46D153461D685B46EA
:1027C0007A6A1B6813605B461B68AB4200D325E343
:1027D0005B461B68EB1A3B2B01D800F0FAFC5B460A
:1027E0001868644B3C21C01804F0D6FD5B465A467D
:1027F0001B683C331360BB6E1B78002B24D0534600
:102800001A685B461B689A4201D300F0DAFC80210B
:1028100053465A46C9008C461B68126863449B1A8B
:102820009BB28022920093420ED20023BA6E1370A4
:102830004D4B1A784D4B1B78002A01D100F09BFDBF
:10284000002B01D100F0AAFD72B67B6FFA6C1B78E9
:102850001278134300D15DE262B6BB6D1B78002B8A
:1028600000D073E23B6D1B78002B00D002E27B6F3F
:102870001B78002B00D02CE13C4A1278002A00D1B2
:1028800027E13D4A1168002900D122E172B61168A2
:102890001360894662B6344B1B78002B01D000F0E0
:1028A00002FD364A364953683648096803400B43EF
:1028B0005360FA6B344B117834488A0052189200F6
:1028C0009B185C684B46844200D89FE0642B00D97B
:1028D000A0E001204B46002B00D1F5E001240328A5
:1028E00056D9840854E0C04600140048002C01402A
:1028F0005B1A0020501600204C16002048160020BD
:10290000581A0020541A0020000800485D1A0020C0
:102910005C1A00202D1600202C16002028160020FE
:102920002416002022160020211600202016002048
:102930001802002014020020100200200C020020C7
:1029400009020020080200201E0200201C020020B4
:10295000000200202F1600202E1600204316002013
:102960005E1A002038160020421600204116002072
:10297000D01A0020541600203C16002000100240FF
:1029800044160020FFFFFF80FC920008006CDC0270
:1029900000255E46C84B3B660023802204E0C0460B
:1029A0008022BB181B680133B9180B600B689C426E
:1029B000F5D8534632681B689A4222D0AE233A6E4D
:1029C0009B00D258A43BD3589846002B19D15346AC
:1029D0001B6832689A4201D300F0E7FC3C21326860
:1029E00088469A1A3B2A03D832689B1A9BB29846AB
:1029F000B24B30684146C01804F0CEFC3368434403
:102A000033600135A945C7D1B3465DE0642B01D8D9
:102A100000F0BFFC0023AA4A48460021FDF70AFD4A
:102A200022000023FDF7E6FC041E00D10134A24B76
:102A30005D4698468023DB00994656462100642C6B
:102A400000D96421842000233818036084203B18B7
:102A50004A001B6852188C4652009A420AD9C04656
:102A600084203B181B68391801330B600B689342B4
:102A7000F5D361462A683368641A9A4220D0AE239F
:102A800042469B00D258A43BD3589A46002B17D1FC
:102A900033682A689A4200D3B5E33C212A688A4603
:102AA0009A1A3B2A03D82A689B1A9BB29A46834BF0
:102AB00028685146C01804F06FFC2B6853442B6003
:102AC000002CBBD1AB46B2467E4A7F4953680B40CF
:102AD00053607B6D1B78002B00D1F6E500237A6DE7
:102AE0001370FEF763FF03F049F8BB6C1A687B6C48
:102AF0001B78002B04D1754B801A984200D8E7E26E
:102B0000FEF796FE00233A6B1370BA6B13707A6C63
:102B100013707B6F1B78002B00D14BE3FB6D1C788F
:102B2000002C00D009E603F029F8BB6C1B68C01A22
:102B3000664B984200D8ACE07B6C01341C703221AB
:102B4000FDF7E2FA8022624BD200044200D0B0E0EE
:102B50009A627B6F1B78022B00D0F3E55D4A1378F5
:102B6000D9B2002B00D050E15B4A13785BB2002B46
:102B700000DB68E1594B1A78002A00D080E3FB6D36
:102B80001B78012B00D0E0E59620C000FDF702FE87
:102B90007B6F1B78D6E57B6B1B78DCB2002B00D0FB
:102BA00060E1FB6A1B78002B00D037E2BB6E1B781C
:102BB000002B00D148E653461A685B461B689A42D0
:102BC00000D3CDE5802153465A46C9008C461B6888
:102BD000126863449B1A9BB2C8E5802100247B6E77
:102BE00001223B48C9001C7001F0BAFB8021002281
:102BF00049013B4801F0B4FB0A2002F0C5FF8021E7
:102C000001224901364801F0ABFB3C2002F0BCFF39
:102C100080210022C9002E4801F0A2FB314B1C602C
:102C2000FC6B2078FDF704FE2178182900D9F3E029
:102C30008B005B182C4A9B0099582C48FDF7C6FE68
:102C40002B4B1B78002B00D144E52A4B1B78012B22
:102C500000D1F4E22849022B00D0A9E2274B1B78CF
:102C6000052B00D9C5E1264A9B009A582548FDF757
:102C7000ADFE2FE502F082FF234B1B68C01A234BE9
:102C8000984200D8F3E500233A6D1370FEF758F927
:102C9000EDE51F4B984200D9D3E27B6F1B4A1B78AE
:102CA000904200D87BE201233A6B13708022084BDC
:102CB000D2009A6141E5C046D01A00205416002087
:102CC00040420F0000100240FFFFFFF00F270000FE
:102CD00000140048301600200000002031160020AB
:102CE000000800483C160020FC920008F488000808
:102CF000411600204016002010830008010000202B
:102D0000648C00087086000834160020B70B0000A1
:102D10006F17000062B64021D44801F01BFBD44B72
:102D20001870002800D166E172B6D24B1869C0B2A3
:102D3000FEF7AEFE01228021CC4801F011FB62B605
:102D400062B6BB6D1B78002B00D18BE56B463B62F6
:102D5000C94B80219C46E54402AB0022C34849018F
:102D60003B6401F0FDFA0A2002F00EFF00223B6CEA
:102D700016009846C14CC24D03E00136AE4200D168
:102D800032E3FEF7EBFB236830001B041B0C2360CF
:102D9000FEF7F2FA43469855FF28EED1B0463B2E97
:102DA00000D82FE385239B00444600269946B54969
:102DB0003D6C3966AE223B6E92009A584B46D35812
:102DC000002BFBD128003C213C3C04F0E5FA3C36CA
:102DD0003C353B2CEED8464500D253E27B6F1B7846
:102DE000002B00D136E20023BA6D13703B6A9D467A
:102DF00038E5002B00D0CEE4A34AA4495368A44888
:102E0000096803400B435360C5E400231370FEF7C9
:102E1000DBF97B6F1B7895E49E490EE75B461A68E9
:102E2000F1239B009A4200D2D9E45B4680211868C6
:102E30001B68C900C91A984B89B2C01804F0ACFAD3
:102E40005B461C60D7E4FF2310781370FEF72AFD61
:102E50007B6F1B78022B00D074E4FDF75DFE7B6F67
:102E60001B786FE4BB6A1B78002B00D100E3F96983
:102E7000B8690B880288894D894E9A426BD0894B7C
:102E800080249946884BE40298465B463B6453464F
:102E90003B624B46AA46B346894606007D693B66BF
:102EA0001BE02B68A34200D19CE053461B78002B0B
:102EB0000ED04B461A8833889A4232D34B461B8831
:102EC00032889B1A794A9BB2D31A9BB2FF2B36D811
:102ED0004B461A8833889A4238D05A4633889BB278
:102EE000D15C3388C9B201339B059B0D33802B68BD
:102EF000A342D6D22868431C2B60FEF781FA4346D2
:102F00002A681B689A42D0D329686948FDF75EFD9C
:102F100080224346D200944642461B6863441360B5
:102F2000C3E780214B46C9008C461B883288634426
:102F30009B1A5E4A9BB2D31A9BB2FF2BC8D904F0EE
:102F400057FA4B461A8833889A42C6D13B6C55468D
:102F50009B463B6A9A462B78002B00D046E1BB6A21
:102F60001B78002B01D1FFF7F0FBFB691A88BB69C6
:102F70001B889A4201D0FFF7E8FB02F0FFFD3B6996
:102F80001B68C01A632801D8FFF7DFFB494B1B7889
:102F9000002B07D080227B69D2021B680633934244
:102FA00000D8B6E280237869DB02026819009A42F1
:102FB00000D801684048FDF709FD404B1B78002B05
:102FC00000D0CCE23E48FDF7C1FC0023FA6A137042
:102FD0007A6B1370BA6A13707A68136004F008FA97
:102FE000FFF7B3FB386EFDF7B1FC2B6801332B60A4
:102FF0005BE7344A3AE620211C4801F0ABF9324B3A
:103000001870002800D1F4E0BB681B78002B00D1B9
:10301000ECE172B6F86800F0C9FD88E602F0AEFD9A
:103020003B691B68C01A632801D8FFF78EFB234A4F
:103030007D68264E12781F4B29681B78300000925D
:103040000022FEF7C9FAFB6A1C703B682C601C600A
:103050007B691C607B6B1C70FB691C80BB691C80DE
:10306000BB6A1C7004F0C4F9FFF76FFB000800484E
:103070005A1A0020000C004878ECFFFF00040048BA
:1030800088130000D01A00200010024044160020CF
:10309000FFFFFF8094820008541600206425002062
:1030A00020020020E489000804020020FF03000041
:1030B000CC89000803000020208A000804000020BA
:1030C000BC870008F4820008591A0020200600205E
:1030D000BB6B1B78002B00D092E0CF4B984200D9FD
:1030E0008EE03B6B1B78002B00D0E6E1CB4B984287
:1030F00000D9E2E17B6F1B78132800D802E5022B90
:1031000000D102E2012B00D16BE280210122C448F0
:10311000C90001F025F9802100224901C14801F0D0
:103120001FF90A2002F030FD802101224901BD482B
:1031300001F016F93C2002F027FD80210022C90091
:10314000B74801F00DF90022FC6BB74B20781A60EC
:10315000FDF76EFB2178182900D9D4E114224A43E7
:10316000B24BD158B248FDF731FCB24B1B78002B63
:1031700000D1C7E4B04B1B78012B00D12FE2AF493F
:10318000022B00D0AE49AF4BAF4A1B78052B02D8BB
:10319000AE4A9B009A58AE48FDF718FCB2E4022BE9
:1031A00001D0FFF7CFFA80229D4BD2009A61D5E47F
:1031B000A34953E5802100229948C90001F0D0F8C5
:1031C000ACE453465A461B6812689B1A9BB2FFF741
:1031D00028FB5B46186819689E4B691AC01889B2AB
:1031E00004F0DAF85B461D60FFF705FB04F000F918
:1031F000B5E6002280218B4801F0B2F8FFF72CFBE6
:10320000FDF72AFF7EE44A462B68D31A3C229346F8
:103210003B2B04D84A462B68D31A9BB29B468D4B56
:1032200028685946C01804F0B7F82B685B444B4532
:1032300002D22B685B449A4653462B6040E4864991
:103240000CE596200123BA6B80001370FDF7A2FAFB
:10325000FFF773FAFDF77CFF80210022C900714857
:1032600001F07EF80A2002F08FFC10216D4801F079
:1032700071F8002800D0C7E0012002F085FCB2E51B
:103280001970EAE5AE23852274499B00C958920063
:103290008B58002BFCD14346991B3B6C89B2981983
:1032A00004F07AF89AE5012500266D4C23682B433B
:1032B00023606A4B3B66B14214D0B0465E468B46F3
:1032C0002369AB43236104E0534632681B689A428A
:1032D0000FD123691D42F7D001239C46E044C3452A
:1032E000EED1B34601215E4A13688B431360FFF7AA
:1032F000F0FBAE233A6E9B00D258A43BD3589946BC
:10330000002BE6D153461B6832689A4213D23C2107
:10331000326889469A1A3B2A03D832689B1A9BB2B4
:1033200099464C4B30684946C01804F035F833686C
:103330004B443360CDE780223C213368D200D31A5E
:1033400039643B2B03D83368D21A93B23B64414BA8
:103350003068396CC01804F01FF8396C80228C4634
:103360003368D2006344934202D289463368994459
:103370004B463360ADE7002B01D0FFF765FA394AC1
:10338000394953683948096803400B435360FFF7D4
:103390005BFA2100FCF7B8FEFFF79CFA304A0133D4
:1033A00011680B431360FFF74FFA80223C2133680A
:1033B000D2008B46D31A3B2B03D83368D31A9BB267
:1033C0009B46244B30685946C01803F0E5FF802225
:1033D0003368D2005B44934202D233685B44984620
:1033E00043463360FFF70DFBB046DBE4FC6820008A
:1033F00000F04EFB0121200000F076FB0123BA68AB
:10340000137006E60026E6E4802101220548490102
:1034100000F0A6FF30E7C0466F170000B70B0000B2
:1034200000140048000800483C160020FC920008E8
:10343000F488000841160020401600201083000880
:103440000083000801000020F4820008648C00085A
:1034500070860008541600200C830008D01A002043
:10346000002C01400010024044160020FFFFFF80A6
:10347000802500247B48FDF769FAFEF76FF8FEF718
:1034800013F87948FDF762FA784E6D012000315D3E
:103490000134FDF7B5FFAC42F8D17B6974481C607C
:1034A0001968FDF793FAA022724B52011A600123AA
:1034B000BA6A137003F09CFFD9E4802101227B6F6C
:1034C0006D48C9001A7000F04BFF802100224901AD
:1034D0006A4800F045FF00237A68694813603A683B
:1034E00013607A691360FA6A13707A6B1370FA6961
:1034F0001380BA691380BA6A1370FDF727FA03F0D4
:1035000077FFFFF7FFFA5F492CE6FDF75DFEFFF757
:10351000F9FA7C695B212068431C2360FDF770FF8A
:1035200020682D21431C2360FDF76AFF20685D2180
:10353000431C2360FDF764FF20682B21431C23609C
:10354000FDF75EFF20685B21431C2360FDF758FFF9
:1035500020685D21431C2360FDF752FF22E54A48A5
:10356000FDF7F4F9802100224348C90000F0F8FE7D
:10357000FDF7EEFDFA239C229B00BA1813609C21F4
:103580007B181A687918531E0B60002AF7D10B00BC
:1035900080213A48C9001B6800F0E2FEFA23982215
:1035A0009B00BA1813609822BB181C68BA18631ED7
:1035B0001360002CF7D180211300490122002F480D
:1035C0001B6800F0CDFE0A2002F0DEFA8021012205
:1035D0002A48490100F0C4FE7B6F1C70F5E42B49BA
:1035E000D1E5802100222448C90000F0B9FEFDF792
:1035F000AFFDFA2394229B00BA18136094217B1824
:103600001A687918531E0B60002AF7D10B0080212D
:103610001A48C9001B6800F0A3FEFA2390229B0001
:10362000BA1813609022BB181C68BA18631E136086
:10363000002CF7D180211300490122000F481B689C
:1036400000F08EFE0A2002F09FFA802101220B4832
:10365000490100F085FE7B6F0D481C70FDF776F97F
:10366000FFF750FA78890008F0860008200600204D
:10367000CC8900080402002000140048000800481B
:103680000C89000894820008A08700080C830008B9
:10369000608900087047C046012200B50F4B83B017
:1036A0009969052011439961996940420A40802136
:1036B0000092009ADA6949050A43DA61DB6900225F
:1036C0000B4001930121019B00F006FB0220002228
:1036D0000121404200F000FB03B000BD0010024099
:1036E00010B5040088B01422002102A804F02CF9BF
:1036F000104B22689A4201D008B010BD80210E4BB9
:1037000089009A690D480A439A619A690A408021A2
:103710000092009A5A6909030A435A615B690122BF
:103720000B400193019B032302A90292039300F033
:1037300071FCE1E70024014000100240000800484D
:103740007047C046FEE7C0467047C0467047C04657
:1037500010B502F007FA10BD10B5022000F006FE09
:1037600010BDC0462C4B70B55B691B0732D52B4C86
:103770002378002B28D12A4A2A4953680B405360EA
:10378000C046C046284B294918690B68284D0133AB
:103790009B050E689A0D2B68C0B29E4229D30B6818
:1037A0002D685B1B9BB2FE25AD00AB4216D20B68A9
:1037B000204D0A60E8542378002B23D001211E4AB3
:1037C00013680B43136010E001211B4A13688B43FD
:1037D0001360D5E7082000F0C9FD70BD0B680A60D2
:1037E0000122144CE054154B1A7008220A4B5A61FE
:1037F000F3E78026F600B4460B682D6863445B1B34
:103800009BB2D0E7064A0E4953680E480968034048
:103810000B435360E9E7C046000401404216002014
:1038200000100240FFFFFFF000040048481600208F
:103830005016002054160020002C01404316002092
:1038400044160020FFFFFF8010B5024800F07EFE06
:1038500010BDC046882900200C490D4A0300521AA9
:103860000C4910B50868002804D0C318934206D844
:103870000B6010BD0848C31808609342F8D904F0E3
:103880007DF80C23036001204042F2E700040000B1
:1038900000400020A01A0020C82D00207047C0461C
:1038A000002370B5026882B001939168033304006D
:1038B0000B40012B31D09168204B194223D10121BB
:1038C00093680B4393601E4B1E491868FCF71CFC61
:1038D0000190019B002B05D0019B013B0193019BB3
:1038E000002BF9D102F04AF90126050004E002F0AC
:1038F00045F9401B022817D823681B681E42F6D0E2
:10390000002002B070BD1022A36B01201343A363FB
:10391000E36B0F3A1343E363F3E711680B42EFD114
:10392000D3681B04ECD4C6E71022A36B0120134319
:10393000A363E36B3343E363E3E7C0461700008010
:103940001000002040420F0070B5041E64D0836B4D
:10395000002B68D0A36BDB0660D4226893685B07FA
:103960005CD4A36B47490B400631FF310B43A36383
:10397000032391680B40012B5BD01821D3688B4344
:10398000A1680B43D360136961689B009B080B43DC
:103990001361D3683C490B40D360237E617E9B0357
:1039A000C9030B43A07EE1680B4341030B43242171
:1039B000615C49000B43A16A01394D1EA94109030D
:1039C0000B43216902394D42694189000B43E17E75
:1039D00001293ED0C220E169FF30814202D0206A35
:1039E00001430B43D168E56A1943D1608021490541
:1039F0008D4225D0691E062922D9D26823490A4062
:103A00009A422CD01222A36B9343023A1343A3632E
:103A1000E36B0F3A1343E363012070BD1022A36BE5
:103A20001343A363F8E73422C3638354FFF758FEBC
:103A300090E711680B42ACD1D3681B04A9D49CE772
:103A40000721506988435061506929400143516101
:103A5000D3E700280DD1802149020B43BAE70023A8
:103A60000322E363A36B00209343023A1343A3634F
:103A7000D3E72025A06B2843A063E06B0143E163FB
:103A8000A8E7C046FDFEFFFF1902FEFFE7FF3F83E8
:103A9000036810B59A680400520721D43422815C6F
:103AA00001291DD001218154427E012A12D1A16B2E
:103AB0000C4A00201140802252000A43A2633421A4
:103AC0000022E26362541C321A609A6830390A4359
:103AD0009A6010BDFFF7E4FE0028FAD12368E6E7FC
:103AE0000220F6E7FEF0FFFFF8B5446905000E007E
:103AF000082C04D003680C24DB68DB0741D402F0F7
:103B00003DF807002A6813681C4204D1731C25D1B4
:103B100013682342FCD08023A96B9B000B43AB634B
:103B2000C023D1681B01194213D1AB7E002B10D1E9
:103B300013681B070DD593685B072BD40C215368C2
:103B40008B435360AB6B18490B400431FF310B437F
:103B5000AB632B7E002B11D00020F8BD002E04D0CB
:103B600002F00CF8C01BB042CCD90422AB6B03208E
:103B70001343AB6300223423EA54EEE70C231360B3
:103B8000EAE72022836B1343836300223423C25469
:103B90000120E2E72021AB6B0B43AB63EB6B1F39DA
:103BA0000B43EB63D5E7C046FEFEFFFF0368186CCE
:103BB0007047C0460023F0B583B001933433C25C34
:103BC0000400C56A012A59D00122C25403689868CA
:103BD000400709D520220120A36B1343A36334239C
:103BE0000022E25403B0F0BD10267642B4460868C5
:103BF000324E4F6882408444B74227D09E6A324397
:103C00009A62072D1FD98022520595420CD00722B7
:103C10008D68596911408D4206D0596991435961A7
:103C200059692A400A435A616346022B09D8244B3A
:103C300080211A68102825D011283AD049040A4357
:103C40001A600020CBE7002DEED1E0E7996A91439E
:103C500099626346022BF4D8194B1B6810280FD0C9
:103C60001138421E9041174A40421040164A94466D
:103C700060441840124B18600020B0E70220B1E702
:103C80001248F6E709040A431A60114B11491868F3
:103C9000FCF73AFA83001B185B000193019B002B91
:103CA000CFD0019B013B0193019B002BF9D1002058
:103CB00095E7C9030A4300201A6090E7011000004D
:103CC00008270140000040FFFFFFBFFFFFFF7FFF0D
:103CD0001000002040420F00FF22032310B5140003
:103CE0000340DB009C4089010A40E4439A400028DD
:103CF0000BDB0C4BC0219C4680088000604489008F
:103D0000435823401343435010BD0F23064903403B
:103D10008C46083B9B089B006344D9690C401443C4
:103D2000DC61F1E700E100E000ED00E0002805DBE8
:103D30001F22012302409340014A13607047C0468E
:103D400000E100E000280ADB1F220123024093402B
:103D5000802203498B50BFF34F8FBFF36F8F7047A3
:103D600000E100E08022431E5204012093420ED263
:103D7000C021074A07485360036A09061B021B0A51
:103D80000B430362002300209360073313607047E6
:103D900010E000E000ED00E0F0B546464F46D646A4
:103DA000C0B52F4F06003B7E8846012B56D001231D
:103DB0003B7603682B48012B33D000F095F80028A0
:103DC00033D1012342465B421360B3687568DB025E
:103DD0005B199D4229D20023234C994609E0802398
:103DE0001B019C46B3687268DB0265449B18AB42BA
:103DF0001CD902224B469246FB61236919481343A2
:103E00002361656123693E321343236100F06CF83E
:103E100052462369934323610028E0D043461D6046
:103E200004E000F061F8002807D0012000233B7671
:103E3000E0BCBA46B146A846F0BD042540220A4C73
:103E4000F861236907482B432361236913432361E6
:103E500000F04AF82369AB432361E7E70220E7E774
:103E6000A81A002050C300000020024010210D4B72
:103E700010B5DA680B001340114205D00A4A0E391A
:103E8000D3690B43D3611023064AD16804220A4246
:103E900005D0012404481343C1692143C161014A8B
:103EA000D36010BD00200240A81A0020064B00205D
:103EB0001A69120606D5054A5A60054A5A601869F9
:103EC0000006C00F7047C04600200240230167452E
:103ED000AB89EFCD8021034A002013690B431361A6
:103EE0007047C04600200240F8B5040001F046FECD
:103EF00001260500154FFB681E4206D0631C12D137
:103F000001221249CB681A42FCD120220F4BD968FA
:103F10000A4211D10D4AD368DB0612D4D3680020BF
:103F20005B070ED4F8BD002C04D001F027FE401B27
:103F3000A042E0D90320F5E7DA60044AD368DB0643
:103F4000ECD5FFF793FF0120ECE7C04600200240CC
:103F5000F0B54E465746DE464546E0B59A4683B034
:103F6000294B019299461B7E04000E00012B46D07E
:103F700001234A4625481376FFF7B6FF002834D1BF
:103F8000012C3ED0023C631E9C41630098460223F4
:103F90009C46E044002300259B4618E05346D3404E
:103FA0004A46594601271A4CD16122699BB23A43CD
:103FB000226116483380FFF797FF2369BB432361D3
:103FC000002812D10135EBB2023698450DD92B01EC
:103FD0001A00203AE2D520225146D21A91400A0016
:103FE0000199D9400B001343DAE700234A461376C0
:103FF00003B0F0BCBB46B246A946A046F0BD0220C5
:10400000F6E701239846C5E7A81A002050C3000030
:1040100000200240F0B54546DE4657464E46E0B524
:104020000D68002385B0002D7BD0794A009192461F
:1040300001212A0099400A4091460D426DD0009F0F
:1040400010247A681700A7435C00A4460324664640
:104050000197009FB440BE686746BE40B046019ECF
:10406000E443013E012E63D94646C16821403143F5
:10407000C16001680C4003211140B9402143016037
:10408000802149050A4248D0514601245646896993
:1040900003272143B161B1690F2621405D4C1F40C8
:1040A000A446BF00BE40039103999908890061446A
:1040B0008C68B4439026F605B04212D0564EB042FA
:1040C00000D198E0554EB04200D198E0544EB04235
:1040D00000D18CE0534EB04200D194E00526BE40A2
:1040E00034438C604C465049E4430968D70366D496
:1040F0004D4F214039607968970367D44A4F21407A
:104100007960B968D70268D4474F2140B960F9682F
:10411000920269D40C404449CC602A000133DA4051
:1041200086D105B0F0BCBB46B246A946A046F0BD5C
:1041300086682640B346009EF668BE40B1465E469D
:104140004F463E43866046688E431109994031438D
:1041500046464160C16821403143C160019902294E
:104160000DD0016801330C4003210A4061468A40AA
:10417000224302602A00DA4000D059E7D1E707263F
:104180001E40B600B1460F264F46BE40DA089200E8
:104190008218116A0133B1438846009E3169464650
:1041A000B940314311620168019A21406446A2403E
:1041B0000A4302602A00DA4000D039E7B1E74E46F0
:1041C000194F314339607968970397D54E46164F9A
:1041D00031437960B968D70296D54E46124F3143C4
:1041E000B960F968920295D54C460C4393E70326D3
:1041F000BE40344375E70126BE40344371E70226D2
:10420000BE4034436DE70426BE40344369E7C046F0
:10421000001002400000014000040048000800486F
:10422000000C00480010004800040140F0B5DE46D4
:1042300057464E464546E0B5002383B0002965D079
:1042400001229146023293463C4A944644E03C4C5B
:10425000A04262D03B4CA04263D03B4CA04264D011
:104260003A4CA04265D00524AC402500AE4211D1A5
:1042700064462568019EBD4325606568BD43656051
:10428000A568BD43A560E568BD43E5604446B568E3
:10429000A543B5605E465D00AE4004683500B4439A
:1042A0000460DC08A4000419266A0727B0460F261C
:1042B0001F40BF00BE4037004646BE432662C4686A
:1042C000AC43C4604468944344608268AA438260FB
:1042D0000A000133DA4019D04A460F009A401740CD
:1042E0001142F5D01A4D9C08A846A4005D464444EE
:1042F000A66801940F241D40AD00AC40A0462640A6
:104300009024E405A042A2D10025AFE703B0F0BCA1
:10431000BB46B246A946A046F0BD4C46AC4025007F
:10432000A4E70224AC402500A0E75C46AC40250091
:104330009CE70424AC40250098E7C04600040140F7
:104340000004004800080048000C00480010004825
:104350000000014000690840431E9841C0B2704708
:10436000002A01D0816170478162FCE7044B10B5DF
:104370005A69104200D110BD5861FCF747FAFAE7BC
:104380000004014010B50C060ED507242140013170
:104390008C006118C900401899B2002A0DD1002381
:1043A000C1800373002010BD8C006118C900693101
:1043B000FF31401899B2002AF1D083600123F0E761
:1043C000BA2301219B000268C1500021083BC1545F
:1043D00054230120D15A0143D152D15A0130014313
:1043E000D15200207047C0467047C046F0B5C6465F
:1043F00000B5040086B0002862D0324BC35CDAB24C
:10440000002B53D003222F4BE254206801F0D8FB3D
:10441000616800292FD029239C46023300220127FE
:10442000282698460020654693009B18DB00E31879
:104430005F5545469A55DA860132D2B2585598638F
:10444000D86318648A42EED30022002093009B18A0
:10445000DB00E3181D006A35FF352870013D2A7026
:1044600081330132E870FF33D2B2103528606860C2
:1044700018608A42EAD323006A461033206862CB70
:1044800062C222CB22C2A268E368616801F0A2FB8B
:1044900024230022E2540B4B0132E254E369012B46
:1044A0000AD0002006B080BCB846F0BDAA239B000D
:1044B000C25403F037F8A5E72000FFF781FFF0E7CB
:1044C0000120EFE7A902000070B5041E07D0032306
:1044D000074E8355006802F07FF8051E02D00125C3
:1044E000280070BD200003F03DF8A555F8E7C04650
:1044F000A902000070B5AA25AD00435D0400012BA0
:104500000BD001234355006801F050FB206802F0F6
:1045100075F800230020635570BD0220FCE7C046FB
:1045200070B5AA25AD00435D0400012B0BD001231B
:104530004355006801F044FB206802F067F800234F
:104540000020635570BD0220FCE7C046F0B5DE4692
:1045500057464E464546E0B5040087B0006802F075
:104560005DF8000400D5C5E023689B46584602F07C
:1045700055F8400500D5A3E0206802F04FF840044C
:1045800000D584E0206802F049F8800400D577E087
:10459000206802F043F8C00442D4206802F03EF8DC
:1045A00000055AD4206802F039F88022024220D057
:1045B00044202368195A9143B82219529200A15CF1
:1045C000002900D06AE004254031585A2843585247
:1045D000585A0435284358523F39A15454229A5A04
:1045E0003C2392081340B92292002000A350FFF709
:1045F000FBFE206802F012F8800557D4206802F014
:104600000DF8C00505D544222168D0488B5A0340D7
:104610008B5207B0F0BCBB46B246A946A046F0BDDF
:10462000402304202268D15A8143D152D15A043008
:104630008143D152B8239B00E25C012A00D158E2A9
:10464000200002F0F5FF44222068C149835A0B4044
:10465000835201F0E3FF0005A4D54022082023681F
:10466000BC4D995A014399523C30195A294019526C
:10467000995A403801439952200002F0C7FF91E750
:1046800044222068B449835A0B40835281E7442274
:104690002068B249835A0B40835274E7200002F02D
:1046A000B5FF206801F0BAFF8005A7D54422216834
:1046B000AB488B5A03408B52200002F08DFF9DE7E0
:1046C0004422AA252168A7488B5AAD0003408B528B
:1046D000200002F089FF635D012B00D14CE701232C
:1046E000002663552333E6540021206801F07EFF45
:1046F000665541E744232068C35A83461BB2002B0A
:1047000000DB33E744239A46353B994653464E46F1
:104710004946C35A9AB21E40194257D10388D2065D
:1047200000D4DEE09AB21B0500D529E112B2002ABE
:1047300006DB03005246825A12B2002AE6DB14E777
:104740000388894A250013408022134303805023A5
:10475000C25A1933FF33E35C6935DB00C3189B1879
:10476000824AFF35944663441B889B059B0DEB6191
:104770000ED0696900290BD0EA8801F06BFF6B69E4
:10478000EA6920009B1800216B6102F00BFF206892
:104790005022815A754A030082185218296900294B
:1047A00000D18BE13E2900D9BDE101264D08314001
:1047B0006D18AD02ADB2158001886D4A1140C0225E
:1047C00092014A406B490A430280B3E7B50042199F
:1047D000138899B21BB28846002B3BDB80224146EE
:1047E00003000A42A6D041190A88634F3A40802745
:1047F0003F023A430A802B22AF19FF00E719BA5C47
:10480000022A00D10DE15023C35AAD199C4628233A
:10481000F95C5A4FCB006344BC46C318ED006344B7
:104820001B8865192A6C9B059B0D9A4200D885E070
:10483000D21A2A64EA6B0136D218EA63B1006A6CB4
:104840008919D318C9006B64611801F093FB2068C3
:1048500003006FE7138844490B4080210B4313800A
:10486000AB19DB00E3181A007532FF321278002A08
:1048700000D0A9E05032815A1A006932FF32127812
:10488000D2005218394982188C4662441288920527
:10489000970D002A00D033E10027A919C900631839
:1048A00018008530FF3002680838D219826002682B
:1048B000D21902601A008132FF321268002A05D034
:1048C0007933FF331B68BB4200D824E1AB19DB000E
:1048D000E3186933FF332000197802F063FE206883
:1048E0007CE7254A002113408022120213430380F3
:1048F0005023C25A283BE35CDB00C3189B181F4AB5
:104900002000944663441B88E26B9B059B0D636407
:10491000D318E36302F054FE2422A35C2068002B2A
:1049200000D106E7216C0300002900D002E78026B1
:10493000A55C3543343E8553A154FBE6002320009B
:104940002B6402F03DFE2068F3E6C046FFFEFFFF49
:10495000FFEFFFFFFFF7FFFFFFDFFFFFFFBFFFFFDF
:10496000FFFDFFFFFFFBFFFF8F0F000006040000AD
:104970008FBFFFFF808000000F8FFFFF0204000049
:104980005023C25A1933FF33E35CAC21DB00C31858
:104990009B18C04A89009446220063441B886932F0
:1049A0009B059B0DFF32D3616118D28801F052FE46
:1049B0002268B949138820000B4080210B431380E3
:1049C00002F0E6FD2068B4E61F0019006C37FF37DF
:1049D00069313F78FF310A78022F00D1AFE09200B1
:1049E000934683445A46AD4F12883A40AC4F3A43FF
:1049F0005F463A800A78910041180988490467D5D2
:104A00005021415AD2005218A64982188C4662445D
:104A100012889205970D002A00D13DE71A007132E5
:104A200070E04246D20500D4EDE62822BA5C40216F
:104A30009346D20000923A6C029242460A40039298
:104A400080224146D2010A40019240220A4200D00F
:104A5000C5E0904A5021944684446246415A0592EA
:104A6000009A6144895A89058A0D029904928A4202
:104A700000D827E1039B3B642000594602F0A0FDCB
:104A8000019B2068002B00D072E128220300BA5C51
:104A9000824D9200821811882940834D294311804C
:104AA0002822BA5C81499200821815880D40302175
:104AB0004D407F49294389B211803BE611887D4DE5
:104AC00029408025118011882D022943118073E629
:104AD0005021415AD20052186E4982188C466244C5
:104AE00012889205970D002A00D1D5E61A0073327C
:104AF00008E0002200212000E254FFF775FC9FE54A
:104B00001A006F327D33FF33FF32196812883B0081
:104B100001F0A0FDC1E66931FF312068611801F0A4
:104B200029FA20685AE61F264D0931404E4271414C
:104B30006D1A6149AD02294389B211803CE6D1006A
:104B40008B46C02149008C4680214746C9010F4051
:104B50009C446346009747461B680F425AD0502139
:104B6000504F415A5944BB46411859440988890558
:104B7000890D0F000091994200D94FE15B1A6146FF
:104B80000B600DD193009C46844463464B491B88BF
:104B9000194080239B014B4049490B4361460B80E0
:104BA00043465B0607D59200821813883B490B40A9
:104BB0003B490B431380009B002B00D16DE6AB19E2
:104BC000DB00E3181A007D33FF331B6871329C460B
:104BD000FF3261461288009B01F03CFD5DE6314AE0
:104BE00050219446415A009A84446144895A029A59
:104BF0008905890D0391914200D2BBE000235946FB
:104C00003B64200002F0DCFC019B002B00D1AEE0F5
:104C100020683AE750211F4F415A5944BB4641187A
:104C2000594409888905890D0F000191994200D9DD
:104C3000F8E05B1A61460B600DD193009C468444FA
:104C400063461E491B88194080239B014B401C4929
:104C50000B4361460B8043465B0607D492008218E3
:104C600013880E490B400E490B431380019B002B08
:104C700000D112E6AB19DB00E3181A007D33FF33D5
:104C80001B6873329C46FF3261461288019B01F01B
:104C9000E1FC02E6060400008F0F00008F8FFFFF8B
:104CA000C08000000204000080C00000BF8FFFFF32
:104CB0008080FFFFFF83FFFF0080FFFF8FBFFFFFAC
:104CC000808000008A1A3A6400D1D5E6019A002A51
:104CD0000DD15A469200944684446246128890460A
:104CE0004146984A0A4098490A4361460A804C2145
:104CF0008C46AA19D200A218944461460978012969
:104D000000D0CDE6D36B04999B468846C3445B46EE
:104D1000D363536C916B43445364936C88468B42CA
:104D200000D294E05B1A93642923FA5C002A00D035
:104D30007DE02733C25A059B9C46009B62449C46FB
:104D4000434662440092002B00D0AEE013887F49B6
:104D50000B4080211380138809020B431380AB1989
:104D6000DB00E3185A8E5946039B01F05BFC206878
:104D7000030095E6521A3A64019A002A0DD05A4669
:104D800092009046804442461288934659466D4AA6
:104D90000A406D490A4341460A804C218846AA19B7
:104DA000D200A218904441460978012900D077E644
:104DB0000399D36B8B460193019B916B5B440293E8
:104DC000D363536C5B445364936C8B4601938B4267
:104DD00052D35B1A93642923FA5C002A40D127330B
:104DE000C25A009B62449C465B4662440092002B80
:104DF00000D0A5E0138855490B408021138013880B
:104E000009020B4313800023AA19D200A218128EA4
:104E1000029901F007FC2068030041E60023614687
:104E20000B60AFE663460099196006E79846434673
:104E30009BB20393012A92D1059A50239446C35AF8
:104E4000009A63449446039A63441A8087E7002BD0
:104E50001AD162461370049B984665E7019B9B46F6
:104E60005B469BB2012ACFD14F32825A00996244ED
:104E70008C4662441380C7E7019B002B23D1424636
:104E80001370039B9B46A6E7002191646246117054
:104E90002922BA5C002AC9D1059950328C46825A1F
:104EA000009962448C46624400923E2B2BD801222A
:104EB0001A409446590861448902009A89B29BB20B
:104EC000118003934BE70021434619709164292216
:104ED000BA5C002AC2D15032825A009B62449C467E
:104EE000130063440093019B3E2B17D859080123FC
:104EF0001A00019B1A4094466144009A890289B2C3
:104F000011809BB280E71F221A4011004A424A4199
:104F100059098A1A0E4992021143CEE7019B590999
:104F20001F231A00019B1A4053425341C91A8B0296
:104F30000749009A19436B4689B29B88118063E741
:104F40000193D0E78F8FFFFF80C00000FF83FFFF3A
:104F50000080FFFF70B5AA25AD00435D0400012B62
:104F60000AD0012343552333C154006801F03EFBAE
:104F700000230020635570BD0220FCE770B50725B3
:104F80000D4049B20400002924DBA8004019C000EC
:104F900001000026201869316A30FF31FF306118A6
:104FA00006700A614A780D70CB70002A00D0CD815E
:104FB000022B01D100230B71AA25AD00635D012BEB
:104FC00010D001236355206800F014FE0023002058
:104FD000635570BD681C810009180120C900611863
:104FE0004870DEE70220F4E707220A4049B270B5B4
:104FF000040000291ADB93009B18DB0019006931BB
:10500000FF314118C318AA2500206A33FF331870F6
:10501000AD000A70635D012B15D001236355206834
:1050200000F022FF00230020635570BD531C99003F
:10503000C918AA250123C90041184B700A70AD0098
:10504000635D012BE9D10220EFE7C04670B507246C
:1050500021408C006418E40005192E007D36FF36CF
:1050600032602A008132FF321360002369356934CF
:105070005360FF35173AFF34137029700119006827
:1050800000F078FF002070BD07230B409900C9187D
:10509000C90040188530FF300068704770B507249C
:1050A00021408C006418E40004192500E263012209
:1050B0004C3523642A70A364002363642933E254CB
:1050C000013BE15401318B005918C90041180068B7
:1050D00000F050FF002070BD0723426870B50B4000
:1050E000040093422FD84AB2002A1BDB8A005218D0
:1050F000D20011006931FF314118821800206A3254
:10510000FF321070AA2501220B708A70AD00635D1A
:10511000012B16D06255206801F0FAF90023002017
:10512000635570BD5A1C910089180122C9004118AD
:105130004A70AA2501220B708A70AD00635D012BB5
:10514000E8D10220EDE70120EBE7C0460F234268DB
:1051500070B50B400400934231D807220A4049B28F
:1051600000291BDB93009B18DB0019006931FF311C
:105170004118C31800260020AA256A33FF3318708F
:10518000AD008E700A70635D012B16D0012363554C
:10519000206801F0E1F90020665570BD531C9900AC
:1051A000C91800260123AA25C90041184B708E702A
:1051B0000A70AD00635D012BE8D10220EDE701200C
:1051C000EBE7C046F0B5CE46474680B5036804001D
:1051D00083B0DA0330D580224E4B5205D9690027BF
:1051E00011425DD080264C4D76002B68334265D04D
:1051F000484DC0232A6A9B001000616818401A427B
:1052000011D00B4083420ED080202B6A2E6A4002C0
:1052100030432862286A414A414E1A403040286291
:105220002A62DB0762D43B4A3C48136A03400B43C3
:105230001362012F54D02368DA0706D503203549BD
:105240000A6B8243A06802430A639A0706D5314974
:1052500034480A6B0240E06802430A639A0606D5A6
:1052600010202C490A6B8243206902430A639A0387
:1052700006D5802027490A6B8243A06902430A634E
:105280005B0505D4002003B0C0BCB946B046F0BDF4
:105290004021204A136B8B4361690B431363F1E791
:1052A0008026D9691C4D1143D961DB697600134012
:1052B0000193019B2B680137334299D12B6833430B
:1052C0002B6000F05BFC80462B68334200D08FE7F8
:1052D00000F054FC4346C01A6428F5D90320D2E7F5
:1052E000D36911490B40D3612368A5E700F046FC60
:1052F000022398460D4B0600994604E000F03EFC60
:10530000801B4845EAD842462B6A1A42F6D06168AB
:1053100089E7C0460010024000700040FFFCFFFF1C
:10532000FFFFFEFFFFFFFCFFFFFFFFEF8813000002
:105330008022104B120519690A431A611A690E4935
:105340000A401A6142680368134382681343C268C3
:105350001343026912041A43084B5A6019684269E0
:105360000748120201400A4360211A601A680A4382
:105370001A60704700100240FFFFFFF7006C00400A
:10538000FFC0FFFFF0B5CE46474680B5040083B0AE
:10539000002800D113E10368DA072FD50C21C54896
:1053A00042680A40042A00D12BE1426811400829D2
:1053B00000D11DE16368012B00D12CE1002B00D14D
:1053C0004EE1052B00D179E2BA4BBB491A680A407D
:1053D0001A601A68B9490A401A6000F0CFFB8026AB
:1053E0000500B44FB60205E000F0C8FB401B64287E
:1053F00000D933E13B683342F6D023689A0729D5B8
:105400000C22AC494868024200D1D1E04868024011
:10541000082A00D1C3E0E368A64D002B00D163E168
:1054200001222B68022713432B6000F0A7FB060024
:1054300005E000F0A3FB801B022800D90EE12B68D9
:105440001F42F6D0F8212A6823698A43DB00134300
:105450002B6023681A072DD45A0745D580220020D7
:10546000944B5205D9698146114208D1D96911433B
:10547000D961DB6913400193019B01239946802781
:105480008F4E7F0033683B4200D1CBE0A368012BF5
:1054900000D13CE1002B00D1FBE0052B00D1C9E19C
:1054A0000121844B1A6A8A431A621A6A03318A43B9
:1054B0001A6230E1E3697F4D002B00D185E00122C3
:1054C0006B6A022713436B6200F058FB060005E08D
:1054D00000F054FB801B022800D9BFE06B6A1F421A
:1054E000F6D023685A07B9D4DA0612D56269012AC0
:1054F00000D1C4E1053200D01FE10420F8256D4938
:105500004A6B82434A63486BA269A843D2000243B4
:105510004A639B0622D50C2266494B6813400C2B2C
:1055200000D12AE14B681A40082A00D11EE1236A03
:10553000604D002B00D12AE180276B6B7F023B433B
:105540006B6300F01BFB060005E000F017FB801BFF
:10555000022800D982E06B6B3B42F6D0636A002BD5
:105560001BD00C22534D69680A40082A00D16BE118
:10557000022B00D126E12B68524A802613402B6073
:1055800000F0FCFAB604040004E000F0F7FA001B97
:10559000022863D82B683342F7D1002010E04A6814
:1055A000C02149020A40802109028A4200D032E724
:1055B000404A1268920745D5E268012A42D001208C
:1055C00003B0C0BCB946B046F0BD01226B6A0227E9
:1055D00093436B6200F0D2FA060004E000F0CEFACA
:1055E000801B02283AD86B6A1F42F7D1236879E7FB
:1055F000C021426849020A40802149028A4200D003
:10560000D8E62C4A1268920300D4F7E66268002AB2
:1056100000D0F3E6D3E78023264A5B0211680B43F0
:105620001360DAE633683B43336000F0A7FA050005
:1056300004E000F0A3FA401B64280FD833683B4213
:10564000F7D023E7F8251B4822690168D200A94357
:105650000A4302601A0700D4FEE62BE70320AFE7F7
:10566000144D154A2B68802713402B602B68134A72
:10567000BF0213402B6000F081FA060004E000F046
:105680007DFA801B6428E9D82B683B42F7D1236858
:10569000B4E60122074E0C4D336A93433362336AFA
:1056A00003329343336200F069FA022307009846FD
:1056B00011E0C04600100240FFFFFEFFFFFFFBFFAE
:1056C00000700040FFFFFFFE8813000000F056FA54
:1056D000C01BA842C2D84246336A1A42F6D14B4692
:1056E000012B68D02368FFE601222B680227934331
:1056F0002B6000F043FA060004E000F03FFA801B44
:105700000228ABD82B681F42F7D12368A2E6714963
:105710000A6A13430B6200F031FA6E4B060098469A
:1057200002276D4D04E000F029FA801BA84295D8AD
:1057300043461B6A1F42F6D0D1E70422654D02277B
:105740006B6B13436B636B6B033A93436B6300F0B8
:1057500015FA060005E000F011FA801B022800D9B6
:105760007CE76B6B1F42F6D12368D2E6C0224B6800
:1057700052021340934200D0D9E6564B5B6BDB03D9
:1057800000D4EBE6236A012B00D018E7E6E66B6B4A
:10579000524A802713406B6300F0F0F97F02060045
:1057A00005E000F0EBF9801B022800D956E76B6B8F
:1057B0003B42F6D1D2E6474A4949D3690B40D3610F
:1057C000236891E62B68474A802713402B6000F03E
:1057D000D5F9BF04060005E000F0D0F9801B0228CF
:1057E00000D93BE72B683B42F6D10F22EB6A394EDA
:1057F0009343226B1343EB62A16AE36A6A680B432B
:1058000039490A4013436B6080232A685B041343C1
:105810002B6000F0B3F980250400AD0405E000F032
:10582000ADF9001B022800D918E733682B42F6D0E7
:105830000020C5E60421274B1A6A0A431A621A6A35
:1058400003390A431A6266E7012B00D1B7E6C0228A
:105850006B68A16A5202E86A1A408A4200D0AEE63A
:105860000F22216B02408A4200D0A8E6F022E06AB3
:1058700092031340181A431E9841C0B2A0E60421B7
:10588000144D02276B6B0B436B636B6B13436B63A2
:1058900000F074F9060005E000F070F9801B0228A2
:1058A00000D9DBE66B6B1F42F6D0F8216A6BA36967
:1058B0008A43DB0013436B6323682AE68022054B8F
:1058C000D20219680A431A608022196852020A43F8
:1058D0001A6082E50010024088130000FFFFFEFFFF
:1058E000FFFFFFEFFFFFFFFEFF7FC2FF70B5160057
:1058F0008022022388B052000292039300220323E5
:10590000049205930023802290200B4C0693636938
:1059100092021343636163690D001340019302A96E
:10592000C005019BFEF776FB6168044B19403143CB
:105930002943616008B070BD00100240FFFFFF8086
:1059400070B588B069460A001B4B31CB31C21B6869
:10595000136004AA1000194B70CB70C01B68184D5F
:1059600003600C206B68184008280AD00C384342AA
:105970005841144B40421840134B9C46604408B0B9
:1059800070BD0F209C0C04400C5DE96A0840115C5E
:10599000C0228020520213404002834201D0934231
:1059A00004D00948FAF7B0FB6043E8E70748FAF784
:1059B000ABFB6043E3E7C0464C8B0008608B0008FC
:1059C00000100240005A620200127A00006CDC02F1
:1059D000F8B5CE46474604000D0080B500280DD02E
:1059E00001233F490A681A40AA420CD20A689A4326
:1059F0002A430A600A681340AB4204D00120C0BCAD
:105A0000B946B046F8BD23689A070ED55A0705D5A2
:105A1000E0223449D200486802434A60F02031490C
:105A20004A688243A06802434A60DB0724D5626863
:105A30002C4B012A4AD0022A44D0032A4CD01B689E
:105A40009B07DBD50321274E73688B431343736099
:105A500000F094F80C239846234B0700994604E085
:105A600000F08CF8C01B484534D8434672681A4091
:105A700063689B009A42F3D10121194A13680B40D5
:105A8000AB4205D913688B43136013681942B5D133
:105A900023685B0706D5134A144953680B40E16835
:105AA0000B435360FFF74CFF0E4B114A5B681149E3
:105AB0001B061B0FD35CD8400860012000F01CF8C7
:105AC00000209CE71B689B01BCD497E71B689B03E5
:105AD000B8D493E7032092E75B6BDB03B2D48DE786
