:020000040800F2
:1000000000400020A1060008955E0008995E0008E7
:1000100000000000000000000000000000000000E0
:100020000000000000000000000000009D5E0008CD
:100030000000000000000000A15E0008A55E0008AE
:100040004907000849070008490700084907000850
:1000500049070008AD5E0008B95E000849070008BE
:100060004907000849070008490700084907000830
:100070004907000849070008490700084907000820
:100080004907000849070008490700084907000810
:100090004907000849070008490700084907000800
:1000A00049070008490700084907000849070008F0
:1000B0004907000849070008490700089D5F000834
:1000C00010B5064C2378002B07D1054B002B02D02E
:1000D000044800E000BF0123237010BDE8010020A8
:1000E00000000000E0A90008044B10B5002B03D06D
:1000F0000349044800E000BF10BDC04600000000F6
:10010000EC010020E0A90008002243088B4274D3D0
:1001100003098B425FD3030A8B4244D3030B8B4208
:1001200028D3030C8B420DD3FF22090212BA030C11
:100130008B4202D31212090265D0030B8B4219D3F2
:1001400000E0090AC30B8B4201D3CB03C01A524112
:10015000830B8B4201D38B03C01A5241430B8B425A
:1001600001D34B03C01A5241030B8B4201D30B0343
:10017000C01A5241C30A8B4201D3CB02C01A52416A
:10018000830A8B4201D38B02C01A5241430A8B422D
:1001900001D34B02C01A5241030A8B4201D30B0216
:1001A000C01A5241CDD2C3098B4201D3CB01C01A30
:1001B000524183098B4201D38B01C01A524143093A
:1001C0008B4201D34B01C01A524103098B4201D328
:1001D0000B01C01A5241C3088B4201D3CB00C01A95
:1001E000524183088B4201D38B00C01A524143080D
:1001F0008B4201D34B00C01A5241411A00D2014632
:10020000524110467047FFE701B5002000F0F0F8BA
:1002100002BDC0460029F7D076E7704703460B437E
:100220007FD4002243088B4274D303098B425FD3EF
:10023000030A8B4244D3030B8B4228D3030C8B421B
:100240000DD3FF22090212BA030C8B4202D3121201
:10025000090265D0030B8B4219D300E0090AC30BD6
:100260008B4201D3CB03C01A5241830B8B4201D383
:100270008B03C01A5241430B8B4201D34B03C01A6C
:100280005241030B8B4201D30B03C01A5241C30AE4
:100290008B4201D3CB02C01A5241830A8B4201D355
:1002A0008B02C01A5241430A8B4201D34B02C01A3F
:1002B0005241030A8B4201D30B02C01A5241CDD2E4
:1002C000C3098B4201D3CB01C01A524183098B422F
:1002D00001D38B01C01A524143098B4201D34B0118
:1002E000C01A524103098B4201D30B01C01A52417B
:1002F000C3088B4201D3CB00C01A524183088B4202
:1003000001D38B00C01A524143088B4201D34B00EA
:10031000C01A5241411A00D201465241104670475C
:100320005DE0CA0F00D04942031000D34042534061
:1003300000229C4603098B422DD3030A8B4212D321
:10034000FC22890112BA030A8B420CD38901921153
:100350008B4208D3890192118B4204D389013AD090
:10036000921100E08909C3098B4201D3CB01C01A65
:10037000524183098B4201D38B01C01A5241430978
:100380008B4201D34B01C01A524103098B4201D366
:100390000B01C01A5241C3088B4201D3CB00C01AD3
:1003A000524183088B4201D38B00C01A5241D9D2EB
:1003B00043088B4201D34B00C01A5241411A00D26C
:1003C0000146634652415B10104601D34042002B68
:1003D00000D54942704763465B1000D3404201B5E7
:1003E000002000F005F802BD0029F8D016E770479C
:1003F0007047C046002B11D1002A0FD1002900D12F
:10040000002802D00021C943080007B4024802A115
:100410004018029003BDC046D9FFFFFF03B46846F1
:1004200001B5029800F034F8019B9E4602B00CBC66
:100430007047C046F0B5CE469946030C9C4613045F
:1004400047461B0C1D000E0061460404240C80B5B9
:100450000700100C4B436543414360432C0CC0180C
:1004600024188C46A34203D980235B029846C444D7
:10047000494679435643230C2D042D0C89196344B6
:1004800024046019C918C0BCB946B046F0BDC046C6
:10049000F0B557464E464546DE46E0B504000D0031
:1004A0009246994683B08B4230D82DD0494650466B
:1004B00000F0BAF829000600200000F0B5F8331A61
:1004C0009846203B34D49B4653465A469340424676
:1004D0001F00534693401E00AF423BD8AF4200D1AD
:1004E00079E05B46A41BBD41002B00DA76E00022D8
:1004F00000230092019301235A4693400193012364
:1005000042469340009329E08242CFD90022002343
:10051000009201930C9B002B01D01C605D60009841
:10052000019903B0F0BCBB46B246A946A046F0BD57
:1005300042469B4620239B1A5246DA40414613000E
:100540004A468A40170042461F43534693401E00C6
:10055000AF42C3D900220023009201934346002BEF
:10056000D8D0FB0772081A4346467B080EE0AB4220
:1005700001D1A2420CD8A41A9D41012024196D4139
:100580000021013E24184D41002E06D0AB42EED989
:10059000013E24196D41002EF8D1009801995B4667
:1005A00000196941002B24DB2B005A464446D340F6
:1005B0002A00E2401C005B461500002B2ADB2600C7
:1005C0009E40330026004746BE403200801A9941C3
:1005D000009001919EE7A342BCD882E742462023C7
:1005E00000219B1A0022009101920122DA4001921F
:1005F00085E7424620239B1A2A0046469A4023005C
:10060000F340444613432A00E2401C005B461500B9
:10061000002BD4DA42462F002023260097409B1A55
:10062000DE403B003343CDE710B5002903D100F095
:1006300007F8203002E0080000F002F810BDC046C4
:100640001C2101231B04984201D3000C10391B0A02
:10065000984201D3000A08391B09984201D30009C6
:10066000043902A2105C40187047C046040302021D
:100670000101010100000000000000000023C25C35
:100680000133002AFBD1581E7047000003B47146A5
:10069000490840004900095E49008E4403BC704788
:1006A0001E4885461E4801681E4A914212D100210B
:1006B00001601D4801680122114301601B48016867
:1006C00003229143012211430160194801688D46BC
:1006D000416808471448016801221143016013482A
:1006E000016803229143016012481349134A002311
:1006F00002E0D458C4500433C4188C42F9D3104AD1
:10070000104C002301E013600432A242FBD305F039
:100710006FFC09F0F7FC03F05BFBFEE700400020F4
:10072000F03F0020EFBEADDE181002400000014097
:1007300000C8FF1F00000020E401002008D00008CE
:10074000E80100208C2E0020FEE700003E280AD899
:100750002A2806D9074B2B38C0B2C34001201840C5
:1007600070470020FCE7FD235B38184043425841A6
:10077000C0B2F5E70F000A00F8B5070010000C0042
:100780001600FFF77BFFA04216D8002816D00024E1
:1007900002E00134A04211D0395D335D0A00613AB4
:1007A000192A01D82039C9B21D00613D192D01D87F
:1007B000203BDBB29942ECD00020F8BD0120FCE7E1
:1007C000F0B5C646060000B5100088461700FFF7D2
:1007D00055FF404516D8002818D0002502E0013505
:1007E000A84213D0745D7B5D2200613A192A01D8BA
:1007F000203CE4B21A00613A192A01D8203BDBB24E
:100800009C42ECD0002080BCB846F0BD40450FD2E1
:1008100001213318074846441A78093AD2B2172AF8
:10082000F0D80400D4402142ECD001339E42F3D1F1
:100830000120E8E71300800070B5040007F048FDD0
:100840002100FFF7E7FC0B0061088B421FD2580123
:10085000C01A8000C018C000FFF756FC114B5C683E
:10086000002C00D1104CFA210E4B890040439D68AA
:10087000FFF74AFCFA2160438900FFF745FC80221C
:100880000A4B641BD200A0420AD99A6170BDE41AD7
:100890006001001B80000019C000FFF735FCDDE798
:1008A0009A62F3E710E000E080BB0000001400480B
:1008B000F0B5C64600B586B0182836D90F223D4B94
:1008C0000F241A70002303930133FF3301933A4F2F
:1008D000FD3B01ADEB600121384A90201368C00553
:1008E0008B4313600022364B29001A7002232A61C1
:1008F0006B6005F039FFA3001B199B00FB181A69F8
:10090000304B1A60304A1278002A4DD119681A68A3
:10091000E023DB051A40F0231B050020194007F0F7
:100920008FFB06B080BCB846F0BD8600224F36185B
:10093000B600BE19337A040098461E4B1022187078
:10094000002102A809F0AAFB80235B0001AD0193FE
:10095000FD3BEB604346002BBDD000220021002070
:1009600007F06EFB0022174B90201A60022329002B
:10097000C0056B602B6105F0F7FE01210F4B1A6873
:100980008A431A6072899A62B289DA62013252101D
:100990005A630B4A596111700B4A1278002AC0D170
:1009A0001A680A431A60BCE700220021002007F001
:1009B00047FBB6E7281B002060CD0008002C014053
:1009C0000B170020101700200A170020F0B5D6469C
:1009D0004F464646C0B58046FFF750FE071E20D062
:1009E000184B85269A46AE239B00994653464A46A5
:1009F00000249B58B6003D1B402D1FD8A9B21248B9
:100A00009A59002A16D14346181909F06FF853462F
:100A10004A460D499B589A59002A07D16419A742A2
:100A2000E9D8E0BCBA46B146A846F0BD0139002974
:100A3000F1D1F3E701380028E2D1E4E74025402175
:100A4000DDE7C046981B0020400D0300F0B54F467F
:100A50004646D6468046C0B50F1E20D0184B852688
:100A60009A46AE239B00994653464A4600249B581B
:100A7000B6003D1B402D1FD8A9B212489A59002A32
:100A800016D14346181909F031F853464A460D4924
:100A90009B589A59002A07D16419A742E9D8E0BCAB
:100AA000BA46B146A846F0BD01390029F1D1F3E7B5
:100AB00001380028E2D1E4E740254021DDE7C046C7
:100AC000981B0020400D03000FB400B5A3B024AB69
:100AD00004CB802102A8019309F0C6FA02A8FFF70F
:100AE00075FF23B008BC04B01847C046010070B5BC
:100AF00000281DD0144B4201D3181878012816D1B4
:100B000012485C6984461248624484469D69644484
:100B10002B001048FFF7D8FF29002000FFF796FFB1
:100B20000D48FFF753FF0D4B1B78022B04D070BD0F
:100B30000B4D0C4C0C4AEBE70C48FFF747FF01222A
:100B40000B4B1A70F3E7C046004001080140010852
:100B50000048010858AA000870AA0008291B0020B4
:100B600077060000E8C6000848AA000880AA000826
:100B70008616002000B5104B8FB01A78182A18D8A6
:100B800093000E499B189B005B58182168460C4A3D
:100B900009F006FA6B460B4A202106A809F000FA74
:100BA000094806A9FFF790FF1222084B1A700FB0F0
:100BB00000BD074BE9E7C046281B002060CD0008B8
:100BC000B0AA0008BCAA0008C4AA00084C02002071
:100BD00040AA000800B5164B83B01878172801D931
:100BE00003B000BD0130C0B2FFF762FE0122114B1D
:100BF0001A7007F06DFB104B1860FFF7BBFF8021E8
:100C000001220E48C90005F055FF00230193019B06
:100C10000B4A934205DC019B01330193019B9342F4
:100C2000F9DD802100220548C90005F043FFD7E720
:100C3000281B0020BC160020B81600200014004815
:100C40005FEA000000B5164B83B01878002801D188
:100C500003B000BD0138C0B2FFF72AFE0122114BDC
:100C60001A7007F035FB104B1860FFF783FF8021E7
:100C700001220E48C90005F01DFF00230193019BCE
:100C80000B4A934205DC019B01330193019B934284
:100C9000F9DD802100220548C90005F00BFFD7E7E8
:100CA000281B0020BC160020B816002000140048A5
:100CB0005FEA0000012370B50C4E0024337000235E
:100CC00001200B4D0B4A2B7001331178012903D100
:100CD0000124411C2B54C8B20133DBB22032402B1B
:100CE000F3D1002C00D0307070BDC0460902002046
:100CF0000C020020204001080020054B05491A780D
:100D0000012A01D19A69801820338B42F7D17047AC
:100D10002040010800480108F0B58DB005F070FCD6
:100D200000233422012600930193174C174B0294A1
:100D300003966946DA6001A805F0D8FB051E05D0C8
:100D400005F072FCFFF7B6FF0DB0F0BD11200F22C9
:100D50000F4904AF68443E7009F0FAF980235B0044
:100D600008930C4B0C4E0A930C4B09950C4D0B93AE
:100D70006E442100325900230220043405F092FC15
:100D8000AC42F6D1DCE7C04600400108002002403A
:100D900048AA00087706000010C0FEF70101C0BF96
:100DA00020400108F0B54546DE4657464E46E0B5C0
:100DB0003F4C00253F4B4048A54402E0203383428E
:100DC00012D01A78012AF9D16E1C14AA6D01541997
:100DD00022001900B0C9B0C2B0C9B0C2203330C9B6
:100DE00030C2F5B28342ECD105F00AFC0023342274
:100DF000012600930193314C314B029403966946CE
:100E0000DA6001A805F072FB804600280BD005F0DF
:100E10000BFCFFF74FFF2B4B9D44F0BCBB46B2468B
:100E2000A946A046F0BD112004AF0F222649684410
:100E30003E7009F08DF980235B00089343460993C7
:100E4000224B234E0A93234B1A4F0B936E442100DF
:100E5000325900230220043405F024FCBC42F6D1B0
:100E6000002DD4D014AB99460CAB9A465B429B46FE
:100E70004F4653464A4613CA13C313CA13C35446B4
:100E80000C4E03CA03C35E442268311900230220BA
:100E9000043405F007FCA742F6D143460133DBB228
:100EA000984620239C46E144E3444545E1D1AEE722
:100EB000ACF7FFFF2040010800480108004001088E
:100EC000002002405408000048AA000877060000ED
:100ED00010C0FEF70101C0BF0C4B10B59C46440189
:100EE00064442378012B00D010BD05F089FB342227
:100EF000074B2100DA6001200022002305F0D2FB1D
:100F000005F092FBFFF74EFFEEE7C04600400108F8
:100F1000002002401D4B10B5DA691D4B9A4230D1BA
:100F20001C4B1D4902E020338B422DD01A78FF2A3A
:100F3000F9D01A78012AF6D001240020154B164961
:100F400004E000280ED120338B4206D01A78FF2A05
:100F5000F7D1203301208B42F8D1002C0ED1FFF7BE
:100F6000A9FE10E01A78012A08D020338B42F4D071
:100F70001A78FF2AE7D01A78012AF6D1FFF712FF74
:100F800001E0FFF7C9FE10BD0024D6E700400108CC
:100F90000101C0BF204001080048010810B500242D
:100FA0000F4B00211C600F4B10220F481C7009F0E2
:100FB00075F803220D4B0E481C700E4B1A70FFF78C
:100FC00005FD0D4C2000FFF701FD0C48FFF7FEFC6E
:100FD0002000FFF7FBFC0A48FFF7F8FC10BDC046F5
:100FE000981600209C160020A0160020B0160020A5
:100FF000D8AA0008291B0020E4AA00081CAB00089E
:1010000054AB0008F0B5D64646464F462A4BC0B50D
:1010100098468CB06D461800FFF7D8FC2748FFF7BC
:10102000D5FC4046FFF7D2FC2548FFF7CFFC4046F1
:10103000FFF7CCFC234B2A00190051C951C251C9FA
:1010400051C21833160013CB13C213CB13C20023A3
:101050001D4FFB56052B01DD05233B701B4A002469
:1010600091461B4A924608E048460134FFF72CFDA2
:101070000435062C0DD00023FB56A2002968B25877
:10108000A342F1D150460134FFF71EFD0435062C72
:10109000F1D14046FFF79AFC0E48FFF797FC404617
:1010A000FFF794FC0C48FFF791FC0CB0E0BCBA468B
:1010B000B146A846F0BDC046E4AA000890AB0008BF
:1010C000C8AB0008F8A90008B316002020AC00083F
:1010D00000AC000838AC000870AC0008F0B5DE4683
:1010E00057464E464546924BE0B59A46180087B0A3
:1010F000FFF76CFC8F48FFF769FC5046FFF766FC72
:101100008D48FFF763FC5046FFF760FC8B4B019363
:101110001B78002B00D1D7E00D270D230022884E2D
:10112000B256BA4201DB013B3370864B002498462D
:10113000854B02AD9946854B00969B460C2C00D9F9
:10114000B6E04246A300D3589F46019B1B78002B74
:1011500000D0BCE02A007E4B43CB43C21B787D49C4
:101160001370009B2A001B785BB2A3422DD0484627
:10117000FFF7AAFC0134BC42E0D15046FFF726FC41
:101180007548FFF723FC5046FFF720FC7348FFF734
:101190001DFC07B0F0BCBB46B246A946A046F0BD58
:1011A0006F4B1B78012B00D1B7E0022B00D1B8E0C8
:1011B0006C4B10216C4A280008F0F2FE009B2A00BC
:1011C0001B786A495BB2A342D1D15846FFF77CFC39
:1011D000D0E7019B1B78002B00D086E0644B1021E8
:1011E0002800614A08F0DCFE6249BAE7624B1B78CE
:1011F000012B00D187E0022B00D196E0032B00D118
:1012000091E05E4B80E05E4B1B78002B73D1584B16
:1012100010212800544A08F0C3FE5A49A1E75A4B4E
:101220001B78002B65D1524B102128004E4A08F044
:10123000B7FE564995E7564B1B78002B61D14C4BB6
:1012400010212800484A08F0ABFE524989E7524B6A
:10125000197818295FD88B00504A5B189B009B585F
:1012600010212800404A08F09BFE4D4979E74D4B7C
:101270001B78002B43D1414B102128004A4A08F02B
:101280008FFE4A496DE74A4B1B78002B35D1384B0E
:1012900010212800344A08F083FE464961E7464B96
:1012A000102128001B68454A08F07AFE444958E797
:1012B000444B1B78002B1AD12D4B102128002A4AB1
:1012C00008F06EFE40494CE70B270B2326E73F4B07
:1012D0001B78052B23D83E4A9B009B5810212800E1
:1012E000214A08F05DFE3B493BE73B4B77E73A4B31
:1012F000E3E7394B98E7384B8AE7374BC8E7374B7A
:10130000BAE7354B9CE7364B10212800164A08F007
:1013100047FE344925E7344BA2E7344B49E7344BC9
:10132000DCE7344B45E7344BEEE7344BECE7C046A3
:10133000E4AA000864AE00089CAE00080A1700206A
:10134000B3160020C8C300082CAF00080CAF00087B
:10135000FCAE00082CAE000838AC000870AC0008E9
:1013600009170020E0AC0008D4AE000848AE000821
:10137000A0AC000810AE00080D000020B4AC0008BE
:101380000A000020D8AD00080B000020BCAD00080A
:1013900008170020A0AD0008281B002060CD000821
:1013A00084AD00080E000020F0AE000868AD000813
:1013B0000F0000204CAD000810000020E0AE000837
:1013C00030AD00081400002014AD00080C0000200F
:1013D000D0C60008F8AC000898AC0008ACAC000817
:1013E000BCAC0008F4AD000840AA0008ECAC000852
:1013F000D4AC0008F0AC0008CCAC0008C4AC0008C9
:10140000F0B54E46DE4645465746E0B59FB0FFF77D
:1014100051FC624B624A98461B78914612789E1C9A
:10142000F6B252B2B24202DB4A46013313705D4D4E
:101430002800FFF7CBFA5C48FFF7C8FA2800FFF74F
:10144000C5FA5A48FFF7C2FA2800FFF7BFFA002E84
:101450004FD0574B00249A46564B9B46564B04930D
:10146000564B05935B46AB460393350029E0544B3E
:101470001F5D002F64D0534A534B944680227F0156
:10148000FB189B696744D200934200D37EE006AE0E
:10149000102130004D4A08F083FD4B461B785BB2AB
:1014A000A3425DD04A4A23005021019600970AA822
:1014B00008F076FD50460AA90134FFF705FBA54266
:1014C00016DD43461B78A342D1DC4A46127852B25D
:1014D000A34247D094424DD0342203990AA808F081
:1014E00037FE013450460AA9FFF7EEFAA542E8DCC0
:1014F0005D462800FFF76AFA0022364B3648197815
:10150000012901D19969521820338342F7D19305FB
:10151000990D1B0D5B18414609785B0A920A013947
:101520002E48FFF7D1FA2800FFF750FA2C48FFF7B2
:101530004DFA1FB0F0BCBB46B246A946A046F0BD6E
:1015400006210120274F06AE030000913000102134
:10155000254A08F025FD4B461B785BB2A342A1D17A
:10156000224AA0E794420BD0342205990AA808F039
:10157000EFFD9FE73C2204990AA808F0E9FD99E7EE
:101580003C221B490AA808F0E3FD93E79905980A55
:101590008B0D090DC918490AD5E7C046090200207C
:1015A000B3160020E4AA000844AF00087CAF00088E
:1015B00034BB0008B4B0000878B0000844B000089C
:1015C0000C0200200140010800400108B4AF0008EF
:1015D000ECAF00082040010800480108E8B000080E
:1015E00024B1000848AA0008BCAF0008C8AF000832
:1015F00008B0000810B50A48FFF7E8F9094B1B7856
:10160000002B04D0012B08D0022B03D010BDFFF714
:10161000F9FCFBE7FFF7F4FEF8E7FFF75FFDF5E7FE
:10162000D8AA0008B4160020F0B5DE4657464E464C
:101630004546E0B54F4A504B116885B0994236D0C7
:101640000F239B460E3B9A46002398460233994649
:101650000023012701260125002001219C4601339A
:10166000102200925C46454A14705446444A177052
:10167000444A1670444A1570444A14704446444A19
:1016800014704C46434A14706446434A1470434AEB
:101690001070434A1170434A1370434B009A1A600A
:1016A00005B0F0BCBB46B246A946A046F0BD1379D2
:1016B00057799B46137A96799A46937AD5799946C3
:1016C000D37A547A9C46137B0193507B0290937B90
:1016D000190003931369526918008046009301981A
:1016E000254B434480465B44DB199B195B195344EB
:1016F0001B1902984B446344434480464344884644
:1017000043449A429CD15B46182B01D90F239B4638
:101710007B1E9F41731E9E416B1E9D415346FFB22F
:10172000F6B2EDB2032B01D901239A46631E9C4108
:10173000E3B298464B46052B01D9022399466146F0
:10174000022200238A425B416246019802995B4271
:101750001A40431E98414B1E9941039B94465A1EC2
:101760009341009AC0B2043AC9B2DBB23C2A00D815
:1017700078E775E700F80108042C07BF281B002054
:10178000140000200F0000200E0000200D0000209B
:101790000A1700200C00002009170020081700205D
:1017A0000B0000200A00002010000020F0B5574672
:1017B0004E464546DE460023E0B58DB006A9CB7304
:1017C0003B4B06933B4B1A783B4B93461A783B4B6B
:1017D00092461A783A4B91461A783A4B90461A78C4
:1017E000394B140052461F78384B00941E78384B02
:1017F0001D7813024A4610045A46134342460343D7
:101800001206134307933B02300423432A06034383
:101810001343274A089394462E4B1C782E4B0C7387
:10182000187848732D4B009A1B7801938B732C4BBF
:101830001B680B61634494465B445344019A4B44D8
:10184000434463449446DB199B195B191B19254CCF
:101850001B186344182220004B6108F011FC00287B
:1018600006D10DB0F0BCBB46B246A946A046F0BDBD
:1018700004F0C6FE002302A90293039303A80133D8
:101880000494059304F032FE00280DD102AB9C466F
:10189000154E164D664421003259002302200434AF
:1018A00004F000FFAC42F6D104F0BEFED9E7C0461A
:1018B000042C07BF281B0020140000200F0000206C
:1018C0000E0000200D0000200A1700200C00002050
:1018D00009170020081700200B0000200A00002034
:1018E0001000002000F801081008FEF718F80108A1
:1018F00002220B4B10B51A700023FF21094A0A4837
:1019000013700A4A13700A4A11700A4A7F39137019
:101910000122094B49011A70002205F0CBF810BDD5
:10192000291B0020B416002000080048B316002030
:1019300009000020B1160020B2160020F8B5424878
:10194000FFF744F84148FFF741F84148FFF73EF8F8
:101950004048FFF73BF84048FFF738F83F4B404816
:101960001978FFF7B1F83F4C3F4927003F4EE13768
:101970003F4DFF3732002800FFF7A6F821681434E6
:10198000A742F7D13B4A2800FFF79EF83A4B3B4865
:101990001978FFF799F83A4B3A481978FFF794F815
:1019A000394B1B68202B4DD047D80121082B03D081
:1019B000103B5A42534159003448FFF785F8344BE5
:1019C00034481978FFF780F8334B34481978FFF71B
:1019D0007BF8334B33481978FFF776F8324B3348AE
:1019E0001978FFF771F8324B32481978FFF76CF825
:1019F000314B32481978FFF767F8314B19780529D0
:101A000000D902212F48FFF75FF82F4B02221978E7
:101A100000238A425B415B4219402C48FFF754F88F
:101A20002B48FEF7D3FF2B48FEF7D0FF2A48FEF7DE
:101A3000CDFF2A48FEF7CAFFF8BD403B5A4253414A
:101A40009900B9E70321B7E768B100087CB1000845
:101A50009CB10008BCB10008E0B10008281B0020C0
:101A600000B2000874CD000860B10008A8B20008F8
:101A700028B20008E0BE00080D00002030B20008C7
:101A80001400002070B2000810000020ACB2000862
:101A90000F000020F8B200080E00002034B3000848
:101AA000081700206CB300080B000020A4B3000846
:101AB0000A000020E0B300080A17002018B400084C
:101AC0000C00002050B4000809170020B8B400082A
:101AD000F0B4000814B5000838B5000858B500087F
:101AE000224BF0B5D969224B22489C4661444B42B7
:101AF0005941214B83B0C9B21A78012A01D1013171
:101B0000C9B220338342F7D100221B4B194C1878FD
:101B1000012801D1986912182033A342F7D1B023CC
:101B200016481B02FEF7D0FF15481649FEF7CCFFFA
:101B30000125114C144F0F4E03E020340135B442FF
:101B40000ED02378012BF8D1A369617C621C00912F
:101B5000380029002034FEF7B7FF0135B442F0D138
:101B60000A48FEF733FF03B0F0BDC046004001084D
:101B7000FFFE3F40004801082040010864B500080E
:101B80007CB5000877060000A0B50008BCB50008C9
:101B900010B5A0B03022002114A808F07FFA10225E
:101BA000002102A808F07AFA1C2200210CA808F0F3
:101BB00075FA1822002106A808F070FA32231024C2
:101BC000139313A8313B16931B93189317941994EE
:101BD00005F082FF072300240121029302A8043BA1
:101BE00003930494059406F09DFA80230CA89B02AD
:101BF0000C93129405F090FE8022A0210020D205C3
:101C0000C90406F01DFA80210C4B0905DA6906A803
:101C10000A43DA61DB6922220B400193019B802396
:101C20009B050793064B06940993202308940A9278
:101C30000B9305F027FF20B010BDC04600100240F6
:101C40007FBB000030B587B014220021684608F041
:101C500025FA8021154D01222800C90004F02AFF31
:101C6000802128000122090104F024FFFF22002422
:101C70000023694612020E4800920193029404F078
:101C800073FDC02200236946280092000092019350
:101C9000029404F069FD0023064A69460648009252
:101CA0000193029404F060FD07B030BD00080048C5
:101CB00000040048FFFF00000010004830B583B06A
:101CC000FFF774FD80250022364B374C1A70ED006B
:101CD000364B200029001A6004F0ECFEA562344C5B
:101CE0002278182A53D8930032499B189B005958E0
:101CF0003148FEF7E9FE314B1B78002B10D0304BFA
:101D00001B78012B4CD0022B43D12E492E4B1B7834
:101D1000052B43D82D4A9B009A582D48FEF7D4FE38
:101D2000FFF790FFFA239B000193019B5A1E01923B
:101D3000002BFAD1802100222648C900019B04F023
:101D4000B9FEFA239B000093009B5A1E0092002BC1
:101D5000FAD12078009BFEF7ABFD802100224901DB
:101D60001C4804F0A7FE0A2006F0B8FA802580215E
:101D70000D4CED0001221748490104F09BFE0022A2
:101D80002900200004F096FEA56203B030BD124980
:101D9000AEE70D4B11491B78052BBBD9104ABCE7A8
:101DA0001049B3E7291B002000140048C01600208A
:101DB000281B002060CD0008C8B500080A170020C5
:101DC00009170020F0AC00080C000020D0C6000865
:101DD00004B600080008004840AA0008E0AC00086B
:101DE000D4AC0008ECAC000870B50D0001268021D1
:101DF0001B4A03041B0C82B05361020C04003240E6
:101E00001848490004F056FE8021620C1548324003
:101E1000890004F04FFEFF21134B2D025A6911482F
:101E200011402943596180210022090104F042FE3A
:101E30000A230193019B5A1E0192002BFAD18021A3
:101E4000012208480901019B04F034FE0A23009393
:101E5000009B5A1E0092002BFAD1009B02B070BD6D
:101E600000100048000800480004004830B58021F8
:101E700001251D4A03041B0C85B05361020C0400AC
:101E80002A401A48490004F015FE8021620C1748C8
:101E90002A40890004F00EFE0A230393039B5A1E76
:101EA0000392002BFAD1802100221048C900039B25
:101EB00004F000FE0A230293029B5A1E0292002B9A
:101EC000FAD16A468021029B094BD41D1B69074841
:101ED0001B0ADBB2D371C900012204F0EBFD2078AC
:101EE000C0B205B030BDC046001000480008004830
:101EF00000040048F8B50E0005004027224C234A94
:101F00002368AA211B041B0C134323602048FFF7FE
:101F10006BFF55211F48FFF767FFA0211C48FFF703
:101F200063FF31002800FFF75FFF23681A4E1B0490
:101F30001B0C23602800FFF799FF04002800FFF71F
:101F400095FF444027420FD0013E002EF2D12800D9
:101F5000FFF78CFF04002800FFF788FF604007426E
:101F60000FD001267642E5E72800FFF77FFF040047
:101F70002800FFF77BFF4440274202D0013E002E9D
:101F8000D8D10020F8BDC0460004004800005555D7
:101F900055550000AA2A000050C3000070B5402625
:101FA000264C274A2368AA211B041B0C13432360D9
:101FB0002448FFF719FF55212348FFF715FF80211B
:101FC0002048FFF711FFAA211E48FFF70DFF5521FA
:101FD0001D48FFF709FF10211A48FFF705FF236886
:101FE0001A4D1B041B0C23600A20FFF73FFF04005F
:101FF0000A20FFF73BFF444026420FD0013D002D51
:10200000F2D10A20FFF732FF04000A20FFF72EFF6B
:10201000604006420FD001256D42E5E70A20FFF738
:1020200025FF04000A20FFF721FF4440264202D08A
:10203000013D002DD8D1002070BDC04600040048ED
:102040000000555555550000AA2A0000404B4C0091
:10205000D0B586B014220021684608F01FF8802110
:10206000154C01222000C90004F024FD802120002D
:102070000122090104F01EFDC022012300260127D0
:10208000694620009200009201930296039704F0A3
:102090006BFB0123094A69460948009201930296A5
:1020A000039704F061FB0749074A0B681B041B0CEC
:1020B00013430B6006B0D0BD00080048FFFF0000CE
:1020C000001000480004004800005555F0B5DE46F9
:1020D00057464E464546E0B5CFB08B460390049236
:1020E000002901D1002081E10123D14A05E001331B
:1020F000DBB22032402B00D18BE11178FF29F6D1E1
:102100005BB2059300250320C94BCA4902E0203386
:102110008B420DD01A78012AF9D15A699C6912199B
:10212000033282439542F2D2203315008B42F1D123
:102130005B46B0225B191202934200D8C3E0002034
:10214000BB4BBC491A78012A01D19A698018203307
:102150008B42F7D1B02358441B029842C2D8B648EC
:10216000FEF734FC802300259B029A46B34B0FAC4C
:10217000A946012625000193029403E001360435A7
:10218000402E34D0AE4B7201D7183B78012BF5D1DD
:10219000AC49BB698C46019862443100FEF794FC5F
:1021A0004B46A44A2B6090467B6900249844FFF775
:1021B0004FFFBB69002B0FD02B004546B04656465B
:1021C0009A46295D3019FFF795FEBB690134A34299
:1021D000F7D85546B24646460322BB6901369A44B3
:1021E000BB690435033393439944402ECAD19648C2
:1021F000029CFEF7EBFB04F003FA00230022099394
:102200008C4B09A90A920B9316230AA80C9304F08D
:102210006DF94EAB984680239B024D4601935B4679
:10222000834F0695079303E004342037444540D09C
:102230003B78012BF8D1FFF705FD80210022834870
:10224000C90004F037FC7B4A236891469944BB6976
:102250000022002B23D07E4BA2469B464B46B9461C
:10226000170002933D00002400264B469B69FF2087
:102270009D4200D2F4E0A040083406430135202CF2
:10228000F3D1029B3200D9190220002304F00AFA8C
:102290004B469B690437BB42E4D84F465446019AEB
:1022A000BB6994469C4463460434019320374445FB
:1022B000BED1079B069D9B4604F0B6F96548FEF724
:1022C00085FBFEF76FFD5B4B634C9A46AA44534671
:1022D0005C446419DB0AE40ADB02E402E41AE40A5F
:1022E000994604F08DF9002C00D1C6E08027E40265
:1022F000A0462B003F014F44B84445463E004946A6
:1023000098460EAC0B0002E004339E420CD01A68D3
:102310000132F9D000230A93236001336160200069
:10232000A3600AA904F0E2F880231B019C466644DE
:102330003900B54201D06744E4E74546FFF782FC27
:10234000802100224148C90004F0B4FB00239846D4
:102350003F4B0195994623005C469B464646002527
:102360000027FF20A64248D3A8400835074301367E
:10237000202DF6D15146002341443A00022004F0BA
:1023800091F904239C46E04400264445E6D85B4688
:10239000A3461C000123237008AB9C4619200F2282
:1023A00060440399019D07F092FE049B34226374FC
:1023B0005B46A361294B267466826561E661DA603B
:1023C000059B16AE5D011E4B2D1B9C466544226885
:1023D000291900230220043404F064F9A642F6D13E
:1023E00004F022F9FEF766FC6B46187D4FB0F0BC96
:1023F000BB46B246A946A046F0BDFFF729FE4B46B4
:102400004A461B6830001B041B0C1360FFF72EFDAF
:10241000AAE7FEF7C7FC0123054A05E00133DBB25A
:102420002032402B00D15DE61178FF29F6D167E616
:10243000204001080048010838B600087CB60008B2
:102440000040010801400108A8B600080008004843
:1024500000040048C4B60008FF4F010800200240F5
:10246000FFF7F6FD5B465A461B681B041B0C136006
:10247000019BE818FFF7FAFCFDE60EAC5EE7C046EC
:10248000F0B54E464546DE465746E0B587B01C00DF
:1024900010AB1B780E008046111E019300D1FBE0AB
:1024A00032008148FEF710FB802100227F4849015D
:1024B00004F000FB80210122C9007D4804F0FAFAF3
:1024C0007C48FEF783FAFFF7C3FDFFF767FD7A4804
:1024D000FEF77CFA04AB9A465146784B1A68049290
:1024E0009A888A809B798B71002C2ED08023B51D11
:1024F000DB029D4200D97EE0092D29D90A2128005E
:10250000FDF702FE814653469B1B9B466C4B64279E
:102510000093330000244E46994611E04346195D6E
:1025200020000134FFF7E6FC31002000FDF772FEC9
:10253000002967D0AC4200D173E06437AC426ED260
:10254000A145EBD85B46195DEAE73500092DD5D8E2
:10255000002D00D0A5E05B48FEF738FA5A48FEF798
:1025600035FA5A48FEF732FA019B0125002B00D1BB
:102570008EE05748FEF72AFA802100224C48C90015
:1025800004F098FAFFF75EFBFA239B000393039B8A
:102590005A1E0392002BFAD1802100224348C90021
:1025A000039B04F087FAFA239B000293029C631EAC
:1025B0000293002CFAD18021002249013B48029B62
:1025C00004F078FA0A2005F089FE802101223748BC
:1025D000490104F06FFA3F4B1C703F4B1C703F4B9E
:1025E0001C703F4B1C70280007B0F0BCBB46B246C5
:1025F000A946A046F0BD0A213000FDF785FD350053
:10260000814680E729003800FDF77EFD2B000100A0
:1026100022000098FEF758FA6437AC4290D34E4639
:102620000BE029003800FDF76FFD254C01002B0061
:102630002A0020004E46FEF747FA2248FEF7C6F968
:1026400053469B1B00249A460AE0434620001F5D28
:10265000FFF70CFC87420CD10134AC4200D17DE77E
:10266000A642F2D8534620001F5DFFF7FFFB8742CA
:10267000F2D01C4D03003A0028002100FEF724FA96
:102680001248FEF7A3F9019B0025002B00D070E74C
:102690001548FEF79BF9A6E731001448FEF714FA37
:1026A00002E7012399462EE708B700080008004812
:1026B0000014004844B7000854B70008ACAC000848
:1026C0005CB7000884B70008D0B70008D8B7000886
:1026D00004B80008C5160020C4160020271B0020DF
:1026E000291B002098B7000820B8000828B7000868
:1026F00000B5114883B0FEF769F91049104B09780D
:102700001B78104A009110481049FFF7B9FE0023CA
:102710000F4A13700F4A13600F4A13600F4A136079
:102720000F4A13700F4A13800F4A138000220F4B79
:102730001A7003B000BDC04650B800080F0000205A
:102740000E00002080B80008E8C6000877060000E8
:102750005502002068020020640200205C02002074
:10276000540200206E0200206C0200204D02002066
:1027700010B582B0002809D03F2805D80E4B400183
:10278000C3181A78012A06D002B010BDFFF7B0FFB7
:10279000FFF794FAF8E7094A996982185C690848D2
:1027A000084B2018084C1B7824780094FFF768FE2B
:1027B000FFF784FAE8E7C04600400108014001083D
:1027C000004801080E0000200F00002010B52E4820
:1027D0008AB0FEF7FBF8AE2385212C4C9B00E05815
:1027E0002B4A89004358002B49D100230193019BB8
:1027F000284A934205DC019B01330193019B9342DC
:10280000F9DD200006F0E0FC200006F0B9FC802194
:10281000214B89025A6906A80A435A615B690C2256
:102820000B4002930021029B07F038FC802290208D
:102830000123520104A9C0050492059303F094FFFB
:102840008021902000224901C00504F033F90023C3
:102850000393039B114A934205DC039B01330393CB
:10286000039B9342F9DD0E4B0E4A1A60BFF34F8F64
:102870000D4B0E4ADA60BFF34F8FC046FDE7013AB9
:10288000002AAFD1B1E7C04698B80008981B0020D5
:10289000400D03001FA10700001002403F420F003F
:1028A000F03F0020EFBEADDE00ED00E00400FA05D1
:1028B00070B5764D04002B78002B05D1052807D87C
:1028C000734B84001B599F46012B02D0022B27D04B
:1028D00070BD0C28FCD86F4B84001B599F46FEF737
:1028E000A3FEFFF7EBF9F3E7022300222B706A4BFC
:1028F0001A706A4B01321A70EAE700210122664B16
:102900002A701970654B1A70E2E76548FEF75EF8A9
:10291000FFF7EEFEDCE7FEF749FFFFF7CFF9D7E759
:10292000FEF7C8F95F4B1B78A3420AD87DD000237D
:10293000594A2B7013700122584B1A70C8E7FFF7E1
:1029400045FF594B185DFFF713FFC1E7574B1B7845
:10295000002B44D0564C2078002900DC8FE0062163
:102960000130FDF741FD2170B2E7504A137859421A
:102970004B411370ACE74F4A137800295EDD032109
:1029800001330B401370A3E74B4A137859424B4174
:1029900013709DE7494A137859424B41137097E7EA
:1029A000474A137859424B41137091E7454B1878C9
:1029B000002948DD19210130FDF716FDC8B2FDF7E9
:1029C00077FF85E7404A137859424B4113707FE700
:1029D0003E4A137859424B41137079E70023012294
:1029E0002B702D4B1A702D4B1A7071E7384C2078D4
:1029F00000291DDD03210130FDF7F6FC217067E79A
:102A0000344A137859424B41137061E7324A1368D4
:102A1000002920DD042B29D0082B2DD0102B28D005
:102A2000202B20D00423136052E7FEF7B7FA4FE7BC
:102A300003210230FDF7D8FC217049E7032103335D
:102A40000B40137044E719211830FDF7CDFCC8B2D4
:102A5000FDF72EFF3CE7402B0BD0202B0CD0102B8A
:102A600004D0082BDED04023136031E70823136025
:102A70002EE7202313602BE71023136028E706219D
:102A80000530FDF7B1FC217022E7C046B4160020E6
:102A9000FCC3000814C40008B3160020B2160020BE
:102AA000CCB80008090200200C0200200A17002000
:102AB0000C0000200D0000200A0000200B00002068
:102AC00008170020281B00200E0000201400002002
:102AD000091700200F0000201000002070B590267C
:102AE00004000125F605C2098021300003F0E2FF51
:102AF000A20930002A40402103F0DCFF62093000C7
:102B00002A40202103F0D6FF220930002A4010215C
:102B100003F0D0FFE20830002A40082103F0CAFF8A
:102B2000A20830002A40042103F0C4FF62083000EC
:102B30002A40022103F0BEFF2A003000012122407A
:102B400003F0B8FF70BDC04610B5022800D010BD1C
:102B500000228021104803F0ADFF104B104A197875
:102B60001278914203D100220E4B1A70EFE71A78C7
:102B70000D49D2B2885C3F221978C0B201310A40B7
:102B80001A70FFF7ABFF01228021034803F092FF88
:102B90000122044B1A70DAE700080048C51600202D
:102BA000C4160020271B0020C8160020F0B5574689
:102BB0004E46DE464546E0B507000E0095B00429B6
:102BC00006D90522BB4907F071FA002800D1B2E00E
:102BD00031003800B84AFDF7CFFD002800D0A6E04C
:102BE00031003800B54AFDF7C7FD002800D09EE04F
:102BF00031003800B24AFDF7E3FD002800D0A2E022
:102C000031003800AF4AFDF7DBFD002800D096E028
:102C100031003800AC4AFDF7D3FD002800D08EE02B
:102C2000082E00D893E031003800A84AFDF7A4FD33
:102C3000002800D0B6E1092E07D031003800A44AA0
:102C4000FDF79AFD002800D0DCE131003800A14AF0
:102C5000FDF792FD002800D0BCE1310038009E4A0B
:102C6000FDF78AFD002800D171E03A007B7A093235
:102C7000002B00D1F6E10020984D0FE00A2B0FD079
:102C80000F2810D0190020395E2903D83B2B01D022
:102C90002B54013053780132002B01D00D2BEDD194
:102CA000002800D1DFE100248D4B2C541870FFF771
:102CB000CFF9FFF773F98B4B1C608B4B1C6005F051
:102CC00007FB0122894B29001860894B89481A703B
:102CD000894B02321A70894B013A1A70FDF7F4FEE3
:102CE0000124200015B0F0BCBB46B246A946A04660
:102CF000F0BD7A79791D1300303B092B00D956E2DB
:102D00000024A3001B195B0001319C180A78303C99
:102D10001300303B092BF4D921007948FDF7D4FE8C
:102D20001E2C08D01F2C00D146E2202CD8D1012225
:102D3000744B1A70D4E70122734B1A70D0E701224A
:102D4000724B1A70CCE70122714B1A70C8E7310040
:102D50003800704AFDF734FD002800D01EE1310034
:102D600038006D4AFDF72CFD002800D016E1310037
:102D700038006A4AFDF724FD0028D8D13100380018
:102D8000674AFDF71DFD0028D1D131003800654AA2
:102D9000FDF7F2FC002800D04DE131003800624A16
:102DA000FDF7EAFC002800D045E1052E26D93100C8
:102DB00038005E4AFDF7E0FC002817D079797A1DCB
:102DC0000B00303B092B00D9E6E10024A3001B19BE
:102DD00015005B0001325B1811781C0008003038C8
:102DE000303C0928F2D93D2900D170E1310038008A
:102DF0004F4AFDF7C1FC002800D07AE731003800C7
:102E00004C4AFDF7DDFC002800D035E131003800E8
:102E1000494AFDF7D5FC002800D02DE131003800EB
:102E2000464AFDF7CDFC002800D03AE131003800D9
:102E3000434AFDF7C5FC002800D032E131003800DC
:102E4000404AFDF7BDFC002800D033E131003800D6
:102E50003D4AFDF7B5FC041E00D02BE1264D2B7832
:102E60009946002B00D067E1384B1B78002B00D12E
:102E7000A8E1374B1B68B34200D9A3E1354B1B785F
:102E8000002B01D100F026FDB0460026B844B8451D
:102E900001D100F0EAFC402E01D100F0EAFC3C78C0
:102EA0002000FDF753FC002802D004AB9C550136EE
:102EB0000137ECE7F4B80008FCB8000804B90008D2
:102EC0000CB9000814B900081CB9000828B900089A
:102ED00034B9000840B900084CB90008A016002019
:102EE0009C160020981600209416002090160020B2
:102EF0007E16002064B90008291B0020B0160020AF
:102F0000D4B9000881160020821600207F16002008
:102F10008016002078B9000880B900088CB9000834
:102F200094B90008A0B90008A8B90008B0B9000811
:102F3000CCB90008E4B90008ECB90008F4B90008FD
:102F4000FCB9000804BA00080CBA000814000020FC
:102F500010000020081700202378022B01D100F078
:102F60009DFD2378062B01D100F027FD2378032B4C
:102F700000D1C2E32378042B00D0B1E6002E00D1AB
:102F8000AEE63B78202B09D000D9AEE30D2B05D05F
:102F90001B2B00D1CBE60A2B00D0A1E60122C64BA9
:102FA0001A709DE6797A38000B00303B0930092B06
:102FB00073D800231A0093009B185B0001305A1845
:102FC0000178303A0B00303B092BF4D953B2BB4A9D
:102FD000137085E6797A38000B00303B0930092BF5
:102FE0005DD800231A0093009B185B0001305A182B
:102FF0000178303A0B00303B092BF4D953B2B04A78
:1030000013706DE6B97A38000B00303B0A30092B9B
:103010004ED800231A0093009B185B0001305A1809
:103020000178303A0B00303B092BF4D91300A54A44
:103030005BB2137054E60222A34BFF211A700023E7
:10304000A24AA3481370A34A1370A34A1170A34A5B
:10305000802113700122A24B49011A70002203F053
:1030600029FD3DE69F4D102228009F4907F02FF8CB
:103070002800FDF703FB16E69C4B1B78172B00D9A5
:103080002EE60133D8B2FDF713FC0122984B1A70DB
:1030900005F01EF9974B186022E6002397E70023FE
:1030A000ADE7924B1B78002B00D119E6013BE9E715
:1030B0000023BCE78D4B1978182900D980E0142231
:1030C0004A438D4BD1588D48FDF7FEFC08E65278F7
:1030D000023511003039092900D99DE30026B300DB
:1030E0009B195B0001359E182A78303E1300303B57
:1030F000092BF4D923000A3B0B2B10D8804A9B00E4
:10310000D3589F467F4B1A6804921B7904AA137107
:1031100004239E4200D8935D0D247B4A1360012254
:10312000734B1A7005F0D4F8724B3200186021000E
:103130007648FDF7C9FCD3E5022B00D10AE1032B49
:1031400000D1F4E1012B00D0CAE505F0C1F801225D
:103150006F4B18606F4B1A706F4A13689B1913609E
:103160006E4B1B78002B00D13DE12300B0464C464E
:1031700000269946B844B84500D128E1402E00D138
:103180002DE13D782800FDF7E1FA002802D004ABDC
:103190009D5501360137EEE73D2900D158E3310056
:1031A00038005F4AFDF7E8FA002800D126E6002142
:1031B0005C48FDF789FC93E501225B4B1A708FE5B3
:1031C0005A4980E75A4B1B78012B00D112E3022B9E
:1031D00000D1F4E2032B00D1E3E2564B1B78002B25
:1031E00007D0554B1B78002B00D0DBE3012E00D11C
:1031F000BEE3002E3AD0514B51491B783A0001935F
:10320000BB1903933F239B464E4B00209A464E4BDF
:10321000D44699460A23012698468A460C784B4F95
:1032200016E00A2D42D00024300059463B78013385
:103230000B40614609780293994205D04B46397894
:10324000C9B25D54029B3B70039B0132934209D08B
:10325000019B1578002BE8D00D2DE2D13000340011
:103260004546E2E75146002800D00C70384C2378E0
:10327000002B00D034E5334A344B11781B78994247
:1032800000D12DE513783049DBB2C85C3F211378BB
:10329000C0B201330B401370FFF720FC01228021E4
:1032A0000B4803F007FC0123237019E5002C00D024
:1032B000D8E20120B9E7C0468316002003000020B1
:1032C0000100002002000020291B0020B41600206D
:1032D00000080048B316002009000020B1160020A5
:1032E000B2160020A016002058B90008281B0020A4
:1032F000BC160020B816002060CD000814BA0008E3
:1033000048C4000860BA000810000020B8B90008DE
:1033100058020020550200206002002008170020FB
:10332000CCB90008D4B900087D16002040AA0008D6
:103330000D0000200A170020091700200A000020B5
:1033400008020020C5160020C8160020C416002060
:10335000271B0020BD4B1A78002A33D1002E00D144
:10336000BEE4BB4C2378002B2AD0012B21D00622AF
:10337000022B17D000203B78012E09D03B5C202B7C
:1033800002D0092B00D08DE101308642F6D1A7E4AE
:10339000202BF3D10022AF4B9A56AF4B1A70AF4B94
:1033A0001E709DE4FDF786FCAD4B1A780232D2B256
:1033B000E0E7AC4B0B221B78002BDBD00232D9E7C5
:1033C0000622D7E701221870A74B1A7088E44B46F3
:1033D000A1461C00002E00D0A7E04C4681E44B46DD
:1033E000A1461C0004AFA14B9A461B78002B38D095
:1033F0008021BB19C9028C46C8469B463A009C48AE
:103400009C4D9D4F9D4E0194934517D03968614561
:1034100012D201882B8801318905890D8B420BD08E
:1034200003889BB2994613789A464B465446F45407
:1034300001803968013139600132E5E702882B8863
:10344000C146019C9A423BD303882A889B1A9BB2AF
:103450008B4AD31A9BB27F2BBFD80122894B1A709B
:103460003FE4894B1A689846802392195B019A427F
:1034700047D9424612689D1A934230D152460123E1
:103480001370BA199146A2467D197949794F7B4E3E
:103490007948A9451DD00B883A8801339B059B0DBF
:1034A0009A420BD00A8892B294462A789046624695
:1034B0004446B4540B800368013303600135E8E7E8
:1034C0008021C9008C4603882A8863449B1A9BB2DA
:1034D000BEE701226B4B54461A70FFF702FC4346CD
:1034E00018686A4B2A00C018390006F031FE4346BE
:1034F00042461B685B1913605F4A13685B191360CF
:10350000BCE743461868614B3200C018390006F02A
:103510001FFE434642461B684C469B191360564AA1
:1035200013689B191360FFF7DCFB04AF5BE7584C93
:103530002378002B00D00FE5BB190193554B0021D8
:103540009B4608239946183398465B463A008A46BC
:10355000514E02940393019B934262D013781B2B2C
:1035600056D00D2B3DD00A2B3BD0082B1ED07F2BE5
:103570001CD01F00203F5E2F00D947E230788446E0
:103580000E2800D942E26446471C4248FFB2035568
:10359000834600208446584664463770C4553F2908
:1035A00000D933E204A84F1C435417E03378002BB2
:1035B00000D12BE257460398013BDBB2C754CF1C26
:1035C00033703F2F00D921E2484604AB58540B001A
:1035D00004A98C4641466344597098703900013201
:1035E000B9E72D4E029C33782A4D002B06D00022DD
:1035F0003378EA5401232370FFF772FB1022274926
:10360000280006F064FD2800FDF738F83070EEE77A
:1036100002230F4A2B7013700122134B1A70FFF70D
:103620005FFB002901D1FFF75BFBAE221C4B920030
:103630009A5885239B00D358002B01D0FFF750FBED
:1036400089B204A806F052FAFFF74AFB861600205A
:10365000B4160020B3160020090000200800002046
:10366000090200200A170020B21600205402002090
:103670006E0200206C020020640200207002002014
:10368000FF0300002C2600206802002070060020A6
:10369000B0160020A01600209C16002058B9000883
:1036A000981B0020864201D8FFF71AFB3B1898466A
:1036B0003B5C1B2B00D141E22578002D00D095E129
:1036C000352B4AD8302B32D904F002FED04BD14AE8
:1036D000186043461B78313B5BB21370CE4A1370BF
:1036E0000122CE4B1A70FFF7FBFA20229343432BA3
:1036F00001D0FFF7F5FAFFF71AFB002E01D1FFF713
:10370000EFFA3B784E2B00D110E200D800E26E2B8E
:1037100000D10BE220229343592B01D0FFF7E0FAAE
:103720000122BF4B1A70BF4B1A70FFF7D9FA082B52
:1037300020D0302B1ED00D2B29D00A2B27D0202BA8
:1037400001D0FFF7CDFA0022B24B9A56B24B1A7055
:103750000122B24B1A70FFF7C3FA5AB2002A01DAFB
:10376000FFF7BEFA612B09D8422B03D0512B01D0B1
:10377000FFF7B6FA0522A74B1A70E7E7623BDAB209
:10378000A94BD340DB0701D4FFF7AAFAF2E704F014
:103790009FFD9F4B1B68C01A642801D8FFF7A0FA51
:1037A000D1E7012E00D018E53B782B2B1ED02D2B16
:1037B00015D09E4B1B78002B00D012E51BE5032E85
:1037C00000D00AE53B781B2BF3D17B785B2B01D033
:1037D0004F2BEED1BB78412B08D0422BE9D1FDF71E
:1037E00031FAFFF77DFAFB787E2BE2D1FDF7F2F993
:1037F000FFF776FA042E00D0EFE43B781B2BD8D1EC
:103800007B785B2BD5D1BB78352BECD0362BD0D148
:10381000FB787E2BCDD1E2E73A3B0B2B20D8844AB4
:103820009B00D35800269F46052E01D8814B1E7061
:10383000142474E4182E00D971E4F0B2FDF738F8BE
:103840000A246CE4022E01D87B4B1E70152466E41A
:10385000BA7900241300303BBD1D092B00D83DE48C
:1038600000265CE400240120EEE4002E01D1FFF7E5
:1038700037FA04AB9846012780213A006F48C90007
:103880002F7003F017F98021002249016C4803F0E2
:1038900011F900236B4C6C4D6C4A23602B60136054
:1038A0006B4A17706B4A13706B4A13806B4A138014
:1038B0006B4A137004F00CFD6A4B320018604146ED
:1038C000694806F045FC694826602E60FDF77EF8E1
:1038D000FFF706FA402E00D9402604AB320039002B
:1038E0001800984606F034FCC5E73200511E8A41A4
:1038F0005F4B10241A70FFF712FC3200511E8A41F0
:103900005C4B0F241A70FFF70AFC3200511E8A41EB
:10391000594B0E241A70FFF702FC3200511E8A41E7
:10392000564B0C241A70FFF7FAFB0322544B32401B
:103930000B241A70FFF7F3FB3200511E8A413B4BF8
:1039400013241A704F4B1878FCF7B2FFFFF7E7FB10
:103950003200511E8A414C4B12241A70FFF7DFFBD4
:103960003200511E8A41494B11241A70FFF7D7FBD0
:103970003B78202B00D03EE404AA1100444B31CB0D
:1039800031C131CB31C12B4B64211B78052B01D8C0
:103990009B00995872B63F4A13685B18136062B671
:1039A000FFF79EF9012B00D09AE0012E00D020E411
:1039B0003B78092B00D01EE4DEE70022202111E035
:1039C000BB5C1B2B00D123E6302B00D120E6180076
:1039D0008843512800D11BE61800313801320828ED
:1039E00000D8BDE0B242EBD1FFF77AF9012D00D14A
:1039F000E8E0022D00D09EE61A00083AD2B2772AFB
:103A000000D998E6244992008A5897460F00E5E5C8
:103A100004020020B3160020090000200800002046
:103A20008416002085160020018000200A1700203F
:103A300078C400080C00002009170020001400487A
:103A40000008004868020020640200205C02002098
:103A500055020020540200206E0200206C0200205B
:103A60004D020020580200207006002024BA0008F1
:103A7000081700200E0000200F0000201400002076
:103A80000D000020281B00200A0000200B00002051
:103A900028AA0008C0160020A8C4000804F018FCDA
:103AA000B44BB54A18601368B1469B191360B34B09
:103AB00080269846B24CB944F602B94501D1FFF7C9
:103AC0000FF943461B783D78002B04D02800FCF703
:103AD0003DFE002802D02068B04212D30137ECE747
:103AE000022B01D0FFF785FB012E01D0FFF781FBF0
:103AF0003B780D2B00D13FE70A2B01D0FFF77BFB72
:103B00003AE7431C290023600137FEF7F3F9D4E7B5
:103B10000A3BDBB2162B01D9FFF7E2F8994ADA40EB
:103B20001300DB0700D5FBE5FFF7DAF80022964B20
:103B30001A70964B01321A70FFF7D2F8831CB34209
:103B400005D2414649785B291CD04F291AD02378E9
:103B5000013B012B33D901228D4B1A70FFF7C0F8BE
:103B6000303BDBB2964208D9BA5C303AD2B2092A6D
:103B700003D80A214B439B18DBB2864A5BB2137011
:103B8000FFF7AEF8F95C3339C9B21129DFD8824B9F
:103B900089005B589F460122804B1A70FFF7A0F8FE
:103BA0007F4A303B1278DBB29A4201D8FFF798F88F
:103BB0007C4A137001227C4B1A70FFF791F80023A6
:103BC0002370F5E71A00313A082A3AD92022190061
:103BD00091430A0041292BD074490978002907D064
:103BE000542A42D02822190091430A00432938D090
:103BF000512B07D00FD8302B04D0422B02D0082BEA
:103C000000D098E5002301222370664B1A70664BA2
:103C10001A70FFF765F8623BDBB21D2B01D9FFF785
:103C20005FF8634ADA401300DB07EBD4FFF758F87C
:103C30005C4B383A1A705F4B1A705F4B1D70FFF780
:103C40004FF804F045FB5D4B564A186043461B781D
:103C5000313B5BB21370574A1370574B1D70FFF71F
:103C60003FF8504B383A1A7070E54E4B4A3A1A708A
:103C70006CE54C4B4A4A1B7812785BB2934201DBED
:103C8000FFF72EF84E4AD2564E4B1A70FFF728F81F
:103C90000330B04200D35AE73B5C7E2B00D056E79E
:103CA0002378022B01D0FFF71BF83E4B3C4A1B78D0
:103CB00012785BB2934201DBFFF712F8404AD35C03
:103CC000002B01D1FFF70CF83F4A5BB21370FFF7EE
:103CD00007F8344B324A1B7812785BB2934201DB0F
:103CE000FEF7FEFF364AD256384B1A70FEF7F8FF41
:103CF0002378012B01D0FEF7F3FF2A4B013A1B7802
:103D00005BB2934201DBFEF7EBFF2A4A1370FF22FE
:103D1000294B1A70FEF7E4FF2378012B01D0FEF740
:103D2000DFFF2049013A097849B2914201DBFEF7F1
:103D3000D7FF204A1170204A1370FEF7D1FF1949AE
:103D40000B7801335BB2934200DB002301220B703E
:103D5000154B1A70FEF7C4FF12490B78013B58B29D
:103D60001B0601D5501E40B201220F4B08701A707D
:103D7000FEF7B6FF90160020941600200B000020DE
:103D800098160020090040008416002085160020A7
:103D9000B11600200400002088C600088716002005
:103DA00009020020B3160020B21600200A170020D6
:103DB00001800020090000200800002004020020EB
:103DC0000C02002006000020070000200500002053
:103DD000F0B5DE4657464E464546E0B501268824F6
:103DE000C3B0FE4D02AF04F057FAAB693A19334342
:103DF000AB61AB690321334013601300F84A1B68C1
:103E0000136889468B431360FDF7C2FE64231B19B8
:103E100014220021D81906F041F980226B6992031F
:103E200013436B616B69EF481340C422B9180B60F0
:103E30000B0080221B686B69D20313436B616B69B3
:103E400000241340C822B9180B600B0080221B68A5
:103E50006B69120313436B616B691340CC22B91871
:103E60000B600B0080221B686B69920213436B612D
:103E70006B6992461340D022B9180B600B00802268
:103E80001B686B69D20213436B616B691340D422C8
:103E9000B9180B600B0080221B686B695203134337
:103EA0006B616B691340D822B9188022D20090460A
:103EB0000B600B00002241461B6802F0FBFD012253
:103EC000C949CA4802F0F6FD90200022FF21C00532
:103ED00002F0F0FD84210022C448490102F0EAFD0D
:103EE000EC23C34AF9180A60F0217A181460F4220E
:103EF000B81804608820883B1A18D119BD4802F010
:103F000033FCEC234046FA181060F021F4227918B3
:103F1000BA180E601460F8228820B918883B0C602B
:103F20001918C919AF4802F01FFCEC230222F91836
:103F30000A60F021B0487918086083468820F23280
:103F4000B918883B0E601918C919A84802F00CFC72
:103F5000EC230420F9180860F021083379180E606A
:103F6000F822F9180C604946B81801608820903B87
:103F70001918C9199D4802F0F7FBEC220823B9185B
:103F80000B6059460432B81801608820EC33F918E8
:103F9000903B0C601918C919944802F0E5FBEC231A
:103FA000FF21F422F81801600F3978180660B8185C
:103FB00004320460B81806608820883B1818C119BC
:103FC0009020C00502F0D0FBEC231020F918086007
:103FD000F0218346083378180460F81806608820BA
:103FE000903B1818C119814802F0BEFBEC226023F7
:103FF000F021B8180360781894330460EA3AF8188E
:1040000002608820903B1818C119784802F0ACFB78
:10401000EC237749F8180160F021F4227818046045
:10402000B81804608820883B1818C119734802F03A
:104030009BFBEC238421F81849010160F02108332F
:1040400078180660F822F81804608820903BBA18A7
:1040500014601A18D119654802F086FBEC22C023BF
:10406000B818F0219B000360F42378180460F81856
:1040700004608820903B1818C1195C4802F074FB5A
:10408000EC228023F021B8185B000360EA3A78182C
:1040900002604A460C3BF818083104607818026048
:1040A0008820F932903BBA1814601A189020D2195F
:1040B0001100C00502F058FBC023EC22F0211B01C7
:1040C000BA181360F42388207A180831166079181A
:1040D000FA18903B14600E601918CA191100434871
:1040E00002F042FBEC23FF21FA181160F0220833A2
:1040F000BA18FB18146088201C6064231A18D119A0
:104100003F4802F031FB00220021052002F08EF929
:10411000052002F0B5F900220021062002F086F900
:10412000062002F0ADF952466B69002113436B6122
:104130006B6913408C22B8180360036888236C20D5
:10414000C0180C22C01905F0A9FFEC2180227B18B1
:1041500052011A60882064231B1890200431924673
:104160007A181660D919C00502F0FEFA90200022D4
:104170005146C00502F09EFC642004F0AFF8902088
:104180005146C00502F0FCFB05F05AFC8820542380
:104190001B180C220021D81905F080FF194A1A4B70
:1041A0000420136080235B029361C2235946FF33CE
:1041B000D3619E3B5061FF3B100093469160D45405
:1041C000BA605460D46016611462946201F066FFB4
:1041D000DC210A2379180B60514617E000100240D9
:1041E0000000014000140048040C000000080048D2
:1041F000FFFF0000001000480000211000040048EC
:10420000000C00482C1B002000240140D633FB1872
:104210001960E4234946FB188822196054239B182F
:10422000D919584602F070F88022AB691201134385
:10423000AB61AB69E1481340C022B9180B600B00B9
:10424000E0221B68DE4BFF321C609A62783AFF3A2C
:10425000DE625E639A61802212021E625A648022CC
:1042600041461A607F3A02F025FC502004F036F8EF
:1042700000224146D14802F01DFCD24B1C707B67E6
:10428000D14B1C609B46D14B1C603B63D04B1C60E8
:104290009A46D04B1C707B60CF4B1C60FDF7D2FC64
:1042A000FA239C229B00BA1813609C217B181B6880
:1042B00079185A1E0A60002BF7D10B0080210022CA
:1042C000C648C9001B6802F0F5FBFA2398229B0040
:1042D000BA1813609822BB181C68BA18631E1360C2
:1042E000002CF7D180211300BC48012249011B6832
:1042F00002F0E0FB8021B148C900002202F0DAFBA5
:104300008422B74BBA1813601C70FDF78DF9FCF7C7
:1043100001FEB44B18787B64FCF7CAFA1021AF4851
:1043200002F0C2FBB04BB14A7B6518704342584162
:10433000BA66107003F0CCFFAD4B18603B65AD4B17
:104340001C60FB63AC4B1C70BB61AC4B1C707B6195
:10435000AB4B1C70FB62AB4B1C60FB60AA4B1C6040
:104360003B60AA4B1C60FB61A94B1C603B61A94BE5
:10437000BB631C70A84B3B641C70A84B1C807B6209
:10438000A74B3B621C80A74B1A007B630023137072
:104390008022A54BBA18FB67A44B1360A44B7B6625
:1043A000A44B3B66A44BFB65A44BBB67A44BFB66CD
:1043B000A44BBB64FB6F1B78002B00D052E2802320
:1043C000FB181B681B78002B00D043E27A6E137831
:1043D0005BB2002B09DBFF231478B86C210013704B
:1043E000FCF772FB2000FEF7C3F93A6E13785BB25C
:1043F000002B06DBFF23107813703F2801D8FCF751
:1044000075FBFA6D13785BB2002B11DBFF23147878
:104410001370631E3E2B02D82000FCF75DFD2100C7
:104420008948FCF751FB80220123BA1812681370E7
:10443000BB6F1B78002B00D0F9E1FB6E1B78DCB260
:10444000002B00D001E2814E3378002B00D0D3E264
:104450001021624802F028FB7B6D1C78844200D159
:1044600047E2187003F034FF3B6D1860BB6E1B7899
:10447000002B00D04EE28423FB181B681B78022B14
:1044800000D10AE2032B00D1EEE0714C012B00D1E8
:1044900057E22378002B20D053461A685B461B68EE
:1044A0009A4200D262E253465A461B6812689B1A2F
:1044B0009BB28022920093420FD200232370654B5F
:1044C0001A78654B1B78002A00D174E3002B04D1C5
:1044D0003B4A013311680B4313608423FB181B68AC
:1044E0001B78002B00D006E15B461A6853461B6818
:1044F0009A4200D106E1AE2358499B00CA58A43B1A
:10450000D358002B00D0FDE0524615685A46396B4F
:104510001268534E0A603278D1B28846002A00D120
:1045200055E35A464F481268825C0D2A01D100F0CB
:104530009CFF0A2A01D100F098FF5A461268AA424D
:1045400001D200F0ACFE5A4680211268C900891AD7
:104550005D4600290ED100F031FF2A688218D25C36
:104560000D2A0AD02A688218D25C0A2A05D00133A3
:10457000994202D032789A42EFD8AB461D1E01D143
:1045800000F01CFF5B461B68A9B2C01805F0AEFA2C
:104590005B465A461B68EB18136080231268DB00E9
:1045A0009A4202D300235A46136033789D4201D2C7
:1045B00000F0F9FF0023337024E3C04600140048E4
:1045C000002C0140271B00201C170020181700207A
:1045D00014170020241B0020201B00200008004886
:1045E000291B0020281B0020000000207C16002032
:1045F0007816002074160020721600207116002014
:104600007016002068020020640200205C02002076
:104610005802002055020020540200206E020020A3
:104620006C0200204D020020801600207F16002022
:104630000300002002000020010000207D16002061
:104640008216002068BA00087CBA00088116002093
:104650000C1700200B1700200A170020981B0020C1
:104660004C02002020170020C64D2B78012B01D1D1
:1046700000F06EFD2B78022B00D1F9E22B78062B8F
:1046800001D100F0D3FC2B78032B01D100F0D2FE36
:104690002B78042B01D100F060FF2B78BA4C052B4E
:1046A00000D0F6E6B94BBA4EBA4D1A7828003168F8
:1046B000FDF70CFD041E01D101F0E0F92100B64820
:1046C0002A003368FCF700FA2100B448FCF7FCF933
:1046D000B34803F003FE84220223BA181268137051
:1046E000B04A13700122B04B1A708023FB181B686C
:1046F0001A70A54CCDE6032B04D1A24B1B78042BDA
:1047000000D1F1E672B68423FB181B687A6F1B7820
:104710001278134300D1D0E162B6A44BBB651B787D
:10472000002B00D0E6E1A24C2378002B00D0B6E1AC
:104730008423FB181B681B78002B00D03AE69D4AA7
:104740001278002A00D135E69B4A1168002900D171
:1047500030E672B611681360894662B6974B1B78D3
:10476000002B01D000F04EFF954A964953689648B9
:10477000096803400B4353607A6C944B117894485A
:104780008A00521892009B185C684B46844201D8FC
:1047900000F07EFD642B01D900F0B0FD01204B46F6
:1047A000002B01D100F003FE0124032800D9840866
:1047B00000255E46874B3B670023902204E0C046FD
:1047C0009022BB181B680133B9180B600B689C4220
:1047D000F5D8534632681B689A4222D0AE233A6F0E
:1047E0009B00D258A43BD3589846002B19D153466E
:1047F0001B6832689A4201D301F0A4F83C21326868
:1048000088469A1A3B2A03D832689B1A9BB298466C
:10481000714B30684146C01805F068F9336843446D
:1048200033600135A945C7D1B34600F0C0FD002370
:10483000BA6F6A481370FCF7C9F8FDF759FFFB6EB1
:104840001B78DCB2002B00D1FDE50023FA6E13705B
:10485000FDF7BCFF80220023BA1812681370FDF721
:104860003FF9B3E50023FA6F1370FDF767F8A6E58B
:104870005B4B984201D900F03EFE8423FA22FB18DC
:104880001B6892001B78904200D38CE1022B00D071
:10489000F8E58022534BD2009A61534A1378D9B27B
:1048A000002B00D0DAE151480378DAB2002B01D0B6
:1048B00000F045FC4E490B785BB2002B01DA00F0AA
:1048C000B9FCFF230C780B70631E3E2B02D820002E
:1048D000FCF702FB47482100FCF7F6F89620400061
:1048E00003F0FCFCFCF786FE8423FB181B681B7896
:1048F000C8E503F0EDFC3B6D1B68C01A0E2800D81C
:10490000B4E5BB6E1D78002C00D0E2E2002D01D191
:1049100000F0CDFC03F0DCFCFB6B1B68C01AFA2333
:104920005B019842A4D30124FB6A32211C70FBF77F
:10493000EBFB80222B4BD200044200D039E19A627B
:1049400099E53B6C1B78002B00D0A6E1BB6B1B7874
:10495000002B00D09AE32378002B00D1D2E65346F7
:104960001A685B461B689A4200D39CE58021534637
:104970005A46C9008C461B68126863449B1A9BB256
:1049800097E5C046B01600200C1700200B00002051
:1049900098160020A0160020A8BF0008E0BF00085D
:1049A000DC050000B4160020B21600202A1B0020EF
:1049B000BC1600200A170020C01600200B1700208C
:1049C0000010024010170020FFFFFF8060CD00089C
:1049D000006CDC02981B002020170020CCB80008D7
:1049E000B70B000000140048B11600208716002005
:1049F0000700002014BB000880210122D848C9000C
:104A0000347002F057F8802100224901D54802F0A5
:104A100051F80A2003F062FC802101224901D148AB
:104A200002F048F83C2003F059FC80210022C90024
:104A3000CB4802F03FF8CC4B1C60CC4B1C70CC4BED
:104A40001C707B6F1C707C6C2078FBF731FF217829
:104A5000182900D900E18B005B18C64A9B009958C1
:104A6000C548FCF731F8C54B1B78002B00D1EFE4AB
:104A7000C34B1B78012B01D100F0D9FCC149022B9B
:104A800001D000F002FCC04B1B78052B00D9B7E227
:104A9000BE4A9B009A58BE48FCF716F8D8E403F0CB
:104AA00017FCBC4B1B68C01ABB4B984200D83FE6B2
:104AB00000232370FCF77AFE3AE662B64021A9484B
:104AC00001F0F2FFB54B1870002800D19AE272B6DF
:104AD000B34B1869C0B2FEF701F801228021A1484A
:104AE00001F0E8FF62B662B6AE4BBB651B78002BE7
:104AF00000D118E66B46BB62AB4B80219C46E54477
:104B000002AB002297484901FB6401F0D3FF0A2061
:104B100003F0E4FB0022FB6C16009846A34CA44D66
:104B200004E00136AE4201D100F02BFFFDF790FA10
:104B3000236830001B041B0C2360FDF797F94346E4
:104B40009855FF28EDD1B0463B2E01D800F061FF0B
:104B500085239B004446002699469649FD6C39679B
:104B6000AE223B6F92009A584B46D358002BFBD194
:104B700028003C213C3C04F0B9FF3C363C353B2C42
:104B8000EED8464501D200F0D6FC8423FB181B6802
:104B90001B78002B01D100F0B7FC0023BA6D137015
:104BA000BB6A9D46BFE50123BA69137080226C4B36
:104BB000D2009A615FE4002B00D08EE47E4A7F49E8
:104BC00053687F48096803400B43536085E45B46A4
:104BD0001B68AB4200D246E35B461A68F1239B0098
:104BE0009A4201D200F015FC5B46802118681B68D0
:104BF000C900C91A734B89B2C01804F077FF5B462D
:104C000042461A602378002B00D17BE553461A6890
:104C10005B461B689A4201D200F0EFFB53465A46AE
:104C20001B6812689B1A9BB280229200934200D3A9
:104C300068E500232370644B504A1B781278002BE0
:104C400001D100F047FD002A00D05BE501235F4A57
:104C500011680B43136055E55D4901E700231370AC
:104C6000FDF72CF88423FB181B681B78FFF70AFC60
:104C7000584C2368002B00D100E503F029FB564B6C
:104C80001B68C01A632801D900F06FFD8423FB184C
:104C90001B68524C1B78FFF7F9FB7B6B1B78002BD2
:104CA00001D100F0C0FE796A386A0B884C4D028849
:104CB000A8464C4E9A4200D1BBE04B4B80253B6747
:104CC0004A4BBC6299465B46BB655346B3468A462F
:104CD0000400FE69ED02FB641EE03368AB4200D1C4
:104CE000F0E05B461B78002B10D053461A882388CF
:104CF0009A4200D280E053461B8822889B1A3C4A85
:104D00009BB2D31A9BB2FF2B00D984E053461A887A
:104D100023889A4200D186E0424623889BB2D15C28
:104D20002388C9B201339B059B0D23803368AB42B6
:104D3000D3D23068431C3360FDF7DCF84B46326851
:104D40001B689A42CDD331682A48FBF7BDFE80220A
:104D50004B46D20094464A461B6863441360C0E742
:104D60000014004800080048C0160020C5160020A6
:104D7000C416002060CD000890BA00080A17002071
:104D800009170020F0AC00080C000020D0C6000875
:104D900004B60008B8160020B70B0000261B002040
:104DA000000C00482A1B002078ECFFFF000400489C
:104DB00088130000981B00200010024010170020EC
:104DC000FFFFFF80201700200B170020002C014060
:104DD00040AA000898160020901600200C1700200A
:104DE000700200202C260020B0C0000850020020D5
:104DF000FF03000098C0000880215346C9008C467C
:104E00001B88228863449B1AE34A9BB2D31A9BB245
:104E1000FF2B00D87AE704F095FE53461A882388C2
:104E20009A4200D078E7FB6C5E469A46BB6DBC6A3E
:104E30009B463378002B00D036E27B6B1B78002B2F
:104E400001D1FFF726FB7B6A1A883B6A1B889A42CE
:104E500001D0FFF71EFB03F03BFA3B691B68C01A49
:104E6000632801D8FFF715FBCC4B1B78002B08D02B
:104E70008022FB69D2021B680633934201D800F0FE
:104E800078FE8023F869DB02026819009A4200D894
:104E90000168C348FBF718FEC24B1B78002B01D0FA
:104EA00000F08EFEC048FBF791FD0023BA6B137033
:104EB0003A6C13707A6B1370FA68136004F042FE58
:104EC000FFF7E7FA386FFBF781FD33680133336092
:104ED00007E7012C01D0FFF7C9FA002D01D1FFF738
:104EE000CAFA0023BA6E137003F0F2F9F96AFA6B8A
:104EF00009781268002901D000F00CFD831AFA220B
:104F00005201934201D300F005FD7A691278002A1C
:104F100001D000F01AFEA54A934201D900F015FE17
:104F2000BA691278002A01D000F08DFEFA24A4009C
:104F3000A34201D300F087FE8422BA1812681278C7
:104F40000E2B01D800F0E8FC022A01D100F0A4FEEB
:104F5000012A01D100F0C7FE802101229448C90036
:104F600001F0A8FD802100224901924801F0A2FD34
:104F70000A2003F0B3F98021012249018D4801F094
:104F800099FD3C2003F0AAF980210022C90088483D
:104F900001F090FD0023884A7C6C1360874A2078DA
:104FA0001370874A13707A6F1370FBF781FC2178B6
:104FB000182901D900F094FE14224A43814BD1589C
:104FC0008148FBF781FD814B1B78002B01D100F05C
:104FD000A3FC7F4B1B78012B01D100F060FE7D49C3
:104FE000022B00D07C497D4B7D4A1B78052B02D8D3
:104FF0007C4A9B009A587C48FBF766FD00F08CFCCD
:10500000774A48E520216B4801F04EFD774B187038
:10501000002800D160E17B681B78002B01D100F0F3
:10502000EBFC72B6B86801F06BF953E5704A13787F
:105030005BB2002B01DAFFF75CFBFF2314781370DF
:10504000631E3E2B02D82000FBF746FF2100694873
:10505000FBF73AFDFBF750FEB02300211B029842FC
:1050600000D2191A644B1B688B4200D940E3634895
:10507000FBF72AFD6248FBF7A9FC03232B70813361
:10508000FB181B685F4C1B78FFF700FA03F020F950
:105090003B691B68C01A632801D8FFF7FAF95A4B1D
:1050A0005A4D1B78002B28D02B68002B25D0F9688F
:1050B0002A680B6800269A4202D92E680B68F61AF5
:1050C000642029682B68704398462B689946FB68D2
:1050D0001B683B67FBF718F8B865FA20800041466B
:1050E0007043FBF711F80A21FBF794F80091BB6DB0
:1050F00049463A6F4648FBF7E7FC464AFE68904649
:10510000284A264B127831681B78404600920022CC
:10511000FDF7B6F90023BA6B13703A683360136079
:10512000FA692B6013603A6C13707A6A13803A6ADA
:1051300013807A6B137004F005FDFFF7AAF9017074
:10514000FBF72CFF8423FB181B681B78FFF79AF9E9
:1051500031493248FBF7B8FC3148FBF737FCFCF724
:1051600077FFFCF71BFF2F48FBF730FC2E48FBF7BF
:105170002DFC0022204B1A602C4B1A6003F0A8F87B
:105180002B4B204C186002232B708233FB181B68BA
:105190001B78FFF77BF9C046FF0300000E000020DC
:1051A000ECC000080F00002020B80008B70B00007A
:1051B0000014004800080048C0160020C516002052
:1051C000C416002060CD000890BA00080A1700201D
:1051D00009170020F0AC0008E0AC00080C0000202B
:1051E000D4AC0008D0C6000804B60008251B002077
:1051F0000400002014BB000898160020A8BD000879
:1052000074BD00080C170020081700206002002061
:1052100014C1000870060020A01600202CBB000856
:105220003CBB000858BB000864BB00089416002073
:1052300090160020DF490B785BB2002B53DADE4971
:105240000B785BB2002B00DA74E2FF2308780B7056
:105250003F2800D91AE5FBF749FC8423FB181B689B
:105260001B78FFF70FF95B461B68EB1A3B2B00D945
:10527000CFE05B4618681968D04B691AC01889B22C
:1052800004F034FC5B461D60BCE4CD49FFF7FBFB3A
:10529000642B33D82100FAF737FFFFF780FA5A461C
:1052A0001168691AFFF754F904F04CFCC5E50123B5
:1052B000BA6E137003F00CF88021FB6B00221860AB
:1052C000BB69C0481D707B6949011D70FB6A1D7078
:1052D00001F0F0FBFFF7CAF800228021B94801F085
:1052E000E9FBFFF719FAFF2308780B70FDF740FA86
:1052F0008423FB181B681B78FFF7C4F80023B24A0D
:1053000048460021FBF796F822000023FBF772F8CD
:10531000041E00D1F2E1AD4B5D4698468023DB00D0
:10532000994656462100642C00D96421942000231C
:105330003818036094203B184A001B6852188C46AA
:1053400052009A420AD9C04694203B181B6839186B
:1053500001330B600B689342F5D361462A683368CA
:10536000641A9A421FD0AE2342469B00D258A43BF7
:10537000D3589A46002B16D133682A689A4220D215
:105380003C212A688A469A1A3B2A03D82A689B1A23
:105390009BB29A46894B28685146C01804F0A6FB78
:1053A0002B6853442B60002CBCD1AB46B246884AD4
:1053B000884953680B405360FEF7FCFF0125FFF757
:1053C000E1F84A462B68D31A3C2293463B2B04D87B
:1053D0004A462B68D31A9BB29B46784B286859469D
:1053E000C01804F083FB2B685B444B4502D22B684A
:1053F0005B449A4653462B60D5E7802153465A4674
:10540000C9008C461B68126863449B1A9BB2FFF765
:105410000BFC5B461868694B3C21C01804F066FB26
:105420005B465A461B683C331360FFF7EBFB6A4947
:10543000FFF729FB694B1A78002A01D1FFF759F9C8
:1054400000221A70664B1B78DCB2934200D029E22E
:105450006448FBF7BBFA644B1C7005232B707F3349
:10546000FB181B681B78FFF710F8882154225F4B4C
:105470005218D219138056224B235218D219137086
:105480005B461B689D4200D162E357235B18DA1923
:105490008023DB009C460023A14698462C005B46F7
:1054A00005008539100010E01A680131AA5CC9B204
:1054B00002701A6801321A601A68624501D34246C6
:1054C0001A601A680130A24209D01A68AA5C0D2A33
:1054D00003D01A68AA5C0A2A01D11029E4D19B469C
:1054E0004C46882254239B18D81904F0FFFA002355
:1054F0003370FFF787FB962001237A6980001370D1
:10550000FBF79AF9FEF7B7FFFCF79CFB802100221E
:10551000C9002C4801F0CEFA0A2002F0DFFE10216B
:10552000284801F0C1FA002800D075E2012002F0FD
:10553000D5FEFFF732FBAE23852224499B00C958D4
:1055400092008B58002BFCD14346991BFB6C89B20F
:10555000981904F0CBFAFFF718FBBB6E32781B7872
:105560001A4300D1CCE08021002249011548327055
:1055700001F0A0FAFDF7BCF81D48FBF727FA1D481B
:10558000FBF724FA9620C00002F0A8FE8422022332
:10559000BA181268184C1370184A13700122184B6D
:1055A0001A70FEF776FF33785B1BDBB23370FFF7C0
:1055B00029FBC0460600002005000020201700201F
:1055C000E0AC00080008004840420F00981B002093
:1055D00000100240FFFFFFF0ECAC00088516002031
:1055E0008416002028BE0008881600201B5B0000DF
:1055F000E4BE000824BF00080C170020B4160020E9
:10560000B216002001250026DF4C23682B432360BF
:10561000DE4B3B67B14214D0B0465E468B462369F1
:10562000AB43236104E0534632681B689A420FD1B2
:1056300023691D42F7D001239C46E044C345EED1C7
:10564000B3460121D04A13688B431360FEF7B2FEC4
:10565000AE233A6F9B00D258A43BD3589946002BF7
:10566000E6D153461B6832689A4213D23C21326815
:1056700089469A1A3B2A03D832689B1A9BB29946EC
:10568000C34B30684946C01804F030FA33684B44C5
:105690003360CDE780223C213368D200D31AB9654C
:1056A0003B2B03D83368D21A93B2BB65B84B306832
:1056B000B96DC01804F01AFAB96D80228C463368AF
:1056C000D2006344934202D28946336899444B46E0
:1056D0003360ADE7002A01D0FFF714F8AD4AAE49B8
:1056E0005368AE48096803400B435360FFF70AF85C
:1056F000AB48591AFBF7E8F9FFF7C8FA01340AE694
:10570000A84B1978CCB2002900D0D1E102F0E0FD1D
:10571000A54B1B68C01AA54B984201D8FFF7B6FAF3
:105720008021A3482200490101F0C4F9A148FBF7F8
:105730004DF992E6A04B197849B2002900DBA5E1AA
:105740009E4B1978002900D0BCE1BB6E1B78002B62
:1057500001D0FFF79BFA9620C000FBF76DF8842379
:10576000FB181B681B78FEF78DFE95482168FBF738
:10577000ABF9944B1B78002B24D0934B1E68002E62
:1057800020D023689946002398464E4502D94B46BF
:10579000F31A98464346642031005843FAF7B4FCA4
:1057A0003867FA204246800050433100FAF7ACFCDB
:1057B0000A21FAF72FFD00914A4631003B6F8348DA
:1057C000FBF782F9FBF798FAB02300221B029842FC
:1057D00000D275E1B02321681B02994200D9AFE1E4
:1057E000914200D990E17A4B1A78002A00D141E425
:1057F000002278481A70FBF7E9F87748FBF7E6F8DB
:105800000122764B1A70764B1B78002B00D049E2B0
:10581000FCF718FAFA23AC229B00BA181360AC21EB
:105820007B181A687918531E0B60002AF7D10B00F9
:1058300080215F48C9001B6801F03CF9FA23A822C7
:105840009B00BA181360A822BB181E68BA18731EF2
:105850001360002EF7D113001B687B6C1878FBF7E0
:1058600027F8534680211E605B465E4C320049019A
:105870004F481E60267001F01DF90A2002F02EFD2F
:10588000802101224A48490101F014F902F020FD6B
:10589000454B186004232B708033FB181B681B7862
:1058A000FEF7F4FD5048FBF791F84B48FBF78EF8F4
:1058B0004E48FBF78BF84E48FBF788F80122474B20
:1058C0001A70474B1B78002B00D0FEE0FCF7BAF9AA
:1058D000FA23B4229B00BA181360B4217B181A680B
:1058E0007918531E0B60002AF7D10B008021304835
:1058F000C9001B6801F0DEF8FA23B0229B00BA1839
:105900001360B022BB181E68BA18731E1360002EF5
:10591000F7D1A0E7FCF7ECFE0023BA6913707A69AF
:105920001370FA6A13708433FB181B681A78002A04
:1059300001D0FEF79BFD80212E48C90001F0BAF886
:10594000FEF794FD80223C213368D2008B46D31AA7
:105950003B2B03D83368D31A9BB29B460C4B306861
:105960005946C01804F0C2F880223368D2005B4464
:10597000934202D233685B44984643463360FEF755
:1059800050FFB046FFF7E4F8002C0140981B0020C0
:10599000201700200010024010170020FFFFFF809A
:1059A000E0BD0008831600208C1600200F270000A1
:1059B000000800486CBF000809000020B216002053
:1059C000ACBB00080B00002094160020CCBB0008E4
:1059D0007E1600203CBD00085CBD00088816002033
:1059E0000E0000200C1700204CBE000870BE0008FE
:1059F000ACBE000800140048BC68200000F0F2FBB8
:105A00000121200000F01AFC01237A681370FFF7CF
:105A100008FB0026FFF7B5F880210122D54849018F
:105A200001F048F882E5D448FAF7D0FFFCF710FB04
:105A3000FCF7B4FAD148FAF7C9FFD14B8026984653
:105A4000230000254446984676012800615D013513
:105A5000FCF750FAB542F8D1FB69CA481D601968D5
:105A6000FBF732F8A022C84B52011A6001237A6B6F
:105A70004446137004F066F8FFF715F9C348FAF7C7
:105A8000A5FFC348FAF7A2FFFEF722FEC14A187825
:105A90001178FF2249B21A70FCF70AFF8423FB1821
:105AA0001B681B78022B01D0FEF7ECFCFEF71AFFF7
:105AB0008021B04849011A7000F0FCFFB64836E674
:105AC0001A1A87E61A70FEF70DFFB44C5B212068A6
:105AD000FCF710FA20682D210130FCF70BFA206842
