:020000040800F2
:100000000040002019040008D92A0008DD2A000851
:1000100000000000000000000000000000000000E0
:10002000000000000000000000000000E12A0008BD
:100030000000000000000000E52A0008E92A00088E
:10004000C1040008C1040008C1040008C10400087C
:10005000C1040008F12A0008FD2A0008C1040008B4
:10006000C1040008C1040008C1040008C10400085C
:10007000C1040008C1040008C1040008C10400084C
:10008000C1040008C1040008C1040008C10400083C
:10009000C1040008C1040008C1040008C10400082C
:1000A000C1040008C1040008C1040008C10400081C
:1000B000C1040008C1040008C1040008B92B0008ED
:1000C00010B5064C2378002B07D1054B002B02D02E
:1000D000044800E000BF0123237010BDD8010020B8
:1000E00000000000AC740008044B10B5002B03D0D6
:1000F0000349044800E000BF10BDC04600000000F6
:10010000DC010020AC740008002243088B4274D349
:1001100003098B425FD3030A8B4244D3030B8B4208
:1001200028D3030C8B420DD3FF22090212BA030C11
:100130008B4202D31212090265D0030B8B4219D3F2
:1001400000E0090AC30B8B4201D3CB03C01A524112
:10015000830B8B4201D38B03C01A5241430B8B425A
:1001600001D34B03C01A5241030B8B4201D30B0343
:10017000C01A5241C30A8B4201D3CB02C01A52416A
:10018000830A8B4201D38B02C01A5241430A8B422D
:1001900001D34B02C01A5241030A8B4201D30B0216
:1001A000C01A5241CDD2C3098B4201D3CB01C01A30
:1001B000524183098B4201D38B01C01A524143093A
:1001C0008B4201D34B01C01A524103098B4201D328
:1001D0000B01C01A5241C3088B4201D3CB00C01A95
:1001E000524183088B4201D38B00C01A524143080D
:1001F0008B4201D34B00C01A5241411A00D2014632
:10020000524110467047FFE701B5002000F0F0F8BA
:1002100002BDC0460029F7D076E7704703460B437E
:100220007FD4002243088B4274D303098B425FD3EF
:10023000030A8B4244D3030B8B4228D3030C8B421B
:100240000DD3FF22090212BA030C8B4202D3121201
:10025000090265D0030B8B4219D300E0090AC30BD6
:100260008B4201D3CB03C01A5241830B8B4201D383
:100270008B03C01A5241430B8B4201D34B03C01A6C
:100280005241030B8B4201D30B03C01A5241C30AE4
:100290008B4201D3CB02C01A5241830A8B4201D355
:1002A0008B02C01A5241430A8B4201D34B02C01A3F
:1002B0005241030A8B4201D30B02C01A5241CDD2E4
:1002C000C3098B4201D3CB01C01A524183098B422F
:1002D00001D38B01C01A524143098B4201D34B0118
:1002E000C01A524103098B4201D30B01C01A52417B
:1002F000C3088B4201D3CB00C01A524183088B4202
:1003000001D38B00C01A524143088B4201D34B00EA
:10031000C01A5241411A00D201465241104670475C
:100320005DE0CA0F00D04942031000D34042534061
:1003300000229C4603098B422DD3030A8B4212D321
:10034000FC22890112BA030A8B420CD38901921153
:100350008B4208D3890192118B4204D389013AD090
:10036000921100E08909C3098B4201D3CB01C01A65
:10037000524183098B4201D38B01C01A5241430978
:100380008B4201D34B01C01A524103098B4201D366
:100390000B01C01A5241C3088B4201D3CB00C01AD3
:1003A000524183088B4201D38B00C01A5241D9D2EB
:1003B00043088B4201D34B00C01A5241411A00D26C
:1003C0000146634652415B10104601D34042002B68
:1003D00000D54942704763465B1000D3404201B5E7
:1003E000002000F005F802BD0029F8D016E770479C
:1003F0007047C0460023C25C0133002AFBD1581E5F
:100400007047000003B47146490840004900095E86
:1004100049008E4403BC70471E4885461E4801684B
:100420001E4A914212D1002101601D48016801223B
:10043000114301601B4801680322914301221143CB
:100440000160194801688D464168084714480168F1
:1004500001221143016013480168032291430160A6
:1004600012481349134A002302E0D458C4500433FD
:10047000C4188C42F9D3104A104C002301E01360D9
:100480000432A242FBD302F0C1FB06F0A1FB01F053
:10049000CDFAFEE700400020F03F0020EFBEADDEC9
:1004A000181002400000014000C8FF1F000000209B
:1004B000D801002028850008D8010020AC2D00209C
:1004C000FEE70000F8B5070010000C001600FFF76B
:1004D00091FFA04216D8002816D0002402E0013473
:1004E000A04211D0395D335D0A00613A192A01D862
:1004F0002039C9B21D00613D192D01D8203BDBB266
:100500009942ECD00020F8BD0120FCE770B5040052
:1005100004F058FC2100FFF77DFE0B0061088B42C0
:100520001FD25801C01A8000C018C000FFF7ECFDB0
:10053000114B5C68002C00D1104CFA210E4B890045
:1005400040439D68FFF7E0FDFA2160438900FFF713
:10055000DBFD80220A4B641BD200A0420AD99A61BB
:1005600070BDE41A6001001B80000019C000FFF795
:10057000CBFDDDE79A62F3E710E000E080BB00000E
:100580000014004810B5022800D010BD00228021C0
:10059000034803F009F80022024B1A70F5E7C04641
:1005A00000080048431A002010B50C2813D80C4B43
:1005B000C2009B185A680B4B18700B4B00201A6036
:1005C00019681A68E023DB051A40F0231B0519405F
:1005D00004F0B0FA10BD8A220320D205EBE7C04632
:1005E00014840008441A00202C160020F0B5D646CA
:1005F0004F464646C0B58046FFF7FCFE071E20D09A
:10060000184B85269A46AE239B00994653464A4688
:1006100000249B58B6003D1B402D1FD8A9B212489C
:100620009A59002A16D14346181905F0D9FF5346A6
:100630004A460D499B589A59002A07D16419A74286
:10064000E9D8E0BCBA46B146A846F0BD0139002958
:10065000F1D1F3E701380028E2D1E4E74025402159
:10066000DDE7C046B81A0020400D03000FB400B506
:10067000A3B024AB04CB802102A8019306F06EFA4C
:1006800002A8FFF7B3FF23B008BC04B01847C04668
:1006900030B51F4C83B023780B2B01D903B030BD8C
:1006A00001331C4DDBB22370DB00EB185A681A4B88
:1006B00000201A6019681A68E023DB051A40F0234D
:1006C0001B05194004F036FA23780C2B1DD8DB00EB
:1006D00059591248FFF7CAFF802101221048C9006A
:1006E00002F062FF00230193019B0E4A934205DC56
:1006F000019B01330193019B9342F9DD802100228C
:100700000748C90002F050FFC8E70749E1E7C046C3
:10071000441A0020148400082C160020CC74000811
:10072000001400485FEA0000C474000810B5234CB0
:1007300082B02378002B01D102B010BD013BDBB2A7
:100740000C2B34D81E4AD9005218526823701D4B06
:1007500000201A6019681A68E023DB051A40F023AC
:100760001B05194004F0E6F923780C2B23D8144A12
:10077000DB0099581448FFF779FF80210122C90056
:10078000124802F011FF002301930199104B1A0047
:10079000994205DC019B01330193019B9342F9DDF2
:1007A000802100220948C90002F0FEFEC4E78A2227
:1007B0000323D205CAE70749DCE7C046441A0020F4
:1007C000148400082C160020CC7400080014004883
:1007D0005FEA0000C4740008F0B5DE464E464546A8
:1007E0005746E0B55D4885B0FFF700FF5C4B00243D
:1007F0009B461800FFF7FAFE5A48FFF7F7FE5846E7
:10080000FFF7F4FE5848FFF7F1FE5846FFF7EEFEFB
:10081000564B6D469A46564B564E9946564B984601
:10082000082C00D97FE0554AA300D3589F462A00E0
:10083000534B83CB83C21B78524913700023F3566A
:10084000A34224D02A005048FFF710FF0134092C9E
:10085000E6D15846FFF7CAFE4C48FFF7C7FE584698
:10086000FFF7C4FE4A48FFF7C1FE05B0F0BCBB4627
:10087000B246A946A046F0BD2A00464B83CB83C2B0
:100880001B78454913700023F356A342DAD12A009E
:100890004248FFF7EBFED9E72A00414B83CB83C2E6
:1008A0001B7840491370C9E73F4B1B78002B46D09B
:1008B0003E4B102128003E4A06F0ECF83D49BDE7CA
:1008C0003D4B1B78002B3CD03C4B10212800284A84
:1008D00006F0E0F83A49B1E73A4B102128001B68CE
:1008E000394A06F0D7F83949A8E7394B1B78012B6C
:1008F0002DD0022B29D0032B2DD0364B10212800D0
:100900001B4A06F0C7F8344998E7344B1B780C2B88
:100910001FD8334ADB009B5810212800144A06F0E8
:10092000B9F830498AE753461B78002B0BD0234B8C
:1009300010214A46280006F0ADF841467EE7254BD7
:10094000B7E7294BC1E7284BF2E7284BD6E7284BFE
:10095000D4E7284BE0E7284BD0E7C04620760008D4
:100960002C760008607600089476000808000020C5
:10097000C87600082916002040750008907C000801
:1009800010770008247500084077000858770008A1
:100990008C770008007700080476000820770008AC
:1009A000F0760008E875000802000020FC740008DA
:1009B000E47600089475000803000020E87400083D
:1009C0007875000804000020D47600085C750008E3
:1009D0000100002004750008CC750008441A0020AE
:1009E00014840008B0750008F0740008147500083D
:1009F0000C750008C47400081C7500081D4B1E4AC5
:100A00001968F0B5914212D0032501270126012370
:100A10000124102019491A4A0D70137019491A4BF4
:100A20000F701C7019491A4B0E701860F0BDD86811
:100A30001D795F7982189E795219D979D2191C7A59
:100A4000921952181B6912199342DDD10C2D00D94D
:100A500003257B1E9F41731E9E414B1E9941FFB291
:100A6000F6B2CBB2032C00D90124011F3C29D1D905
:100A7000CFE7C04600F80108012C07BF441A002048
:100A800002000020080000200100002003000020D8
:100A900004000020F0B5C646002300B58AB00793D5
:100AA0009846254B05A90593244B1F78244B1E78A7
:100AB000244B1C78244B2204944665461878330254
:100AC0003B432B431C4D0206AC46134306931F4B7E
:100AD0001A781F4B0A721B68CB606344DB199B19A1
:100AE0001B191C4C1B189B18200014220B6106F0CC
:100AF00041F8002803D10AB080BCB846F0BD02F02E
:100B00008DFB434601A90193029302A8013303948C
:100B1000049302F0F9FA00280BD10F4E0F4D6E44EA
:100B20002100325900230220043402F0C9FBAC42F8
:100B3000F6D102F087FBDEE7012C07BF441A002044
:100B40000800002003000020020000200100002017
:100B50000400002000F801081408FEF714F801084A
:100B600002220A4B10B51A700022FF21084B0948D7
:100B70001A70094B1970094B7F391A70084B0132F2
:100B80001A704901002202F00FFD10BD451A002025
:100B90002916002000080048000000202716002029
:100BA0002816002010B5A0B03022002114A805F0AE
:100BB000EFFF1022002102A805F0EAFF1C2200210D
:100BC0000CA805F0E5FF1822002106A805F0E0FFBB
:100BD00032231024139313A8313B16931B931893BD
:100BE0001794199403F0F2FC0723002401210293C7
:100BF00002A8043B03930494059404F00DF88023A9
:100C00000CA89B020C93129403F000FC8022A021FC
:100C10000020D205C90403F08DFF80210C4B09058B
:100C2000DA6906A80A43DA61DB6922220B400193E4
:100C3000019B80239B050793064B06940993202371
:100C400008940A920B9303F097FC20B010BDC046A5
:100C5000001002407FBB000030B587B01422002195
:100C6000684605F095FF8021154D01222800C90036
:100C700002F09AFC802128000122090102F094FC74
:100C8000FF2200240023694612020E4800920193BD
:100C9000029402F077FBC0220023694628009200EC
:100CA00000920193029402F06DFB0023064A69460C
:100CB000064800920193029402F064FB07B030BD35
:100CC0000008004800040048FFFF00000010004832
:100CD00030B5802583B0FFF7DDFE0022244C254B84
:100CE000ED00290020001A7002F05EFC224BA56284
:100CF0001B780C2B39D8214ADB0099582048FFF784
:100D0000B5FCFFF7A9FFFA239B000193019B5A1E34
:100D10000192002BFAD1802100221A48C900019BC0
:100D200002F042FCFA239B000093009B5A1E0092A3
:100D3000002BFAD18021002249011248009B02F0C9
:100D400033FC0A2004F044F880258021084CED0093
:100D500001220C48490102F027FC00222900200052
:100D600002F022FCA56203B030BD0749C6E7C046C9
:100D700000140048451A0020441A0020148400087A
:100D8000B877000800080048C474000870B50D006A
:100D9000012680211B4A03041B0C82B05361020C04
:100DA000040032401848490002F0FEFB8021620C2A
:100DB00015483240890002F0F7FBFF21134B2D024A
:100DC0005A691148114029435961802100220901C3
:100DD00002F0EAFB0A230193019B5A1E0192002BA9
:100DE000FAD18021012208480901019B02F0DCFBB5
:100DF0000A230093009B5A1E0092002BFAD1009BFD
:100E000002B070BD0010004800080048000400480F
:100E100030B5802101251D4A03041B0C85B05361A8
:100E2000020C04002A401A48490002F0BDFB802150
:100E3000620C17482A40890002F0B6FB0A2303938C
:100E4000039B5A1E0392002BFAD1802100221048E6
:100E5000C900039B02F0A8FB0A230293029B5A1EBF
:100E60000292002BFAD16A468021029B094BD41DC5
:100E70001B6907481B0ADBB2D371C900012202F0CB
:100E800093FB2078C0B205B030BDC04600100048CA
:100E90000008004800040048F8B50E00050040278F
:100EA000224C234A2368AA211B041B0C13432360F2
:100EB0002048FFF76BFF55211F48FFF767FFA02170
:100EC0001C48FFF763FF31002800FFF75FFF23682E
:100ED0001A4E1B041B0C23602800FFF799FF040027
:100EE0002800FFF795FF444027420FD0013E002E17
:100EF000F2D12800FFF78CFF04002800FFF788FFDD
:100F0000604007420FD001267642E5E72800FFF750
:100F10007FFF04002800FFF77BFF4440274202D0F8
:100F2000013E002ED8D10020F8BDC0460004004884
:100F30000000555555550000AA2A000050C3000076
:100F400070B54026264C274A2368AA211B041B0C97
:100F5000134323602448FFF719FF55212348FFF767
:100F600015FF80212048FFF711FFAA211E48FFF737
:100F70000DFF55211D48FFF709FF10211A48FFF703
:100F800005FF23681A4D1B041B0C23600A20FFF782
:100F90003FFF04000A20FFF73BFF444026420FD0EA
:100FA000013D002DF2D10A20FFF732FF04000A2094
:100FB000FFF72EFF604006420FD001256D42E5E7A6
:100FC0000A20FFF725FF04000A20FFF721FF444015
:100FD000264202D0013D002DD8D1002070BDC04670
:100FE000000400480000555555550000AA2A00008D
:100FF000404B4C00D0B586B014220021684605F065
:10100000C7FD8021154C01222000C90002F0CCFA56
:10101000802120000122090102F0C6FAC02201232A
:101020000026012769462000920000920193029653
:10103000039702F0A7F90123094A6946094800927B
:1010400001930296039702F09DF90749074A0B683E
:101050001B041B0C13430B6006B0D0BD00080048F6
:10106000FFFF000000100048000400480000555534
:10107000F0B54E464546DE465746E0B587B01C0003
:1010800010AB1B780E008046111E019300D1F4E0D6
:1010900032007E48FFF7EAFA802100227C484901AD
:1010A00002F082FA80210122C9007A4802F07CFA1B
:1010B0007948FFF79BFAFFF79DFFFFF741FF77485D
:1010C000FFF794FA04AB9A465146754B1A6804929E
:1010D0009A888A809B798B71002C2DD08023B51D36
:1010E000DB029D4200D977E0092D28D90A2128008A
:1010F000FFF70AF8814653469B1B9B46694B6427C2
:101100000093330000244E46994610E04346195D93
:1011100020000134FFF7C0FE31002000FFF77AF80D
:10112000002960D0AC426DD06437AC4268D2A14592
:10113000ECD85B46195DEBE73500092DD6D8002DBC
:1011400000D09FE05848FFF751FA5848FFF74EFA91
:101150005748FFF74BFA019B0125002B00D188E08F
:101160005448FFF743FA802100224A48C90002F0A0
:101170001BFAFFF771FDFA239B000393039B5A1E92
:101180000392002BFAD1802100224148C900039B21
:1011900002F00AFAFA239B000293029C631E029358
:1011A000002CFAD18021002249013948029B02F02B
:1011B000FBF90A2003F00CFE80210122344849018A
:1011C00002F0F2F93C4B1C70280007B0F0BCBB46A3
:1011D000B246A946A046F0BD0A213000FEF794FFB2
:1011E0003500814687E729003800FEF78DFF2B0088
:1011F000010022000098FFF739FA6437AC4296D319
:101200004E460BE029003800FEF77EFF254C01001A
:101210002B002A0020004E46FFF728FA2248FFF74D
:10122000E5F953469B1B00249A460AE043462000FA
:101230001F5DFFF7EDFD87420CD10134AC4200D1B8
:1012400083E7A642F2D8534620001F5DFFF7E0FD7A
:101250008742F2D0194D03003A0028002100FFF721
:1012600005FA1348FFF7C2F9019B0025002B00D0B7
:1012700076E71348FFF7BAF9A6E731001148FFF700
:10128000F5F909E70123994635E7C046F4770008E8
:101290000008004800140048307800084078000832
:1012A000FC7400084878000870780008BC780008D2
:1012B000C4780008F0780008451A002084780008F7
:1012C0000C7900081478000800B5104883B0FFF7C7
:1012D0008DF901230E4A00930E4900230E48FFF7B3
:1012E000C7FE00230D4A13700D4A13600D4A1360A8
:1012F0000D4A13600D4A13700D4A13800D4A138076
:1013000000220D4B1A7003B000BDC0463C790008A6
:101310006C7900087D060000947D00080102002021
:10132000100200200C020020080200200002002011
:101330001602002014020020F801002010B5082831
:1013400005D8324B80001B589F46FFF7C1FC10BDEB
:101350002F48FFF74BF9C82003F03AFD01222D4B2F
:101360001A7000222C4B1A70F1E72C4A137859425C
:101370004B411370EBE72A4A1368042B3DD0082B2E
:1013800038D0102B3CD0202B3DD004231360DEE757
:10139000244A137859424B411370D8E7224A1378F4
:1013A00059424B411370D2E7204C0D212078013077
:1013B000FFF71AF81E4B2170C9005B185A681D4BC5
:1013C00000201A6019681A68E023DB051A40F02330
:1013D0001B05194003F0AEFBB9E7032316490A7851
:1013E000013213400B70B2E71448FFF7FFF8FFF724
:1013F0006BFFACE708331360A9E704331360A6E77B
:1014000010331360A3E720331360A0E7B47C000817
:10141000AC79000826160020451A0020080000209C
:10142000040000200300002002000020441A0020D5
:10143000148400082C160020010000208479000884
:1014400010B52E488AB0FFF7D1F8AE2385212C4C79
:101450009B00E0582B4A89004358002B49D10023B8
:101460000193019B284A934205DC019B01330193C0
:10147000019B9342F9DD200004F020FC200004F0E1
:10148000F9FB8021214B89025A6906A80A435A6157
:101490005B690C220B4002930021029B05F078FB54
:1014A000802290200123520104A9C00504920593D3
:1014B00001F068FF8021902000224901C00502F060
:1014C00073F800230393039B114A934205DC039BAB
:1014D00001330393039B9342F9DD0E4B0E4A1A60CE
:1014E000BFF34F8F0D4B0E4ADA60BFF34F8FC046EC
:1014F000FDE7013A002AAFD1B1E7C046DC79000828
:10150000B81A0020400D03001FA107000010024080
:101510003F420F00F03F0020EFBEADDE00ED00E0E7
:101520000400FA0570B5902604000125F605C209ED
:101530008021300002F038F8A20930002A40402112
:1015400002F032F8620930002A40202102F02CF823
:10155000220930002A40102102F026F8E20830006B
:101560002A40082102F020F8A20830002A40042175
:1015700002F01AF8620830002A40022102F014F842
:101580002A0030000121224002F00EF870BDC04652
:10159000F8B54546DE4657464E460C00E0B5050018
:1015A000042946D90522C14905F0FAFA002800D1DC
:1015B00089E0BF4F3E78002E00D088E0210028004F
:1015C000BC4AFEF77FFF002800D0D9E021002800A8
:1015D000B94AFEF777FF061E00D0D1E0B74B1B7863
:1015E000002B00D07FE0B64B1B78012B00D1C0E070
:1015F000022B00D1B7E1032B00D0BCE0012C00D0BE
:10160000B9E028782B2800D1F2E12D2800D1F0E0B4
:10161000FFF788FF01228021AA4801F0C5FF0122BF
:10162000A94B1A700120F0BCBB46B246A946A046A1
:10163000F8BD9F4F3E78002EC0D0022E00D189E029
:10164000012EEFD103F0BEFBA04BA14F1860A14BC0
:101650001E703B78002B00D0CEE080229E4B5201C2
:1016600098461B681B19934200D899E143461E68AF
:10167000931B9946B24200D0A4E101233B70974BE3
:101680009C4666443619002E00D1EBE02900944BAD
:101690004944B1469846934A9348944E89441388E6
:1016A000048801339B059B0D9C4208D04546148855
:1016B0000F78A4B22F5513803368013333600131A2
:1016C0008945ECD1CEE00122894B1A70AAE7022E9F
:1016D000B6D10023EA5C202A01D0092A64D1013363
:1016E0009C42F7D89EE7834B1B68A34200D97AE758
:1016F0008021012301228048C90099463B7001F0F6
:1017000053FF8021002249016E4801F04DFF4A46F7
:10171000714B764F1E609846784B3E601E606D4B55
:101720001A7000226A4B1E706E4B1E806E4B1E801C
:10173000734B1A7003F046FB644B220018602900BB
:10174000704805F06BFA43466F481C603C60FEF73A
:101750004DFF67E7002900D164E70129B9D102787C
:101760000023202AB6D10022684B9A56684B1A7083
:1017700058E7042C2AD0002C00D153E7287847E7FB
:1017800002230022FF213B70604B4E481A70604BD1
:10179000197080215F4B49011A705F4B01321A703A
:1017A000002201F001FF3DE79C4200D83AE7EE1825
:1017B000382A5CD8092A00D834E70A3AD2B22E2A4D
:1017C00000D92FE7554992008A58974628781B2858
:1017D00000D01DE76B785B2B00D019E7AB78352B79
:1017E00000D101E1362B00D012E7EB787E2B00D040
:1017F0000EE7FEF79BFF15E7002C00D1FBE08023EE
:10180000DB029B46364BA24699463849354A364854
:10181000AA440B685B4513D21388078801339B05E4
:101820009B0D9F420CD01788BFB2BC462F786646EE
:10183000B8464F464446BC5513800B6801330B60D5
:101840000135AA45E5D111880388994200D29EE06E
:10185000138802889B1A9BB2314AD31A9BB27F2B02
:1018600000D9DFE601222F4B00201A70DBE620238F
:101870009A43512A00D0D5E60122264B1A70D1E6B0
:1018800003F0A0FA284B214A18603378313B5BB251
:1018900013701F4A1370C5E603F094FA224B1B68BD
:1018A000C01A642800D8BDE65DE7C046107A00087B
:1018B000451A0020187A0008207A00080800002045
:1018C0000100002000080048431A00200402002004
:1018D00000020020010200201002002000F0FFFFA3
:1018E0001802002016020020140200200C02002022
:1018F00026160020040000200014004808020020E2
:10190000F801002018060020287A00082916002077
:10191000000000202716002028160020D87C000890
:10192000FF0300004C250020F40100200233A342F5
:10193000A2D272785B2A01D04F2A9DD1EB5C412B59
:101940005CD0422B98D108200024324A137801330E
:101950005BB2D90F9842614149420B40137001229A
:101960002D4B1A705EE6032C00D004E728781B2864
:1019700000D04DE66B785B2B02D04F2B00D047E6B2
:10198000AB78412B34D0422B00D041E631E78021A7
:10199000C9008C461388028863449B1A9BB25BE79C
:1019A000434618681D4B2200C018290005F036F97F
:1019B000434642461B681B191360194A13681B19DA
:1019C00013602FE643461868144B4A46C018290096
:1019D00005F024F9434642461B684B441360104A05
:1019E00013684B44136048E6EB787E2B00D00FE67B
:1019F000FEF74EFE16E60B4A0B4824E7054A13781D
:101A0000013B59B21B0600D5082111700122024B7F
:101A10001A7007E629160020281600201806002054
:101A20000C0200201602002014020020F0B5DE4651
:101A300057464E464546E0B50126B7B002AF03F023
:101A4000A5F90321FD4DFE4AAB6989463343AB61DD
:101A5000AB6900243340FB67FB6F13688B43136053
:101A6000FFF7A0F8782044231B1814220021D8196E
:101A700005F08EF880226B69920313436B616B69EA
:101A8000F04813409822B9180B600B0080221B68A5
:101A90006B69D20313436B616B6913409C22B918C5
:101AA0000B600B0080221B686B69120313436B6190
:101AB0006B691340A022B9180B600B0080221B68D1
:101AC0006B69920213436B616B6992461340A422C7
:101AD000B9180B600B0080221B686B69D20213439C
:101AE0006B616B691340A822B9180B600B00802250
:101AF0001B686B69520313436B616B691340AC2223
:101B0000B9188022D20090460B600B00002241469B
:101B10001B6801F049FD0122CB49CC4801F044FD8E
:101B200090200022FF21C00501F03EFD842100220B
:101B3000C648490101F038FDBC23C54AF9180A60BE
:101B4000C0217A181460C4227820783BBA18146037
:101B50001A18D119BF4801F015FCBC234046FA18E9
:101B60001060C021C4227918BA180E601460C8220F
:101B70007820B918783B0C601918C919B14801F0E0
:101B800001FCBC230222F9180A60C021B24879186E
:101B9000086083467820C232B918783B0E60191865
:101BA000C919AA4801F0EEFBBC230420F91808600B
:101BB000C021083379180E60C822F9180C60494614
:101BC000B81801607820803B1918C9199F4801F0A6
:101BD000D9FBBC220823B9180B6059460432B81847
:101BE00001607820BC33F918803B0C601918C919C2
:101BF000964801F0C7FBBC23FF21C422F8180160FE
:101C000078203F3979180E60B91804320C60783B9F
:101C1000B9180E6019189020C919C00501F0B2FB5F
:101C2000BC231020F9180860C021083379188346B6
:101C30000C606830F918803B0E601918C919834888
:101C400001F0A0FBBC226023B9180B60C0217820F2
:101C5000791864330C60BA3AF918803B0A60191895
:101C6000C9197A4801F08EFBBC237949F818016044
:101C7000C021C422782079180C60783BB9180C6018
:101C80001918C919754801F07DFBBC238421F81887
:101C900049010160C021C8227820791808330E60FC
:101CA000F9180C60803BB9180C601918C9196748FD
:101CB00001F068FBBC22C023B9189B000B60C02157
:101CC000C423782079180C60F918803B0C6019182F
:101CD000C9195E4801F056FBBC228023B9185B008D
:101CE0000B60C021BA3A79180A6078204A463C3B1A
:101CF000F91804330C60F918843B0A601818CC21D9
:101D0000C219902079180C60C005110001F03AFB4F
:101D1000C023BC22C0211B01BA1813607A181660B8
:101D2000C823C422FB18B81804601E60782044231E
:101D30001B18DA191100454801F024FBBC23FF21D0
:101D4000FB1819603F397B18C4221C60782044239B
:101D5000BA1814601A18D119414801F013FB002277
:101D60000021052001F070F9052001F097F900220B
:101D70000021062001F068F9062001F08FF9524693
:101D80006B69782013436B616B69002113408022DB
:101D9000BD182B602B684C252D180C22E81904F077
:101DA000F7FE8025BC23C0216D01FB181D607B1848
:101DB0001E60782044231B189020D919C00501F01B
:101DC000E1FA902000222900C00501F0EDFB64201B
:101DD00002F0FEFF04F0AEFB782038231B180C2223
:101DE0000021D81904F0D4FE1E4A1F4B04201360B2
:101DF00080235B029361C2235946FF33D3619E3B2C
:101E00005061FF3B100091601661D45416007A6156
:101E10005460D4601462946200F04EFFB0210A2333
:101E200079180B60AA33FB181D60B8234946FB18CC
:101E30007822196038239B18D91917E00010024046
:101E40000000014000140048040C00000008004895
:101E5000FFFF0000001000480000211000040048AF
:101E6000000C0048481A002000240140300001F016
:101E700059F801224146DB4801F096FB502002F060
:101E8000A7FF00224146D74801F08EFBD64B1C70BD
:101E90003B66D64B1C609946D54B1C607B62D54B8C
:101EA0001C609B46D44B1C703B61D44B1C60FEF7FE
:101EB000D3FEFA2388229B00BA18136088217B186E
:101EC0001B6879185A1E0A60002BF7D10B0080217D
:101ED0000022CB48C9001B6801F066FBFA2384226C
:101EE0009B00BA1813608422BB181C68BA18631EC2
:101EF0001360002CF7D180211300C1480122490151
:101F00001B6801F051FB80210022C900B54801F097
:101F10004BFBBC4B7B671C70FEF770FDBA4B18780F
:101F2000FEF742FB1021B64801F038FBB74B1870A2
:101F3000BB66B74B3B67187002F044FFB54B1860A7
:101F4000FB66B54B1C607B65B44B1C707B64B44B6B
:101F50001C70BB64B34B1C703B65B34B1C60BB6017
:101F6000B24B1C607B60B24B1C609A46B14B1C604C
:101F7000BB61B14B1C70BB63B04B3B641C70B04B7E
:101F80001C807B63AF4B3B631C80AF4B1A00BB6272
:101F900000231370AD4B7B66AD4BFB63AD4BFB6217
:101FA000AD4BBB65AD4BFB615B46D346CA4699461C
:101FB000A0E03B6FBD6E1C782B78A34214D02C7030
:101FC000002C00D06EE102F0FDFE80217B6D00222E
:101FD00018607B6C8A481C70BB6C49011C703B6D9F
:101FE0001C7001F0E1FA2C78002C00D1A1E07B6F8D
:101FF0001B78022B00D1B7E0012B00D1D1E0BB6DE3
:102000001C001B78002B1AD04B461A6853461B68DD
:102010009A4200D2DBE04B4652461B6812689B1A7C
:102020009BB280229200934209D200238C4A2370F3
:10203000F96A53688B48096803400B4353607B6F10
:102040001B78002B47D153461A684B461B689A42AF
:1020500041D0AE23FA6B9B00D258A43BD558002D3B
:1020600039D14B461E6853467A6A1B681360534643
:102070001B68B34200D3D0E153461B68F31A3B2BD5
:1020800000D9BDE1534618681968774B711AC0181A
:1020900089B204F0A5FA53461E602378002B1AD0AB
:1020A0004B461A6853461B689A4200D237E34B46A8
:1020B00052461B6812689B1A9BB280229200934280
:1020C00009D20023664A237062495368654809684B
:1020D00003400B43536072B67B6F3A6E1B781278E5
:1020E000134300D10BE162B6604BFB651B78002BFC
:1020F00000D021E17B6E1B78002B00D071E1102114
:102100003F4801F04BFA3A6F1378834204D01070C5
:1021100002F058FEFB6E186002F054FEFB6E1B6866
:10212000C01A222800D944E7BB6E1C78002C00D0CE
:102130005DE702F047FE7B6D1B68C01A4C4B98426E
:1021400000D89DE03B6D01341C703221FDF7DCFFAF
:102150008022244BD200044200D0A1E09A627B6F1F
:102160001B78022B00D047E7424A1378D9B2002BE4
:1021700000D03BE1404A13785BB2002B00DB60E10A
:102180003E4B1A78002A00D0D4E2BB6E1B78012B9C
:1021900000D034E79620C000FEF7B8F97B6F1B78BB
:1021A0002AE73B6C1B78DCB2002B00D058E1BB6BFC
:1021B0001B78002B00D07CE2274C2378002B8AD0A0
:1021C0004B461A6853461B689A4200D323E7802186
:1021D0004B465246C9008C461B68126863449B1AE2
:1021E0009BB21EE700140048431A00203816002056
:1021F0003416002030160020401A00203C1A00201F
:1022000000080048451A0020441A00202516002026
:1022100024160020201600201C1600201A1600206C
:102220001916002018160020100200200C020020B1
:102230000802002004020020010200200002002009
:102240001602002014020020F801002026160020AB
:10225000B81A00202C1600202A160020487B0008FF
:1022600000100240FFFFFF803C160020461A0020AD
:102270000F2700002716002000000020281600204D
:10228000A64B984200D942E27B6FA54A1B78904248
:1022900000D834E201237A6C13708022A14BD20063
:1022A0009A61A4E602F08EFD7B6D1A683B6D1B7887
:1022B000002B00D0A1E09C4B801A984200D99CE0F2
:1022C000BB6C1B78002B03D1944B984200D83AE2A8
:1022D000FEF746FC00237A6C1370BA6C13703A6DEB
:1022E00013707B6F1B78002B00D01DE7802100222C
:1022F0008C48C90001F058F9BB6E1C7816E762B62D
:1023000040218A4801F04AF9894B1870002800D111
:10231000BCE172B6874B1869C0B2FFF703F901221E
:102320008021824801F040F962B662B6824BFB65BB
:102330001B78002B00D1DDE66B46FB607F4B8021D4
:102340009C46E54402AB0022784849013B6201F01B
:102350002BF90A2002F03CFD00223B6A1600984649
:10236000774C784D03E00136AE4200D1A2E2FEF791
:1023700041FE236830001B041B0C2360FEF748FD60
:1023800043469855FF28EED1B0463B2E00D893E245
:10239000444600266C4B3D6AFB64AE22FB6C920007
:1023A0009A5885239B00D358002BFAD128003C2152
:1023B0003C3C04F015F93C363C353B2CEDD8B0459F
:1023C00000D940E27B6F1B78002B00D11AE200237A
:1023D000FA6D1370FB689D467B6E1B78002B00D155
:1023E0008DE600237A6E1370FFF72AF8002313702E
:1023F000FEF76EFC7B6F1B78FEE5FEF765FF69E775
:1024000053461868514B3C21C01804F0E9F8534674
:1024100052461B683C3313603FE653461A68F1236B
:102420009B009A42ECD35346802118681B68C90070
:10243000C91A464B89B2C01804F0D2F853461D6041
:102440002BE6FF2310781370FEF778FF7B6F1B7865
:10245000022B00D0D0E5FEF7BFF97B6F1B78CBE5F0
:10246000BB6A1B78002B00D1FFE17B6B384D1A88CB
:102470003B6B1B889A4200D18FE0364B80249846F4
:102480005346FB654B46344EFB647B6BAA4699462C
:102490005D46E402B3463E6B1BE02B68A34200D1CD
:1024A000EDE053461B78002B0ED04B461A8833883C
:1024B0009A4257D34B461B8832889B1A274A9BB2B5
:1024C000D31A9BB2FF2B5BD84B461A8833889A42AB
:1024D0005DD05A4633889BB2D15C3388C9B2013390
:1024E0009B059B0D33802B68A342D6D22868431CE2
:1024F0002B60FEF7D1FC43462A681B689A42D0D372
:1025000029681748FEF7B2F880224346D200944665
:1025100042461B6863441360C3E7C0466F17000060
:10252000B70B0000001400480F2700000008004807
:10253000421A0020000C0048461A002078ECFFFFE9
:102540000004004888130000B81A00203C16002040
:102550004C250020FC01002018020020FF03000091
:10256000307B000880214B46C9008C461B8832888E
:1025700063449B1AD84A9BB2D31A9BB2FF2BA3D9B0
:1025800004F05AF84B461A8833889A42A1D1FB6D61
:10259000AB4655469A46FB6C99462B78002B00D0EB
:1025A000CEE0BB6A1B78002B00D128E57B6B1A8834
:1025B0003B6B1B889A4200D021E502F003FCBB690B
:1025C0001B68C01A632800D819E5C44B1B78002B80
:1025D00036D05B4680221B68D202063393422FD846
:1025E0005B465A4618685B21431C1360FEF754FC97
:1025F0005B465A4618682D21431C1360FEF74CFCBD
:102600005B465A4618685D21431C1360FEF744FC84
:102610005B465A4618682B21431C1360FEF73CFCAE
:102620005B465A4618685B21431C1360FEF734FC76
:102630005B465A4618685D21431C1360FEF72CFC6C
:102640005B461A688023DB0219009A4200D83CE1FD
:10265000A348FEF70BF8A34B1B78002B00D05DE1DD
:10266000A148FDF7C3FF0023BA6B13703A6C1370D7
:10267000BA6A1370BA68136003F0DEFFBFE4F8694A
:10268000FDF7B4FF2B6801332B600AE72021974840
:1026900000F084FF964B1870002800D1ACE03B6935
:1026A0001B78002B00D1C2E072B6786900F036FCCE
:1026B00032E602F087FBBB691B68C01A632800D8AA
:1026C0009DE4884ABD688B4E1278844B29681B783C
:1026D000300000920022FEF7CBFCBB6B1C707B68C5
:1026E0002C601C605B461C603B6C1C707B6B1C8010
:1026F0003B6B1C80BB6A1C7003F09EFF7FE4022BC7
:1027000000D079E480227C4BD2009A612CE596209F
:102710000123BA6C80001370FDF7F8FE67E4802196
:102720004B465246C9008C461B68126863449B1A8C
:102730009BB2C2E41970FEF74FF87B6F1B785BE425
:1027400003F07AFF2DE77B6C1B78002B2FD16B4BAE
:1027500098422CD8132800D8BCE57B6F1B78022B3D
:1027600000D1B5E0012B00D118E18021012262489F
:10277000C90000F019FF8021002249015B4800F0E8
:1027800013FF0A2002F024FB80210122490157484F
:1027900000F00AFF3C2002F01BFB8021002256487B
:1027A000C90000F001FF5648FDF720FF92E58021A7
:1027B00001227B6F5048C9001A7000F0F5FE80219D
:1027C00000224901494800F0EFFE0023BA684D4855
:1027D00013607A6813605A461360BA6B13703A6CD0
:1027E00013707A6B13803A6B1380BA6A1370FDF71B
:1027F000FDFE03F021FF6DE5002280213B4800F043
:10280000D3FE70E4FEF728FA80210022C900374881
:1028100000F0CAFE0A2002F0DBFA1021334800F073
:10282000BDFE00284AD1012002F0D2FACFE57C6932
:10283000200000F0E5FA0121200000F00DFB01234B
:102840003A69137030E7304B1A00AE239B00D15821
:10285000852292008B58002BFCD14346991B3B6A82
:1028600089B2981903F0BCFEACE580250024274806
:10287000FDF7BCFEFEF7BEFBFEF762FB2448FDF74A
:10288000B5FE1C4E6D012000315D0134FEF704FBE6
:10289000AC42F8D15B461C6019681E48FDF7E6FEA5
:1028A000A0221D4B52011A600123BA6A137003F073
:1028B000C3FEDAE5B0466BE5002680E58021012203
:1028C0000A48490100F070FEADE75B461968BFE6B3
:1028D000FEF7FEF9FEE4C046FF0300000200002000
:1028E000847B0008030000200C79000800080048E1
:1028F000411A00201806002000140048B70B000001
:10290000D07A0008647A0008B81A0020DC7A00083F
:1029100040780008307B0008FC0100203F48FDF7AC
:1029200065FE802100223E48C90000F03DFEFEF712
:1029300093F9FA23B0229B00BA181360B0217B18D8
:102940001A687918531E0B60002AF7D10B008021FA
:102950003448C9001B6800F027FEFA2394229B002C
:10296000BA1813609422BB181C68BA18631E13604F
:10297000002CF7D1802113004901220029481B684F
:1029800000F012FE0A2002F023FA802101222548DD
:10299000490100F009FE7B6F1C7064E68021002273
:1029A0001F48C90000F000FEFEF756F9FA239022F6
:1029B0009B00BA18136090217B181A687918531E6F
:1029C0000B60002AF7D10B0080211648C9001B6854
:1029D00000F0EAFDFA238C229B00BA1813608C22C7
:1029E000BB181C68BA18631E1360002CF7D1802135
:1029F0001300490122000B481B6800F0D5FD0A2096
:102A000002F0E6F9802101220648490100F0CCFDE0
:102A10007B6F05481C70FDF7E9FD5BE4F07800086A
:102A20000014004800080048B87A00087047C04603
:102A3000012200B50F4B83B09969052011439961BC
:102A4000996940420A4080210092009ADA6949055A
:102A50000A43DA61DB6900220B4001930121019BEB
:102A600000F0F2FA022000220121404200F0ECFACC
:102A700003B000BD0010024010B5040088B014225D
:102A8000002102A804F084F8104B22689A4201D079
:102A900008B010BD80210E4B89009A690D480A4389
:102AA0009A619A690A4080210092009A5A69090342
:102AB0000A435A615B6901220B400193019B032386
:102AC00002A90292039300F05DFCE1E700240140BB
:102AD00000100240000800487047C046FEE7C046AC
:102AE0007047C0467047C04610B502F05FF910BD90
:102AF00010B5022000F05EFD10BDC046244B70B53D
:102B00005B691B073FD5234A234953680B40536039
:102B1000C046C046214B224918690B68214C01333D
:102B20009B050D689A0D2368C0B29D421BD280257B
:102B3000ED00AC460B68246863441B1BFE249BB26B
:102B4000A400A34217D20B68174CE0540A60114A44
:102B5000164953681648096803400B43536008221E
:102B60000B4B5A6170BD0B6824681B1BFE249BB283
:102B7000A400A342E7D30B680B4CE0540A60012287
:102B80000C4B1A70EBE7082000F014FDEAE7C04692
:102B90000004014000100240FFFFFFF00004004865
:102BA00030160020381600203C1600202C1600207D
:102BB000FFFFFF802A16002010B5024800F0EAFD52
:102BC00010BDC046702900200C490D4A0300521A5E
:102BD0000C4910B50868002804D0C318934206D8E1
:102BE0000B6010BD0848C31808609342F8D903F081
:102BF000E9FF0C23036001204042F2E700040000DB
:102C000000400020881A0020B02D00207047C046E8
:102C1000002370B5026882B0019391680333040009
:102C20000B40012B31D09168204B194223D1012157
:102C300093680B4393601E4B1E491868FDF764FAB6
:102C40000190019B002B05D0019B013B0193019B4F
:102C5000002BF9D102F0B6F80126050004E002F0DD
:102C6000B1F8401B022817D823681B681E42F6D013
:102C7000002002B070BD1022A36B01201343A36398
:102C8000E36B0F3A1343E363F3E711680B42EFD1B1
:102C9000D3681B04ECD4C6E71022A36B01201343B6
:102CA000A363E36B3343E363E3E7C04617000080AD
:102CB0000C00002040420F0070B5041E64D0836BEE
:102CC000002B68D0A36BDB0660D4226893685B0797
:102CD0005CD4A36B47490B400631FF310B43A36320
:102CE000032391680B40012B5BD01821D3688B43E1
:102CF000A1680B43D360136961689B009B080B4379
:102D00001361D3683C490B40D360237E617E9B03F3
:102D1000C9030B43A07EE1680B4341030B4324210D
:102D2000615C49000B43A16A01394D1EA9410903A9
:102D30000B43216902394D42694189000B43E17E11
:102D400001293ED0C220E169FF30814202D0206AD1
:102D500001430B43D168E56A1943D16080214905DD
:102D60008D4225D0691E062922D9D26823490A40FE
:102D70009A422CD01222A36B9343023A1343A363CB
:102D8000E36B0F3A1343E363012070BD1022A36B82
:102D90001343A363F8E73422C3638354FFF76CFE45
:102DA00090E711680B42ACD1D3681B04A9D49CE70F
:102DB000072150698843506150692940014351619E
:102DC000D3E700280DD1802149020B43BAE7002345
:102DD0000322E363A36B00209343023A1343A363EC
:102DE000D3E72025A06B2843A063E06B0143E16398
:102DF000A8E7C046FDFEFFFF1902FEFFE7FF3F8385
:102E0000036810B59A680400520721D43422815C0B
:102E100001291DD001218154427E012A12D1A16BCA
:102E20000C4A00201140802252000A43A263342140
:102E30000022E26362541C321A609A6830390A43F5
:102E40009A6010BDFFF7E4FE0028FAD12368E6E798
:102E50000220F6E7FEF0FFFFF8B5446905000E001A
:102E6000082C04D003680C24DB68DB0741D401F094
:102E7000A9FF07002A6813681C4204D1731C25D1DE
:102E800013682342FCD08023A96B9B000B43AB63E8
:102E9000C023D1681B01194213D1AB7E002B10D186
:102EA00013681B070DD593685B072BD40C2153685F
:102EB0008B435360AB6B18490B400431FF310B431C
:102EC000AB632B7E002B11D00020F8BD002E04D068
:102ED00001F078FFC01BB042CCD90422AB6B0320B9
:102EE0001343AB6300223423EA54EEE70C23136050
:102EF000EAE72022836B1343836300223423C25406
:102F00000120E2E72021AB6B0B43AB63EB6B1F3976
:102F10000B43EB63D5E7C046FEFEFFFF0368186C6A
:102F20007047C0460023F0B583B001933433C25CD0
:102F30000400C56A012A59D00122C2540368986866
:102F4000400709D520220120A36B1343A363342338
:102F50000022E25403B0F0BD10267642B446086861
:102F6000324E4F6882408444B74227D09E6A324333
:102F70009A62072D1FD98022520595420CD0072254
:102F80008D68596911408D4206D059699143596144
:102F900059692A400A435A616346022B09D8244BD7
:102FA00080211A68102825D011283AD049040A43F4
:102FB0001A600020CBE7002DEED1E0E7996A91433B
:102FC00099626346022BF4D8194B1B6810280FD066
:102FD0001138421E9041174A40421040164A94460A
:102FE00060441840124B18600020B0E70220B1E79F
:102FF0001248F6E709040A431A60114B1149186890
:10300000FDF782F883001B185B000193019B002BE6
:10301000CFD0019B013B0193019B002BF9D10020F4
:1030200095E7C9030A4300201A6090E701100000E9
:1030300008270140000040FFFFFFBFFFFFFF7FFFA9
:103040000C00002040420F00FF22032310B51400A3
:103050000340DB009C4089010A40E4439A40002879
:103060000BDB0C4BC0219C4680088000604489002B
:10307000435823401343435010BD0F2306490340D8
:103080008C46083B9B089B006344D9690C40144361
:10309000DC61F1E700E100E000ED00E0002805DB85
:1030A0001F22012302409340014A13607047C0462B
:1030B00000E100E000280ADB1F22012302409340C8
:1030C000802203498B50BFF34F8FBFF36F8F704740
:1030D00000E100E08022431E5204012093420ED200
:1030E000C021074A07485360036A09061B021B0AEE
:1030F0000B43036200230020936007331360704783
:1031000010E000E000ED00E0F0B546464F46D64640
:10311000C0B52F4F06003B7E8846012B56D00123B9
:103120003B7603682B48012B33D000F095F800283C
:1031300033D1012342465B421360B3687568DB02FA
:103140005B199D4229D20023234C994609E0802334
:103150001B019C46B3687268DB0265449B18AB4256
:103160001CD902224B469246FB612369194813433E
:103170002361656123693E321343236100F06CF8DB
:1031800052462369934323610028E0D043461D60E3
:1031900004E000F061F8002807D0012000233B760E
:1031A000E0BCBA46B146A846F0BD042540220A4C10
:1031B000F861236907482B43236123691343236183
:1031C00000F04AF82369AB432361E7E70220E7E711
:1031D000901A002050C300000020024010210D4B27
:1031E00010B5DA680B001340114205D00A4A0E39B7
:1031F000D3690B43D3611023064AD16804220A42E3
:1032000005D0012404481343C1692143C161014A27
:10321000D36010BD00200240901A0020064B002011
:103220001A69120606D5054A5A60054A5A60186995
:103230000006C00F7047C0460020024023016745CA
:10324000AB89EFCD8021034A002013690B43136142
:103250007047C04600200240F8B5040001F0B2FDFE
:1032600001260500154FFB681E4206D0631C12D1D3
:1032700001221249CB681A42FCD120220F4BD96897
:103280000A4211D10D4AD368DB0612D4D36800205C
:103290005B070ED4F8BD002C04D001F093FD401B59
:1032A000A042E0D90320F5E7DA60044AD368DB06E0
:1032B000ECD5FFF793FF0120ECE7C0460020024069
:1032C000F0B54E465746DE464546E0B59A4683B0D1
:1032D000294B019299461B7E04000E00012B46D01B
:1032E00001234A4625481376FFF7B6FF002834D15C
:1032F000012C3ED0023C631E9C4163009846022391
:103300009C46E044002300259B4618E05346D340EA
:103310004A46594601271A4CD16122699BB23A4369
:10332000226116483380FFF797FF2369BB4323616F
:10333000002812D10135EBB2023698450DD92B0188
:103340001A00203AE2D520225146D21A91400A00B2
:103350000199D9400B001343DAE700234A4613765C
:1033600003B0F0BCBB46B246A946A046F0BD022061
:10337000F6E701239846C5E7901A002050C30000E5
:1033800000200240F0B54546DE4657464E46E0B5C1
:103390000D68002385B0002D7BD0794A00919246BC
:1033A00001212A0099400A4091460D426DD0009FAC
:1033B00010247A681700A7435C00A44603246646DD
:1033C0000197009FB440BE686746BE40B046019E6C
:1033D000E443013E012E63D94646C1682140314392
:1033E000C16001680C4003211140B94021430160D4
:1033F000802149050A4248D0514601245646896930
:1034000003272143B161B1690F2621405D4C1F4064
:10341000A446BF00BE400391039999088900614406
:103420008C68B4439026F605B04212D0564EB04296
:1034300000D198E0554EB04200D198E0544EB042D1
:1034400000D18CE0534EB04200D194E00526BE403E
:1034500034438C604C465049E4430968D70366D432
:103460004D4F214039607968970367D44A4F214016
:103470007960B968D70268D4474F2140B960F968CC
:10348000920269D40C404449CC602A000133DA40EE
:1034900086D105B0F0BCBB46B246A946A046F0BDF9
:1034A00086682640B346009EF668BE40B1465E463A
:1034B0004F463E43866046688E431109994031432A
:1034C00046464160C16821403143C16001990229EB
:1034D0000DD0016801330C4003210A4061468A4047
:1034E000224302602A00DA4000D059E7D1E70726DC
:1034F0001E40B600B1460F264F46BE40DA08920085
:103500008218116A0133B1438846009E31694646EC
:10351000B940314311620168019A21406446A240DA
:103520000A4302602A00DA4000D039E7B1E74E468C
:10353000194F314339607968970397D54E46164F36
:1035400031437960B968D70296D54E46124F314360
:10355000B960F968920295D54C460C4393E703266F
:10356000BE40344375E70126BE40344371E702266E
:10357000BE4034436DE70426BE40344369E7C0468D
:10358000001002400000014000040048000800480C
:10359000000C004800100048000401400069084089
:1035A000431E9841C0B27047002A01D08161704724
:1035B0008162FCE7044B10B55A69104200D110BD7E
:1035C0005861FCF7DFFFFAE70004014010B50C0674
:1035D0000ED50724214001318C006118C900401824
:1035E00099B2002A0DD10023C1800373002010BDC1
:1035F0008C006118C9006931FF31401899B2002A66
:10360000F1D083600123F0E7BA2301219B00026817
:10361000C1500021083BC15454230120D15A014319
:10362000D152D15A01300143D15200207047C046D7
:103630007047C046F0B5C64600B5040086B0002805
:1036400062D0324BC35CDAB2002B53D003222F4B33
:10365000E254206801F0D8FB616800292FD02923AB
:103660009C46023300220127282698460020654602
:1036700093009B18DB00E3185F5545469A55DA86A0
:103680000132D2B258559863D86318648A42EED397
:103690000022002093009B18DB00E3181D006A3510
:1036A000FF352870013D2A7081330132E870FF3305
:1036B000D2B210352860686018608A42EAD32300CD
:1036C0006A461033206862CB62C222CB22C2A26853
:1036D000E368616801F0A2FB24230022E2540B4B53
:1036E0000132E254E369012B0AD0002006B080BC0D
:1036F000B846F0BDAA239B00C25403F037F8A5E7F3
:103700002000FFF781FFF0E70120EFE7A9020000AA
:1037100070B5041E07D00323074E8355006802F0DE
:103720007FF8051E02D00125280070BD200003F09F
:103730003DF8A555F8E7C046A902000070B5AA25D6
:10374000AD00435D0400012B0BD0012343550068FD
:1037500001F050FB206802F075F80023002063554B
:1037600070BD0220FCE7C04670B5AA25AD00435DE0
:103770000400012B0BD001234355006801F044FBEA
:10378000206802F067F800230020635570BD022016
:10379000FCE7C046F0B5DE4657464E464546E0B526
:1037A000040087B0006802F05DF8000400D5C5E0B1
:1037B00023689B46584602F055F8400500D5A3E023
:1037C000206802F04FF8400400D584E0206802F041
:1037D00049F8800400D577E0206802F043F8C0047F
:1037E00042D4206802F03EF800055AD4206802F066
:1037F00039F88022024220D044202368195A91438C
:10380000B82219529200A15C002900D06AE0042578
:103810004031585A28435852585A04352843585270
:103820003F39A15454229A5A3C2392081340B9229A
:1038300092002000A350FFF7FBFE206802F012F870
:10384000800557D4206802F00DF8C00505D5442244
:103850002168D0488B5A03408B5207B0F0BCBB465E
:10386000B246A946A046F0BD402304202268D15AA2
:103870008143D152D15A04308143D152B8239B00A5
:10388000E25C012A00D158E2200002F0F5FF442258
:103890002068C149835A0B40835201F0E3FF0005C1
:1038A000A4D5402208202368BC4D995A014399525F
:1038B0003C30195A29401952995A403801439952BB
:1038C000200002F0C7FF91E744222068B449835AE0
:1038D0000B40835281E744222068B249835A0B404F
:1038E000835274E7200002F0B5FF206801F0BAFFB0
:1038F0008005A7D544222168AB488B5A03408B52E0
:10390000200002F08DFF9DE74422AA252168A748E8
:103910008B5AAD0003408B52200002F089FF635D9B
:10392000012B00D14CE70123002663552333E654D5
:103930000021206801F07EFF665541E7442320689E
:10394000C35A83461BB2002B00DB33E744239A465D
:10395000353B994653464E464946C35A9AB21E4095
:10396000194257D10388D20600D4DEE09AB21B0573
:1039700000D529E112B2002A06DB03005246825A22
:1039800012B2002AE6DB14E70388894A25001340B7
:103990008022134303805023C25A1933FF33E35C60
:1039A0006935DB00C3189B18824AFF35944663448F
:1039B0001B889B059B0DEB610ED0696900290BD01C
:1039C000EA8801F06BFF6B69EA6920009B1800210F
:1039D0006B6102F00BFF20685022815A754A030088
:1039E000821852182969002900D18BE13E2900D99B
:1039F000BDE101264D0831406D18AD02ADB2158014
:103A000001886D4A1140C02292014A406B490A4325
:103A10000280B3E7B5004219138899B21BB28846F9
:103A2000002B3BDB8022414603000A42A6D041190D
:103A30000A88634F3A4080273F023A430A802B228C
:103A4000AF19FF00E719BA5C022A00D10DE150233B
:103A5000C35AAD199C462823F95C5A4FCB006344E6
:103A6000BC46C318ED0063441B8865192A6C9B058E
:103A70009B0D9A4200D885E0D21A2A64EA6B01367F
:103A8000D218EA63B1006A6C8919D318C9006B6453
:103A9000611801F093FB206803006FE71388444925
:103AA0000B4080210B431380AB19DB00E3181A0095
:103AB0007532FF321278002A00D0A9E05032815AC4
:103AC0001A006932FF321278D2005218394982182E
:103AD0008C46624412889205970D002A00D033E18B
:103AE0000027A919C900631818008530FF30026843
:103AF0000838D21982600268D21902601A00813235
:103B0000FF321268002A05D07933FF331B68BB42AD
:103B100000D824E1AB19DB00E3186933FF33200040
:103B2000197802F063FE20687CE7254A00211340E3
:103B300080221202134303805023C25A283BE35CC5
:103B4000DB00C3189B181F4A2000944663441B885F
:103B5000E26B9B059B0D6364D318E36302F054FE94
:103B60002422A35C2068002B00D106E7216C03000F
:103B7000002900D002E78026A55C3543343E8553FA
:103B8000A154FBE6002320002B6402F03DFE2068D8
:103B9000F3E6C046FFFEFFFFFFEFFFFFFFF7FFFF6B
:103BA000FFDFFFFFFFBFFFFFFFFDFFFFFFFBFFFF8B
:103BB0008F0F0000060400008FBFFFFF8080000011
:103BC0000F8FFFFF020400005023C25A1933FF3346
:103BD000E35CAC21DB00C3189B18C04A8900944603
:103BE000220063441B8869329B059B0DFF32D36121
:103BF0006118D28801F052FE2268B949138820006A
:103C00000B4080210B43138002F0E6FD2068B4E6F0
:103C10001F0019006C37FF3769313F78FF310A7890
:103C2000022F00D1AFE09200934683445A46AD4F35
:103C300012883A40AC4F3A435F463A800A78910086
:103C400041180988490467D55021415AD2005218B9
:103C5000A64982188C46624412889205970D002A64
:103C600000D13DE71A00713270E04246D20500D41F
:103C7000EDE62822BA5C40219346D20000923A6CCD
:103C8000029242460A40039280224146D2010A40F3
:103C9000019240220A4200D0C5E0904A5021944649
:103CA00084446246415A0592009A6144895A8905C2
:103CB0008A0D029904928A4200D827E1039B3B6453
:103CC0002000594602F0A0FD019B2068002B00D087
:103CD00072E128220300BA5C824D9200821811889A
:103CE0002940834D294311802822BA5C81499200E2
:103CF000821815880D4030214D407F49294389B2F3
:103D000011803BE611887D4D294080251180118866
:103D10002D022943118073E65021415AD2005218D6
:103D20006E4982188C46624412889205970D002ACB
:103D300000D1D5E61A00733208E0002200212000ED
:103D4000E254FFF775FC9FE51A006F327D33FF33B5
:103D5000FF32196812883B0001F0A0FDC1E669310D
:103D6000FF312068611801F029FA20685AE61F2601
:103D70004D0931404E4271416D1A6149AD022943EE
:103D800089B211803CE6D1008B46C02149008C46A7
:103D900080214746C9010F409C446346009747462F
:103DA0001B680F425AD05021504F415A5944BB46CC
:103DB0004118594409888905890D0F0000919942DD
:103DC00000D94FE15B1A61460B600DD193009C4610
:103DD000844463464B491B88194080239B014B4018
:103DE00049490B4361460B8043465B0607D5920069
:103DF000821813883B490B403B490B431380009BBF
:103E0000002B00D16DE6AB19DB00E3181A007D33FF
:103E1000FF331B6871329C46FF3261461288009B5B
:103E200001F03CFD5DE6314A50219446415A009A2A
:103E300084446144895A029A8905890D039191420B
:103E400000D2BBE0002359463B64200002F0DCFCBA
:103E5000019B002B00D1AEE020683AE750211F4FB4
:103E6000415A5944BB464118594409888905890D6E
:103E70000F000191994200D9F8E05B1A61460B608E
:103E80000DD193009C46844463461E491B8819400B
:103E900080239B014B401C490B4361460B804346EA
:103EA0005B0607D49200821813880E490B400E4916
:103EB0000B431380019B002B00D112E6AB19DB00F2
:103EC000E3181A007D33FF331B6873329C46FF32C0
:103ED00061461288019B01F0E1FC02E60604000045
:103EE0008F0F00008F8FFFFFC080000002040000D2
:103EF00080C00000BF8FFFFF8080FFFFFF83FFFFB8
:103F00000080FFFF8FBFFFFF808000008A1A3A64A5
:103F100000D1D5E6019A002A0DD15A469200944666
:103F200084446246128890464146984A0A4098491D
:103F30000A4361460A804C218C46AA19D200A21875
:103F4000944461460978012900D0CDE6D36B0499E9
:103F50009B468846C3445B46D363536C916B434492
:103F60005364936C88468B4200D294E05B1A93644E
:103F70002923FA5C002A00D07DE02733C25A059B32
:103F80009C46009B62449C46434662440092002B40
:103F900000D0AEE013887F490B4080211380138846
:103FA00009020B431380AB19DB00E3185A8E594604
:103FB000039B01F05BFC2068030095E6521A3A640B
:103FC000019A002A0DD05A469200904680444246FB
:103FD0001288934659466D4A0A406D490A43414644
:103FE0000A804C218846AA19D200A2189044414662
:103FF0000978012900D077E60399D36B8B460193AA
:10400000019B916B5B440293D363536C5B44536499
:10401000936C8B4601938B4252D35B1A9364292392
:10402000FA5C002A40D12733C25A009B62449C4666
:104030005B4662440092002B00D0A5E013885549EE
:104040000B4080211380138809020B431380002347
:10405000AA19D200A218128E029901F007FC20685A
:10406000030041E6002361460B60AFE6634600991A
:10407000196006E7984643469BB20393012A92D102
:10408000059A50239446C35A009A63449446039A6F
:1040900063441A8087E7002B1AD162461370049B91
:1040A000984665E7019B9B465B469BB2012ACFD1B0
:1040B0004F32825A009962448C4662441380C7E7AB
:1040C000019B002B23D142461370039B9B46A6E71E
:1040D00000219164624611702922BA5C002AC9D17C
:1040E000059950328C46825A009962448C4662444B
:1040F00000923E2B2BD801221A4094465908614465
:104100008902009A89B29BB2118003934BE7002188
:104110004346197091642922BA5C002AC2D15032F8
:10412000825A009B62449C46130063440093019BA7
:104130003E2B17D8590801231A00019B1A409446B8
:104140006144009A890289B211809BB280E71F22E4
:104150001A4011004A424A4159098A1A0E499202EC
:104160001143CEE7019B59091F231A00019B1A40F6
:1041700053425341C91A8B020749009A19436B46AF
:1041800089B29B88118063E70193D0E78F8FFFFF8F
:1041900080C00000FF83FFFF0080FFFF70B5AA25ED
:1041A000AD00435D0400012B0AD0012343552333A6
:1041B000C154006801F03EFB00230020635570BD30
:1041C0000220FCE770B507250D4049B20400002924
:1041D00024DBA8004019C000010000262018693126
:1041E0006A30FF31FF30611806700A614A780D703D
:1041F000CB70002A00D0CD81022B01D100230B719E
:10420000AA25AD00635D012B10D001236355206802
:1042100000F014FE00230020635570BD681C81006F
:1042200009180120C90061184870DEE70220F4E790
:1042300007220A4049B270B5040000291ADB930036
:104240009B18DB0019006931FF314118C318AA25FA
:1042500000206A33FF331870AD000A70635D012BD4
:1042600015D001236355206800F022FF00230020B1
:10427000635570BD531C9900C918AA250123C900B4
:1042800041184B700A70AD00635D012BE9D102202B
:10429000EFE7C04670B5072421408C006418E400A5
:1042A00005192E007D36FF3632602A008132FF323A
:1042B00013600023693569345360FF35173AFF34C2
:1042C000137029700119006800F078FF002070BD9C
:1042D00007230B409900C918C90040188530FF30EA
:1042E0000068704770B5072421408C006418E40012
:1042F00004192500E26301224C3523642A70A3646B
:10430000002363642933E254013BE15401318B0003
:104310005918C9004118006800F050FF002070BD16
:104320000723426870B50B40040093422FD84AB26D
:10433000002A1BDB8A005218D20011006931FF31BC
:104340004118821800206A32FF321070AA2501221B
:104350000B708A70AD00635D012B16D0625520682A
:1043600001F0FAF900230020635570BD5A1C91003A
:1043700089180122C90041184A70AA2501220B7030
:104380008A70AD00635D012BE8D10220EDE70120CA
:10439000EBE7C0460F23426870B50B400400934220
:1043A00031D807220A4049B200291BDB93009B1831
:1043B000DB0019006931FF314118C31800260020C5
:1043C000AA256A33FF331870AD008E700A70635DE2
:1043D000012B16D001236355206801F0E1F900207C
:1043E000665570BD531C9900C91800260123AA25E3
:1043F000C90041184B708E700A70AD00635D012BCF
:10440000E8D10220EDE70120EBE7C046F0B5CE464B
:10441000474680B50368040083B0DA0330D58022B4
:104420004E4B5205D969002711425DD080264C4D74
:1044300076002B68334265D0484DC0232A6A9B0022
:104440001000616818401A4211D00B4083420ED010
:1044500080202B6A2E6A400230432862286A414A33
:10446000414E1A40304028622A62DB0762D43B4A40
:104470003C48136A03400B431362012F54D0236856
:10448000DA0706D5032035490A6B8243A068024348
:104490000A639A0706D5314934480A6B0240E0683E
:1044A00002430A639A0606D510202C490A6B824300
:1044B000206902430A639A0306D5802027490A6BC4
:1044C0008243A06902430A635B0505D4002003B060
:1044D000C0BCB946B046F0BD4021204A136B8B43A7
:1044E00061690B431363F1E78026D9691C4D1143C1
:1044F000D961DB69760013400193019B2B6801377A
:10450000334299D12B6833432B6000F05BFC80462B
:104510002B68334200D08FE700F054FC4346C01AAA
:104520006428F5D90320D2E7D36911490B40D36140
:104530002368A5E700F046FC022398460D4B0600D1
:10454000994604E000F03EFC801B4845EAD842460C
:104550002B6A1A42F6D0616889E7C0460010024013
:1045600000700040FFFCFFFFFFFFFEFFFFFFFCFFAE
:10457000FFFFFFEF881300008022104B120519691E
:104580000A431A611A690E490A401A6142680368AF
:10459000134382681343C2681343026912041A4327
:1045A000084B5A60196842690748120201400A43E1
:1045B00060211A601A680A431A60704700100240AE
:1045C000FFFFFFF7006C0040FFC0FFFFF0B5CE46D5
:1045D000474680B5040083B0002800D113E103688A
:1045E000DA072FD50C21C54842680A40042A00D1B9
:1045F0002BE142681140082900D11DE16368012BBD
:1046000000D12CE1002B00D14EE1052B00D179E245
:10461000BA4BBB491A680A401A601A68B9490A407D
:104620001A6000F0CFFB80260500B44FB60205E00B
:1046300000F0C8FB401B642800D933E13B683342DB
:10464000F6D023689A0729D50C22AC494868024263
:1046500000D1D1E048680240082A00D1C3E0E368F5
:10466000A64D002B00D163E101222B6802271343E2
:104670002B6000F0A7FB060005E000F0A3FB801B09
:10468000022800D90EE12B681F42F6D0F8212A68D3
:1046900023698A43DB0013432B6023681A072DD458
:1046A0005A0745D580220020944B5205D96981468E
:1046B000114208D1D9691143D961DB6913400193D3
:1046C000019B0123994680278F4E7F0033683B4230
:1046D00000D1CBE0A368012B00D13CE1002B00D13D
:1046E000FBE0052B00D1C9E10121844B1A6A8A4302
:1046F0001A621A6A03318A431A6230E1E3697F4D14
:10470000002B00D185E001226B6A022713436B6204
:1047100000F058FB060005E000F054FB801B022867
:1047200000D9BFE06B6A1F42F6D023685A07B9D49C
:10473000DA0612D56269012A00D1C4E1053200D03F
:104740001FE10420F8256D494A6B82434A63486B98
:10475000A269A843D20002434A639B0622D50C22D9
:1047600066494B6813400C2B00D12AE14B681A4074
:10477000082A00D11EE1236A604D002B00D12AE1F6
:1047800080276B6B7F023B436B6300F01BFB0600D3
:1047900005E000F017FB801B022800D982E06B6B5C
:1047A0003B42F6D0636A002B1BD00C22534D696844
:1047B0000A40082A00D16BE1022B00D126E12B68C8
:1047C000524A802613402B6000F0FCFAB604040025
:1047D00004E000F0F7FA001B022863D82B6833428C
:1047E000F7D1002010E04A68C02149020A40802128
:1047F00009028A4200D032E7404A1268920745D542
:10480000E268012A42D0012003B0C0BCB946B046DC
:10481000F0BD01226B6A022793436B6200F0D2FA6B
:10482000060004E000F0CEFA801B02283AD86B6A3A
:104830001F42F7D1236879E7C021426849020A4044
:10484000802149028A4200D0D8E62C4A126892039D
:1048500000D4F7E66268002A00D0F3E6D3E78023AD
:10486000264A5B0211680B431360DAE633683B4368
:10487000336000F0A7FA050004E000F0A3FA401B43
:1048800064280FD833683B42F7D023E7F8251B484C
:1048900022690168D200A9430A4302601A0700D4C2
:1048A000FEE62BE70320AFE7144D154A2B6880275F
:1048B00013402B602B68134ABF0213402B6000F09B
:1048C00081FA060004E000F07DFA801B6428E9D834
:1048D0002B683B42F7D12368B4E60122074E0C4D0A
:1048E000336A93433362336A03329343336200F093
:1048F00069FA02230700984611E0C0460010024002
:10490000FFFFFEFFFFFFFBFF00700040FFFFFFFE09
:104910008813000000F056FAC01BA842C2D84246D5
:10492000336A1A42F6D14B46012B68D02368FFE662
:1049300001222B68022793432B6000F043FA060004
:1049400004E000F03FFA801B0228ABD82B681F421E
:10495000F7D12368A2E671490A6A13430B6200F09B
:1049600031FA6E4B0600984602276D4D04E000F0C8
:1049700029FA801BA84295D843461B6A1F42F6D0ED
:10498000D1E70422654D02276B6B13436B636B6B9E
:10499000033A93436B6300F015FA060005E000F05C
:1049A00011FA801B022800D97CE76B6B1F42F6D1FD
:1049B0002368D2E6C0224B6852021340934200D0D3
:1049C000D9E6564B5B6BDB0300D4EBE6236A012B85
:1049D00000D018E7E6E66B6B524A802713406B6302
:1049E00000F0F0F97F02060005E000F0EBF9801B13
:1049F000022800D956E76B6B3B42F6D1D2E6474A14
:104A00004949D3690B40D361236891E62B68474A33
:104A1000802713402B6000F0D5F9BF04060005E0A5
:104A200000F0D0F9801B022800D93BE72B683B42FD
:104A3000F6D10F22EB6A394E9343226B1343EB629C
:104A4000A16AE36A6A680B4339490A4013436B6001
:104A500080232A685B0413432B6000F0B3F98025A0
:104A60000400AD0405E000F0ADF9001B022800D9F8
:104A700018E733682B42F6D00020C5E60421274B07
:104A80001A6A0A431A621A6A03390A431A6266E703
:104A9000012B00D1B7E6C0226B68A16A5202E86A16
:104AA0001A408A4200D0AEE60F22216B02408A42B1
:104AB00000D0A8E6F022E06A92031340181A431EC1
:104AC0009841C0B2A0E60421144D02276B6B0B4342
:104AD0006B636B6B13436B6300F074F9060005E0C6
:104AE00000F070F9801B022800D9DBE66B6B1F42D7
:104AF000F6D0F8216A6BA3698A43DB0013436B632A
:104B000023682AE68022054BD20219680A431A60FC
:104B10008022196852020A431A6082E5001002409E
:104B200088130000FFFFFEFFFFFFFFEFFFFFFFFE08
:104B3000FF7FC2FF70B516008022022388B05200AA
:104B40000292039300220323049205930023802200
:104B500090200B4C0693636992021343636163696F
:104B60000D001340019302A9C005019BFEF70AFC4A
:104B70006168044B194031432943616008B070BD3E
:104B800000100240FFFFFF8070B588B069460A0040
:104B90001B4B31CB31C21B68136004AA1000194BA8
:104BA00070CB70C01B68184D03600C206B681840F8
:104BB00008280AD00C3843425841144B4042184050
:104BC000134B9C46604408B070BD0F209C0C044001
:104BD0000C5DE96A0840115CC0228020520213403B
:104BE0004002834201D0934204D00948FBF78CFA7B
:104BF0006043E8E70748FBF787FA6043E3E7C0460E
:104C0000187C00082C7C000800100240005A620248
:104C100000127A00006CDC02F8B5CE46474604006C
:104C20000D0080B500280DD001233F490A681A40C5
:104C3000AA420CD20A689A432A430A600A681340BF
:104C4000AB4204D00120C0BCB946B046F8BD2368D1
:104C50009A070ED55A0705D5E0223449D200486894
:104C600002434A60F02031494A688243A068024307
:104C70004A60DB0724D562682C4B012A4AD0022AFD
:104C800044D0032A4CD01B689B07DBD50321274E59
:104C900073688B431343736000F094F80C239846B9
:104CA000234B0700994604E000F08CF8C01B4845F0
:104CB00034D8434672681A4063689B009A42F3D125
:104CC0000121194A13680B40AB4205D913688B4385
:104CD000136013681942B5D123685B0706D5134AE0
:104CE000144953680B40E1680B435360FFF74CFFD6
:104CF0000E4B114A5B6811491B061B0FD35CD84051
:104D00000860012000F01CF800209CE71B689B0154
:104D1000BCD497E71B689B03B8D493E7032092E7C2
:104D20005B6BDB03B2D48DE7002002400010024031
:104D300088130000FFF8FFFF7C8400080C000020AF
:104D400070B50400FA200E4B80001978FBF7DCF9EF
:104D50000C4D01002868FBF7D7F9FEF7BBF90028D6
:104D60000CD10130032C00D970BD02380022210083
:104D7000FEF76AF9044B00201C60F5E70120F3E719
:104D8000100000200C000020140000201021064A12
:104D900010B5136801200B431360FFF7D1FFFDF737
:104DA00047FE002010BDC04600200240034A044BCD
:104DB00011681B785B1813607047C046B01A00205A
:104DC00010000020014B18687047C046B01A002040
:104DD00070B50400FFF7F6FF0500631C02D0044B1A
:104DE0001B78E418FFF7EEFF401BA042FAD370BD1A
:104DF0001000002044230022C252024A043BC25247
:104E00000020704780BFFFFF4022835A02490B40B9
:104E1000835200207047C0467F40000084B0029259
:104E2000039340220123835200238352043283528E
:104E30000C3283520191002004B07047F0B5464611
:104E4000D6464F46C0B50C780500A300C3181A8893
:104E50008A48CE780240022E00D1DDE03DD8002EF7
:104E600000D1D3E08020C000024300208246844F5E
:104E700084483A4392B21A801A88844602402243F8
:104E80003A4392B21A800A7BE4002C19002A2DD1F1
:104E9000CA884F7852085200002F00D18BE0802042
:104EA0005021C0008046695A091941440A801A8875
:104EB000520605D561461A880A4073490A431A808A
:104EC000012E00D1BFE01988704A114020225140C4
:104ED0006B4A0A4392B21A8043E0032E00D0AFE03F
:104EE000C020C000024300208246C0E71A88684FF5
:104EF000024080203A431A805022C00081469046EA
:104F00000F89AA5A7F0812194A447F001780424627
:104F10006048AA5A804612194C89424464086400C9
:104F200014804A78002A22D11A88520405D5614695
:104F30001A880A4058490A431A801A88520600D52E
:104F40006DE01988554A514C1140C02292014A40E7
:104F50004B490A4392B21A801A882240114389B2FF
:104F600019805046E0BCBA46B146A846F0BD1A8842
:104F7000520405D561461A880A4047490A431A80F7
:104F80001A88520605D51A883E490A403E490A4306
:104F90001A80012E5ED019883C4A114020225140CF
:104FA000374A0A4392B21A801A883C490A403C495F
:104FB0000A431A80D5E750273648EE5B84463948C5
:104FC0003619664484463280EA5B096912196244E4
:104FD00000292BD03E2944D801254C0829406418CB
:104FE000A402A4B214801A88520405D51A8825494F
:104FF0000A4029490A431A801988284A1140C022C8
:1050000092014A4026490A431A80AAE7802080007C
:105010000243002082462AE70020824627E71A88BA
:1050200018490A4018490A431A808AE711881E4C19
:105030002140802411801188240221431180D2E76D
:105040000120824613E71A8810490A4014490A438E
:105050001A8086E71A880D490A4011490A431A80C6
:10506000A2E71F254C0929404D426941641A0F49A6
:10507000A402214389B21180B5E7C0468F89FFFFA2
:105080008080FFFF8F8FFFFFC0800000BF8FFFFF7A
:10509000808100000404000080C000008FBFFFFF7B
:1050A0008080000006040000FF83FFFF0080FFFFF8
:1050B0000B784A789B00097BC018038800290CD123
:1050C000002A56D05B0600D562E00388344A1340BC
:1050D000344A1343038000207047002A24D15B0424
:1050E00005D50388304A1340304A134303800388B0
:1050F0005B0605D503882C4A13402D4A13430380D1
:105100000388294A26491340294A13430380038808
:10511000284A1340284A13439BB2038003880B405C
:105120001A4392B20280D6E75B0405D503881E4A73
:1051300013401E4A1343038003885B0605D503888A
:10514000194A13401A4A134303800388164A19491F
:105150001340164A134303800388114A1340164A2A
:1051600013439BB2038003880B401A4392B2028020
:10517000B1E75B0405D503880B4A13400B4A134380
:10518000038003880B4A1340064A13430380A2E7B7
:105190000388054A1340064A1343038095E7C04637
:1051A000BF8FFFFF808000008F8FFFFF80C0000057
:1051B000C08000008FBFFFFF8080FFFFF0B5DE469C
:1051C00057464E464546E0B54B7802000C7B87B00B
:1051D000012B61D0002C2FD0CC78022C00D193E190
:1051E0000120012C51D188690C690025A04201D908
:1051F000051B20008D61002B00D06CE15026B74BC1
:10520000955BD3185B19B64D0C78A846E4001B19C2
:105210009044002800D1DCE13E2800D94BE1012573
:10522000470828403F18BF02BFB21F80935B43442A
:105230001B191F800B781CE088690B69984201D903
:10524000C41A180050238C61A54CD55A0B78141938
:10525000DB0064191B19002800D194E03E2800D916
:1052600087E10125440828402418A402A4B21C8028
:105270000B789B00D21811889A4B00201940C0234C
:105280009B014B4098490B43138007B0F0BCBB46D1
:10529000B246A946A046F0BD0F698869B84248D811
:1052A0008025ED004B695519002C49D00E78B400CB
:1052B000A446F4000194CC78022C6FD09444644648
:1052C000248887B2640600D460E15024145B019EF8
:1052D000A046834C14194444B046444427804E8968
:1052E0000404240C013464087619002C0BD06400EB
:1052F0001C19F71A58781E780002DD193043023362
:105300002880A342F6D1634678481B88034078483A
:105310000343604603800B7800209B00D318198854
:10532000744A114030225140734A0A4392B21A80A3
:10533000ABE78025ED0038004B695519002CB5D13D
:10534000040487B2240CC888013464084019002C76
:105350000FD06400C61A1C199446320026005878F3
:105360001C7800029D182043023328809E42F6D10B
:10537000624650235948D45A0B781018DB000019A4
:105380001B181F80C7E718885C4C204080241880B9
:1053900018882402204318800B786AE74F4E0C6A65
:1053A000B04690444646A1460296A74200D386E105
:1053B000944466463688B0464C4EB24646465446FD
:1053C00026404F4C2643644626804C4686B2B14662
:1053D0000604241A360CA3460C626446B446012621
:1053E000B046C44466467608B2463D4E2488B4466C
:1053F000944466460396640600D401E15024019E5D
:10540000145B6444B4464E46644426804C89A446EA
:105410005446AC44002C22D066466400A046F61ADE
:10542000B446059010005E46984442468B461C00E8
:10543000614680469C460496019E039760782378D7
:1054400000026718184302343880A242F6D1049C47
:10545000594663464246A346039F059801965C461B
:105460001B184B61201A5F4507D3A0B28146200468
:10547000000C01304008824600200862029C502047
:10548000A446105A019C6044A4464C4660440480E3
:1054900050460E897619002800D13CE74700DF19F5
:1054A000F61A58781D7800029C1928430233208090
:1054B0009F42F6D12FE71F25470928400500684283
:1054C00068413F1A0F48BF02384380B21880935B8F
:1054D00043441D1928800B78CBE6C0460204000027
:1054E000060400008FBFFFFF808000008F8FFFFF4A
:1054F00080C00000BF8FFFFF8080FFFFFF83FFFFA2
:10550000808100000080FFFF002B1CD15033C45A63
:105510009846884B0878D3181B19874E0C69C00031
:105520001B189619002C3DD03E2C00D9F0E0012527
:1055300067082C403F19BF02BFB21F804346D35AB1
:10554000F3181B181F80CB69002BC4D00B787B4D40
:105550009800101804882C40AC4202D0002C00D0D7
:1055600087E60388764C2340764C234303800B78F0
:105570007FE61F254409284045426841241A7248A5
:10558000A402204380B218800B7872E65024145B8A
:10559000019EA046674C14194444B04644442780F9
:1055A0000E899DE6694F1C88BC463C401C801F88C4
:1055B000654C65462743BFB21F804346D35AF31854
:1055C0001B1818882840188018880443A4B21C802F
:1055D000B9E75E4F1888BC466546384018801F887A
:1055E00059480743BFB21F80935B43441B191C8873
:1055F0002C401C801C88204380B218800B7838E631
:10560000029E5024B446145B019E6444B4464E4648
:10561000644426800C89A4465446AC44002C22D015
:1056200066466400A046F61AB446059010005E4631
:10563000984442468B461C00614680469C46049630
:10564000019E02976078237800026718184302349D
:1056500038809442F6D1049C594663464246A3469C
:10566000029F059801965C461B184B61201A5F4506
:1056700007D3A0B281462004000C013040088246C6
:1056800000200862039C5020A446105A019C6044EC
:10569000A4464C466044048050464F897F19002838
:1056A00000D138E644001C19FF1A58781E78000211
:1056B000DD193043023328809C42F6D12BE6604648
:1056C00017183888224C2040224C20433880029CF6
:1056D0005020A446105A019C6044A4464C466044A5
:1056E000A6B2068024040F89240C013464087F19B3
:1056F000002C00D10FE664001C19FF1A58781E78A0
:105700000002DD19304302332880A342F6D102E6BD
:105710001F2567092C4025006C426C413F1B0A4C39
:10572000BF023C43A4B21C804346D35AF618361835
:10573000348008E702040000060400004040000036
:105740008F8FFFFFC08000000080FFFFFF83FFFFFF
:105750008F8EFFFF808000000B784A789B00C01876
:10576000002A0AD002880A4B1A4010235A40094BDB
:1057700013439BB20380002070470288064B1A40F7
:1057800080235B015340054A13430380F3E7C0467F
:10579000BF8FFFFF8080FFFF8FBFFFFF8080000073
:1057A0000B7B002B1AD10B784A789B00C01803881A
:1057B000002A15D05B0605D50388124A1340124A09
:1057C00013430380CB78012B08D002880F4B1A407B
:1057D00020235A400E4B13439BB203800020704796
:1057E0005B0405D50388074A13400A4A1343038024
:1057F0000288094B1A40C0239B015340074A1343B8
:105800000380EBE78F8FFFFFC0800000BF8FFFFF9B
:105810008080FFFF80C000008FBFFFFF80800000FE
:10582000402301220021C25243328152413AC252E6
:1058300000207047002902D14C238022C252002050
:105840007047C04658228021835A09020B43835275
:10585000002070475822835A5B045B0C835200205F
:105860007047C0464423C05A80B2704730B5802488
:10587000E400A446013362445B088018002B0BD07F
:105880005A008A18451A4B780C781B024819234392
:10589000023103808A42F6D130BDC046F0B5802483
:1058A000E400A4466244801802005F080FD00C0098
:1058B0003D00461AA2191288013D92B22270120AC6
:1058C00062700234002DF5D17F00C219C919DB07BF
:1058D00001D513880B70F0BDAF239B00C35870B582
:1058E000002B0ED0AE22802592008458AD00605D62
:1058F000FF2806D0044A9B682100A25C9847FF233A
:105900006355002070BDC0460102000043230380A0
:10591000004870475C000020432303800048704724
:10592000A000002043230380004870471800002097
:105930000A230380004870471C01002070B5AE2682
:10594000B6000400855901F097F883239B00E850C6
:10595000A359002B0AD083239B00E918083BE85881
:10596000B833E358DB689847002070BD0220FCE79D
:10597000F8B5AE239B00C75804000D00002F1DD0C2
:105980000833C2588B005B189E008619F069002806
:1059900006D0DB00D218916BFAF73CFC002905D049
:1059A000852300229B00FA500020F8BDF1610023FE
:1059B00000222900200001F043F8F5E70220F4E777
:1059C000F0B5AE2383B06A469B00C6586B4605000F
:1059D000901D60220C00591D002317000B700380DE
:1059E00023781F401A421CD0202F06D02800210007
:1059F00000F026FD022003B0F0BDE2886078002AA6
:105A000022D05BB2002B3ADAAF239B00EB58310077
:105A10009B68984731002800E28800F043FD002091
:105A2000E9E763780A2B1FD00B2B16D0002BDDD1B2
:105A3000A7239B00EB5C032BD8D101000222280096
:105A400000F030FD0020D6E7AF239B00EB5800228A
:105A500021009B6898470020CDE7A7239B00EB5CC3
:105A6000032BC3D10020C6E7A7239B00EB5C032BCD
:105A7000BCD10122280000F015FD0020BBE78023E7
:105A80009B00F054034B31002800F25400F020FD3D
:105A90000020B0E70102000070B50400002681215B
:105AA00000F07EFF01212000E66200F079FFB623BE
:105AB000AE255B00E65082212000AD0000F070FFB3
:105AC00063592664002B08D0AF239B00E3585B6822
:105AD0009847605900F0DCFF6651002070BDC04659
