:020000040800F2
:1000000000400020A1060008FD4E0008014F000836
:1000100000000000000000000000000000000000E0
:10002000000000000000000000000000054F000874
:100030000000000000000000094F00080D4F0008FC
:100040004907000849070008490700084907000850
:1000500049070008154F0008214F0008490700080C
:100060004907000849070008490700084907000830
:100070004907000849070008490700084907000820
:100080004907000849070008490700084907000810
:100090004907000849070008490700084907000800
:1000A00049070008490700084907000849070008F0
:1000B00049070008490700084907000805500008DB
:1000C00010B5064C2378002B07D1054B002B02D02E
:1000D000044800E000BF0123237010BDE0010020B0
:1000E00000000000489A0008044B10B5002B03D014
:1000F0000349044800E000BF10BDC04600000000F6
:10010000E4010020489A0008002243088B4274D37F
:1001100003098B425FD3030A8B4244D3030B8B4208
:1001200028D3030C8B420DD3FF22090212BA030C11
:100130008B4202D31212090265D0030B8B4219D3F2
:1001400000E0090AC30B8B4201D3CB03C01A524112
:10015000830B8B4201D38B03C01A5241430B8B425A
:1001600001D34B03C01A5241030B8B4201D30B0343
:10017000C01A5241C30A8B4201D3CB02C01A52416A
:10018000830A8B4201D38B02C01A5241430A8B422D
:1001900001D34B02C01A5241030A8B4201D30B0216
:1001A000C01A5241CDD2C3098B4201D3CB01C01A30
:1001B000524183098B4201D38B01C01A524143093A
:1001C0008B4201D34B01C01A524103098B4201D328
:1001D0000B01C01A5241C3088B4201D3CB00C01A95
:1001E000524183088B4201D38B00C01A524143080D
:1001F0008B4201D34B00C01A5241411A00D2014632
:10020000524110467047FFE701B5002000F0F0F8BA
:1002100002BDC0460029F7D076E7704703460B437E
:100220007FD4002243088B4274D303098B425FD3EF
:10023000030A8B4244D3030B8B4228D3030C8B421B
:100240000DD3FF22090212BA030C8B4202D3121201
:10025000090265D0030B8B4219D300E0090AC30BD6
:100260008B4201D3CB03C01A5241830B8B4201D383
:100270008B03C01A5241430B8B4201D34B03C01A6C
:100280005241030B8B4201D30B03C01A5241C30AE4
:100290008B4201D3CB02C01A5241830A8B4201D355
:1002A0008B02C01A5241430A8B4201D34B02C01A3F
:1002B0005241030A8B4201D30B02C01A5241CDD2E4
:1002C000C3098B4201D3CB01C01A524183098B422F
:1002D00001D38B01C01A524143098B4201D34B0118
:1002E000C01A524103098B4201D30B01C01A52417B
:1002F000C3088B4201D3CB00C01A524183088B4202
:1003000001D38B00C01A524143088B4201D34B00EA
:10031000C01A5241411A00D201465241104670475C
:100320005DE0CA0F00D04942031000D34042534061
:1003300000229C4603098B422DD3030A8B4212D321
:10034000FC22890112BA030A8B420CD38901921153
:100350008B4208D3890192118B4204D389013AD090
:10036000921100E08909C3098B4201D3CB01C01A65
:10037000524183098B4201D38B01C01A5241430978
:100380008B4201D34B01C01A524103098B4201D366
:100390000B01C01A5241C3088B4201D3CB00C01AD3
:1003A000524183088B4201D38B00C01A5241D9D2EB
:1003B00043088B4201D34B00C01A5241411A00D26C
:1003C0000146634652415B10104601D34042002B68
:1003D00000D54942704763465B1000D3404201B5E7
:1003E000002000F005F802BD0029F8D016E770479C
:1003F0007047C046002B11D1002A0FD1002900D12F
:10040000002802D00021C943080007B4024802A115
:100410004018029003BDC046D9FFFFFF03B46846F1
:1004200001B5029800F034F8019B9E4602B00CBC66
:100430007047C046F0B5CE469946030C9C4613045F
:1004400047461B0C1D000E0061460404240C80B5B9
:100450000700100C4B436543414360432C0CC0180C
:1004600024188C46A34203D980235B029846C444D7
:10047000494679435643230C2D042D0C89196344B6
:1004800024046019C918C0BCB946B046F0BDC046C6
:10049000F0B557464E464546DE46E0B504000D0031
:1004A0009246994683B08B4230D82DD0494650466B
:1004B00000F0BAF829000600200000F0B5F8331A61
:1004C0009846203B34D49B4653465A469340424676
:1004D0001F00534693401E00AF423BD8AF4200D1AD
:1004E00079E05B46A41BBD41002B00DA76E00022D8
:1004F00000230092019301235A4693400193012364
:1005000042469340009329E08242CFD90022002343
:10051000009201930C9B002B01D01C605D60009841
:10052000019903B0F0BCBB46B246A946A046F0BD57
:1005300042469B4620239B1A5246DA40414613000E
:100540004A468A40170042461F43534693401E00C6
:10055000AF42C3D900220023009201934346002BEF
:10056000D8D0FB0772081A4346467B080EE0AB4220
:1005700001D1A2420CD8A41A9D41012024196D4139
:100580000021013E24184D41002E06D0AB42EED989
:10059000013E24196D41002EF8D1009801995B4667
:1005A00000196941002B24DB2B005A464446D340F6
:1005B0002A00E2401C005B461500002B2ADB2600C7
:1005C0009E40330026004746BE403200801A9941C3
:1005D000009001919EE7A342BCD882E742462023C7
:1005E00000219B1A0022009101920122DA4001921F
:1005F00085E7424620239B1A2A0046469A4023005C
:10060000F340444613432A00E2401C005B461500B9
:10061000002BD4DA42462F002023260097409B1A55
:10062000DE403B003343CDE710B5002903D100F095
:1006300007F8203002E0080000F002F810BDC046C4
:100640001C2101231B04984201D3000C10391B0A02
:10065000984201D3000A08391B09984201D30009C6
:10066000043902A2105C40187047C046040302021D
:100670000101010100000000000000000023C25C35
:100680000133002AFBD1581E7047000003B47146A5
:10069000490840004900095E49008E4403BC704788
:1006A0001E4885461E4801681E4A914212D100210B
:1006B00001601D4801680122114301601B48016867
:1006C00003229143012211430160194801688D46BC
:1006D000416808471448016801221143016013482A
:1006E000016803229143016012481349134A002311
:1006F00002E0D458C4500433C4188C42F9D3104AD1
:10070000104C002301E013600432A242FBD304F03A
:10071000A3FC08F02BFD02F0C7FDFEE7004000201F
:10072000F03F0020EFBEADDE181002400000014097
:1007300000C8FF1F00000020E001002080B8000872
:10074000E00100203C2E0020FEE70000F8B5070085
:1007500010000C001600FFF791FFA04216D80028E9
:1007600016D0002402E00134A04211D0395D335D7F
:100770000A00613A192A01D82039C9B21D00613D29
:10078000192D01D8203BDBB29942ECD00020F8BDF6
:100790000120FCE770B5040006F0CEFD2100FFF754
:1007A00039FD0B0061088B421FD25801C01A80002E
:1007B000C018C000FFF7A8FC114B5C68002C00D1EA
:1007C000104CFA210E4B890040439D68FFF79CFCBA
:1007D000FA2160438900FFF797FC80220A4B641BD3
:1007E000D200A0420AD99A6170BDE41A6001001BD0
:1007F00080000019C000FFF787FCDDE79A62F3E78D
:1008000010E000E080BB00000014004810B5022892
:1008100000D010BD00228021034805F07FF900229E
:10082000024B1A70F5E7C04600080048D31A0020B2
:10083000F0B5C64600B586B0182836D90F223D4B14
:100840000F241A70002303930133FF3301933A4FAF
:10085000FD3B01ADEB600121384A90201368C005D3
:100860008B4313600022364B29001A7002232A6141
:100870006B6004F0ADFFA3001B199B00FB181A6905
:10088000304B1A60304A1278002A4DD119681A6824
:10089000E023DB051A40F0231B050020194006F079
:1008A00003FC06B080BCB846F0BD8600224F361867
:1008B000B600BE19337A040098461E4B10221870F9
:1008C000002102A808F01EFC80235B0001AD01930B
:1008D000FD3BEB604346002BBDD0002200210020F1
:1008E00006F0E2FB0022174B90201A600223290039
:1008F000C0056B602B6104F06BFF01210F4B1A6880
:100900008A431A6072899A62B289DA62013252109D
:100910005A630B4A596111700B4A1278002AC0D1F0
:100920001A680A431A60BCE700220021002006F082
:10093000BBFBB6E7D41A0020D8B50008002C014054
:10094000B7160020BC160020B6160020F0B5D6461B
:100950004F464646C0B58046FFF790FE071E20D0A2
:10096000184B85269A46AE239B00994653464A4625
:1009700000249B58B6003D1B402D1FD8A9B2124839
:100980009A59002A16D14346181908F0E3F853463D
:100990004A460D499B589A59002A07D16419A74223
:1009A000E9D8E0BCBA46B146A846F0BD01390029F5
:1009B000F1D1F3E701380028E2D1E4E740254021F6
:1009C000DDE7C046481B0020400D03000FB400B512
:1009D000A3B024AB04CB802102A8019308F078FBDC
:1009E00002A8FFF7B3FF23B008BC04B01847C04605
:1009F00010B51C4C82B02078172801D902B010BD68
:100A00000130C0B2FFF714FF0122174B1A7006F035
:100A100093FC164B22781860182A20D893001449AA
:100A20009B189B0059581348FFF7D0FF80210122E3
:100A30001148C90005F072F800230193019B0F4A89
:100A4000934205DC019B01330193019B9342F9DD45
:100A5000802100220848C90005F060F8CEE7084967
:100A6000E1E7C046D41A0020AC160020A8160020EA
:100A7000D8B50008B09A0008001400485FEA0000EA
:100A8000A89A000810B51C4C82B02078002801D12B
:100A900002B010BD0138C0B2FFF7CAFE0122174BE9
:100AA0001A7006F049FC164B22781860182A20D8D4
:100AB000930014499B189B0059581348FFF786FF71
:100AC000802101221148C90005F028F80023019374
:100AD000019B0F4A934205DC019B01330193019B6B
:100AE0009342F9DD802100220848C90005F016F87C
:100AF000CEE70849E1E7C046D41A0020AC16002032
:100B0000A8160020D8B50008B09A000800140048C4
:100B10005FEA0000A89A0008012370B50C4E00247B
:100B20003370002301200B4D0B4A2B7001331178D9
:100B3000012903D10124411C2B54C8B20133DBB27B
:100B40002032402BF3D1002C00D0307070BDC04655
:100B5000000200200402002020C000080020054BF5
:100B600005491A78012A01D19A69801820338B42ED
:100B7000F7D1704720C0000800C80008F0B58DB05C
:100B800004F072FD00233422012600930193174CD8
:100B9000174B029403966946DA6001A804F0DAFC68
:100BA000051E05D004F074FDFFF7B6FF0DB0F0BDD3
:100BB00011200F220F4904AF68443E7008F0FCFA80
:100BC00080235B0008930C4B0C4E0A930C4B099549
:100BD0000C4D0B936E442100325900230220043443
:100BE00004F094FDAC42F6D1DCE7C04600C000083A
:100BF00000200240CC9A00087D0600001040FFF75C
:100C00000101C0BF20C00008F0B54546DE4657468A
:100C10004E46E0B53F4C00253F4B4048A54402E01E
:100C20002033834212D01A78012AF9D16E1C14AAFB
:100C30006D01541922001900B0C9B0C2B0C9B0C2C8
:100C4000203330C930C2F5B28342ECD104F00CFD40
:100C500000233422012600930193314C314B02943E
:100C600003966946DA6001A804F074FC8046002807
:100C70000BD004F00DFDFFF74FFF2B4B9D44F0BC54
:100C8000BB46B246A946A046F0BD112004AF0F22D4
:100C9000264968443E7008F08FFA80235B00089371
:100CA00043460993224B234E0A93234B1A4F0B932F
:100CB0006E442100325900230220043404F026FD42
:100CC000BC42F6D1002DD4D014AB99460CAB9A4659
:100CD0005B429B464F4653464A4613CA13C313CA48
:100CE00013C354460C4E03CA03C35E442268311931
:100CF00000230220043404F009FDA742F6D1434644
:100D00000133DBB2984620239C46E144E344454549
:100D1000E1D1AEE7ACF7FFFF20C0000800C8000833
:100D200000C000080020024054080000CC9A0008CF
:100D30007D0600001040FFF70101C0BF0C4B10B54D
:100D40009C46440164442378012B00D010BD04F07C
:100D50008BFC3422074B2100DA60012000220023A3
:100D600004F0D4FC04F094FCFFF74EFFEEE7C0461D
:100D700000C00008002002401D4B10B5DA691D4B71
:100D80009A4230D11C4B1D4902E020338B422DD0BA
:100D90001A78FF2AF9D01A78012AF6D00124002007
:100DA000154B164904E000280ED120338B4206D0A3
:100DB0001A78FF2AF7D1203301208B42F8D1002C7A
:100DC0000ED1FFF7A9FE10E01A78012A08D02033CF
:100DD0008B42F4D01A78FF2AE7D01A78012AF6D18C
:100DE000FFF712FF01E0FFF7C9FE10BD0024D6E7B0
:100DF00000C000080101C0BF20C0000800C80008F2
:100E000010B500240F4B00211C600F4B10220F481F
:100E10001C7008F077F903220D4B0E481C700E4B26
:100E20001A70FFF793FD0D4C2000FFF78FFD0C4863
:100E3000FFF78CFD2000FFF789FD0A48FFF786FDCC
:100E400010BDC046881600208C1600209016002089
:100E5000A0160020DC9A0008D51A0020E89A0008A5
:100E6000209B0008589B0008F0B5D64646464F46E2
:100E70002A4BC0B598468CB06D461800FFF766FD4A
:100E80002748FFF763FD4046FFF760FD2548FFF761
:100E90005DFD4046FFF75AFD234B2A00190051C95A
:100EA00051C251C951C21833160013CB13C213CB10
:100EB00013C200231D4FFB56052B01DD05233B709C
:100EC0001B4A002491461B4A924608E048460134DA
:100ED000FFF77CFD0435062C0DD00023FB56A20045
:100EE0002968B258A342F1D150460134FFF76EFD94
:100EF0000435062CF1D14046FFF728FD0E48FFF7D8
:100F000025FD4046FFF722FD0C48FFF71FFD0CB002
:100F1000E0BCBA46B146A846F0BDC046E89A000813
:100F2000949B0008CC9B0008609A0008A316002040
:100F3000249C0008049C00083C9C0008749C000849
:100F4000F0B5DE4657464E4645468A4BE0B59A46D2
:100F5000180087B0FFF7FAFC8748FFF7F7FC504608
:100F6000FFF7F4FC8548FFF7F1FC5046FFF7EEFC75
:100F7000834B01931B78002B00D1C9E00C270C2375
:100F80000022804EB256BA4201DB013B33707E4BE9
:100F9000002498467D4B02AD99467D4B00969B46BA
:100FA0000B2C00D9A8E04246A300D3589F46019BD2
:100FB0001B78002B00D0AEE02A00764B43CB43C217
:100FC0001B7875491370009B2A001B785BB2A34203
:100FD0002DD04846FFF7FAFC0134BC42E0D1504620
:100FE000FFF7B4FC6D48FFF7B1FC5046FFF7AEFCCD
:100FF0006B48FFF7ABFC07B0F0BCBB46B246A94656
:10100000A046F0BD674B1B78012B00D1A7E0022B57
:1010100000D1A8E0644B1021644A280007F0F4FFD7
:10102000009B2A001B7862495BB2A342D1D158468B
:10103000FFF7CCFCD0E7019B1B78002B79D15D4BEF
:1010400010212800594A07F0DFFF5B49BBE75B4BE3
:101050001B78012B79D0022B00D188E0032B00D123
:1010600083E0574B72E0574B1B78002B65D1514BF7
:10107000102128004D4A07F0C7FF5349A3E7534BFF
:101080001B78002B57D14B4B10212800474A07F003
:10109000BBFF4F4997E74F4B197818295DD88B0054
:1010A0004D4A5B189B009B58102128003F4A07F0CF
:1010B000ABFF4A4987E74A4B1B78002B43D1404B93
:1010C00010212800474A07F09FFF47497BE7474B1D
:1010D0001B78002B35D1374B10212800334A07F0FD
:1010E00093FF43496FE7434B102128001B68424A96
:1010F00007F08AFF414966E7414B1B78002B1ED160
:101100002C4B10212800294A07F07EFF3D495AE761
:101110000A270A2334E73C4B1B78052B21D83B4A8E
:101120009B009B5810212800204A07F06DFF38498A
:1011300049E7384B84E7374BA6E7364B98E7354B02
:10114000DFE7344BC8E7344BBAE7344B10212800B3
:10115000164A07F059FF324935E7324BA4E7324BC4
:1011600059E7324BDEE7324B55E7324BEEE7324B75
:10117000ECE7C046E89A00084C9E0008849E0008F0
:10118000B6160020A3160020C0AD0008149F00086A
:10119000F49E0008E49E0008149E00083C9C000891
:1011A000749C0008B5160020E49C0008BC9E000852
:1011B000309E0008A49C0008F89D0008080000204C
:1011C000B89C000806000020C09D0008B41600204E
:1011D000A49D0008D41A0020D8B50008889D0008F6
:1011E00009000020D89E00086C9D00080A0000201D
:1011F000509D00080C000020C89E0008349D000887
:1012000010000020189D00080700002040AF0008D3
:10121000FC9C00089C9C0008B09C0008C09C000836
:10122000DC9D0008A89A0008F09C0008D89C0008E3
:10123000F49C0008D09C0008C89C0008F0B54E46FD
:10124000DE4645465746E0B59FB0FFF765FC624B6A
:10125000624A98461B78914612789E1CF6B252B2AA
:10126000B24202DB4A46013313705D4D2800FFF79E
:101270006DFB5C48FFF76AFB2800FFF767FB5A48E5
:10128000FFF764FB2800FFF761FB002E4FD0574BA0
:1012900000249A46564B9B46564B0493564B059357
:1012A0005B46AB460393350029E0544B1F5D002F8E
:1012B00064D0534A534B944680227F01FB189B69AC
:1012C0006744D200934200D37EE006AE1021300086
:1012D0004D4A07F099FE4B461B785BB2A3425DD0A6
:1012E0004A4A23005021019600970AA807F08CFE75
:1012F00050460AA90134FFF769FBA54216DD4346B3
:101300001B78A342D1DC4A46127852B2A34247D09E
:1013100094424DD0342203990AA807F04DFF0134BE
:1013200050460AA9FFF752FBA542E8DC5D462800BB
:10133000FFF70CFB0022364B36481978012901D102
:101340009969521820338342F7D19305990D1B0DEB
:101350005B18414609785B0A920A01392E48FFF76B
:1013600035FB2800FFF7F2FA2C48FFF7EFFA1FB021
:10137000F0BCBB46B246A946A046F0BD06210120FE
:10138000274F06AE0300009130001021254A07F0D8
:101390003BFE4B461B785BB2A342A1D1224AA0E799
:1013A00094420BD0342205990AA807F005FF9FE765
:1013B0003C2204990AA807F0FFFE99E73C221B494A
:1013C0000AA807F0F9FE93E79905980A8B0D090D15
:1013D000C918490AD5E7C04600020020A31600201C
:1013E000E89A00082C9F0008649F000884A5000864
:1013F0009CA0000860A000082CA0000804020020A7
:1014000001C0000800C000089C9F0008D49F00088D
:1014100020C0000800C80008D0A000080CA10008E7
:10142000CC9A0008A49F0008B09F0008F09F000815
:1014300010B50A48FFF78AFA094B1B78002B04D035
:10144000012B08D0022B03D010BDFFF70DFDFBE7E9
:10145000FFF7F4FEF8E7FFF773FDF5E7DC9A000805
:10146000A4160020F0B5DE4657464E464546E0B588
:10147000484A494B116885B0994231D00F239B46A9
:101480000E3B9A4601339946002301270126012588
:101490000024002001219C46103301935A463F4B03
:1014A0001A7052463E4B1F703E4B1E703E4B1D70D5
:1014B0003E4B1A704A463E4B1C703E4B1A706246B9
:1014C0003D4B1A703D4B019A18703D4B19703D4BC6
:1014D0001A6005B0F0BCBB46B246A946A046F0BDB6
:1014E000137957799B46137A96799A46937AD579E8
:1014F0009946D37A547A9C46137B02931369517BA5
:1015000001930198244B80460298434480465B44F3
:10151000DB199B195B1953441B194B446344434427
:1015200088465269434403919A42A7D15B46182BDF
:1015300001D90F239B467B1E9F41731E9E416B1E4C
:101540009D415346FFB2F6B2EDB2032B01D9012300
:101550009A46631E9C414B46E4B2052B01D90223F7
:1015600099466146022200238A425B416246029804
:1015700003995B421A40431E98414B1E9941019BBF
:101580009446043BC0B2C9B23C2B00D886E7102376
:10159000019383E700F80108032C07BFD41A002049
:1015A000100000200A000020090000200800002090
:1015B000B616002007000020B5160020B416002043
:1015C000060000200C000020F0B557464E46454668
:1015D000DE461E230022E0B58BB06B441A80374BE9
:1015E000364C0493364BA3461B789A46354B1B78F2
:1015F0009946354B1B7898464246344B11041B786C
:1016000052469C46324B1F78324B1E78324B1D7827
:10161000324B18784B461B02134362460B431206AB
:1016200013430593330229043B4302060B43134340
:1016300006932B4B19786B4619772A4B1A786B4611
:101640005A77294B1B6808935B4453444B444344EB
:101650006344DB199B195B191B18244D5B189B18FD
:101660002800182204A9099307F03EFD002806D19E
:101670000BB0F0BCBB46B246A946A046F0BD03F095
:10168000F3FF002369460093019301A801330295FB
:10169000039303F05FFF00280CD1154E2C00154D6D
:1016A0006E442100325900230220043404F02EF845
:1016B000AC42F6D103F0ECFFDAE7C046032C07BFDB
:1016C000D41A0020100000200A0000200900002089
:1016D00008000020B616002007000020B5160020E4
:1016E000B4160020060000200C00002000F80108BD
:1016F0001008FEF718F8010802220B4B10B51A70FB
:101700000023FF21094A0A4813700A4A13700A4A43
:1017100011700A4A7F3913700122094B49011A706E
:10172000002204F0FBF910BDD51A0020A4160020F9
:1017300000080048A316002005000020A116002084
:10174000A216002010B5A0B03022002114A807F086
:10175000D9FC1022002102A807F0D4FC1C22002191
:101760000CA807F0CFFC1822002106A807F0CAFC3D
:1017700032231024139313A8313B16931B93189311
:101780001794199405F0DCF9072300240121029332
:1017900002A8043B03930494059405F0F7FC80230E
:1017A0000CA89B020C93129405F0EAF88022A02169
:1017B0000020D205C90405F077FC80210C4B0905F7
:1017C000DA6906A80A43DA61DB6922220B40019339
:1017D000019B80239B050793064B069409932023C6
:1017E00008940A920B9305F081F920B010BDC04611
:1017F000001002407FBB000030B587B014220021EA
:10180000684607F07FFC8021154D01222800C900A1
:1018100004F084F9802128000122090104F07EF9F6
:10182000FF2200240023694612020E480092019311
:10183000029403F0CDFFC0220023694628009200E5
:1018400000920193029403F0C3FF0023064A694605
:10185000064800920193029403F0BAFF07B030BD2E
:101860000008004800040048FFFF00000010004886
:1018700030B583B0FFF7A8FE80250022364B374CE9
:101880001A70ED00364B200029001A6004F046F96A
:10189000A562344C2278182A53D8930032499B18F9
:1018A0009B0059583148FFF791F8314B1B78002BBA
:1018B00010D0304B1B78012B4CD0022B43D12E493A
:1018C0002E4B1B78052B43D82D4A9B009A582D4848
:1018D000FFF77CF8FFF790FFFA239B000193019B31
:1018E0005A1E0192002BFAD1802100222648C900FD
:1018F000019B04F013F9FA239B000093009B5A1EEE
:101900000092002BFAD12078009BFEF791FF8021F6
:10191000002249011C4804F001F90A2005F012FDDB
:10192000802580210D4CED0001221748490104F06B
:10193000F5F800222900200004F0F0F8A56203B0B9
:1019400030BD1249AEE70D4B11491B78052BBBD9B1
:10195000104ABCE71049B3E7D51A0020001400482C
:10196000B0160020D41A0020D8B5000844A1000801
:10197000B6160020B5160020F49C000807000020D1
:1019800040AF000880A1000800080048A89A00089D
:10199000E49C0008D89C0008F09C000870B50D007D
:1019A000012680211B4A03041B0C82B05361020CE8
:1019B000040032401848490004F0B0F88021620C5D
:1019C00015483240890004F0A9F8FF21134B2D027D
:1019D0005A691148114029435961802100220901A7
:1019E00004F09CF80A230193019B5A1E0192002BDC
:1019F000FAD18021012208480901019B04F08EF8E8
:101A00000A230093009B5A1E0092002BFAD1009BE0
:101A100002B070BD001000480008004800040048F3
:101A200030B5802101251D4A03041B0C85B053618C
:101A3000020C04002A401A48490004F06FF8802183
:101A4000620C17482A40890004F068F80A230393BF
:101A5000039B5A1E0392002BFAD1802100221048CA
:101A6000C900039B04F05AF80A230293029B5A1EF2
:101A70000292002BFAD16A468021029B094BD41DA9
:101A80001B6907481B0ADBB2D371C900012204F0AD
:101A900045F82078C0B205B030BDC04600100048FF
:101AA0000008004800040048F8B50E000500402773
:101AB000224C234A2368AA211B041B0C13432360D6
:101AC0002048FFF76BFF55211F48FFF767FFA02154
:101AD0001C48FFF763FF31002800FFF75FFF236812
:101AE0001A4E1B041B0C23602800FFF799FF04000B
:101AF0002800FFF795FF444027420FD0013E002EFB
:101B0000F2D12800FFF78CFF04002800FFF788FFC0
:101B1000604007420FD001267642E5E72800FFF734
:101B20007FFF04002800FFF77BFF4440274202D0DC
:101B3000013E002ED8D10020F8BDC0460004004868
:101B40000000555555550000AA2A000050C300005A
:101B500070B54026264C274A2368AA211B041B0C7B
:101B6000134323602448FFF719FF55212348FFF74B
:101B700015FF80212048FFF711FFAA211E48FFF71B
:101B80000DFF55211D48FFF709FF10211A48FFF7E7
:101B900005FF23681A4D1B041B0C23600A20FFF766
:101BA0003FFF04000A20FFF73BFF444026420FD0CE
:101BB000013D002DF2D10A20FFF732FF04000A2078
:101BC000FFF72EFF604006420FD001256D42E5E78A
:101BD0000A20FFF725FF04000A20FFF721FF4440F9
:101BE000264202D0013D002DD8D1002070BDC04654
:101BF000000400480000555555550000AA2A000071
:101C0000404B4C00D0B586B014220021684607F046
:101C100079FA8021154C01222000C90003F07EFFD3
:101C2000802120000122090103F078FFC022012356
:101C30000026012769462000920000920193029637
:101C4000039703F0C5FD0123094A6946094800923C
:101C500001930296039703F0BBFD0749074A0B68FF
:101C60001B041B0C13430B6006B0D0BD00080048DA
:101C7000FFFF000000100048000400480000555518
:101C8000F0B5DE4657464E464546E0B5CFB08B46EA
:101C900003900492002901D1002081E10123D14A5F
:101CA00005E00133DBB22032402B00D18BE111780B
:101CB000FF29F6D15BB2059300250320C94BCA4921
:101CC00002E020338B420DD01A78012AF9D15A69EB
:101CD0009C691219033282439542F2D220331500D7
:101CE0008B42F1D15B4698225B195202934200D895
:101CF000C3E00020BB4BBC491A78012A01D19A6984
:101D0000801820338B42F7D1982358445B029842C5
:101D1000C2D8B648FEF71AFE802300259B029A46D9
:101D2000B34B0FACA946012625000193029403E0B2
:101D300001360435402E34D0AE4B7201D7183B78B3
:101D4000012BF5D1AC49BB698C4601986244310046
:101D5000FEF73CFE4B46A44A2B6090467B6900246C
:101D60009844FFF74FFFBB69002B0FD02B0045466F
:101D7000B04656469A46295D3019FFF795FEBB6975
:101D80000134A342F7D85546B24646460322BB6902
:101D900001369A44BB690435033393439944402E7A
:101DA000CAD19648029CFEF7D1FD03F05DFC0023EA
:101DB000002209938C4B09A90A920B9326230AA8A7
:101DC0000C9303F0C7FB4EAB984680239B024D4615
:101DD00001935B46834F0695079303E00434203755
:101DE000444540D03B78012BF8D1FFF705FD802119
:101DF00000228348C90003F091FE7B4A2368914684
:101E00009944BB690022002B23D07E4BA2469B46FF
:101E10004B46B946170002933D00002400264B466E
:101E20009B69FF209D4200D2F4E0A04008340643A5
:101E30000135202CF3D1029B3200D9190220002356
:101E400003F064FC4B469B690437BB42E4D84F4621
:101E50005446019ABB6994469C44634604340193FA
:101E600020374445BED1079B069D9B4603F010FCDE
:101E70006548FEF76BFDFEF7C7FE5B4B634C9A4669
:101E8000AA4453465C446419DB0AE40ADB02E40218
:101E9000E41AE40A994603F0E7FB002C00D1C6E0FF
:101EA0008027E402A0462B003F014F44B84445463A
:101EB0003E00494698460EAC0B0002E004339E42B9
:101EC0000CD01A680132F9D000230A932360013341
:101ED00061602000A3600AA903F03CFB80231B0182
:101EE0009C4666443900B54201D06744E4E7454664
:101EF000FFF782FC802100224148C90003F00EFE5A
:101F0000002398463F4B0195994623005C469B462B
:101F1000464600250027FF20A64248D3A8400835A2
:101F200007430136202DF6D15146002341443A00A3
:101F3000022003F0EBFB04239C46E04400264445CA
:101F4000E6D85B46A3461C000123237008AB9C46E1
:101F500019200F2260440399019D07F0ECF8049BBF
:101F6000342263745B46A361294B267466826561E3
:101F7000E661DA60059B16AE5D011E4B2D1B9C468B
:101F800065442268291900230220043403F0BEFBB3
:101F9000A642F6D103F07CFBFEF7BEFD6B46187D32
:101FA0004FB0F0BCBB46B246A946A046F0BDFFF715
:101FB00029FE4B464A461B6830001B041B0C13606D
:101FC000FFF72EFDAAE7FEF71FFE0123054A05E0F5
:101FD0000133DBB22032402B00D15DE61178FF29BE
:101FE000F6D167E620C0000800C80008B4A10008C8
:101FF000F8A1000800C0000801C0000824A20008E1
:10200000000800480004004840A20008FFCF000874
:1020100000200240FFF7F6FD5B465A461B681B0492
:102020001B0C1360019BE818FFF7FAFCFDE60EACF1
:102030005EE7C046F0B54E464546DE465746E0B53B
:1020400087B01C0010AB1B780E008046111E019358
:1020500000D1F4E032007E48FEF7B8FC8021002277
:102060007C48490103F05AFD80210122C9007A48C9
:1020700003F054FD7948FEF769FCFFF7C3FDFFF755
:1020800067FD7748FEF762FC04AB9A465146754BF4
:102090001A6804929A888A809B798B71002C2DD0C3
:1020A0008023B51DDB029D4200D977E0092D28D998
:1020B0000A212800FEF728F8814653469B1B9B46C1
:1020C000694B64270093330000244E46994610E084
:1020D0004346195D20000134FFF7E6FC3100200083
:1020E000FEF798F8002960D0AC426DD06437AC425E
:1020F00068D2A145ECD85B46195DEBE73500092DA8
:10210000D6D8002D00D09FE05848FEF71FFC584855
:10211000FEF71CFC5748FEF719FC019B0125002B1C
:1021200000D188E05448FEF711FC802100224A4883
:10213000C90003F0F3FCFFF75FFBFA239B00039356
:10214000039B5A1E0392002BFAD1802100224148A2
:10215000C900039B03F0E2FCFA239B000293029C5C
:10216000631E0293002CFAD18021002249013948D4
:10217000029B03F0D3FC0A2005F0E4F88021012241
:102180003448490103F0CAFC3C4B1C70280007B0DE
:10219000F0BCBB46B246A946A046F0BD0A213000BD
:1021A000FDF7B2FF3500814687E729003800FDF7CB
:1021B000ABFF2B00010022000098FEF707FC6437FC
:1021C000AC4296D34E460BE029003800FDF79CFF49
:1021D000254C01002B002A0020004E46FEF7F6FB9E
:1021E0002248FEF7B3FB53469B1B00249A460AE0A5
:1021F000434620001F5DFFF713FC87420CD10134DA
:10220000AC4200D183E7A642F2D8534620001F5DBE
:10221000FFF706FC8742F2D0194D03003A00280070
:102220002100FEF7D3FB1348FEF790FB019B00252E
:10223000002B00D076E71348FEF788FBA6E73100B5
:102240001148FEF7C3FB09E70123994635E7C0466D
:1022500084A200080008004800140048C0A200083A
:10226000D0A20008B09C0008D8A2000800A3000873
:102270004CA3000854A3000880A30008D51A00202E
:1022800014A300089CA30008A4A2000800B51048ED
:1022900083B0FEF75BFB01230E4A00930E49002337
:1022A0000E48FFF7C7FE00230D4A13700D4A136056
:1022B0000D4A13600D4A13600D4A13700D4A1380C6
:1022C0000D4A138000220D4B1A7003B000BDC046AA
:1022D000CCA30008FCA300087D06000058AF00084E
:1022E0004D020020600200205C0200205402002009
:1022F0004C020020660200206402002044020020FC
:1023000010B582B0002809D03F2805D80E4B4001F7
:10231000C3181A78012A06D002B010BDFFF7B6FF25
:10232000FFF7A6FAF8E7094A996982185C69084834
:10233000084B2018084C1B7824780094FFF77AFE8D
:10234000FFF796FAE8E7C04600C0000801C00008A1
:1023500000C80008090000200A00002010B52E481F
:102360008AB0FEF7F3FAAE2385212C4C9B00E0588F
:102370002B4A89004358002B49D100230193019B2C
:10238000284A934205DC019B01330193019B934250
:10239000F9DD200005F04CFF200005F025FF80212D
:1023A000214B89025A6906A80A435A615B690C22CB
:1023B0000B4002930021029B06F0A4FE8022902095
:1023C0000123520104A9C0050492059303F000FA09
:1023D0008021902000224901C00503F09FFB0023CB
:1023E0000393039B114A934205DC039B0133039340
:1023F000039B9342F9DD0E4B0E4A1A60BFF34F8FD9
:102400000D4B0E4ADA60BFF34F8FC046FDE7013A2D
:10241000002AAFD1B1E7C04614A40008481B002031
:10242000400D03001FA10700001002403F420F00B3
:10243000F03F0020EFBEADDE00ED00E00400FA0545
:1024400070B5724D04002B78002B05D1052807D8F4
:102450006F4B84001B599F46012B02D0022B27D0C3
:1024600070BD0B28FCD86B4B84001B599F46FEF7B0
:10247000F9FFFFF7FDF9F3E7022300222B70664B0B
:102480001A70664B01321A70EAE700210122624B92
:102490002A701970614B1A70E2E76148FEF756FA2C
:1024A000FFF7F4FEDCE7FFF78FF8FFF7E1F9D7E776
:1024B000FEF732FB5B4B1B78A3420AD876D0002391
:1024C000554A2B7013700122544B1A70C8E7FFF75E
:1024D00045FF554B185DFFF713FFC1E7534A1378CB
:1024E00059424B411370BBE7514A137800296EDD06
:1024F000032101330B401370B2E74E4A137859425F
:102500004B411370ACE74C4A137859424B4113705E
:10251000A6E74A4C2078002953DD03210130FDF75E
:1025200063FF21709CE7414B1B78002B10D0444C7B
:102530002078002964DD06210130FDF755FF217068
:102540008EE7404A137859424B41137088E70023C5
:1025500001222B70304B1A70304B1A7080E73A4BC7
:102560001878002925DD19210130FDF73DFFC8B29B
:10257000FEF75EF974E7354A137859424B41137000
:102580006EE7334A137859424B41137068E7314A7A
:102590001368002920DD042B29D0082B2DD0102B07
:1025A00028D0202B20D00423136059E7FEF728FC05
:1025B00056E719211830FDF717FFC8B2FEF738F9B2
:1025C0004EE703210230FDF70FFF217048E703219A
:1025D00003330B40137043E7402B0BD0202B0CD060
:1025E000102B04D0082BDED04023136038E70823DB
:1025F000136035E72023136032E7102313602FE7C1
:1026000006210530FDF7F0FE217029E7A416002011
:10261000F0AD000808AE0008A3160020A2160020A6
:1026200048A400080002002004020020B616002082
:102630000800002006000020B4160020B516002077
:102640000700002010000020D41A002009000020FC
:102650000A0000200C00002070B59026040001251F
:10266000F605C2098021300003F058FAA2093000B3
:102670002A40402103F052FA620930002A4020210A
:1026800003F04CFA220930002A40102103F046FAE8
:10269000E20830002A40082103F040FAA208300086
:1026A0002A40042103F03AFA620830002A4002214D
:1026B00003F034FA2A0030000121224003F02EFA00
:1026C00070BDC046F0B557464546DE464E46E0B5BD
:1026D00007000D0095B0042906D90522B74906F078
:1026E00019FD002800D170E029003800B44AFEF737
:1026F0002DF800285DD129003800B24AFEF726F8EF
:10270000002856D129003800AF4AFEF71FF80028EC
:102710005FD129003800AD4AFEF718F8061E58D1DF
:10272000AB4C23789846002B00D08DE0A94B1B784A
:10273000002B65D0A84B1B68AB4261D8A74B1B7818
:10274000002B00D184E2002D36D002239946A44B01
:102750007E1E380000219C460127A046761903788A
:102760003E2B16D82A2B1BD91A0065462B3AD2B21B
:10277000D5402F4214D004AA4D1C5354864200D198
:10278000B7E20130402D00D110E2037829003E2B42
:10279000E8D91A004C465B3AA243D2B2002AEAD0EA
:1027A000864200D140E20130D9E720229343432BF7
:1027B00002D101228B4B1A700126300015B0F0BCFB
:1027C000BB46B246A946A046F0BD0122864B1A7010
:1027D000F2E702227E4BFF211A700023834A8448CD
:1027E0001370844A1370844A1170844A80211370D4
:1027F0000122834B49011A70002203F08FF9DBE7B5
:10280000804B1B78012B68D0022B00D136E1032BC3
:1028100000D190E17C4B1B78002B07D07B4B1B78C1
:10282000002B00D03FE1012D00D1F0E1002DC3D0FD
:102830003878FFF711FF012280216D4803F06EF90F
:102840000122734B1A70B7E7022B00D1EEE0032B85
:1028500058D0012BB0D104F06FFD42466D4B18608B
:102860006D4B1A706D4A13685B1913605B4B1B78D4
:10287000002B00D1F7E1002D9ED002239946584B42
:102880007C1E380000219C460127B046641903785D
:102890003E2B16D82A2B1BD91A0065462B3AD2B2EA
:1028A000D5402F4214D004AA4D1C5354844200D169
:1028B000C7E30130402D00D156E2037829003E2BBA
:1028C000E8D91A004D465B3AAA43D2B2002AEAD0B0
:1028D000844200D13AE30130D9E7042D9AD1387807
:1028E0001B28A6D17B785B2BA3D1BB78352B01D1DC
:1028F00000F029FC362B9CD1FB787E2B99D1FEF77A
:10290000C1F859E7464E3378002B00D0EFE0002D98
:1029100000D151E7434A7B19914600229046083284
:1029200092464A46380000253F4902960394019298
:1029300021E07F2A2BD01400203C5E2C17D80C7885
:10294000A4460E2C13D8012466466444E4B2A14682
:102950000C70344CA255A3460024A4464E465C4657
:102960006746A7553F2D02D804AC625501350130AA
:10297000834200D1A1E202781B2A00D18CE20D2A09
:1029800000D159E10A2A00D156E1082AD1D10A78AA
:10299000002AECD04446019E013AD2B20A70B454E7
:1029A000EA1C3F2AE3D8564604ACA44666552024C8
:1029B00065446C70AE701500D9E7C04670A400087D
:1029C00078A4000880A4000888A4000890A4000847
:1029D000D51A0020100000200C000020B4160020A2
:1029E0000F000A007516002076160020A41600209D
:1029F00000080048A316002005000020A1160020B2
:102A0000A216002008000020B6160020B5160020EF
:102A1000D31A0020500200204D020020580200204E
:102A2000A0160020901600208C160020002D00D14A
:102A3000C2E6B14C2378002B00D1D8E1012B00D1A4
:102A400033E20621022B00D160E23B78012D0AD04F
:102A50000023FA5C202A02D0092A00D083E0013347
:102A60009D42F6D1A8E6202BF2D10022A34B9A5624
:102A7000A34B1A700122A34B1A709DE6032D00D0C0
:102A8000C8E638781B2800D0D3E67B785B2B02D0D1
:102A90004F2B00D0CDE6BB78412B00D158E3422B21
:102AA00000D0C6E62BE7012B00D1B5E0022B00D009
:102AB000BCE6012D00D0B9E638780D2802D00A28EE
:102AC00000D0B6E604A90A008F4B31CB31C231CB1E
:102AD00031C28E4B64201B78052B01D89B005858BF
:102AE00072B68B4A13681B18136062B664E63378BB
:102AF000022B00D145E23378062B00D194E13378E4
:102B0000032B00D1EBE13378042B00D054E6002DE9
:102B100000D151E63B78202B09D000D945E60D2B9A
:102B200005D01B2B00D144E60A2B00D044E601223D
:102B3000784B1A7040E6012D00D077E638782B28C4
:102B400000D105E32D2800D1D9E6734B1B78002B6B
:102B500000D16EE6714B1B78002B59D0012B5FD052
:102B6000022BAAD065E6AB4200D325E6FE181B2A4D
:102B700000D146E12578002D00D075E11300313BEE
:102B8000042B00D8CFE2302A00D1DBE12023110052
:102B90009943512900D1D5E10D2A00D154E20A2AE6
:102BA00000D151E2202A00D006E65EE74446904676
:102BB0008021012701225A48C900277002F0AEFF88
:102BC000802100224901574802F0A8FF0023564CFB
:102BD000564E574A236033601360564A1770564A60
:102BE0001370564A1380564A13800022554B1A70B0
:102BF00004F0A2FB544B2A0018604146534806F0EB
:102C0000DBFA534825603560FDF7A0FED4E538783F
:102C1000202800D00DE655E7012D00D006E63878D3
:102C2000092800D005E64DE74446002900D1C3E558
:102C300004AB0D009846BBE7464D029E287800285D
:102C400000D173E1444C0023235401333370B3E5C6
:102C5000402D00D9402504AB2A00390018009846C1
:102C600006F0AAFAA4E7344B99461B78002B00D152
:102C700083E0002D00D153E28023DB029C463049E3
:102C8000364B002098468B46284C2C4A02960197DA
:102C90002368634515D2594613880E8801339B0576
:102CA0009B0D9E420DD016880199B6B2B1460E5CBE
:102CB0004F46B24646465146F155138023680133CC
:102CC000236001308542E3D85946029E10880B8864
:102CD000984200D221E112880B88D21A92B2204B7E
:102CE0009B1A9BB27F2B00D966E501221D4B1A70FF
:102CF00063E54446290098E7A4160020A3160020A7
:102D00000500002004000020909A00080700002021
:102D1000B016002077160020B6160020B516002049
:102D20000014004800080048600200205C020020F7
:102D3000540200204D0200204C02002066020020B8
:102D40006402002044020020500200206806002097
:102D500098A400088C16002090160020680200201D
:102D6000FF030000DC25002046469046C74B47463F
:102D700099461B78002B00D07EE78022C44B52017D
:102D80009A461B685B19934200D8E7E053461C68DB
:102D9000131B9846A24200D0B0E101234A461370AB
:102DA000BC4B9C4664446419002C9ED043463C199D
:102DB000B949F818B94FB4468A46B946B84AB94D28
:102DC0004444514613880E8801339B059B0D9E4257
:102DD00008D0494616880778B6B28F5513802B68FD
:102DE00001332B6001308442EBD166467DE73B78AE
:102DF000012D01D006212BE6202B00D135E606213E
:102E000026E60233AB4206D272785B2A00D125E176
:102E10004F2A00D122E12378013B012B00D8E9E0C1
:102E20000122A14B1A70C7E4002D00D1C4E4002296
:102E300020200EE0302B0FD01900814351290BD0F8
:102E4000190031390132082900D89BE1AA4200D18A
:102E5000B2E4BB5C1B2BEDD10223944A23701370A8
:102E60000122934B1A70A7E4012D00D1C6E0022D78
:102E700000D091E61300303BD9B2412900D98BE64E
:102E80008C48890041588F468B4ADBB212789A42AF
:102E900000D891E4894AE2E70223039C834A237025
:102EA00013700122824B1A7086E4854A11784A42D7
:102EB0005141494299430C31C7E5002D00D17BE4D3
:102EC000AE22804B92009A5885239B00D358002B4A
:102ED00000D071E4A9B204A805F03CFE6CE4002D1A
:102EE00000D169E43B784E2B00D143E100D833E1B7
:102EF0006E2B00D13EE120229343592B00D05BE49E
:102F00000122714B1A70714B1A7055E4FDF704FEE3
:102F1000694B19780231C9B297E512880B88802174
:102F2000C9008C466244D21A92B2D8E6684C10228C
:102F30006849200006F0FFF82000FDF79FFBC0B2B3
:102F4000287080E605225D4B1A7091E546460029FF
:102F500000D131E404AB0D00984607E753461868EA
:102F60005D4B2A00C018390006F026F95346524638
:102F70001B685B1913604B4A13685B191360FFF7FA
:102F80001BFC04F0D9F9554B554A186013685B19BE
:102F90001360002D01D1FFF70FFC8023DB02984660
:102FA0000223504E9946504C7D1904E00137BD4232
:102FB00001D1FFF701FC33783978002B0AD03E2984
:102FC00010D82A29F2D90A00484B2B3AD2B2D34062
:102FD000DB07EBD520684045E8D2431C2360FEF7B1
:102FE00063FDE3E70B004A465B3B9343DBB2002BF8
:102FF000DCD1EFE70023314A237030E71300313B87
:10300000082B00D8D0E02E4B1B78002B08D02023B3
:1030100011009943412900D1D5E0422900D11AE19C
:10302000302A05D0202311009943512900D0B3E55F
:10303000002301222370214B1A701D4B1A70FFF7D9
:10304000BBFB4646290082E704F076F9284B1B6853
:10305000C01A642801D8FFF7AFFB06E5FB5C412BE3
:1030600000D1C2E0422B00D1B6E0432B00D1FCE4FA
:10307000442B00D0CFE60022104B9A561D4B1A70FD
:10308000FF221D4B1A70FFF797FBC0464C02002031
:103090006002002000F0FFFF6402002068020020B0
:1030A000660200205C020020A1160020A416002069
:1030B000A216002038AE000800020020A31600204F
:1030C000B6160020481B0020781600207916002034
:1030D00090160020D4A40008680600208016002066
:1030E0008416002006000020881600200F000A0029
:1030F000FC01002005000020040000205346186851
:10310000574B4246C018390006F056F8534652460F
:103110001B6843441360534A1368434413603CE6FE
:10312000514A5249D2E504F007F9514B514A18600F
:103130003378313B5BB213704F4A137001224F4B0F
:103140001A70FFF739FBFB787E2B01D0FFF771FB7C
:10315000FDF74EFCFFF730FB0A3BDBB2162B01D923
:10316000FFF72AFB464ADA401300DB0700D5C7E623
:10317000FFF722FB0022434B1A70434B01321A70B7
:10318000FFF71AFB303BDBB2AA4208D2BA5C303AF6
:10319000D2B2092A03D80A214B439B18DBB23B4A1F
:1031A0005BB21370FFF708FB04F0C6F8304B314AEE
:1031B00018603378313B5BB213702F4A13702F4B7A
:1031C0001D70FFF7F9FA09222A4B1A702A4B1A7060
:1031D0002A4B1D70FFF7F0FA264A137801335BB2D1
:1031E0008B4200DA3BE6002339E6224A1378013BA2
:1031F00058B21B0601D5481E40B210700122244B64
:103200001A70FFF7D9FA1B4B224A1B7812785BB26F
:10321000934201DBFFF7D0FA1F4AD35C002B01D1A8
:10322000FFF7CAFA1D4A5BB21370FFF7C5FA012215
:103230001B4B1A70FFF7C0FA0E4B164A1B78127818
:103240005BB2934201DBFFF7B7FA134AD256154B34
:103250001A70FFF7B1FA0A22064B1A70FFF708FC42
:10326000680600205C020020660200206402002044
:10327000FC010020A316002005000020040000200F
:103280000900400078160020791600200100002077
:10329000A2160020000200200402002003000020EB
:1032A0007A16002002000020F0B5DE4657464E4652
:1032B0004546E0B50126BBB002AF04F021F803217A
:1032C000FD4DFE4AAB6989463343AB61AB690024CF
:1032D0003340BB67BB6F13688B431360FEF732FA52
:1032E000782054231B1814220021D81905F00AFF56
:1032F00080226B69920313436B616B69F048134042
:10330000A822B9180B600B0080221B686B69D203DE
:1033100013436B616B691340AC22B9180B600B004F
:1033200080221B686B69120313436B616B69134046
:10333000B022B9180B600B0080221B686B699202E7
:1033400013436B616B6992461340B422B9180B604A
:103350000B0080221B686B69D20213436B616B699F
:103360001340B822B9180B600B0080221B686B69F0
:10337000520313436B616B691340BC22B91880225E
:10338000D20090460B600B00002241461B6802F001
:10339000C5FB0122CB49CC4802F0C0FB90200022A3
:1033A000FF21C00502F0BAFB84210022C648490172
:1033B00002F0B4FBCC23C54AF9180A60D0217A1870
:1033C0001460D4227820783BBA1814601A18D119E6
:1033D000BF4802F0FDF9CC234046FA181060D02116
:1033E000D4227918BA180E601460D8227820B9183F
:1033F000783B0C601918C919B14802F0E9F9CC23DF
:103400000222F9180A60D021B24879180860834670
:103410007820D232B918783B0E601918C919AA4819
:1034200002F0D6F9CC230420F9180860D021083323
:1034300079180E60D822F9180C604946B818016056
:103440007820803B1918C9199F4802F0C1F9CC2295
:103450000823B9180B6059460432B8180160782067
:10346000CC33F918803B0C601918C919964802F042
:10347000AFF9CC23FF21D422F81801602F39781836
:103480000660B81804320460B81806607820783BEB
:103490001818C1199020C00502F09AF9CC23102009
:1034A000F9180860D0218346083378180460F818AA
:1034B00006607820803B1818C119834802F088F90B
:1034C000CC226023D021B8180360781874330460CC
:1034D000CA3AF81802607820803B1818C1197A4857
:1034E00002F076F9CC237949F8180160D021D42272
:1034F00078180460B81804607820783B1818C1194F
:10350000754802F065F9CC238421F818490101605F
:10351000D021083378180660D822F8180460782083
:10352000803BBA1814601A18D119674802F050F994
:10353000CC22C023B818D0219B000360D423781874
:103540000460F81804607820803B1818C1195E48A0
:1035500002F03EF9CC228023D021B8185B00036032
:10356000CA3A781802604A462C3BF81808310460C1
:10357000781802607820D932803BBA1814601A1883
:103580009020D2191100C00502F022F9C023CC22EC
:10359000D0211B01BA181360D42378207A1808317F
:1035A00016607918FA18803B14600E601918CA1951
:1035B0001100454802F00CF9CC23FF21FA181160E4
:1035C000D0220833BA18FB18146078201C605423EA
:1035D0001A18D119414802F0FBF8002200210520F9
:1035E00001F058FF052001F07FFF00220021062096
:1035F00001F050FF062001F077FF52466B695C2016
:1036000013436B616B6900211340FB67FB6F7823E9
:10361000C0180C22C01905F075FDCC2180227B1842
:1036200052011A60782054231B18902004319246CE
:103630007A181660D919C00502F0CAF89020002245
:103640005146C00502F06AFA642003F07BFE902028
:103650005146C00502F0C8F905F026FA7820482343
:103660001B180C220021D81905F04CFD1C4A1D4BDB
:103670000420136080235B029361C2235946FF3309
:10368000D3619E3B5061FF3B100093469160D45440
:10369000BA605460D46016611462946201F032FD25
:1036A000C0210A2379180B605146BA33FB18196000
:1036B000C8234946FB1817E00010024000000140F3
:1036C00000140048040C000000080048FFFF000040
:1036D000001000480000211000040048000C0048C1
:1036E000D81A0020002401407822196048239B1832
:1036F000D919584601F03CFE8022AB6912011343F0
:10370000AB61AB69D3481340C022B9180B600B0002
:10371000E0221B68D04BFF321C609A62783AFF3A75
:10372000DE625E639A61802212021E625A64802207
:1037300041461A607F3A02F0F1F9502003F002FE90
:1037400000224146C34802F0E9F9C44B1C707B6576
:10375000C34B1C609A46C34B1C603B63C24B1C604E
:103760009B46C24B1C707B60C14B1C60FEF744F84B
:10377000FA238C229B00BA1813608C217B181B68DB
:1037800079185A1E0A60002BF7D10B008021002205
:10379000B848C9001B6802F0C1F9FA2388229B00CF
:1037A000BA1813608822BB181C68BA18631E13600D
:1037B000002CF7D180211300AE48012249011B687B
:1037C00002F0ACF980210022C900A24802F0A6F95B
:1037D000A94B7B671C70FDF745FEFDF7CDFAA74BA3
:1037E00018787B64FDF724F81021A24802F090F9C4
:1037F000A34BA44A3B651870434258417A66107047
:1038000003F09AFDA04BA14A18609C46A04B3A6178
:103810001C60FB639F4B1C70BB619F4B1C707B61EA
:103820009E4B1C70FB629E4B1C60FB609D4B1C60A2
:103830003B609D4B1C6014609C4A1470BA639C4AA8
:103840003A6414709B4A7A6214809B4A14803A62EC
:103850009A4A11007A6300220A70994AFA6512782E
:10386000002A00D0B3E1974A6146FA66964AF964A5
:103870003A67964AFB613A66954ABA655A46D34614
:103880009246FB6E1B78002B00D071E21021794824
:1038900002F03EF93B6D1C78844200D132E2187090
:1038A00003F04AFDFB6C18607B6E1B78002B00D088
:1038B00038E27B6F1B78022B00D1FBE1032B00D198
:1038C000B4E1012B00D190E13B6F1B78002B21D09C
:1038D00053461A685B461B689A4200D29BE15346E6
:1038E0005A461B6812689B1A9BB280229200934230
:1038F00010D200233A6F1370764B1A78764B1B78F0
:10390000002A00D13CE3002B04D1534A0133116853
:103910000B4313607B6F1B78002B00D05CE15B4690
:103920001A6853461B689A424ED0AE236B499B00DF
:10393000CA58A43BD458002C46D153461D685B4658
:103940003A6B1B6813605B461B68AB4200D323E3F2
:103950005B461B68EB1A3B2B01D800F0B3FD5B46BE
:1039600018685F4B3C21C01805F0F4F85B465A46D6
:103970001B683C3313603B6F1B78002B24D05346ED
:103980001A685B461B689A4201D300F093FD8021C0
:1039900053465A46C9008C461B68126863449B1AFA
:1039A0009BB28022920093420ED200233A6F137092
:1039B000484B494A1B781278002B01D100F0FEFEDB
:1039C000002A01D100F08CFF72B67B6F7A6D1B78F4
:1039D0001278134300D118E262B63B6E1B78002BBD
:1039E00000D02EE2BB6D1B78002B00D0B1E17B6FC5
:1039F0001B78002B00D0E5E0374A1278002A00D16E
:103A0000E0E0384A1168002900D1DBE072B61168A5
:103A10001360894662B62F4B1B78002B01D000F053
:103A200065FE314A314953683148096803400B4308
:103A300053607A6C2F4B11782F488A0052189200ED
:103A40009B185C684B46844258D9642B5AD8012095
:103A500000F0CDFE00140048002C0140D31A0020D5
:103A6000C8160020C4160020C0160020D01A00205E
:103A7000CC1A002000080048D51A0020D41A0020D3
:103A80000000002074160020701600205002002054
:103A90006C1600206A1600206916002068160020A7
:103AA000600200205C020020540200204D02002031
:103AB0004C02002066020020640200204402002024
:103AC0007616002075160020B8160020D61A0020A1
:103AD000AC160020B7160020B6160020481B0020A8
:103AE000CC160020B016002000100240BC160020AA
:103AF000FFFFFF80D8B50008006CDC02642B01D802
:103B000000F072FE0023DA4A48460021FCF792FCDE
:103B100022000023FCF76EFC041E00D10134D54BBB
:103B20005D4698468023DB00994656462100642C6A
:103B300000D96421842000233818036084203B18B6
:103B40004A001B6852188C4652009A420AD9C04655
:103B500084203B181B68391801330B600B689342B3
:103B6000F5D361462A683368641A9A4221D0AE239D
:103B700042469B00D258A43BD3589A46002B18D1FA
:103B800033682A689A4201D300F0D3FC3C212A68AA
:103B90008A469A1A3B2A03D82A689B1A9BB29A46ED
:103BA000B54B28685146C01804F0D4FF2B68534425
:103BB0002B60002CBAD1AB46B246B04AB04953682C
:103BC0000B405360FB6D1B78002B00D159E600239E
:103BD000FA6D1370FEF7C2FB032B00D0F4E6A94B7D
:103BE0001B78042B00D0EFE699E63B6C1B78002B8A
:103BF00000D0EFE1BB6B1B78002B00D090E33B6F54
:103C00001B78002B00D1DFE653461A685B461B6821
:103C10009A4200D363E6802153465A46C9008C4637
:103C20001B68126863449B1A9BB25EE6954C23782E
:103C3000012B01D100F001FC2378022B00D193E28B
:103C40002378062B00D1C4E32378032B01D100F0A5
:103C50008FFC2378042B01D100F027FD2378052B5E
:103C600000D031E6884B894D894C296820001A78AC
:103C7000FEF706F8011E01D100F095FF854E2200E7
:103C800030002B68FCF7A2FE834800F023FD834B35
:103C9000984201D900F085FCFA227B6F92001B78D4
:103CA000904200D364E1022B00D007E680227C4BD7
:103CB000D2009A617B4A1378D9B2002B00D082E1FE
:103CC00079480378DAB2002B00D0AFE377490B785C
:103CD0005BB2002B00DAD0E3FF230C780B70631E7D
:103CE0003E2B02D82000FDF729F821007048FCF790
:103CF0006DFE9620400003F025FBFDF799FB7B6FDE
:103D00001B78DBE503F018FBFB6C1B68C01A0E2860
:103D100000D8C9E57B6E1D78002C00D05CE2002D38
:103D200000D1E1E303F008FBFB6B1B68C01AFA2328
:103D30005B019842ABD30124FB6A32211C70FCF773
:103D4000E3F98022564BD200044200D016E19A6279
:103D5000AFE503F0F1FA574B1B68C01A4F4B98427E
:103D600000D844E60023BA6D1370FDF72DFC3EE643
:103D700080210024FB6E01224948C9001C7001F01B
:103D8000CDFE8021002249014B4801F0C7FE0A20E8
:103D900003F0D8FA802101224901474801F0BEFE14
:103DA0003C2003F0CFFA80210022C9003C4801F0FA
:103DB000B5FE424B1C607C6C2078FCF739FD217805
:103DC000182900D9FDE08B005B183D4A9B009958EB
:103DD0003C48FCF7FBFD3C4B1B78002B00D155E524
:103DE0003A4B1B78012B00D1C0E33949022B00D09C
:103DF00075E3384B1B78052B00D98FE2364A9B00C0
:103E00009A583648FCF7E2FD40E562B640212A4860
:103E100001F07EFE324B1870002800D16AE272B6C3
:103E2000304B1869C0B2FEF717FC012280212248EE
:103E300001F074FE62B662B63B6E1B78002B00D1B7
:103E4000D0E56B46BB62284B80219C46E54402AB23
:103E5000002219484901BB6401F060FE0A2003F00A
:103E600071FA0022BB6C16009846204C204D46E0AB
:103E700040420F00481B0020CC16002000100240DA
:103E8000FFFFFFF0A016002006000020881600208B
:103E900090160020B0A90008DC050000B70B000058
:103EA00000140048A11600207A160020030000200C
:103EB00064A50008A816002000080048B0160020DD
:103EC000D8B50008E0A40008B6160020B5160020FA
:103ED000F49C00080700002040AF000880A1000803
:103EE000D21A0020000C004878ECFFFF00040048C4
:103EF000881300000136AE4201D100F012FEFDF73A
:103F000081FE236830001B041B0C2360FDF788FD35
:103F100043469855FF28EDD1B0463B2E01D800F01E
:103F200017FE85239B004446002699469749BD6CA1
:103F3000B966AE22BB6E92009A584B46D358002BFE
:103F4000FBD128003C213C3C04F004FE3C363C35CF
:103F50003B2CEED8B04500D996E37B6F1B78002B45
:103F600000D17BE300233A6E1370BB6A9D4639E5AE
:103F70000123BA6913708022854BD2009A6198E4BC
:103F8000002B00D0C6E4834A8349536883480968FC
:103F900003400B435360BDE45B461A68F1239B006A
:103FA0009A4200D2DBE45B46802118681B68C90096
:103FB000C91A7B4B89B2C01804F0CCFD5B461C606B
:103FC000D9E4784904E700231370FDF751FC7B6FB7
:103FD0001B7873E47B6B1B78002B01D100F0BBFDD9
:103FE000796A386A0B8802886F4D704E9A426BD09E
:103FF0006F4B802499466F4BE40298465B46BB6446
:104000005346BB624B46B346AA4606008946FD6945
:10401000BB661BE02B68A34200D19EE053461B7891
:10402000002B0ED04B461A8833889A4232D34B4627
:104030001B8832889B1A604A9BB2D31A9BB2FF2B13
:1040400036D84B461A8833889A4238D05A46338835
:104050009BB2D15C3388C9B201339B059B0D338081
:104060002B68A342D6D22868431C2B60FDF71CFDA9
:1040700043462A681B689A42D0D329684F48FCF708
:10408000A5FC80224346D200944642461B68634406
:104090001360C3E780214B46C9008C461B883288D9
:1040A00063449B1A444A9BB2D31A9BB2FF2BC8D9D4
:1040B00004F07CFD4B461A8833889A42C6D1BB6C0B
:1040C00055469B46BB6A9A462B78002B00D008E2E7
:1040D0007B6B1B78002B01D1FFF7F6FB7B6A1A88FC
:1040E0003B6A1B889A4201D0FFF7EEFB03F024F9EC
:1040F0003B691B68C01A632801D8FFF7E5FB304B0A
:104100001B78002B08D08022FB69D2021B68063383
:10411000934201D800F08AFD8023F869DB0202682F
:1041200019009A4200D801682648FCF74FFC264B3C
:104130001B78002B01D000F0C7FD2448FCF706FCDB
:104140000023BA6B13703A6C13707A6B1370FA68B1
:10415000136004F02BFDFFF7B7FBB86EFCF7F6FB1E
:104160002B6801332B6059E7194D2B68002B00D1C8
:1041700066E503F0E1F8174B1B68C01A632800D905
:10418000B5E37B6F1B78FFF79CFBC046481B002004
:104190000014004800100240BC160020FFFFFF8002
:1041A000CC160020A89A0008DC2500206802002018
:1041B00090AA000848020020FF03000078AA000827
:1041C00009000020CCAA00080A0000209CA30008D7
:1041D0008816002080160020012C01D0FFF764FB18
:1041E000002D01D1FFF765FB00237A6E137003F0F9
:1041F000A3F8F96AFA6B09781268002901D000F077
:104200005CFC831AFA225201934201D300F055FC60
:104210007A691278002A01D000F0F3FCE54A934253
:1042200001D900F0EEFCBA691278002A01D000F042
:1042300024FDFA24A400A34201D300F01EFD7A6FEE
:1042400012780E2B01D800F03AFC022A01D100F0BE
:10425000F5FD012A01D100F0B3FD80210122D648ED
:10426000C90001F05BFC802100224901D34801F024
:1042700055FC0A2003F066F8802101224901CF484D
:1042800001F04CFC3C2003F05DF880210022C900C5
:10429000C94801F043FC00227C6CC94B20781A60AD
:1042A000FCF7C6FA2178182901D900F051FD142233
:1042B0004A43C44BD158C448FCF788FBC34B1B7816
:1042C000002B01D100F0FBFBC14B1B78012B01D16E
:1042D00000F03BFDBF49022B00D0BF49BF4BC04A95
:1042E0001B78052B02D8BF4A9B009A58BE48FCF7A2
:1042F0006DFBE4E32021B14801F00AFCBB4B1870D0
:10430000002800D105E17B681B78002B01D100F06B
:104310000BFC72B6B86801F027F883E5B04A70E587
:1043200003F00AF83B691B68C01A632801D8FFF73D
:10433000CBFAAF4BAF4C1B78002B29D02368002B56
:1043400026D0F96822680B6800259A4202D92268B3
:104350000D68551B642021682368226868439046D5
:10436000FA68BB661268BA64FBF7CEFE8146FA2093
:104370008000B96E6843FBF7C7FE0A21FBF74AFFCE
:104380009D4E00914B4641463000BA6CFCF71EFB37
:104390009A4AFD689A4E12789A4B29681B78300029
:1043A00000920022FDF746FE0023BA6B13703A68B4
:1043B0002B601360FA69236013603A6C13707A6A99
:1043C00013803A6A13807A6B137004F0EFFBFFF7E7
:1043D0007BFA8D4A13785BB2002B01DAFFF774FA8F
:1043E000FF23157813706B1E3E2B02D82800FCF7B4
:1043F000A5FC29008548FCF7E9FAFCF7AFFB9823F8
:1044000000215B02984200D2191A814B1B688B4233
:1044100000D9E1E17F48FCF7D9FA7F48FCF796FA2A
:10442000032323707B6F1B78FFF74BFA0170FCF7B7
:10443000E7FC7B6F1B78FFF741FA78497848FCF777
:10444000C5FA7848FCF782FAFDF7DCFBFDF780FB44
:104450007548FCF77BFA7548FCF778FA00226C4B3C
:104460001A60734B1A6002F067FF724B18600223E8
:1044700023707B6F1B78FFF724FA6F490B785BB2D0
:10448000002B4DDA6D4C23785BB2002B00DB13E27E
:104490006B4B1978002900D083E37B6E1B78002BCF
:1044A00000D06EE69620C000FCF774F97B6F1B7895
:1044B000FFF704FA53465A461B6812689B1A9BB2D0
:1044C000FFF76FFA5B46186819685E4B691AC018E7
:1044D00089B204F03FFB5B461D60FFF74CFA3E4992
:1044E00087E404F063FBF3E501237A6E137002F0B6
:1044F00023FF8021FB6B00221860BB692F481D70D1
:104500007B6949011D70FB6A1D7001F007FBFFF715
:10451000CBF900228021294801F000FBFFF75CFA6B
:10452000FF2308780B70FDF7EBFE7B6F1B78FFF71E
:10453000C5F94A462B68D31A3C2293463B2B04D834
:104540004A462B68D31A9BB29B463E4B2868594675
:10455000C01804F0FFFA2B685B444B4502D22B686D
:104560005B449A4653462B60FFF723FB364940E4F1
:10457000364B1A78002A01D1FFF7A6F900221A70EB
:10458000334B1B78DDB2934200D03DE23148FCF75B
:10459000DDF9314B1D70052323707B6F1B78FFF70E
:1045A00090F9962001237A6980001370FCF7F2F8E5
:1045B000FFF77FF9B70B000000140048000800481F
:1045C000B0160020D8B50008E0A40008B6160020F8
:1045D000B5160020F49C0008E49C000807000020A9
:1045E000D89C000840AF000880A10008D11A002024
:1045F000B416002058020020F4AA00080A00002087
:1046000068060020090000200100002064A50008C1
:1046100088160020BCA700088CA700089016002070
:104620007CA500088CA50008A8A50008B4A5000872
:1046300084160020801600200200002005000020C3
:10464000A2160020CC160020F09C0008791600204D
:10465000781600203CA800087B160020FDF7CCF857
:1046600080210022C900CF4801F058FA0A2002F048
:1046700069FE1021CB4801F04BFA002800D060E21F
:10468000012002F05FFE6DE4AE238522C6499B0047
:10469000C95892008B58002BFCD14346991BBB6C28
:1046A00089B2981904F056FA57E4F96E7B6E0A78CD
:1046B0001B781A4300D1E1E000220A708021B9483A
:1046C000490101F02BFAFDF7E1FDB848FCF73EF98E
:1046D0009620C00002F036FE02237A6F1370B44AAF
:1046E00013700122B34B1A70FFF7EEF80125002674
:1046F000B14C23682B432360AB4BBB66B14214D053
:10470000B0465E468B462369AB43236104E05346C3
:1047100032681B689A420FD123691D42F7D00123EA
:104720009C46E044C345EED1B3460121A24A13683A
:104730008B431360FFF746FAAE23BA6E9B00D25844
:10474000A43BD3589946002BE6D153461B683268E8
:104750009A4213D23C21326889469A1A3B2A03D8DE
:1047600032689B1A9BB29946944B30684946C018F0
:1047700004F0F0F933684B443360CDE780223C21EC
:104780003368D200D31AB9643B2B03D83368D21AEA
:1047900093B2BB64894B3068B96CC01804F0DAF985
:1047A000B96C80228C463368D2006344934202D2B3
:1047B0008946336899444B463360ADE7002A01D0FF
:1047C000FFF702F97E4A7F4953687F480968034032
:1047D0000B435360FFF7F8F8591A7C48FCF7F6F8DA
:1047E0007B6F1B78FFF76DF82100FBF78DFC4B46C4
:1047F000002B01D1FFF7E1F90124032800D9840837
:1048000000255E46684BBB660023802204E0C0465C
:104810008022BB181B680133B9180B600B689C42DF
:10482000F5D8534632681B689A4221D0AE23BA6E3F
:104830009B00D258A43BD3589846002B18D153461E
:104840001B6832689A4200D34DE13C2132688846A9
:104850009A1A3B2A03D832689B1A9BB29846574B48
:1048600030684146C01804F075F93368434433603A
:104870000135A945C8D1B346FFF79FF9544B1978C4
:10488000CDB2002900D093E102F056FD514B1B68D8
:10489000C01A514B984200D873E4802141482A0045
:1048A000490101F03BF94D48FCF750F8052323700E
:1048B0007B6F1B78FFF705F8494B20781978FF23A9
:1048C00049B22370FDF7BCFD7B6F1B78022B01D032
:1048D000FEF7F4FFFCF7ACFD7B6F1B78FEF7EEFFF5
:1048E0000123354A11680B431360FFF76DF83D480B
:1048F0002968FCF76BF83C4B1B78002B24D03B4B12
:104900001E68002E20D02B689946002398464E45FD
:1049100002D94B46F31A9846434664203100584367
:10492000FBF7F2FBB866FA204246800050433100A4
:10493000FBF7EAFB0A21FBF76DFC00914A463100C8
:10494000BB6E2B48FCF742F8FCF708F998230022CD
:104950005B02984200D233E1982329685B029942B6
:1049600000D951E1914200D857E58B1A2148FCF754
:104970002DF82148FBF7EAFF204B01269946204BF2
:10498000204D984604E020350136454500D141E1EF
:104990002B78012BF7D131004846AB696A1CFCF734
:1049A00015F8F0E700080048481B002000A900089F
:1049B000A4160020A2160020002C0140CC160020D6
:1049C00000100240BC160020FFFFFF80F4A7000883
:1049D000771600207C1600200F27000074A900081D
:1049E00004000020FCA5000806000020841600201A
:1049F0001CA60008B8A6000808A700083CA70008E5
:104A000000C8000820C00008D348FBF79FFFD34828
:104A1000FBF79CFFD248FBF799FF0122D14B1A709C
:104A2000D14B1B78002B00D0CCE0FCF7E5FEFA233D
:104A30009C229B00BA1813609C217B181A68791875
:104A4000531E0B60002AF7D10B008021C748C90014
:104A50001B6801F063F8FA2398229B00BA181360D0
:104A60009822BB181D68BA186B1E1360002DF7D171
:104A700013001B687B6C1878FBF7DAFE53461D6049
:104A80005B4680211D603B6F2A004901B7481D70BD
:104A900001F044F80A2002F055FC80210122B348BD
:104AA000490101F03BF802F047FCB14B18600423C8
:104AB00023707B6F1B78FEF704FFFDF7E7FB0023F5
:104AC000BA6913707A691370FA6A13707B6F1A7877
:104AD000002A01D0FEF7E8FE8021A648C90001F0B7
:104AE0001DF8FEF7E1FE80223C213368D2008B46A0
:104AF000D31A3B2B03D83368D31A9BB29B469E4BE9
:104B000030685946C01804F025F880223368D20076
:104B10005B44934202D233685B4498464346336019
:104B2000A6E6B046FFF7FDF9BC68200000F08EFB5A
:104B30000121200000F0B6FB01237A681370FFF713
:104B4000E8FB802101228948490100F0E7FF97E551
:104B50000026FFF7FFF9802500248848FBF7F6FEC2
:104B6000FDF750F8FCF7F4FF8548FBF7EFFE854EA4
:104B70006D012000315D0134FCF796FFAC42F8D1A5
:104B8000FB6981481C601968FBF720FFA0227F4B5E
:104B900052011A6001237A6B137004F007F8FFF7D3
:104BA0001FFA1A7096E67A48FBF7D0FE794891E52D
:104BB00080216E4849011A7000F0B0FF764873E614
:104BC0001A1AC9E6754D5B212868FCF76DFF286845
:104BD0002D210130FCF768FF28685D210230FCF7C9
:104BE00063FF28682B210330FCF75EFF28685B21F8
:104BF0000430FCF759FF28685D210530FCF754FFAD
:104C000013E7FCF779FD5AE76548FBF7DFFEFA206A
:104C1000C0005FE56348FBF799FEFF22624B1A7004
:104C2000062323707B6F1B78FEF74BFEFC695B212C
:104C30002068431C2360FCF737FF20682D21431CAC
:104C40002360FCF731FF20685D21431C2360FCF7E3
:104C50002BFF20682B21431C2360FCF725FF2068D5
:104C60005B21431C2360FCF71FFF20685D21431C70
:104C70002360FCF719FFFFF74FFA802101227B6FB9
:104C80003C48C9001A7000F049FF80210022490108
:104C9000364800F043FF0023FA68444C13603A683A
:104CA00043481360FA6923601360BA6B13703A6C5F
:104CB00013707A6A13803A6A13807A6B1370FBF769
:104CC00045FE03F073FFFAE63A48FBF73FFE80210A
:104CD00000222848C90000F021FFFCF78DFDFA23CF
:104CE000A4229B00BA181360A4217B181A687918B3
:104CF000531E0B60002AF7D10B0080211B48C9000E
:104D00001B6800F00BFFFA23A0229B00BA18136067
:104D1000A022BB181C68BA18631E1360002CF7D1C0
:104D2000802113004901220010481B6800F0F6FEA4
:104D30000A2002F007FB802101220C48490100F003
:104D4000EDFE7B6F1C70FFF7FBF91B49FFF7C6FAFE
:104D50001A49FFF7B0FAC04660A800088CA80008FE
:104D6000C8A800087B1600200900002000080048A1
:104D70007C16002000140048CC16002024AA00084D
:104D8000D0A200086806002078AA00084802002087
:104D9000E8A90008DC05000040A9000888160020EA
:104DA0006CA600085CA70008010000205802002043
:104DB000F8A4000880A30008F09C0008A89A000846
:104DC000802100221F48C90000F0A8FEFCF714FD56
:104DD0009423FB181C6094217B181A687918531EC1
:104DE0000B60002AF7D10B0080211748C9001B680F
:104DF00000F094FEFA2390229B00BA1813609022D0
:104E0000BB181C68BA18631E1360002CF7D18021F0
:104E10001300490122000C481B6800F07FFE0A20A5
:104E200002F090FA802101220748490100F076FE45
:104E30007B6F06481C70FBF789FD40E6FCF718FD08
:104E40003DE6C04600140048000800484CA5000894
:104E50007047C046012200B50F4B83B09969052009
:104E600011439961996940420A4080210092009A59
:104E7000DA6949050A43DA61DB6900220B400193D4
:104E80000121019B00F006FB02200022012140428B
:104E900000F000FB03B000BD0010024010B504009C
:104EA00088B01422002102A804F02CF9104B2268CB
:104EB0009A4201D008B010BD80210E4B89009A693A
:104EC0000D480A439A619A690A4080210092009A2B
:104ED0005A6909030A435A615B6901220B40019335
:104EE000019B032302A90292039300F071FCE1E706
:104EF0000024014000100240000800487047C046EE
:104F0000FEE7C0467047C0467047C04610B502F085
:104F100007FA10BD10B5022000F006FE10BDC04615
:104F20002C4B70B55B691B0732D52B4C2378002BBB
:104F300028D12A4A2A4953680B405360C046C046CC
:104F4000284B294918690B68284D01339B050E68C9
:104F50009A0D2B68C0B29E4229D30B682D685B1B4B
:104F60009BB2FE25AD00AB4216D20B68204D0A6005
:104F7000E8542378002B23D001211E4A13680B43E9
:104F8000136010E001211B4A13688B431360D5E7BF
:104F9000082000F0C9FD70BD0B680A600122144CA6
:104FA000E054154B1A7008220A4B5A61F3E7802629
:104FB000F600B4460B682D6863445B1B9BB2D0E7D8
:104FC000064A0E4953680E48096803400B43536074
:104FD000E9E7C04600040140B71600200010024077
:104FE000FFFFFFF000040048C0160020C816002094
:104FF000CC160020002C0140B8160020BC16002062
:10500000FFFFFF8010B5024800F07EFE10BDC046D5
:10501000002A00200C490D4A0300521A0C4910B511
:105020000868002804D0C318934206D80B6010BD4E
:105030000848C31808609342F8D904F091F80C238B
:10504000036001204042F2E700040000004000201D
:10505000181B0020402E00207047C046002370B56A
:10506000026882B001939168033304000B40012B66
:1050700031D09168204B194223D1012193680B4311
:1050800093601E4B1E491868FBF73EF80190019B88
:10509000002B05D0019B013B0193019B002BF9D113
:1050A00002F04AF90126050004E002F045F9401B30
:1050B000022817D823681B681E42F6D0002002B0D1
:1050C00070BD1022A36B01201343A363E36B0F3A5F
:1050D0001343E363F3E711680B42EFD1D3681B047A
:1050E000ECD4C6E71022A36B01201343A363E36B48
:1050F0003343E363E3E7C046170000801400002059
:1051000040420F0070B5041E64D0836B002B68D042
:10511000A36BDB0660D4226893685B075CD4A36B47
:1051200047490B400631FF310B43A36303239168CA
:105130000B40012B5BD01821D3688B43A1680B4334
:10514000D360136961689B009B080B431361D368AC
:105150003C490B40D360237E617E9B03C9030B4314
:10516000A07EE1680B4341030B432421615C4900AD
:105170000B43A16A01394D1EA94109030B43216963
:1051800002394D42694189000B43E17E01293ED03D
:10519000C220E169FF30814202D0206A01430B4303
:1051A000D168E56A1943D160802149058D4225D037
:1051B000691E062922D9D26823490A409A422CD076
:1051C0001222A36B9343023A1343A363E36B0F3A98
:1051D0001343E363012070BD1022A36B1343A36349
:1051E000F8E73422C3638354FFF758FE90E7116851
:1051F0000B42ACD1D3681B04A9D49CE707215069AA
:10520000884350615069294001435161D3E7002828
:105210000DD1802149020B43BAE700230322E36347
:10522000A36B00209343023A1343A363D3E72025E3
:10523000A06B2843A063E06B0143E163A8E7C0468D
:10524000FDFEFFFF1902FEFFE7FF3F83036810B575
:105250009A680400520721D43422815C01291DD0B0
:1052600001218154427E012A12D1A16B0C4A0020F7
:105270001140802252000A43A26334210022E263DB
:1052800062541C321A609A6830390A439A6010BD21
:10529000FFF7E4FE0028FAD12368E6E70220F6E7EC
:1052A000FEF0FFFFF8B5446905000E00082C04D09D
:1052B00003680C24DB68DB0741D402F03DF80700EB
:1052C0002A6813681C4204D1731C25D11368234239
:1052D000FCD08023A96B9B000B43AB63C023D16838
:1052E0001B01194213D1AB7E002B10D113681B0791
:1052F0000DD593685B072BD40C2153688B43536007
:10530000AB6B18490B400431FF310B43AB632B7E71
:10531000002B11D00020F8BD002E04D002F00CF8B4
:10532000C01BB042CCD90422AB6B03201343AB6348
:1053300000223423EA54EEE70C231360EAE720222C
:10534000836B1343836300223423C2540120E2E7BA
:105350002021AB6B0B43AB63EB6B1F390B43EB6350
:10536000D5E7C046FEFEFFFF0368186C7047C046D5
:105370000023F0B583B001933433C25C0400C56AE6
:10538000012A59D00122C25403689868400709D500
:1053900020220120A36B1343A36334230022E25491
:1053A00003B0F0BD10267642B4460868324E4F680E
:1053B00082408444B74227D09E6A32439A62072DC6
:1053C0001FD98022520595420CD007228D68596959
:1053D00011408D4206D059699143596159692A405B
:1053E0000A435A616346022B09D8244B80211A686C
:1053F000102825D011283AD049040A431A60002009
:10540000CBE7002DEED1E0E7996A914399626346BC
:10541000022BF4D8194B1B6810280FD01138421EEC
:105420009041174A40421040164A94466044184042
:10543000124B18600020B0E70220B1E71248F6E7EF
:1054400009040A431A60114B11491868FAF75CFE07
:1054500083001B185B000193019B002BCFD0019BA5
:10546000013B0193019B002BF9D1002095E7C90373
:105470000A4300201A6090E701100000082701404D
:10548000000040FFFFFFBFFFFFFF7FFF1400002071
:1054900040420F00FF22032310B514000340DB003D
:1054A0009C4089010A40E4439A4000280BDB0C4BE6
:1054B000C0219C46800880006044890043582340F6
:1054C0001343435010BD0F23064903408C46083B4D
:1054D0009B089B006344D9690C401443DC61F1E7ED
:1054E00000E100E000ED00E0002805DB1F220123C1
:1054F00002409340014A13607047C04600E100E05B
:1055000000280ADB1F220123024093408022034926
:105510008B50BFF34F8FBFF36F8F704700E100E0F8
:105520008022431E5204012093420ED2C021074A1A
:1055300007485360036A09061B021B0A0B430362F8
:1055400000230020936007331360704710E000E0F1
:1055500000ED00E0F0B546464F46D646C0B52F4FA9
:1055600006003B7E8846012B56D001233B7603681C
:105570002B48012B33D000F095F8002833D10123BC
:1055800042465B421360B3687568DB025B199D425B
:1055900029D20023234C994609E080231B019C4615
:1055A000B3687268DB0265449B18AB421CD90222C7
:1055B0004B469246FB612369194813432361656199
:1055C00023693E321343236100F06CF8524623698D
:1055D000934323610028E0D043461D6004E000F0BF
:1055E00061F8002807D0012000233B76E0BCBA46D2
:1055F000B146A846F0BD042540220A4CF861236953
:1056000007482B43236123691343236100F04AF8C1
:105610002369AB432361E7E70220E7E7201B002073
:1056200050C300000020024010210D4B10B5DA6875
:105630000B001340114205D00A4A0E39D3690B43BF
:10564000D3611023064AD16804220A4205D00124FE
:1056500004481343C1692143C161014AD36010BDAD
:1056600000200240201B0020064B00201A69120671
:1056700006D5054A5A60054A5A6018690006C00FE7
:105680007047C0460020024023016745AB89EFCD3B
:105690008021034A002013690B4313617047C04601
:1056A00000200240F8B5040001F046FE0126050086
:1056B000154FFB681E4206D0631C12D1012212490D
:1056C000CB681A42FCD120220F4BD9680A4211D173
:1056D0000D4AD368DB0612D4D36800205B070ED4D2
:1056E000F8BD002C04D001F027FE401BA042E0D9F9
:1056F0000320F5E7DA60044AD368DB06ECD5FFF750
:1057000093FF0120ECE7C04600200240F0B54E4672
:105710005746DE464546E0B59A4683B0294B01928E
:1057200099461B7E04000E00012B46D001234A46F9
:1057300025481376FFF7B6FF002834D1012C3ED060
:10574000023C631E9C416300984602239C46E04451
:10575000002300259B4618E05346D3404A4659464D
:1057600001271A4CD16122699BB23A432261164843
:105770003380FFF797FF2369BB432361002812D1D1
:105780000135EBB2023698450DD92B011A00203AAB
:10579000E2D520225146D21A91400A000199D940FF
:1057A0000B001343DAE700234A46137603B0F0BC3C
:1057B000BB46B246A946A046F0BD0220F6E701234B
:1057C0009846C5E7201B002050C30000002002407F
:1057D000F0B54546DE4657464E46E0B50D68002317
:1057E00085B0002D7BD0794A0091924601212A0094
:1057F00099400A4091460D426DD0009F10247A686E
:105800001700A7435C00A446032466460197009F47
:10581000B440BE686746BE40B046019EE443013EC8
:10582000012E63D94646C16821403143C1600168F9
:105830000C4003211140B9402143016080214905FA
:105840000A4248D05146012456468969032721431C
:10585000B161B1690F2621405D4C1F40A446BF00D5
:10586000BE40039103999908890061448C68B44350
:105870009026F605B04212D0564EB04200D198E0C4
:10588000554EB04200D198E0544EB04200D18CE069
:10589000534EB04200D194E00526BE4034438C60A4
:1058A0004C465049E4430968D70366D44D4F214024
:1058B00039607968970367D44A4F21407960B968A5
:1058C000D70268D4474F2140B960F968920269D481
:1058D0000C404449CC602A000133DA4086D105B03F
:1058E000F0BCBB46B246A946A046F0BD866826403D
:1058F000B346009EF668BE40B1465E464F463E4304
:10590000866046688E43110999403143464641609E
:10591000C16821403143C160019902290DD001685D
:1059200001330C4003210A4061468A402243026051
:105930002A00DA4000D059E7D1E707261E40B6001A
:10594000B1460F264F46BE40DA0892008218116A0F
:105950000133B1438846009E31694646B940314320
:1059600011620168019A21406446A2400A43026024
:105970002A00DA4000D039E7B1E74E46194F3143EB
:1059800039607968970397D54E46164F3143796051
:10599000B968D70296D54E46124F3143B960F968BF
:1059A000920295D54C460C4393E70326BE40344300
:1059B00075E70126BE40344371E70226BE403443FA
:1059C0006DE70426BE40344369E7C046001002403C
:1059D000000001400004004800080048000C004896
:1059E0000010004800040140F0B5DE4657464E4620
:1059F0004546E0B5002383B0002965D001229146D9
:105A0000023293463C4A944644E03C4CA04262D069
:105A10003B4CA04263D03B4CA04264D03A4CA042E5
:105A200065D00524AC402500AE4211D164462568FE
:105A3000019EBD4325606568BD436560A568BD43A3
:105A4000A560E568BD43E5604446B568A543B5601B
:105A50005E465D00AE4004683500B4430460DC0877
:105A6000A4000419266A0727B0460F261F40BF006E
:105A7000BE4037004646BE432662C468AC43C4609D
:105A80004468944344608268AA4382600A000133F8
:105A9000DA4019D04A460F009A4017401142F5D01B
:105AA0001A4D9C08A846A4005D464444A66801948B
:105AB0000F241D40AD00AC40A04626409024E405D4
:105AC000A042A2D10025AFE703B0F0BCBB46B2466E
:105AD000A946A046F0BD4C46AC402500A4E70224F0
