:020000040800F2
:1000000000400020A1060008D5510008D951000881
:1000100000000000000000000000000000000000E0
:10002000000000000000000000000000DD5100089A
:100030000000000000000000E1510008E551000848
:100040004907000849070008490700084907000850
:1000500049070008ED510008F95100084907000858
:100060004907000849070008490700084907000830
:100070004907000849070008490700084907000820
:100080004907000849070008490700084907000810
:100090004907000849070008490700084907000800
:1000A00049070008490700084907000849070008F0
:1000B000490700084907000849070008DD52000801
:1000C00010B5064C2378002B07D1054B002B02D02E
:1000D000044800E000BF0123237010BDE0010020B0
:1000E00000000000209D0008044B10B5002B03D039
:1000F0000349044800E000BF10BDC04600000000F6
:10010000E4010020209D0008002243088B4274D3A4
:1001100003098B425FD3030A8B4244D3030B8B4208
:1001200028D3030C8B420DD3FF22090212BA030C11
:100130008B4202D31212090265D0030B8B4219D3F2
:1001400000E0090AC30B8B4201D3CB03C01A524112
:10015000830B8B4201D38B03C01A5241430B8B425A
:1001600001D34B03C01A5241030B8B4201D30B0343
:10017000C01A5241C30A8B4201D3CB02C01A52416A
:10018000830A8B4201D38B02C01A5241430A8B422D
:1001900001D34B02C01A5241030A8B4201D30B0216
:1001A000C01A5241CDD2C3098B4201D3CB01C01A30
:1001B000524183098B4201D38B01C01A524143093A
:1001C0008B4201D34B01C01A524103098B4201D328
:1001D0000B01C01A5241C3088B4201D3CB00C01A95
:1001E000524183088B4201D38B00C01A524143080D
:1001F0008B4201D34B00C01A5241411A00D2014632
:10020000524110467047FFE701B5002000F0F0F8BA
:1002100002BDC0460029F7D076E7704703460B437E
:100220007FD4002243088B4274D303098B425FD3EF
:10023000030A8B4244D3030B8B4228D3030C8B421B
:100240000DD3FF22090212BA030C8B4202D3121201
:10025000090265D0030B8B4219D300E0090AC30BD6
:100260008B4201D3CB03C01A5241830B8B4201D383
:100270008B03C01A5241430B8B4201D34B03C01A6C
:100280005241030B8B4201D30B03C01A5241C30AE4
:100290008B4201D3CB02C01A5241830A8B4201D355
:1002A0008B02C01A5241430A8B4201D34B02C01A3F
:1002B0005241030A8B4201D30B02C01A5241CDD2E4
:1002C000C3098B4201D3CB01C01A524183098B422F
:1002D00001D38B01C01A524143098B4201D34B0118
:1002E000C01A524103098B4201D30B01C01A52417B
:1002F000C3088B4201D3CB00C01A524183088B4202
:1003000001D38B00C01A524143088B4201D34B00EA
:10031000C01A5241411A00D201465241104670475C
:100320005DE0CA0F00D04942031000D34042534061
:1003300000229C4603098B422DD3030A8B4212D321
:10034000FC22890112BA030A8B420CD38901921153
:100350008B4208D3890192118B4204D389013AD090
:10036000921100E08909C3098B4201D3CB01C01A65
:10037000524183098B4201D38B01C01A5241430978
:100380008B4201D34B01C01A524103098B4201D366
:100390000B01C01A5241C3088B4201D3CB00C01AD3
:1003A000524183088B4201D38B00C01A5241D9D2EB
:1003B00043088B4201D34B00C01A5241411A00D26C
:1003C0000146634652415B10104601D34042002B68
:1003D00000D54942704763465B1000D3404201B5E7
:1003E000002000F005F802BD0029F8D016E770479C
:1003F0007047C046002B11D1002A0FD1002900D12F
:10040000002802D00021C943080007B4024802A115
:100410004018029003BDC046D9FFFFFF03B46846F1
:1004200001B5029800F034F8019B9E4602B00CBC66
:100430007047C046F0B5CE469946030C9C4613045F
:1004400047461B0C1D000E0061460404240C80B5B9
:100450000700100C4B436543414360432C0CC0180C
:1004600024188C46A34203D980235B029846C444D7
:10047000494679435643230C2D042D0C89196344B6
:1004800024046019C918C0BCB946B046F0BDC046C6
:10049000F0B557464E464546DE46E0B504000D0031
:1004A0009246994683B08B4230D82DD0494650466B
:1004B00000F0BAF829000600200000F0B5F8331A61
:1004C0009846203B34D49B4653465A469340424676
:1004D0001F00534693401E00AF423BD8AF4200D1AD
:1004E00079E05B46A41BBD41002B00DA76E00022D8
:1004F00000230092019301235A4693400193012364
:1005000042469340009329E08242CFD90022002343
:10051000009201930C9B002B01D01C605D60009841
:10052000019903B0F0BCBB46B246A946A046F0BD57
:1005300042469B4620239B1A5246DA40414613000E
:100540004A468A40170042461F43534693401E00C6
:10055000AF42C3D900220023009201934346002BEF
:10056000D8D0FB0772081A4346467B080EE0AB4220
:1005700001D1A2420CD8A41A9D41012024196D4139
:100580000021013E24184D41002E06D0AB42EED989
:10059000013E24196D41002EF8D1009801995B4667
:1005A00000196941002B24DB2B005A464446D340F6
:1005B0002A00E2401C005B461500002B2ADB2600C7
:1005C0009E40330026004746BE403200801A9941C3
:1005D000009001919EE7A342BCD882E742462023C7
:1005E00000219B1A0022009101920122DA4001921F
:1005F00085E7424620239B1A2A0046469A4023005C
:10060000F340444613432A00E2401C005B461500B9
:10061000002BD4DA42462F002023260097409B1A55
:10062000DE403B003343CDE710B5002903D100F095
:1006300007F8203002E0080000F002F810BDC046C4
:100640001C2101231B04984201D3000C10391B0A02
:10065000984201D3000A08391B09984201D30009C6
:10066000043902A2105C40187047C046040302021D
:100670000101010100000000000000000023C25C35
:100680000133002AFBD1581E7047000003B47146A5
:10069000490840004900095E49008E4403BC704788
:1006A0001E4885461E4801681E4A914212D100210B
:1006B00001601D4801680122114301601B48016867
:1006C00003229143012211430160194801688D46BC
:1006D000416808471448016801221143016013482A
:1006E000016803229143016012481349134A002311
:1006F00002E0D458C4500433C4188C42F9D3104AD1
:10070000104C002301E013600432A242FBD304F03A
:100710000FFE08F097FE02F08BFEFEE7004000207F
:10072000F03F0020EFBEADDE181002400000014097
:1007300000C8FF1F00000020E001002044BC0008AA
:10074000E00100203C2E0020FEE70000F8B5070085
:1007500010000C001600FFF791FFA04216D80028E9
:1007600016D0002402E00134A04211D0395D335D7F
:100770000A00613A192A01D82039C9B21D00613D29
:10078000192D01D8203BDBB29942ECD00020F8BDF6
:100790000120FCE770B5040006F03AFF2100FFF7E6
:1007A00039FD0B0061088B421FD25801C01A80002E
:1007B000C018C000FFF7A8FC114B5C68002C00D1EA
:1007C000104CFA210E4B890040439D68FFF79CFCBA
:1007D000FA2160438900FFF797FC80220A4B641BD3
:1007E000D200A0420AD99A6170BDE41A6001001BD0
:1007F00080000019C000FFF787FCDDE79A62F3E78D
:1008000010E000E080BB00000014004810B5022892
:1008100000D010BD00228021034805F0EBFA002231
:10082000024B1A70F5E7C04600080048D71A0020AE
:10083000F0B5C64600B586B0182836D90F223D4B14
:100840000F241A70002303930133FF3301933A4FAF
:10085000FD3B01ADEB600121384A90201368C005D3
:100860008B4313600022364B29001A7002232A6141
:100870006B6005F019F9A3001B199B00FB181A699E
:10088000304B1A60304A1278002A4DD119681A6824
:10089000E023DB051A40F0231B050020194006F079
:1008A0006FFD06B080BCB846F0BD8600224F3618FA
:1008B000B600BE19337A040098461E4B10221870F9
:1008C000002102A808F08AFD80235B0001AD01939E
:1008D000FD3BEB604346002BBDD0002200210020F1
:1008E00006F04EFD0022174B90201A6002232900CB
:1008F000C0056B602B6105F0D7F801210F4B1A681A
:100900008A431A6072899A62B289DA62013252109D
:100910005A630B4A596111700B4A1278002AC0D1F0
:100920001A680A431A60BCE700220021002006F082
:1009300027FDB6E7D81A00209CB90008002C01401A
:10094000BB160020C0160020BA160020F0B5D6460F
:100950004F464646C0B58046FFF790FE071E20D0A2
:10096000184B85269A46AE239B00994653464A4625
:1009700000249B58B6003D1B402D1FD8A9B2124839
:100980009A59002A16D14346181908F04FFA5346CF
:100990004A460D499B589A59002A07D16419A74223
:1009A000E9D8E0BCBA46B146A846F0BD01390029F5
:1009B000F1D1F3E701380028E2D1E4E740254021F6
:1009C000DDE7C046481B0020400D0300F0B54F4650
:1009D0004646D6468046C0B50F1E20D0184B852609
:1009E0009A46AE239B00994653464A4600249B589C
:1009F000B6003D1B402D1FD8A9B212489A59002AB3
:100A000016D14346181908F011FA53464A460D49C3
:100A10009B589A59002A07D16419A742E9D8E0BC2B
:100A2000BA46B146A846F0BD01390029F1D1F3E735
:100A300001380028E2D1E4E740254021DDE7C04647
:100A4000481B0020400D03000FB400B5A3B024AB39
:100A500004CB802102A8019308F0A6FC02A8FFF7AE
:100A600075FF23B008BC04B01847C04670B5002815
:100A70001FD0124B4001C3181A78012A18D1104A0E
:100A80005D6984180F4A9E69944665440E48FFF7D5
:100A90005DFF320021000D48FFF7D6FF310028002E
:100AA000FFF794FF0A48FFF751FF0122094B1A7024
:100AB00070BD094E094D0A4CE8E7C04600C0000869
:100AC00001C0000800C80008989D0008A49D000807
:100AD000D09D00087A1600207706000024B3000895
:100AE000889D000800B5104B8FB01A78182A18D8C6
:100AF00093000E499B189B005B58182168460C4ACE
:100B000008F0EEFB6B460B4A202106A808F0E8FB34
:100B1000094806A9FFF798FF1222084B1A700FB078
:100B200000BD074BE9E7C046D81A00209CB9000871
:100B30001C9E0008289E0008309E000844020020E9
:100B4000809D000800B5164B83B01878172801D98E
:100B500003B000BD0130C0B2FFF76AFE0122114BA5
:100B60001A7006F055FD104B1860FFF7BBFF80218F
:100B700001220E48C90005F03DF900230193019BB5
:100B80000B4A934205DC019B01330193019B934285
:100B9000F9DD802100220548C90005F02BF9D7E7CF
:100BA000D81A0020B0160020AC160020001400480F
:100BB0005FEA000000B5164B83B01878002801D119
:100BC00003B000BD0138C0B2FFF732FE0122114B65
:100BD0001A7006F01DFD104B1860FFF783FF80218F
:100BE00001220E48C90005F005F900230193019B7D
:100BF0000B4A934205DC019B01330193019B934215
:100C0000F9DD802100220548C90005F0F3F8D7E797
:100C1000D81A0020B0160020AC160020001400489E
:100C20005FEA0000012370B50C4E002433700023EE
:100C300001200B4D0B4A2B7001331178012903D190
:100C40000124411C2B54C8B20133DBB22032402BAB
:100C5000F3D1002C00D0307070BDC04600020020DF
:100C60000402002020C000080020054B05491A7826
:100C7000012A01D19A69801820338B42F7D170473D
:100C800020C0000800C80008F0B58DB004F058FE80
:100C900000233422012600930193174C174B029432
:100CA00003966946DA6001A804F0C0FD051E05D070
:100CB00004F05AFEFFF7B6FF0DB0F0BD11200F2271
:100CC0000F4904AF68443E7008F0E2FB80235B00EC
:100CD00008930C4B0C4E0A930C4B09950C4D0B933F
:100CE0006E442100325900230220043404F07AFEBD
:100CF000AC42F6D1DCE7C04600C00008002002404C
:100D0000889D0008770600001040FFF70101C0BF72
:100D100020C00008F0B54546DE4657464E46E0B5D1
:100D20003F4C00253F4B4048A54402E0203383421E
:100D300012D01A78012AF9D16E1C14AA6D01541927
:100D400022001900B0C9B0C2B0C9B0C2203330C946
:100D500030C2F5B28342ECD104F0F2FD002334221C
:100D6000012600930193314C314B0294039669465E
:100D7000DA6001A804F05AFD804600280BD004F088
:100D8000F3FDFFF74FFF2B4B9D44F0BCBB46B24633
:100D9000A946A046F0BD112004AF0F2226496844A1
:100DA0003E7008F075FB80235B000893434609936F
:100DB000224B234E0A93234B1A4F0B936E44210070
:100DC000325900230220043404F00CFEBC42F6D158
:100DD000002DD4D014AB99460CAB9A465B429B468F
:100DE0004F4653464A4613CA13C313CA13C3544645
:100DF0000C4E03CA03C35E4422683119002302204B
:100E0000043404F0EFFDA742F6D143460133DBB2D0
:100E1000984620239C46E144E3444545E1D1AEE7B2
:100E2000ACF7FFFF20C0000800C8000800C00008A1
:100E30000020024054080000889D0008770600004A
:100E40001040FFF70101C0BF0C4B10B59C46440198
:100E500064442378012B00D010BD04F071FD3422CE
:100E6000074B2100DA6001200022002304F0BAFDC4
:100E700004F07AFDFFF74EFFEEE7C04600C0000821
:100E8000002002401D4B10B5DA691D4B9A4230D14B
:100E90001C4B1D4902E020338B422DD01A78FF2ACB
:100EA000F9D01A78012AF6D001240020154B1649F2
:100EB00004E000280ED120338B4206D01A78FF2A96
:100EC000F7D1203301208B42F8D1002C0ED1FFF74F
:100ED000A9FE10E01A78012A08D020338B42F4D002
:100EE0001A78FF2AE7D01A78012AF6D1FFF712FF05
:100EF00001E0FFF7C9FE10BD0024D6E700C00008DE
:100F00000101C0BF20C0000800C8000810B50024BF
:100F10000F4B00211C600F4B10220F481C7008F073
:100F20005DFA03220D4B0E481C700E4B1A70FFF732
:100F30000DFD0D4C2000FFF709FD0C48FFF706FDE5
:100F40002000FFF703FD0A48FFF700FD10BDC04673
:100F50008C1600209016002094160020A416002065
:100F6000989D0008D91A0020449E00087C9E000825
:100F7000B49E0008F0B5D64646464F462A4BC0B54B
:100F800098468CB06D461800FFF7E0FC2748FFF745
:100F9000DDFC4046FFF7DAFC2548FFF7D7FC40466A
:100FA000FFF7D4FC234B2A00190051C951C251C983
:100FB00051C21833160013CB13C213CB13C2002334
:100FC0001D4FFB56052B01DD05233B701B4A0024FA
:100FD00091461B4A924608E048460134FFF734FD2B
:100FE0000435062C0DD00023FB56A2002968B25808
:100FF000A342F1D150460134FFF726FD0435062CFB
:10100000F1D14046FFF7A2FC0E48FFF79FFC404697
:10101000FFF79CFC0C48FFF799FC0CB0E0BCBA460B
:10102000B146A846F0BDC046449E0008F09E0008A8
:10103000289F0008389D0008A7160020809F000800
:10104000609F0008989F0008D09F0008F0B5DE461A
:1010500057464E4645468A4BE0B59A46180087B03B
:10106000FFF774FC8748FFF771FC5046FFF76EFCF2
:101070008548FFF76BFC5046FFF768FC834B0193F4
:101080001B78002B00D1C9E00C270C230022804ED6
:10109000B256BA4201DB013B33707E4B00249846C6
:1010A0007D4B02AD99467D4B00969B460B2C00D99B
:1010B000A8E04246A300D3589F46019B1B78002B13
:1010C00000D0AEE02A00764B43CB43C21B78754973
:1010D0001370009B2A001B785BB2A3422DD04846B8
:1010E000FFF7B2FC0134BC42E0D15046FFF72EFCC2
:1010F0006D48FFF72BFC5046FFF728FC6B48FFF7C5
:1011000025FC07B0F0BCBB46B246A946A046F0BDE0
:10111000674B1B78012B00D1A7E0022B00D1A8E080
:10112000644B1021644A280008F0DAF8009B2A007A
:101130001B7862495BB2A342D1D15846FFF784FCC9
:10114000D0E7019B1B78002B79D15D4B1021280043
:10115000594A08F0C5F85B49BBE75B4B1B78012B8C
:1011600079D0022B00D188E0032B00D183E0574BCC
:1011700072E0574B1B78002B65D1514B1021280092
:101180004D4A08F0ADF85349A3E7534B1B78002BA9
:1011900057D14B4B10212800474A08F0A1F84F497E
:1011A00097E74F4B197818295DD88B004D4A5B188B
:1011B0009B009B58102128003F4A08F091F84A49AB
:1011C00087E74A4B1B78002B43D1404B1021280066
:1011D000474A08F085F847497BE7474B1B78002BC7
:1011E00035D1374B10212800334A08F079F84349AC
:1011F0006FE7434B102128001B68424A08F070F843
:10120000414966E7414B1B78002B1ED12C4B102126
:101210002800294A08F064F83D495AE70A270A23BA
:1012200034E73C4B1B78052B21D83B4A9B009B584D
:1012300010212800204A08F053F8384949E7384B74
:1012400084E7374BA6E7364B98E7354BDFE7344B5F
:10125000C8E7344BBAE7344B10212800164A08F08F
:101260003FF8324935E7324BA4E7324B59E7324B6E
:10127000DEE7324B55E7324BEEE7324BECE7C04648
:10128000449E0008A8A10008E0A10008BA160020AA
:10129000A716002028B1000870A2000850A200087C
:1012A00040A2000870A10008989F0008D09F000885
:1012B000B916002040A0000818A200088CA1000860
:1012C00000A0000854A100080900002014A0000894
:1012D000070000201CA10008B816002000A100088B
:1012E000D81A00209CB90008E4A000080A000020D9
:1012F00034A20008C8A000080B000020ACA0000821
:101300000C00002024A2000890A00008100000207B
:1013100074A00008080000200CB3000858A00008C2
:10132000F89F00080CA000081CA0000838A10008C5
:10133000809D00084CA0000834A0000850A00008C0
:101340002CA0000824A00008F0B54E46DE46454615
:101350005746E0B59FB0FFF765FC624B624A98467E
:101360001B78914612789E1CF6B252B2B24202DB52
:101370004A46013313705D4D2800FFF7E7FA5C48D9
:10138000FFF7E4FA2800FFF7E1FA5A48FFF7DEFA20
:101390002800FFF7DBFA002E4FD0574B00249A4667
:1013A000564B9B46564B0493564B05935B46AB46B8
:1013B0000393350029E0544B1F5D002F64D0534A3E
:1013C000534B944680227F01FB189B696744D200EF
:1013D000934200D37EE006AE102130004D4A07F064
:1013E0007FFF4B461B785BB2A3425DD04A4A230085
:1013F0005021019600970AA807F072FF50460AA9EB
:101400000134FFF721FBA54216DD43461B78A342BA
:10141000D1DC4A46127852B2A34247D094424DD012
:10142000342203990AA808F033F8013450460AA977
:10143000FFF70AFBA542E8DC5D462800FFF786FAC5
:101440000022364B36481978012901D19969521882
:1014500020338342F7D19305990D1B0D5B1841464C
:1014600009785B0A920A01392E48FFF7EDFA280045
:10147000FFF76CFA2C48FFF769FA1FB0F0BCBB46C7
:10148000B246A946A046F0BD06210120274F06AE70
:101490000300009130001021254A07F021FF4B4640
:1014A0001B785BB2A342A1D1224AA0E794420BD0A1
:1014B000342205990AA807F0EBFF9FE73C22049924
:1014C0000AA807F0E5FF99E73C221B490AA807F0A4
:1014D000DFFF93E79905980A8B0D090DC918490A92
:1014E000D5E7C04600020020A7160020449E000851
:1014F00088A20008C0A20008E8A80008F8A3000815
:10150000BCA3000888A300080402002001C0000852
:1015100000C00008F8A2000830A3000820C000089E
:1015200000C800082CA4000868A40008889D0008D2
:1015300000A300080CA300084CA3000810B50A483B
:10154000FFF704FA094B1B78002B04D0012B08D0BD
:10155000022B03D010BDFFF70DFDFBE7FFF7F4FEF4
:10156000F8E7FFF773FDF5E7989D0008A81600203F
:10157000F0B5DE4657464E464546E0B5484A494B2B
:10158000116885B0994231D00F239B460E3B9A4695
:10159000013399460023012701260125002400205C
:1015A00001219C46103301935A463F4B1A70524614
:1015B0003E4B1F703E4B1E703E4B1D703E4B1A70D3
:1015C0004A463E4B1C703E4B1A7062463D4B1A70A9
:1015D0003D4B019A18703D4B19703D4B1A6005B098
:1015E000F0BCBB46B246A946A046F0BD1379577978
:1015F0009B46137A96799A46937AD5799946D37A07
:10160000547A9C46137B02931369517B0193019892
:10161000244B80460298434480465B44DB199B1967
:101620005B1953441B194B44634443448846526935
:10163000434403919A42A7D15B46182B01D90F234B
:101640009B467B1E9F41731E9E416B1E9D415346D0
:10165000FFB2F6B2EDB2032B01D901239A46631E05
:101660009C414B46E4B2052B01D9022399466146C1
:10167000022200238A425B416246029803995B4240
:101680001A40431E98414B1E9941019B9446043BCE
:10169000C0B2C9B23C2B00D886E71023019383E780
:1016A00000F80108032C07BFD81A00201000002002
:1016B0000B0000200A00002009000020BA160020BC
:1016C00008000020B9160020B816002007000020EE
:1016D0000C000020F0B557464E464546DE461E2318
:1016E0000022E0B58BB06B441A80374B364C049324
:1016F000364BA3461B789A46354B1B789946354B9B
:101700001B7898464246344B11041B7852469C463F
:10171000324B1F78324B1E78324B1D78324B187883
:101720004B461B02134362460B43120613430593B9
:10173000330229043B4302060B43134306932B4B0E
:1017400019786B4619772A4B1A786B465A77294BCA
:101750001B6808935B4453444B4443446344DB1984
:101760009B195B191B18244D5B189B182800182225
:1017700004A9099307F024FE002806D10BB0F0BCA1
:10178000BB46B246A946A046F0BD04F0D9F80023F6
:1017900069460093019301A801330295039304F075
:1017A00045F800280CD1154E2C00154D6E44210033
:1017B000325900230220043404F014F9AC42F6D16B
:1017C00004F0D2F8DAE7C046032C07BFD81A00208D
:1017D000100000200B0000200A000020090000205B
:1017E000BA16002008000020B9160020B816002004
:1017F000070000200C00002000F801081008FEF788
:1018000018F8010802220B4B10B51A700023FF21B3
:10181000094A0A4813700A4A13700A4A11700A4AA0
:101820007F3913700122094B49011A70002204F01C
:10183000E1FA10BDD91A0020A816002000080048BF
:10184000A716002006000020A5160020A6160020DE
:1018500010B5A0B03022002114A807F0BFFD10225F
:10186000002102A807F0BAFD1C2200210CA807F0F5
:10187000B5FD1822002106A807F0B0FD3223102480
:10188000139313A8313B16931B9318931794199431
:1018900005F0C2FA072300240121029302A8043BA9
:1018A00003930494059405F0DDFD80230CA89B02AE
:1018B0000C93129405F0D0F98022A0210020D205CB
:1018C000C90405F05DFD80210C4B0905DA6906A805
:1018D0000A43DA61DB6922220B400193019B8023DA
:1018E0009B050793064B06940993202308940A92BC
:1018F0000B9305F067FA20B010BDC04600100240FF
:101900007FBB000030B587B014220021684607F085
:1019100065FD8021154D01222800C90004F06AFAF6
:10192000802128000122090104F064FAFF2200242A
:101930000023694612020E4800920193029404F0BB
:10194000B3F8C02200236946280092000092019358
:10195000029404F0A9F80023064A6946064800925A
:101960000193029404F0A0F807B030BD00080048CD
:1019700000040048FFFF00000010004830B583B0AD
:10198000FFF7A8FE80250022364B374C1A70ED0079
:10199000364B200029001A6004F02CFAA562344C62
:1019A0002278182A53D8930032499B189B00595823
:1019B0003148FFF749F8314B1B78002B10D0304BE2
:1019C0001B78012B4CD0022B43D12E492E4B1B7878
:1019D000052B43D82D4A9B009A582D48FFF734F821
:1019E000FFF790FFFA239B000193019B5A1E01927F
:1019F000002BFAD1802100222648C900019B04F067
:101A0000F9F9FA239B000093009B5A1E0092002BC9
:101A1000FAD12078009BFEF70BFF802100224901BC
:101A20001C4804F0E7F90A2005F0F8FD8025802124
:101A30000D4CED0001221748490104F0DBF90022AA
:101A40002900200004F0D6F9A56203B030BD124988
:101A5000AEE70D4B11491B78052BBBD9104ABCE7EB
:101A60001049B3E7D91A002000140048B41600202A
:101A7000D81A00209CB90008A8A40008BA160020B3
:101A8000B916002050A00008080000200CB3000880
:101A9000E4A4000800080048809D000840A0000859
:101AA00034A000084CA0000870B50D00012680216C
:101AB0001B4A03041B0C82B05361020C0400324029
:101AC0001848490004F096F98021620C154832400C
:101AD000890004F08FF9FF21134B2D025A69114838
:101AE00011402943596180210022090104F082F943
:101AF0000A230193019B5A1E0192002BFAD18021E7
:101B0000012208480901019B04F074F90A2300939B
:101B1000009B5A1E0092002BFAD1009B02B070BDB0
:101B200000100048000800480004004830B580213B
:101B300001251D4A03041B0C85B05361020C0400EF
:101B40002A401A48490004F055F98021620C1748D0
:101B50002A40890004F04EF90A230393039B5A1E7E
:101B60000392002BFAD1802100221048C900039B68
:101B700004F040F90A230293029B5A1E0292002BA2
:101B8000FAD16A468021029B094BD41D1B69074884
:101B90001B0ADBB2D371C900012204F02BF92078B3
:101BA000C0B205B030BDC046001000480008004873
:101BB00000040048F8B50E0005004027224C234AD7
:101BC0002368AA211B041B0C134323602048FFF742
:101BD0006BFF55211F48FFF767FFA0211C48FFF747
:101BE00063FF31002800FFF75FFF23681A4E1B04D4
:101BF0001B0C23602800FFF799FF04002800FFF763
:101C000095FF444027420FD0013E002EF2D128001C
:101C1000FFF78CFF04002800FFF788FF60400742B1
:101C20000FD001267642E5E72800FFF77FFF04008A
:101C30002800FFF77BFF4440274202D0013E002EE0
:101C4000D8D10020F8BDC04600040048000055551A
:101C500055550000AA2A000050C3000070B5402668
:101C6000264C274A2368AA211B041B0C134323601C
:101C70002448FFF719FF55212348FFF715FF80215E
:101C80002048FFF711FFAA211E48FFF70DFF55213D
:101C90001D48FFF709FF10211A48FFF705FF2368C9
:101CA0001A4D1B041B0C23600A20FFF73FFF0400A2
:101CB0000A20FFF73BFF444026420FD0013D002D94
:101CC000F2D10A20FFF732FF04000A20FFF72EFFAF
:101CD000604006420FD001256D42E5E70A20FFF77C
:101CE00025FF04000A20FFF721FF4440264202D0CE
:101CF000013D002DD8D1002070BDC0460004004831
:101D00000000555555550000AA2A0000404B4C00D4
:101D1000D0B586B014220021684607F05FFB802111
:101D2000154C01222000C90004F064F88021200035
:101D30000122090104F05EF8C022012300260127D8
:101D4000694620009200009201930296039703F0E7
:101D5000ABFE0123094A69460948009201930296A5
:101D6000039703F0A1FE0749074A0B681B041B0CED
:101D700013430B6006B0D0BD00080048FFFF000011
:101D8000001000480004004800005555F0B5DE463C
:101D900057464E464546E0B5CFB08B460390049279
:101DA000002901D1002081E10123D14A05E001335E
:101DB000DBB22032402B00D18BE11178FF29F6D124
:101DC0005BB2059300250320C94BCA4902E02033CA
:101DD0008B420DD01A78012AF9D15A699C691219DF
:101DE000033282439542F2D2203315008B42F1D167
:101DF0005B4698225B195202934200D8C3E0002050
:101E0000BB4BBC491A78012A01D19A69801820334A
:101E10008B42F7D1982358445B029842C2D8B64807
:101E2000FEF794FD802300259B029A46B34B0FAC2E
:101E3000A946012625000193029403E001360435EA
:101E4000402E34D0AE4B7201D7183B78012BF5D120
:101E5000AC49BB698C46019862443100FEF7F4FD41
:101E60004B46A44A2B6090467B6900249844FFF7B8
:101E70004FFFBB69002B0FD02B004546B04656469E
:101E80009A46295D3019FFF795FEBB690134A342DC
:101E9000F7D85546B24646460322BB6901369A44F6
:101EA000BB690435033393439944402ECAD1964805
:101EB000029CFEF74BFD03F043FD00230022099333
:101EC0008C4B09A90A920B9326230AA80C9303F0C2
:101ED000ADFC4EAB984680239B024D4601935B467A
:101EE000834F0695079303E004342037444540D0E0
:101EF0003B78012BF8D1FFF705FD802100228348B4
:101F0000C90003F077FF7B4A236891469944BB6977
:101F10000022002B23D07E4BA2469B464B46B9465F
:101F2000170002933D00002400264B469B69FF20CA
:101F30009D4200D2F4E0A040083406430135202C35
:101F4000F3D1029B3200D9190220002303F04AFD8D
:101F50004B469B690437BB42E4D84F465446019A2E
:101F6000BB6994469C44634604340193203744453E
:101F7000BED1079B069D9B4603F0F6FC6548FEF725
:101F8000E5FCFEF7C7FE5B4B634C9A46AA445346FA
:101F90005C446419DB0AE40ADB02E402E41AE40AA2
:101FA000994603F0CDFC002C00D1C6E08027E40266
:101FB000A0462B003F014F44B84445463E004946E9
:101FC00098460EAC0B0002E004339E420CD01A6817
:101FD0000132F9D000230A932360013361602000AD
:101FE000A3600AA903F022FC80231B019C466644DF
:101FF0003900B54201D06744E4E74546FFF782FC6B
:10200000802100224148C90003F0F4FE00239846D5
:102010003F4B0195994623005C469B46464600256A
:102020000027FF20A64248D3A840083507430136C1
:10203000202DF6D15146002341443A00022003F0FE
:10204000D1FC04239C46E04400264445E6D85B4688
:10205000A3461C000123237008AB9C4619200F22C5
:1020600060440399019D07F0D2F9049B3422637404
:102070005B46A361294B267466826561E661DA607E
:10208000059B16AE5D011E4B2D1B9C4665442268C8
:10209000291900230220043403F0A4FCA642F6D13F
:1020A00003F062FCFEF7BEFD6B46187D4FB0F0BC3E
:1020B000BB46B246A946A046F0BDFFF729FE4B46F7
:1020C0004A461B6830001B041B0C1360FFF72EFDF3
:1020D000AAE7FEF71FFE0123054A05E00133DBB244
:1020E0002032402B00D15DE61178FF29F6D167E65A
:1020F00020C0000800C8000818A500085CA500085A
:1021000000C0000801C0000888A5000800080048B9
:1021100000040048A4A50008FFCF000800200240EA
:10212000FFF7F6FD5B465A461B681B041B0C136049
:10213000019BE818FFF7FAFCFDE60EAC5EE7C0462F
:10214000F0B54E464546DE465746E0B587B01C0022
:1021500010AB1B780E008046111E019300D1F4E0F5
:1021600032007E48FEF770FC802100227C48490145
:1021700003F040FE80210122C9007A4803F03AFEB4
:102180007948FEF7E3FBFFF7C3FDFFF767FD7748EC
:10219000FEF7DCFB04AB9A465146754B1A68049275
:1021A0009A888A809B798B71002C2DD08023B51D55
:1021B000DB029D4200D977E0092D28D90A212800A9
:1021C000FDF7A2FF814653469B1B9B46694B642744
:1021D0000093330000244E46994610E04346195DB3
:1021E00020000134FFF7E6FC31002000FEF712F872
:1021F000002960D0AC426DD06437AC4268D2A145B2
:10220000ECD85B46195DEBE73500092DD6D8002DDB
:1022100000D09FE05848FEF799FB5848FEF796FB20
:102220005748FEF793FB019B0125002B00D188E066
:102230005448FEF78BFB802100224A48C90003F076
:10224000D9FDFFF75FFBFA239B000393039B5A1E04
:102250000392002BFAD1802100224148C900039B40
:1022600003F0C8FDFA239B000293029C631E0293B5
:10227000002CFAD18021002249013948029B03F049
:10228000B9FD0A2005F0CAF980210122344849012C
:1022900003F0B0FD3C4B1C70280007B0F0BCBB46FF
:1022A000B246A946A046F0BD0A213000FDF72CFF3A
:1022B0003500814687E729003800FDF725FF2B0010
:1022C000010022000098FEF7BFFB6437AC4296D3B2
:1022D0004E460BE029003800FDF716FF254C0100A3
:1022E0002B002A0020004E46FEF7AEFB2248FEF7E8
:1022F0002DFB53469B1B00249A460AE043462000D0
:102300001F5DFFF713FC87420CD10134AC4200D1B2
:1023100083E7A642F2D8534620001F5DFFF706FC74
:102320008742F2D0194D03003A0028002100FEF741
:102330008BFB1348FEF70AFB019B0025002B00D006
:1023400076E71348FEF702FBA6E731001148FEF7D7
:102350007BFB09E70123994635E7C046E8A500085D
:10236000000800480014004824A6000834A600080D
:102370000CA000083CA6000864A60008B0A600084F
:10238000B8A60008E4A60008D91A002078A600081C
:1023900000A7000808A6000800B5114883B0FEF7A2
:1023A000D5FA1049104B09781B78104A0091104853
:1023B0001049FFF7C5FE00230F4A13700F4A136040
:1023C0000F4A13600F4A13600F4A13700F4A1380AD
:1023D0000F4A138000220F4B1A7003B000BDC04695
:1023E00030A700080B0000200A00002060A70008AA
:1023F00024B30008770600004D0200206002002090
:102400005C020020540200204C02002066020020E2
:10241000640200204502002010B582B0002809D0D7
:102420003F2805D80E4B4001C3181A78012A06D060
:1024300002B010BDFFF7B0FFFFF7A0FAF8E7094AB6
:10244000996982185C690848084B2018084C1B7869
:1024500024780094FFF774FEFFF790FAE8E7C0468F
:1024600000C0000801C0000800C800080A000020E1
:102470000B00002010B52E488AB0FEF767FAAE2395
:1024800085212C4C9B00E0582B4A89004358002B97
:1024900049D100230193019B284A934205DC019B0B
:1024A00001330193019B9342F9DD200006F02CF8E3
:1024B000200006F005F88021214B89025A6906A800
:1024C0000A435A615B690C220B4002930021029B74
:1024D00006F084FF802290200123520104A9C00548
:1024E0000492059303F0E0FA802190200022490134
:1024F000C00503F07FFC00230393039B114A934222
:1025000005DC039B01330393039B9342F9DD0E4BE0
:102510000E4A1A60BFF34F8F0D4B0E4ADA60BFF3BD
:102520004F8FC046FDE7013A002AAFD1B1E7C04660
:1025300078A70008481B0020400D03001FA10700DA
:10254000001002403F420F00F03F0020EFBEADDE22
:1025500000ED00E00400FA0570B5724D04002B7820
:10256000002B05D1052807D86F4B84001B599F46C7
:10257000012B02D0022B27D070BD0B28FCD86B4B4F
:1025800084001B599F46FEF7F3FFFFF7F7F9F3E7C7
:10259000022300222B70664B1A70664B01321A70B0
:1025A000EAE700210122624B2A701970614B1A7010
:1025B000E2E76148FEF7CAF9FFF7EEFEDCE7FFF756
:1025C00089F8FFF7DBF9D7E7FEF72CFB5B4B1B78AD
:1025D000A3420AD876D00023554A2B7013700122EB
:1025E000544B1A70C8E7FFF745FF554B185DFFF7CE
:1025F00013FFC1E7534A137859424B411370BBE7AD
:10260000514A137800296EDD032101330B4013700A
:10261000B2E74E4A137859424B411370ACE74C4A2B
:10262000137859424B411370A6E74A4C2078002991
:1026300053DD03210130FDF7D7FE21709CE7414BAC
:102640001B78002B10D0444C2078002964DD062133
:102650000130FDF7C9FE21708EE7404A13785942D8
:102660004B41137088E7002301222B70304B1A7006
:10267000304B1A7080E73A4B1878002925DD192174
:102680000130FDF7B1FEC8B2FEF7D2F874E7354A63
:10269000137859424B4113706EE7334A137859420D
:1026A0004B41137068E7314A1368002920DD042B81
:1026B00029D0082B2DD0102B28D0202B20D004235C
:1026C000136059E7FEF722FC56E719211830FDF791
:1026D0008BFEC8B2FEF7ACF84EE703210230FDF7DF
:1026E00083FE217048E7032103330B40137043E757
:1026F000402B0BD0202B0CD0102B04D0082BDED07D
:102700004023136038E70823136035E72023136064
:1027100032E7102313602FE706210530FDF764FE32
:10272000217029E7A816002058B1000870B10008F0
:10273000A7160020A6160020ACA700080002002063
:1027400004020020BA160020090000200700002023
:10275000B8160020B9160020080000201000002044
:10276000D81A00200A0000200B0000200C000020D6
:1027700070B5902604000125F605C20980213000BD
:1027800003F038FBA20930002A40402103F032FB5D
:10279000620930002A40202103F02CFB220930007E
:1027A0002A40102103F026FBE20830002A400821CD
:1027B00003F020FBA20830002A40042103F01AFB9A
:1027C000620830002A40022103F014FB2A00300086
:1027D0000121224003F00EFB70BDC046F0B5574604
:1027E0004546DE464E46E0B507000D0095B004298B
:1027F00006D90522B64906F0F9FD002800D170E09F
:1028000029003800B34AFDF7A1FF00285DD1290057
:102810003800B14AFDF79AFF002856D12900380048
:10282000AE4AFDF793FF00285FD129003800AC4A7B
:10283000FDF78CFF061E58D1AA4C23789846002B32
:1028400000D08DE0A84B1B78002B65D0A74B1B68F0
:10285000AB4261D8A64B1B78002B00D18BE2002D38
:1028600036D002239946A34B7E1E380000219C4699
:102870000127A046761903783E2B16D82A2B1BD9A0
:102880001A0065462B3AD2B2D5402F4214D004AA82
:102890004D1C5354864200D1BEE20130402D00D180
:1028A000F4E1037829003E2BE8D91A004C465B3A44
:1028B000A243D2B2002AEAD0864200D147E20130D8
:1028C000D9E720229343432B02D101228A4B1A706D
:1028D0000126300015B0F0BCBB46B246A946A04662
:1028E000F0BD0122854B1A70F2E702227D4BFF21D9
:1028F0001A700023824A83481370834A1370834AF4
:102900001170834A802113700122824B49011A7091
:10291000002203F06FFADBE77F4B1B78012B68D0B6
:10292000022B00D138E1032B00D197E17B4B1B78C0
:10293000002B07D07A4B1B78002B00D041E1012DF2
:1029400000D1D4E1002DC3D03878FFF711FF012268
:1029500080216C4803F04EFA0122724B1A70B7E7DF
:10296000022B00D1ECE0032B57D0012BB0D104F0A7
:102970004FFE42466C4B18606C4B1A706C4A1368E1
:102980005B1913605A4B1B78002B00D1FEE1002D20
:102990009ED002239946574B7C1E380000219C464E
:1029A0000127B046641903783E2B16D82A2B1BD971
:1029B0001A0065462B3AD2B2D5402F4214D004AA51
:1029C0004D1C5354844200D1A6E30130402D00D168
:1029D00062E2037829003E2BE8D91A004D465B3AA3
:1029E000AA43D2B2002AEAD0844200D140E30130A7
:1029F000D9E7042D9AD138781B28A6D17B785B2B98
:102A0000A3D1BB78352B00D1DCE3362B9DD1FB78ED
:102A10007E2B9AD1FEF7CEF85AE7464E3378002B3C
:102A200000D0F7E0002D00D152E7434A7B199146D0
:102A300000229046083292464A46380000253F4917
:102A400002960394019221E07F2A2BD01400203CAF
:102A50005E2C17D80C78A4460E2C13D80124664699
:102A60006444E4B2A1460C70334CA255A346002442
:102A7000A4464E465C466746A7553F2D02D804AC97
:102A8000625501350130834200D16AE202781B2A87
:102A900000D164E20D2A00D161E10A2A00D15EE191
:102AA000082AD1D10A78002AECD04446019E013A86
:102AB000D2B20A70B454EA1C3F2AE3D8564604AC9A
:102AC000A4466655202465446C70AE701500D9E7A5
:102AD000D4A70008DCA70008E4A70008ECA70008BA
:102AE000F4A70008D91A0020100000200C000020D4
:102AF000B81600200F000A00751600207616002078
:102B0000A816002000080048A71600200600002094
:102B1000A5160020A616002009000020BA160020E5
:102B2000B9160020D71A0020500200204D020020C4
:102B300058020020A41600209416002090160020B1
:102B4000B74B1A78002A60D1002D00D1C0E6B54CF1
:102B50002378002B00D116E2012B00D178E2062168
:102B6000022B00D17DE23B78012D0AD00023FA5CD4
:102B7000202A02D0092A00D0C6E001339D42F6D1B6
:102B8000A6E6202BF2D10022A74B9A56A74B1A702B
:102B90000122A74B1A709BE6032D00D0C6E63878B9
:102BA0001B2800D0D1E67B785B2B02D04F2B00D0C6
:102BB000CBE6BB78412B00D109E3422B00D0C4E621
:102BC00028E7012B00D197E0022B00D0BAE6012DB7
:102BD00000D0B7E638780D2802D00A2800D0B4E635
:102BE00004A90A00934B31CB31C231CB31C2924B95
:102BF00064201B78052B01D89B00585872B68F4A69
:102C000013681B18136062B662E6012218708C4BC1
:102C10001A705DE63378022B00D131E23378062B4F
:102C200000D17CE13378032B00D1E5E13378042B2C
:102C300000D04DE6002D00D14AE63B78202B09D08C
:102C400000D93EE60D2B05D01B2B00D13DE60A2B0B
:102C500000D03DE601227B4B1A7039E6012D00D0F1
:102C600070E638782B2800D1B1E22D2800D1D1E6CA
:102C7000754B1B78002B00D167E6744B1B78002B3B
:102C800036D0012B3CD0022BA5D05EE644469046C0
:102C90008021012701226E48C900277003F0AAF89D
:102CA0008021002249016B4803F0A4F800236A4CFC
:102CB0006A4E6B4A2360336013606A4A17706A4A2F
:102CC00013706A4A13806A4A13800022694B1A7093
:102CD00004F09EFC684B2A0018604146674806F0E5
:102CE000D7FB674825603560FDF730FEF0E53878A2
:102CF000202800D029E673E7012D00D022E638789D
:102D0000092800D021E66BE7AB4200D3E0E5FE18CE
:102D10001B2A00D141E12578002D00D050E113009D
:102D2000313B042B00D8B5E2302A00D1F7E1202353
:102D300011009943512900D1F1E10D2A00D137E268
:102D40000A2A00D134E2202A00D0C1E51BE744461C
:102D5000002900D1BCE504AB0D00984698E7494D29
:102D6000029E2878002800D166E1474C00232354B6
:102D700001333370ACE5402D00D9402504AB2A0067
:102D800039001800984606F083FB81E7364B9946D8
:102D90001B78002B00D188E0002D00D1D8E18023E2
:102DA000DB029C463249394B002098468B462B4C1F
:102DB0002E4A029601972368634515D25946138817
:102DC0000E8801339B059B0D9E420DD016880199FC
:102DD000B6B2B1460E5C4F46B24646465146F15534
:102DE000138023680133236001308542E3D85946BC
:102DF000029E10880B88984200D214E112880B883A
:102E0000D21A92B2224B9B1A9BB27F2B00D95FE55C
:102E10000122204B1A705CE54446290098E7C04621
:102E20007A160020A8160020A71600200600002011
:102E300005000020689D000808000020B41600204E
:102E4000A616002077160020BA160020B91600201A
:102E50000014004800080048600200205C020020C6
:102E6000540200204D0200204C0200206602002087
:102E70006402002045020020500200206806002065
:102E8000FCA700089016002094160020680200207D
:102E9000FF030000DC25002046469046CE4B474607
:102EA00099461B78002B00D079E78022CB4B52014A
:102EB0009A461B685B19934200D81AE153461C6876
:102EC000131B9846A24200D030E101234A461370FA
:102ED000C34B9C4664446419002C99D043463C196A
:102EE000C049F818C04FB4468A46B946BF4AC04DDB
:102EF0004444514613880E8801339B059B0D9E4226
:102F000008D0494616880778B6B28F5513802B68CB
:102F100001332B6001308442EBD1664678E7002D07
:102F200000D1D5E4002220200EE0302B0FD0190074
:102F3000814351290BD0190031390132082900D8B9
:102F400080E1AA4200D1C3E4BB5C1B2BEDD102237C
:102F5000A84A237013700122A74B1A70B8E4039C8F
:102F6000F5E7002D00D1B3E4AE22A44B92009A58AD
:102F700085239B00D358002B00D0A9E4A9B204A854
:102F800005F054FFA4E43B78012D01D00621EDE5C6
:102F9000202B00D1F7E50621E8E59A1CAA4206D2CB
:102FA00070785B2800D1F9E04F2800D1F6E0237853
:102FB000013B012B00D8B6E00122914B1A7087E447
:102FC000012D00D1C7E0022D00D0B6E61300303B42
:102FD000D9B2482900D9B0E68A48890041588F46BD
:102FE000894ADBB212789A4200D871E4874A13709A
:102FF0000122814B1A706BE4002D00D168E43B780C
:103000004E2B00D13EE100D82EE16E2B00D139E1EC
:1030100020229343592B00D05AE401227C4B1A7092
:103020007C4B1A7054E412880B888021C9008C46AE
:103030006244D21A92B2E5E6774C1022774920001A
:1030400006F0E5F92000FDF719FBC0B228708DE607
:10305000734B19784B4259410123494299430C3132
:1030600081E5FDF7DFFD684B19780231C9B27AE5D9
:103070004646002900D12BE404AB0D0098460DE72D
:1030800004F0C6FA674B684A186013685B1913604E
:10309000002D01D1FFF71CFC8023DB0298460223A0
:1030A000624E9946624C7D1904E00137BD4201D160
:1030B000FFF70EFC33783978002B0AD03E2910D860
:1030C0002A29F2D90A005B4B2B3AD2B2D340DB0754
:1030D000EBD520684045E8D2431C2360FEF76AFD2B
:1030E000E3E70B004A465B3B9343DBB2002BDCD1AA
:1030F000EFE753461868504B2A00C018390006F015
:10310000C7F9534652461B685B191360384A136867
:103110005B191360FFF7DCFB46462900A9E705228F
:103120003A4B1A7032E5002323705FE75346186864
:10313000414B4246C018390006F0AAF953465246A0
:103140001B68434413602A4A136843441360BCE677
:10315000264A24494DE61300313B082B00D817E1DD
:103160002F4B1B78002B08D02023110099434129B5
:1031700000D135E1422900D12DE1302A05D02023AC
:1031800011009943512900D0D7E500230122237073
:103190001E4B1A70184B1A70FFF79AFBBA5C333A41
:1031A000D2B2112A00D902E72448920082589746E9
:1031B00004F02EFA224B1B68C01A642801D8FFF7CE
:1031C00087FBE0E4FB787E2B01D0FFF7BEFBFDF729
:1031D000B9FCFFF77DFBC0464C02002060020020D6
:1031E00000F0FFFF64020020680200206602002059
:1031F0005C020020A8160020A6160020481B002014
:10320000A5160020A0B1000800020020A71600208B
:1032100078160020791600209416002038A800089F
:10322000BA1600208416002088160020070000200F
:103230008C1600200F000A0068060020C4B20008A7
:10324000FC010020303BDBB2AA4208D2BA5C303A23
:10325000D2B2092A03D80A214B439B18DBB2654A34
:103260005BB21370FFF734FB0A3BDBB2162B01D9BC
:10327000FFF72EFB604ADA401300DB0700D5CCE6EF
:10328000FFF726FB00225D4B1A705D4B01321A706E
:10329000FFF71EFB04F0BCF95A4B5B4A1860337809
:1032A000313B5BB21370594A13700122584B1A70AC
:1032B000FFF70EFB2378012B01D0FFF709FB524AE1
:1032C0000139127852B28A4201DBFFF701FB4F4904
:1032D0000A704F4A1370FFF7FBFA4B4A1378013319
:1032E0005BB28B4200DA82E6002380E6464A13781E
:1032F000013B58B21B0601D5481E40B21070012296
:10330000444B1A70FFF7E4FA0333AB4200D34EE6A6
:10331000FB5C7E2B00D04AE62378022B01D0FFF71E
:10332000D7FA394B3C4A1B7812785BB2934201DBE7
:10333000FFF7CEFA394AD35C002B01D1FFF7C8FA68
:10334000374A5BB21370FFF7C3FA2F4B324A1B7830
:1033500012785BB2934201DBFFF7BAFA2F4AD256DA
:10336000304B1A70FFF7B4FA274B2B4A1B781278B0
:103370005BB2934201DBFFF7ABFA284AD2562A4BE5
:103380001A70FFF7A5FA0122284B1A70FFF7A0FA6E
:1033900004F03EF91B4B1C4A18603378313B5BB29A
:1033A00013701A4A13701A4B1D70FFF791FA2378A5
:1033B000012B01D0FFF78CFA134B01391B785BB25C
:1033C0008B4201DBFFF784FA104A1370FF22104B87
:1033D0001A70FFF77DFA0A220B4B1A70FFF7D6FB23
:1033E0000922094B1A70094B1A70094B1D70FFF71F
:1033F0006FFAC04601000020090040007816002046
:1034000079160020FC010020A716002006000020ED
:1034100005000020A6160020000200200402002063
:103420000400002003000020020000207B16002082
:10343000F0B5DE4657464E464546E0B50126BBB0E0
:1034400002AF04F0C9F80321FD4DFE4AAB6989467D
:103450003343AB61AB6900243340BB67BB6F136878
:103460008B431360FEF7F4F9782054231B181422C1
:103470000021D81905F0B2FF80226B699203134333
:103480006B616B69F0481340A822B9180B600B0000
:1034900080221B686B69D20313436B616B69134015
:1034A000AC22B9180B600B0080221B686B691203F9
:1034B00013436B616B691340B022B9180B600B00AA
:1034C00080221B686B69920213436B616B699246A1
:1034D0001340B422B9180B600B0080221B686B6983
:1034E000D20213436B616B691340B822B9180B60A9
:1034F0000B0080221B686B69520313436B616B697D
:103500001340BC22B9188022D20090460B600B00F9
:10351000002241461B6802F06DFC0122CB49CC48D9
:1035200002F068FC90200022FF21C00502F062FC3E
:1035300084210022C648490102F05CFCCC23C54A24
:10354000F9180A60D0217A181460D4227820783BC8
:10355000BA1814601A18D119BF4802F0A5FACC2382
:103560004046FA181060D021D4227918BA180E609B
:103570001460D8227820B918783B0C601918C91942
:10358000B14802F091FACC230222F9180A60D02146
:10359000B2487918086083467820D232B918783B4F
:1035A0000E601918C919AA4802F07EFACC2304202B
:1035B000F9180860D021083379180E60D822F9185C
:1035C0000C604946B81801607820803B1918C91969
:1035D0009F4802F069FACC220823B9180B605946BB
:1035E0000432B81801607820CC33F918803B0C60A5
:1035F0001918C919964802F057FACC23FF21D42292
:10360000F81801602F3978180660B8180432046081
:10361000B81806607820783B1818C1199020C005AA
:1036200002F042FACC231020F9180860D02183461A
:10363000083378180460F81806607820803B181862
:10364000C119834802F030FACC226023D021B81887
:103650000360781874330460CA3AF818026078205E
:10366000803B1818C1197A4802F01EFACC23794918
:10367000F8180160D021D42278180460B8180460CA
:103680007820783B1818C119754802F00DFACC2340
:103690008421F81849010160D021083378180660A8
:1036A000D822F81804607820803BBA1814601A18E1
:1036B000D119674802F0F8F9CC22C023B818D021FC
:1036C0009B000360D42378180460F8180460782005
:1036D000803B1818C1195E4802F0E6F9CC2280231D
:1036E000D021B8185B000360CA3A781802604A46D5
:1036F0002C3BF81808310460781802607820D93221
:10370000803BBA1814601A189020D2191100C00515
:1037100002F0CAF9C023CC22D0211B01BA181360D1
:10372000D42378207A18083116607918FA18803B6B
:1037300014600E601918CA191100454802F0B4F956
:10374000CC23FF21FA181160D0220833BA18FB18D5
:10375000146078201C6054231A18D119414802F0D3
:10376000A3F900220021052002F000F8052002F054
:1037700027F800220021062001F0F8FF062002F0C1
:103780001FF852466B695C2013436B616B69002123
:103790001340FB67FB6F7823C0180C22C01905F09B
:1037A0001DFECC2180227B1852011A607820542300
:1037B0001B189020043192467A181660D919C0055A
:1037C00002F072F9902000225146C00502F012FB6F
:1037D000642003F023FF90205146C00502F070FAE8
:1037E00005F0CEFA782048231B180C220021D819A6
:1037F00005F0F4FD1C4A1D4B0420136080235B027E
:103800009361C2235946FF33D3619E3B5061FF3B16
:10381000100093469160D454BA605460D46016612D
:103820001462946201F0DAFDC0210A2379180B605A
:103830005146BA33FB181960C8234946FB1817E0F4
:10384000001002400000014000140048040C000079
:1038500000080048FFFF0000001000480000211091
:1038600000040048000C0048DC1A0020002401403D
:103870007822196048239B18D919584601F0E4FEB4
:103880008022AB6912011343AB61AB69D24813408C
:10389000C022B9180B600B00E0221B68CF4BFF322F
:1038A0001C609A62783AFF3ADE625E639A61802217
:1038B00012021E625A64802241461A607F3A02F068
:1038C00099FA502003F0AAFE00224146C24802F0B5
:1038D00091FAC34B1C707B65C24B1C609A46C24B6D
:1038E0001C603B63C14B1C609B46C14B1C707B60E2
:1038F000C04B1C60FEF706F8FA238C229B00BA1816
:1039000013608C217B181B6879185A1E0A60002BE3
:10391000F7D10B0080210022B748C9001B6802F0D4
:1039200069FAFA2388229B00BA1813608822BB1810
:103930001C68BA18631E1360002CF7D18021130095
:10394000AD48012249011B6802F054FA802100228F
:10395000C900A14802F04EFAA84B7B671C70FDF726
:1039600007FEFDF78FFAA64B18787B64FCF760FF23
:103970001021A14802F038FAA24BA34A3B65187007
:10398000434258417A66107003F042FE9F4BA04AB2
:1039900018609C469F4BBA631C60FB639E4B1C7077
:1039A000BB619E4B1C707B619D4B1C70FB629D4BF1
:1039B0001C603B619C4B1C603B609C4B1C60FB6132
:1039C0009B4B1C6014709B4A3A6414709A4A7A624A
:1039D00014809A4A14803A62994A11007A6300224C
:1039E0000A70984AFA651278002A00D0EDE1FB606F
:1039F0006346954AFB64FA66944A3A67944A3A6683
:103A0000944ABA65FB6E1B78002B00D0B2E21021FD
:103A1000794802F0E9F93B6D1C78844200D172E2EA
:103A2000187003F0F5FDFB6C18607B6E1B78002BA3
:103A300000D079E27B6F1B78022B00D139E2032B97
:103A400000D1F1E1012B00D1CDE13B6F1B78002BC0
:103A500021D05B461A6853461B689A4200D2D8E1CF
:103A60005B4652461B6812689B1A9BB280229200EA
:103A7000934210D200233A6F1370774B1A78774B2A
:103A80001B78002A00D176E3002B04D1534A01337E
:103A900011680B4313607B6F1B78002B00D099E1FA
:103AA00053461A685B461B689A4240D0AE236C4965
:103AB0009B00CA58A43BD358002B38D15A461568EE
:103AC0005246396B1268674C0A602278D6B2002AD7
:103AD00000D15CE3524664481268825C0D2A03D030
:103AE0000A2A01D000F02FFE5B4D2B78002B01D16C
:103AF00000F06AFE0121394A13688B4313605B486A
:103B0000FCF724FF554B1B78002B09D12B78002B99
:103B100001D100F0F4FF0123304A11680B43136018
:103B2000002323703B6F1B78002B00D04DE372B64F
:103B30007B6F7A6D1B781278134300D1A0E262B6D6
:103B40003B6E1B78002B00D0B6E2BB6D1B78002BC0
:103B500000D000E27B6F1B78002B00D030E13F4AA1
:103B60001278002A00D12BE1414A1168002900D1C6
:103B700026E172B611681360894662B6364B1B782F
:103B8000002B01D000F038FF3A4A3B4953683B48CC
:103B9000096803400B4353607A6C394B11783948FC
:103BA0008A00521892009B185C684B46844200D8E9
:103BB000A2E0642B00D9A3E001204B46002B00D1EA
:103BC000F9E00124032800D9840800255646244B37
:103BD000BB66002380225CE000140048002C0140FA
:103BE000D71A0020CC160020C8160020C4160020CA
:103BF000D41A0020D01A002000080048D91A00204A
:103C0000D81A002000000020741600207016002032
:103C10004D0200206C1600206A1600206916002054
:103C200068160020600200205C0200205402002080
:103C3000500200204C020020660200206402002096
:103C4000450200207616002075160020BC160020C4
:103C5000DA1A0020B0160020BB160020BA16002089
:103C6000481B002044020020D0160020ACAE000803
:103C7000B416002000100240C0160020FFFFFF8095
:103C80009CB90008006CDC02C0468022BB181B688F
:103C90000133B9180B600B689C42F5D85B4632685B
:103CA0001B689A4222D0AE23BA6E9B00D258A43B26
:103CB000D3589846002B19D15B461B6832689A424C
:103CC00001D301F066F83C21326888469A1A3B2AF3
:103CD00003D832689B1A9BB29846CD4B3068414658
:103CE000C01805F0A3F83368434433600135A94593
:103CF00000D06EE7B2465EE0642B01D800F0FAFE19
:103D00000023C44A48460021FCF794FB220000230C
:103D1000FCF770FB041E00D10134BF4B554698469A
:103D20008023DB0099465E462100642C00D9642183
:103D3000842000233818036084203B184A001B6845
:103D400052188C46520093420AD2C04684203B1837
:103D50001B68391801330B600B689342F5D3614639
:103D60002A683368641A9A4221D0AE2342469B00E7
:103D7000D258A43BD3589A46002B18D133682A68EE
:103D80009A4201D300F094FD3C212A688A469A1A8F
:103D90003B2A03D82A689B1A9BB29A469C4B2868F8
:103DA0005146C01805F042F82B6853442B60002C94
:103DB000BAD1AA46B346994A994953680B40536011
:103DC000FB6D1B78002B00D11CE60023FA6D1370ED
:103DD000FEF750FB032B00D0A9E6924B1B78042B77
:103DE00000D0A4E65CE63B6C1B78002B00D01CE204
:103DF000BB6B1B78002B00D0CFE33B6F1B78002BF5
:103E000000D194E65B461A6853461B689A4200D379
:103E100026E680215B465246C9008C461B68126824
:103E200063449B1A9BB221E67E4C2378012B01D17F
:103E300000F03DFC2378022B00D1C0E22378062B52
:103E400001D100F003FC2378032B01D100F068FDC1
:103E50002378042B01D100F0AEFD2378052B00D090
:103E6000F3E5714B714D724C296820001A78FDF70B
:103E70008DFF011E01D100F0EBFF6E4E22003000DD
:103E80002B68FCF7E1FD6C4800F0AAFD6B4B9842F3
:103E900001D900F05EFDFA227B6F92001B78904200
:103EA00000D360E1022B00D0C9E58022644BD20030
:103EB0009A61644A1378D9B2002B00D0ADE1624810
:103EC0000378DAB2002B01D000F0EAFB5F490B78EF
:103ED0005BB2002B01DA00F00AFCFF230C780B70B8
:103EE000631E3E2B02D82000FCF7AEFF210058488D
:103EF000FCF7AAFD9620400003F090FBFDF71EFBA7
:103F00007B6F1B789BE503F083FBFB6C1B68C01A7F
:103F10000E2800D889E57B6E1D78002C00D097E232
:103F2000002D01D100F057FC03F072FBFB6B1B6806
:103F3000C01AFA235B019842A8D30124FB6A3221FC
:103F40001C70FCF7E1F880223D4BD200044200D007
:103F50000FE19A626EE503F05BFB3E4B1B68C01AF3
:103F6000364B984200D8F5E50023BA6D1370FDF783
:103F7000B1FBEFE580210024FB6E01223048C9002F
:103F80001C7001F037FF802100224901324801F006
:103F900031FF0A2003F042FB8021012249012E4813
:103FA00001F028FF3C2003F039FB80210022C900EA
:103FB000234801F01FFF294B1C607C6C2078FCF724
:103FC00037FC2178182900D925E18B005B18244A99
:103FD0009B0099582348FCF737FD234B1B78002B97
:103FE00000D114E5214B1B78012B01D100F095FC89
:103FF0001F49022B00D0A4E31E4B1B78052B00D9D0
:10400000C9E21D4A9B009A581C48FCF71DFDFEE4BE
:10401000D016002040420F00481B00200010024034
:10402000FFFFFFF0A4160020070000208C160020E0
:104030009416002014AD0008DC050000B70B00004A
:1040400000140048A51600207B1600200400002064
:10405000C8A80008AC16002000080048B4160020CC
:104060009CB9000844A80008BA160020B916002020
:1040700050A00008080000200CB30008E4A40008C9
:1040800062B64021D64801F0AFFED64B187000282A
:1040900000D16CE272B6D44B1869C0B2FEF768FB6F
:1040A00001228021CE4801F0A5FE62B662B63B6EC9
:1040B0001B78002B00D148E56B46BB62CB4B8021BF
:1040C0009C46E54402AB0022C5484901BB6401F0AF
:1040D00091FE0A2003F0A2FA0022BB6C160098465B
:1040E000C34CC44D04E00136AE4201D100F070FE75
:1040F000FDF70EFE236830001B041B0C2360FDF748
:1041000015FD43469855FF28EDD1B0463B2E01D80A
:1041100000F075FE85239B00444600269946B6496B
:10412000BD6CB966AE22BB6E92009A584B46D3580E
:10413000002BFBD128003C213C3C04F077FE3C36B0
:104140003C353B2CEED8B04501D900F022FC7B6F0A
:104150001B78002B01D100F005FC00233A6E137090
:10416000BB6A9D46F1E40123BA6913708022A34B18
:10417000D2009A615EE4002B00D08CE4A04AA149F1
:104180005368A148096803400B43536083E45346D6
:104190001B68AB4200D2C2E253461A68F1239B006F
:1041A0009A4200D2ACE35346802118681B68C900CC
:1041B000C91A964B89B2C01804F038FE53461E60E7
:1041C0003B6F1B78002B00D1B1E45B461A68534665
:1041D0001B689A4200D288E35B4652461B6812680D
:1041E0009B1A9BB280229200934200D39FE400234B
:1041F0003A6F1370864B874A1B781278002B01D1D7
:1042000000F062FC002A00D091E40123824A116888
:104210000B4313608BE48149DCE600231370FDF748
:10422000ADFB7B6F1B78FFF70AFC7B6B1B78002BC9
:1042300001D100F0E7FD796A386A0B880288784D71
:10424000784E9A426BD0784B80249946774BE402A3
:1042500098465346BB645B46BB624B46AA46B34690
:1042600089460600FD69BB661BE02B68A34200D1AE
:104270009EE053461B78002B0ED04B461A8833889D
:104280009A4232D34B461B8832889B1A684A9BB2AB
:10429000D31A9BB2FF2B36D84B461A8833889A42E2
:1042A00038D05A4633889BB2D15C3388C9B20133C7
:1042B0009B059B0D33802B68A342D6D22868431CF4
:1042C0002B60FDF777FC43462A681B689A42D0D3DF
:1042D00029685848FCF7B8FB80224346D200944630
:1042E00042461B6863441360C3E780214B46C90004
:1042F0008C461B88328863449B1A4D4A9BB2D31A62
:104300009BB2FF2BC8D904F0BDFD4B461A883388F9
:104310009A42C6D1BB6C55469A46BB6A9B462B78DF
:10432000002B00D04DE27B6B1B78002B01D1FFF7F7
:104330008CFB7B6A1A883B6A1B889A4201D0FFF784
:1043400084FB03F065F9FB681B68C01A632801D879
:10435000FFF77BFB384B1B78002B08D08022FB69D2
:10436000D2021B680633934201D800F0CAFD8023B5
:10437000F869DB02026819009A4200D801682F48E8
:10438000FCF762FB2E4B1B78002B01D000F0E0FD08
:104390002C48FCF7DBFA0023BA6B13703A6C1370ED
:1043A0007A6B13703A69136004F06CFDFFF74DFBF4
:1043B000B86EFCF7CBFA2B6801332B6059E7224D1E
:1043C0002B68002B00D139E503F022F91F4B1B6845
:1043D000C01A632800D9D3E37B6F1B78FFF732FB49
:1043E00000080048D61A0020000C004878ECFFFFB7
:1043F0000004004888130000481B002000140048F7
:1044000000100240C0160020FFFFFF80D0160020E1
:10441000BB160020BA160020002C0140809D000829
:10442000DC25002068020020F4AD000848020020CE
:10443000FF030000DCAD00080A00002030AE0008D9
:104440000B00002000A700088C1600208416002016
:10445000012C01D0FFF7E9FA002D01D1FFF7EAFAAC
:1044600000237A6E137003F0D3F8F96AFA6B0978B7
:104470001268002901D000F076FC831AFA2252015A
:10448000934201D300F06FFC7A691278002A01D0C0
:1044900000F028FDE24A934201D900F023FDBA69F9
:1044A0001278002A01D000F094FDFA24A400A3425F
:1044B00001D300F08EFD7A6F12780E2B01D800F038
:1044C00054FC022A01D100F0AEFD012A01D100F016
:1044D000E7FD80210122D348C90001F08BFC802137
:1044E00000224901D04801F085FC0A2003F096F82B
:1044F000802101224901CC4801F07CFC3C2003F0E2
:104500008DF880210022C900C64801F073FC00220A
:104510007C6CC64B20781A60FCF78AF92178182940
:1045200001D900F083FD14224A43C14BD158C14840
:10453000FCF78AFAC04B1B78002B01D100F015FC68
:10454000BE4B1B78012B01D100F06AFDBC49022B48
:1045500000D0BC49BC4BBD4A1B78052B02D8BC4AD5
:104560009B009A58BB48FCF76FFA00F0FEFB202135
:10457000AD4801F039FCB84B1870002800D13FE17C
:104580007B681B78002B01D100F025FC72B6B8685F
:1045900001F056F881E5AD4A36E503F039F8FB68DD
:1045A0001B68C01A632801D8FFF74FFAAB4BAC4C1D
:1045B0001B78002B29D02368002B26D0396922686C
:1045C0000B6800259A4202D922680D68551B6420A9
:1045D000216823682268684390463A69BB6612687E
:1045E000BA64FBF791FD8146FA208000B96E6843FA
:1045F000FBF78AFD0A21FBF70DFE9A4E00914B4610
:1046000041463000BA6CFCF71FFA974A3D69974E55
:104610001278974B29681B78300000920022FDF732
:104620008FFD0023BA6B13703A682B601360FA6930
:10463000236013603A6C13707A6A13803A6A1380AD
:104640007A6B137004F01EFCFFF7FFF9894A1378A8
:104650005BB2002B01DAFFF7F8F9FF23157813702E
:104660006B1E3E2B02D82800FCF7EEFB2900824887
:10467000FCF7EAF9FCF7F8FA982300215B0298426C
:1046800000D2191A7D4B1B688B4200D92AE27C4864
:10469000FCF7DAF97B48FCF759F9032323709BE612
:1046A0000170FCF733FC7B6F1B78FFF7C8F9764984
:1046B0007648FCF7C9F97648FCF748F9FDF728FB7E
:1046C000FDF7CCFA7348FCF741F97348FCF73EF963
:1046D00000226A4B1A60714B1A6002F099FF704B0E
:1046E0001860022323707B6F1B78FFF7ABF96D49CD
:1046F0000B785BB2002B00DB89E06B490B785BB277
:10470000002B00DA24E2FF2308780B703F2800D941
:1047100062E6FCF7ABF97B6F1B78FFF790F9534625
:104720001B68EB1A3B2B00D9EAE05346186819685E
:104730005E4B691AC01889B204F078FB53461D60BD
:104740003EE5404958E452461268AA4200D2FBE1D5
:10475000524680211268C900891A564600290CD198
:1047600069E23568C218555D0D2D09D03568525D76
:104770000A2A05D00133994202D022789342F0D31D
:10478000B2461D1E00D156E253461B68A9B2C0189E
:1047900004F04CFB534652461B68EB181360802311
:1047A0001268DB009A4202D300235246136023783A
:1047B0009D4201D3FFF7B4F923785B1BDBB2237072
:1047C000FEE404F05FFBAEE500221100100002F0F1
:1047D000D7FDFFF794F901237A6E137002F018FFEA
:1047E0008021FB6B00221860BB690F481D707B693C
:1047F00049011D70FB6A1D7001F0FCFAFFF715F905
:1048000000228021084801F0F5FAFFF798F9FF230C
:1048100008780B70FDF700FE7B6F1B78FFF70FF930
:10482000B70B00000014004800080048B416002030
:104830009CB9000844A80008BA160020B916002048
:1048400050A0000840A000080800002034A0000884
:104850000CB30008E4A40008D51A0020B816002004
:104860005802002058AE00080B0000206806002007
:104870000A00002001000020C8A800088C160020B3
:1048800020AB0008F0AA000894160020E0A8000859
:10489000F0A800080CA9000818A900088816002034
:1048A000841600200300002002000020D016002003
:1048B0004A462B68D31A3C2293463B2B04D84A46DF
:1048C0002B68D31A9BB29B46DC4B28685946C0180C
:1048D00004F0ACFA2B685B444B4502D22B685B4476
:1048E0009A4653462B60FFF762FA80215B46524698
:1048F000C9008C461B68126863449B1A9BB271E422
:1049000053461868CD4B3C21C01804F08FFA53462B
:1049100052461B683C33136052E4C949FFF76CFBF5
:10492000C84B1A78002A01D1FFF78FF800221A70BD
:10493000C54B1B78DDB2934200D0BBE1C348FCF706
:1049400005F8C34B1D70052323707B6F1B78FFF7A1
:1049500079F8962001237A6980001370FBF71AFF1B
:10496000FFF768F8FCF7CEFF80210022C900B948A4
:1049700001F040FA0A2002F051FE1021B54801F082
:1049800033FA002800D033E2012002F047FEFFF79F
:10499000E4FBAE238522B0499B00C95892008B5896
:1049A000002BFCD14346991BBB6C89B2981904F0CB
:1049B0003DFAFFF7CCFBF96E7B6E0A781B781A4341
:1049C00000D1A6E000220A708021A248490101F02E
:1049D00011FAFDF7E1FCA148FBF7B8FF9620C000F3
:1049E00002F01CFE02237A6F13709D4A137001229D
:1049F0009C4B1A70FFF729F8012500269A4C236872
:104A00002B432360944BBB66B14214D0B04656464C
:104A10008A462369AB43236104E05B4632681B6826
:104A20009A420FD123691D42F7D001239C46E044EE
:104A3000C245EED1B24601218B4A13688B43136005
:104A4000FFF7BEF9AE23BA6E9B00D258A43BD358F1
:104A50009946002BE6D15B461B6832689A4213D216
:104A60003C21326889469A1A3B2A03D832689B1A3D
:104A70009BB29946714B30684946C01804F0D6F98C
:104A800033684B443360CDE780223C213368D20049
:104A9000D31AB9643B2B03D83368D21A93B2BB64E0
:104AA000664B3068B96CC01804F0C0F9B96C80224C
:104AB0008C463368D2006344934202D289463368FD
:104AC00099444B463360ADE7002A01D0FFF72FF839
:104AD000664A674953686748096803400B43536057
:104AE000FFF725F8591A6448FBF7AEFF7B6F1B7878
:104AF000FEF7A8FF2100FBF707FBFFF75EF85B4A14
:104B00005B4953685B48096803400B435360FFF7F8
:104B100007F85A4B1978CDB2002900D0ACE102F069
:104B200077FD574B1B68C01A564B984200D853E488
:104B3000802148482A00490101F05CF95248FBF7FE
:104B400005FF0523237047E452461168691A04E6FD
:104B50004E4B197849B2002900DB7EE1414B1978B0
:104B6000002900D092E17B6E1B78002B00D033E44B
:104B70009620C000FBF70EFE7B6F1B78FEF75FFFF1
:104B800043482968FBF760FF424B1B78002B24D079
:104B9000414B1E68002E20D02B6899460023984672
:104BA0004E4502D94B46F31A9846434664203100DD
:104BB0005843FBF7A9FAB866FA20424680005043F2
:104BC0003100FBF7A1FA0A21FBF724FB00914A46CA
:104BD0003100BB6E3148FBF737FFFCF745F89823EF
:104BE00000225B02984200D24EE1982329685B02C2
:104BF000994200D970E1914200D84BE58B1A2848C0
:104C0000FBF722FF2748FBF7A1FE274B0126994619
:104C1000264B274D984604E020350136454500D106
:104C200063E12B78012BF7D131004846AB696A1C50
:104C3000FBF70AFFF0E70125A6E5C046D0160020E5
:104C40004CA000087916002078160020A0AB0008C0
:104C50007C16002000080048481B002064AC0008B7
:104C6000A8160020A6160020002C014000100240CB
:104C7000C0160020FFFFFF8058AB00087716002009
:104C8000801600200F270000D8AC00080600002086
:104C900060A90008070000208816002080A90008ED
:104CA0001CAA00086CAA0008A0AA000800C80008F6
:104CB00020C00008DF48FBF749FEDF48FBF746FE4F
:104CC000DE48FBF743FE0122DD4B1A70DD4B1B78FB
:104CD000002B00D0E1E0FCF715FEFA239C229B009C
:104CE000BA1813609C217B181A687918531E0B6040
:104CF000002AF7D10B008021D348C9001B6801F0BE
:104D000079F8FA2398229B00BA1813609822BB18EE
:104D10001D68BA186B1E1360002DF7D113001B68B5
:104D20007B6C1878FBF784FD5B461D605346802141
:104D30001D603B6F2A004901C3481D7001F05AF8FD
:104D40000A2002F06BFC80210122BF48490101F0DA
:104D500051F802F05DFCBD4B1860042323707B6F9B
:104D60001B78FEF76FFEFDF717FB0023BA6913707F
:104D70007A691370FA6A13707B6F1A78002A01D06F
:104D8000FEF753FE8021B248C90001F033F8FEF768
:104D90004CFE80223C213368D2008A46D31A3B2B3A
:104DA00003D83368D31A9BB29A46AA4B306851464F
:104DB000C01804F03BF880223368D2005344934279
:104DC00002D233685344984643463360FEF78EFF61
:104DD000B046FFF79FF9BC68200000F0A3FB01215B
:104DE000200000F0CBFB01237A681370FFF7CEFBA5
:104DF000802101229448490100F0FCFFC4E500260F
:104E0000FFF7A1F9802500249348FBF79FFDFCF7ED
:104E10007FFFFCF723FF9148FBF798FD904E6D0153
:104E20002000315D0134FCF7C5FEAC42F8D1FB69CE
:104E30008C481C601968FBF707FEA0228A4B5201C0
:104E40001A6001237A6B137004F01CF8FFF7F3F972
:104E50008648FBF77BFD8648C2E5864A18781178BC
:104E6000FF2249B21A70FDF777FB7B6F1B78022B8C
:104E700001D0FEF7E4FD0AE08021734849011A7071
:104E800000F0B8FF7C485AE61A1AAEE61A70FCF732
:104E900055FB7B6F1B78FEF7D2FD784D5B212868B0
:104EA000FCF788FE28682D210130FCF783FE286876
:104EB0005D210230FCF77EFE28682B210330FCF7D1
:104EC00079FE28685B210430FCF774FE28685D21B8
:104ED0000530FCF76FFEFEE66948FBF7B5FDFA20EA
:104EE000C0007DE5FCF78EFC3FE76648FBF72EFD32
:104EF000FF22654B1A70062323707B6F1B78FEF729
:104F0000A1FDFC695B212068431C2360FCF752FE75
:104F100020682D21431C2360FCF74CFE20685D2196
:104F2000431C2360FCF746FE20682B21431C2360B2
:104F3000FCF740FE20685B21431C2360FCF73AFE2F
:104F400020685D21431C2360FCF734FEFFF70FFA55
:104F50004E48FBF7FBFC802100223D48C90000F0D1
:104F600049FFFCF7CFFCFA23A4229B00BA18136078
:104F7000A4217B181A687918531E0B60002AF7D1F8
:104F80000B0080213048C9001B6800F033FFFA2372
:104F9000A0229B00BA181360A022BB181C68BA1884
:104FA000631E1360002CF7D18021130049012200F9
:104FB00025481B6800F01EFF0A2002F02FFB80210D
:104FC00001222148490100F015FF7B6F1C70FFF79B
:104FD000E2F9802101227B6F1D48C9001A7000F0A0
:104FE00009FF802100224901174800F003FF002338
:104FF0003A69274C13603A6826481360FA692360BF
:105000001360BA6B13703A6C13707A6A13803A6A41
:1050100013807A6B1370FBF799FC03F033FFA4E65F
:105020001D49FFF797FAFCF7A9FC9EE61B49FFF71D
:105030007EFAC046C4AB0008F0AB00082CAC0008F8
:105040007C1600200A00002000080048801600207E
:1050500000140048D016002088AD000834A60008CF
:1050600068060020DCAD0008480200204CAD0008B6
:10507000DC05000005000020A4AC00088C16002010
:10508000D0A90008C0AA000801000020E4A600087A
:10509000580200205CA800084CA00008809D000871
:1050A000802100221D48C90000F0A4FEFCF72AFC64
:1050B0009423FB181C6094217B181A687918531EDE
:1050C0000B60002AF7D10B0080211548C9001B682E
:1050D00000F090FEFA2390229B00BA1813609022F1
:1050E000BB181C68BA18631E1360002CF7D180210E
:1050F0001300490122000A481B6800F07BFE0A20C9
:1051000002F08CFA802101220548490100F072FE6C
:105110007B6F04481C70FBF719FC26E6001400485E
:1051200000080048B0A800087047C046012200B53A
:105130000F4B83B0996905201143996199694042E9
:105140000A4080210092009ADA6949050A43DA612F
:10515000DB6900220B4001930121019B00F006FB5B
:10516000022000220121404200F000FB03B000BDFC
:105170000010024010B5040088B01422002102A8DB
:1051800004F02CF9104B22689A4201D008B010BDEF
:1051900080210E4B89009A690D480A439A619A69E9
:1051A0000A4080210092009A5A6909030A435A6111
:1051B0005B6901220B400193019B032302A9029228
:1051C000039300F071FCE1E700240140001002406D
:1051D000000800487047C046FEE7C0467047C0461A
:1051E0007047C04610B502F007FA10BD10B5022096
:1051F00000F006FE10BDC0462C4B70B55B691B0766
:1052000032D52B4C2378002B28D12A4A2A495368BF
:105210000B405360C046C046284B294918690B68AB
:10522000284D01339B050E689A0D2B68C0B29E4233
:1052300029D30B682D685B1B9BB2FE25AD00AB42EA
:1052400016D20B68204D0A60E8542378002B23D037
:1052500001211E4A13680B43136010E001211B4A11
:1052600013688B431360D5E7082000F0C9FD70BDBB
:105270000B680A600122144CE054154B1A70082286
:105280000A4B5A61F3E78026F600B4460B682D6896
:1052900063445B1B9BB2D0E7064A0E4953680E4835
:1052A000096803400B435360E9E7C046000401402E
:1052B000BB16002000100240FFFFFFF00004004872
:1052C000C4160020CC160020D0160020002C01406F
:1052D000BC160020C0160020FFFFFF8010B502485A
:1052E00000F07EFE10BDC046002A00200C490D4A89
:1052F0000300521A0C4910B50868002804D0C318DE
:10530000934206D80B6010BD0848C318086093424A
:10531000F8D904F091F80C23036001204042F2E731
:1053200000040000004000201C1B0020402E002034
:105330007047C046002370B5026882B0019391683F
:10534000033304000B40012B31D09168204B1942EC
:1053500023D1012193680B4393601E4B1E491868AB
:10536000FAF7D2FE0190019B002B05D0019B013B77
:105370000193019B002BF9D102F04AF901260500A7
:1053800004E002F045F9401B022817D823681B6887
:105390001E42F6D0002002B070BD1022A36B012087
:1053A0001343A363E36B0F3A1343E363F3E711681B
:1053B0000B42EFD1D3681B04ECD4C6E71022A36BD9
:1053C00001201343A363E36B3343E363E3E7C04686
:1053D000170000801400002040420F0070B5041E2A
:1053E00064D0836B002B68D0A36BDB0660D422688B
:1053F00093685B075CD4A36B47490B400631FF31D0
:105400000B43A363032391680B40012B5BD018214E
:10541000D3688B43A1680B43D360136961689B0019
:105420009B080B431361D3683C490B40D360237E38
:10543000617E9B03C9030B43A07EE1680B434103DC
:105440000B432421615C49000B43A16A01394D1EC5
:10545000A94109030B43216902394D426941890081
:105460000B43E17E01293ED0C220E169FF30814239
:1054700002D0206A01430B43D168E56A1943D16029
:10548000802149058D4225D0691E062922D9D2687E
:1054900023490A409A422CD01222A36B9343023A2A
:1054A0001343A363E36B0F3A1343E363012070BD1F
:1054B0001022A36B1343A363F8E73422C36383541E
:1054C000FFF758FE90E711680B42ACD1D3681B047C
:1054D000A9D49CE70721506988435061506929404D
:1054E00001435161D3E700280DD1802149020B43CC
:1054F000BAE700230322E363A36B00209343023A3D
:105500001343A363D3E72025A06B2843A063E06B7C
:105510000143E163A8E7C046FDFEFFFF1902FEFF5D
:10552000E7FF3F83036810B59A680400520721D44F
:105530003422815C01291DD001218154427E012A3F
:1055400012D1A16B0C4A00201140802252000A4364
:10555000A26334210022E26362541C321A609A680A
:1055600030390A439A6010BDFFF7E4FE0028FAD1F3
:105570002368E6E70220F6E7FEF0FFFFF8B544698E
:1055800005000E00082C04D003680C24DB68DB0740
:1055900041D402F03DF807002A6813681C4204D188
:1055A000731C25D113682342FCD08023A96B9B0078
:1055B0000B43AB63C023D1681B01194213D1AB7EEF
:1055C000002B10D113681B070DD593685B072BD4F4
:1055D0000C2153688B435360AB6B18490B4004316B
:1055E000FF310B43AB632B7E002B11D00020F8BDA5
:1055F000002E04D002F00CF8C01BB042CCD904221B
:10560000AB6B03201343AB6300223423EA54EEE771
:105610000C231360EAE72022836B13438363002289
:105620003423C2540120E2E72021AB6B0B43AB6370
:10563000EB6B1F390B43EB63D5E7C046FEFEFFFF64
:105640000368186C7047C0460023F0B583B001931F
:105650003433C25C0400C56A012A59D00122C25405
:1056600003689868400709D520220120A36B1343E3
:10567000A36334230022E25403B0F0BD1026764227
:10568000B4460868324E4F6882408444B74227D0FF
:105690009E6A32439A62072D1FD980225205954295
:1056A0000CD007228D68596911408D4206D0596986
:1056B0009143596159692A400A435A616346022B52
:1056C00009D8244B80211A68102825D011283AD0F7
:1056D00049040A431A600020CBE7002DEED1E0E731
:1056E000996A914399626346022BF4D8194B1B685F
:1056F00010280FD01138421E9041174A40421040E6
:10570000164A944660441840124B18600020B0E7D7
:105710000220B1E71248F6E709040A431A60114B68
:1057200011491868FAF7F0FC83001B185B0001931D
:10573000019B002BCFD0019B013B0193019B002BD0
:10574000F9D1002095E7C9030A4300201A6090E7C9
:105750000110000008270140000040FFFFFFBFFFCD
:10576000FFFF7FFF1400002040420F00FF220323B1
:1057700010B514000340DB009C4089010A40E4435B
:105780009A4000280BDB0C4BC0219C46800880000F
:1057900060448900435823401343435010BD0F23F6
:1057A000064903408C46083B9B089B006344D9692B
:1057B0000C401443DC61F1E700E100E000ED00E0A3
:1057C000002805DB1F22012302409340014A136099
:1057D0007047C04600E100E000280ADB1F220123D9
:1057E00002409340802203498B50BFF34F8FBFF399
:1057F0006F8F704700E100E08022431E52040120B9
:1058000093420ED2C021074A07485360036A090633
:105810001B021B0A0B430362002300209360073323
:105820001360704710E000E000ED00E0F0B5464680
:105830004F46D646C0B52F4F06003B7E8846012B0B
:1058400056D001233B7603682B48012B33D000F060
:1058500095F8002833D1012342465B421360B368B8
:105860007568DB025B199D4229D20023234C9946BF
:1058700009E080231B019C46B3687268DB02654423
:105880009B18AB421CD902224B469246FB6123690E
:10589000194813432361656123693E321343236131
:1058A00000F06CF852462369934323610028E0D04E
:1058B00043461D6004E000F061F8002807D0012095
:1058C00000233B76E0BCBA46B146A846F0BD0425AD
:1058D00040220A4CF861236907482B43236123695E
:1058E0001343236100F04AF82369AB432361E7E7E0
:1058F0000220E7E7201B002050C3000000200240E8
:1059000010210D4B10B5DA680B001340114205D081
:105910000A4A0E39D3690B43D3611023064AD16872
:1059200004220A4205D0012404481343C1692143DB
:10593000C161014AD36010BD00200240201B00203D
:10594000064B00201A69120606D5054A5A60054A18
:105950005A6018690006C00F7047C0460020024018
:1059600023016745AB89EFCD8021034A00201369ED
:105970000B4313617047C04600200240F8B5040095
:1059800001F046FE01260500154FFB681E4206D0B9
:10599000631C12D101221249CB681A42FCD1202289
:1059A0000F4BD9680A4211D10D4AD368DB0612D4D5
:1059B000D36800205B070ED4F8BD002C04D001F0A2
:1059C00027FE401BA042E0D90320F5E7DA60044A35
:1059D000D368DB06ECD5FFF793FF0120ECE7C04668
:1059E00000200240F0B54E465746DE464546E0B53B
:1059F0009A4683B0294B019299461B7E04000E0003
:105A0000012B46D001234A4625481376FFF7B6FFFF
:105A1000002834D1012C3ED0023C631E9C4163001F
:105A2000984602239C46E044002300259B4618E04C
:105A30005346D3404A46594601271A4CD161226940
:105A40009BB23A43226116483380FFF797FF2369E0
:105A5000BB432361002812D10135EBB202369845D1
:105A60000DD92B011A00203AE2D520225146D21A34
:105A700091400A000199D9400B001343DAE7002353
:105A80004A46137603B0F0BCBB46B246A946A046D0
:105A9000F0BD0220F6E701239846C5E7201B002051
:105AA00050C3000000200240F0B54546DE46574690
:105AB0004E46E0B50D68002385B0002D7BD0794AB5
:105AC0000091924601212A0099400A4091460D42D8
:105AD0006DD0009F10247A681700A7435C00A4468D
