:020000040800F2
:1000000000400020450200080D26000811260008C7
:1000100000000000000000000000000000000000E0
:10002000000000000000000000000000152600088D
:100030000000000000000000192600081D2600082E
:10004000D9020008D9020008D9020008D902000824
:10005000D90200082526000831260008D902000828
:10006000D9020008D9020008D9020008D902000804
:10007000D9020008D9020008D9020008D9020008F4
:10008000D9020008D9020008D9020008D9020008E4
:10009000D9020008D9020008D9020008D9020008D4
:1000A000D9020008D9020008D9020008D9020008C4
:1000B000D9020008D9020008D90200083D2600082C
:1000C00010B5064C2378002B07D1054B002B02D02E
:1000D000044800E000BF0123237010BDD8010020B8
:1000E00000000000986C0008044B10B5002B03D0F2
:1000F0000349044800E000BF10BDC04600000000F6
:10010000DC010020986C0008002243088B4274D365
:1001100003098B425FD3030A8B4244D3030B8B4208
:1001200028D3030C8B420DD3FF22090212BA030C11
:100130008B4202D31212090265D0030B8B4219D3F2
:1001400000E0090AC30B8B4201D3CB03C01A524112
:10015000830B8B4201D38B03C01A5241430B8B425A
:1001600001D34B03C01A5241030B8B4201D30B0343
:10017000C01A5241C30A8B4201D3CB02C01A52416A
:10018000830A8B4201D38B02C01A5241430A8B422D
:1001900001D34B02C01A5241030A8B4201D30B0216
:1001A000C01A5241CDD2C3098B4201D3CB01C01A30
:1001B000524183098B4201D38B01C01A524143093A
:1001C0008B4201D34B01C01A524103098B4201D328
:1001D0000B01C01A5241C3088B4201D3CB00C01A95
:1001E000524183088B4201D38B00C01A524143080D
:1001F0008B4201D34B00C01A5241411A00D2014632
:10020000524110467047FFE701B5002000F006F8A4
:1002100002BDC0460029F7D076E770477047C04658
:100220000023C25C0133002AFBD1581E7047000036
:1002300003B47146490840004900095E49008E44F4
:1002400003BC70471948854619480168194A91420C
:1002500012D1002101601848016801221143016098
:10026000164801680322914301221143016014489A
:1002700001688D464168084712481349134A002314
:1002800002E0D458C4500433C4188C42F9D3104A45
:10029000104C002301E013600432A242FBD302F0B1
:1002A000F7F906F08BF801F013FAFEE700400020A2
:1002B000F03F0020EFBEADDE18100240000001400C
:1002C00000C8FF1F00000020D8010020B07C0008FB
:1002D000D80100208C2D0020FEE70000F8B50700B3
:1002E00010000C001600FFF79BFFA04216D8002854
:1002F00016D0002402E00134A04211D0395D335DF4
:100300000A00613A192A01D82039C9B21D00613D9D
:10031000192D01D8203BDBB29942ECD00020F8BD6A
:100320000120FCE770B5040004F050F92100FFF74C
:1003300071FF0B0061088B421FD25801C01A800068
:10034000C018C000FFF7E0FE114B5C68002C00D124
:10035000104CFA210E4B890040439D68FFF7D4FEF4
:10036000FA2160438900FFF7CFFE80220A4B641B0D
:10037000D200A0420AD99A6170BDE41A6001001B44
:1003800080000019C000FFF7BFFEDDE79A62F3E7C7
:1003900010E000E080BB00000014004810B5082801
:1003A00002D002280BD010BD094B0A4A18690A492D
:1003B0001368C85401339B059B0D1360F3E70022BB
:1003C0008021064802F0F4FC0022054B1A70EAE78F
:1003D00000040048301600203C16002000080048A9
:1003E000431A00203138C0B210B506280AD81A4B7B
:1003F00080001B589F46C0228021002092050905DD
:1004000003F09CFF10BD80228021002052050905C9
:1004100003F094FFF6E7802100220020090503F095
:100420008DFFEFE78022A0210020D205C90403F050
:1004300085FFE7E7802280210020D205090503F02F
:100440007DFFDFE7A02100220020C90403F076FF32
:10045000D8E78022D0E7C046B06C0008F0B5D64699
:100460004F464646C0B58046FFF7DAFE071E20D04D
:10047000184B85269A46AE239B00994653464A461A
:1004800000249B58B6003D1B402D1FD8A9B212482E
:100490009A59002A16D14346181905F0A5FC53466F
:1004A0004A460D499B589A59002A07D16419A74218
:1004B000E9D8E0BCBA46B146A846F0BD01390029EA
:1004C000F1D1F3E701380028E2D1E4E740254021EB
:1004D000DDE7C046941A0020400D03000FB400B5BC
:1004E000A3B024AB04CB802102A8019305F03AFF0E
:1004F00002A8FFF7B3FF23B008BC04B01847C046FA
:1005000010B5194C82B02078362801D902B010BD40
:100510000130C0B22070FFF765FF2378313BDBB2BA
:10052000062B1ED8114A9B0099581148FFF7D6FF99
:10053000802101220F48C90002F03AFC00230193F8
:10054000019B0D4A934205DC019B01330193019B02
:100550009342F9DD802100220648C90002F028FC00
:10056000D4E70649E1E7C046441A00206875000850
:10057000D46C0008001400485FEA0000CC6C00084E
:1005800010B5194C82B02078312801D802B010BDC6
:100590000138C0B22070FFF725FF2378313BDBB272
:1005A000062B1ED8114A9B0099581148FFF796FF59
:1005B000802101220F48C90002F0FAFB00230193B9
:1005C000019B0D4A934205DC019B01330193019B82
:1005D0009342F9DD802100220648C90002F0E8FBC1
:1005E000D4E70649E1E7C046441A002068750008D0
:1005F000D46C0008001400485FEA0000CC6C0008CE
:10060000F0B5DE464E4645465746E0B55E4885B0F5
:10061000FFF724FF5D4B00249B461800FFF71EFFE9
:100620005B48FFF71BFF5846FFF718FF5948FFF7D5
:1006300015FF5846FFF712FF574B6D469A46574B2A
:10064000574E9946574B9846082C00D981E0564A98
:10065000A300D3589F462A00544B83CB83C21B78F8
:10066000534913700023F356A34224D02A00514863
:10067000FFF734FF0134092CE6D15846FFF7EEFEB0
:100680004D48FFF7EBFE5846FFF7E8FE4B48FFF7F3
:10069000E5FE05B0F0BCBB46B246A946A046F0BD9B
:1006A0002A00474B83CB83C21B7846491370002333
:1006B000F356A342DAD12A004348FFF70FFFD9E7E8
:1006C0002A00424B83CB83C21B7841491370C9E790
:1006D000404B1B78002B4CD03F4B102128003F4A49
:1006E00005F0DCFD3E49BDE73E4B1B78002B3CD0BE
:1006F0003D4B10212800294A05F0D0FD3B49B1E7C8
:100700003B4B102128001B683A4A05F0C7FD3A49C7
:10071000A8E73A4B1B78012B31D0022B2DD0032BAD
:100720002FD0374B102128001C4A05F0B7FD354962
:1007300098E7354B1B78313BDBB2062B1BD8334A8D
:100740009B009B5810212800144A05F0A7FD304952
:1007500088E753461B78002B09D0234B10214A46CB
:10076000280005F09BFD41467CE72A4BC1E7294B59
:10077000F4E7234BB1E7284BE4E7284BD2E7284BBB
:10078000D0E7284BCEE7C046286E0008346E00083C
:10079000686E00089C6E000808000020D06E0008FB
:1007A00029160020486D000864740008186F0008BE
:1007B0002C6D0008486F0008606F0008946F0008F7
:1007C000086F00080C6E0008286F0008F86E00081B
:1007D000F06D000802000020046D0008EC6E0008B7
:1007E0009C6D000803000020F06C0008806D00087C
:1007F00004000020DC6E0008646D00080100002089
:100800000C6D0008D46D0008441A002068750008BB
:10081000B86D0008F86C0008CC6C00081C6D00086E
:10082000146D0008246D000802220A4B10B51A70DE
:100830000022FF21084B09481A70094B1970094B17
:100840007F391A70084B01321A704901002202F0F8
:10085000AFFA10BD451A00202916002000080048F4
:1008600000000020271600202816002010B5A0B098
:100870003022002114A805F081FD1022002102A8D9
:1008800005F07CFD1C2200210CA805F077FD182244
:10089000002106A805F072FD32231024139313A83B
:1008A000313B16931B9318931794199403F092FA03
:1008B000072300240121029302A8043B039304941C
:1008C000059403F0ADFD80230CA89B020C931294B9
:1008D00003F0A0F98022A0210020D205C90403F072
:1008E0002DFD80210C4B0905DA6906A80A43DA615F
:1008F000DB6922220B400193019B80239B05079318
:10090000064B06940993202308940A920B9303F054
:1009100037FA20B010BDC046001002407FBB000077
:1009200030B587B014220021684605F027FD8021EC
:10093000154D01222800C90002F03AFA8021280052
:100940000122090102F034FAFF2200240023694643
:1009500012020E4800920193029402F017F9C0228D
:10096000002369462800920000920193029402F04D
:100970000DF90023064A6946064800920193029445
:1009800002F004F907B030BD000800480004004838
:10099000FFFF00000010004830B580250022264CE3
:1009A000264BED0083B0290020001A7002F000FAF7
:1009B000234BA5621B78313BDBB2062B39D8214A89
:1009C0009B0099582048FFF789FDFFF7A9FFFA23FC
:1009D0009B000193019B5A1E0192002BFAD18021AA
:1009E00000221A48C900019B02F0E2F9FA239B0099
:1009F0000093009B5A1E0092002BFAD18021002206
:100A000049011248009B02F0D3F90A2003F0E4FDEB
:100A100080258021084CED0001220C48490102F09C
:100A2000C7F900222900200002F0C2F9A56203B034
:100A300030BD0749C6E7C04600140048451A0020EB
:100A4000441A002068750008C06F000800080048BC
:100A5000CC6C000870B50D00012680211B4A0304F0
:100A60001B0C82B05361020C04003240184849004C
:100A700002F09EF98021620C15483240890002F094
:100A800097F9FF21134B2D025A6911481140294350
:100A9000596180210022090102F08AF90A23019399
:100AA000019B5A1E0192002BFAD180210122084895
:100AB0000901019B02F07CF90A230093009B5A1E56
:100AC0000092002BFAD1009B02B070BD00100048CC
:100AD000000800480004004830B5802101251D4A67
:100AE00003041B0C85B05361020C04002A401A4811
:100AF000490002F05DF98021620C17482A40890004
:100B000002F056F90A230393039B5A1E0392002B0B
:100B1000FAD1802100221048C900039B02F048F955
:100B20000A230293029B5A1E0292002BFAD16A46B4
:100B30008021029B094BD41D1B6907481B0ADBB2AD
:100B4000D371C900012202F033F92078C0B205B098
:100B500030BDC046001000480008004800040048AE
:100B6000F8B50E0005004027224C234A2368AA212D
:100B70001B041B0C134323602048FFF76BFF552118
:100B80001F48FFF767FFA0211C48FFF763FF3100F4
:100B90002800FFF75FFF23681A4E1B041B0C23601D
:100BA0002800FFF799FF04002800FFF795FF444055
:100BB00027420FD0013E002EF2D12800FFF78CFF14
:100BC00004002800FFF788FF604007420FD001268D
:100BD0007642E5E72800FFF77FFF04002800FFF7D3
:100BE0007BFF4440274202D0013E002ED8D1002096
:100BF000F8BDC0460004004800005555555500009A
:100C0000AA2A000050C3000070B54026264C274A8F
:100C10002368AA211B041B0C134323602448FFF7FD
:100C200019FF55212348FFF715FF80212048FFF7C2
:100C300011FFAA211E48FFF70DFF55211D48FFF7A0
:100C400009FF10211A48FFF705FF23681A4D1B04FE
:100C50001B0C23600A20FFF73FFF04000A20FFF768
:100C60003BFF444026420FD0013D002DF2D10A2027
:100C7000FFF732FF04000A20FFF72EFF6040064214
:100C80000FD001256D42E5E70A20FFF725FF04009C
:100C90000A20FFF721FF4440264202D0013D002DEB
:100CA000D8D1002070BDC046000400480000555552
:100CB00055550000AA2A0000404B4C00D0B586B024
:100CC00014220021684605F059FB8021154C0122B1
:100CD0002000C90002F06CF88021200001220901E7
:100CE00002F066F8C0220123002601276946200091
:100CF0009200009201930296039701F047FF0123AF
:100D0000094A69460948009201930296039701F047
:100D10003DFF0749074A0B681B041B0C13430B607C
:100D200006B0D0BD00080048FFFF000000100048DA
:100D30000004004800005555F0B54E464546DE46D5
:100D40005746E0B587B01C0010AB1B780E008046FC
:100D5000111E019300D1F4E032007E48FFF7BEFB84
:100D6000802100227C48490102F022F880210122E2
:100D7000C9007A4802F01CF87948FFF76FFBFFF7CB
:100D80009DFFFFF741FF7748FFF768FB04AB9A46EA
:100D90005146754B1A6804929A888A809B798B71A8
:100DA000002C2DD08023B51DDB029D4200D977E0B9
:100DB000092D28D90A212800FFF7A6F981465346B4
:100DC0009B1B9B46694B64270093330000244E46CF
:100DD000994610E04346195D20000134FFF7C0FE3C
:100DE00031002000FFF716FA002960D0AC426DD028
:100DF0006437AC4268D2A145ECD85B46195DEBE79D
:100E00003500092DD6D8002D00D09FE05848FFF7B7
:100E100025FB5848FFF722FB5748FFF71FFB019BB4
:100E20000125002B00D188E05448FFF717FB8021F3
:100E300000224A48C90001F0BBFFFFF771FDFA2309
:100E40009B000393039B5A1E0392002BFAD180212F
:100E500000224148C900039B01F0AAFFFA239B002E
:100E60000293029C631E0293002CFAD1802100227F
:100E700049013948029B01F09BFF0A2003F0ACFBBB
:100E8000802101223448490101F092FF3C4B1C7043
:100E9000280007B0F0BCBB46B246A946A046F0BD4C
:100EA0000A213000FFF730F93500814687E7290035
:100EB0003800FFF729F92B00010022000098FFF706
:100EC0000DFB6437AC4296D34E460BE02900380048
:100ED000FFF71AF9254C01002B002A0020004E468E
:100EE000FFF7FCFA2248FFF7B9FA53469B1B002490
:100EF0009A460AE0434620001F5DFFF7EDFD87425A
:100F00000CD10134AC4200D183E7A642F2D853465B
:100F100020001F5DFFF7E0FD8742F2D0194D03006E
:100F20003A0028002100FFF7D9FA1348FFF796FA94
:100F3000019B0025002B00D076E71348FFF78EFABF
:100F4000A6E731001148FFF7C9FA09E701239946DE
:100F500035E7C046FC6F0008000800480014004850
:100F60003870000848700008046D000850700008D0
:100F700078700008C4700008CC700008F870000891
:100F8000451A00208C700008147100081C700008BD
:100F900000B5104883B0FFF761FA01230E4A0093B1
:100FA0000E4900230E48FFF7C7FE00230D4A1370B9
:100FB0000D4A13600D4A13600D4A13600D4A1370F9
:100FC0000D4A13800D4A138000220D4B1A7003B096
:100FD00000BDC04644710008747100087D06000021
:100FE0008475000801020020100200200C0200207D
:100FF0000802002000020020160200201402002037
:10100000F801002010B508280DD82B4B80001B5884
:101010009F462A4A31201378362B01D80133D8B2A3
:101020001070FFF7DFF910BD2548FFF717FAC82049
:1010300003F0D2FA0122234B1A700022224B1A70BD
:10104000F1E7FFF7A9FCEEE7204A137859424B413C
:101050001370E8E71E4A1368042B24D0082B1FD016
:10106000102B23D0202B24D004231360DBE7194A54
:10107000137859424B411370D5E7174A13785942F8
:101080004B411370CFE7032314490A780132134010
:101090000B70C8E71248FFF7E1F9FFF779FFC2E7E5
:1010A00008331360BFE704331360BCE710331360E9
:1010B000B9E720331360B6E788740008441A0020AB
:1010C000B471000826160020451A002008000020F0
:1010D0000400002003000020020000200100002086
:1010E0008C71000810B52E488AB0FFF7B7F9AE230F
:1010F00085212C4C9B00E0582B4A89004358002B3B
:1011000049D100230193019B284A934205DC019BAE
:1011100001330193019B9342F9DD200004F0D2F9E1
:10112000200004F0ABF98021214B89025A6906A8FE
:101130000A435A615B690C220B4002930021029B17
:1011400005F01CF9802290200123520104A9C0055A
:101150000492059301F01AFD80219020002249019C
:10116000C00501F025FE00230393039B114A93421F
:1011700005DC039B01330393039B9342F9DD0E4B84
:101180000E4A1A60BFF34F8F0D4B0E4ADA60BFF361
:101190004F8FC046FDE7013A002AAFD1B1E7C04604
:1011A000E4710008941A0020400D03001FA10700FD
:1011B000001002403F420F00F03F0020EFBEADDEC6
:1011C00000ED00E00400FA0570B59026040001254A
:1011D000F605C2098021300001F0EAFDA2093000C5
:1011E0002A40402101F0E4FD620930002A4020211C
:1011F00001F0DEFD220930002A40102101F0D8FD67
:10120000E20830002A40082101F0D2FDA208300097
:101210002A40042101F0CCFD620830002A4002215E
:1012200001F0C6FD2A0030000121224001F0C0FD7E
:1012300070BDC046F8B54546DE4657464E460C00E2
:10124000E0B50500042946D90522C14905F09EF8FC
:10125000002800D189E0BF4F3E78002E00D088E002
:1012600021002800BC4AFFF739F8002800D0D9E057
:1012700021002800B94AFFF731F8061E00D0D1E05E
:10128000B74B1B78002B00D07FE0B64B1B78012BAF
:1012900000D1C0E0022B00D1B7E1032B00D0BCE0AD
:1012A000012C00D0B9E028782B2800D1F2E12D28BC
:1012B00000D1F0E0FFF788FF01228021AA4801F069
:1012C00077FD0122A94B1A700120F0BCBB46B24643
:1012D000A946A046F8BD9F4F3E78002EC0D0022EF2
:1012E00000D189E0012EEFD103F070F9A04BA14F9E
:1012F0001860A14B1E703B78002B00D0CEE08022FE
:101300009E4B520198461B681B19934200D899E1E5
:1013100043461E68931B9946B24200D0A4E10123C4
:101320003B70974B9C4666443619002E00D1EBE08B
:101330002900944B4944B1469846934A9348944EA9
:1013400089441388048801339B059B0D9C4208D077
:10135000454614880F78A4B22F55138033680133A3
:10136000336001318945ECD1CEE00122894B1A70FE
:10137000AAE7022EB6D10023EA5C202A01D0092A6E
:1013800064D101339C42F7D89EE7834B1B68A3428C
:1013900000D97AE78021012301228048C9009946BB
:1013A0003B7001F005FD8021002249016E4801F0EB
:1013B000FFFC4A46714B764F1E609846784B3E6064
:1013C0001E606D4B1A7000226A4B1E706E4B1E80A1
:1013D0006E4B1E80734B1A7003F0F8F8644B2200BA
:1013E00018602900704805F00FF843466F481C60EC
:1013F0003C60FFF733F867E7002900D164E7012973
:10140000B9D102780023202AB6D10022684B9A561F
:10141000684B1A7058E7042C2AD0002C00D153E7EF
:10142000287847E702230022FF213B70604B4E489B
:101430001A70604B197080215F4B49011A705F4B25
:1014400001321A70002201F0B3FC3DE79C4200D843
:101450003AE7EE18382A5CD8092A00D834E70A3A65
:10146000D2B22E2A00D92FE7554992008A589746C2
:1014700028781B2800D01DE76B785B2B00D019E77C
:10148000AB78352B00D101E1362B00D012E7EB7899
:101490007E2B00D00EE7FFF773F815E7002C00D184
:1014A000FBE08023DB029B46364BA2469946384937
:1014B000354A3648AA440B685B4513D2138807881F
:1014C00001339B059B0D9F420CD01788BFB2BC46D1
:1014D0002F786646B8464F464446BC5513800B6885
:1014E00001330B600135AA45E5D111880388994283
:1014F00000D29EE0138802889B1A9BB2314AD31A0D
:101500009BB27F2B00D9DFE601222F4B00201A70FF
:10151000DBE620239A43512A00D0D5E60122264B50
:101520001A70D1E603F052F8284B214A186033783C
:10153000313B5BB213701F4A1370C5E603F046F8E7
:10154000224B1B68C01A642800D8BDE65DE7C04680
:1015500018720008451A002020720008287200083E
:10156000080000200100002000080048431A002065
:1015700004020020000200200102002010020020CE
:1015800000F0FFFF180200201602002014020020C5
:101590000C02002026160020040000200014004841
:1015A00008020020F8010020180600203072000810
:1015B00029160020000000202716002028160020F1
:1015C000AC740008FF03000028250020F40100206F
:1015D0000233A342A2D272785B2A01D04F2A9DD156
:1015E000EB5C412B5CD0422B98D108200024324A7E
:1015F000137801335BB2D90F9842614149420B40E5
:10160000137001222D4B1A705EE6032C00D004E704
:1016100028781B2800D04DE66B785B2B02D04F2B2F
:1016200000D047E6AB78412B34D0422B00D041E6C6
:1016300031E78021C9008C461388028863449B1AD5
:101640009BB25BE7434618681D4B2200C018290077
:1016500004F0DAFE434642461B681B191360194A20
:1016600013681B1913602FE643461868144B4A464B
:10167000C018290004F0C8FE434642461B684B448C
:101680001360104A13684B44136048E6EB787E2BD6
:1016900000D00FE6FEF734FF16E60B4A0B4824E7AE
:1016A000054A1378013B59B21B0600D50821117079
:1016B0000122024B1A7007E6291600202816002086
:1016C000180600200C020020160200201402002040
:1016D000F0B5DE4657464E464546E0B5AFB002AFE0
:1016E00002F058FF2C25FFF7C1F870202B181422A8
:1016F0000021D81904F042FE8021FC4B89035A696D
:1017000080260A435A615A69F6000A4084217C18EF
:1017100022602200802112685A69C9030A435A6173
:101720005A69F3480A4088217C18226022008021EF
:1017300012685A6909030A435A615A690A408C219E
:101740007C1822602200802112685A6989020A43AB
:101750005A615A690A4090217C1822602200802137
:1017600012685A69C9020A435A615A690A409421A7
:101770007C1822602200802112685A6949030A43BA
:101780005A6198225B6900240B40B9180B600B006A
:10179000002231001B6801F00BFB0122D549D6481D
:1017A00001F006FB90200022FF21C00501F000FBA4
:1017B00084210022D048490101F0FAFA9C22CF4B43
:1017C000B9180B60A0219B467B181C607020A423D5
:1017D0002D18FA18E919CA48146001F0D7F99C22AB
:1017E000A021BD182E60A42301257A181560FA18CF
:1017F0001460A8227020B918783B0C601918C91918
:10180000BB4801F0C3F99C230222F9180A60A02109
:10181000BC4B91467A181360A4237020FA18783BC9
:1018200015601A18D119B44801F0B0F99C230422AC
:10183000F9180A60A0210320791808330D60A4323A
:10184000F9180C60B91880460860783B6D3018189C
:10185000C119A94801F09AF99C220823A021B818BF
:101860000360A94B78180360A423F8180460702063
:10187000783B1818C119A04801F088F99C22FF2074
:10188000BB18A0211860A4238246781805600C328A
:10189000F8180460B81805607020783B1818C11952
:1018A0009020C00501F072F99C221020B918086040
:1018B000A021A42378180460F81805607020783BF4
:1018C0001818C1198C4801F061F99C226023A021ED
:1018D000B8184A460360781844330460F818026068
:1018E0007020783B1818C119834801F04FF99C23E8
:1018F0005A46A021F818026070207A180833146044
:10190000FA18783B14601A18D119804801F03EF992
:101910009C238422A021F81852010260A822781882
:1019200008330560F8180460B81804607020783B2C
:101930001818C119704801F029F99C22C023B81861
:10194000A0219B000360A42378180460F8180460A9
:101950007020783B1818C119674801F017F99C22CC
:101960008023A021B8184A465B0003607818026003
:1019700042465C3BF8180831046078180260AC20DD
:10198000381804607020783B1818C1199020C005E1
:1019900001F0FCF8C0239C22A0211B01BA1813609F
:1019A000A4237A181560FA181460A8227020783BD6
:1019B000BA1815601A18D1194F4801F0E7F89C239E
:1019C0005246F9180A60A02170207A180833146072
:1019D000FA18783B14601A18D1194D4801F0D6F85E
:1019E00000220021052001F071F8052001F098F88F
:1019F00000220021062001F069F8062001F090F88D
:101A000004F09CF92C23702018180C220021C01916
:101A100004F0B4FC3F4A404B1020136080235B026B
:101A20009361C2230421FF33D3619E3B9060FF3B4F
:101A30001000156151611500D4543A615460D460AE
:101A40001462946200F07AFE9C220A23BA18136092
:101A5000A021802379185B010B60A4234146FB1869
:101A6000702219602C239B18D919280000F09CFFC4
:101A7000012231001E4801F09BF9502002F0ACFD1C
:101A8000002231001A4801F093F9244B1C70BB6509
:101A9000234B1C603B65234B1C603B66224B1C6048
:101AA0009946224B1C70FB60214B1C60FEF738FFEF
:101AB000FA239B007B677B6F5A1E7A67002BFAD153
:101AC000802100220C48C9007B6F01F071F9FA23D4
:101AD0009B003B673C6F631E3B67002CFAD1802163
:101AE0000122054849013B6F24E0C0460010024036
:101AF00000140048040C000000080048FFFF00002C
:101B000000100048000021100000111000040048DF
:101B1000000C0048481A002000240140431A00200D
:101B2000381600203416002030160020401A0020FD
:101B30003C1A002001F03CF980210022C900D44861
:101B400001F036F9D34B3120FB661C70D24B1A00E2
:101B50003B6231231370FEF745FC1021CF4801F0A2
:101B600021F9CF4B18707B66CE4BBB66187002F024
:101B70002DFDCD4B18609B46CC4B1C60FB64CC4BC1
:101B80001C70BB63CB4B1C70FB63CB4B1C70BB64EA
:101B9000CA4B1C607B60CA4B1C603B60C94B1C601D
:101BA0009A46C94B1C607B61C84B1C703B63C84B99
:101BB0007B631C70C74BFB621C80C74BBB621C80E5
:101BC000C64B1A007B6200231370C54BFB65C54BE7
:101BD0007B64C54BBB615346DA46CB4699464AE027
:101BE000991A022900D988E000220021002002F081
:101BF000A5FBFB6E1B78002B2ED15B463E6D1B6850
:101C000032689A4228D0AE23B8499B00CA58A43BF8
:101C1000D458002C20D1062000F08EFF5B46B44D36
:101C20001B6806202B6000F07BFF33683A6EB148DA
:101C300013602A681818934200D3E7E1D21A3B2AAE
:101C400000D9DCE191B204F0CFF82C683B6D1C6048
:101C50003B6A1878FEF7C6FB72B6FB6EBA6D1B784E
:101C60001278134300D1DEE062B6A34B7B651B788C
:101C7000002B00D0F4E0FB6D1B78002B00D093E12B
:101C80001021864801F08EF8BA6E1378834204D092
:101C9000107002F09BFC5346186002F097FC53460C
:101CA0001B68C01A222855D9BB6E7D6E1C782B7814
:101CB000A34213D02C70002C28D102F087FC802185
:101CC000FB6C00221860BB6B74481C70FB6B4901F5
:101CD0001C70BB6C1C7001F06BF82C78002C3DD094
:101CE000FB6E1B78022B53D0012B6DD05B461A681C
:101CF0003B6E1B689A4200D272E7032B00D978E74B
:101D0000FF239B009A4200D873E76DE702F05EFC68
:101D1000FB6C1A68BB6C1B78002B00D06CE1774B16
:101D2000801A984200D967E1FB6B1B78002B03D126
:101D3000734B984200D8BDE2FEF776FD0023BA6BE4
:101D40001370FA6B1370BA6C1370FB6E1B78002B58
:101D500000D140E17B6E1C78002CC1D102F036FC32
:101D6000FB6C1B68C01A654B984200D821E1BB6C24
:101D700001341C703221FEF7C7F98022444BD20097
:101D8000044200D025E19A62FB6E1B78022BABD196
:101D90007B6C1B78D9B2002B00D025E1594A13780F
:101DA0005BB2002B00DB3CE1574B1A78002A00D0D5
:101DB00059E27B6E1B78012B98D19620C000FEF76C
:101DC000B1FAFB6E1B788FE77B6B1B78DCB2002BC4
:101DD00000D035E13B6B1B78002B87D002F0F6FB7F
:101DE0007B691B68C01A632880D9484A7D68484EC1
:101DF0001278484B29681B78300000920022FEF7C9
:101E00009BFF3B6B1C703B682C601C604B461C604E
:101E10007B6B1C70FB6A1C80BB6A1C807B6A1C701D
:101E200004F00EF862E762B640211C4800F0BAFFE9
:101E3000394B1870002800D1F2E172B6374B18699F
:101E4000C0B2FFF7C1F901228021144800F0B0FFB1
:101E500062B662B6284B7B651B78002B00D10AE77F
:101E60006B46BB602E4B80219C46E54402AB0022B2
:101E70000A484901FB6100F09BFF0A2002F0ACFB1D
:101E80000022FB6916009846264C274D52E0C046BA
:101E900000140048451A0020441A00200008004899
:101EA0002516002024160020201600201C160020D5
:101EB0001A16002019160020181600201002002003
:101EC0000C02002008020020040200200102002071
:101ED000000200201602002014020020F801002059
:101EE000261600202716002050730008941A0020A0
:101EF0002C1600203C160020461A00200F27000058
:101F00006F170000000000202816002003000020AA
:101F10001806002002000020421A0020000C004891
:101F200078ECFFFF00040048881300000136AE4241
:101F300000D175E2FEF7C2FE236830001B041B0CC3
:101F40002360FEF7C9FD43469855FF28EED1B04601
:101F50003B2E00D866E244460026C749FD69396435
:101F6000AE223B6C92009A5885239B00D358002BDD
:101F7000FAD128003C213C3C03F036FF3C363C358E
:101F80003B2CEDD8B04500D914E2FB6E1B78002B3A
:101F900000D1FAE100237A6D1370BB689D46FB6D9A
:101FA0001B78002B00D16BE60023FA6D1370FFF74E
:101FB00099F8B24B984200D94DE1FB6EB04A1B78BC
:101FC000904200D83FE10123BA6B13708022AD4BE1
:101FD000D2009A6184E680210022AA48C90000F05C
:101FE000E7FE7B6E1C78B7E600237A6C1370FEF771
:101FF000D3FCFB6E1B7877E6FEF7CAFF9EE63C211A
:1020000003F0F2FE3B6D1C683C341FE6F1229200A7
:102010009342F4D38021C900C91A89B203F0E4FEC7
:1020200014E6FF2310781370FEF7ECFFFB6E1B78AD
:10203000022B00D058E6FEF7E3FAFB6E1B7853E65E
:102040007B6A1B78002B00D1C5E1FB6A8E4D1A8894
:10205000BB6A1B889A426AD08C4B802498465B46A8
:102060007B6553468A4E3B64FB6AB346AA46BE6A0A
:102070004D46E40299461BE02B68A34200D1C8E01C
:1020800053461B78002B0ED04B461A8833889A4251
:1020900032D34B461B8832889B1A7E4A9BB2D31A96
:1020A0009BB2FF2B36D84B461A8833889A4238D0D9
:1020B0005A4633889BB2D15C3388C9B201339B0541
:1020C0009B0D33802B68A342D6D22868431C2B601B
:1020D000FEF746FD43462A681B689A42D0D329681A
:1020E0006D48FEF7FBF980224346D20094464246F3
:1020F0001B6863441360C3E780214B46C9008C46CC
:102100001B88328863449B1A624A9BB2D31A9BB2E3
:10211000FF2BC8D903F094FE4B461A8833889A42A5
:10212000C6D17B6DA9469B463B6C55469A462B789B
:10213000002B00D09DE07B6A1B78002B00D1D5E5F9
:10214000FB6A1A88BB6A1B889A4200D0CEE502F06F
:102150003DFA7B691B68C01A632800D8C6E54F4B5F
:102160001B78002B36D04B4680221B68D2020633E8
:1021700093422FD84B464A4618685B21431C136094
:10218000FEF7EEFC4B464A4618682D21431C1360AF
:10219000FEF7E6FC4B464A4618685D21431C136077
:1021A000FEF7DEFC4B464A4618682B21431C1360A1
:1021B000FEF7D6FC4B464A4618685B21431C136069
:1021C000FEF7CEFC4B464A4618685D21431C13605F
:1021D000FEF7C6FC4B461A688023DB0219009A42C0
:1021E00000D828E12E48FEF779F92E4B1B78002BFA
:1021F00000D026E12C48FEF731F900233A6B13702A
:102200007A6B13707A6A13707A68136003F018FEA1
:102210006CE5B869FEF722F92B6801332B602FE7D4
:102220002021224800F0BEFD214B1870002800D16B
:1022300099E0FB681B78002B00D19AE072B63869F0
:1022400000F0AEFBFCE5022B00D04DE580220D4BEB
:10225000D2009A619CE596200123FA6B80001370EE
:10226000FEF760F83CE51970FEF7CAF9FB6E1B78C3
:102270003AE503F0E5FD5EE7941A00206F170000D1
:10228000B70B00000014004828250020FC010020A6
:1022900018020020FF03000038730008020000202D
:1022A0008C73000803000020147100080008004827
:1022B000411A0020BB6B1B78002B2FD19B4B9842FF
:1022C0002CD8132800D839E5FB6E1B78022B00D1DF
:1022D000B4E0012B00D1F4E0802101229448C90030
:1022E00000F066FD802100224901924800F060FD67
:1022F0000A2002F071F98021012249018D4800F085
:1023000057FD3C2002F068F9802100228848C9006E
:1023100000F04EFD8848FEF7A1F80FE5802101226C
:10232000FB6E8348C9001A7000F042FD8021002234
:102330004901804800F03CFD00237A687F48136023
:102340003A6813604A4613603A6B13707A6B1370E5
:10235000FA6A1380BA6A13807A6A1370FEF77EF8FD
:1023600003F06EFDEAE400228021724800F020FDB7
:102370007AE43C69200000F085FA0121200000F099
:10238000ADFA0123FA68137058E7FEF7C9FA802105
:102390000022C900674800F00BFD0A2002F01CF97A
:1023A0001021644800F0FEFC00283DD1012002F01D
:1023B00013F9EFE5AE23852261499B00C9589200CD
:1023C0008B58002BFCD14346991BFB6989B29819A5
:1023D00003F00AFDD9E5802500245A48FEF73EF8AF
:1023E000FEF76CFCFEF710FC5748FEF737F8574E27
:1023F0006D012000315D0134FEF7B2FBAC42F8D133
:102400004B461C6019685248FEF768F8A022514BF1
:1024100052011A6001237A6A137003F011FD14E669
:10242000B04698E50026ADE58021012241484901EA
:1024300000F0BEFCBAE74B461968D3E6FEF7ACFAEB
:102440007CE44548FEF70AF8802100223848C9009C
:1024500000F0AEFCFEF764FAFA239C229B00BA1847
:1024600013609C217B181A687918531E0B60002A90
:10247000F7D10B0080212F48C9001B6800F098FCA1
:10248000FA2380229B00BA1813608022BB181C68B4
:10249000BA18631E1360002CF7D180211300490184
:1024A000220024481B6800F083FC0A2002F094F804
:1024B000802101221F48490100F07AFCFB6E1C704C
:1024C0009BE6802100221A48C90000F071FCFEF74B
:1024D00027FAFA239B00FB67FA6F531EFB67002A5B
:1024E000FAD180211348C900FB6F00F061FCFA2388
:1024F0009B00BB67BC6F631EBB67002CFAD18021B9
:10250000220049010B48BB6F00F052FC0A2002F088
:1025100063F8802101220748490100F049FCFB6E65
:102520000E481C70FDF79AFFFFF708FCB70B000080
:102530000014004800080048D87200086C720008B7
:10254000941A0020E4720008487000081806002061
:1025500038730008FC010020F8700008C072000801
:102560007047C046012200B50F4B83B09969052022
:1025700011439961996940420A4080210092009A72
:10258000DA6949050A43DA61DB6900220B400193ED
:102590000121019B00F09AFA022000220121404211
:1025A00000F094FA03B000BD0010024010B5040022
:1025B00088B01422002102A803F0E0FE104B22682C
:1025C0009A4201D008B010BD80210E4B89009A6953
:1025D0000D480A439A619A690A4080210092009A44
:1025E0005A6909030A435A615B6901220B4001934E
:1025F000019B032302A90292039300F0C7FAE1E7CB
:102600000024014000100240000800487047C04606
:10261000FEE7C0467047C0467047C04610B501F09F
:10262000C9FF10BD10B5022000F0C8FB10BDC046A8
:1026300010B5082000F0C2FB10BDC04610B502481E
:1026400000F0ACFC10BDC046502900200C490D4ADA
:102650000300521A0C4910B50868002804D0C318AA
:10266000934206D80B6010BD0848C3180860934217
:10267000F8D903F09DFE0C23036001204042F2E7ED
:102680000004000000400020881A0020902D002047
:102690007047C046002370B5026882B0019391680C
:1026A000033304000B40012B31D09168204B1942B9
:1026B00023D1012193680B4393601E4B1E49186878
:1026C000FDF722FD0190019B002B05D0019B013BF2
:1026D0000193019B002BF9D101F078FF0126050041
:1026E00004E001F073FF401B022817D823681B6821
:1026F0001E42F6D0002002B070BD1022A36B012054
:102700001343A363E36B0F3A1343E363F3E71168E7
:102710000B42EFD1D3681B04ECD4C6E71022A36BA5
:1027200001201343A363E36B3343E363E3E7C04652
:10273000170000800C00002040420F0070B5041EFE
:1027400064D0836B002B68D0A36BDB0660D4226857
:1027500093685B075CD4A36B47490B400631FF319C
:102760000B43A363032391680B40012B5BD018211B
:10277000D3688B43A1680B43D360136961689B00E6
:102780009B080B431361D3683C490B40D360237E05
:10279000617E9B03C9030B43A07EE1680B434103A9
:1027A0000B432421615C49000B43A16A01394D1E92
:1027B000A94109030B43216902394D42694189004E
:1027C0000B43E17E01293ED0C220E169FF30814206
:1027D00002D0206A01430B43D168E56A1943D160F6
:1027E000802149058D4225D0691E062922D9D2684B
:1027F00023490A409A422CD01222A36B9343023AF7
:102800001343A363E36B0F3A1343E363012070BDEB
:102810001022A36B1343A363F8E73422C3638354EA
:10282000FFF7C4FE90E711680B42ACD1D3681B04DC
:10283000A9D49CE707215069884350615069294019
:1028400001435161D3E700280DD1802149020B4398
:10285000BAE700230322E363A36B00209343023A09
:102860001343A363D3E72025A06B2843A063E06B49
:102870000143E163A8E7C046FDFEFFFF1902FEFF2A
:10288000E7FF3F83036810B59A680400520721D41C
:102890003422815C01291DD001218154427E012A0C
:1028A00012D1A16B0C4A00201140802252000A4331
:1028B000A26334210022E26362541C321A609A68D7
:1028C00030390A439A6010BDFFF7E4FE0028FAD1C0
:1028D0002368E6E70220F6E7FEF0FFFFF8B544695B
:1028E00005000E00082C04D003680C24DB68DB070D
:1028F00041D401F06BFE07002A6813681C4204D122
:10290000731C25D113682342FCD08023A96B9B0044
:102910000B43AB63C023D1681B01194213D1AB7EBB
:10292000002B10D113681B070DD593685B072BD4C0
:102930000C2153688B435360AB6B18490B40043137
:10294000FF310B43AB632B7E002B11D00020F8BD71
:10295000002E04D001F03AFEC01BB042CCD90422B4
:10296000AB6B03201343AB6300223423EA54EEE73E
:102970000C231360EAE72022836B13438363002256
:102980003423C2540120E2E72021AB6B0B43AB633D
:10299000EB6B1F390B43EB63D5E7C046FEFEFFFF31
:1029A0000368186C7047C0460023F0B583B00193EC
:1029B0003433C25C0400C56A012A59D00122C254D2
:1029C00003689868400709D520220120A36B1343B0
:1029D000A36334230022E25403B0F0BD10267642F4
:1029E000B4460868324E4F6882408444B74227D0CC
:1029F0009E6A32439A62072D1FD980225205954262
:102A00000CD007228D68596911408D4206D0596952
:102A10009143596159692A400A435A616346022B1E
:102A200009D8244B80211A68102825D011283AD0C3
:102A300049040A431A600020CBE7002DEED1E0E7FD
:102A4000996A914399626346022BF4D8194B1B682B
:102A500010280FD01138421E9041174A40421040B2
:102A6000164A944660441840124B18600020B0E7A4
:102A70000220B1E71248F6E709040A431A60114B35
:102A800011491868FDF740FB83001B185B00019398
:102A9000019B002BCFD0019B013B0193019B002B9D
:102AA000F9D1002095E7C9030A4300201A6090E796
:102AB0000110000008270140000040FFFFFFBFFF9A
:102AC000FFFF7FFF0C00002040420F00FF22032386
:102AD00010B514000340DB009C4089010A40E44328
:102AE0009A4000280BDB0C4BC0219C4680088000DC
:102AF00060448900435823401343435010BD0F23C3
:102B0000064903408C46083B9B089B006344D969F7
:102B10000C401443DC61F1E700E100E000ED00E06F
:102B2000002805DB1F22012302409340014A136065
:102B30007047C04600E100E000280ADB1F220123A5
:102B400002409340802203498B50BFF34F8FBFF365
:102B50006F8F704700E100E08022431E5204012085
:102B600093420ED2C021074A07485360036A090600
:102B70001B021B0A0B4303620023002093600733F0
:102B80001360704710E000E000ED00E0F0B545464E
:102B9000DE4657464E46E0B50D68002385B0002D51
:102BA0007BD0794A0091924601212A0099400A403F
:102BB00091460D426DD0009F10247A681700A743FC
:102BC0005C00A446032466460197009FB440BE689B
:102BD0006746BE40B046019EE443013E012E63D9E4
:102BE0004646C16821403143C16001680C40032161
:102BF0001140B94021430160802149050A4248D073
:102C0000514601245646896903272143B161B169C0
:102C10000F2621405D4C1F40A446BF00BE400391DB
:102C200003999908890061448C68B4439026F6059D
:102C3000B04212D0564EB04200D198E0554EB0424C
:102C400000D198E0544EB04200D18CE0534EB042D7
:102C500000D194E00526BE4034438C604C46504978
:102C6000E4430968D70366D44D4F21403960796841
:102C7000970367D44A4F21407960B968D70268D476
:102C8000474F2140B960F968920269D40C40444929
:102C9000CC602A000133DA4086D105B0F0BCBB46D7
:102CA000B246A946A046F0BD86682640B346009EBF
:102CB000F668BE40B1465E464F463E438660466873
:102CC0008E4311099940314346464160C168214015
:102CD0003143C160019902290DD0016801330C40D4
:102CE00003210A4061468A40224302602A00DA40FA
:102CF00000D059E7D1E707261E40B600B1460F269F
:102D00004F46BE40DA0892008218116A0133B1437F
:102D10008846009E31694646B940314311620168D8
:102D2000019A21406446A2400A4302602A00DA4028
:102D300000D039E7B1E74E46194F31433960796821
:102D4000970397D54E46164F31437960B968D7023D
:102D500096D54E46124F3143B960F968920295D527
:102D60004C460C4393E70326BE40344375E70126E7
:102D7000BE40344371E70226BE4034436DE704266B
:102D8000BE40344369E7C0460010024000000140E5
:102D90000004004800080048000C004800100048EB
:102DA0000004014000690840431E9841C0B27047CA
:102DB000002A01D0816170478162FCE7044B10B5A5
:102DC0005A69104200D110BD5861FDF7E7FAFAE7E1
:102DD0000004014010B50C060ED507242140013136
:102DE0008C006118C900401899B2002A0DD1002347
:102DF000C1800373002010BD8C006118C9006931C7
:102E0000FF31401899B2002AF1D083600123F0E726
:102E1000BA2301219B000268C1500021083BC15424
:102E200054230120D15A0143D152D15A01300143D8
:102E3000D15200207047C0467047C046F0B5C64624
:102E400000B5040086B0002862D0324BC35CDAB211
:102E5000002B53D003222F4BE254206801F0D8FB03
:102E6000616800292FD029239C46023300220127C4
:102E7000282698460020654693009B18DB00E3183F
:102E80005F5545469A55DA860132D2B25855986355
:102E9000D86318648A42EED30022002093009B1866
:102EA000DB00E3181D006A35FF352870013D2A70EC
:102EB00081330132E870FF33D2B210352860686088
:102EC00018608A42EAD323006A461033206862CB36
:102ED00062C222CB22C2A268E368616801F0A2FB51
:102EE00024230022E2540B4B0132E254E369012B0C
:102EF0000AD0002006B080BCB846F0BDAA239B00D3
:102F0000C25403F037F8A5E72000FFF781FFF0E790
:102F10000120EFE7A902000070B5041E07D00323CB
:102F2000074E8355006802F07FF8051E02D0012588
:102F3000280070BD200003F03DF8A555F8E7C04615
:102F4000A902000070B5AA25AD00435D0400012B65
:102F50000BD001234355006801F050FB206802F0BC
:102F600075F800230020635570BD0220FCE7C046C1
:102F700070B5AA25AD00435D0400012B0BD00123E1
:102F80004355006801F044FB206802F067F8002315
:102F90000020635570BD0220FCE7C046F0B5DE4658
:102FA00057464E464546E0B5040087B0006802F03B
:102FB0005DF8000400D5C5E023689B46584602F042
:102FC00055F8400500D5A3E0206802F04FF8400412
:102FD00000D584E0206802F049F8800400D577E04D
:102FE000206802F043F8C00442D4206802F03EF8A2
:102FF00000055AD4206802F039F88022024220D01D
:1030000044202368195A9143B82219529200A15CB6
:10301000002900D06AE004254031585A284358520C
:10302000585A0435284358523F39A15454229A5AC9
:103030003C2392081340B92292002000A350FFF7CE
:10304000FBFE206802F012F8800557D4206802F0D9
:103050000DF8C00505D544222168D0488B5A03409D
:103060008B5207B0F0BCBB46B246A946A046F0BDA5
:10307000402304202268D15A8143D152D15A0430CE
:103080008143D152B8239B00E25C012A00D158E26F
:10309000200002F0F5FF44222068C149835A0B400A
:1030A000835201F0E3FF0005A4D5402208202368E5
:1030B000BC4D995A014399523C30195A2940195232
:1030C000995A403801439952200002F0C7FF91E716
:1030D00044222068B449835A0B40835281E744223A
:1030E0002068B249835A0B40835274E7200002F0F3
:1030F000B5FF206801F0BAFF8005A7D544222168FA
:10310000AB488B5A03408B52200002F08DFF9DE7A5
:103110004422AA252168A7488B5AAD0003408B5250
:10312000200002F089FF635D012B00D14CE70123F1
:10313000002663552333E6540021206801F07EFF0A
:10314000665541E744232068C35A83461BB2002BCF
:1031500000DB33E744239A46353B994653464E46B7
:103160004946C35A9AB21E40194257D10388D20623
:1031700000D4DEE09AB21B0500D529E112B2002A84
:1031800006DB03005246825A12B2002AE6DB14E73D
:103190000388894A2500134080221343038050236B
:1031A000C25A1933FF33E35C6935DB00C3189B183F
:1031B000824AFF35944663441B889B059B0DEB6157
:1031C0000ED0696900290BD0EA8801F06BFF6B69AA
:1031D000EA6920009B1800216B6102F00BFF206858
:1031E0005022815A754A0300821852182969002911
:1031F00000D18BE13E2900D9BDE101264D083140C7
:103200006D18AD02ADB2158001886D4A1140C02223
:1032100092014A406B490A430280B3E7B500421964
:10322000138899B21BB28846002B3BDB80224146B3
:1032300003000A42A6D041190A88634F3A4080270A
:103240003F023A430A802B22AF19FF00E719BA5C0C
:10325000022A00D10DE15023C35AAD199C46282300
:10326000F95C5A4FCB006344BC46C318ED0063447D
:103270001B8865192A6C9B059B0D9A4200D885E036
:10328000D21A2A64EA6B0136D218EA63B1006A6C7A
:103290008919D318C9006B64611801F093FB206889
:1032A00003006FE7138844490B4080210B431380D0
:1032B000AB19DB00E3181A007532FF321278002ACE
:1032C00000D0A9E05032815A1A006932FF321278D8
:1032D000D2005218394982188C46624412889205ED
:1032E000970D002A00D033E10027A919C9006318FF
:1032F00018008530FF3002680838D21982600268F1
:10330000D21902601A008132FF321268002A05D0F9
:103310007933FF331B68BB4200D824E1AB19DB00D3
:10332000E3186933FF332000197802F063FE206848
:103330007CE7254A002113408022120213430380B8
:103340005023C25A283BE35CDB00C3189B181F4A7A
:103350002000944663441B88E26B9B059B0D6364CD
:10336000D318E36302F054FE2422A35C2068002BF0
:1033700000D106E7216C0300002900D002E7802677
:10338000A55C3543343E8553A154FBE60023200061
:103390002B6402F03DFE2068F3E6C046FFFEFFFF0F
:1033A000FFEFFFFFFFF7FFFFFFDFFFFFFFBFFFFFA5
:1033B000FFFDFFFFFFFBFFFF8F0F00000604000073
:1033C0008FBFFFFF808000000F8FFFFF020400000F
:1033D0005023C25A1933FF33E35CAC21DB00C3181E
:1033E0009B18C04A89009446220063441B886932B6
:1033F0009B059B0DFF32D3616118D28801F052FE0C
:103400002268B949138820000B4080210B431380A8
:1034100002F0E6FD2068B4E61F0019006C37FF37A4
:1034200069313F78FF310A78022F00D1AFE0920076
:10343000934683445A46AD4F12883A40AC4F3A43C4
:103440005F463A800A78910041180988490467D597
:103450005021415AD2005218A64982188C46624423
:1034600012889205970D002A00D13DE71A007132AB
:1034700070E04246D20500D4EDE62822BA5C402135
:103480009346D20000923A6C029242460A4003925E
:1034900080224146D2010A40019240220A4200D0D5
:1034A000C5E0904A5021944684446246415A0592B0
:1034B000009A6144895A89058A0D029904928A42C8
:1034C00000D827E1039B3B642000594602F0A0FD91
:1034D000019B2068002B00D072E128220300BA5C17
:1034E000824D9200821811882940834D2943118012
:1034F0002822BA5C81499200821815880D4030213B
:103500004D407F49294389B211803BE611887D4DAA
:1035100029408025118011882D022943118073E6EE
:103520005021415AD20052186E4982188C4662448A
:1035300012889205970D002A00D1D5E61A00733241
:1035400008E0002200212000E254FFF775FC9FE50F
:103550001A006F327D33FF33FF32196812883B0047
:1035600001F0A0FDC1E66931FF312068611801F06A
:1035700029FA20685AE61F264D0931404E42714112
:103580006D1A6149AD02294389B211803CE6D10030
:103590008B46C02149008C4680214746C9010F4017
:1035A0009C446346009747461B680F425AD05021FF
:1035B000504F415A5944BB4641185944098889051E
:1035C000890D0F000091994200D94FE15B1A6146C5
:1035D0000B600DD193009C46844463464B491B8885
:1035E000194080239B014B4049490B4361460B80A6
:1035F00043465B0607D59200821813883B490B406F
:103600003B490B431380009B002B00D16DE6AB19A7
:10361000DB00E3181A007D33FF331B6871329C46D0
:10362000FF3261461288009B01F03CFD5DE6314AA5
:1036300050219446415A009A84446144895A029A1E
:103640008905890D0391914200D2BBE000235946C0
:103650003B64200002F0DCFC019B002B00D1AEE0BB
:1036600020683AE750211F4F415A5944BB46411840
:10367000594409888905890D0F000191994200D9A3
:10368000F8E05B1A61460B600DD193009C468444C0
:1036900063461E491B88194080239B014B401C49EF
:1036A0000B4361460B8043465B0607D492008218A9
:1036B00013880E490B400E490B431380019B002BCE
:1036C00000D112E6AB19DB00E3181A007D33FF339B
:1036D0001B6873329C46FF3261461288019B01F0E1
:1036E000E1FC02E6060400008F0F00008F8FFFFF51
:1036F000C08000000204000080C00000BF8FFFFFF8
:103700008080FFFFFF83FFFF0080FFFF8FBFFFFF71
:10371000808000008A1A3A6400D1D5E6019A002A16
:103720000DD15A46920094468444624612889046CF
:103730004146984A0A4098490A4361460A804C210A
:103740008C46AA19D200A21894446146097801292E
:1037500000D0CDE6D36B04999B468846C3445B46B4
:10376000D363536C916B43445364936C88468B4290
:1037700000D294E05B1A93642923FA5C002A00D0FB
:103780007DE02733C25A059B9C46009B62449C46C1
:10379000434662440092002B00D0AEE013887F497C
:1037A0000B4080211380138809020B431380AB194F
:1037B000DB00E3185A8E5946039B01F05BFC20683E
:1037C000030095E6521A3A64019A002A0DD05A462F
:1037D00092009046804442461288934659466D4A6C
:1037E0000A406D490A4341460A804C218846AA197D
:1037F000D200A218904441460978012900D077E60A
:103800000399D36B8B460193019B916B5B440293AD
:10381000D363536C5B445364936C8B4601938B422C
:1038200052D35B1A93642923FA5C002A40D12733D0
:10383000C25A009B62449C465B4662440092002B45
:1038400000D0A5E0138855490B40802113801388D0
:1038500009020B4313800023AA19D200A218128E6A
:10386000029901F007FC2068030041E6002361464D
:103870000B60AFE663460099196006E79846434639
:103880009BB20393012A92D1059A50239446C35ABE
:10389000009A63449446039A63441A8087E7002B96
:1038A0001AD162461370049B984665E7019B9B46BC
:1038B0005B469BB2012ACFD14F32825A00996244B3
:1038C0008C4662441380C7E7019B002B23D14246FC
:1038D0001370039B9B46A6E700219164624611701A
:1038E0002922BA5C002AC9D1059950328C46825AE5
:1038F000009962448C46624400923E2B2BD80122F0
:103900001A409446590861448902009A89B29BB2D0
:10391000118003934BE700214346197091642922DB
:10392000BA5C002AC2D15032825A009B62449C4643
:10393000130063440093019B3E2B17D859080123C1
:103940001A00019B1A4094466144009A890289B288
:1039500011809BB280E71F221A4011004A424A415F
:1039600059098A1A0E4992021143CEE7019B59095F
:103970001F231A00019B1A4053425341C91A8B025C
:103980000749009A19436B4689B29B88118063E707
:103990000193D0E78F8FFFFF80C00000FF83FFFF00
:1039A0000080FFFF70B5AA25AD00435D0400012B28
:1039B0000AD0012343552333C154006801F03EFB74
:1039C00000230020635570BD0220FCE770B5072579
:1039D0000D4049B20400002924DBA8004019C000B2
:1039E00001000026201869316A30FF31FF3061186C
:1039F00006700A614A780D70CB70002A00D0CD8124
:103A0000022B01D100230B71AA25AD00635D012BB0
:103A100010D001236355206800F014FE002300201D
:103A2000635570BD681C810009180120C900611828
:103A30004870DEE70220F4E707220A4049B270B579
:103A4000040000291ADB93009B18DB001900693180
:103A5000FF314118C318AA2500206A33FF331870BC
:103A6000AD000A70635D012B15D0012363552068FA
:103A700000F022FF00230020635570BD531C990005
:103A8000C918AA250123C90041184B700A70AD005E
:103A9000635D012BE9D10220EFE7C04670B5072432
:103AA00021408C006418E40005192E007D36FF3695
:103AB00032602A008132FF32136000236935693495
:103AC0005360FF35173AFF341370297001190068ED
:103AD00000F078FF002070BD07230B409900C91843
:103AE000C90040188530FF300068704770B5072462
:103AF00021408C006418E40004192500E2630122CF
:103B00004C3523642A70A364002363642933E25490
:103B1000013BE15401318B005918C900411800687C
:103B200000F050FF002070BD0723426870B50B40C5
:103B3000040093422FD84AB2002A1BDB8A00521895
:103B4000D20011006931FF314118821800206A3219
:103B5000FF321070AA2501220B708A70AD00635DE0
:103B6000012B16D06255206801F0FAF900230020DD
:103B7000635570BD5A1C910089180122C900411873
:103B80004A70AA2501220B708A70AD00635D012B7B
:103B9000E8D10220EDE70120EBE7C0460F234268A1
:103BA00070B50B400400934231D807220A4049B255
:103BB00000291BDB93009B18DB0019006931FF31E2
:103BC0004118C31800260020AA256A33FF33187055
:103BD000AD008E700A70635D012B16D00123635512
:103BE000206801F0E1F90020665570BD531C990072
:103BF000C91800260123AA25C90041184B708E70F0
:103C00000A70AD00635D012BE8D10220EDE70120D1
:103C1000EBE7C046F0B5CE46474680B503680400E2
:103C200083B0DA0330D580224E4B5205D969002784
:103C300011425DD080264C4D76002B68334265D012
:103C4000484DC0232A6A9B001000616818401A4240
:103C500011D00B4083420ED080202B6A2E6A400286
:103C600030432862286A414A414E1A403040286257
:103C70002A62DB0762D43B4A3C48136A03400B4389
:103C80001362012F54D02368DA0706D50320354983
:103C90000A6B8243A06802430A639A0706D531493A
:103CA00034480A6B0240E06802430A639A0606D56C
:103CB00010202C490A6B8243206902430A639A034D
:103CC00006D5802027490A6B8243A06902430A6314
:103CD0005B0505D4002003B0C0BCB946B046F0BDBA
:103CE0004021204A136B8B4361690B431363F1E757
:103CF0008026D9691C4D1143D961DB6976001340D8
:103D00000193019B2B680137334299D12B683343D0
:103D10002B6000F05BFC80462B68334200D08FE7BD
:103D200000F054FC4346C01A6428F5D90320D2E7BA
:103D3000D36911490B40D3612368A5E700F046FC25
:103D4000022398460D4B0600994604E000F03EFC25
:103D5000801B4845EAD842462B6A1A42F6D0616871
:103D600089E7C0460010024000700040FFFCFFFFE2
:103D7000FFFFFEFFFFFFFCFFFFFFFFEF88130000C8
:103D80008022104B120519690A431A611A690E49FB
:103D90000A401A6142680368134382681343C26889
:103DA0001343026912041A43084B5A6019684269A6
:103DB0000748120201400A4360211A601A680A4348
:103DC0001A60704700100240FFFFFFF7006C0040D0
:103DD000FFC0FFFFF0B5CE46474680B5040083B074
:103DE000002800D113E10368DA072FD50C21C5485C
:103DF00042680A40042A00D12BE142681140082998
:103E000000D11DE16368012B00D12CE1002B00D112
:103E10004EE1052B00D179E2BA4BBB491A680A4042
:103E20001A601A68B9490A401A6000F0CFFB802670
:103E30000500B44FB60205E000F0C8FB401B642843
:103E400000D933E13B683342F6D023689A0729D57D
:103E50000C22AC494868024200D1D1E048680240D7
:103E6000082A00D1C3E0E368A64D002B00D163E12E
:103E700001222B68022713432B6000F0A7FB0600EA
:103E800005E000F0A3FB801B022800D90EE12B689F
:103E90001F42F6D0F8212A6823698A43DB001343C6
:103EA0002B6023681A072DD45A0745D5802200209D
:103EB000944B5205D9698146114208D1D969114301
:103EC000D961DB6913400193019B01239946802747
:103ED0008F4E7F0033683B4200D1CBE0A368012BBB
:103EE00000D13CE1002B00D1FBE0052B00D1C9E162
:103EF0000121844B1A6A8A431A621A6A03318A437F
:103F00001A6230E1E3697F4D002B00D185E0012288
:103F10006B6A022713436B6200F058FB060005E052
:103F200000F054FB801B022800D9BFE06B6A1F42DF
:103F3000F6D023685A07B9D4DA0612D56269012A85
:103F400000D1C4E1053200D01FE10420F8256D49FD
:103F50004A6B82434A63486BA269A843D20002437A
:103F60004A639B0622D50C2266494B6813400C2BF2
:103F700000D12AE14B681A40082A00D11EE1236AC9
:103F8000604D002B00D12AE180276B6B7F023B4301
:103F90006B6300F01BFB060005E000F017FB801BC5
:103FA000022800D982E06B6B3B42F6D0636A002B9B
:103FB0001BD00C22534D69680A40082A00D16BE1DE
:103FC000022B00D126E12B68524A802613402B6039
:103FD00000F0FCFAB604040004E000F0F7FA001B5D
:103FE000022863D82B683342F7D1002010E04A68DA
:103FF000C02149020A40802109028A4200D032E7EA
:10400000404A1268920745D5E268012A42D0012051
:1040100003B0C0BCB946B046F0BD01226B6A0227AE
:1040200093436B6200F0D2FA060004E000F0CEFA8F
:10403000801B02283AD86B6A1F42F7D1236879E7C0
:10404000C021426849020A40802149028A4200D0C8
:10405000D8E62C4A1268920300D4F7E66268002A78
:1040600000D0F3E6D3E78023264A5B0211680B43B6
:104070001360DAE633683B43336000F0A7FA0500CB
:1040800004E000F0A3FA401B64280FD833683B42D9
:10409000F7D023E7F8251B4822690168D200A9431D
:1040A0000A4302601A0700D4FEE62BE70320AFE7BD
:1040B000144D154A2B68802713402B602B68134A38
:1040C000BF0213402B6000F081FA060004E000F00C
:1040D0007DFA801B6428E9D82B683B42F7D123681E
:1040E000B4E60122074E0C4D336A93433362336AC0
:1040F00003329343336200F069FA022307009846C3
:1041000011E0C04600100240FFFFFEFFFFFFFBFF73
:1041100000700040FFFFFFFE8813000000F056FA19
:10412000C01BA842C2D84246336A1A42F6D14B4657
:10413000012B68D02368FFE601222B6802279343F6
:104140002B6000F043FA060004E000F03FFA801B09
:104150000228ABD82B681F42F7D12368A2E6714929
:104160000A6A13430B6200F031FA6E4B0600984660
:1041700002276D4D04E000F029FA801BA84295D873
:1041800043461B6A1F42F6D0D1E70422654D022741
:104190006B6B13436B636B6B033A93436B6300F07E
:1041A00015FA060005E000F011FA801B022800D97C
:1041B0007CE76B6B1F42F6D12368D2E6C0224B68C6
:1041C00052021340934200D0D9E6564B5B6BDB039F
:1041D00000D4EBE6236A012B00D018E7E6E66B6B10
:1041E000524A802713406B6300F0F0F97F0206000B
:1041F00005E000F0EBF9801B022800D956E76B6B55
:104200003B42F6D1D2E6474A4949D3690B40D361D4
:10421000236891E62B68474A802713402B6000F003
:10422000D5F9BF04060005E000F0D0F9801B022894
:1042300000D93BE72B683B42F6D10F22EB6A394E9F
:104240009343226B1343EB62A16AE36A6A680B43F0
:1042500039490A4013436B6080232A685B04134387
:104260002B6000F0B3F980250400AD0405E000F0F8
:10427000ADF9001B022800D918E733682B42F6D0AD
:104280000020C5E60421274B1A6A0A431A621A6AFB
:1042900003390A431A6266E7012B00D1B7E6C02250
:1042A0006B68A16A5202E86A1A408A4200D0AEE600
:1042B0000F22216B02408A4200D0A8E6F022E06A79
:1042C00092031340181A431E9841C0B2A0E604217D
:1042D000144D02276B6B0B436B636B6B13436B6368
:1042E00000F074F9060005E000F070F9801B022868
:1042F00000D9DBE66B6B1F42F6D0F8216A6BA3692D
:104300008A43DB0013436B6323682AE68022054B54
:10431000D20219680A431A608022196852020A43BD
:104320001A6082E50010024088130000FFFFFEFFC4
:10433000FFFFFFEFFFFFFFFEFF7FC2FF70B516001C
:104340008022022388B052000292039300220323AA
:10435000049205930023802290200B4C06936369FE
:1043600092021343636163690D001340019302A934
:10437000C005019BFEF70AFC6168044B19403143FC
:104380002943616008B070BD00100240FFFFFF804C
:1043900070B588B069460A001B4B31CB31C21B682F
:1043A000136004AA1000194B70CB70C01B68184D25
:1043B00003600C206B68184008280AD00C38434270
:1043C0005841144B40421840134B9C46604408B07F
:1043D00070BD0F209C0C04400C5DE96A0840115C24
:1043E000C0228020520213404002834201D09342F7
:1043F00004D00948FBF788FE6043E8E70748FBF76D
:1044000083FE6043E3E7C046EC73000800740008D5
:1044100000100240005A620200127A00006CDC02B6
:10442000F8B5CE46474604000D0080B500280DD0F3
:1044300001233F490A681A40AA420CD20A689A43EB
:104440002A430A600A681340AB4204D00120C0BC72
:10445000B946B046F8BD23689A070ED55A0705D568
:10446000E0223449D200486802434A60F0203149D2
:104470004A688243A06802434A60DB0724D5626829
:104480002C4B012A4AD0022A44D0032A4CD01B6864
:104490009B07DBD50321274E73688B43134373605F
:1044A00000F094F80C239846234B0700994604E04B
:1044B00000F08CF8C01B484534D8434672681A4057
:1044C00063689B009A42F3D10121194A13680B409B
:1044D000AB4205D913688B43136013681942B5D1F9
:1044E00023685B0706D5134A144953680B40E168FB
:1044F0000B435360FFF74CFF0E4B114A5B681149A9
:104500001B061B0FD35CD8400860012000F01CF88C
:1045100000209CE71B689B01BCD497E71B689B03AA
:10452000B8D493E7032092E75B6BDB03B2D48DE74B
:10453000002002400010024088130000FFF8FFFF37
:10454000047C00080C00002070B50400FA200E4B1B
:1045500080001978FBF7D8FD0C4D01002868FBF7A7
:10456000D3FDFEF7F9FA00280CD10130032C00D955
:1045700070BD023800222100FEF7A8FA044B00208B
:104580001C60F5E70120F3E7100000200C0000207C
:10459000140000201021064A10B5136801200B43B7
:1045A0001360FFF7D1FFFDF7DDFF002010BDC0460F
:1045B00000200240034A044B11681B785B1813600B
:1045C0007047C0468C1A002010000020014B18686C
:1045D0007047C0468C1A002070B50400FFF7F6FF44
:1045E0000500631C02D0044B1B78E418FFF7EEFFB4
:1045F000401BA042FAD370BD1000002044230022CB
:10460000C252024A043BC2520020704780BFFFFFE3
:104610004022835A02490B40835200207047C04613
:104620007F40000084B00292039340220123835212
:1046300000238352043283520C32835201910020B2
:1046400004B07047F0B54646D6464F46C0B50C7824
:104650000500A300C3181A888A48CE780240022EAB
:1046600000D1DDE03DD8002E00D1D3E08020C00095
:10467000024300208246844F84483A4392B21A8013
:104680001A888446024022433A4392B21A800A7B37
:10469000E4002C19002A2DD1CA884F785208520004
:1046A000002F00D18BE080205021C0008046695A45
:1046B000091941440A801A88520605D561461A88AC
:1046C0000A4073490A431A80012E00D1BFE01988BD
:1046D000704A1140202251406B4A0A4392B21A801C
:1046E00043E0032E00D0AFE0C020C0000243002012
:1046F0008246C0E71A88684F024080203A431A80F9
:104700005022C000814690460F89AA5A7F0812198C
:104710004A447F00178042466048AA5A80461219D0
:104720004C8942446408640014804A78002A22D1EB
:104730001A88520405D561461A880A4058490A4326
:104740001A801A88520600D56DE01988554A514CD6
:104750001140C02292014A404B490A4392B21A804A
:104760001A882240114389B219805046E0BCBA46EB
:10477000B146A846F0BD1A88520405D561461A888C
:104780000A4047490A431A801A88520605D51A88F2
:104790003E490A403E490A431A80012E5ED01988DC
:1047A0003C4A114020225140374A0A4392B21A80B3
:1047B0001A883C490A403C490A431A80D5E75027E9
:1047C0003648EE5B84463948361966448446328062
:1047D000EA5B09691219624400292BD03E2944D8AA
:1047E00001254C0829406418A402A4B214801A8838
:1047F000520405D51A8825490A4029490A431A80D6
:104800001988284A1140C02292014A4026490A4389
:104810001A80AAE7802080000243002082462AE70F
:104820000020824627E71A8818490A4018490A4397
:104830001A808AE711881E4C21408024118011883B
:10484000240221431180D2E70120824613E71A880F
:1048500010490A4014490A431A8086E71A880D490C
:104860000A4011490A431A80A2E71F254C09294032
:104870004D426941641A0F49A402214389B2118053
:10488000B5E7C0468F89FFFF8080FFFF8F8FFFFF56
:10489000C0800000BF8FFFFF808100000404000083
:1048A00080C000008FBFFFFF808000000604000072
:1048B000FF83FFFF0080FFFF0B784A789B00097B96
:1048C000C018038800290CD1002A56D05B0600D5F9
:1048D00062E00388344A1340344A134303800020C3
:1048E0007047002A24D15B0405D50388304A134061
:1048F000304A1343038003885B0605D503882C4A9E
:1049000013402D4A134303800388294A2649134044
:10491000294A134303800388284A1340284A134333
:104920009BB2038003880B401A4392B20280D6E701
:104930005B0405D503881E4A13401E4A13430380B7
:1049400003885B0605D50388194A13401A4A1343A6
:1049500003800388164A19491340164A13430380FB
:104960000388114A1340164A13439BB203800388FD
:104970000B401A4392B20280B1E75B0405D503886D
:104980000B4A13400B4A1343038003880B4A13401E
:10499000064A13430380A2E70388054A1340064AE8
:1049A0001343038095E7C046BF8FFFFF8080000060
:1049B0008F8FFFFF80C00000C08000008FBFFFFF0F
:1049C0008080FFFFF0B5DE4657464E464546E0B5CF
:1049D0004B7802000C7B87B0012B61D0002C2FD0CC
:1049E000CC78022C00D193E10120012C51D18869AF
:1049F0000C690025A04201D9051B20008D61002B08
:104A000000D06CE15026B74B955BD3185B19B64DBF
:104A10000C78A846E4001B199044002800D1DCE182
:104A20003E2800D94BE10125470828403F18BF0226
:104A3000BFB21F80935B43441B191F800B781CE09F
:104A400088690B69984201D9C41A180050238C61F7
:104A5000A54CD55A0B781419DB0064191B190028D2
:104A600000D194E03E2800D987E101254408284080
:104A70002418A402A4B21C800B789B00D2181188C1
:104A80009A4B00201940C0239B014B4098490B438F
:104A9000138007B0F0BCBB46B246A946A046F0BDA5
:104AA0000F698869B84248D88025ED004B695519CF
:104AB000002C49D00E78B400A446F4000194CC78C0
:104AC000022C6FD094446446248887B2640600D4D4
:104AD00060E15024145B019EA046834C14194444A9
:104AE000B046444427804E890404240C01346408F1
:104AF0007619002C0BD064001C19F71A58781E7810
:104B00000002DD19304302332880A342F6D1634608
:104B100078481B88034078480343604603800B783D
:104B200000209B00D3181988744A1140302251404C
:104B3000734A0A4392B21A80ABE78025ED00380031
:104B40004B695519002CB5D1040487B2240CC888D0
:104B5000013464084019002C0FD06400C61A1C19D7
:104B600094463200260058781C7800029D18204395
:104B7000023328809E42F6D1624650235948D45AC7
:104B80000B781018DB0000191B181F80C7E7188866
:104B90005C4C204080241880188824022043188010
:104BA0000B786AE74F4E0C6AB04690444646A146E1
:104BB0000296A74200D386E1944466463688B04602
:104BC0004C4EB2464646544626404F4C2643644619
:104BD00026804C4686B2B1460604241A360CA346FB
:104BE0000C626446B4460126B046C4446646760864
:104BF000B2463D4E2488B446944466460396640605
:104C000000D401E15024019E145B6444B4464E4636
:104C1000644426804C89A4465446AC44002C22D0DF
:104C200066466400A046F61AB446059010005E463B
:104C3000984442468B461C00614680469C4604963A
:104C4000019E0397607823780002671818430234A6
:104C50003880A242F6D1049C594663464246A34698
:104C6000039F059801965C461B184B61201A5F450F
:104C700007D3A0B281462004000C013040088246D0
:104C800000200862029C5020A446105A019C6044F7
:104C9000A4464C466044048050460E89761900288C
:104CA00000D13CE74700DF19F61A58781D7800025A
:104CB0009C192843023320809F42F6D12FE71F25FD
:104CC000470928400500684268413F1A0F48BF0263
:104CD000384380B21880935B43441D1928800B78B9
:104CE000CBE6C04602040000060400008FBFFFFFB1
:104CF000808000008F8FFFFF80C00000BF8FFFFF0C
:104D00008080FFFFFF83FFFF808100000080FFFFA6
:104D1000002B1CD15033C45A9846884B0878D318BE
:104D20001B19874E0C69C0001B189619002C3DD02A
:104D30003E2C00D9F0E0012567082C403F19BF0246
:104D4000BFB21F804346D35AF3181B181F80CB698C
:104D5000002BC4D00B787B4D9800101804882C4091
:104D6000AC4202D0002C00D087E60388764C23406A
:104D7000764C234303800B787FE61F2544092840A7
:104D800045426841241A7248A402204380B2188028
:104D90000B7872E65024145B019EA046674C1419F0
:104DA0004444B046444427800E899DE6694F1C88E0
:104DB000BC463C401C801F88654C65462743BFB2FB
:104DC0001F804346D35AF3181B18188828401880B0
:104DD00018880443A4B21C80B9E75E4F1888BC460B
:104DE0006546384018801F8859480743BFB21F8066
:104DF000935B43441B191C882C401C801C88204357
:104E000080B218800B7838E6029E5024B446145BBA
:104E1000019E6444B4464E46644426800C89A446F0
:104E20005446AC44002C22D066466400A046F61AD4
:104E3000B446059010005E46984442468B461C00DE
:104E4000614680469C460496019E029760782378CE
:104E5000000267181843023438809442F6D1049C4B
:104E6000594663464246A346029F059801965C4612
:104E70001B184B61201A5F4507D3A0B2814620045E
:104E8000000C01304008824600200862039C50203C
:104E9000A446105A019C6044A4464C4660440480D9
:104EA00050464F897F19002800D138E644001C196C
:104EB000FF1A58781E780002DD193043023328802B
:104EC0009C42F6D12BE6604617183888224C2040C9
:104ED000224C20433880029C5020A446105A019C4A
:104EE0006044A4464C466044A6B2068024040F8960
:104EF000240C013464087F19002C00D10FE66400F3
:104F00001C19FF1A58781E780002DD19304302334D
:104F10002880A342F6D102E61F2567092C40250010
:104F20006C426C413F1B0A4CBF023C43A4B21C8044
:104F30004346D35AF6183618348008E702040000B6
:104F400006040000404000008F8FFFFFC08000007B
:104F50000080FFFFFF83FFFF8F8EFFFF8080000038
:104F60000B784A789B00C018002A0AD002880A4BA6
:104F70001A4010235A40094B13439BB20380002070
:104F800070470288064B1A4080235B015340054A54
:104F900013430380F3E7C046BF8FFFFF8080FFFF0E
:104FA0008FBFFFFF808000000B7B002B1AD10B7896
:104FB0004A789B00C0180388002A15D05B0605D5E7
:104FC0000388124A1340124A13430380CB78012B03
:104FD00008D002880F4B1A4020235A400E4B13432F
:104FE0009BB20380002070475B0405D50388074A05
:104FF00013400A4A134303800288094B1A40C02316
:105000009B015340074A13430380EBE78F8FFFFF59
:10501000C0800000BF8FFFFF8080FFFF80C00000C6
:105020008FBFFFFF80800000402301220021C25279
:1050300043328152413AC25200207047002902D1C6
:105040004C238022C25200207047C0465822802143
:10505000835A09020B438352002070475822835A17
:105060005B045B0C835200207047C0464423C05A47
:1050700080B2704730B58024E400A4460133624416
:105080005B088018002B0BD05A008A18451A4B7801
:105090000C781B0248192343023103808A42F6D15F
:1050A00030BDC046F0B58024E400A44662448018B8
:1050B00002005F080FD00C003D00461AA2191288AA
:1050C000013D92B22270120A62700234002DF5D1B5
:1050D0007F00C219C919DB0701D513880B70F0BD19
:1050E000AF239B00C35870B5002B0ED0AE22802595
:1050F00092008458AD00605DFF2806D0044A9B688A
:105100002100A25C9847FF236355002070BDC04674
:105110000102000043230380004870475C00002028
:105120004323038000487047A000002043230380EE
:1051300000487047180000200A2303800048704789
:105140001C01002070B5AE26B6000400855901F0A0
:1051500097F883239B00E850A359002B0AD08323A0
:105160009B00E918083BE858B833E358DB689847D8
:10517000002070BD0220FCE7F8B5AE239B00C758A5
:1051800004000D00002F1DD00833C2588B005B189F
:105190009E008619F069002806D0DB00D218916BBA
:1051A000FBF738F8002905D0852300229B00FA5030
:1051B0000020F8BDF161002300222900200001F049
:1051C00043F8F5E70220F4E7F0B5AE2383B06A4672
:1051D0009B00C6586B460500901D60220C00591DAF
:1051E000002317000B70038023781F401A421CD045
:1051F000202F06D02800210000F026FD022003B059
:10520000F0BDE2886078002A22D05BB2002B3ADA47
:10521000AF239B00EB5831009B6898473100280072
:10522000E28800F043FD0020E9E763780A2B1FD0F5
:105230000B2B16D0002BDDD1A7239B00EB5C032B9F
:10524000D8D101000222280000F030FD0020D6E76E
:10525000AF239B00EB58002221009B689847002059
:10526000CDE7A7239B00EB5C032BC3D10020C6E74F
:10527000A7239B00EB5C032BBCD10122280000F08C
:1052800015FD0020BBE780239B00F054034B310049
:105290002800F25400F020FD0020B0E701020000D9
:1052A00070B504000026812100F07EFF012120005E
:1052B000E66200F079FFB623AE255B00E65082215E
:1052C0002000AD0000F070FF63592664002B08D069
:1052D000AF239B00E3585B689847605900F0DCFF00
:1052E0006651002070BDC04670B5037C0400002BE1
:1052F0003AD18023022281219B0000F045FF012347
:10530000E36280230222012120009B0000F03CFF89
:10531000B62301255B00E550653BFF3B032282215C
:10532000200000F031FF87202564800000F0B0FFEE
:10533000AE239B00051EE0502ED00433E3581B68BB
:105340009847852200239200AB500432AB50237C57
:10535000002B17D181239B00EA5801212000043B38
:1053600000F080FF002070BD40230222812100F068
:105370000BFF01230222E362012120003F3300F0F2
:1053800003FFC5E781239B00EA58C53B01212000AC
:10539000FF3B00F067FFE5E70120E4E7002904D0C8
:1053A000AF239B00C150002070470220FCE7C0469D
:1053B000AE239B00C35882208000195084218900AD
:1053C00000205A507047C046AE239B00C258B43BE1
:1053D0000020D1507047C046AE239B00C25810B584
:1053E0000400002A14D0A43BD1580120002900D089
:1053F00010BD8221D050043BD358890052588839BF
:10540000236320009BB2FF3900F01EFF0020EFE76E
:105410000220EDE7AE239B00C35810B5002B11D03E
:10542000812292009A58037C002B06D1802301210F
:105430009B0000F017FF002010BD4023012100F069
:1054400011FFF8E70220F7E710B5002814D0AD23CC
:105450009B00C458002C01D00024C450002902D065
:10546000AC239B00C150A72301219B00C1540270B3
:1054700000F01CFE002010BD0220FCE7A723012243
:1054800010B504009B00C2541833C35801795B68FF
:105490009847200000F06AFE200000F04BFE00203C
:1054A00010BDC046002904D0AD239B00C150002090
:1054B00070470220FCE7C04610B500F049FE00200E
:1054C00010BDC046AD2310B504009B00C358017940
:1054D0005B689847200000F049FE002010BDC046E0
:1054E000AD239B00C35810B5002B05D01B6898470F
:1054F000431E9841400010BD0220FCE7AD2310B5CB
:105500009B00C3585B689847002010BDAA239B00EE
:1055100070B5C5180400280000F082FBA523012205
:105520009B00E250114BE25A163BE2501033E15C13
:105530001F230B40012B0ED0022B07D0002B0FD1C5
:105540002900200000F022F9002070BD2900200071
:1055500000F0BEFAF8E72900200000F08BFAF3E72C
:105560007F232000994300F02DFEEDE7AE020000FE
:1055700010B513000400002908D1A520800022588E
:10558000032A13D0052A23D000200EE0AD239B0070
:10559000C3589B69002B07D0A7229200825C032A84
:1055A00002D19847002000E0022010BD20005530B5
:1055B000FF30C1680269914211D9891AC1608A42DB
:1055C0001DD892B21900200000F098FB0020ECE7F3
:1055D00021500021200000F0F5FD0020E5E7AD237B
:1055E0009B00E3581B69002B04D0A7229200A25C09
:1055F000032A06D0200000F089FB0020D5E78AB2FC
:10560000E0E720009847F5E7F8B50400130000290B
:1056100011D1A52292008258022A1ED004239A4357
:1056200002D1802100F0CEFDA8239B00E25C012A7C
:1056300010D00020F8BDAD239B00C3585B69002B40
:1056400006D0A7229200825C032A01D19847F0E796
:105650000220EFE70022E254EBE7026A456AAA4221
:1056600027D8C76929003800FAF7D4FD0E1E0DD1DE
:10567000BD420BD8A625AD0063599F4206D2002239
:105680000021200000F020FB665118E0AD239B00B4
:10569000E358DB68002B04D0A7229200A25C032A07
:1056A00014D08021200000F08DFD200000F03AFB96
:1056B000BAE7521B0262190092B200F005FB002308
:1056C00000220021200000F0CDFDADE7200098472A
:1056D000E7E7C04670B5402300220021040000F037
:1056E00053FDAC23012540265B00E5500C33E6500A
:1056F000253B0022FF3B8021200000F045FDA72331
:10570000A5229B00A5616662E55400239200A35088
:1057100010326360A350AE239B00E358002B06D0E9
:10572000AD239B00E358002120005B6898470020D0
:1057300070BDC046017400207047C046A7239B007F
:10574000C15C034A81540422C25400207047C04601
:105750009D020000A7239B00C25C042A02D1024ADA
:10576000825CC254002070479D020000A72310B540
:105770009B00C35C032B01D0002010BDAD239B0018
:10578000C358DB69002BF7D09847F5E760230A7808
:1057900070B513400D001900C0222039040082B0FA
:1057A000114213D0002B0AD08021200000F00AFD06
:1057B0000021200000F006FD002002B070BD6B78D3
:1057C000092BF1D8A64A9B00D3589F46AD239B00D6
:1057D000C35829009B689847EEE7AB78A14D2B7022
:1057E000012BE1D8A7218900425C022A00D11AE1ED
:1057F000032A00D105E1802100F0E4FC0021200013
:1058000000F0E0FC20002978FFF778FED4E7A7231A
:105810009B00C35C013B022BC6D8EB88022BC3D193
:10582000A9239B00C35801005A42534101225B4205
:1058300093430333C3600C31013200F037FABBE706
:10584000A7239B00C35C013B022BADD86B88012BC7
:10585000B2D1A92300229B00C250200000F056FACA
:10586000AAE76B88012BA7D1A9229200835000F0F0
:105870004DFAA1E7AB88002B00D095E7EB88002B11
:1058800000D091E76D887F2D00D98DE7A726B6005F
:10589000825D032A00D187E7734BEDB22900C5541E
:1058A00000F0C4FC200000F031FA002D00D1D4E05B
:1058B0000223A35580E700236A46D3806A88130A2F
:1058C000072B00D970E769499B00CB589F46EB88AE
:1058D000012B00D068E7A7239B00C35C022B00D9F3
:1058E00087E0002B00D15FE70023010001228360E5
:1058F000083100F0DBF95FE7037C002B00D053E7B1
:10590000AD236A469B00C358901D1B6B9847072325
:1059100043706B46DA88EB88002A0DD0002B9CD0B0
:10592000111C9A4200D9191C6B468AB2D980010019
:10593000200000F0BBF9EB88002B00D03CE78CE79F
:10594000037C002B00D02FE7AD236A469B00C35891
:10595000901D5B6B9847DCE7D2B2052A00D923E79C
:10596000434B92009B589F46AD23027C9B00C3583B
:10597000002A66D19B6A6A46901D984702234370AD
:10598000C7E7AC236A469B00E358911D1B68007C67
:105990009847BEE7AC239B00C3585B69002B00D13E
:1059A00002E76A46207C911D9847B2E7AC239B0032
:1059B000C3581B69002BF4D1F6E6AC239B00C358F7
:1059C000DB68002BEDD1EFE6AC239B00C3589B684E
:1059D000002BE6D1E8E6AC239B00C3585B68002BA4
:1059E000DFD1E1E6AC239B00C3589B69002BD8D1E3
:1059F000DAE6032B00D0D7E60122011D00F056F9AC
:105A0000DAE6002B1FD04168012900D125E7C9B291
:105A1000FFF774FD297820006160FFF761FD02281F
:105A200000D01AE7C0E6002B00D116E7012343603F
:105A3000023343540121FFF753FD022800D00CE745
:105A4000B2E6DB6A97E70222425400214360FFF787
:105A500055FD200000F05AF9AEE60123A355ABE650
:105A6000147C0008901A00209E0200003C7C000874
:105A70005C7C000860220B7870B51A4004000D00B1
:105A80005B060BD5402A09D08021200000F09AFB4C
:105A90000021200000F096FB002070BDA7239B0092
:105AA000E35C013B022BEFD82B79012BECD8AD2323
:105AB0009B00E35829009B6820009847EB88002B47
:105AC000EAD10028E8D1200000F020F9E4E7C04640
:105AD00060230A7870B513401C00C022203C0500EA
