:020000040800F2
:1000000000400020A1060008555000085950000883
:1000100000000000000000000000000000000000E0
:100020000000000000000000000000005D5000081B
:10003000000000000000000061500008655000084A
:100040004907000849070008490700084907000850
:10005000490700086D50000879500008490700085A
:100060004907000849070008490700084907000830
:100070004907000849070008490700084907000820
:100080004907000849070008490700084907000810
:100090004907000849070008490700084907000800
:1000A00049070008490700084907000849070008F0
:1000B0004907000849070008490700085D51000882
:1000C00010B5064C2378002B07D1054B002B02D02E
:1000D000044800E000BF0123237010BDE0010020B0
:1000E00000000000A09B0008044B10B5002B03D0BB
:1000F0000349044800E000BF10BDC04600000000F6
:10010000E4010020A09B0008002243088B4274D326
:1001100003098B425FD3030A8B4244D3030B8B4208
:1001200028D3030C8B420DD3FF22090212BA030C11
:100130008B4202D31212090265D0030B8B4219D3F2
:1001400000E0090AC30B8B4201D3CB03C01A524112
:10015000830B8B4201D38B03C01A5241430B8B425A
:1001600001D34B03C01A5241030B8B4201D30B0343
:10017000C01A5241C30A8B4201D3CB02C01A52416A
:10018000830A8B4201D38B02C01A5241430A8B422D
:1001900001D34B02C01A5241030A8B4201D30B0216
:1001A000C01A5241CDD2C3098B4201D3CB01C01A30
:1001B000524183098B4201D38B01C01A524143093A
:1001C0008B4201D34B01C01A524103098B4201D328
:1001D0000B01C01A5241C3088B4201D3CB00C01A95
:1001E000524183088B4201D38B00C01A524143080D
:1001F0008B4201D34B00C01A5241411A00D2014632
:10020000524110467047FFE701B5002000F0F0F8BA
:1002100002BDC0460029F7D076E7704703460B437E
:100220007FD4002243088B4274D303098B425FD3EF
:10023000030A8B4244D3030B8B4228D3030C8B421B
:100240000DD3FF22090212BA030C8B4202D3121201
:10025000090265D0030B8B4219D300E0090AC30BD6
:100260008B4201D3CB03C01A5241830B8B4201D383
:100270008B03C01A5241430B8B4201D34B03C01A6C
:100280005241030B8B4201D30B03C01A5241C30AE4
:100290008B4201D3CB02C01A5241830A8B4201D355
:1002A0008B02C01A5241430A8B4201D34B02C01A3F
:1002B0005241030A8B4201D30B02C01A5241CDD2E4
:1002C000C3098B4201D3CB01C01A524183098B422F
:1002D00001D38B01C01A524143098B4201D34B0118
:1002E000C01A524103098B4201D30B01C01A52417B
:1002F000C3088B4201D3CB00C01A524183088B4202
:1003000001D38B00C01A524143088B4201D34B00EA
:10031000C01A5241411A00D201465241104670475C
:100320005DE0CA0F00D04942031000D34042534061
:1003300000229C4603098B422DD3030A8B4212D321
:10034000FC22890112BA030A8B420CD38901921153
:100350008B4208D3890192118B4204D389013AD090
:10036000921100E08909C3098B4201D3CB01C01A65
:10037000524183098B4201D38B01C01A5241430978
:100380008B4201D34B01C01A524103098B4201D366
:100390000B01C01A5241C3088B4201D3CB00C01AD3
:1003A000524183088B4201D38B00C01A5241D9D2EB
:1003B00043088B4201D34B00C01A5241411A00D26C
:1003C0000146634652415B10104601D34042002B68
:1003D00000D54942704763465B1000D3404201B5E7
:1003E000002000F005F802BD0029F8D016E770479C
:1003F0007047C046002B11D1002A0FD1002900D12F
:10040000002802D00021C943080007B4024802A115
:100410004018029003BDC046D9FFFFFF03B46846F1
:1004200001B5029800F034F8019B9E4602B00CBC66
:100430007047C046F0B5CE469946030C9C4613045F
:1004400047461B0C1D000E0061460404240C80B5B9
:100450000700100C4B436543414360432C0CC0180C
:1004600024188C46A34203D980235B029846C444D7
:10047000494679435643230C2D042D0C89196344B6
:1004800024046019C918C0BCB946B046F0BDC046C6
:10049000F0B557464E464546DE46E0B504000D0031
:1004A0009246994683B08B4230D82DD0494650466B
:1004B00000F0BAF829000600200000F0B5F8331A61
:1004C0009846203B34D49B4653465A469340424676
:1004D0001F00534693401E00AF423BD8AF4200D1AD
:1004E00079E05B46A41BBD41002B00DA76E00022D8
:1004F00000230092019301235A4693400193012364
:1005000042469340009329E08242CFD90022002343
:10051000009201930C9B002B01D01C605D60009841
:10052000019903B0F0BCBB46B246A946A046F0BD57
:1005300042469B4620239B1A5246DA40414613000E
:100540004A468A40170042461F43534693401E00C6
:10055000AF42C3D900220023009201934346002BEF
:10056000D8D0FB0772081A4346467B080EE0AB4220
:1005700001D1A2420CD8A41A9D41012024196D4139
:100580000021013E24184D41002E06D0AB42EED989
:10059000013E24196D41002EF8D1009801995B4667
:1005A00000196941002B24DB2B005A464446D340F6
:1005B0002A00E2401C005B461500002B2ADB2600C7
:1005C0009E40330026004746BE403200801A9941C3
:1005D000009001919EE7A342BCD882E742462023C7
:1005E00000219B1A0022009101920122DA4001921F
:1005F00085E7424620239B1A2A0046469A4023005C
:10060000F340444613432A00E2401C005B461500B9
:10061000002BD4DA42462F002023260097409B1A55
:10062000DE403B003343CDE710B5002903D100F095
:1006300007F8203002E0080000F002F810BDC046C4
:100640001C2101231B04984201D3000C10391B0A02
:10065000984201D3000A08391B09984201D30009C6
:10066000043902A2105C40187047C046040302021D
:100670000101010100000000000000000023C25C35
:100680000133002AFBD1581E7047000003B47146A5
:10069000490840004900095E49008E4403BC704788
:1006A0001E4885461E4801681E4A914212D100210B
:1006B00001601D4801680122114301601B48016867
:1006C00003229143012211430160194801688D46BC
:1006D000416808471448016801221143016013482A
:1006E000016803229143016012481349134A002311
:1006F00002E0D458C4500433C4188C42F9D3104AD1
:10070000104C002301E013600432A242FBD304F03A
:100710004FFD08F0D7FD02F0D3FDFEE700400020BA
:10072000F03F0020EFBEADDE181002400000014097
:1007300000C8FF1F00000020E0010020E8B9000809
:10074000E00100203C2E0020FEE70000F8B5070085
:1007500010000C001600FFF791FFA04216D80028E9
:1007600016D0002402E00134A04211D0395D335D7F
:100770000A00613A192A01D82039C9B21D00613D29
:10078000192D01D8203BDBB29942ECD00020F8BDF6
:100790000120FCE770B5040006F07AFE2100FFF7A7
:1007A00039FD0B0061088B421FD25801C01A80002E
:1007B000C018C000FFF7A8FC114B5C68002C00D1EA
:1007C000104CFA210E4B890040439D68FFF79CFCBA
:1007D000FA2160438900FFF797FC80220A4B641BD3
:1007E000D200A0420AD99A6170BDE41A6001001BD0
:1007F00080000019C000FFF787FCDDE79A62F3E78D
:1008000010E000E080BB00000014004810B5022892
:1008100000D010BD00228021034805F02BFA0022F1
:10082000024B1A70F5E7C04600080048D31A0020B2
:10083000F0B5C64600B586B0182836D90F223D4B14
:100840000F241A70002303930133FF3301933A4FAF
:10085000FD3B01ADEB600121384A90201368C005D3
:100860008B4313600022364B29001A7002232A6141
:100870006B6005F059F8A3001B199B00FB181A695F
:10088000304B1A60304A1278002A4DD119681A6824
:10089000E023DB051A40F0231B050020194006F079
:1008A000AFFC06B080BCB846F0BD8600224F3618BB
:1008B000B600BE19337A040098461E4B10221870F9
:1008C000002102A808F0CAFC80235B0001AD01935F
:1008D000FD3BEB604346002BBDD0002200210020F1
:1008E00006F08EFC0022174B90201A60022329008C
:1008F000C0056B602B6105F017F801210F4B1A68DA
:100900008A431A6072899A62B289DA62013252109D
:100910005A630B4A596111700B4A1278002AC0D1F0
:100920001A680A431A60BCE700220021002006F082
:1009300067FCB6E7D41A002040B70008002C01403D
:10094000B7160020BC160020B6160020F0B5D6461B
:100950004F464646C0B58046FFF790FE071E20D0A2
:10096000184B85269A46AE239B00994653464A4625
:1009700000249B58B6003D1B402D1FD8A9B2124839
:100980009A59002A16D14346181908F08FF9534690
:100990004A460D499B589A59002A07D16419A74223
:1009A000E9D8E0BCBA46B146A846F0BD01390029F5
:1009B000F1D1F3E701380028E2D1E4E740254021F6
:1009C000DDE7C046481B0020400D03000FB400B512
:1009D000A3B024AB04CB802102A8019308F024FC2F
:1009E00002A8FFF7B3FF23B008BC04B01847C04605
:1009F00000B5104B8FB01A78182A18D893000E49FA
:100A00009B189B005B58182168460C4A08F0A8FB0D
:100A10006B460B4A202106A808F0A2FB094806A94C
:100A2000FFF7D4FF1222084B1A700FB000BD074B1E
:100A3000E9E7C046D41A002040B70008089C000827
:100A4000149C00081C9C000844020020009C000824
:100A500000B5164B83B01878172801D903B000BD34
:100A60000130C0B2FFF7E4FE0122114B1A7006F00C
:100A70000FFD104B1860FFF7BBFF802101220E48CD
:100A8000C90005F0F7F800230193019B0B4A93423C
:100A900005DC019B01330193019B9342F9DD802129
:100AA00000220548C90005F0E5F8D7E7D41A002070
:100AB000AC160020A8160020001400485FEA0000D1
:100AC00000B5164B83B01878002801D103B000BDE3
:100AD0000138C0B2FFF7ACFE0122114B1A7006F0CC
:100AE000D7FC104B1860FFF783FF802101220E48CE
:100AF000C90005F0BFF800230193019B0B4A934204
:100B000005DC019B01330193019B9342F9DD8021B8
:100B100000220548C90005F0ADF8D7E7D41A002037
:100B2000AC160020A8160020001400485FEA000060
:100B3000012370B50C4E00243370002301200B4DAF
:100B40000B4A2B7001331178012903D10124411C78
:100B50002B54C8B20133DBB22032402BF3D1002C2E
:100B600000D0307070BDC04600020020040200209A
:100B700020C000080020054B05491A78012A01D140
:100B80009A69801820338B42F7D1704720C0000843
:100B900000C80008F0B58DB004F012FE0023342226
:100BA000012600930193174C174B02940396694654
:100BB000DA6001A804F07AFD051E05D004F014FEE9
:100BC000FFF7B6FF0DB0F0BD11200F220F4904AFA3
:100BD00068443E7008F09CFB80235B0008930C4B3C
:100BE0000C4E0A930C4B09950C4D0B936E4421004F
:100BF000325900230220043404F034FEAC42F6D112
:100C0000DCE7C04600C0000800200240309C00081D
:100C10007D0600001040FFF70101C0BF20C00008A2
:100C2000F0B54546DE4657464E46E0B53F4C0025FA
:100C30003F4B4048A54402E02033834212D01A784B
:100C4000012AF9D16E1C14AA6D0154192200190051
:100C5000B0C9B0C2B0C9B0C2203330C930C2F5B2D9
:100C60008342ECD104F0ACFD002334220126009332
:100C70000193314C314B029403966946DA6001A826
:100C800004F014FD804600280BD004F0ADFDFFF702
:100C90004FFF2B4B9D44F0BCBB46B246A946A04635
:100CA000F0BD112004AF0F22264968443E7008F0C1
:100CB0002FFB80235B00089343460993224B234E6E
:100CC0000A93234B1A4F0B936E4421003259002391
:100CD0000220043404F0C6FDBC42F6D1002DD4D06D
:100CE00014AB99460CAB9A465B429B464F46534623
:100CF0004A4613CA13C313CA13C354460C4E03CA3D
:100D000003C35E442268311900230220043404F036
:100D1000A9FDA742F6D143460133DBB29846202312
:100D20009C46E144E3444545E1D1AEE7ACF7FFFF23
:100D300020C0000800C8000800C0000800200240D1
:100D400054080000309C00087D0600001040FFF7AA
:100D50000101C0BF0C4B10B59C464401644423788C
:100D6000012B00D010BD04F02BFD3422074B2100D5
:100D7000DA6001200022002304F074FD04F034FD49
:100D8000FFF74EFFEEE7C04600C00008002002401B
:100D90001D4B10B5DA691D4B9A4230D11C4B1D49D1
:100DA00002E020338B422DD01A78FF2AF9D01A782E
:100DB000012AF6D001240020154B164904E0002832
:100DC0000ED120338B4206D01A78FF2AF7D1203378
:100DD00001208B42F8D1002C0ED1FFF7A9FE10E0C4
:100DE0001A78012A08D020338B42F4D01A78FF2ACF
:100DF000E7D01A78012AF6D1FFF712FF01E0FFF7DA
:100E0000C9FE10BD0024D6E700C000080101C0BF24
:100E100020C0000800C8000810B500240F4B0021B6
:100E20001C600F4B10220F481C7008F017FA0322A9
:100E30000D4B0E481C700E4B1A70FFF787FD0D4CC2
:100E40002000FFF783FD0C48FFF780FD2000FFF72F
:100E50007DFD0A48FFF77AFD10BDC04688160020C8
:100E60008C16002090160020A0160020409C000840
:100E7000D51A00204C9C0008849C0008BC9C0008EB
:100E8000F0B5D64646464F462A4BC0B598468CB07C
:100E90006D461800FFF75AFD2748FFF757FD4046FB
:100EA000FFF754FD2548FFF751FD4046FFF74EFD83
:100EB000234B2A00190051C951C251C951C21833DC
:100EC000160013CB13C213CB13C200231D4FFB56C6
:100ED000052B01DD05233B701B4A002491461B4A6C
:100EE000924608E048460134FFF770FD0435062CB1
:100EF0000DD00023FB56A2002968B258A342F1D1BD
:100F000050460134FFF762FD0435062CF1D140460E
:100F1000FFF71CFD0E48FFF719FD4046FFF716FDD1
:100F20000C48FFF713FD0CB0E0BCBA46B146A8462A
:100F3000F0BDC0464C9C0008F89C0008309D00089D
:100F4000B89B0008A3160020889D0008689D000833
:100F5000A09D0008D89D0008F0B5DE4657464E46D5
:100F600045468A4BE0B59A46180087B0FFF7EEFC7D
:100F70008748FFF7EBFC5046FFF7E8FC8548FFF792
:100F8000E5FC5046FFF7E2FC834B01931B78002BF6
:100F900000D1C9E00C270C230022804EB256BA4281
:100FA00001DB013B33707E4B002498467D4B02AD44
:100FB00099467D4B00969B460B2C00D9A8E04246F3
:100FC000A300D3589F46019B1B78002B00D0AEE0B6
:100FD0002A00764B43CB43C21B7875491370009BA4
:100FE0002A001B785BB2A3422DD04846FFF7EEFCE7
:100FF0000134BC42E0D15046FFF7A8FC6D48FFF732
:10100000A5FC5046FFF7A2FC6B48FFF79FFC07B01A
:10101000F0BCBB46B246A946A046F0BD674B1B7864
:10102000012B00D1A7E0022B00D1A8E0644B1021D6
:10103000644A280008F094F8009B2A001B78624953
:101040005BB2A342D1D15846FFF7C0FCD0E7019B69
:101050001B78002B79D15D4B10212800594A08F0EC
:101060007FF85B49BBE75B4B1B78012B79D0022BE8
:1010700000D188E0032B00D183E0574B72E0574B3F
:101080001B78002B65D1514B102128004D4A08F0E8
:1010900067F85349A3E7534B1B78002B57D14B4BB1
:1010A00010212800474A08F05BF84F4997E74F4B5B
:1010B000197818295DD88B004D4A5B189B009B5806
:1010C000102128003F4A08F04BF84A4987E74A4B6D
:1010D0001B78002B43D1404B10212800474A08F0D1
:1010E0003FF847497BE7474B1B78002B35D1374BFF
:1010F00010212800334A08F033F843496FE7434B87
:10110000102128001B68424A08F02AF8414966E786
:10111000414B1B78002B1ED12C4B10212800294A53
:1011200008F01EF83D495AE70A270A2334E73C4BEA
:101130001B78052B21D83B4A9B009B581021280087
:10114000204A08F00DF8384949E7384B84E7374B17
:10115000A6E7364B98E7354BDFE7344BC8E7344B0F
:10116000BAE7344B10212800164A07F0F9FF32493C
:1011700035E7324BA4E7324B59E7324BDEE7324BCF
:1011800055E7324BEEE7324BECE7C0464C9C00088B
:10119000B09F0008E89F0008B6160020A3160020A4
:1011A00028AF000878A0000858A0000848A0000850
:1011B000789F0008A09D0008D89D0008B516002063
:1011C000489E000820A00008949F0008089E000880
:1011D0005C9F0008080000201C9E000806000020FC
:1011E000249F0008B4160020089F0008D41A00208D
:1011F00040B70008EC9E0008090000203CA0000851
:10120000D09E00080A000020B49E00080C000020B8
:101210002CA00008989E0008100000207C9E00086A
:1012200007000020A8B00008609E0008009E00088B
:10123000149E0008249E0008409F0008009C00089F
:10124000549E00083C9E0008589E0008349E0008EA
:101250002C9E0008F0B54E46DE4645465746E0B5A2
:101260009FB0FFF765FC624B624A98461B78914637
:1012700012789E1CF6B252B2B24202DB4A460133E9
:1012800013705D4D2800FFF761FB5C48FFF75EFBC4
:101290002800FFF75BFB5A48FFF758FB2800FFF7D1
:1012A00055FB002E4FD0574B00249A46564B9B4679
:1012B000564B0493564B05935B46AB460393350060
:1012C00029E0544B1F5D002F64D0534A534B944682
:1012D00080227F01FB189B696744D200934200D3B0
:1012E0007EE006AE102130004D4A07F039FF4B4634
:1012F0001B785BB2A3425DD04A4A2300502101967D
:1013000000970AA807F02CFF50460AA90134FFF7FE
:101310005DFBA54216DD43461B78A342D1DC4A465D
:10132000127852B2A34247D094424DD0342203994E
:101330000AA807F0EDFF013450460AA9FFF746FB63
:10134000A542E8DC5D462800FFF700FB0022364B93
:1013500036481978012901D19969521820338342FE
:10136000F7D19305990D1B0D5B18414609785B0A6F
:10137000920A01392E48FFF729FB2800FFF7E6FA09
:101380002C48FFF7E3FA1FB0F0BCBB46B246A946B3
:10139000A046F0BD06210120274F06AE03000091B4
:1013A00030001021254A07F0DBFE4B461B785BB26C
:1013B000A342A1D1224AA0E794420BD0342205993E
:1013C0000AA807F0A5FF9FE73C2204990AA807F0A6
:1013D0009FFF99E73C221B490AA807F099FF93E772
:1013E0009905980A8B0D090DC918490AD5E7C04619
:1013F00000020020A31600204C9C000890A00008CA
:10140000C8A00008E8A6000800A20008C4A10008BF
:1014100090A100080402002001C0000800C00008DC
:1014200000A1000838A1000820C0000800C800087A
:1014300034A2000870A20008309C000808A100082F
:1014400014A1000854A1000810B50A48FFF77EFA5D
:10145000094B1B78002B04D0012B08D0022B03D0A2
:1014600010BDFFF70DFDFBE7FFF7F4FEF8E7FFF710
:1014700073FDF5E7409C0008A4160020F0B5DE4699
:1014800057464E464546E0B5484A494B116885B037
:10149000994231D00F239B460E3B9A460133994621
:1014A00000230127012601250024002001219C465C
:1014B000103301935A463F4B1A7052463E4B1F70F1
:1014C0003E4B1E703E4B1D703E4B1A704A463E4BC3
:1014D0001C703E4B1A7062463D4B1A703D4B019A90
:1014E00018703D4B19703D4B1A6005B0F0BCBB46FF
:1014F000B246A946A046F0BD137957799B46137AA8
:1015000096799A46937AD5799946D37A547A9C46B5
:10151000137B02931369517B01930198244B8046FE
:101520000298434480465B44DB199B195B19534482
:101530001B194B4463444344884652694344039116
:101540009A42A7D15B46182B01D90F239B467B1EDD
:101550009F41731E9E416B1E9D415346FFB2F6B2E2
:10156000EDB2032B01D901239A46631E9C414B46E1
:10157000E4B2052B01D902239946614602220023D9
:101580008A425B416246029803995B421A40431EBD
:1015900098414B1E9941019B9446043BC0B2C9B28D
:1015A0003C2B00D886E71023019383E700F801085D
:1015B000032C07BFD41A0020100000200A000020CE
:1015C0000900002008000020B616002007000020B7
:1015D000B5160020B4160020060000200C000020E4
:1015E000F0B557464E464546DE461E230022E0B57E
:1015F0008BB06B441A80374B364C0493364BA34662
:101600001B789A46354B1B789946354B1B78984684
:101610004246344B11041B7852469C46324B1F788D
:10162000324B1E78324B1D78324B18784B461B02DA
:10163000134362460B4312061343059333022904F6
:101640003B4302060B43134306932B4B19786B461F
:1016500019772A4B1A786B465A77294B1B680893DF
:101660005B4453444B4443446344DB199B195B196B
:101670001B18244D5B189B182800182204A90993F5
:1016800007F0DEFD002806D10BB0F0BCBB46B24629
:10169000A946A046F0BD04F093F8002369460093E4
:1016A000019301A801330295039303F0FFFF002883
:1016B0000CD1154E2C00154D6E44210032590023DB
:1016C0000220043404F0CEF8AC42F6D104F08CF8D9
:1016D000DAE7C046032C07BFD41A00201000002010
:1016E0000A0000200900002008000020B616002093
:1016F00007000020B5160020B416002006000020C8
:101700000C00002000F801081008FEF718F8010886
:1017100002220B4B10B51A700023FF21094A0A4818
:1017200013700A4A13700A4A11700A4A7F391370FB
:101730000122094B49011A70002204F09BFA10BDE6
:10174000D51A0020A416002000080048A316002087
:1017500005000020A1160020A216002010B5A0B0A0
:101760003022002114A807F079FD1022002102A8E0
:1017700007F074FD1C2200210CA807F06FFD182251
:10178000002106A807F06AFD32231024139313A842
:10179000313B16931B9318931794199405F07CFA18
:1017A000072300240121029302A8043B039304941D
:1017B000059405F097FD80230CA89B020C931294CE
:1017C00005F08AF98022A0210020D205C90405F085
:1017D00017FD80210C4B0905DA6906A80A43DA6176
:1017E000DB6922220B400193019B80239B05079319
:1017F000064B06940993202308940A920B9305F054
:1018000021FA20B010BDC046001002407FBB00008E
:1018100030B587B014220021684607F01FFD8021F3
:10182000154D01222800C90004F024FA8021280067
:101830000122090104F01EFAFF2200240023694658
:1018400012020E4800920193029404F06DF8C02237
:10185000002369462800920000920193029404F04C
:1018600063F80023064A69460648009201930294F1
:1018700004F05AF807B030BD0008004800040048E2
:10188000FFFF00000010004830B583B0FFF7A8FE4E
:1018900080250022364B374C1A70ED00364B200065
:1018A00029001A6004F0E6F9A562344C2278182A5F
:1018B00053D8930032499B189B0059583148FFF781
:1018C00085F8314B1B78002B10D0304B1B78012B47
:1018D0004CD0022B43D12E492E4B1B78052B43D8DD
:1018E0002D4A9B009A582D48FFF770F8FFF790FF9C
:1018F000FA239B000193019B5A1E0192002BFAD1FF
:10190000802100222648C900019B04F0B3F9FA2384
:101910009B000093009B5A1E0092002BFAD1207866
:10192000009BFEF785FF8021002249011C4804F03E
:10193000A1F90A2005F0B2FD802580210D4CED00B3
:1019400001221748490104F095F9002229002000DE
:1019500004F090F9A56203B030BD1249AEE70D4B1B
:1019600011491B78052BBBD9104ABCE71049B3E7D6
:10197000D51A002000140048B0160020D41A002008
:1019800040B70008A8A20008B6160020B51600202F
:10199000589E000807000020A8B00008E4A2000834
:1019A00000080048009C0008489E00083C9E000873
:1019B000549E000870B50D00012680211B4A0304C7
:1019C0001B0C82B05361020C0400324018484900DD
:1019D00004F050F98021620C15483240890004F06F
:1019E00049F9FF21134B2D025A691148114029432F
:1019F000596180210022090104F03CF90A23019376
:101A0000019B5A1E0192002BFAD180210122084825
:101A10000901019B04F02EF90A230093009B5A1E32
:101A20000092002BFAD1009B02B070BD001000485C
:101A3000000800480004004830B5802101251D4AF7
:101A400003041B0C85B05361020C04002A401A48A1
:101A5000490004F00FF98021620C17482A408900E0
:101A600004F008F90A230393039B5A1E0392002BE8
:101A7000FAD1802100221048C900039B04F0FAF833
:101A80000A230293029B5A1E0292002BFAD16A4645
:101A90008021029B094BD41D1B6907481B0ADBB23E
:101AA000D371C900012204F0E5F82078C0B205B076
:101AB00030BDC0460010004800080048000400483F
:101AC000F8B50E0005004027224C234A2368AA21BE
:101AD0001B041B0C134323602048FFF76BFF5521A9
:101AE0001F48FFF767FFA0211C48FFF763FF310085
:101AF0002800FFF75FFF23681A4E1B041B0C2360AE
:101B00002800FFF799FF04002800FFF795FF4440E5
:101B100027420FD0013E002EF2D12800FFF78CFFA4
:101B200004002800FFF788FF604007420FD001261D
:101B30007642E5E72800FFF77FFF04002800FFF763
:101B40007BFF4440274202D0013E002ED8D1002026
:101B5000F8BDC0460004004800005555555500002A
:101B6000AA2A000050C3000070B54026264C274A20
:101B70002368AA211B041B0C134323602448FFF78E
:101B800019FF55212348FFF715FF80212048FFF753
:101B900011FFAA211E48FFF70DFF55211D48FFF731
:101BA00009FF10211A48FFF705FF23681A4D1B048F
:101BB0001B0C23600A20FFF73FFF04000A20FFF7F9
:101BC0003BFF444026420FD0013D002DF2D10A20B8
:101BD000FFF732FF04000A20FFF72EFF60400642A5
:101BE0000FD001256D42E5E70A20FFF725FF04002D
:101BF0000A20FFF721FF4440264202D0013D002D7C
:101C0000D8D1002070BDC0460004004800005555E2
:101C100055550000AA2A0000404B4C00D0B586B0B4
:101C200014220021684607F019FB8021154C01227F
:101C30002000C90004F01EF88021200001220901C3
:101C400004F018F8C022012300260127694620006D
:101C50009200009201930296039703F065FE012320
:101C6000094A69460948009201930296039703F0D6
:101C70005BFE0749074A0B681B041B0C13430B60F0
:101C800006B0D0BD00080048FFFF0000001000486B
:101C90000004004800005555F0B5DE4657464E4654
:101CA0004546E0B5CFB08B4603900492002901D1A0
:101CB000002081E10123D14A05E00133DBB220326B
:101CC000402B00D18BE11178FF29F6D15BB205934F
:101CD00000250320C94BCA4902E020338B420DD0B6
:101CE0001A78012AF9D15A699C6912190332824380
:101CF0009542F2D2203315008B42F1D15B469822F7
:101D00005B195202934200D8C3E00020BB4BBC4990
:101D10001A78012A01D19A69801820338B42F7D1B1
:101D2000982358445B029842C2D8B648FEF70EFE8C
:101D3000802300259B029A46B34B0FACA94601268F
:101D400025000193029403E001360435402E34D07F
:101D5000AE4B7201D7183B78012BF5D1AC49BB696A
:101D60008C46019862443100FEF730FE4B46A44A8F
:101D70002B6090467B6900249844FFF74FFFBB69B6
:101D8000002B0FD02B004546B04656469A46295D9B
:101D90003019FFF795FEBB690134A342F7D85546C9
:101DA000B24646460322BB6901369A44BB690435F4
:101DB000033393439944402ECAD19648029CFEF7C0
:101DC000C5FD03F0FDFC0023002209938C4B09A9FB
:101DD0000A920B9326230AA80C9303F067FC4EABE0
:101DE000984680239B024D4601935B46834F0695A0
:101DF000079303E004342037444540D03B78012B5F
:101E0000F8D1FFF705FD802100228348C90003F0C7
:101E100031FF7B4A236891469944BB690022002B1D
:101E200023D07E4BA2469B464B46B94617000293F1
:101E30003D00002400264B469B69FF209D4200D2B6
:101E4000F4E0A040083406430135202CF3D1029B76
:101E50003200D9190220002303F004FD4B469B6990
:101E60000437BB42E4D84F465446019ABB699446B6
:101E70009C4463460434019320374445BED1079BFC
:101E8000069D9B4603F0B0FC6548FEF75FFDFEF73C
:101E9000C7FE5B4B634C9A46AA4453465C446419A4
:101EA000DB0AE40ADB02E402E41AE40A994603F0DE
:101EB00087FC002C00D1C6E08027E402A0462B005E
:101EC0003F014F44B84445463E00494698460EAC53
:101ED0000B0002E004339E420CD01A680132F9D0A4
:101EE00000230A932360013361602000A3600AA9E4
:101EF00003F0DCFB80231B019C4666443900B5429D
:101F000001D06744E4E74546FFF782FC80210022C8
:101F10004148C90003F0AEFE002398463F4B0195AF
:101F2000994623005C469B46464600250027FF2035
:101F3000A64248D3A840083507430136202DF6D1E4
:101F40005146002341443A00022003F08BFC042355
:101F50009C46E04400264445E6D85B46A3461C0068
:101F60000123237008AB9C4619200F22604403997B
:101F7000019D07F08CF9049B342263745B46A361D6
:101F8000294B267466826561E661DA60059B16AEB0
:101F90005D011E4B2D1B9C466544226829190023B8
:101FA0000220043403F05EFCA642F6D103F01CFCD0
:101FB000FEF7BEFD6B46187D4FB0F0BCBB46B24687
:101FC000A946A046F0BDFFF729FE4B464A461B68CE
:101FD00030001B041B0C1360FFF72EFDAAE7FEF771
:101FE0001FFE0123054A05E00133DBB22032402BFE
:101FF00000D15DE61178FF29F6D167E620C0000820
:1020000000C8000818A300085CA3000800C000086E
:1020100001C0000888A30008000800480004004828
:10202000A4A30008FFCF000800200240FFF7F6FD40
:102030005B465A461B681B041B0C1360019BE81887
:10204000FFF7FAFCFDE60EAC5EE7C046F0B54E4683
:102050004546DE465746E0B587B01C0010AB1B78FE
:102060000E008046111E019300D1F4E032007E483C
:10207000FEF7ACFC802100227C48490103F0FAFD08
:1020800080210122C9007A4803F0F4FD7948FEF767
:102090005DFCFFF7C3FDFFF767FD7748FEF756FCD1
:1020A00004AB9A465146754B1A6804929A888A8006
:1020B0009B798B71002C2DD08023B51DDB029D42B6
:1020C00000D977E0092D28D90A212800FEF71CF84D
:1020D000814653469B1B9B46694B64270093330004
:1020E00000244E46994610E04346195D2000013415
:1020F000FFF7E6FC31002000FEF78CF8002960D0E5
:10210000AC426DD06437AC4268D2A145ECD85B4696
:10211000195DEBE73500092DD6D8002D00D09FE0E2
:102120005848FEF713FC5848FEF710FC5748FEF7D6
:102130000DFC019B0125002B00D188E05448FEF7DF
:1021400005FC802100224A48C90003F093FDFFF7F7
:102150005FFBFA239B000393039B5A1E0392002B01
:10216000FAD1802100224148C900039B03F082FD7F
:10217000FA239B000293029C631E0293002CFAD167
:102180008021002249013948029B03F073FD0A2097
:1021900005F084F9802101223448490103F06AFDE9
:1021A0003C4B1C70280007B0F0BCBB46B246A946A9
:1021B000A046F0BD0A213000FDF7A6FF350081469C
:1021C00087E729003800FDF79FFF2B000100220060
:1021D0000098FEF7FBFB6437AC4296D34E460BE00B
:1021E00029003800FDF790FF254C01002B002A0044
:1021F00020004E46FEF7EAFB2248FEF7A7FB5346B7
:102200009B1B00249A460AE0434620001F5DFFF70F
:1022100013FC87420CD10134AC4200D183E7A642C3
:10222000F2D8534620001F5DFFF706FC8742F2D02C
:10223000194D03003A0028002100FEF7C7FB1348A0
:10224000FEF784FB019B0025002B00D076E71348A6
:10225000FEF77CFBA6E731001148FEF7B7FB09E764
:102260000123994635E7C046E8A300080008004866
:102270000014004824A4000834A40008149E000898
:102280003CA4000864A40008B0A40008B8A4000896
:10229000E4A40008D51A002078A4000800A50008CE
:1022A00008A4000800B5104883B0FEF74FFB0123D7
:1022B0000E4A00930E4900230E48FFF7C7FE002385
:1022C0000D4A13700D4A13600D4A13600D4A1360D6
:1022D0000D4A13700D4A13800D4A138000220D4BD6
:1022E0001A7003B000BDC04630A5000860A5000804
:1022F0007D060000C0B000084D02002060020020F2
:102300005C020020540200204C02002066020020E3
:10231000640200204502002010B582B0002809D0D8
:102320003F2805D80E4B4001C3181A78012A06D061
:1023300002B010BDFFF7B6FFFFF7A6FAF8E7094AAB
:10234000996982185C690848084B2018084C1B786A
:1023500024780094FFF77AFEFFF796FAE8E7C04684
:1023600000C0000801C0000800C8000809000020E3
:102370000A00002010B52E488AB0FEF7E7FAAE2317
:1023800085212C4C9B00E0582B4A89004358002B98
:1023900049D100230193019B284A934205DC019B0C
:1023A00001330193019B9342F9DD200005F0ECFF1E
:1023B000200005F0C5FF8021214B89025A6906A83B
:1023C0000A435A615B690C220B4002930021029B75
:1023D00006F044FF802290200123520104A9C00589
:1023E0000492059303F0A0FA802190200022490175
:1023F000C00503F03FFC00230393039B114A934263
:1024000005DC039B01330393039B9342F9DD0E4BE1
:102410000E4A1A60BFF34F8F0D4B0E4ADA60BFF3BE
:102420004F8FC046FDE7013A002AAFD1B1E7C04661
:1024300078A50008481B0020400D03001FA10700DD
:10244000001002403F420F00F03F0020EFBEADDE23
:1024500000ED00E00400FA0570B5724D04002B7821
:10246000002B05D1052807D86F4B84001B599F46C8
:10247000012B02D0022B27D070BD0B28FCD86B4B50
:1024800084001B599F46FEF7F9FFFFF7FDF9F3E7BC
:10249000022300222B70664B1A70664B01321A70B1
:1024A000EAE700210122624B2A701970614B1A7011
:1024B000E2E76148FEF74AFAFFF7F4FEDCE7FFF7D0
:1024C0008FF8FFF7E1F9D7E7FEF732FB5B4B1B789C
:1024D000A3420AD876D00023554A2B7013700122EC
:1024E000544B1A70C8E7FFF745FF554B185DFFF7CF
:1024F00013FFC1E7534A137859424B411370BBE7AE
:10250000514A137800296EDD032101330B4013700B
:10251000B2E74E4A137859424B411370ACE74C4A2C
:10252000137859424B411370A6E74A4C2078002992
:1025300053DD03210130FDF757FF21709CE7414B2C
:102540001B78002B10D0444C2078002964DD062134
:102550000130FDF749FF21708EE7404A1378594258
:102560004B41137088E7002301222B70304B1A7007
:10257000304B1A7080E73A4B1878002925DD192175
:102580000130FDF731FFC8B2FEF752F974E7354A62
:10259000137859424B4113706EE7334A137859420E
:1025A0004B41137068E7314A1368002920DD042B82
:1025B00029D0082B2DD0102B28D0202B20D004235D
:1025C000136059E7FEF728FC56E719211830FDF78C
:1025D0000BFFC8B2FEF72CF94EE703210230FDF7DE
:1025E00003FF217048E7032103330B40137043E7D7
:1025F000402B0BD0202B0CD0102B04D0082BDED07E
:102600004023136038E70823136035E72023136065
:1026100032E7102313602FE706210530FDF7E4FEB3
:10262000217029E7A416002058AF000870AF0008F9
:10263000A3160020A2160020ACA50008000200206E
:1026400004020020B616002008000020060000202A
:10265000B4160020B516002007000020100000204E
:10266000D41A0020090000200A0000200C000020DD
:1026700070B5902604000125F605C20980213000BE
:1026800003F0F8FAA20930002A40402103F0F2FAE0
:10269000620930002A40202103F0ECFA22093000C0
:1026A0002A40102103F0E6FAE20830002A4008210F
:1026B00003F0E0FAA20830002A40042103F0DAFA1D
:1026C000620830002A40022103F0D4FA2A003000C8
:1026D0000121224003F0CEFA70BDC046F0B5574646
:1026E0004546DE464E46E0B507000D0095B004298C
:1026F00006D90522B74906F0B9FD002800D170E0DF
:1027000029003800B44AFEF721F800285DD12900DD
:102710003800B24AFEF71AF8002856D129003800CE
:10272000AF4AFEF713F800285FD129003800AD4A00
:10273000FEF70CF8061E58D1AB4C23789846002BB8
:1027400000D08DE0A94B1B78002B65D0A84B1B68EF
:10275000AB4261D8A74B1B78002B00D184E2002D3F
:1027600036D002239946A44B7E1E380000219C4699
:102770000127A046761903783E2B16D82A2B1BD9A1
:102780001A0065462B3AD2B2D5402F4214D004AA83
:102790004D1C5354864200D1B7E20130402D00D188
:1027A00010E2037829003E2BE8D91A004C465B3A28
:1027B000A243D2B2002AEAD0864200D140E20130E0
:1027C000D9E720229343432B02D101228B4B1A706D
:1027D0000126300015B0F0BCBB46B246A946A04663
:1027E000F0BD0122864B1A70F2E702227E4BFF21D8
:1027F0001A700023834A84481370844A1370844AF1
:102800001170844A802113700122834B49011A7090
:10281000002203F02FFADBE7804B1B78012B68D0F6
:10282000022B00D136E1032B00D190E17C4B1B78C9
:10283000002B07D07B4B1B78002B00D03FE1012DF4
:1028400000D1F0E1002DC3D03878FFF711FF01224D
:1028500080216D4803F00EFA0122734B1A70B7E71E
:10286000022B00D1EEE0032B58D0012BB0D104F0A5
:102870000FFE42466D4B18606D4B1A706D4A13681F
:102880005B1913605B4B1B78002B00D1F7E1002D27
:102890009ED002239946584B7C1E380000219C464E
:1028A0000127B046641903783E2B16D82A2B1BD972
:1028B0001A0065462B3AD2B2D5402F4214D004AA52
:1028C0004D1C5354844200D1C7E30130402D00D148
:1028D00056E2037829003E2BE8D91A004D465B3AB0
:1028E000AA43D2B2002AEAD0844200D13AE30130AE
:1028F000D9E7042D9AD138781B28A6D17B785B2B99
:10290000A3D1BB78352B01D100F029FC362B9CD10B
:10291000FB787E2B99D1FEF7D3F859E7464E3378F2
:10292000002B00D0EFE0002D00D151E7434A7B1986
:10293000914600229046083292464A4638000025C9
:102940003F4902960394019221E07F2A2BD0140084
:10295000203C5E2C17D80C78A4460E2C13D80124EA
:1029600066466444E4B2A1460C70344CA255A346BA
:102970000024A4464E465C466746A7553F2D02D824
:1029800004AC625501350130834200D1A1E20278E6
:102990001B2A00D18CE20D2A00D159E10A2A00D16C
:1029A00056E1082AD1D10A78002AECD04446019E8B
:1029B000013AD2B20A70B454EA1C3F2AE3D8564610
:1029C00004ACA4466655202465446C70AE701500B6
:1029D000D9E7C046D4A50008DCA50008E4A5000896
:1029E000ECA50008F4A50008D51A0020100000206E
:1029F0000C000020B41600200F000A0075160020FD
:102A000076160020A416002000080048A316002017
:102A100005000020A1160020A216002008000020BA
:102A2000B6160020B5160020D31A00205002002050
:102A30004D02002058020020A01600209016002011
:102A40008C160020002D00D1C2E6B14C2378002B5B
:102A500000D1D8E1012B00D133E20621022B00D1B5
:102A600060E23B78012D0AD00023FA5C202A02D0D4
:102A7000092A00D083E001339D42F6D1A8E6202B3D
:102A8000F2D10022A34B9A56A34B1A700122A34BFA
:102A90001A709DE6032D00D0C8E638781B2800D0B8
:102AA000D3E67B785B2B02D04F2B00D0CDE6BB78F2
:102AB000412B00D158E3422B00D0C6E62BE7012B77
:102AC00000D1B5E0022B00D0BCE6012D00D0B9E664
:102AD00038780D2802D00A2800D0B6E604A90A00EA
:102AE0008F4B31CB31C231CB31C28E4B64201B783E
:102AF000052B01D89B00585872B68B4A13681B18D7
:102B0000136062B664E63378022B00D145E2337875
:102B1000062B00D194E13378032B00D1EBE133781D
:102B2000042B00D054E6002D00D151E63B78202B39
:102B300009D000D945E60D2B05D01B2B00D144E66A
:102B40000A2B00D044E60122784B1A7040E6012D92
:102B500000D077E638782B2800D105E32D2800D166
:102B6000D9E6734B1B78002B00D16EE6714B1B78B6
:102B7000002B59D0012B5FD0022BAAD065E6AB42C7
:102B800000D325E6FE181B2A00D146E12578002D4A
:102B900000D075E11300313B042B00D8CFE2302A7E
:102BA00000D1DBE1202311009943512900D1D5E167
:102BB0000D2A00D154E20A2A00D151E2202A00D085
:102BC00006E65EE7444690468021012701225A48E6
:102BD000C900277003F04EF88021002249015748B0
:102BE00003F048F80023564C564E574A2360336092
:102BF0001360564A1770564A1370564A1380564A45
:102C000013800022554B1A7004F042FC544B2A00EA
:102C100018604146534806F07BFB534825603560F9
:102C2000FDF794FED4E53878202800D00DE655E76E
:102C3000012D00D006E63878092800D005E64DE7DA
:102C40004446002900D1C3E504AB0D009846BBE71C
:102C5000464D029E2878002800D173E1444C0023A1
:102C6000235401333370B3E5402D00D9402504AB24
:102C70002A0039001800984606F04AFBA4E7344BB6
:102C800099461B78002B00D183E0002D00D153E240
:102C90008023DB029C463049364B002098468B4609
:102CA000284C2C4A029601972368634515D2594651
:102CB00013880E8801339B059B0D9E420DD016880C
:102CC0000199B6B2B1460E5C4F46B24646465146F1
:102CD000F155138023680133236001308542E3D826
:102CE0005946029E10880B88984200D221E1128832
:102CF0000B88D21A92B2204B9B1A9BB27F2B00D921
:102D000066E501221D4B1A7063E54446290098E7E9
:102D1000A4160020A31600200500002004000020B7
:102D2000E89B000807000020B0160020771600205E
:102D3000B6160020B5160020001400480008004810
:102D4000600200205C020020540200204D0200209E
:102D50004C02002066020020640200204502002090
:102D60005002002068060020FCA500088C160020F8
:102D70009016002068020020FF030000DC250020E0
:102D800046469046C74B474699461B78002B00D0D5
:102D90007EE78022C44B52019A461B685B1993421E
:102DA00000D8E7E053461C68131B9846A24200D0A7
:102DB000B0E101234A461370BC4B9C46644464193D
:102DC000002C9ED043463C19B949F818B94FB44677
:102DD0008A46B946B84AB94D4444514613880E88CC
:102DE00001339B059B0D9E4208D049461688077803
:102DF000B6B28F5513802B6801332B6001308442AB
:102E0000EBD166467DE73B78012D01D006212BE60C
:102E1000202B00D135E6062126E60233AB4206D24E
:102E200072785B2A00D125E14F2A00D122E1237874
:102E3000013B012B00D8E9E00122A14B1A70C7E445
:102E4000002D00D1C4E4002220200EE0302B0FD052
:102E50001900814351290BD0190031390132082959
:102E600000D89BE1AA4200D1B2E4BB5C1B2BEDD1A0
:102E70000223944A237013700122934B1A70A7E423
:102E8000012D00D1C6E0022D00D091E61300303BA9
:102E9000D9B2412900D98BE68C48890041588F4628
:102EA0008B4ADBB212789A4200D891E4894AE2E771
:102EB0000223039C834A237013700122824B1A70F1
:102EC00086E4854A11784A425141494299430C317E
:102ED000C7E5002D00D17BE4AE22804B92009A58CA
:102EE00085239B00D358002B00D071E4A9B204A81D
:102EF00005F0DCFE6CE4002D00D169E43B784E2B3C
:102F000000D143E100D833E16E2B00D13EE1202215
:102F10009343592B00D05BE40122714B1A70714B23
:102F20001A7055E4FDF704FE694B19780231C9B2F5
:102F300097E512880B888021C9008C466244D21A1A
:102F400092B2D8E6684C10226849200006F09FF93A
:102F50002000FDF793FBC0B2287080E605225D4B90
:102F60001A7091E54646002900D131E404AB0D000A
:102F7000984607E7534618685D4B2A00C018390089
:102F800006F0C6F9534652461B685B1913604B4A5C
:102F900013685B191360FFF71BFC04F079FA554BBB
:102FA000554A186013685B191360002D01D1FFF7B3
:102FB0000FFC8023DB0298460223504E9946504C6A
:102FC0007D1904E00137BD4201D1FFF701FC3378E0
:102FD0003978002B0AD03E2910D82A29F2D90A00C4
:102FE000484B2B3AD2B2D340DB07EBD520684045A3
:102FF000E8D2431C2360FEF763FDE3E70B004A467B
:103000005B3B9343DBB2002BDCD1EFE70023314A7B
:10301000237030E71300313B082B00D8D0E02E4B53
:103020001B78002B08D0202311009943412900D19F
:10303000D5E0422900D11AE1302A05D02023110021
:103040009943512900D0B3E5002301222370214B7D
:103050001A701D4B1A70FFF7BBFB4646290082E72A
:1030600004F016FA284B1B68C01A642801D8FFF731
:10307000AFFB06E5FB5C412B00D1C2E0422B00D147
:10308000B6E0432B00D1FCE4442B00D0CFE6002275
:10309000104B9A561D4B1A70FF221D4B1A70FFF7EA
:1030A00097FBC0464C0200206002002000F0FFFFAA
:1030B0006402002068020020660200205C020020FA
:1030C000A1160020A4160020A2160020A0AF000820
:1030D00000020020A3160020B6160020481B002086
:1030E00078160020791600209016002038A60008D7
:1030F00068060020801600208416002006000020AC
:10310000881600200F000A00FC01002005000020A6
:103110000400002053461868574B4246C018390037
:1031200006F0F6F8534652461B6843441360534A70
:103130001368434413603CE6514A5249D2E504F017
:10314000A7F9514B514A18603378313B5BB2137089
:103150004F4A137001224F4B1A70FFF739FBFB786F
:103160007E2B01D0FFF771FBFDF772FCFFF730FB00
:103170000A3BDBB2162B01D9FFF72AFB464ADA409D
:103180001300DB0700D5C7E6FFF722FB0022434B05
:103190001A70434B01321A70FFF71AFB303BDBB257
:1031A000AA4208D2BA5C303AD2B2092A03D80A211C
:1031B0004B439B18DBB23B4A5BB21370FFF708FB33
:1031C00004F066F9304B314A18603378313B5BB21A
:1031D00013702F4A13702F4B1D70FFF7F9FA092255
:1031E0002A4B1A702A4B1A702A4B1D70FFF7F0FAFF
:1031F000264A137801335BB28B4200DA3BE60023A8
:1032000039E6224A1378013B58B21B0601D5481E05
:1032100040B210700122244B1A70FFF7D9FA1B4BF1
:10322000224A1B7812785BB2934201DBFFF7D0FA97
:103230001F4AD35C002B01D1FFF7CAFA1D4A5BB2CB
:103240001370FFF7C5FA01221B4B1A70FFF7C0FA83
:103250000E4B164A1B7812785BB2934201DBFFF7E4
:10326000B7FA134AD256154B1A70FFF7B1FA0A2271
:10327000064B1A70FFF708FC680600205C0200206D
:103280006602002064020020FC010020A31600203A
:1032900005000020040000200900400078160020EE
:1032A0007916002001000020A21600200002002054
:1032B00004020020030000207A16002002000020F3
:1032C000F0B5DE4657464E464546E0B50126BBB052
:1032D00002AF04F0C1F80321FD4DFE4AAB698946F7
:1032E0003343AB61AB6900243340BB67BB6F1368EA
:1032F0008B431360FEF732FA782054231B181422F4
:103300000021D81905F0AAFF80226B6992031343AC
:103310006B616B69F0481340A822B9180B600B0071
:1033200080221B686B69D20313436B616B69134086
:10333000AC22B9180B600B0080221B686B6912036A
:1033400013436B616B691340B022B9180B600B001B
:1033500080221B686B69920213436B616B69924612
:103360001340B422B9180B600B0080221B686B69F4
:10337000D20213436B616B691340B822B9180B601A
:103380000B0080221B686B69520313436B616B69EE
:103390001340BC22B9188022D20090460B600B006B
:1033A000002241461B6802F065FC0122CB49CC4853
:1033B00002F060FC90200022FF21C00502F05AFCC0
:1033C00084210022C648490102F054FCCC23C54A9E
:1033D000F9180A60D0217A181460D4227820783B3A
:1033E000BA1814601A18D119BF4802F09DFACC23FC
:1033F0004046FA181060D021D4227918BA180E600D
:103400001460D8227820B918783B0C601918C919B3
:10341000B14802F089FACC230222F9180A60D021BF
:10342000B2487918086083467820D232B918783BC0
:103430000E601918C919AA4802F076FACC230420A4
:10344000F9180860D021083379180E60D822F918CD
:103450000C604946B81801607820803B1918C919DA
:103460009F4802F061FACC220823B9180B60594634
:103470000432B81801607820CC33F918803B0C6016
:103480001918C919964802F04FFACC23FF21D4220B
:10349000F81801602F3978180660B81804320460F3
:1034A000B81806607820783B1818C1199020C0051C
:1034B00002F03AFACC231020F9180860D021834694
:1034C000083378180460F81806607820803B1818D4
:1034D000C119834802F028FACC226023D021B81801
:1034E0000360781874330460CA3AF81802607820D0
:1034F000803B1818C1197A4802F016FACC23794992
:10350000F8180160D021D42278180460B81804603B
:103510007820783B1818C119754802F005FACC23B9
:103520008421F81849010160D02108337818066019
:10353000D822F81804607820803BBA1814601A1852
:10354000D119674802F0F0F9CC22C023B818D02175
:103550009B000360D42378180460F8180460782076
:10356000803B1818C1195E4802F0DEF9CC22802396
:10357000D021B8185B000360CA3A781802604A4646
:103580002C3BF81808310460781802607820D93292
:10359000803BBA1814601A189020D2191100C00587
:1035A00002F0C2F9C023CC22D0211B01BA1813604B
:1035B000D42378207A18083116607918FA18803BDD
:1035C00014600E601918CA191100454802F0ACF9D0
:1035D000CC23FF21FA181160D0220833BA18FB1847
:1035E000146078201C6054231A18D119414802F045
:1035F0009BF900220021052001F0F8FF052002F0D0
:103600001FF800220021062001F0F0FF062002F042
:1036100017F852466B695C2013436B616B6900219C
:103620001340FB67FB6F7823C0180C22C01905F00C
:1036300015FECC2180227B1852011A607820542379
:103640001B189020043192467A181660D919C005CB
:1036500002F06AF9902000225146C00502F00AFBF0
:10366000642003F01BFF90205146C00502F068FA69
:1036700005F0C6FA782048231B180C220021D8191F
:1036800005F0ECFD1C4A1D4B0420136080235B02F7
:103690009361C2235946FF33D3619E3B5061FF3B88
:1036A000100093469160D454BA605460D46016619F
:1036B0001462946201F0D2FDC0210A2379180B60D4
:1036C0005146BA33FB181960C8234946FB1817E066
:1036D000001002400000014000140048040C0000EB
:1036E00000080048FFFF0000001000480000211003
:1036F00000040048000C0048D81A002000240140B3
:103700007822196048239B18D919584601F0DCFE2D
:103710008022AB6912011343AB61AB69D4481340FB
:10372000C022B9180B600B00E0221B68D14BFF329E
:103730001C609A62783AFF3ADE625E639A61802288
:1037400012021E625A64802241461A607F3A02F0D9
:1037500091FA502003F0A2FE00224146C44802F034
:1037600089FAC54B1C707B65C44B1C609A46C44BE0
:103770001C603B63C34B1C609B46C34B1C707B604F
:10378000C24B1C60FEF744F8FA238C229B00BA1847
:1037900013608C217B181B6879185A1E0A60002B55
:1037A000F7D10B0080210022B948C9001B6802F044
:1037B00061FAFA2388229B00BA1813608822BB188A
:1037C0001C68BA18631E1360002CF7D18021130007
:1037D000AF48012249011B6802F04CFA8021002207
:1037E000C900A34802F046FAAA4B7B671C70FDF79C
:1037F00045FEFDF7CDFAA84B18787B64FDF718F865
:103800001021A34802F030FAA44BA54A3B6518707A
:10381000434258417A66107003F03AFEA14BA24A27
:1038200018609C46A14B3A611C60FB63A04B1C7066
:10383000BB61A04B1C707B619F4B1C70FB629F4B5C
:103840001C60FB609E4B1C603B609E4B1C601460C8
:103850009D4A1470BA639D4A3A6414709C4A7A6215
:1038600014809C4A14803A629B4A11007A630022B9
:103870000A709A4AFA651278002A00D0F1E1984A53
:103880006146FA66974AF9643A67974AFB613A6675
:10389000964ABA655A46D3469246FB6E1B78002B71
:1038A00000D0B3E210217A4802F0DEF93B6D1C78BB
:1038B000844200D173E2187003F0EAFDFB6C1860DB
:1038C0007B6E1B78002B00D07AE27B6F1B78022B7B
:1038D00000D13AE2032B00D1F2E1012B00D1CEE17D
:1038E0003B6F1B78002B21D053461A685B461B6840
:1038F0009A4200D2D9E153465A461B6812689B1A75
:103900009BB280229200934210D200233A6F137030
:10391000774B1A78774B1B78002A00D177E3002B7E
:1039200004D1544A013311680B4313607B6F1B7839
:10393000002B00D09AE15B461A6853461B689A42F6
:1039400040D0AE236C499B00CA58A43BD358002BEF
:1039500038D1524615685A46396B1268674C0A606E
:103960002278D6B2002A00D15DE35A466448126834
:10397000825C0D2A03D00A2A01D000F039FE5C4D8A
:103980002B78002B01D100F074FE0121394A136815
:103990008B4313605B48FCF7D9FF564B1B78002B19
:1039A00009D12B78002B01D101F001F80123314A14
:1039B00011680B431360002323703B6F1B78002BAF
:1039C00000D04EE372B67B6F7A6D1B78127813438A
:1039D00000D1A1E262B63B6E1B78002B00D0B7E2AB
:1039E000BB6D1B78002B00D001E27B6F1B78002B96
:1039F00000D031E13F4A1278002A00D12CE1424A3E
:103A00001168002900D127E172B611681360894658
:103A100062B6374B1B78002B01D000F045FF3B4AC4
:103A20003B4953683B48096803400B4353607A6C39
:103A3000394B117839488A00521892009B185C68FB
:103A40004B46844200D8A3E0642B00D9A4E00120B7
:103A50004B46002B00D1FAE00124032800D984084A
:103A600000255E46244BBB66002380225DE0C046F5
:103A700000140048002C0140D31A0020C816002072
:103A8000C4160020C0160020D01A0020CC1A002036
:103A900000080048D51A0020D41A00200000002099
:103AA0007416002070160020500200206C160020B2
:103AB0006A160020691600206816002060020020A7
:103AC0005C020020540200204D0200204C02002025
:103AD00066020020640200204502002076160020C5
:103AE00075160020B8160020D61A0020AC1600204B
:103AF000B7160020B6160020481B00204402002004
:103B0000CC160020ACAC0008B0160020001002401B
:103B1000BC160020FFFFFF8040B70008006CDC02ED
:103B2000C0468022BB181B680133B9180B600B68B4
:103B30009C42F5D8534632681B689A4222D0AE2385
:103B4000BA6E9B00D258A43BD3589846002B19D18B
:103B500053461B6832689A4201D301F070F83C2149
:103B6000326888469A1A3B2A03D832689B1A9BB25D
:103B70009846CD4B30684146C01805F097F8336839
:103B8000434433600135A94500D06DE7B3465EE09C
:103B9000642B01D800F006FF0023C44A48460021E8
:103BA000FCF748FC22000023FCF724FC041E00D193
:103BB0000134BF4B5D4698468023DB00994656464C
:103BC0002100642C00D9642184200023381803606C
:103BD00084203B184A001B6852188C4652009342BE
:103BE0000AD2C04684203B181B68391801330B6089
:103BF0000B689342F5D361462A683368641A9A4287
:103C000021D0AE2342469B00D258A43BD3589A46BB
:103C1000002B18D133682A689A4201D300F0A0FD26
:103C20003C212A688A469A1A3B2A03D82A689B1A9A
:103C30009BB29A469C4B28685146C01805F036F84E
:103C40002B6853442B60002CBAD1AB46B246994A3C
:103C5000994953680B405360FB6D1B78002B00D1D2
:103C60001BE60023FA6D1370FEF784FB032B00D0D4
:103C7000A8E6924B1B78042B00D0A3E65BE63B6CD6
:103C80001B78002B00D01CE2BB6B1B78002B00D0F4
:103C9000CFE33B6F1B78002B00D193E653461A68A5
:103CA0005B461B689A4200D325E6802153465A465C
:103CB000C9008C461B68126863449B1A9BB220E6BD
:103CC0007E4C2378012B01D100F040FC2378022B9D
:103CD00000D1C0E22378062B01D100F003FC237849
:103CE000032B01D100F074FD2378042B01D100F0E7
:103CF000BAFD2378052B00D0F2E5714B714D724C63
:103D0000296820001A78FDF7C7FF011E01D100F0D5
:103D1000F7FF6E4E220030002B68FCF757FE6C4810
:103D200000F0B6FD6B4B984201D900F06AFDFA2213
:103D30007B6F92001B78904200D360E1022B00D091
:103D4000C8E58022644BD2009A61644A1378D9B2E4
:103D5000002B00D0ADE162480378DAB2002B01D02D
:103D600000F0EDFB5F490B785BB2002B01DA00F04D
:103D70000DFCFF230C780B70631E3E2B02D8200035
:103D8000FCF7E8FF21005848FCF720FE9620400091
:103D900003F084FBFDF758FB7B6F1B789AE503F07B
:103DA00077FBFB6C1B68C01A0E2800D888E57B6E79
:103DB0001D78002C00D097E2002D01D100F060FCAE
:103DC00003F066FBFB6B1B68C01AFA235B01984289
:103DD000A8D30124FB6A32211C70FCF795F98022DC
:103DE0003D4BD200044200D00FE19A626DE503F032
:103DF0004FFB3E4B1B68C01A364B984200D8F4E587
:103E00000023BA6D1370FDF7EBFBEEE58021002473
:103E1000FB6E01223048C9001C7001F02BFF80218D
:103E200000224901324801F025FF0A2003F036FB49
:103E30008021012249012E4801F01CFF3C2003F0A3
:103E40002DFB80210022C900234801F013FF294BDC
:103E50001C607C6C2078FCF7EBFC2178182900D9D9
:103E600025E18B005B18244A9B0099582348FCF7F6
:103E7000ADFD234B1B78002B00D113E5214B1B78A4
:103E8000012B01D100F0A1FC1F49022B00D0ADE3B2
:103E90001E4B1B78052B00D9C9E21D4A9B009A587E
:103EA0001C48FCF793FDFDE4CC16002040420F00B7
:103EB000481B002000100240FFFFFFF0A01600206A
:103EC00006000020881600209016002014AB000881
:103ED000DC050000B70B000000140048A11600200C
:103EE0007A16002003000020C8A60008A8160020AB
:103EF00000080048B016002040B7000844A600089B
:103F0000B6160020B5160020589E000807000020B5
:103F1000A8B00008E4A2000862B64021D64801F02B
:103F2000A3FED64B1870002800D16CE272B6D44BB9
:103F30001869C0B2FEF79CFB01228021CE4801F037
:103F400099FE62B662B63B6E1B78002B00D147E546
:103F50006B46BB62CB4B80219C46E54402AB002202
:103F6000C5484901BB6401F085FE0A2003F096FABA
:103F70000022BB6C16009846C34CC44D04E00136C9
:103F8000AE4201D100F07AFEFDF748FE2368300012
:103F90001B041B0C2360FDF74FFD43469855FF287B
:103FA000EDD1B0463B2E01D800F07FFE85239B006B
:103FB000444600269946B649BD6CB966AE22BB6E32
:103FC00092009A584B46D358002BFBD128003C2135
:103FD0003C3C04F06BFE3C363C353B2CEED8B04507
:103FE00001D900F02EFC7B6F1B78002B01D100F073
:103FF00011FC00233A6E1370BB6A9D46F0E4012366
:10400000BA6913708022A34BD2009A615DE4002B41
:1040100000D08BE4A04AA1495368A1480968034035
:104020000B43536082E45B461B68AB4200D2CBE299
:104030005B461A68F1239B009A4200D2B8E35B46C4
:10404000802118681B68C900C91A964B89B2C0182C
:1040500004F02CFE5B461E603B6F1B78002B00D1EA
:10406000B0E453461A685B461B689A4200D294E358
:1040700053465A461B6812689B1A9BB280229200D4
:10408000934200D39EE400233A6F1370864B874A15
:104090001B781278002B01D100F06EFC002A00D0B2
:1040A00090E40123824A11680B4313608AE481493A
:1040B000DCE600231370FDF7E7FB7B6F1B78FFF74F
:1040C00009FC7B6B1B78002B01D100F0F1FD796AB4
:1040D000386A0B880288784D784E9A426BD0784BBC
:1040E00080249946774BE40298465B46BB6453466E
:1040F000BB624B46AA46B34689460600FD69BB66CD
:104100001BE02B68A34200D19EE053461B78002B96
:104110000ED04B461A8833889A4232D34B461B88BE
:1041200032889B1A684A9BB2D31A9BB2FF2B36D8AF
:104130004B461A8833889A4238D05A4633889BB205
:10414000D15C3388C9B201339B059B0D33802B684A
:10415000A342D6D22868431C2B60FDF7B1FC43462E
:104160002A681B689A42D0D329685848FCF72EFC6D
:1041700080224346D200944642461B686344136043
:10418000C3E780214B46C9008C461B8832886344B4
:104190009B1A4D4A9BB2D31A9BB2FF2BC8D904F08D
:1041A000B1FD4B461A8833889A42C6D1BB6C55463E
:1041B0009B46BB6A9A462B78002B00D056E27B6B5D
:1041C0001B78002B01D1FFF78BFB7B6A1A883B6AB7
:1041D0001B889A4201D0FFF783FB03F059F93B6932
:1041E0001B68C01A632801D8FFF77AFB384B1B788D
:1041F000002B08D08022FB69D2021B680633934251
:1042000001D800F0C0FD8023F869DB0202681900C4
:104210009A4200D801682F48FCF7D8FB2E4B1B7838
:10422000002B01D000F0FDFD2C48FCF78FFB002394
:10423000BA6B13703A6C13707A6B1370FA68136070
:1042400004F060FDFFF74CFBB86EFCF77FFB2B68BA
:1042500001332B6059E7224D2B68002B00D139E543
:1042600003F016F91F4B1B68C01A632800D9DEE360
:104270007B6F1B78FFF731FB00080048D21A002043
:10428000000C004878ECFFFF000400488813000091
:10429000481B00200014004800100240BC160020FB
:1042A000FFFFFF80CC160020B7160020B6160020B6
:1042B000002C0140009C0008DC2500206802002042
:1042C000F4AB000848020020FF030000DCAB00084C
:1042D0000900002030AC00080A00002000A50008FA
:1042E0008816002080160020012C01D0FFF7E8FA84
:1042F000002D01D1FFF7E9FA00237A6E137003F065
:10430000C7F8F96AFA6B09781268002901D000F041
:1043100080FC831AFA225201934201D300F079FC07
:104320007A691278002A01D000F018FDE74A93421A
:1043300001D900F013FDBA691278002A01D000F00B
:1043400049FDFA24A400A34201D300F043FD7A6F93
:1043500012780E2B01D800F05EFC022A01D100F089
:1043600019FE012A01D100F0D7FD80210122D84891
:10437000C90001F07FFC802100224901D54801F0ED
:1043800079FC0A2003F08AF8802101224901D148F2
:1043900001F070FC3C2003F081F880210022C9006C
:1043A000CB4801F067FC00227C6CCB4B20781A6074
:1043B000FCF73EFA2178182901D900F076FD142285
:1043C0004A43C64BD158C648FCF700FBC54B1B7887
:1043D000002B01D100F01FFCC34B1B78012B01D136
:1043E00000F060FDC149022B00D0C149C14BC24A57
:1043F0001B78052B02D8C14A9B009A58C048FCF78D
:10440000E5FA00F008FC2021B24801F02DFCBD4B7C
:104410001870002800D148E17B681B78002B01D17F
:1044200000F02FFC72B6B86801F04AF881E5B24A94
:1044300036E503F02DF83B691B68C01A632801D8E4
:10444000FFF74EFAB04BB14C1B78002B29D02368F4
:10445000002B26D0F96822680B6800259A4202D901
:1044600022680D68551B6420216823682268684310
:104470009046FA68BB661268BA64FBF745FE81464F
:10448000FA208000B96E6843FBF73EFE0A21FBF775
:10449000C1FE9F4E00914B4641463000BA6CFCF77E
:1044A00095FA9C4AFD689C4E12789C4B29681B78B3
:1044B000300000920022FDF7C9FD0023BA6B137093
:1044C0003A682B601360FA69236013603A6C1370CA
:1044D0007A6A13803A6A13807A6B137004F012FCC4
:1044E000FFF7FEF98E4A13785BB2002B01DAFFF773
:1044F000F7F9FF23157813706B1E3E2B02D82800A6
:10450000FCF728FC29008748FCF760FAFCF732FB2F
:10451000982300215B02984200D2191A824B1B6833
:104520008B4200D936E28148FCF750FA8048FCF70C
:104530000DFA032323707B6F1B78FFF7CEF9017010
:10454000FCF76AFC7B6F1B78FFF7C4F979497A485E
:10455000FCF73CFA7948FCF7F9F9FDF75FFBFDF74A
:1045600003FB7748FCF7F2F97648FCF7EFF90022F5
:104570006D4B1A60744B1A6002F08AFF734B18601F
:10458000022323707B6F1B78FFF7A7F970490B7824
:104590005BB2002B00DB8FE06E4C23785BB2002B0C
:1045A00000DB30E26C4B1978002900D0A6E37B6E6B
:1045B0001B78002B00D05BE69620C000FCF7EAF8E1
:1045C0007B6F1B78FFF786F95B461B68EB1A3B2B6A
:1045D00000D9EDE05B4618681968604B691AC0188D
:1045E00089B204F063FB5B461D6035E540494FE44A
:1045F0005A461268AA4200D201E25A468021126845
:10460000C900891A5E4600290CD16BE23568C218D0
:10461000555D0D2D09D03568525D0A2A05D001334C
:10462000994202D022789342F0D3B3461D1E00D1A6
:1046300058E25B461B68A9B2C01804F037FB5B4622
:104640005A461B68EB18136080231268DB009A42FD
:1046500002D300235A46136023789D4201D3FFF70B
:10466000AAF923785B1BDBB22370F5E404F04AFB64
:10467000A5E500221100100002F0C2FDFFF78AF943
:1046800001237A6E137002F003FF8021FB6B00227E
:104690001860BB690F481D707B6949011D70FB6A7A
:1046A0001D7001F0E7FAFFF70BF90022802109489D
:1046B00001F0E0FAFFF78EF9FF2308780B70FDF7A1
:1046C0002BFE7B6F1B78FFF705F9C046B70B000088
:1046D0000014004800080048B016002040B7000849
:1046E00044A60008B6160020B5160020589E000803
:1046F000489E0008070000203C9E0008A8B0000863
:10470000E4A20008D11A0020B416002058020020AC
:1047100058AC00080A0000206806002009000020AC
:1047200001000020C8A600088816002020A9000863
:10473000F0A8000890160020E0A60008F0A60008E7
:104740000CA7000818A70008841600208016002077
:104750000200002005000020A2160020CC16002038
:104760004A462B68D31A3C2293463B2B04D84A4630
:104770002B68D31A9BB29B46DB4B28685946C0185E
:1047800004F094FA2B685B444B4502D22B685B44DF
:104790009A4653462B60FFF756FA802153465A46F5
:1047A000C9008C461B68126863449B1A9BB265E47F
:1047B0005B461868CC4B3C21C01804F077FA5B4686
:1047C0005A461B683C33136046E4C849FFF760FB58
:1047D000C74B1A78002A01D1FFF782F800221A701D
:1047E000C44B1B78DDB2934200D0B9E1C248FCF75C
:1047F000ADF8C24B1D70052323707B6F1B78FFF74C
:104800006CF8962001237A6980001370FBF7C2FFD1
:10481000FFF75BF8FCF7FCFF80210022C900B848D5
:1048200001F028FA0A2002F039FE1021B44801F004
:104830001BFA002800D031E2012002F02FFEFFF722
:10484000D8FBAE238522AF499B00C95892008B58F4
:10485000002BFCD14346991BBB6C89B2981904F01C
:1048600025FAFFF7C0FBF96E7B6E0A781B781A43B6
:1048700000D1A6E000220A708021A148490101F080
:10488000F9F9FDF70FFDA048FCF760F89620C0008D
:1048900002F004FE02237A6F13709C4A1370012207
:1048A0009B4B1A70FFF71CF801250026994C2368D2
:1048B0002B432360934BBB66B14214D0B0465E4697
:1048C0008B462369AB43236104E0534632681B687F
:1048D0009A420FD123691D42F7D001239C46E04440
:1048E000C345EED1B34601218A4A13688B43136056
:1048F000FFF7B2F9AE23BA6E9B00D258A43BD3584F
:104900009946002BE6D153461B6832689A4213D26F
:104910003C21326889469A1A3B2A03D832689B1A8E
:104920009BB29946704B30684946C01804F0BEF9F6
:1049300033684B443360CDE780223C213368D2009A
:10494000D31AB9643B2B03D83368D21A93B2BB6431
:10495000654B3068B96CC01804F0A8F9B96C8022B6
:104960008C463368D2006344934202D2894633684E
:1049700099444B463360ADE7002A01D0FFF722F897
:10498000654A664953686648096803400B435360AB
:10499000FFF718F8591A6348FCF718F87B6F1B7873
:1049A000FEF79BFF2100FBF7AFFBFFF751F85A4AD8
:1049B0005A4953685A48096803400B435360FEF74D
:1049C000FAFF594B1978CDB2002900D09DE102F0D1
:1049D0005FFD564B1B68C01A554B984200D847E400
:1049E000802147482A00490101F044F95148FBF76A
:1049F000ADFF052323707B6F1B78FEF76EFF5A46D1
:104A00001168691AFEE54C4B20781978FF2349B2EA
:104A10002370FDF721FD7B6F1B78022B01D0FEF781
:104A200059FFFCF711FD7B6F1B78FEF753FF4348DE
:104A30002968FBF7CBFF424B1B78002B24D0414B5E
:104A40001E68002E20D02B689946002398464E45BC
:104A500002D94B46F31A9846434664203100584326
:104A6000FBF752FBB866FA20424680005043310003
:104A7000FBF74AFB0A21FBF7CDFB00914A463100C8
:104A8000BB6E3148FBF7A2FFFCF774F898230022B5
:104A90005B02984200D240E1982329685B02994268
:104AA00000D95EE1914200D840E58B1A2748FBF718
:104AB0008DFF2748FBF74AFF264B01269946264BD8
:104AC000264D984604E020350136454500D14EE19B
:104AD0002B78012BF7D131004846AB696A1CFBF7F4
:104AE00075FFF0E70125A4E5CC160020549E0008D0
:104AF0007916002078160020A0A900087B16002057
:104B000000080048481B002064AA0008A4160020E2
:104B1000A2160020002C014000100240BC1600200C
:104B2000FFFFFF8058A90008771600207C160020A0
:104B30000F270000D8AA00080400002060A7000882
:104B4000060000208416002080A700081CA800088A
:104B50006CA80008A0A8000800C8000820C0000831
:104B6000D348FBF7F3FED348FBF7F0FED248FBF740
:104B7000EDFE0122D14B1A70D14B1B78002B00D0D7
:104B8000CDE0FCF745FEFA239C229B00BA18136087
:104B90009C217B181A687918531E0B60002AF7D1E4
:104BA0000B008021C748C9001B6801F063F8FA2395
:104BB00098229B00BA1813609822BB181D68BA1877
:104BC0006B1E1360002DF7D113001B687B6C1878E7
:104BD000FBF72EFE53461D605B4680211D603B6F38
:104BE0002A004901B7481D7001F044F80A2002F07C
:104BF00055FC80210122B348490101F03BF802F045
:104C000047FCB14B1860042323707B6F1B78FEF7C1
:104C100064FEFDF747FB0023BA6913707A691370CD
:104C2000FA6A13707B6F1A78002A01D0FEF748FEEB
:104C30008021A648C90001F01DF8FEF741FE802240
:104C40003C213368D2008B46D31A3B2B03D8336800
:104C5000D31A9BB29B469E4B30685946C01804F04D
:104C600025F880223368D2005B44934202D2336835
:104C70005B44984643463360FEF784FFB046FFF737
:104C800095F9BC68200000F08DFB0121200000F0A8
:104C9000B5FB01237A681370FFF7C4FB8021012262
:104CA0008848490100F0E6FFC6E50026FFF797F9BE
:104CB000802500248748FBF749FEFCF7AFFFFCF78F
:104CC00053FF8548FBF742FE844E6D012000315DA5
:104CD0000134FCF7F5FEAC42F8D1FB6980481C605A
:104CE0001968FBF773FEA0227E4B52011A60012364
:104CF0007A6B137004F006F8FFF7E9F91A7090E682
:104D00007948FBF723FE7948C2E580216D484901C7
:104D10001A7000F0AFFF764869E61A1ABCE6754DC6
:104D20005B212868FCF7CCFE28682D210130FCF7B8
:104D3000C7FE28685D210230FCF7C2FE28682B21DF
:104D40000330FCF7BDFE28685B210430FCF7B8FE99
:104D500028685D210530FCF7B3FE12E7FCF7D8FCAC
:104D600059E76548FBF732FEFA20C00090E563483A
:104D7000FBF7ECFDFF22624B1A70062323707B6F5A
:104D80001B78FEF7AAFDFC695B212068431C2360A9
:104D9000FCF796FE20682D21431C2360FCF790FE53
:104DA00020685D21431C2360FCF78AFE20682B21CC
:104DB000431C2360FCF784FE20685B21431C2360B6
:104DC000FCF77EFE20685D21431C2360FCF778FE23
:104DD000FFF719FA802101227B6F3C48C9001A7045
:104DE00000F048FF802100224901364800F042FFD0
:104DF0000023FA68434C13603A6843481360FA6929
:104E000023601360BA6B13703A6C13707A6A138064
:104E10003A6A13807A6B1370FBF798FD03F072FF08
:104E2000F9E63A48FBF792FD802100222748C900A5
:104E300000F020FFFCF7ECFCFA23A4229B00BA1838
:104E40001360A4217B181A687918531E0B60002A7E
:104E5000F7D10B0080211B48C9001B6800F00AFF36
:104E6000FA23A0229B00BA181360A022BB181C686A
:104E7000BA18631E1360002CF7D18021130049017A
:104E8000220010481B6800F0F5FE0A2002F006FB25
:104E9000802101220B48490100F0ECFE7B6F1C7061
:104EA000FFF7C5F91A49FFF7A1FA1A49FFF78BFA7C
:104EB000C4A90008F0A900082CAA00087B1600204D
:104EC00009000020000800487C160020001400485B
:104ED000CC16002088AB000834A400086806002027
:104EE000DCAB0008480200204CAB0008DC050000E9
:104EF000A4AA000888160020D0A70008C0A80008AF
:104F000001000020580200205CA60008E4A400086C
:104F1000549E0008009C0008802100221F48C90000
:104F200000F0A8FEFCF774FC9423FB181C6094218D
:104F30007B181A687918531E0B60002AF7D10B00F2
:104F400080211748C9001B6800F094FEFA239022C4
:104F50009B00BA1813609022BB181C68BA18631E15
:104F60001360002CF7D180211300490122000C4866
:104F70001B6800F07FFE0A2002F090FA80210122D7
:104F80000748490100F076FE7B6F06481C70FBF76E
:104F9000DDFC40E6FCF778FC3DE6C0460014004826
:104FA00000080048B0A600087047C046012200B5BE
:104FB0000F4B83B09969052011439961996940426B
:104FC0000A4080210092009ADA6949050A43DA61B1
:104FD000DB6900220B4001930121019B00F006FBDD
:104FE000022000220121404200F000FB03B000BD7E
:104FF0000010024010B5040088B01422002102A85D
:1050000004F02CF9104B22689A4201D008B010BD70
:1050100080210E4B89009A690D480A439A619A696A
:105020000A4080210092009A5A6909030A435A6192
:105030005B6901220B400193019B032302A90292A9
:10504000039300F071FCE1E70024014000100240EE
:10505000000800487047C046FEE7C0467047C0469B
:105060007047C04610B502F007FA10BD10B5022017
:1050700000F006FE10BDC0462C4B70B55B691B07E7
:1050800032D52B4C2378002B28D12A4A2A49536841
:105090000B405360C046C046284B294918690B682D
:1050A000284D01339B050E689A0D2B68C0B29E42B5
:1050B00029D30B682D685B1B9BB2FE25AD00AB426C
:1050C00016D20B68204D0A60E8542378002B23D0B9
:1050D00001211E4A13680B43136010E001211B4A93
:1050E00013688B431360D5E7082000F0C9FD70BD3D
:1050F0000B680A600122144CE054154B1A70082208
:105100000A4B5A61F3E78026F600B4460B682D6817
:1051100063445B1B9BB2D0E7064A0E4953680E48B6
:10512000096803400B435360E9E7C04600040140AF
:10513000B716002000100240FFFFFFF000040048F7
:10514000C0160020C8160020CC160020002C0140FC
:10515000B8160020BC160020FFFFFF8010B50248E3
:1051600000F07EFE10BDC046002A00200C490D4A0A
:105170000300521A0C4910B50868002804D0C3185F
:10518000934206D80B6010BD0848C31808609342CC
:10519000F8D904F091F80C23036001204042F2E7B3
:1051A0000004000000400020181B0020402E0020BA
:1051B0007047C046002370B5026882B001939168C1
:1051C000033304000B40012B31D09168204B19426E
:1051D00023D1012193680B4393601E4B1E4918682D
:1051E000FAF792FF0190019B002B05D0019B013B38
:1051F0000193019B002BF9D102F04AF90126050029
:1052000004E002F045F9401B022817D823681B6808
:105210001E42F6D0002002B070BD1022A36B012008
:105220001343A363E36B0F3A1343E363F3E711689C
:105230000B42EFD1D3681B04ECD4C6E71022A36B5A
:1052400001201343A363E36B3343E363E3E7C04607
:10525000170000801400002040420F0070B5041EAB
:1052600064D0836B002B68D0A36BDB0660D422680C
:1052700093685B075CD4A36B47490B400631FF3151
:105280000B43A363032391680B40012B5BD01821D0
:10529000D3688B43A1680B43D360136961689B009B
:1052A0009B080B431361D3683C490B40D360237EBA
:1052B000617E9B03C9030B43A07EE1680B4341035E
:1052C0000B432421615C49000B43A16A01394D1E47
:1052D000A94109030B43216902394D426941890003
:1052E0000B43E17E01293ED0C220E169FF308142BB
:1052F00002D0206A01430B43D168E56A1943D160AB
:10530000802149058D4225D0691E062922D9D268FF
:1053100023490A409A422CD01222A36B9343023AAB
:105320001343A363E36B0F3A1343E363012070BDA0
:105330001022A36B1343A363F8E73422C36383549F
:10534000FFF758FE90E711680B42ACD1D3681B04FD
:10535000A9D49CE7072150698843506150692940CE
:1053600001435161D3E700280DD1802149020B434D
:10537000BAE700230322E363A36B00209343023ABE
:105380001343A363D3E72025A06B2843A063E06BFE
:105390000143E163A8E7C046FDFEFFFF1902FEFFDF
:1053A000E7FF3F83036810B59A680400520721D4D1
:1053B0003422815C01291DD001218154427E012AC1
:1053C00012D1A16B0C4A00201140802252000A43E6
:1053D000A26334210022E26362541C321A609A688C
:1053E00030390A439A6010BDFFF7E4FE0028FAD175
:1053F0002368E6E70220F6E7FEF0FFFFF8B5446910
:1054000005000E00082C04D003680C24DB68DB07C1
:1054100041D402F03DF807002A6813681C4204D109
:10542000731C25D113682342FCD08023A96B9B00F9
:105430000B43AB63C023D1681B01194213D1AB7E70
:10544000002B10D113681B070DD593685B072BD475
:105450000C2153688B435360AB6B18490B400431EC
:10546000FF310B43AB632B7E002B11D00020F8BD26
:10547000002E04D002F00CF8C01BB042CCD904229C
:10548000AB6B03201343AB6300223423EA54EEE7F3
:105490000C231360EAE72022836B1343836300220B
:1054A0003423C2540120E2E72021AB6B0B43AB63F2
:1054B000EB6B1F390B43EB63D5E7C046FEFEFFFFE6
:1054C0000368186C7047C0460023F0B583B00193A1
:1054D0003433C25C0400C56A012A59D00122C25487
:1054E00003689868400709D520220120A36B134365
:1054F000A36334230022E25403B0F0BD10267642A9
:10550000B4460868324E4F6882408444B74227D080
:105510009E6A32439A62072D1FD980225205954216
:105520000CD007228D68596911408D4206D0596907
:105530009143596159692A400A435A616346022BD3
:1055400009D8244B80211A68102825D011283AD078
:1055500049040A431A600020CBE7002DEED1E0E7B2
:10556000996A914399626346022BF4D8194B1B68E0
:1055700010280FD01138421E9041174A4042104067
:10558000164A944660441840124B18600020B0E759
:105590000220B1E71248F6E709040A431A60114BEA
:1055A00011491868FAF7B0FD83001B185B000193DE
:1055B000019B002BCFD0019B013B0193019B002B52
:1055C000F9D1002095E7C9030A4300201A6090E74B
:1055D0000110000008270140000040FFFFFFBFFF4F
:1055E000FFFF7FFF1400002040420F00FF22032333
:1055F00010B514000340DB009C4089010A40E443DD
:105600009A4000280BDB0C4BC0219C468008800090
:1056100060448900435823401343435010BD0F2377
:10562000064903408C46083B9B089B006344D969AC
:105630000C401443DC61F1E700E100E000ED00E024
:10564000002805DB1F22012302409340014A13601A
:105650007047C04600E100E000280ADB1F2201235A
:1056600002409340802203498B50BFF34F8FBFF31A
:105670006F8F704700E100E08022431E520401203A
:1056800093420ED2C021074A07485360036A0906B5
:105690001B021B0A0B4303620023002093600733A5
:1056A0001360704710E000E000ED00E0F0B5464602
:1056B0004F46D646C0B52F4F06003B7E8846012B8D
:1056C00056D001233B7603682B48012B33D000F0E2
:1056D00095F8002833D1012342465B421360B3683A
:1056E0007568DB025B199D4229D20023234C994641
:1056F00009E080231B019C46B3687268DB026544A5
:105700009B18AB421CD902224B469246FB6123698F
:10571000194813432361656123693E3213432361B2
:1057200000F06CF852462369934323610028E0D0CF
:1057300043461D6004E000F061F8002807D0012016
:1057400000233B76E0BCBA46B146A846F0BD04252E
:1057500040220A4CF861236907482B4323612369DF
:105760001343236100F04AF82369AB432361E7E761
:105770000220E7E7201B002050C300000020024069
:1057800010210D4B10B5DA680B001340114205D003
:105790000A4A0E39D3690B43D3611023064AD168F4
:1057A00004220A4205D0012404481343C16921435D
:1057B000C161014AD36010BD00200240201B0020BF
:1057C000064B00201A69120606D5054A5A60054A9A
:1057D0005A6018690006C00F7047C046002002409A
:1057E00023016745AB89EFCD8021034A002013696F
:1057F0000B4313617047C04600200240F8B5040017
:1058000001F046FE01260500154FFB681E4206D03A
:10581000631C12D101221249CB681A42FCD120220A
:105820000F4BD9680A4211D10D4AD368DB0612D456
:10583000D36800205B070ED4F8BD002C04D001F023
:1058400027FE401BA042E0D90320F5E7DA60044AB6
:10585000D368DB06ECD5FFF793FF0120ECE7C046E9
:1058600000200240F0B54E465746DE464546E0B5BC
:105870009A4683B0294B019299461B7E04000E0084
:10588000012B46D001234A4625481376FFF7B6FF81
:10589000002834D1012C3ED0023C631E9C416300A1
:1058A000984602239C46E044002300259B4618E0CE
:1058B0005346D3404A46594601271A4CD1612269C2
:1058C0009BB23A43226116483380FFF797FF236962
:1058D000BB432361002812D10135EBB20236984553
:1058E0000DD92B011A00203AE2D520225146D21AB6
:1058F00091400A000199D9400B001343DAE70023D5
:105900004A46137603B0F0BCBB46B246A946A04651
:10591000F0BD0220F6E701239846C5E7201B0020D2
:1059200050C3000000200240F0B54546DE46574611
:105930004E46E0B50D68002385B0002D7BD0794A36
:105940000091924601212A0099400A4091460D4259
:105950006DD0009F10247A681700A7435C00A4460E
:10596000032466460197009FB440BE686746BE4068
:10597000B046019EE443013E012E63D94646C1680C
:1059800021403143C16001680C4003211140B940FE
:1059900021430160802149050A4248D05146012433
:1059A0005646896903272143B161B1690F26214019
:1059B0005D4C1F40A446BF00BE4003910399990867
:1059C000890061448C68B4439026F605B04212D039
:1059D000564EB04200D198E0554EB04200D198E00A
:1059E000544EB04200D18CE0534EB04200D194E00E
:1059F0000526BE4034438C604C465049E443096858
:105A0000D70366D44D4F214039607968970367D436
:105A10004A4F21407960B968D70268D4474F214086
:105A2000B960F968920269D40C404449CC602A00FC
:105A30000133DA4086D105B0F0BCBB46B246A94678
:105A4000A046F0BD86682640B346009EF668BE407C
:105A5000B1465E464F463E43866046688E43110916
:105A60009940314346464160C16821403143C1609D
:105A7000019902290DD0016801330C4003210A402D
:105A800061468A40224302602A00DA4000D059E78A
:105A9000D1E707261E40B600B1460F264F46BE404E
:105AA000DA0892008218116A0133B1438846009ED9
:105AB00031694646B940314311620168019A21407B
:105AC0006446A2400A4302602A00DA4000D039E767
:105AD000B1E74E46194F314339607968970397D53E
