:020000040800F2
:1000000000400020A1060008AD4B0008B14B0008DD
:1000100000000000000000000000000000000000E0
:10002000000000000000000000000000B54B0008C8
:100030000000000000000000B94B0008BD4B0008A4
:100040004907000849070008490700084907000850
:1000500049070008C54B0008D14B000849070008B4
:100060004907000849070008490700084907000830
:100070004907000849070008490700084907000820
:100080004907000849070008490700084907000810
:100090004907000849070008490700084907000800
:1000A00049070008490700084907000849070008F0
:1000B000490700084907000849070008B54C00082F
:1000C00010B5064C2378002B07D1054B002B02D02E
:1000D000044800E000BF0123237010BDE0010020B0
:1000E00000000000F8960008044B10B5002B03D068
:1000F0000349044800E000BF10BDC04600000000F6
:10010000E4010020F8960008002243088B4274D3D3
:1001100003098B425FD3030A8B4244D3030B8B4208
:1001200028D3030C8B420DD3FF22090212BA030C11
:100130008B4202D31212090265D0030B8B4219D3F2
:1001400000E0090AC30B8B4201D3CB03C01A524112
:10015000830B8B4201D38B03C01A5241430B8B425A
:1001600001D34B03C01A5241030B8B4201D30B0343
:10017000C01A5241C30A8B4201D3CB02C01A52416A
:10018000830A8B4201D38B02C01A5241430A8B422D
:1001900001D34B02C01A5241030A8B4201D30B0216
:1001A000C01A5241CDD2C3098B4201D3CB01C01A30
:1001B000524183098B4201D38B01C01A524143093A
:1001C0008B4201D34B01C01A524103098B4201D328
:1001D0000B01C01A5241C3088B4201D3CB00C01A95
:1001E000524183088B4201D38B00C01A524143080D
:1001F0008B4201D34B00C01A5241411A00D2014632
:10020000524110467047FFE701B5002000F0F0F8BA
:1002100002BDC0460029F7D076E7704703460B437E
:100220007FD4002243088B4274D303098B425FD3EF
:10023000030A8B4244D3030B8B4228D3030C8B421B
:100240000DD3FF22090212BA030C8B4202D3121201
:10025000090265D0030B8B4219D300E0090AC30BD6
:100260008B4201D3CB03C01A5241830B8B4201D383
:100270008B03C01A5241430B8B4201D34B03C01A6C
:100280005241030B8B4201D30B03C01A5241C30AE4
:100290008B4201D3CB02C01A5241830A8B4201D355
:1002A0008B02C01A5241430A8B4201D34B02C01A3F
:1002B0005241030A8B4201D30B02C01A5241CDD2E4
:1002C000C3098B4201D3CB01C01A524183098B422F
:1002D00001D38B01C01A524143098B4201D34B0118
:1002E000C01A524103098B4201D30B01C01A52417B
:1002F000C3088B4201D3CB00C01A524183088B4202
:1003000001D38B00C01A524143088B4201D34B00EA
:10031000C01A5241411A00D201465241104670475C
:100320005DE0CA0F00D04942031000D34042534061
:1003300000229C4603098B422DD3030A8B4212D321
:10034000FC22890112BA030A8B420CD38901921153
:100350008B4208D3890192118B4204D389013AD090
:10036000921100E08909C3098B4201D3CB01C01A65
:10037000524183098B4201D38B01C01A5241430978
:100380008B4201D34B01C01A524103098B4201D366
:100390000B01C01A5241C3088B4201D3CB00C01AD3
:1003A000524183088B4201D38B00C01A5241D9D2EB
:1003B00043088B4201D34B00C01A5241411A00D26C
:1003C0000146634652415B10104601D34042002B68
:1003D00000D54942704763465B1000D3404201B5E7
:1003E000002000F005F802BD0029F8D016E770479C
:1003F0007047C046002B11D1002A0FD1002900D12F
:10040000002802D00021C943080007B4024802A115
:100410004018029003BDC046D9FFFFFF03B46846F1
:1004200001B5029800F034F8019B9E4602B00CBC66
:100430007047C046F0B5CE469946030C9C4613045F
:1004400047461B0C1D000E0061460404240C80B5B9
:100450000700100C4B436543414360432C0CC0180C
:1004600024188C46A34203D980235B029846C444D7
:10047000494679435643230C2D042D0C89196344B6
:1004800024046019C918C0BCB946B046F0BDC046C6
:10049000F0B557464E464546DE46E0B504000D0031
:1004A0009246994683B08B4230D82DD0494650466B
:1004B00000F0BAF829000600200000F0B5F8331A61
:1004C0009846203B34D49B4653465A469340424676
:1004D0001F00534693401E00AF423BD8AF4200D1AD
:1004E00079E05B46A41BBD41002B00DA76E00022D8
:1004F00000230092019301235A4693400193012364
:1005000042469340009329E08242CFD90022002343
:10051000009201930C9B002B01D01C605D60009841
:10052000019903B0F0BCBB46B246A946A046F0BD57
:1005300042469B4620239B1A5246DA40414613000E
:100540004A468A40170042461F43534693401E00C6
:10055000AF42C3D900220023009201934346002BEF
:10056000D8D0FB0772081A4346467B080EE0AB4220
:1005700001D1A2420CD8A41A9D41012024196D4139
:100580000021013E24184D41002E06D0AB42EED989
:10059000013E24196D41002EF8D1009801995B4667
:1005A00000196941002B24DB2B005A464446D340F6
:1005B0002A00E2401C005B461500002B2ADB2600C7
:1005C0009E40330026004746BE403200801A9941C3
:1005D000009001919EE7A342BCD882E742462023C7
:1005E00000219B1A0022009101920122DA4001921F
:1005F00085E7424620239B1A2A0046469A4023005C
:10060000F340444613432A00E2401C005B461500B9
:10061000002BD4DA42462F002023260097409B1A55
:10062000DE403B003343CDE710B5002903D100F095
:1006300007F8203002E0080000F002F810BDC046C4
:100640001C2101231B04984201D3000C10391B0A02
:10065000984201D3000A08391B09984201D30009C6
:10066000043902A2105C40187047C046040302021D
:100670000101010100000000000000000023C25C35
:100680000133002AFBD1581E7047000003B47146A5
:10069000490840004900095E49008E4403BC704788
:1006A0001E4885461E4801681E4A914212D100210B
:1006B00001601D4801680122114301601B48016867
:1006C00003229143012211430160194801688D46BC
:1006D000416808471448016801221143016013482A
:1006E000016803229143016012481349134A002311
:1006F00002E0D458C4500433C4188C42F9D3104AD1
:10070000104C002301E013600432A242FBD304F03A
:10071000FBFA08F083FB02F03DFDFEE700400020FD
:10072000F03F0020EFBEADDE181002400000014097
:1007300000C8FF1F00000020E001002040B20008B8
:10074000E0010020342E0020FEE70000F8B507008D
:1007500010000C001600FFF791FFA04216D80028E9
:1007600016D0002402E00134A04211D0395D335D7F
:100770000A00613A192A01D82039C9B21D00613D29
:10078000192D01D8203BDBB29942ECD00020F8BDF6
:100790000120FCE770B5040006F026FC2100FFF7FD
:1007A00039FD0B0061088B421FD25801C01A80002E
:1007B000C018C000FFF7A8FC114B5C68002C00D1EA
:1007C000104CFA210E4B890040439D68FFF79CFCBA
:1007D000FA2160438900FFF797FC80220A4B641BD3
:1007E000D200A0420AD99A6170BDE41A6001001BD0
:1007F00080000019C000FFF787FCDDE79A62F3E78D
:1008000010E000E080BB00000014004810B5022892
:1008100000D010BD00228021034804F0D7FF002241
:10082000024B1A70F5E7C04600080048CF1A0020B6
:10083000F0B5C64600B586B0182836D90F223D4B14
:100840000F241A70002303930133FF3301933A4FAF
:10085000FD3B01ADEB600121384A90201368C005D3
:100860008B4313600022364B29001A7002232A6141
:100870006B6004F005FEA3001B199B00FB181A69AE
:10088000304B1A60304A1278002A4DD119681A6824
:10089000E023DB051A40F0231B050020194006F079
:1008A0005BFA06B080BCB846F0BD8600224F361811
:1008B000B600BE19337A040098461E4B10221870F9
:1008C000002102A808F076FA80235B0001AD0193B5
:1008D000FD3BEB604346002BBDD0002200210020F1
:1008E00006F03AFA0022174B90201A6002232900E2
:1008F000C0056B602B6104F0C3FD01210F4B1A682A
:100900008A431A6072899A62B289DA62013252109D
:100910005A630B4A596111700B4A1278002AC0D1F0
:100920001A680A431A60BCE700220021002006F082
:1009300013FAB6E7D01A002098AF0008002C014047
:10094000B3160020B8160020B2160020F0B5D64627
:100950004F464646C0B58046FFF790FE071E20D0A2
:10096000184B85269A46AE239B00994653464A4625
:1009700000249B58B6003D1B402D1FD8A9B2124839
:100980009A59002A16D14346181907F03BFF5346DF
:100990004A460D499B589A59002A07D16419A74223
:1009A000E9D8E0BCBA46B146A846F0BD01390029F5
:1009B000F1D1F3E701380028E2D1E4E740254021F6
:1009C000DDE7C046401B0020400D03000FB400B51A
:1009D000A3B024AB04CB802102A8019308F0D0F986
:1009E00002A8FFF7B3FF23B008BC04B01847C04605
:1009F00010B51C4C82B02078172801D902B010BD68
:100A00000130C0B2FFF714FF0122174B1A7006F035
:100A1000EBFA164B22781860182A20D89300144954
:100A20009B189B0059581348FFF7D0FF80210122E3
:100A30001148C90004F0CAFE00230193019B0F4A2C
:100A4000934205DC019B01330193019B9342F9DD45
:100A5000802100220848C90004F0B8FECEE708490A
:100A6000E1E7C046D01A0020A8160020A4160020F6
:100A700098AF000860970008001400485FEA000083
:100A80005897000810B51C4C82B02078002801D17E
:100A900002B010BD0138C0B2FFF7CAFE0122174BE9
:100AA0001A7006F0A1FA164B22781860182A20D87E
:100AB000930014499B189B0059581348FFF786FF71
:100AC000802101221148C90004F080FE0023019317
:100AD000019B0F4A934205DC019B01330193019B6B
:100AE0009342F9DD802100220848C90004F06EFE1F
:100AF000CEE70849E1E7C046D01A0020A81600203A
:100B0000A416002098AF0008609700080014004861
:100B10005FEA000058970008012370B50C4E0024CE
:100B20003370002301200B4D0B4A2B7001331178D9
:100B3000012903D10124411C2B54C8B20133DBB27B
:100B40002032402BF3D1002C00D0307070BDC04655
:100B5000000200200402002020C00008F0B58DB083
:100B600004F0DAFB00233422012600930193174C92
:100B7000174B029403966946DA6001A804F042FB21
:100B8000051E05D004F0DCFBFFF7C6FF0DB0F0BD7D
:100B900011200F220F4904AF68443E7008F064F939
:100BA00080235B0008930C4B0C4E0A930C4B099569
:100BB0000C4D0B936E442100325900230220043463
:100BC00004F0FCFBAC42F6D1DCE7C04600C00008F4
:100BD000002002407C9700087D0600001040FFF7CF
:100BE0000101C0BF20C00008F0B54546DE465746AB
:100BF0004E46E0B53F4C00253F4B4048A54402E03F
:100C00002033834212D01A78012AF9D16E1C14AA1B
:100C10006D01541922001900B0C9B0C2B0C9B0C2E8
:100C2000203330C930C2F5B28342ECD104F074FBFA
:100C300000233422012600930193314C314B02945E
:100C400003966946DA6001A804F0DCFA80460028C1
:100C50000BD004F075FBFFF75FFF2B4B9D44F0BCFE
:100C6000BB46B246A946A046F0BD112004AF0F22F4
:100C7000264968443E7008F0F7F880235B0008932B
:100C800043460993224B234E0A93234B1A4F0B934F
:100C90006E442100325900230220043404F08EFBFC
:100CA000BC42F6D1002DD4D014AB99460CAB9A4679
:100CB0005B429B464F4653464A4613CA13C313CA68
:100CC00013C354460C4E03CA03C35E442268311951
:100CD00000230220043404F071FBA742F6D14346FE
:100CE0000133DBB2984620239C46E144E34445456A
:100CF000E1D1AEE7ACF7FFFF20C0000800C8000854
:100D000000C0000800200240540800007C97000842
:100D10007D0600001040FFF70101C0BF054B10B574
:100D2000DA69054B9A4202D0FFF718FF10BDFFF7B2
:100D3000F3FEFBE700C000080101C0BF10B50024AE
:100D40000F4B00211C600F4B10220F481C7008F045
:100D500031F803220D4B0E481C700E4B1A70FFF732
:100D6000F5FD0D4C2000FFF7F1FD0C48FFF7EEFDFF
:100D70002000FFF7EBFD0A48FFF7E8FD10BDC04675
:100D800084160020881600208C1600209C16002057
:100D90008C970008D11A002098970008D097000877
:100DA00008980008F0B5D64646464F462A4BC0B5CF
:100DB00098468CB06D461800FFF7C8FD2748FFF72E
:100DC000C5FD4046FFF7C2FD2548FFF7BFFD404681
:100DD000FFF7BCFD234B2A00190051C951C251C96C
:100DE00051C21833160013CB13C213CB13C2002306
:100DF0001D4FFB56052B01DD05233B701B4A0024CC
:100E000091461B4A924608E048460134FFF7DEFD52
:100E10000435062C0DD00023FB56A2002968B258D9
:100E2000A342F1D150460134FFF7D0FD0435062C22
:100E3000F1D14046FFF78AFD0E48FFF787FD404697
:100E4000FFF784FD0C48FFF781FD0CB0E0BCBA460B
:100E5000B146A846F0BDC0469897000844980008DF
:100E60007C980008109700089F160020D49800086E
:100E7000B4980008EC98000824990008F0B5DE4604
:100E800057464E4645468A4BE0B59A46180087B00D
:100E9000FFF75CFD8748FFF759FD5046FFF756FD09
:100EA0008548FFF753FD5046FFF750FD834B0193F4
:100EB0001B78002B00D1C9E00C270C230022804EA8
:100EC000B256BA4201DB013B33707E4B0024984698
:100ED0007D4B02AD99467D4B00969B460B2C00D96D
:100EE000A8E04246A300D3589F46019B1B78002BE5
:100EF00000D0AEE02A00764B43CB43C21B78754945
:100F00001370009B2A001B785BB2A3422DD0484689
:100F1000FFF75CFD0134BC42E0D15046FFF716FDFF
:100F20006D48FFF713FD5046FFF710FD6B48FFF7C4
:100F30000DFD07B0F0BCBB46B246A946A046F0BDC9
:100F4000674B1B78012B00D1A7E0022B00D1A8E052
:100F5000644B1021644A280007F0AEFE009B2A0073
:100F60001B7862495BB2A342D1D15846FFF72EFDF0
:100F7000D0E7019B1B78002B79D15D4B1021280015
:100F8000594A07F099FE5B49BBE75B4B1B78012B85
:100F900079D0022B00D188E0032B00D183E0574B9E
:100FA00072E0574B1B78002B65D1514B1021280064
:100FB0004D4A07F081FE5349A3E7534B1B78002BA2
:100FC00057D14B4B10212800474A07F075FE4F4977
:100FD00097E74F4B197818295DD88B004D4A5B185D
:100FE0009B009B58102128003F4A07F065FE4A49A4
:100FF00087E74A4B1B78002B43D1404B1021280038
:10100000474A07F059FE47497BE7474B1B78002BBF
:1010100035D1374B10212800334A07F04DFE4349A4
:101020006FE7434B102128001B68424A07F044FE3B
:10103000414966E7414B1B78002B1ED12C4B1021F8
:101040002800294A07F038FE3D495AE70A270A23B3
:1010500034E73C4B1B78052B21D83B4A9B009B581F
:1010600010212800204A07F027FE384949E7384B6D
:1010700084E7374BA6E7364B98E7354BDFE7344B31
:10108000C8E7344BBAE7344B10212800164A07F062
:1010900013FE324935E7324BA4E7324B59E7324B66
:1010A000DEE7324B55E7324BEEE7324BECE7C0461A
:1010B00098970008FC9A0008349B0008B21600209C
:1010C0009F16002080A70008C49B0008A49B00086E
:1010D000949B0008C49A0008EC9800082499000822
:1010E000B1160020949900086C9B0008E09A000853
:1010F00054990008A89A0008060000206899000882
:1011000004000020709A0008B0160020549A0008CD
:10111000D01A002098AF0008389A00080700002075
:10112000889B00081C9A000808000020009A00080C
:101130000C000020789B0008E499000810000020B3
:10114000C89900080500002000A90008AC99000813
:101150004C99000860990008709900088C9A000862
:1011600058970008A099000888990008A4990008D9
:101170008099000878990008F0B5DE465746454644
:101180004E46E0B59DB0FFF7C7FC684B9A461B780A
:101190009A1CD2B29046664A9346127852B24245A1
:1011A00002DB5A4601331370624E3000FFF7CEFB6C
:1011B0006148FFF7CBFB3000FFF7C8FB5F48FFF744
:1011C000C5FB3000FFF7C2FB4346002B4FD05C4B02
:1011D000002403935B4B0DAD04935B4B0796059383
:1011E0005A4B06932BE05A4B1E5D002E66D0594A8F
:1011F000594B944680227701FB189B696744D200C3
:10120000934200D38AE009A98946544A10214846EE
:1012100007F052FD5B461B785BB2A3425FD0504A99
:101220004B463C21019328003300009707F044FD12
:10123000290003980134FFF7C9FBA04516DD53468A
:101240001B78A342CFDC5A46127852B2A34248D050
:10125000944257D032220499280007F005FE013449
:1012600029000398FFF7B2FBA045E8DC079E300099
:10127000FFF76CFB00223B4B3B481978012901D159
:101280009969521820338342F7D19305990D1B0DAC
:101290005B18514609785B0A920A01393348FFF717
:1012A00095FB3000FFF752FB3148FFF74FFB1DB0B5
:1012B000F0BCBB46B246A946A046F0BD06210120BF
:1012C0002C4F09AB994600910300102148462A4A49
:1012D00007F0F2FC5B461B785BB2A3429FD1274A22
:1012E0009EE7944214D02B00069A43CA43C343CAD4
:1012F00043C343CA43C303CA03C311881980927806
:101300009A7095E73A222800059907F0ADFD8FE71E
:10131000372228001A4907F0A7FD89E79905980A9E
:101320008B0D090DC918490ACBE7C0460002002001
:101330009F16002098970008DC9B0008149C00086A
:101340008CA10008449D0008089D0008D89C000856
:101350000402002001C0000800C000084C9C0008E6
:10136000849C000820C0000800C80008789D000880
:10137000B89D00087C970008549C0008609C0008F9
:10138000A09C000810B50A48FFF7E0FA094B1B784B
:10139000002B04D0012B08D0022B03D010BDFFF787
:1013A00001FDFBE7FFF7E8FEF8E7FFF767FDF5E76C
:1013B0008C970008A0160020F0B5DE4657464E4632
:1013C0004546E0B5484A494B116885B0994231D04D
:1013D0000F239B460E3B9A46013399460023012773
:1013E000012601250024002001219C461033019391
:1013F0005A463F4B1A7052463E4B1F703E4B1E7072
:101400003E4B1D703E4B1A704A463E4B1C703E4B85
:101410001A7062463D4B1A703D4B019A18703D4B55
:1014200019703D4B1A6005B0F0BCBB46B246A946E8
:10143000A046F0BD137957799B46137A96799A4660
:10144000937AD5799946D37A547A9C46137B029342
:101450001369517B01930198244B804602984344C1
:1014600080465B44DB199B195B1953441B194B44A1
:101470006344434488465269434403919A42A7D146
:101480005B46182B01D90F239B467B1E9F41731E81
:101490009E416B1E9D415346FFB2F6B2EDB2032B47
:1014A00001D901239A46631E9C414B46E4B2052BA9
:1014B00001D9022399466146022200238A425B41F8
:1014C0006246029803995B421A40431E98414B1EA4
:1014D0009941019B9446043BC0B2C9B23C2B00D851
:1014E00086E71023019383E700F80108032C07BF68
:1014F000D01A002010000020080000200700002063
:1015000006000020B216002005000020B1160020C1
:10151000B0160020040000200C000020F0B5574653
:101520004E464546DE461E230022E0B58BB06B4496
:101530001A80374B364C0493364BA3461B789A4699
:10154000354B1B789946354B1B7898464246344BB1
:1015500011041B7852469C46324B1F78324B1E7842
:10156000324B1D78324B18784B461B0213436246B0
:101570000B43120613430593330229043B4302062F
:101580000B43134306932B4B19786B4619772A4B61
:101590001A786B465A77294B1B6808935B4453446F
:1015A0004B4443446344DB199B195B191B18244DBE
:1015B0005B189B182800182204A9099307F0ECFB7C
:1015C000002806D10BB0F0BCBB46B246A946A046E7
:1015D000F0BD03F0A1FE002369460093019301A82A
:1015E00001330295039303F00DFE00280CD1154E34
:1015F0002C00154D6E442100325900230220043482
:1016000003F0DCFEAC42F6D103F09AFEDAE7C04606
:10161000032C07BFD01A0020100000200800002073
:101620000700002006000020B21600200500002060
:10163000B1160020B0160020040000200C0000208D
:1016400000F801081008FEF718F8010802220B4BF9
:1016500010B51A700023FF21094A0A4813700A4A7C
:1016600013700A4A11700A4A7F3913700122094B1C
:1016700049011A70002204F0A9F810BDD11A002007
:10168000A0160020000800489F160020030000203C
:101690009D1600209E16002010B5A0B0302200211B
:1016A00014A807F087FB1022002102A807F082FB94
:1016B0001C2200210CA807F07DFB1822002106A89F
:1016C00007F078FB32231024139313A8313B1693B1
:1016D0001B9318931794199405F08AF80723002494
:1016E0000121029302A8043B03930494059405F09E
:1016F000A5FB80230CA89B020C93129404F098FF86
:101700008022A0210020D205C90405F025FB8021FC
:101710000C4B0905DA6906A80A43DA61DB69222263
:101720000B400193019B80239B050793064B069476
:101730000993202308940A920B9305F02FF820B008
:1017400010BDC046001002407FBB000030B587B01E
:1017500014220021684607F02DFB8021154D01223F
:101760002800C90004F032F8802128000122090174
:1017700004F02CF8FF2200240023694612020E48D0
:1017800000920193029403F07BFEC022002369467D
:101790002800920000920193029403F071FE00234E
:1017A000064A6946064800920193029403F068FED7
:1017B00007B030BD0008004800040048FFFF0000EB
:1017C0000010004830B583B0FFF7A8FE8025002246
:1017D000364B374C1A70ED00364B200029001A604A
:1017E00003F0F4FFA562344C2278182A53D89300F2
:1017F00032499B189B0059583148FFF7E7F8314BA5
:101800001B78002B10D0304B1B78012B4CD0022BB7
:1018100043D12E492E4B1B78052B43D82D4A9B00D4
:101820009A582D48FFF7D2F8FFF790FFFA239B0054
:101830000193019B5A1E0192002BFAD180210022B4
:101840002648C900019B03F0C1FFFA239B000093C7
:10185000009B5A1E0092002BFAD12078009BFEF7C5
:10186000E7FF8021002249011C4803F0AFFF0A2056
:1018700005F0C0FB802580210D4CED0001221748AA
:10188000490103F0A3FF00222900200003F09EFF7E
:10189000A56203B030BD1249AEE70D4B11491B786C
:1018A000052BBBD9104ABCE71049B3E7D11A002079
:1018B00000140048AC160020D01A002098AF000891
:1018C000F09D0008B2160020B1160020A49900086F
:1018D0000500002000A900082C9E00080008004810
:1018E000589700089499000888990008A099000862
:1018F00070B50D00012680211B4A03041B0C82B029
:101900005361020C040032401848490003F05EFFA6
:101910008021620C15483240890003F057FFFF21F7
:10192000134B2D025A6911481140294359618021F6
:101930000022090103F04AFF0A230193019B5A1E6A
:101940000192002BFAD18021012208480901019B54
:1019500003F03CFF0A230093009B5A1E0092002BC9
:10196000FAD1009B02B070BD00100048000800488A
:101970000004004830B5802101251D4A03041B0CDA
:1019800085B05361020C04002A401A48490003F054
:101990001DFF8021620C17482A40890003F016FFC2
:1019A0000A230393039B5A1E0392002BFAD1802132
:1019B00000221048C900039B03F008FF0A2302938A
:1019C000029B5A1E0292002BFAD16A468021029B8A
:1019D000094BD41D1B6907481B0ADBB2D371C90030
:1019E000012203F0F3FE2078C0B205B030BDC0463E
:1019F000001000480008004800040048F8B50E0038
:101A000005004027224C234A2368AA211B041B0CF3
:101A1000134323602048FFF76BFF55211F48FFF752
:101A200067FFA0211C48FFF763FF31002800FFF784
:101A30005FFF23681A4E1B041B0C23602800FFF76E
:101A400099FF04002800FFF795FF444027420FD07C
:101A5000013E002EF2D12800FFF78CFF0400280081
:101A6000FFF788FF604007420FD001267642E5E786
:101A70002800FFF77FFF04002800FFF77BFF4440AA
:101A8000274202D0013E002ED8D10020F8BDC0462A
:101A9000000400480000555555550000AA2A0000D2
:101AA00050C3000070B54026264C274A2368AA215F
:101AB0001B041B0C134323602448FFF719FF552117
:101AC0002348FFF715FF80212048FFF711FFAA21C7
:101AD0001E48FFF70DFF55211D48FFF709FF102194
:101AE0001A48FFF705FF23681A4D1B041B0C2360DF
:101AF0000A20FFF73FFF04000A20FFF73BFF4440A6
:101B000026420FD0013D002DF2D10A20FFF732FF0F
:101B100004000A20FFF72EFF604006420FD0012587
:101B20006D42E5E70A20FFF725FF04000A20FFF7D2
:101B300021FF4440264202D0013D002DD8D1002093
:101B400070BDC046000400480000555555550000C2
:101B5000AA2A0000404B4C00D0B586B014220021C8
:101B6000684607F027F98021154C01222000C900A2
:101B700003F02CFE802120000122090103F026FE43
:101B8000C02201230026012769462000920000920E
:101B900001930296039703F073FC0123094A6946F7
:101BA0000948009201930296039703F069FC0749E4
:101BB000074A0B681B041B0C13430B6006B0D0BD17
:101BC00000080048FFFF0000001000480004004823
:101BD00000005555F0B55746DE464E464546E0B541
:101BE000CFB00F1E0290039201D1002070E10123BB
:101BF000D04A05E00133DBB22032402B00D17AE13C
:101C00001178FF29F6D15BB2059300250320C94B5B
:101C1000C94902E020338B420DD01A78012AF9D14C
:101C20005A699C691219033282439542F2D22033D9
:101C300015008B42F1D198227B195202934200D8B1
:101C4000B1E00020BB4BBC491A78012A01D19A6946
:101C5000801820338B42F7D1982338185B029842C2
:101C6000C3D84EAB9B4680239B0200259946032395
:101C70000FAC04979A462700A846AE4E019403E0A5
:101C8000043720365F4529D03378012BF8D14346FD
:101C90003B60A94B75699C466544FFF75DFFB369DE
:101CA0000024002B0FD03B0037004E469946295D9B
:101CB0003019FFF7A3FEBB690134A342F7D84B46A6
:101CC000B1463E001F005246B36904379944B369D8
:101CD00020360333934398445F45D5D1049F019C3C
:101CE00003F01AFB002300220993934B09A90A92DF
:101CF0000B9326230AA80C9303F084FA8D4B4546D8
:101D0000984680239B02079701934746069503E078
:101D1000043420375C4540D03B78012BF8D1FFF7E5
:101D200015FD802100228548C90003F04FFD824A3D
:101D3000236890469844BB690022002B23D0804B37
:101D4000C1469A463B001700984604943D00002483
:101D5000002643469B69FF209D4200D2DAE0A04066
:101D6000083406430135202CF3D14B463200F918D4
:101D70000220002303F022FB43469B690437BB4249
:101D8000E4D84746049C019ABB6994469C44634648
:101D90000434019320375C45BED1069D079F03F0B4
:101DA000CFFAFEF721FF644B9A46AA445346DB0A5A
:101DB000DB029B46634BFC185B466419E40AE402B1
:101DC000E41AE40A03F0A8FA002C00D1AFE0802363
:101DD0001B015B449846E4024444A1463A000EAC21
:101DE0004F46A8461E00250059461C0091460B0090
:101DF00002E004339E420CD01A680132F9D000236D
:101E00000A932B60013369602800AB600AA903F0D4
:101E1000F9F980231B019C4666442100BE4201D093
:101E20006444E4E72C004F464546FFF78FFC8021D1
:101E300000224248C90003F0C9FC00239846404BE9
:101E4000A34699460195464600250024FF20BE4240
:101E500045D3A840083504430136202DF6D151461C
:101E6000002341442200022003F0A8FA04239C46E8
:101E7000E04400264745E6D85C460123237008ABC2
:101E80009C4619200F2260440299019D06F0ABFF89
:101E90003422039B267463742B4B66826561E66172
:101EA000A761DA60059B16AE5D01284B2D1B9C4691
:101EB00065442268291900230220043403F07EFAC5
:101EC000A642F6D103F03CFAFEF726FE6B46187DDB
:101ED0004FB0F0BCBB46B246A946A046F0BDFFF7E6
:101EE0003BFE4B464A461B6830001B041B0C13602C
:101EF000FFF740FDADE7FEF777FE01230D4A05E051
:101F00000133DBB22032402B00D16EE61178FF297D
:101F1000F6D178E6FFF720FE534652461B681B04B5
:101F20001B0C1360019BE818FFF724FD17E70EACAC
:101F30007BE7C04620C0000800C800080008004831
:101F400000040048FFCF00080020024000C0000845
:101F5000F0B54E464546DE465746E0B587B01C0014
:101F600010AB1B780E008046111E019300D1F4E0E7
:101F700032007E48FEF72AFD802100227C4849017C
:101F800003F024FC80210122C9007A4803F01EFCE2
:101F90007948FEF7DBFCFFF7DFFDFFF783FD7748AD
:101FA000FEF7D4FC04AB9A465146754B1A6804926E
:101FB0009A888A809B798B71002C2DD08023B51D47
:101FC000DB029D4200D977E0092D28D90A2128009B
:101FD000FEF79AF8814653469B1B9B46694B642744
:101FE0000093330000244E46994610E04346195DA5
:101FF00020000134FFF702FD31002000FEF70AF94E
:10200000002960D0AC426DD06437AC4268D2A145A3
:10201000ECD85B46195DEBE73500092DD6D8002DCD
:1020200000D09FE05848FEF791FC5848FEF78EFC20
:102030005748FEF78BFC019B0125002B00D188E05F
:102040005448FEF783FC802100224A48C90003F06F
:10205000BDFBFFF77BFBFA239B000393039B5A1EF8
:102060000392002BFAD1802100224148C900039B32
:1020700003F0ACFBFA239B000293029C631E0293C5
:10208000002CFAD18021002249013948029B03F03B
:102090009DFB0A2004F0AEFF802101223448490153
:1020A00003F094FB3C4B1C70280007B0F0BCBB460F
:1020B000B246A946A046F0BD0A213000FEF724F83A
:1020C0003500814687E729003800FEF71DF82B0010
:1020D000010022000098FEF779FC6437AC4296D3E9
:1020E0004E460BE029003800FEF70EF8254C0100A3
:1020F0002B002A0020004E46FEF768FC2248FEF71F
:1021000025FC53469B1B00249A460AE043462000C8
:102110001F5DFFF72FFC87420CD10134AC4200D188
:1021200083E7A642F2D8534620001F5DFFF722FC4A
:102130008742F2D0194D03003A0028002100FEF733
:1021400045FC1348FEF702FC019B0025002B00D044
:1021500076E71348FEF7FAFBA6E731001148FEF7D1
:1021600035FC09E70123994635E7C046609E000823
:1021700000080048001400489C9E0008AC9E00081F
:1021800060990008B49E0008DC9E0008289F0008A3
:10219000309F00085C9F0008D11A0020F09E0008C4
:1021A000789F0008809E000800B5104883B0FEF7B5
:1021B000CDFB01230E4A00930E4900230E48FFF782
:1021C000C7FE00230D4A13700D4A13600D4A1360B9
:1021D0000D4A13600D4A13700D4A13800D4A138087
:1021E00000220D4B1A7003B000BDC046A89F000826
:1021F000D89F00087D06000018A900084D020020A5
:102200005C02002058020020540200204C020020F2
:10221000620200206002002044020020F8B500287D
:1022200008D03F2805D8304B4001C5182B78012B2A
:1022300005D0F8BDFFF7B8FFFFF7C4FAF9E72B4B5D
:1022400080219C46AF696E69002229484901664495
:1022500003F0BCFAFFF780FCFFF724FC002F07D047
:1022600000242000315D0134FFF7C8FBA742F8D1FC
:10227000204B1B78002B1ED1FFF768FA802100222B
:102280001B48C90003F0A2FA802100224901184826
:1022900003F09CFA0A2004F0ADFE802101221448CC
:1022A000490103F093FA3A001348691CFEF78EFBCC
:1022B000FFF788FABDE75B213800FFF79FFB2D2170
:1022C000781CFFF79BFB5D21B81CFFF797FB2B21C8
:1022D000F81CFFF793FB5B21381DFFF78FFB5D2197
:1022E000781DFFF78BFBC7E700C0000800C8000897
:1022F0000008004807000020F09F000810B52E4895
:102300008AB0FEF723FBAE2385212C4C9B00E058BE
:102310002B4A89004358002B49D100230193019B8C
:10232000284A934205DC019B01330193019B9342B0
:10233000F9DD200005F0D4FD200005F0ADFD802181
:10234000214B89025A6906A80A435A615B690C222B
:102350000B4002930021029B06F02CFD802290206E
:102360000123520104A9C0050492059303F088F8E3
:102370008021902000224901C00503F027FA0023A4
:102380000393039B114A934205DC039B01330393A0
:10239000039B9342F9DD0E4B0E4A1A60BFF34F8F39
:1023A0000D4B0E4ADA60BFF34F8FC046FDE7013A8E
:1023B000002AAFD1B1E7C0461CA00008401B002096
:1023C000400D03001FA10700001002403F420F0014
:1023D000F03F0020EFBEADDE00ED00E00400FA05A6
:1023E00070B5724D04002B78002B05D1052807D855
:1023F0006F4B84001B599F46012B02D0022B27D024
:1024000070BD0B28FCD86B4B84001B599F46FEF710
:10241000D3FFFFF7D7F9F3E7022300222B70664BB7
:102420001A70664B01321A70EAE700210122624BF2
:102430002A701970614B1A70E2E76148FEF786FA5C
:10244000FFF7B2FEDCE7FFF769F8FFF7BBF9D7E764
:10245000FEF762FB5B4B1B78A3420AD876D00023C1
:10246000554A2B7013700122544B1A70C8E7FFF7BE
:1024700045FF554B185DFFF7D1FEC1E7534A13786E
:1024800059424B411370BBE7514A137800296EDD66
:10249000032101330B401370B2E74E4A13785942BF
:1024A0004B411370ACE74C4A137859424B411370BF
:1024B000A6E74A4C2078002953DD03210130FDF7BF
:1024C00093FF21709CE7414B1B78002B10D0444CAC
:1024D0002078002964DD06210130FDF785FF217099
:1024E0008EE7404A137859424B41137088E7002326
:1024F00001222B70304B1A70304B1A7080E73A4B28
:102500001878002925DD19210130FDF76DFFC8B2CB
:10251000FEF78EF974E7354A137859424B41137030
:102520006EE7334A137859424B41137068E7314ADA
:102530001368002920DD042B29D0082B2DD0102B67
:1025400028D0202B20D00423136059E7FEF7F6FB98
:1025500056E719211830FDF747FFC8B2FEF768F9B2
:102560004EE703210230FDF73FFF217048E70321CA
:1025700003330B40137043E7402B0BD0202B0CD0C0
:10258000102B04D0082BDED04023136038E708233B
:10259000136035E72023136032E7102313602FE721
:1025A00006210530FDF720FF217029E7A016002045
:1025B000B0A70008C8A700089F1600209E1600209C
:1025C00050A000080002002004020020B2160020E3
:1025D0000600002004000020B0160020B1160020E4
:1025E0000500002010000020D01A00200700002065
:1025F000080000200C00002070B590260400012582
:10260000F605C2098021300003F0E0F8A20930008D
:102610002A40402103F0DAF8620930002A402021E4
:1026200003F0D4F8220930002A40102103F0CEF83C
:10263000E20830002A40082103F0C8F8A208300060
:102640002A40042103F0C2F8620830002A40022127
:1026500003F0BCF82A0030000121224003F0B6F854
:1026600070BDC046F0B557464546DE464E46E0B51D
:1026700007000D0095B0042906D90522B44906F0DB
:10268000A1FB002800D170E029003800B14AFEF714
:102690005DF800285DD129003800AF4AFEF756F8F2
:1026A000002856D129003800AC4AFEF74FF8002820
:1026B0005FD129003800AA4AFEF748F8061E58D113
:1026C000A84C23789846002B00D08DE0A64B1B78B1
:1026D000002B65D0A54B1B68AB4261D8A44B1B787F
:1026E000002B00D178E2002D36D002239946A14B71
:1026F0007E1E380000219C460127A24676190378E9
:102700003E2B16D82A2B1BD91A0065462B3AD2B27B
:10271000D5402F4214D004AA4D1C5354864200D1F8
:10272000ABE20130402D00D104E2037829003E2BBA
:10273000E8D91A004C465B3AA243D2B2002AEAD04A
:10274000864200D134E20130D9E720229343432B63
:1027500002D10122884B1A700126300015B0F0BC5E
:10276000BB46B246A946A046F0BD0122834B1A7073
:10277000F2E702227B4BFF211A700023804A814836
:102780001370814A1370814A1170814A802113703D
:102790000122804B49011A70002203F017F8DBE791
:1027A0007D4B1B78012B64D0022B00D12EE1032B33
:1027B00000D184E1794B1B78002B07D0784B1B7834
:1027C000002B00D037E1012D00D1E4E1002DC3D072
:1027D0003878FFF711FF012280216A4802F0F6FFE6
:1027E0000122704B1A70B7E7022B00D1E6E0032BF1
:1027F00053D0012BB0D104F0F7FB42466A4B18606E
:102800006A4B1A705A4B1B78002B00D1EFE1002D58
:10281000A2D002239946574B7C1E380000219C46CB
:102820000127B046641903783E2B16D82A2B1BD9F2
:102830001A0065462B3AD2B2D5402F4214D004AAD2
:102840004D1C5354844200D171E30130402D00D11E
:102850004EE2037829003E2BE8D91A004D465B3A38
:10286000AA43D2B2002AEAD0844200D106E3013062
:10287000D9E7042D9ED138781B28AAD17B785B2B11
:10288000A7D1BB78352B00D1D3E3362BA1D1FB7870
:102890007E2B9ED1FEF7F6F85EE7454E3378002B8F
:1028A00000D0ECE0002D00D156E7424A7B1991465A
:1028B00000229046083292464A46380000253E499A
:1028C00002960394019221E07F2A2BD01400203C31
:1028D0005E2C17D80C78A4460E2C13D8012466461B
:1028E0006444E4B2A1460C70324CA255A3460024C5
:1028F000A4464E465C466746A7553F2D02D804AC19
:10290000625501350130834200D189E202781B2AE9
:1029100000D174E20D2A00D152E10A2A00D14FE120
:10292000082AD1D10A78002AECD04446019E013A07
:10293000D2B20A70B454EA1C3F2AE3D8564604AC1B
:10294000A4466655202465446C70AE701500D9E726
:1029500078A0000880A0000888A0000890A00008C7
:1029600098A00008D11A0020100000200C000020C0
:10297000B01600200F000A00721600207316002007
:10298000A0160020000800489F1600200300002029
:102990009D1600209E16002006000020B216002082
:1029A000B1160020CF1A0020500200204D02002056
:1029B0009C1600208C16002088160020002D00D1C7
:1029C000CAE6AF4C2378002B00D1D4E1012B00D113
:1029D0001EE20621022B00D13DE23B78012D0AD0F8
:1029E0000023FA5C202A02D0092A00D07FE00133BC
:1029F0009D42F6D1B0E6202BF2D10022A14B9A568F
:102A0000A14B1A700122A14B1A70A5E6032D00D02C
:102A1000D0E638781B2800D0DBE67B785B2B02D031
:102A20004F2B00D0D5E6BB78412B00D106E3422BDB
:102A300000D0CEE62EE7012B00D1B1E0022B00D072
:102A4000C4E6012D00D0C1E638780D2802D00A284E
:102A500000D0BEE604A90A008D4B31CB31C231CB88
:102A600031C28C4B64201B78052B01D89B00585831
:102A700072B6894A13681B18136062B66CE6337825
:102A8000022B00D120E23378032B00D1A0E1337870
:102A9000042B00D060E6002D00D15DE63B78202BB2
:102AA00009D000D951E60D2B05D01B2B00D150E6E3
:102AB0000A2B00D050E60122784B1A704CE6012D0B
:102AC00000D083E638782B2800D1B7E22D2800D13A
:102AD000E0E6734B1B78002B00D17AE6714B1B7834
:102AE000002B59D0012B5FD0022BAED071E6AB4248
:102AF00000D331E6FE181B2A00D146E12578002DCF
:102B000000D055E11300313B042B00D881E2302A7C
:102B100000D1CDE1202311009943512900D1C7E113
:102B20000D2A00D140E20A2A00D13DE2202A00D03D
:102B300012E662E7904654468021012701225A4856
:102B4000C900277002F042FE802100224901574847
:102B500002F03CFE0023564C564E574A2360336029
:102B60001360564A1770564A1370564A1380564AD5
:102B700013800022554B1A7004F036FA544B2A0089
:102B800018604146534806F06FF953482560356098
:102B9000FDF7DCFEE0E53878202800D019E659E79B
:102BA000012D00D012E63878092800D011E651E74F
:102BB0005446002900D1CFE504AB0D009846BBE791
:102BC000464D029E2878002800D14BE1444C00235A
:102BD000235401333370BFE5402D00D9402504ABA9
:102BE0002A0039001800984606F03EF9A4E7344B55
:102BF00099461B78002B00D183E0002D00D105E21F
:102C000080230020BB46B046DB029C462E49354B54
:102C1000284C2C4A019102932368634515D21388EE
:102C2000019901330E889B059B0D9E420DD059469C
:102C30001688B6B2B1460E5C0299B2464E46574669
:102C40008F55138023680133236001308542E3D818
:102C50004646019910880B88984200D2F2E012880B
:102C60000B88D21A92B2204B9B1A9BB27F2B00D9B1
:102C700072E501221D4B1A706FE55446290098E752
:102C8000A01600209F160020030000200200002054
:102C90004097000805000020AC16002074160020A4
:102CA000B2160020B11600200014004800080048A9
:102CB0005C02002058020020540200204D02002037
:102CC0004C0200206202002060020020440200202A
:102CD0005002002064060020A0A0000888160020F2
:102CE0008C16002064020020FF030000D425002081
:102CF00046469046D34B474699461B78002B00D05A
:102D00007EE78022D04B52019A461B68EB18934213
:102D100000D8BBE053461C68131B9846A24200D063
:102D20005AE101234A461370C84B9C466444641917
:102D3000002C9ED043463C19C549F818C54FB446EF
:102D40008A46B946C44AC54D4444514613880E8844
:102D500001339B059B0D9E4208D049461688077893
:102D6000B6B28F5513802B6801332B60013084423B
:102D7000EBD166467DE73B78012D01D006212FE699
:102D8000202B00D139E606212AE60233AB4206D2D7
:102D900072785B2A00D1F0E04F2A00D1EDE0237871
:102DA000013B012B00D887E00122AD4B1A70D3E420
:102DB000012D00D1BEE0022D00D0B1E61300303B62
:102DC000DBB2412B00D9ABE6A6499B00CB589F460E
:102DD000002D00D1C0E43B784E2B00D10EE100D88D
:102DE000ECE06E2B00D109E120229343592B00D057
:102DF000B2E401229C4B1A709C4B1A70ACE4022383
:102E0000039C9B4A2370137001229A4B1A70A3E40F
:102E1000994A11784A425141494299430C31DCE5C3
:102E2000002D00D198E4AE22944B92009A5885234D
:102E30009B00D358002B00D08EE4A9B204A805F063
:102E4000E1FC89E412880B888021C9008C46624429
:102E5000D21A92B207E7FDF75FFE894B197802316B
:102E6000C9B2BAE5874C10228749200005F0BBFFA4
:102E70002000FDF703FCC0B22870A8E646460029F2
:102E800000D169E404AB0D00984633E75346186857
:102E90007E4B2A00C018390005F0E6FF5346524623
:102EA0001B68EB1813606D4A1368EB18136053E44A
:102EB0000522774B1A70A3E50023754A237013701F
:102EC00001226C4B1A7047E404F08EF8714B1860C5
:102ED000002D00D140E48023DB02984602236E4E91
:102EE00099466E4C7D1903E00137BD4200D133E4B1
:102EF00033783978002B0AD03E2910D82A29F3D903
:102F00000A00674B2B3AD2B2D340DB07ECD52068DE
:102F10004045E9D2431C2360FEF770FDE4E70B0057
:102F20004A465B3B9343DBB2002BDDD1EFE74646DD
:102F30002900A4E71300313B082B00D8D1E04E4B09
:102F40001B78002B08D0202311009943412900D180
:102F5000D6E0422900D1E1E0302A05D0202311003B
:102F60009943512900D0DBE5002301222370484B0F
:102F70001A70404B1A70FFF7EFFBFB5C412B00D13E
:102F8000A1E0422B00D195E0432B00D135E5442B45
:102F900000D004E700223E4B9A56424B1A70FF22A3
:102FA000414B1A70FFF7D8FB04F01EF83F4B1B682B
:102FB000C01A642801D8FFF7CFFB1EE50A3BDBB23D
:102FC000162B01D9FFF7C8FB394ADA401300DB079B
:102FD00000D50EE7FFF7C0FB534618682B4B42465F
:102FE000C018390005F040FF534652461B68434461
:102FF00013601A4A13684344136092E600221A4B86
:103000001A701A4B01321A70FFF7A6FB124A1049C8
:1030100020E603F0E9FF254B1D4A18603378313B69
:103020005BB213701F4A137001221F4B1A70FFF717
:1030300093FBFB787E2B01D0FFF7CBFBFDF7D8FC91
:10304000FFF78AFB4C0200205C02002000F0FFFF2B
:10305000600200206402002062020020580200206A
:103060009D160020F8A7000875160020761600208F
:10307000A01600209E160020B2160020401B002043
:10308000000200208C160020DCA00008640600204E
:103090009F160020801600200400002084160020C7
:1030A0000F000A000300002002000020FC010020A5
:1030B000090040002D4A137801335BB28B4200DADD
:1030C000FDE60023FBE6294A1378013B58B21B06B4
:1030D00001D5481E40B210700122254B1A70FFF72F
:1030E0003BFB03F081FF234B204A18603378313BD0
:1030F0005BB21370204A1370204B1D70FFF72CFB3E
:1031000009221A4B1A701C4B1A701C4B1D70FFF7CA
:1031100023FB01221A4B1A70FFF71EFB0A22134BE6
:103120001A706DE4114B174A1B7812785BB2934208
:1031300001DBFFF711FB144AD256144B1A70FFF74C
:103140000BFB0A4B0F4A1B7812785BB2934201DBF0
:10315000FFF702FB0C4AD35C002B01D1FFF7FCFA0E
:103160000B4A5BB21370FFF7F7FAC0469F160020B8
:103170009E160020FC010020030000200200002019
:10318000771600200002002004020020000000202A
:1031900001000020F0B5DE4657464E464546E0B5F4
:1031A0000126B9B002AF03F003FF0321FD4DFE4A33
:1031B000AB6989463343AB61AB6900243340BB67DD
:1031C000BB6F13688B431360FEF766FA78204C23BD
:1031D0001B1814220021D81905F0ECFD80226B6920
:1031E000920313436B616B69F0481340A022B91836
:1031F0000B600B0080221B686B69D20313436B6169
:103200006B691340A422B9180B600B0080221B6865
:103210006B69120313436B616B691340A822B918E1
:103220000B600B0080221B686B69920213436B6179
:103230006B6992461340AC22B9180B600B008022D8
:103240001B686B69D20213436B616B691340B02238
:10325000B9180B600B0080221B686B695203134383
:103260006B616B691340B422B9188022D20090467A
:103270000B600B00002241461B6802F0A7FA0122F6
:10328000CB49CC4802F0A2FA90200022FF21C005D1
:1032900002F09CFA84210022C648490102F096FA05
:1032A000C423C54AF9180A60C8217A181460CC22D0
:1032B0007820783BBA1814601A18D119BF4802F068
:1032C000DFF8C4234046FA181060C821CC227918D0
:1032D000BA180E601460D0227820B918783B0C60C0
:1032E0001918C919B14802F0CBF8C4230222F91801
:1032F0000A60C821B2487918086083467820CA322B
:10330000B918783B0E601918C919AA4802F0B8F824
:10331000C4230420F9180860C821083379180E6006
:10332000D022F9180C604946B81801607820803B1B
:103330001918C9199F4802F0A3F8C4220823B91824
:103340000B6059460432B81801607820C433F9186C
:10335000803B0C601918C919964802F091F8C423F3
:10336000FF21CC22F8180160373978180660B818A8
:1033700004320460B81806607820783B1818C11928
:103380009020C00502F07CF8C4231020F9180860D2
:10339000C8218346083378180460F818066078203E
:1033A000803B1818C119834802F06AF8C4226023D0
:1033B000C821B818036078186C330460C23AF81852
:1033C00002607820803B1818C1197A4802F058F83A
:1033D000C4237949F8180160C821CC227818046008
:1033E000B81804607820783B1818C119754802F0A5
:1033F00047F8C4238421F81849010160C821083323
:1034000078180660D022F81804607820803BBA183B
:1034100014601A18D119674802F032F8C422C02388
:10342000B818C8219B000360CC2378180460F818F2
:1034300004607820803B1818C1195E4802F020F81B
:10344000C4228023C821B8185B000360C23A7818F0
:1034500002604A46343BF81808310460781802606C
:103460007820D132803BBA1814601A189020D219F3
:103470001100C00502F004F8C023C422C8211B01BA
:10348000BA181360CC2378207A180831166079189E
:10349000FA18803B14600E601918CA1911004548CB
:1034A00001F0EEFFC423FF21FA181160C82208338F
:1034B000BA18FB18146078201C604C231A18D11914
:1034C000414801F0DDFF00220021052001F03AFE15
:1034D000052001F061FE00220021062001F032FEED
:1034E000062001F059FE52466B69542013436B616C
:1034F0006B6900211340FB67FB6F7823C0180C2217
:10350000C01905F057FCC42180227B1852011A60B3
:1035100078204C231B189020043192467A181660AC
:10352000D919C00501F0ACFF902000225146C0051A
:1035300002F04CF9642003F05DFD90205146C00577
:1035400002F0AAF805F008F9782040231B180C2295
:103550000021D81905F02EFC1C4A1D4B04201360D5
:1035600080235B029361C2235946FF33D3619E3BA4
:103570005061FF3B100093469160D454FA60546050
:10358000D46016611462946201F014FCB8210A231D
:1035900079180B605146B233FB181960C0234946B5
:1035A000FB1817E000100240000001400014004822
:1035B000040C000000080048FFFF00000010004855
:1035C0000000211000040048000C0048D41A00201C
:1035D000002401407822196040239B18D9195846CD
:1035E00001F01EFD8022AB6912011343AB61AB6990
:1035F000E4481340B822B9180B600B00E0221B68A6
:10360000E14BFF321C609A62783AFF3ADE625E63F9
:103610009A61802212021E625A64802241461A6018
:103620007F3A02F0D3F8502003F0E4FC0022414638
:10363000D44802F0CBF8D54B1C70FB64D44B1C6013
:103640009A46D44B1C607B62D34B1C609B46D34B89
:103650001C70BB60D24B1C60FEF778F8FA238C22FA
:103660009B00BA1813608C217B181B6879185A1EAE
:103670000A60002BF7D10B0080210022C948C90045
:103680001B6802F0A3F8FA2388229B00BA18136083
:103690008822BB181C68BA18631E1360002CF7D16F
:1036A00080211300BF48012249011B6802F08EF8F7
:1036B00080210022C900B34802F088F8BA4B7B672A
:1036C0001C70FDF779FEFDF729FBB84B1878FB63FA
:1036D000FDF7AEF81021B34802F072F8B44B187041
:1036E000FB65B44B3B67187003F07EFCB24BB34AEA
:1036F00018609C46B24B3A611C60BB64B14B1C70B5
:103700003B63B14B1C70BB63B04B1C707B64B04B14
:103710001C607B60AF4B1C603B60AF4B1C60146057
:10372000AE4A1470FA62AE4A7A631470AD4AFA6116
:103730001480AD4A1480BA61AC4A1100BA6200220A
:103740000A70AB4A7A651278002A00D015E2A94ABD
:1037500061467A66A84AB966FA66A84A7B61BA6584
:10376000A74A3A655A46D34692467B6E1B78002B91
:1037700000D0F9E210218B4802F022F83A6F13785A
:10378000834204D0107003F02FFCBB6E186003F06E
:103790002BFCBB6E1B68C01A222800D80EE23B6FC0
:1037A000FD6D1C782B78A34214D02C70002C00D017
:1037B000E8E103F019FC8021BB6C002218603B6B30
:1037C00078481C70BB6B49011C707B6C1C7001F04D
:1037D000FDFF2C78002C00D1F5E17B6F1C78022CCA
:1037E00000D10BE2032C00D13AE2012C00D162E2BD
:1037F000FB6E1B78002B21D053461A685B461B6872
:103800009A4200D26EE253465A461B6812689B1ACF
:103810009BB280229200934210D20023FA6E137062
:10382000784B1A78784B1B78002A00D16CE3002B78
:1038300004D1554A013311680B4313607B6F1B7829
:10384000002B50D15B461A6853461B689A424AD0F7
:10385000AE236E499B00CA58A43BD458002C42D1D9
:1038600053461D685B467A6A1B6813605B461B689B
:10387000AB4200D35DE35B461B68EB1A3B2B01D8E0
:1038800000F0B9FD5B461868614B3C21C01804F09C
:10389000B9FF5B465A461B683C331360FB6E1B78CE
:1038A000002B20D053461A685B461B689A4201D20F
:1038B00000F0AEFD53465A461B6812689B1A9BB235
:1038C0008022920093420ED20023FA6E13704D4B69
:1038D0001A784D4B1B78002A01D100F005FF002B10
:1038E00001D100F033FF72B67B6FFA6C1B7812784F
:1038F000134300D185E262B6BB6D1B78002B00D06C
:103900009BE23B6D1B78002B00D0F6E17B6F1B78B0
:10391000002B00D02CE13C4A1278002A00D127E18C
:103920003C4A1168002900D122E172B61168136087
:10393000894662B6334B1B78002B01D000F06CFE39
:10394000354A364953683648096803400B4353608B
:10395000FA6B344B117834488A00521892009B1845
:103960005C684B46844200D89EE0642B00D99FE0FF
:1039700001204B46002B00D1F5E00124032855D946
:10398000840853E000140048002C0140CF1A0020A6
:10399000C4160020C0160020BC160020CC1A00203F
:1039A000C81A002000080048D11A0020D01A0020B0
:1039B00071160020701600206C16002050020020A6
:1039C0006816002066160020651600206416002088
:1039D0005C02002058020020540200204D0200200A
:1039E0004C020020620200206002002044020020FD
:1039F0007316002072160020B4160020D21A002080
:103A0000A8160020B3160020B2160020401B00208C
:103A1000C8160020AC16002000100240B816002086
:103A2000FFFFFF8098AF0008006CDC0200255E46B7
:103A3000B94B3B660023802204E0C0468022BB18BD
:103A40001B680133B9180B600B689C42F5D85346CC
:103A500032681B689A4222D0AE233A6E9B00D2583D
:103A6000A43BD3589846002B19D153461B683268A3
:103A70009A4201D300F08EFE3C21326888469A1AA1
:103A80003B2A03D832689B1A9BB29846A34B3068F6
:103A90004146C01804F0B6FE336843443360013534
:103AA000A945C7D1B3465EE0642B01D800F02AFED9
:103AB00000239B4A48460021FCF7BCFC220000235F
:103AC000FCF798FC041E00D10134934B5D469846E8
:103AD0008023DB00994656462100642C00D96421DE
:103AE000842000233818036084203B184A001B6898
:103AF00052188C4652009A420AD9C04684203B187C
:103B00001B68391801330B600B689342F5D361468B
:103B10002A683368641A9A4221D0AE2342469B0039
:103B2000D258A43BD3589A46002B18D133682A6840
:103B30009A4201D300F0E8FC3C212A688A469A1A8E
:103B40003B2A03D82A689B1A9BB29A46734B286873
:103B50005146C01804F056FE2B6853442B60002CCD
:103B6000BAD1AB46B2466F4A6F4953680B405360B7
:103B70007B6D1B78002B00D1F7E500237A6D137065
:103B8000FEF7BCFB03F030FABB6C1A687B6C1B7849
:103B9000002B04D1654B801A984200D8C0E3FEF791
:103BA00003FB00233A6B1370BA6B13707A6C1370BB
:103BB0007B6F1B78002B01D100F036FCFB6D1C786D
:103BC000002C00D009E603F00FFABB6C1B68C01A8A
:103BD000564B984200D885E17B6C01341C70322131
:103BE000FCF792FA8022524BD200044200D089E1C5
:103BF0009A627B6F1C78022C00D0F3E54D4A137853
:103C0000D9B2002B00D08BE14B480378DAB2002BFD
:103C100000D039E349490B785BB2002B00DA58E356
:103C2000FF230C780B70631E65B23E2B09D8444B02
:103C30006D019C4665442B78DEB2012B01D100F06A
:103C40008CFD21003F48FCF7C1FE9620400003F0A8
:103C5000D1F9FDF797FB7B6F1C78032C00D0C4E5EE
:103C6000394D2B78012B00D115E32B78022B00D195
:103C70007CE22B78032B00D19EE22B78042B01D120
:103C800000F06AFC2B78052B00D0B1E52F4B304DAE
:103C9000304C296820001A78FDF79CFF011E01D1E5
:103CA00000F02CFE2C4E220030002B68FCF78EFE1C
:103CB0002A4800F07EFC7B6B1B78DCB2002B00D026
:103CC0004CE1FB6A1B78002B00D0B5E2FB6E1B7841
:103CD000002B00D107E653461A685B461B689A42E0
:103CE00000D390E5802153465A46C9008C461B6894
:103CF000126863449B1A9BB28BE503F075F9184B6D
:103D00001B68C01A174B984200D8FFE500233A6D94
:103D10001370FDF703FCF9E5401B0020C8160020D6
:103D200040420F0000100240FFFFFFF00F2700008D
:103D3000001400489D160020771600200100002086
:103D400000C000086CA100089C16002004000020A0
:103D5000841600208C160020C4A30008DC05000097
:103D6000A4160020B70B0000802100247B6E0122E6
:103D7000AB48C9001C7001F029FD802100224901D7
:103D8000A84801F023FD0A2003F034F98021012224
:103D90004901A44801F01AFD3C2003F02BF98021D1
:103DA0000022C9009E4801F011FD9F4B1C60FC6B76
:103DB0002078FCF73DFD2178182900D9B7E08B0069
:103DC0005B189A4A9B0099589948FCF7FFFD994B5C
:103DD0001B78002B00D1CDE4974B1B78012B00D131
:103DE000AFE39649022B00D003E3954B1B78052BDC
:103DF00000D9CCE1934A9B009A589348FCF7E6FD22
:103E0000B8E462B64021874801F0DAFC8F4B1870A5
:103E1000002800D1BDE172B68D4B1869C0B2FEF723
:103E2000EBFB012280217F4801F0D0FC62B662B634
:103E3000BB6D1B78002B00D163E56B463B62854B65
:103E400080219C46E54402AB0022764849013B6450
:103E500001F0BCFC0A2003F0CDF800223B6C1600F8
:103E600098467D4C7D4D04E00136AE4201D100F014
:103E7000B0FCFDF771FE236830001B041B0C2360AF
:103E8000FDF778FD43469855FF28EDD1B0463B2E0F
:103E900001D800F0ADFC85239B00444600269946DE
:103EA0006F493D6C3966AE223B6E92009A584B4684
:103EB000D358002BFBD128003C213C3C04F0A2FC51
:103EC0003C363C353B2CEED8464500D293E37B6F25
:103ED0001B78002B00D178E30023BA6D13703B6A86
:103EE0009D460EE55F4B984200D92CE37B6F1C7812
:103EF0005D4B984200D80AE201233A6B137080228E
:103F0000474BD2009A6168E4002B00D096E4574AF0
:103F1000574953685748096803400B4353608DE481
:103F200000231370FDF74EFC7B6F1C785AE4524956
:103F30004AE75B461A68F1239B009A4200D2A1E44B
:103F40005B46802118681B68C900C91A4B4B89B2AF
:103F5000C01804F057FC5B461C609FE4BB6A1B78EA
:103F6000002B01D100F04EFCF969B8690B8802887A
:103F7000434D444E9A4200D1A8E0434B80249946D9
:103F8000424BE40298465B463B6453463B624B46D9
:103F9000B346AA46060089467D693B661BE02B684E
:103FA000A34200D1DBE053461B78002B0ED04B46DA
:103FB0001A8833889A426FD34B461B8832889B1AE3
:103FC000334A9BB2D31A9BB2FF2B73D84B461A8845
:103FD00033889A4275D05A4633889BB2D15C338875
:103FE000C9B201339B059B0D33802B68A342D6D207
:103FF0002868431C2B60FDF701FD43462A681B68B7
:104000009A42D0D329682348FCF7E0FC802243463B
:10401000D200944642461B6863441360C3E7C0461F
:104020000014004800080048AC16002098AF0008B3
:10403000E8A00008B2160020B1160020A4990008DC
:104040000500002000A900082C9E0008CE1A0020C0
:10405000000C004878ECFFFF0004004888130000C3
:10406000401B00206F170000B70B0000001002403B
:10407000B8160020FFFFFF8058970008C8160020E0
:10408000D425002064020020A4A4000848020020D7
:10409000FF0300008CA4000880214B46C9008C4619
:1040A0001B88328863449B1AE54A9BB2D31A9BB2A1
:1040B000FF2B8BD904F0D2FB4B461A8833889A42E7
:1040C00089D13B6C55469B463B6A9A462B78002B20
:1040D00000D0B1E1BB6A1B78002B01D1FFF788FB50
:1040E000FB691A88BB691B889A4201D0FFF780FBE5
:1040F00002F07AFF3B691B68C01A632801D8FFF7FA
:1041000077FBD04B1B78002B08D080227B69D20232
:104110001B680633934201D800F06EFC8023786957
:10412000DB02026819009A4200D80168C648FCF711
:104130004DFCC64B1B78002B01D000F018FCC44886
:10414000FCF704FC0023FA6A13707A6B1370BA6AE6
:1041500013707A68136004F081FBFFF749FB386E37
:10416000FCF7F4FB2B6801332B601CE7B94E336876
:10417000002B00D17DE502F037FFB74B1B68C01A5A
:10418000632800D9FAE27B6F1C78FFF72EFBB34A55
:1041900033E62021B24801F013FBB24B187000281F
:1041A00000D19DE1BB681B78002B00D114E372B6EF
:1041B000F86800F031FF31E6AB4B1A78002A01D1E4
:1041C000FFF716FB00221A70A84B1B78DCB2934253
:1041D00000D19CE2A648FCF7B9FBA648FCF7B6FB69
:1041E000A548FCF7B3FB0122A44B1A70954B1B7832
:1041F000002B00D098E3FDF7A9FA8021002298480F
:10420000C90001F0E3FA802100224901944801F03D
:10421000DDFA0A2002F0EEFE8021012290484901D9
:1042200001F0D4FA02F0E0FE954B186004232B70E5
:104230007B6F1C78FFF7D9FA02F0D6FE3B691B684A
:10424000C01A632801D8FFF7D3FA804A7D688D4EE3
:1042500012787C4B29681B78300000920022FDF711
:1042600077FEFB6A1C703B682C601C607B691C60DD
:104270007B6B1C70FB691C80BB691C80BB6A1C705B
:1042800004F0ECFAFFF7B4FA0170FCF757FD7B6F0E
:104290001C78FFF7A7FA7C497C48FCF797FB7C4821
:1042A000FCF754FBFDF758FCFDF7FCFB7948FCF7E5
:1042B0004DFB7948FCF74AFB0022664B1A6002F07E
:1042C00093FE654B186002232B707B6F1C78FFF701
:1042D0008CFA72490B785BB2002B00DB07E1704C63
:1042E00023785BB2002B00DB1CE26E4B19780029AF
:1042F00000D038E3FB6D1B78012B00D043E79620FC
:10430000C000FCF747FA7B6F1C78FFF76BFA022CB2
:1043100001D0FFF767FA8022634BD2009A616DE407
:10432000BB6B1B78002B00D0EAE0604B984200D9B1
:10433000E6E03B6B1B78002B00D0B9E25C4B984267
:1043400000D9B5E27B6F1B78132800D829E4022B33
:1043500000D14DE3012B00D175E3802101225248A9
:10436000C90001F033FA8021002249013C4801F0E4
:104370002DFA0A2002F03EFE802101224901384830
:1043800001F024FA3C2002F035FE80210022C90011
:10439000454801F01BFA0022FC6B464B20781A605E
:1043A000FCF746FA2178182900D9DEE214224A43A4
:1043B000414BD1584148FCF709FB414B1B78002B7E
:1043C00001D1FFF7EEFB3F4B1B78012B00D17BE3C4
:1043D0003D49022B00D03D493D4B204A1B78052B1F
:1043E00002D83C4A9B009A583B48FCF7EFFAFFF78B
:1043F000D8FB3649F9E45B4618681968374B691AE7
:10440000C01889B204F0FEF95B461D60FFF746FA5A
:10441000802153465A46C9008C461B681268634483
:104420009B1A9BB2FFF74CFA802100221E48C9005C
:1044300001F0CCF9FFF7C2FB04F010FA4AE6C046DF
:10444000FF03000007000020E0A40008080000208F
:10445000789F0008841600208016002088990008A4
:1044600000080048CD1A002076160020751600209E
:1044700078A20008A4A20008E0A200087816002094
:104480007C160020640600208C16002084A1000801
:1044900094A10008B0A10008BCA100080000002001
:1044A000030000209E160020001400486F17000033
:1044B000B70B0000AC16002098AF0008E8A0000879
:1044C000B2160020B1160020A499000894990008A3
:1044D0000500002000A900082C9E0008C816002036
:1044E00000228021DA4801F071F9FFF704FAFF2376
:1044F00008780B70FDF792FE7B6F1C78FFF772F95E
:10450000FDF7A4F8FFF74DFB4A462B68D31A3C226F
:1045100093463B2B04D84A462B68D31A9BB29B4642
:10452000CC4B28685946C01804F06CF92B685B44E2
:104530004B4502D22B685B449A4653462B60FFF7EB
:104540000EFBC54951E496200123BA6B800013701D
:10455000FCF720F9FFF741F97B6E1B78DAB2002BEC
:1045600018D1FB6D1B78002B14D0BC4B1978CCB242
:10457000002900D1C7E18021B54849011A7001F036
:1045800025F9B748FCF7E2F905232B707B6F1C78FF
:10459000FFF72BF9802100227B6EAD4849011A708C
:1045A00001F014F9FDF700FEAE48FCF7CFF99620B4
:1045B000C00002F01FFD02237A6F1370AA4A137025
:1045C0000122AA4B1A70FFF713F9FDF7BFF88021FB
:1045D0000022C9009E4801F0F9F80A2002F00AFD05
:1045E00010219B4801F0ECF8002800D003E10120E5
:1045F00002F000FD70E4AE2385229D499B00C9585E
:1046000092008B58002BFCD14346991B3B6C89B21E
:10461000981904F0F7F85AE401250026954C236810
:104620002B432360924B3B66B14214D0B0465E46AA
:104630008B462369AB43236104E0534632681B6811
:104640009A420FD123691D42F7D001239C46E044D2
:10465000C345EED1B3460121864A13688B431360EC
:10466000FFF786FAAE233A6E9B00D258A43BD3588C
:104670009946002BE6D153461B6832689A4213D202
:104680003C21326889469A1A3B2A03D832689B1A21
:104690009BB299466F4B30684946C01804F0B2F897
:1046A00033684B443360CDE780223C213368D2002D
:1046B000D31A39643B2B03D83368D21A93B23B64C4
:1046C000644B3068396CC01804F09CF8396C802257
:1046D0008C463368D2006344934202D289463368E1
:1046E00099444B463360ADE7002B01D0FFF7FBF850
:1046F000614A624953686248096803400B4353604A
:10470000FFF7F1F82100FBF7FFFCFFF732F95D48F6
:10471000FCF71CF95C4B1C7005232B707B6F1C781D
:10472000FFF763F8594B20781978FF2349B22370BB
:10473000FDF756FE7B6F1C78022C01D0FFF752F874
:10474000FCF720FE7B6F1C78FFF74CF8494A0133D9
:1047500011680B431360FFF7C6F800F0DDFD34224B
:104760004B4B2900DA6030000022002300F026FEC7
:1047700000F0E6FDFCF7D0F9FFF763FA4548316831
:10478000FCF724F94448FCF7E1F87B6F2C701C78A7
:10479000FFF72BF880223C213368D2008B46D31AD6
:1047A0003B2B03D83368D31A9BB29B46294B306806
:1047B0005946C01804F026F880223368D2005B44C2
:1047C000934202D233685B44984643463360FFF716
:1047D00066F9B046FFF75FFBFC68200000F08EFB37
:1047E0000121200000F0B6FB0123BA681370DEE45B
:1047F0000026FFF769FB802101221548490100F0DE
:10480000E5FFF4E6802500242448FCF79FF8FDF737
:10481000A3F9FDF747F92248FCF798F8214E6D01FE
:104820002000315D0134FDF7E9F8AC42F8D17B6935
:104830001D481C601968FCF7C9F8A0221B4B5201E7
:104840001A600123BA6A137004F008F8FFF78CFBB2
:1048500000080048C8160020A0990008741600201F
:1048600054A3000818A30008A01600209E160020DC
:10487000401B0020002C014000100240B816002010
:10488000FFFFFF8054A200087816002002000020DD
:104890000020024004A2000824A2000838A4000856
:1048A000AC9E0008640600208CA40008480200208A
:1048B000802101227B6F8548C9001A7000F086FFB5
:1048C000802100224901824800F080FF00237A689D
:1048D000804813603A6813607A691360FA6A13704B
:1048E0007A6B1370FA691380BA691380BA6A13700D
:1048F000FCF72CF803F0B2FFFFF753F97648FCF70A
:1049000025F8764855E602F06FFB754B1B68C01A18
:10491000744B984200D836E480216D48220049014A
:1049200000F054FF70482DE6704C5B212068FDF7C5
:1049300065F820682D210130FDF760F820685D21C1
:104940000230FDF75BF820682B210330FDF756F8A5
:1049500020685B210430FDF751F820685D210530A7
:10496000FDF74CF847E41A70EAE6614922E5614830
:10497000FBF7ECFF802100225448C90000F026FF1D
:10498000FCF7E4FEFA239C229B00BA1813609C21DA
:104990007B181A687918531E0B60002AF7D10B0098
:1049A00080214B48C9001B6800F010FFFA239822B1
:1049B0009B00BA1813609822BB181C68BA18631EB3
:1049C0001360002CF7D180211300490122004048D8
:1049D0001B6800F0FBFE0A2002F00CFB8021012284
:1049E0003B48490100F0F2FE7B6F1C70FFF7AAFB09
:1049F000FCF7E8FEFFF7D5F87C695B212068431CD3
:104A00002360FCF7FBFF20682D21431C2360FCF78B
:104A1000F5FF20685D21431C2360FCF7EFFF206851
:104A20002B21431C2360FCF7E9FF20685B21431C1A
:104A30002360FCF7E3FF20685D21431C2360FCF743
:104A4000DDFFFFF76BFB802100222048C90000F04A
:104A5000BDFEFCF77BFEFA2394229B00BA1813607C
:104A600094217B181A687918531E0B60002AF7D11D
:104A70000B0080211648C9001B6800F0A7FEFA232E
:104A800090229B00BA1813609022BB181C68BA18B9
:104A9000631E1360002CF7D180211300490122000E
:104AA0000B481B6800F092FE0A2002F0A3FA802156
:104AB00001220748490100F089FE7B6F0E481C70F7
:104AC000FBF744FFFFF76DF80C4985E4001400483C
:104AD0000008004800A10008FCA30008DC05000055
:104AE0007C1600200F27000088A3000884160020F1
:104AF000589700085C9F000854A10008A09900087E
:104B00007047C046012200B50F4B83B0996905205C
:104B100011439961996940420A4080210092009AAC
:104B2000DA6949050A43DA61DB6900220B40019327
:104B30000121019B00F006FB0220002201214042DE
:104B400000F000FB03B000BD0010024010B50400EF
:104B500088B01422002102A804F02CF9104B22681E
:104B60009A4201D008B010BD80210E4B89009A698D
:104B70000D480A439A619A690A4080210092009A7E
:104B80005A6909030A435A615B6901220B40019388
:104B9000019B032302A90292039300F071FCE1E759
:104BA0000024014000100240000800487047C04641
:104BB000FEE7C0467047C0467047C04610B502F0D9
:104BC00007FA10BD10B5022000F006FE10BDC04669
:104BD0002C4B70B55B691B0732D52B4C2378002B0F
:104BE00028D12A4A2A4953680B405360C046C04620
:104BF000284B294918690B68284D01339B050E681D
:104C00009A0D2B68C0B29E4229D30B682D685B1B9E
:104C10009BB2FE25AD00AB4216D20B68204D0A6058
:104C2000E8542378002B23D001211E4A13680B433C
:104C3000136010E001211B4A13688B431360D5E712
:104C4000082000F0C9FD70BD0B680A600122144CF9
:104C5000E054154B1A7008220A4B5A61F3E780267C
:104C6000F600B4460B682D6863445B1B9BB2D0E72B
:104C7000064A0E4953680E48096803400B435360C7
:104C8000E9E7C04600040140B316002000100240CE
:104C9000FFFFFFF000040048BC160020C4160020EF
:104CA000C8160020002C0140B4160020B8160020C1
:104CB000FFFFFF8010B5024800F07EFE10BDC04629
:104CC000F82900200C490D4A0300521A0C4910B56E
:104CD0000868002804D0C318934206D80B6010BDA2
:104CE0000848C31808609342F8D904F091F80C23DF
:104CF000036001204042F2E7000400000040002071
:104D0000141B0020382E00207047C046002370B5C9
:104D1000026882B001939168033304000B40012BB9
:104D200031D09168204B194223D1012193680B4364
:104D300093601E4B1E491868FBF7E6F90190019B32
:104D4000002B05D0019B013B0193019B002BF9D166
:104D500002F04AF90126050004E002F045F9401B83
:104D6000022817D823681B681E42F6D0002002B024
:104D700070BD1022A36B01201343A363E36B0F3AB2
:104D80001343E363F3E711680B42EFD1D3681B04CD
:104D9000ECD4C6E71022A36B01201343A363E36B9B
:104DA0003343E363E3E7C0461700008014000020AC
:104DB00040420F0070B5041E64D0836B002B68D096
:104DC000A36BDB0660D4226893685B075CD4A36B9B
:104DD00047490B400631FF310B43A363032391681E
:104DE0000B40012B5BD01821D3688B43A1680B4388
:104DF000D360136961689B009B080B431361D36800
:104E00003C490B40D360237E617E9B03C9030B4367
:104E1000A07EE1680B4341030B432421615C490000
:104E20000B43A16A01394D1EA94109030B432169B6
:104E300002394D42694189000B43E17E01293ED090
:104E4000C220E169FF30814202D0206A01430B4356
:104E5000D168E56A1943D160802149058D4225D08A
:104E6000691E062922D9D26823490A409A422CD0C9
:104E70001222A36B9343023A1343A363E36B0F3AEB
:104E80001343E363012070BD1022A36B1343A3639C
:104E9000F8E73422C3638354FFF758FE90E71168A4
:104EA0000B42ACD1D3681B04A9D49CE707215069FD
:104EB000884350615069294001435161D3E700287C
:104EC0000DD1802149020B43BAE700230322E3639B
:104ED000A36B00209343023A1343A363D3E7202537
:104EE000A06B2843A063E06B0143E163A8E7C046E1
:104EF000FDFEFFFF1902FEFFE7FF3F83036810B5C9
:104F00009A680400520721D43422815C01291DD003
:104F100001218154427E012A12D1A16B0C4A00204A
:104F20001140802252000A43A26334210022E2632E
:104F300062541C321A609A6830390A439A6010BD74
:104F4000FFF7E4FE0028FAD12368E6E70220F6E73F
:104F5000FEF0FFFFF8B5446905000E00082C04D0F0
:104F600003680C24DB68DB0741D402F03DF807003E
:104F70002A6813681C4204D1731C25D1136823428C
:104F8000FCD08023A96B9B000B43AB63C023D1688B
:104F90001B01194213D1AB7E002B10D113681B07E4
:104FA0000DD593685B072BD40C2153688B4353605A
:104FB000AB6B18490B400431FF310B43AB632B7EC5
:104FC000002B11D00020F8BD002E04D002F00CF808
:104FD000C01BB042CCD90422AB6B03201343AB639C
:104FE00000223423EA54EEE70C231360EAE7202280
:104FF000836B1343836300223423C2540120E2E70E
:105000002021AB6B0B43AB63EB6B1F390B43EB63A3
:10501000D5E7C046FEFEFFFF0368186C7047C04628
:105020000023F0B583B001933433C25C0400C56A39
:10503000012A59D00122C25403689868400709D553
:1050400020220120A36B1343A36334230022E254E4
:1050500003B0F0BD10267642B4460868324E4F6861
:1050600082408444B74227D09E6A32439A62072D19
:105070001FD98022520595420CD007228D685969AC
:1050800011408D4206D059699143596159692A40AE
:105090000A435A616346022B09D8244B80211A68BF
:1050A000102825D011283AD049040A431A6000205C
:1050B000CBE7002DEED1E0E7996A91439962634610
:1050C000022BF4D8194B1B6810280FD01138421E40
:1050D0009041174A40421040164A94466044184096
:1050E000124B18600020B0E70220B1E71248F6E743
:1050F00009040A431A60114B11491868FBF704F8B8
:1051000083001B185B000193019B002BCFD0019BF8
:10511000013B0193019B002BF9D1002095E7C903C6
:105120000A4300201A6090E70110000008270140A0
:10513000000040FFFFFFBFFFFFFF7FFF14000020C4
:1051400040420F00FF22032310B514000340DB0090
:105150009C4089010A40E4439A4000280BDB0C4B39
:10516000C0219C4680088000604489004358234049
:105170001343435010BD0F23064903408C46083BA0
:105180009B089B006344D9690C401443DC61F1E740
:1051900000E100E000ED00E0002805DB1F22012314
:1051A00002409340014A13607047C04600E100E0AE
:1051B00000280ADB1F22012302409340802203497A
:1051C0008B50BFF34F8FBFF36F8F704700E100E04C
:1051D0008022431E5204012093420ED2C021074A6E
:1051E00007485360036A09061B021B0A0B4303624C
:1051F00000230020936007331360704710E000E045
:1052000000ED00E0F0B546464F46D646C0B52F4FFC
:1052100006003B7E8846012B56D001233B7603686F
:105220002B48012B33D000F095F8002833D101230F
:1052300042465B421360B3687568DB025B199D42AE
:1052400029D20023234C994609E080231B019C4668
:10525000B3687268DB0265449B18AB421CD902221A
:105260004B469246FB6123691948134323616561EC
:1052700023693E321343236100F06CF852462369E0
:10528000934323610028E0D043461D6004E000F012
:1052900061F8002807D0012000233B76E0BCBA4625
:1052A000B146A846F0BD042540220A4CF8612369A6
:1052B00007482B43236123691343236100F04AF815
:1052C0002369AB432361E7E70220E7E7181B0020CF
:1052D00050C300000020024010210D4B10B5DA68C9
:1052E0000B001340114205D00A4A0E39D3690B4313
:1052F000D3611023064AD16804220A4205D0012452
:1053000004481343C1692143C161014AD36010BD00
:1053100000200240181B0020064B00201A691206CC
:1053200006D5054A5A60054A5A6018690006C00F3A
:105330007047C0460020024023016745AB89EFCD8E
:105340008021034A002013690B4313617047C04654
:1053500000200240F8B5040001F046FE01260500D9
:10536000154FFB681E4206D0631C12D10122124960
:10537000CB681A42FCD120220F4BD9680A4211D1C6
:105380000D4AD368DB0612D4D36800205B070ED425
:10539000F8BD002C04D001F027FE401BA042E0D94C
:1053A0000320F5E7DA60044AD368DB06ECD5FFF7A3
:1053B00093FF0120ECE7C04600200240F0B54E46C6
:1053C0005746DE464546E0B59A4683B0294B0192E2
:1053D00099461B7E04000E00012B46D001234A464D
:1053E00025481376FFF7B6FF002834D1012C3ED0B4
:1053F000023C631E9C416300984602239C46E044A5
:10540000002300259B4618E05346D3404A465946A0
:1054100001271A4CD16122699BB23A432261164896
:105420003380FFF797FF2369BB432361002812D124
:105430000135EBB2023698450DD92B011A00203AFE
:10544000E2D520225146D21A91400A000199D94052
:105450000B001343DAE700234A46137603B0F0BC8F
:10546000BB46B246A946A046F0BD0220F6E701239E
:105470009846C5E7181B002050C3000000200240DA
:10548000F0B54546DE4657464E46E0B50D6800236A
:1054900085B0002D7BD0794A0091924601212A00E7
:1054A00099400A4091460D426DD0009F10247A68C1
:1054B0001700A7435C00A446032466460197009F9B
:1054C000B440BE686746BE40B046019EE443013E1C
:1054D000012E63D94646C16821403143C16001684D
:1054E0000C4003211140B94021430160802149054E
:1054F0000A4248D051460124564689690327214370
:10550000B161B1690F2621405D4C1F40A446BF0028
:10551000BE40039103999908890061448C68B443A3
:105520009026F605B04212D0564EB04200D198E017
:10553000554EB04200D198E0544EB04200D18CE0BC
:10554000534EB04200D194E00526BE4034438C60F7
:105550004C465049E4430968D70366D44D4F214077
:1055600039607968970367D44A4F21407960B968F8
:10557000D70268D4474F2140B960F968920269D4D4
:105580000C404449CC602A000133DA4086D105B092
:10559000F0BCBB46B246A946A046F0BD8668264090
:1055A000B346009EF668BE40B1465E464F463E4357
:1055B000866046688E4311099940314346464160F2
:1055C000C16821403143C160019902290DD00168B1
:1055D00001330C4003210A4061468A4022430260A5
:1055E0002A00DA4000D059E7D1E707261E40B6006E
:1055F000B1460F264F46BE40DA0892008218116A63
:105600000133B1438846009E31694646B940314373
:1056100011620168019A21406446A2400A43026077
:105620002A00DA4000D039E7B1E74E46194F31433E
:1056300039607968970397D54E46164F31437960A4
:10564000B968D70296D54E46124F3143B960F96812
:10565000920295D54C460C4393E70326BE40344353
:1056600075E70126BE40344371E70226BE4034434D
:105670006DE70426BE40344369E7C046001002408F
:10568000000001400004004800080048000C0048E9
:105690000010004800040140F0B5DE4657464E4673
:1056A0004546E0B5002383B0002965D0012291462C
:1056B000023293463C4A944644E03C4CA04262D0BD
:1056C0003B4CA04263D03B4CA04264D03A4CA04239
:1056D00065D00524AC402500AE4211D16446256852
:1056E000019EBD4325606568BD436560A568BD43F7
:1056F000A560E568BD43E5604446B568A543B5606F
:105700005E465D00AE4004683500B4430460DC08CA
:10571000A4000419266A0727B0460F261F40BF00C1
:10572000BE4037004646BE432662C468AC43C460F0
:105730004468944344608268AA4382600A0001334B
:10574000DA4019D04A460F009A4017401142F5D06E
:105750001A4D9C08A846A4005D464444A6680194DE
:105760000F241D40AD00AC40A04626409024E40527
:10577000A042A2D10025AFE703B0F0BCBB46B246C1
:10578000A946A046F0BD4C46AC402500A4E7022443
:10579000AC402500A0E75C46AC4025009CE7042413
:1057A000AC40250098E7C0460004014000040048D2
:1057B00000080048000C00480010004800000140AC
:1057C00000690840431E9841C0B27047002A01D0CA
:1057D000816170478162FCE7044B10B55A69104241
:1057E00000D110BD5861FBF711F8FAE70004014041
:1057F00010B50C060ED50724214001318C0061182C
:10580000C900401899B2002A0DD10023C18003734A
:10581000002010BD8C006118C9006931FF314018AB
:1058200099B2002AF1D083600123F0E7BA23012165
:105830009B000268C1500021083BC1545423012041
:10584000D15A0143D152D15A01300143D1520020E3
:105850007047C0467047C046F0B5C64600B5040064
:1058600086B0002862D0324BC35CDAB2002B53D032
:1058700003222F4BE254206801F0D8FB6168002915
:105880002FD029239C460233002201272826984640
:105890000020654693009B18DB00E3185F554546E2
:1058A0009A55DA860132D2B258559863D863186493
:1058B0008A42EED30022002093009B18DB00E318FD
:1058C0001D006A35FF352870013D2A708133013291
:1058D000E870FF33D2B210352860686018608A42E1
:1058E000EAD323006A461033206862CB62C222CB1F
:1058F00022C2A268E368616801F0A2FB24230022AF
:10590000E2540B4B0132E254E369012B0AD0002030
:1059100006B080BCB846F0BDAA239B00C25403F079
:1059200037F8A5E72000FFF781FFF0E70120EFE758
:10593000A902000070B5041E07D00323074E83554B
:10594000006802F07FF8051E02D00125280070BD16
:10595000200003F03DF8A555F8E7C046A902000075
:1059600070B5AA25AD00435D0400012B0BD00123C7
:105970004355006801F050FB206802F075F80023E1
:105980000020635570BD0220FCE7C04670B5AA2513
:10599000AD00435D0400012B0BD00123435500688B
:1059A00001F044FB206802F067F8002300206355F3
:1059B00070BD0220FCE7C046F0B5DE4657464E46B5
:1059C0004546E0B5040087B0006802F05DF80004C9
:1059D00000D5C5E023689B46584602F055F84005BF
:1059E00000D5A3E0206802F04FF8400400D584E021
:1059F000206802F049F8800400D577E0206802F0C2
:105A000043F8C00442D4206802F03EF800055AD49E
:105A1000206802F039F88022024220D04420236816
:105A2000195A9143B82219529200A15C002900D062
:105A30006AE004254031585A28435852585A0435D0
:105A4000284358523F39A15454229A5A3C23920871
:105A50001340B92292002000A350FFF7FBFE2068FC
:105A600002F012F8800557D4206802F00DF8C00546
:105A700005D544222168D0488B5A03408B5207B089
:105A8000F0BCBB46B246A946A046F0BD4023042068
:105A90002268D15A8143D152D15A04308143D15224
:105AA000B8239B00E25C012A00D158E2200002F0FA
:105AB000F5FF44222068C149835A0B40835201F00C
:105AC000E3FF0005A4D5402208202368BC4D995A65
:105AD000014399523C30195A29401952995A403879
