:020000040800F2
:1000000000400020A1060008255F0008295F0008C5
:1000100000000000000000000000000000000000E0
:100020000000000000000000000000002D5F00083C
:100030000000000000000000315F0008355F00088C
:100040004907000849070008490700084907000850
:10005000490700083D5F0008495F0008490700089C
:100060004907000849070008490700084907000830
:100070004907000849070008490700084907000820
:100080004907000849070008490700084907000810
:100090004907000849070008490700084907000800
:1000A00049070008490700084907000849070008F0
:1000B0004907000849070008490700082D600008A3
:1000C00010B5064C2378002B07D1054B002B02D02E
:1000D000044800E000BF0123237010BDE8010020A8
:1000E0000000000070AA0008044B10B5002B03D0DC
:1000F0000349044800E000BF10BDC04600000000F6
:10010000EC01002070AA0008002243088B4274D33F
:1001100003098B425FD3030A8B4244D3030B8B4208
:1001200028D3030C8B420DD3FF22090212BA030C11
:100130008B4202D31212090265D0030B8B4219D3F2
:1001400000E0090AC30B8B4201D3CB03C01A524112
:10015000830B8B4201D38B03C01A5241430B8B425A
:1001600001D34B03C01A5241030B8B4201D30B0343
:10017000C01A5241C30A8B4201D3CB02C01A52416A
:10018000830A8B4201D38B02C01A5241430A8B422D
:1001900001D34B02C01A5241030A8B4201D30B0216
:1001A000C01A5241CDD2C3098B4201D3CB01C01A30
:1001B000524183098B4201D38B01C01A524143093A
:1001C0008B4201D34B01C01A524103098B4201D328
:1001D0000B01C01A5241C3088B4201D3CB00C01A95
:1001E000524183088B4201D38B00C01A524143080D
:1001F0008B4201D34B00C01A5241411A00D2014632
:10020000524110467047FFE701B5002000F0F0F8BA
:1002100002BDC0460029F7D076E7704703460B437E
:100220007FD4002243088B4274D303098B425FD3EF
:10023000030A8B4244D3030B8B4228D3030C8B421B
:100240000DD3FF22090212BA030C8B4202D3121201
:10025000090265D0030B8B4219D300E0090AC30BD6
:100260008B4201D3CB03C01A5241830B8B4201D383
:100270008B03C01A5241430B8B4201D34B03C01A6C
:100280005241030B8B4201D30B03C01A5241C30AE4
:100290008B4201D3CB02C01A5241830A8B4201D355
:1002A0008B02C01A5241430A8B4201D34B02C01A3F
:1002B0005241030A8B4201D30B02C01A5241CDD2E4
:1002C000C3098B4201D3CB01C01A524183098B422F
:1002D00001D38B01C01A524143098B4201D34B0118
:1002E000C01A524103098B4201D30B01C01A52417B
:1002F000C3088B4201D3CB00C01A524183088B4202
:1003000001D38B00C01A524143088B4201D34B00EA
:10031000C01A5241411A00D201465241104670475C
:100320005DE0CA0F00D04942031000D34042534061
:1003300000229C4603098B422DD3030A8B4212D321
:10034000FC22890112BA030A8B420CD38901921153
:100350008B4208D3890192118B4204D389013AD090
:10036000921100E08909C3098B4201D3CB01C01A65
:10037000524183098B4201D38B01C01A5241430978
:100380008B4201D34B01C01A524103098B4201D366
:100390000B01C01A5241C3088B4201D3CB00C01AD3
:1003A000524183088B4201D38B00C01A5241D9D2EB
:1003B00043088B4201D34B00C01A5241411A00D26C
:1003C0000146634652415B10104601D34042002B68
:1003D00000D54942704763465B1000D3404201B5E7
:1003E000002000F005F802BD0029F8D016E770479C
:1003F0007047C046002B11D1002A0FD1002900D12F
:10040000002802D00021C943080007B4024802A115
:100410004018029003BDC046D9FFFFFF03B46846F1
:1004200001B5029800F034F8019B9E4602B00CBC66
:100430007047C046F0B5CE469946030C9C4613045F
:1004400047461B0C1D000E0061460404240C80B5B9
:100450000700100C4B436543414360432C0CC0180C
:1004600024188C46A34203D980235B029846C444D7
:10047000494679435643230C2D042D0C89196344B6
:1004800024046019C918C0BCB946B046F0BDC046C6
:10049000F0B557464E464546DE46E0B504000D0031
:1004A0009246994683B08B4230D82DD0494650466B
:1004B00000F0BAF829000600200000F0B5F8331A61
:1004C0009846203B34D49B4653465A469340424676
:1004D0001F00534693401E00AF423BD8AF4200D1AD
:1004E00079E05B46A41BBD41002B00DA76E00022D8
:1004F00000230092019301235A4693400193012364
:1005000042469340009329E08242CFD90022002343
:10051000009201930C9B002B01D01C605D60009841
:10052000019903B0F0BCBB46B246A946A046F0BD57
:1005300042469B4620239B1A5246DA40414613000E
:100540004A468A40170042461F43534693401E00C6
:10055000AF42C3D900220023009201934346002BEF
:10056000D8D0FB0772081A4346467B080EE0AB4220
:1005700001D1A2420CD8A41A9D41012024196D4139
:100580000021013E24184D41002E06D0AB42EED989
:10059000013E24196D41002EF8D1009801995B4667
:1005A00000196941002B24DB2B005A464446D340F6
:1005B0002A00E2401C005B461500002B2ADB2600C7
:1005C0009E40330026004746BE403200801A9941C3
:1005D000009001919EE7A342BCD882E742462023C7
:1005E00000219B1A0022009101920122DA4001921F
:1005F00085E7424620239B1A2A0046469A4023005C
:10060000F340444613432A00E2401C005B461500B9
:10061000002BD4DA42462F002023260097409B1A55
:10062000DE403B003343CDE710B5002903D100F095
:1006300007F8203002E0080000F002F810BDC046C4
:100640001C2101231B04984201D3000C10391B0A02
:10065000984201D3000A08391B09984201D30009C6
:10066000043902A2105C40187047C046040302021D
:100670000101010100000000000000000023C25C35
:100680000133002AFBD1581E7047000003B47146A5
:10069000490840004900095E49008E4403BC704788
:1006A0001E4885461E4801681E4A914212D100210B
:1006B00001601D4801680122114301601B48016867
:1006C00003229143012211430160194801688D46BC
:1006D000416808471448016801221143016013482A
:1006E000016803229143016012481349134A002311
:1006F00002E0D458C4500433C4188C42F9D3104AD1
:10070000104C002301E013600432A242FBD305F039
:10071000B7FC09F03FFD03F09BFBFEE70040002023
:10072000F03F0020EFBEADDE181002400000014097
:1007300000C8FF1F00000020E4010020C8D000080E
:10074000E80100208C2E0020FEE700003E280AD899
:100750002A2806D9074B2B38C0B2C34001201840C5
:1007600070470020FCE7FD235B38184043425841A6
:10077000C0B2F5E70F000A00F8B5070010000C0042
:100780001600FFF77BFFA04216D8002816D00024E1
:1007900002E00134A04211D0395D335D0A00613AB4
:1007A000192A01D82039C9B21D00613D192D01D87F
:1007B000203BDBB29942ECD00020F8BD0120FCE7E1
:1007C000F0B5C646060000B5100088461700FFF7D2
:1007D00055FF404516D8002818D0002502E0013505
:1007E000A84213D0745D7B5D2200613A192A01D8BA
:1007F000203CE4B21A00613A192A01D8203BDBB24E
:100800009C42ECD0002080BCB846F0BD40450FD2E1
:1008100001213318074846441A78093AD2B2172AF8
:10082000F0D80400D4402142ECD001339E42F3D1F1
:100830000120E8E71300800070B5040007F090FD88
:100840002100FFF7E7FC0B0061088B421FD2580123
:10085000C01A8000C018C000FFF756FC114B5C683E
:10086000002C00D1104CFA210E4B890040439D68AA
:10087000FFF74AFCFA2160438900FFF745FC80221C
:100880000A4B641BD200A0420AD99A6170BDE41AD7
:100890006001001B80000019C000FFF735FCDDE798
:1008A0009A62F3E710E000E080BB0000001400480B
:1008B000F0B5C64600B586B0182836D90F223D4B94
:1008C0000F241A70002303930133FF3301933A4F2F
:1008D000FD3B01ADEB600121384A90201368C00553
:1008E0008B4313600022364B29001A7002232A61C1
:1008F0006B6005F081FFA3001B199B00FB181A69B0
:10090000304B1A60304A1278002A4DD119681A68A3
:10091000E023DB051A40F0231B050020194007F0F7
:10092000D7FB06B080BCB846F0BD8600224F361813
:10093000B600BE19337A040098461E4B1022187078
:10094000002102A809F0F2FB80235B0001AD0193B6
:10095000FD3BEB604346002BBDD000220021002070
:1009600007F0B6FB0022174B90201A6002232900E3
:10097000C0056B602B6105F03FFF01210F4B1A682A
:100980008A431A6072899A62B289DA62013252101D
:100990005A630B4A596111700B4A1278002AC0D170
:1009A0001A680A431A60BCE700220021002007F001
:1009B0008FFBB6E7281B002020CE0008002C01404A
:1009C0000B170020101700200A170020F0B5D6469C
:1009D0004F464646C0B58046FFF750FE071E20D062
:1009E000184B85269A46AE239B00994653464A46A5
:1009F00000249B58B6003D1B402D1FD8A9B21248B9
:100A00009A59002A16D14346181909F0B7F85346E7
:100A10004A460D499B589A59002A07D16419A742A2
:100A2000E9D8E0BCBA46B146A846F0BD0139002974
:100A3000F1D1F3E701380028E2D1E4E74025402175
:100A4000DDE7C046981B0020400D0300F0B54F467F
:100A50004646D6468046C0B50F1E20D0184B852688
:100A60009A46AE239B00994653464A4600249B581B
:100A7000B6003D1B402D1FD8A9B212489A59002A32
:100A800016D14346181909F079F853464A460D49DC
:100A90009B589A59002A07D16419A742E9D8E0BCAB
:100AA000BA46B146A846F0BD01390029F1D1F3E7B5
:100AB00001380028E2D1E4E740254021DDE7C046C7
:100AC000981B0020400D03000FB400B5A3B024AB69
:100AD00004CB802102A8019309F00EFB02A8FFF7C6
:100AE00075FF23B008BC04B01847C046010070B5BC
:100AF00000281DD0144B4201D3181878012816D1B4
:100B000012485C6984461248624484469D69644484
:100B10002B001048FFF7D8FF29002000FFF796FFB1
:100B20000D48FFF753FF0D4B1B78022B04D070BD0F
:100B30000B4D0C4C0C4AEBE70C48FFF747FF01222A
:100B40000B4B1A70F3E7C046004001080140010852
:100B500000480108E8AA000800AB0008291B002093
:100B600077060000A8C70008D8AA000810AB000844
:100B70008616002000B5104B8FB01A78182A18D8A6
:100B800093000E499B189B005B58182168460C4A3D
:100B900009F04EFA6B460B4A202106A809F048FAE4
:100BA000094806A9FFF790FF1222084B1A700FB0F0
:100BB00000BD074BE9E7C046281B002020CE0008F7
:100BC00040AB00084CAB000854AB00084C020020BE
:100BD000D0AA000800B5164B83B01878172801D9A1
:100BE00003B000BD0130C0B2FFF762FE0122114B1D
:100BF0001A7007F0B5FB104B1860FFF7BBFF8021A0
:100C000001220E48C90005F09DFF00230193019BBE
:100C10000B4A934205DC019B01330193019B9342F4
:100C2000F9DD802100220548C90005F08BFFD7E7D8
:100C3000281B0020BC160020B81600200014004815
:100C40005FEA000000B5164B83B01878002801D188
:100C500003B000BD0138C0B2FFF72AFE0122114BDC
:100C60001A7007F07DFB104B1860FFF783FF80219F
:100C700001220E48C90005F065FF00230193019B86
:100C80000B4A934205DC019B01330193019B934284
:100C9000F9DD802100220548C90005F053FFD7E7A0
:100CA000281B0020BC160020B816002000140048A5
:100CB0005FEA0000012370B50C4E0024337000235E
:100CC00001200B4D0B4A2B7001331178012903D100
:100CD0000124411C2B54C8B20133DBB22032402B1B
:100CE000F3D1002C00D0307070BDC0460902002046
:100CF0000C020020204001080020054B05491A780D
:100D0000012A01D19A69801820338B42F7D17047AC
:100D10002040010800480108F0B58DB005F0B8FC8E
:100D200000233422012600930193174C174B0294A1
:100D300003966946DA6001A805F020FC051E05D07F
:100D400005F0BAFCFFF7B6FF0DB0F0BD11200F2281
:100D50000F4904AF68443E7009F042FA80235B00FB
:100D600008930C4B0C4E0A930C4B09950C4D0B93AE
:100D70006E442100325900230220043405F0DAFCCD
:100D8000AC42F6D1DCE7C04600400108002002403A
:100D9000D8AA00087706000010C0FEF70101C0BF06
:100DA00020400108F0B54546DE4657464E46E0B5C0
:100DB0003F4C00253F4B4048A54402E0203383428E
:100DC00012D01A78012AF9D16E1C14AA6D01541997
:100DD00022001900B0C9B0C2B0C9B0C2203330C9B6
:100DE00030C2F5B28342ECD105F052FC002334222C
:100DF000012600930193314C314B029403966946CE
:100E0000DA6001A805F0BAFB804600280BD005F097
:100E100053FCFFF74FFF2B4B9D44F0BCBB46B24643
:100E2000A946A046F0BD112004AF0F222649684410
:100E30003E7009F0D5F980235B000893434609937F
:100E4000224B234E0A93234B1A4F0B936E442100DF
:100E5000325900230220043405F06CFCBC42F6D168
:100E6000002DD4D014AB99460CAB9A465B429B46FE
:100E70004F4653464A4613CA13C313CA13C35446B4
:100E80000C4E03CA03C35E442268311900230220BA
:100E9000043405F04FFCA742F6D143460133DBB2E0
:100EA000984620239C46E144E3444545E1D1AEE722
:100EB000ACF7FFFF2040010800480108004001088E
:100EC0000020024054080000D8AA0008770600005D
:100ED00010C0FEF70101C0BF0C4B10B59C46440189
:100EE00064442378012B00D010BD05F0D1FB3422DF
:100EF000074B2100DA6001200022002305F01AFCD4
:100F000005F0DAFBFFF74EFFEEE7C04600400108B0
:100F1000002002401D4B10B5DA691D4B9A4230D1BA
:100F20001C4B1D4902E020338B422DD01A78FF2A3A
:100F3000F9D01A78012AF6D001240020154B164961
:100F400004E000280ED120338B4206D01A78FF2A05
:100F5000F7D1203301208B42F8D1002C0ED1FFF7BE
:100F6000A9FE10E01A78012A08D020338B42F4D071
:100F70001A78FF2AE7D01A78012AF6D1FFF712FF74
:100F800001E0FFF7C9FE10BD0024D6E700400108CC
:100F90000101C0BF204001080048010810B500242D
:100FA0000F4B00211C600F4B10220F481C7009F0E2
:100FB000BDF803220D4B0E481C700E4B1A70FFF744
:100FC00005FD0D4C2000FFF701FD0C48FFF7FEFC6E
:100FD0002000FFF7FBFC0A48FFF7F8FC10BDC046F5
:100FE000981600209C160020A0160020B0160020A5
:100FF00068AB0008291B002074AB0008ACAB0008EC
:10100000E4AB0008F0B5D64646464F462A4BC0B57D
:1010100098468CB06D461800FFF7D8FC2748FFF7BC
:10102000D5FC4046FFF7D2FC2548FFF7CFFC4046F1
:10103000FFF7CCFC234B2A00190051C951C251C9FA
:1010400051C21833160013CB13C213CB13C20023A3
:101050001D4FFB56052B01DD05233B701B4A002469
:1010600091461B4A924608E048460134FFF72CFDA2
:101070000435062C0DD00023FB56A2002968B25877
:10108000A342F1D150460134FFF71EFD0435062C72
:10109000F1D14046FFF79AFC0E48FFF797FC404617
:1010A000FFF794FC0C48FFF791FC0CB0E0BCBA468B
:1010B000B146A846F0BDC04674AB000820AC00089D
:1010C00058AC000888AA0008B3160020B0AC00088D
:1010D00090AC0008C8AC000800AD0008F0B5DE46D2
:1010E00057464E464546924BE0B59A46180087B0A3
:1010F000FFF76CFC8F48FFF769FC5046FFF766FC72
:101100008D48FFF763FC5046FFF760FC8B4B019363
:101110001B78002B00D1D7E00D270D230022884E2D
:10112000B256BA4201DB013B3370864B002498462D
:10113000854B02AD9946854B00969B460C2C00D9F9
:10114000B6E04246A300D3589F46019B1B78002B74
:1011500000D0BCE02A007E4B43CB43C21B787D49C4
:101160001370009B2A001B785BB2A3422DD0484627
:10117000FFF7AAFC0134BC42E0D15046FFF726FC41
:101180007548FFF723FC5046FFF720FC7348FFF734
:101190001DFC07B0F0BCBB46B246A946A046F0BD58
:1011A0006F4B1B78012B00D1B7E0022B00D1B8E0C8
:1011B0006C4B10216C4A280008F03AFF009B2A0073
:1011C0001B786A495BB2A342D1D15846FFF77CFC39
:1011D000D0E7019B1B78002B00D086E0644B1021E8
:1011E0002800614A08F024FF6249BAE7624B1B7885
:1011F000012B00D187E0022B00D196E0032B00D118
:1012000091E05E4B80E05E4B1B78002B73D1584B16
:1012100010212800544A08F00BFF5A49A1E75A4B05
:101220001B78002B65D1524B102128004E4A08F044
:10123000FFFE564995E7564B1B78002B61D14C4B6E
:1012400010212800484A08F0F3FE524989E7524B22
:10125000197818295FD88B00504A5B189B009B585F
:1012600010212800404A08F0E3FE4D4979E74D4B34
:101270001B78002B43D1414B102128004A4A08F02B
:10128000D7FE4A496DE74A4B1B78002B35D1384BC6
:1012900010212800344A08F0CBFE464961E7464B4E
:1012A000102128001B68454A08F0C2FE444958E74F
:1012B000444B1B78002B1AD12D4B102128002A4AB1
:1012C00008F0B6FE40494CE70B270B2326E73F4BBF
:1012D0001B78052B23D83E4A9B009B5810212800E1
:1012E000214A08F0A5FE3B493BE73B4B77E73A4BE9
:1012F000E3E7394B98E7384B8AE7374BC8E7374B7A
:10130000BAE7354B9CE7364B10212800164A08F007
:101310008FFE344925E7344BA2E7344B49E7344B81
:10132000DCE7344B45E7344BEEE7344BECE7C046A3
:1013300074AB0008F4AE00082CAF00080A170020B8
:10134000B3160020B8C40008BCAF00089CAF00086A
:101350008CAF0008BCAE0008C8AC000800AD0008A7
:101360000917002070AD000864AF0008D8AE00086F
:1013700030AD0008A0AE00080D00002044AD00080C
:101380000A00002068AE00080B0000204CAE0008E8
:101390000817002030AE0008281B002020CE0008CF
:1013A00014AE00080E00002080AF0008F8AD000861
:1013B0000F000020DCAD00081000002070AF000816
:1013C000C0AD000814000020A4AD00080C000020EF
:1013D00090C7000888AD000828AD00083CAD0008A3
:1013E0004CAD000884AE0008D0AA00087CAD00080F
:1013F00064AD000880AD00085CAD000854AD000885
:10140000F0B54E46DE4645465746E0B59FB0FFF77D
:1014100051FC624B624A98461B78914612789E1C9A
:10142000F6B252B2B24202DB4A46013313705D4D4E
:101430002800FFF7CBFA5C48FFF7C8FA2800FFF74F
:10144000C5FA5A48FFF7C2FA2800FFF7BFFA002E84
:101450004FD0574B00249A46564B9B46564B04930D
:10146000564B05935B46AB460393350029E0544B3E
:101470001F5D002F64D0534A534B944680227F0156
:10148000FB189B696744D200934200D37EE006AE0E
:10149000102130004D4A08F0CBFD4B461B785BB263
:1014A000A3425DD04A4A23005021019600970AA822
:1014B00008F0BEFD50460AA90134FFF705FBA5421E
:1014C00016DD43461B78A342D1DC4A46127852B25D
:1014D000A34247D094424DD0342203990AA808F081
:1014E0007FFE013450460AA9FFF7EEFAA542E8DC78
:1014F0005D462800FFF76AFA0022364B3648197815
:10150000012901D19969521820338342F7D19305FB
:10151000990D1B0D5B18414609785B0A920A013947
:101520002E48FFF7D1FA2800FFF750FA2C48FFF7B2
:101530004DFA1FB0F0BCBB46B246A946A046F0BD6E
:1015400006210120274F06AE030000913000102134
:10155000254A08F06DFD4B461B785BB2A342A1D132
:10156000224AA0E794420BD0342205990AA808F039
:1015700037FE9FE73C2204990AA808F031FE99E75C
:101580003C221B490AA808F02BFE93E79905980A0C
:101590008B0D090DC918490AD5E7C046090200207C
:1015A000B316002074AB0008D4AF00080CB00008DC
:1015B000ECBB000844B1000808B10008D4B0000832
:1015C0000C020020014001080040010844B000085E
:1015D0007CB00008204001080048010878B10008EC
:1015E000B4B10008D8AA00084CB0000858B00008F0
:1015F00098B0000810B50A48FFF7E8F9094B1B78C6
:10160000002B04D0012B08D0022B03D010BDFFF714
:10161000F9FCFBE7FFF7F4FEF8E7FFF75FFDF5E7FE
:1016200068AB0008B4160020F0B5DE4657464E46BB
:101630004546E0B54F4A504B116885B0994236D0C7
:101640000F239B460E3B9A46002398460233994649
:101650000023012701260125002001219C4601339A
:10166000102200925C46454A14705446444A177052
:10167000444A1670444A1570444A14704446444A19
:1016800014704C46434A14706446434A1470434AEB
:101690001070434A1170434A1370434B009A1A600A
:1016A00005B0F0BCBB46B246A946A046F0BD1379D2
:1016B00057799B46137A96799A46937AD5799946C3
:1016C000D37A547A9C46137B0193507B0290937B90
:1016D000190003931369526918008046009301981A
:1016E000254B434480465B44DB199B195B195344EB
:1016F0001B1902984B446344434480464344884644
:1017000043449A429CD15B46182B01D90F239B4638
:101710007B1E9F41731E9E416B1E9D415346FFB22F
:10172000F6B2EDB2032B01D901239A46631E9C4108
:10173000E3B298464B46052B01D9022399466146F0
:10174000022200238A425B416246019802995B4271
:101750001A40431E98414B1E9941039B94465A1EC2
:101760009341009AC0B2043AC9B2DBB23C2A00D815
:1017700078E775E700F80108042C07BF281B002054
:10178000140000200F0000200E0000200D0000209B
:101790000A1700200C00002009170020081700205D
:1017A0000B0000200A00002010000020F0B5574672
:1017B0004E464546DE460023E0B58DB006A9CB7304
:1017C0003B4B06933B4B1A783B4B93461A783B4B6B
:1017D00092461A783A4B91461A783A4B90461A78C4
:1017E000394B140052461F78384B00941E78384B02
:1017F0001D7813024A4610045A46134342460343D7
:101800001206134307933B02300423432A06034383
:101810001343274A089394462E4B1C782E4B0C7387
:10182000187848732D4B009A1B7801938B732C4BBF
:101830001B680B61634494465B445344019A4B44D8
:10184000434463449446DB199B195B191B19254CCF
:101850001B186344182220004B6108F059FC002833
:1018600006D10DB0F0BCBB46B246A946A046F0BDBD
:1018700004F00EFF002302A90293039303A801338F
:101880000494059304F07AFE00280DD102AB9C4627
:10189000154E164D664421003259002302200434AF
:1018A00004F048FFAC42F6D104F006FFD9E7C04689
:1018B000042C07BF281B0020140000200F0000206C
:1018C0000E0000200D0000200A1700200C00002050
:1018D00009170020081700200B0000200A00002034
:1018E0001000002000F801081008FEF718F80108A1
:1018F00002220B4B10B51A700023FF21094A0A4837
:1019000013700A4A13700A4A11700A4A7F39137019
:101910000122094B49011A70002205F013F910BD8C
:10192000291B0020B416002000080048B316002030
:1019300009000020B1160020B2160020F8B5424878
:10194000FFF744F84148FFF741F84148FFF73EF8F8
:101950004048FFF73BF84048FFF738F83F4B404816
:101960001978FFF7B1F83F4C3F4927003F4EE13768
:101970003F4DFF3732002800FFF7A6F821681434E6
:10198000A742F7D13B4A2800FFF79EF83A4B3B4865
:101990001978FFF799F83A4B3A481978FFF794F815
:1019A000394B1B68202B4DD047D80121082B03D081
:1019B000103B5A42534159003448FFF785F8344BE5
:1019C00034481978FFF780F8334B34481978FFF71B
:1019D0007BF8334B33481978FFF776F8324B3348AE
:1019E0001978FFF771F8324B32481978FFF76CF825
:1019F000314B32481978FFF767F8314B19780529D0
:101A000000D902212F48FFF75FF82F4B02221978E7
:101A100000238A425B415B4219402C48FFF754F88F
:101A20002B48FEF7D3FF2B48FEF7D0FF2A48FEF7DE
:101A3000CDFF2A48FEF7CAFFF8BD403B5A4253414A
:101A40009900B9E70321B7E7F8B100080CB2000824
:101A50002CB200084CB2000870B20008281B00200D
:101A600090B2000834CE0008F0B1000838B3000886
:101A7000B8B20008D0BF00080D000020C0B20008B6
:101A80001400002000B30008100000203CB3000840
:101A90000F00002088B300080E000020C4B3000827
:101AA00008170020FCB300080B00002034B4000825
:101AB0000A00002070B400080A170020A8B400082B
:101AC0000C000020E0B400080917002048B5000809
:101AD00080B50008A4B50008C8B50008E8B500083E
:101AE000224BF0B5D969224B22489C4661444B42B7
:101AF0005941214B83B0C9B21A78012A01D1013171
:101B0000C9B220338342F7D100221B4B194C1878FD
:101B1000012801D1986912182033A342F7D1B023CC
:101B200016481B02FEF7D0FF15481649FEF7CCFFFA
:101B30000125114C144F0F4E03E020340135B442FF
:101B40000ED02378012BF8D1A369617C621C00912F
:101B5000380029002034FEF7B7FF0135B442F0D138
:101B60000A48FEF733FF03B0F0BDC046004001084D
:101B7000FFFE3F400048010820400108F4B500087E
:101B80000CB600087706000030B600084CB6000816
:101B900010B5A0B03022002114A808F0C7FA102216
:101BA000002102A808F0C2FA1C2200210CA808F0AB
:101BB000BDFA1822002106A808F0B8FA3223102432
:101BC000139313A8313B16931B93189317941994EE
:101BD00005F0CAFF072300240121029302A8043B59
:101BE00003930494059406F0E5FA80230CA89B0265
:101BF0000C93129405F0D8FE8022A0210020D2057B
:101C0000C90406F065FA80210C4B0905DA6906A8BB
:101C10000A43DA61DB6922220B400193019B802396
:101C20009B050793064B06940993202308940A9278
:101C30000B9305F06FFF20B010BDC04600100240AE
:101C40007FBB000030B587B014220021684608F041
:101C50006DFA8021154D01222800C90004F072FFA1
:101C6000802128000122090104F06CFFFF220024DA
:101C70000023694612020E4800920193029404F078
:101C8000BBFDC02200236946280092000092019308
:101C9000029404F0B1FD0023064A6946064800920A
:101CA0000193029404F0A8FD07B030BD000800487D
:101CB00000040048FFFF00000010004830B583B06A
:101CC000FFF774FD80250022364B374C1A70ED006B
:101CD000364B200029001A6004F034FFA562344C12
:101CE0002278182A53D8930032499B189B005958E0
:101CF0003148FEF7E9FE314B1B78002B10D0304BFA
:101D00001B78012B4CD0022B43D12E492E4B1B7834
:101D1000052B43D82D4A9B009A582D48FEF7D4FE38
:101D2000FFF790FFFA239B000193019B5A1E01923B
:101D3000002BFAD1802100222648C900019B04F023
:101D400001FFFA239B000093009B5A1E0092002B78
:101D5000FAD12078009BFEF7ABFD802100224901DB
:101D60001C4804F0EFFE0A2006F000FB80258021CD
:101D70000D4CED0001221748490104F0E3FE00225A
:101D80002900200004F0DEFEA56203B030BD124938
:101D9000AEE70D4B11491B78052BBBD9104ABCE7A8
:101DA0001049B3E7291B002000140048C01600208A
:101DB000281B002020CE000858B600080A17002073
:101DC0000917002080AD00080C00002090C7000813
:101DD00094B6000800080048D0AA000870AD0008BA
:101DE00064AD00087CAD000870B50D0001268021AF
:101DF0001B4A03041B0C82B05361020C04003240E6
:101E00001848490004F09EFE8021620C15483240BB
:101E1000890004F097FEFF21134B2D025A691148E7
:101E200011402943596180210022090104F08AFEF2
:101E30000A230193019B5A1E0192002BFAD18021A3
:101E4000012208480901019B04F07CFE0A2300934B
:101E5000009B5A1E0092002BFAD1009B02B070BD6D
:101E600000100048000800480004004830B58021F8
:101E700001251D4A03041B0C85B05361020C0400AC
:101E80002A401A48490004F05DFE8021620C174880
:101E90002A40890004F056FE0A230393039B5A1E2E
:101EA0000392002BFAD1802100221048C900039B25
:101EB00004F048FE0A230293029B5A1E0292002B52
:101EC000FAD16A468021029B094BD41D1B69074841
:101ED0001B0ADBB2D371C900012204F033FE207863
:101EE000C0B205B030BDC046001000480008004830
:101EF00000040048F8B50E0005004027224C234A94
:101F00002368AA211B041B0C134323602048FFF7FE
:101F10006BFF55211F48FFF767FFA0211C48FFF703
:101F200063FF31002800FFF75FFF23681A4E1B0490
:101F30001B0C23602800FFF799FF04002800FFF71F
:101F400095FF444027420FD0013E002EF2D12800D9
:101F5000FFF78CFF04002800FFF788FF604007426E
:101F60000FD001267642E5E72800FFF77FFF040047
:101F70002800FFF77BFF4440274202D0013E002E9D
:101F8000D8D10020F8BDC0460004004800005555D7
:101F900055550000AA2A000050C3000070B5402625
:101FA000264C274A2368AA211B041B0C13432360D9
:101FB0002448FFF719FF55212348FFF715FF80211B
:101FC0002048FFF711FFAA211E48FFF70DFF5521FA
:101FD0001D48FFF709FF10211A48FFF705FF236886
:101FE0001A4D1B041B0C23600A20FFF73FFF04005F
:101FF0000A20FFF73BFF444026420FD0013D002D51
:10200000F2D10A20FFF732FF04000A20FFF72EFF6B
:10201000604006420FD001256D42E5E70A20FFF738
:1020200025FF04000A20FFF721FF4440264202D08A
:10203000013D002DD8D1002070BDC04600040048ED
:102040000000555555550000AA2A0000404B4C0091
:10205000D0B586B014220021684608F067F88021C8
:10206000154C01222000C90004F06CFD80212000E5
:102070000122090104F066FDC02201230026012788
:10208000694620009200009201930296039704F0A3
:10209000B3FB0123094A694609480092019302965D
:1020A000039704F0A9FB0749074A0B681B041B0CA4
:1020B00013430B6006B0D0BD00080048FFFF0000CE
:1020C000001000480004004800005555F0B5DE46F9
:1020D00057464E464546E0B5CFB08B460390049236
:1020E000002901D1002081E10123D14A05E001331B
:1020F000DBB22032402B00D18BE11178FF29F6D1E1
:102100005BB2059300250320C94BCA4902E0203386
:102110008B420DD01A78012AF9D15A699C6912199B
:10212000033282439542F2D2203315008B42F1D123
:102130005B46B0225B191202934200D8C3E0002034
:10214000BB4BBC491A78012A01D19A698018203307
:102150008B42F7D1B02358441B029842C2D8B648EC
:10216000FEF734FC802300259B029A46B34B0FAC4C
:10217000A946012625000193029403E001360435A7
:10218000402E34D0AE4B7201D7183B78012BF5D1DD
:10219000AC49BB698C46019862443100FEF794FC5F
:1021A0004B46A44A2B6090467B6900249844FFF775
:1021B0004FFFBB69002B0FD02B004546B04656465B
:1021C0009A46295D3019FFF795FEBB690134A34299
:1021D000F7D85546B24646460322BB6901369A44B3
:1021E000BB690435033393439944402ECAD19648C2
:1021F000029CFEF7EBFB04F04BFA0023002209934C
:102200008C4B09A90A920B9316230AA80C9304F08D
:10221000B5F94EAB984680239B024D4601935B4631
:10222000834F0695079303E004342037444540D09C
:102230003B78012BF8D1FFF705FD80210022834870
:10224000C90004F07FFC7B4A236891469944BB692E
:102250000022002B23D07E4BA2469B464B46B9461C
:10226000170002933D00002400264B469B69FF2087
:102270009D4200D2F4E0A040083406430135202CF2
:10228000F3D1029B3200D9190220002304F052FA44
:102290004B469B690437BB42E4D84F465446019AEB
:1022A000BB6994469C4463460434019320374445FB
:1022B000BED1079B069D9B4604F0FEF96548FEF7DC
:1022C00085FBFEF76FFD5B4B634C9A46AA44534671
:1022D0005C446419DB0AE40ADB02E402E41AE40A5F
:1022E000994604F0D5F9002C00D1C6E08027E4021D
:1022F000A0462B003F014F44B84445463E004946A6
:1023000098460EAC0B0002E004339E420CD01A68D3
:102310000132F9D000230A93236001336160200069
:10232000A3600AA904F02AF980231B019C46664495
:102330003900B54201D06744E4E74546FFF782FC27
:10234000802100224148C90004F0FCFB002398468C
:102350003F4B0195994623005C469B464646002527
:102360000027FF20A64248D3A8400835074301367E
:10237000202DF6D15146002341443A00022004F0BA
:10238000D9F904239C46E04400264445E6D85B4640
:10239000A3461C000123237008AB9C4619200F2282
:1023A00060440399019D07F0DAFE049B34226374B4
:1023B0005B46A361294B267466826561E661DA603B
:1023C000059B16AE5D011E4B2D1B9C466544226885
:1023D000291900230220043404F0ACF9A642F6D1F6
:1023E00004F06AF9FEF766FC6B46187D4FB0F0BC4E
:1023F000BB46B246A946A046F0BDFFF729FE4B46B4
:102400004A461B6830001B041B0C1360FFF72EFDAF
:10241000AAE7FEF7C7FC0123054A05E00133DBB25A
:102420002032402B00D15DE61178FF29F6D167E616
:102430002040010800480108C8B600080CB7000891
:10244000004001080140010838B7000800080048B2
:102450000004004854B70008FF4F01080020024064
:10246000FFF7F6FD5B465A461B681B041B0C136006
:10247000019BE818FFF7FAFCFDE60EAC5EE7C046EC
:10248000F0B54E464546DE465746E0B587B01C00DF
:1024900010AB1B780E008046111E019300D1FBE0AB
:1024A00032008148FEF710FB802100227F4849015D
:1024B00004F048FB80210122C9007D4804F042FB62
:1024C0007C48FEF783FAFFF7C3FDFFF767FD7A4804
:1024D000FEF77CFA04AB9A465146784B1A68049290
:1024E0009A888A809B798B71002C2ED08023B51D11
:1024F000DB029D4200D97EE0092D29D90A2128005E
:10250000FDF702FE814653469B1B9B466C4B64279E
:102510000093330000244E46994611E04346195D6E
:1025200020000134FFF7E6FC31002000FDF772FEC9
:10253000002967D0AC4200D173E06437AC426ED260
:10254000A145EBD85B46195DEAE73500092DD5D8E2
:10255000002D00D0A5E05B48FEF738FA5A48FEF798
:1025600035FA5A48FEF732FA019B0125002B00D1BB
:102570008EE05748FEF72AFA802100224C48C90015
:1025800004F0E0FAFFF75EFBFA239B000393039B42
:102590005A1E0392002BFAD1802100224348C90021
:1025A000039B04F0CFFAFA239B000293029C631E64
:1025B0000293002CFAD18021002249013B48029B62
:1025C00004F0C0FA0A2005F0D1FE8021012237482C
:1025D000490104F0B7FA3F4B1C703F4B1C703F4B56
:1025E0001C703F4B1C70280007B0F0BCBB46B246C5
:1025F000A946A046F0BD0A213000FDF785FD350053
:10260000814680E729003800FDF77EFD2B000100A0
:1026100022000098FEF758FA6437AC4290D34E4639
:102620000BE029003800FDF76FFD254C01002B0061
:102630002A0020004E46FEF747FA2248FEF7C6F968
:1026400053469B1B00249A460AE0434620001F5D28
:10265000FFF70CFC87420CD10134AC4200D17DE77E
:10266000A642F2D8534620001F5DFFF7FFFB8742CA
:10267000F2D01C4D03003A0028002100FEF724FA96
:102680001248FEF7A3F9019B0025002B00D070E74C
:102690001548FEF79BF9A6E731001448FEF714FA37
:1026A00002E7012399462EE798B700080008004882
:1026B00000140048D4B70008E4B700083CAD000897
:1026C000ECB7000814B8000860B8000868B8000843
:1026D00094B80008C5160020C4160020271B00204F
:1026E000291B002028B80008B0B80008B8B70008B7
:1026F00000B5114883B0FEF769F91049104B09780D
:102700001B78104A009110481049FFF7B9FE0023CA
:102710000F4A13700F4A13600F4A13600F4A136079
:102720000F4A13700F4A13800F4A138000220F4B79
:102730001A7003B000BDC046E0B800080F000020CA
:102740000E00002010B90008A8C700087706000096
:102750005502002068020020640200205C02002074
:10276000540200206E0200206C0200204D02002066
:1027700010B582B0002809D03F2805D80E4B400183
:10278000C3181A78012A06D002B010BDFFF7B0FFB7
:10279000FFF794FAF8E7094A996982185C690848D2
:1027A000084B2018084C1B7824780094FFF768FE2B
:1027B000FFF784FAE8E7C04600400108014001083D
:1027C000004801080E0000200F00002010B52E4820
:1027D0008AB0FEF7FBF8AE2385212C4C9B00E05815
:1027E0002B4A89004358002B49D100230193019BB8
:1027F000284A934205DC019B01330193019B9342DC
:10280000F9DD200006F028FD200006F001FD802102
:10281000214B89025A6906A80A435A615B690C2256
:102820000B4002930021029B07F080FC8022902045
:102830000123520104A9C0050492059303F0DCFFB3
:102840008021902000224901C00504F07BF900237B
:102850000393039B114A934205DC039B01330393CB
:10286000039B9342F9DD0E4B0E4A1A60BFF34F8F64
:102870000D4B0E4ADA60BFF34F8FC046FDE7013AB9
:10288000002AAFD1B1E7C04628B90008981B002044
:10289000400D03001FA10700001002403F420F003F
:1028A000F03F0020EFBEADDE00ED00E00400FA05D1
:1028B00070B5764D04002B78002B05D1052807D87C
:1028C000734B84001B599F46012B02D0022B27D04B
:1028D00070BD0C28FCD86F4B84001B599F46FEF737
:1028E000A3FEFFF7EBF9F3E7022300222B706A4BFC
:1028F0001A706A4B01321A70EAE700210122664B16
:102900002A701970654B1A70E2E76548FEF75EF8A9
:10291000FFF7EEFEDCE7FEF749FFFFF7CFF9D7E759
:10292000FEF7C8F95F4B1B78A3420AD87DD000237D
:10293000594A2B7013700122584B1A70C8E7FFF7E1
:1029400045FF594B185DFFF713FFC1E7574B1B7845
:10295000002B44D0564C2078002900DC8FE0062163
:102960000130FDF741FD2170B2E7504A137859421A
:102970004B411370ACE74F4A137800295EDD032109
:1029800001330B401370A3E74B4A137859424B4174
:1029900013709DE7494A137859424B41137097E7EA
:1029A000474A137859424B41137091E7454B1878C9
:1029B000002948DD19210130FDF716FDC8B2FDF7E9
:1029C00077FF85E7404A137859424B4113707FE700
:1029D0003E4A137859424B41137079E70023012294
:1029E0002B702D4B1A702D4B1A7071E7384C2078D4
:1029F00000291DDD03210130FDF7F6FC217067E79A
:102A0000344A137859424B41137061E7324A1368D4
:102A1000002920DD042B29D0082B2DD0102B28D005
:102A2000202B20D00423136052E7FEF7B7FA4FE7BC
:102A300003210230FDF7D8FC217049E7032103335D
:102A40000B40137044E719211830FDF7CDFCC8B2D4
:102A5000FDF72EFF3CE7402B0BD0202B0CD0102B8A
:102A600004D0082BDED04023136031E70823136025
:102A70002EE7202313602BE71023136028E706219D
:102A80000530FDF7B1FC217022E7C046B4160020E6
:102A9000ECC4000804C50008B3160020B2160020DC
:102AA0005CB90008090200200C0200200A1700206F
:102AB0000C0000200D0000200A0000200B00002068
:102AC00008170020281B00200E0000201400002002
:102AD000091700200F0000201000002070B590267C
:102AE00004000125F605C2098021300004F02AF80F
:102AF000A20930002A40402104F024F86209300085
:102B00002A40202104F01EF8220930002A4010211A
:102B100004F018F8E20830002A40082104F012F806
:102B2000A20830002A40042104F00CF862083000AA
:102B30002A40022104F006F82A0030000121224038
:102B400004F000F870BDC04610B5022800D010BDDA
:102B500000228021104803F0F5FF104B104A19782D
:102B60001278914203D100220E4B1A70EFE71A78C7
:102B70000D49D2B2885C3F221978C0B201310A40B7
:102B80001A70FFF7ABFF01228021034803F0DAFF40
:102B90000122044B1A70DAE700080048C51600202D
:102BA000C4160020271B0020C8160020F0B5574689
:102BB0004E46DE464546E0B507000E0095B00429B6
:102BC00006D90522C44907F0B9FA002800D152E11C
:102BD00031003800C14AFDF7CFFD002800D03AE1AE
:102BE00031003800BE4AFDF7C7FD002800D032E1B1
:102BF00031003800BB4AFDF7E3FD002800D036E184
:102C000031003800B84AFDF7DBFD002800D02EE186
:102C100031003800B54AFDF7D3FD002800D026E189
:102C200031003800B24AFDF7CBFD002800D02AE180
:102C300031003800AF4AFDF7C3FD002800D01EE187
:102C400031003800AC4AFDF7BBFD002800D016E18A
:102C5000082E2CD931003800A84AFDF78DFD002838
:102C600000D087E1092E00D19EE131003800A44A4E
:102C7000FDF782FD002800D0F4E131003800A14AC0
:102C8000FDF77AFD002800D096E1112E07D931001A
:102C900038009D4AFDF770FD002800D013E2310096
:102CA00038009A4AFDF768FD002800D09EE1310007
:102CB0003800974AFDF784FD002800D007E1310075
:102CC0003800944AFDF77CFD002800D0FFE0310079
:102CD0003800914AFDF774FD002800D0BBE03100B8
:102CE00038008E4AFDF76CFD002800D0B3E03100BB
:102CF00038008B4AFDF740FD002800D0CCE13100C0
:102D00003800884AFDF738FD002800D0C4E1052EC0
:102D100022D931003800844AFDF72EFD002814D056
:102D20007B7900241A00303A791D092A0AD8A200BA
:102D3000121952000131D4180B78303C1A00303A85
:102D4000092AF4D93D2B00D128E231003800774A16
:102D5000FDF712FD00285DD131003800744AFDF7FF
:102D60002FFD002800D0F1E131003800714AFDF755
:102D700027FD002800D0E9E1310038006E4AFDF758
:102D80001FFD002800D000E2310038006B4AFDF73B
:102D900017FD002800D0F8E131003800684AFDF73F
:102DA0000FFD002800D027E231003800654AFDF70A
:102DB00007FD041E00D01FE2634D2B789946002BBF
:102DC00000D027E2614B1B78002B01D100F0F9FE07
:102DD0005F4B1B68B34201D900F0F3FE5D4B1B78DB
:102DE000002B01D100F0E2FEB0460026B844B84501
:102DF00001D100F0A6FE402E01D100F0A6FE3C78E5
:102E00002000FDF7A3FC002802D004AB9C5501363E
:102E10000137ECE77A79791D1300303B092B01D992
:102E200000F073FE0024A3001B195B0001319B1806
:102E30000A78303B1C001300303B092BF3D92100EA
:102E40004548FDF741FE1E2C15D01F2C01D100F086
:102E5000B3FF202C02D10122404B1A700124200024
:102E600015B0F0BCBB46B246A946A046F0BD012253
:102E70003B4B1A70F2E701223A4B1A70EEE701223F
:102E8000394B1A70EAE70122384B1A70E6E72378CB
:102E9000022B01D100F04EFC2378062B01D100F06B
:102EA00030FC2378032B01D100F014FC2378042B91
:102EB000D4D1002ED2D03B78202B08D001D900F0FD
:102EC00001FC0D2B03D01B2BC5D00A2BC6D1012230
:102ED000274B1A70C2E7C04684B900088CB90008B5
:102EE00094B900089CB90008A4B9000888B9000882
:102EF000B0B90008B8B90008C0B90008CCB90008DA
:102F0000D8B90008E4B90008F0B9000824BA0008EC
:102F100030BA000838BA000844BA00084CBA0008B1
:102F200058BA000860BA000868BA000884BA0008F5
:102F30009CBA0008A4BA0008ACBA0008B4BA0008E9
:102F4000BCBA0008C4BA0008291B002014000020E5
:102F500010000020081700208CBA000881160020FD
:102F60002A1B0020821600207F16002080160020D9
:102F700083160020797A38000B00303B0930092B8A
:102F800000D9F4E000231A0093009B185B00013085
:102F90005A180178303A0B00303B092BF4D9130052
:102FA000BF4A5BB2137059E709213800BD4AFDF7EB
:102FB000E3FB002800D172E6797A38000B00303B41
:102FC0000930092B00D9DEE000231A0093009B187A
:102FD0005B0001305A180178303A0B00303B092B66
:102FE000F4D91300B04A5BB2137037E73A007B7A2A
:102FF0000932002B00D19FE00020AC4D0FE00A2BDE
:103000000FD00F2810D0190020395E2903D83B2B90
:1030100001D02B54013053780132002B01D00D2BFD
:10302000EDD1002800D188E00024A14B2C54187069
:10303000FFF70EF8FEF7B2FF9E4B1C609E4B1C6024
:1030400005F08EF901229D4B290018609C4B9D488C
:103050001A709D4B02321A709C4B013A1A70FDF7A0
:1030600033FDFBE6B97A38000B00303B0A30092B00
:1030700000D991E000231A0093009B185B000130F7
:103080005A180178303A0B00303B092BF4D9130061
:103090008F4A5BB21370E1E602228B4BFF211A705C
:1030A00000238C4A8C4813708C4A13708C4A117020
:1030B0008C4A8021137001228B4B49011A70002227
:1030C00003F040FDCAE63A00BB7C1232002B50D020
:1030D0000020764D0FE00A2B0FD00F280FD01900DB
:1030E00020395E2903D83B2B01D02B540130537873
:1030F0000132002B01D00D2BEDD100283AD0002455
:103100006B4B2C541870FEF7A3FFFEF747FF694B7B
:103110001C60694B1C6005F023F902220321674BF8
:103120001860674B67481A70674B1970674B290026
:103130001A70FDF7C9FC91E65C4D102228006B491E
:1031400007F00DF82800FDF799FA6DE7684B1B783A
:10315000172B00D982E60133D8B2FDF7A9FB012273
:10316000644B1A7005F0FCF8634B186076E6002398
:1031700016E74E4D102228005C4906F0F0FF2800AB
:10318000FDF77CFABBE700232CE7594B1B78002B9B
:1031900000D163E6013BDFE7002379E700250A223F
:1031A000013103E05543303D5D1901310B781800C2
:1031B00030380928F6D923000A3B0B2B0FD84F4A89
:1031C0009B00D3589F464E4B1A6804921B7904AA61
:1031D000137104239D4200D8535D4A4A13600122B3
:1031E000444B1A7005F0BCF8434B2A0018602100CC
:1031F0004548FDF769FC31E63D4B1978182901D99E
:1032000000F0DFFD14224A43404BD1584048FDF7FF
:103210005BFC23E6022B00D104E1032B00D1C1E0CB
:10322000012B00D01AE605F09BF80122394B1860FB
:10323000394B1A70394A13689B191360384B1B7845
:10324000002B79D02300B0464C4600269946B8445E
:10325000B84500D19DE0402E6AD03D782800FDF7AA
:1032600075FA002802D004AB9D5501360137EFE70F
:103270002A00511E8A412B4B1A70B0E72A00511EBA
:103280008A41274B1A70AAE72A00511E8A41264B11
:103290001A70A4E72A00511E8A41244B1A709EE737
:1032A00003000020E4B9000801000020A01600205F
:1032B0009C160020981600209416002090160020DE
:1032C0007E16002010BA0008291B0020B01600202E
:1032D00002000020B416002000080048B3160020A9
:1032E00009000020B1160020B216002004BA000820
:1032F000281B0020BC160020B816002038C5000886
:1033000018BB00081000002070BA000820CE00088A
:10331000CCBA0008580200205502002060020020AC
:10332000081700200B0000200E0000200F000020D6
:103330004B46A1461C0004AFC14B9A461B78002B9C
:1033400000D12DE18021BB19C9028C46C8469B469D
:103350003A00BC48BC4DBD4FBD4E0194934500D1D1
:103360000AE13968614512D201882B88013189054B
:10337000890D8B420BD003889BB2994613789A46ED
:103380004B465446F45401803968013139600132AA
:10339000E4E74B46A1461C00002E01D14C465EE5F9
:1033A00004AFC9E7AB4C2378002B00D06FE5BB1905
:1033B0000193A94B00219B46082399461833984650
:1033C0005B463A008A46A54E02940393019B9342C2
:1033D00000D1BFE013781B2B00D1A9E00D2B00D149
:1033E0009AE00A2B00D197E0082B7ED07F2B7CD06F
:1033F0001F00203F5E2F51D8307884460E284DD8CC
:103400006446471C9448FFB2035583460020844617
:10341000584664463770C4553F293FD804A84F1C0E
:1034200043543CE08E4B1A78002A32D1002E00D152
:1034300014E58C4C2378002B29D0012B20D00622B8
:10344000022B16D000203B78012E08D03B5C202BAD
:1034500001D0092B26D101308642F7D1FEE4202B82
:10346000F4D10022804B9A56804B1A70804B1E700C
:10347000F4E4FDF71FFC7F4B1A780232D2B2E1E789
:103480007D4B0B221B78002BDCD00232DAE70622C0
:10349000D8E701221870794B1A70DFE40F00390069
:1034A000013293E7864200D8D8E43B1898463B5C4B
:1034B0001B2B00D19EE12578002D00D08CE1352B0F
:1034C00000D9F5E2302B00D857E104F049FF6C4BEE
:1034D000654A186043461B78313B5BB21370634A00
:1034E00013700122624B1A70B8E43378002BD5D0E8
:1034F00057460398013BDBB2C754CF1C33703F2FB4
:10350000CCD8484604AB58540B0004A98C4641461D
:10351000634459709870C2E7504E029C33784E4D08
:10352000002B0DD000223378EA540123237095E458
:1035300002234C4A2B7013700122504B1A708DE4F9
:1035400010225049280006F00AFE2800FDF796F8E0
:103550003070E7E7002900D180E4AE224A4B9200A8
:103560009A5885239B00D358002B00D076E489B26B
:1035700004A806F003FB71E402882B88C146019C75
:103580009A423CD303882A889B1A9BB23F4AD31A9B
:103590009BB27F2B00D901E701223D4B1A705EE4FC
:1035A0003C4B1A689846802392195B019A4275D960
:1035B000424612689D1A934230D15246012313703D
:1035C000BA199146A2467D191E491F4F204E1F4829
:1035D000A9451DD00B883A8801339B059B0D9A4263
:1035E0000BD00A8892B294462A78904662464446A6
:1035F000B4540B800368013303600135E8E7802190
:10360000C9008C4603882A8863449B1A9BB2BDE795
:1036100001221F4B54461A70FFF721FC43461868DD
:103620001D4B2A00C018390006F0DAFD4346424619
:103630001B685B191360054A13685B191360BCE7CC
:10364000540200206E0200206C0200206402002060
:1036500070020020B0160020A01600209C1600204A
:1036600086160020B4160020B316002009000020A2
:1036700008000020090200200A170020B2160020CE
:103680000402002004BA0008981B0020FF03000079
:103690002C2600206802002070060020434618688F
:1036A000D64B3200C018390006F09AFD4346424618
:1036B0001B684C469B191360D14A13689B19136011
:1036C000FFF7CDFB20229343432B01D0FFF7C6FB2E
:1036D000FFF7C1FB002E01D1FFF7C0FB3B784E2B5B
:1036E00072D064D96E2B6FD020229343592B01D016
:1036F000FFF7B4FB0122C34B1A70C34B1A70FFF7DC
:10370000ADFB0022202111E0BB5C1B2B00D10FE799
:10371000302B00D10CE718008843512800D107E76F
:10372000180031380132082800D899E1B242EBD1B3
:10373000FFF794FB04F014FEB44BB54A186013680D
:10374000B1469B191360B34B80269846B24CB944DE
:10375000F602B94501D1FFF781FB43461B783D785E
:10376000002B04D02800FCF7F1FF002803D02068CC
:10377000B04200D2AAE10137EBE7082B00D193E178
:10378000302B00D190E10D2B00D17BE10A2B00D131
:1037900078E1202B01D0FFF761FB00229F4B9A5666
:1037A0009F4B1A7001229F4B1A70FFF757FB0A3B81
:1037B000DBB2162B01D9FFF751FB9B4ADA4013000D
:1037C000DB0797D4FFF74AFB00228E4B1A708E4B13
:1037D00001321A70FFF742FB012D00D1BCE0022D2F
:1037E000D1D11A00083AD2B2772ACCD88F499200A8
:1037F0008A589746831CB34205D2414649785B29D3
:103800001AD04F2918D02378013B012B00D8A0E013
:103810000122874B1A70FFF721FB804B854A1B78EA
:1038200012785BB2934201DBFFF718FB824AD25653
:10383000824B1A70FFF712FBF95C3339C9B21129B8
:10384000E1D87F4B89005B589F46744B794A1B78BF
:1038500012785BB2934201DBFFF700FB764AD25647
:10386000784B1A70FFF7FAFA0122774B1A70FFF7BC
:10387000F5FA704A303B1278DBB29A4201D8FFF772
:10388000EDFA664A13700122704B1A70FFF7E6FAE0
:103890000330B042B7D23B5C7E2BB4D12378022BED
:1038A00001D0FFF7DBFA5D4B624A1B7812785BB2FE
:1038B000934201DBFFF7D2FA5F4AD35C002B01D1C0
:1038C000FFF7CCFA624A5BB21370FFF7C7FA2378AE
:1038D000012B01D0FFF7C2FA504B013A1B785BB2C3
:1038E000934201DBFFF7BAFA4D4A1370FF224D4BAA
:1038F0001A70FFF7B3FA2378012B01D0FFF7AEFA65
:103900004649013A097849B2914201DBFFF7A6FA2C
:10391000434A1170434A1370FFF7A0FA3F490B78EE
:1039200001335BB2934200DB002301220B70474B53
:103930001A70FFF793FA39490B78013B58B21B060E
:1039400001D5501E40B20122404B08701A70FFF79B
:1039500085FA0023237094E71A00313A082A3CD9EB
:103960002022190091430A0041292DD039490978B4
:10397000002909D0542A00D1B3E02822190091432C
:103980000A00432900D1A8E0512B07D00FD8302BD3
:1039900004D0422B02D0082B00D0F4E600230122F1
:1039A00023701E4B1A70294B1A70FFF757FA623BAF
:1039B000DBB21D2B01D9FFF751FA274ADA40130079
:1039C000DB07EBD4FFF74AFA144B383A1A70144B62
:1039D0001A70144B1D70FFF741FA04F0C1FC1F4B25
:1039E0000E4A186043461B78313B5BB213700C4A99
:1039F00013700C4B1D70FFF731FAC04670060020A3
:103A000064020020841600208516002090160020F5
:103A1000941600200B00002098160020B3160020FA
:103A200009000020080000200900400068C50008C7
:103A3000B1160020090200200C0200200500002021
:103A400048C700080600002087160020B216002094
:103A5000070000200A170020018000200402002037
:103A6000303BDBB2964208D9BA5C303AD2B2092A6E
:103A700003D80A214B439B18DBB2D34A5BB21370C5
:103A8000FFF7ECF904F06CFCD04B1B68C01A6428FB
:103A900001D8FFF7E3F980E6623BDAB2CC4BD340C2
:103AA000DB0701D4FFF7DAF90522CA4B1A7077E673
:103AB0005AB2002A01DAFFF7D1F9612BECD8422B78
:103AC000F2D0512B01D0FFF7C9F9EDE7431C2900D3
:103AD00023600137FEF70EFA3BE6BE4B383A1A7008
:103AE0005EE6BC4B4A3A1A705AE6052D01D9FFF73B
:103AF00076FBB94B1D70FFF772FB022D01D9FFF762
:103B00006EFBB64B1D70FFF76AFB0021B448FCF753
:103B1000DBFFFFF7A3F92A00511E8A41B14B1A704F
:103B2000FFF75DFB0322B04B2A401A70FFF757FBEB
:103B3000182D01D9FFF753FBE8B2FCF7B9FEFFF7E8
:103B40004EFB002E01D1FFF789F904AB98460127FF
:103B500080213A00A548C9002F7002F0F3FF8021B0
:103B600000224901A24802F0EDFF0023A14CA24D22
:103B7000A24A23602B601360A14A1770A14A1370F8
:103B8000A14A1380A14A1380A14A137004F0E8FBF4
:103B9000A04B3200186041469F4806F021FB9F4829
:103BA00026602E60FCF712FFFFF758F9402E00D96F
:103BB000402604AB320039001800984606F010FB8E
:103BC000C5E7894B1B78012B00D19CE0022B00D16B
:103BD00085E0032B65D0924B1B78002B07D07F4BE1
:103BE0001B78002B00D0BEE0012E00D1A1E08D4B50
:103BF0008D491B7800200193BB1903933F239B46FB
:103C00008A4B01269A468A4BD44699460A238A460D
:103C100098463A000C78874F039B93421AD0019B39
:103C20001578002B05D00D2D4AD00A2D44D0002444
:103C3000300059463B7801330B40614609780293C6
:103C4000994205D04B463978C9B25D54029B3B700E
:103C50000132E1E75146002800D00C70764C237801
:103C6000002B01D0FFF7FAF8704A724B11781B78DD
:103C7000994201D1FFF7F2F813786D49DBB2C85CC5
:103C80003F211378C0B201330B401370FEF726FFBB
:103C900001228021564802F055FF01232370FFF7CF
:103CA000DDF8012E97D13B782B2B10D02D2B92D104
:103CB000FCF7C8FFFFF7D2F8002C0CD10120B8E7C1
:103CC000300034004546B4E7FB787E2B83D1FCF707
:103CD00081FFFFF7C3F80024012001329CE7032E87
:103CE00000D078E73B781B2B00D074E77B785B2B08
:103CF00002D04F2B00D06EE7BB78412BE7D0422B90
:103D000000D068E7D4E7042E00D064E73B781B2B93
:103D100000D060E77B785B2B00D05CE7BB78352B6D
:103D2000D2D0362B00D056E7FB787E2B00D052E75E
:103D3000BEE73B78202B00D059E704AA11003F4B87
:103D400031CB31C131CB31C1234B64211B78052BE1
:103D500001D89B00995872B6394A13685B181360F2
:103D600062B6FFF77BF8012B07D1012E00D03EE7AA
:103D70003B78092B00D03AE7DFE7022B00D036E78B
:103D8000012E00D033E73B780D2BD6D00A2B00D084
:103D90002DE7D2E72A00511E8A41214B1A70294B88
:103DA0001878FCF785FDFFF71AFA2A00511E8A41A0
:103DB0001C4B1A70FFF713FA0122234B1A70FFF7FE
:103DC0004DF82249FFF722FA0400002004020020E7
:103DD00001800020B31600200C00002009170020ED
:103DE0008CBA0008140000200D00002000140048C8
:103DF0000008004868020020640200205C020020E5
:103E000055020020540200206E0200206C020020A7
:103E10004D0200205802002070060020DCBA000885
:103E20000A1700200A00002008020020C516002002
:103E3000C8160020C4160020271B0020B8AA0008BE
:103E4000C0160020281B00207D160020D0AA0008E4
:103E5000F0B5DE4657464E464546E0B50126882475
:103E6000C3B0FE4D02AF04F05FFAAB693A193343B9
:103E7000AB61AB690321334013601300F84A1B6840
:103E8000136889468B431360FDF782FE64231B1978
:103E900014220021D81906F049F980226B69920397
:103EA00013436B616B69EF481340C422B9180B6070
:103EB0000B0080221B686B69D20313436B616B6933
:103EC00000241340C822B9180B600B0080221B6825
:103ED0006B69120313436B616B691340CC22B918F1
:103EE0000B600B0080221B686B69920213436B61AD
:103EF0006B6992461340D022B9180B600B008022E8
:103F00001B686B69D20213436B616B691340D42247
:103F1000B9180B600B0080221B686B6952031343B6
:103F20006B616B691340D822B9188022D200904689
:103F30000B600B00002241461B6802F003FE0122C9
:103F4000C949CA4802F0FEFD90200022FF21C005A9
:103F500002F0F8FD84210022C448490102F0F2FD7C
:103F6000EC23C34AF9180A60F0217A181460F4228D
:103F7000B81804608820883B1A18D119BD4802F08F
:103F80003BFCEC234046FA181060F021F42279182B
:103F9000BA180E601460F8228820B918883B0C60AB
:103FA0001918C919AF4802F027FCEC230222F918AE
:103FB0000A60F021B0487918086083468820F23200
:103FC000B918883B0E601918C919A84802F014FCEA
:103FD000EC230420F9180860F021083379180E60EA
:103FE000F822F9180C604946B81801608820903B07
:103FF0001918C9199D4802F0FFFBEC220823B918D3
:104000000B6059460432B81801608820EC33F91867
:10401000903B0C601918C919944802F0EDFBEC2391
:10402000FF21F422F81801600F3978180660B818DB
:1040300004320460B81806608820883B1818C1193B
:104040009020C00502F0D8FBEC231020F91808607E
:10405000F0218346083378180460F8180660882039
:10406000903B1818C119814802F0C6FBEC2260236E
:10407000F021B8180360781894330460EA3AF8180D
:1040800002608820903B1818C119784802F0B4FBF0
:10409000EC237749F8180160F021F42278180460C5
:1040A000B81804608820883B1818C119734802F0BA
:1040B000A3FBEC238421F81849010160F0210833A7
:1040C00078180660F822F81804608820903BBA1827
:1040D00014601A18D119654802F08EFBEC22C02337
:1040E000B818F0219B000360F42378180460F818D6
:1040F00004608820903B1818C1195C4802F07CFBD2
:10410000EC228023F021B8185B000360EA3A7818AB
:1041100002604A460C3BF8180831046078180260C7
:104120008820F932903BBA1814601A189020D219DE
:104130001100C00502F060FBC023EC22F0211B013E
:10414000BA181360F42388207A1808311660791899
:10415000FA18903B14600E601918CA1911004348F0
:1041600002F04AFBEC23FF21FA181160F022083319
:10417000BA18FB18146088201C6064231A18D1191F
:104180003F4802F039FB00220021052002F096F999
:10419000052002F0BDF900220021062002F08EF970
:1041A000062002F0B5F952466B69002113436B619A
:1041B0006B6913408C22B8180360036888236C2055
:1041C000C0180C22C01905F0B1FFEC2180227B1829
:1041D00052011A60882064231B18902004319246F3
:1041E0007A181660D919C00502F006FB902000224B
:1041F0005146C00502F0A6FC642004F0B7F89020F8
:104200005146C00502F004FC05F062FC88205423EE
:104210001B180C220021D81905F088FF194A1A4BE7
:104220000420136080235B029361C2235946FF334D
:10423000D3619E3B5061FF3B100093469160D45484
:10424000BA605460D46016611462946201F06EFF2B
:10425000DC210A2379180B60514617E00010024058
:104260000000014000140048040C00000008004851
:10427000FFFF00000010004800002110000400486B
:10428000000C00482C1B002000240140D633FB18F2
:104290001960E4234946FB188822196054239B18AF
:1042A000D919584602F078F88022AB6912011343FD
:1042B000AB61AB69E1481340C022B9180B600B0039
:1042C000E0221B68DE4BFF321C609A62783AFF3AAC
:1042D000DE625E639A61802212021E625A6480224C
:1042E00041461A607F3A02F02DFC502004F03EF85F
:1042F00000224146D14802F025FCD24B1C707B675E
:10430000D14B1C609B46D14B1C603B63D04B1C6067
:104310009A46D04B1C707B60CF4B1C60FDF792FC23
:10432000FA239C229B00BA1813609C217B181B68FF
:1043300079185A1E0A60002BF7D10B008021002249
:10434000C648C9001B6802F0FDFBFA2398229B00B7
:10435000BA1813609822BB181C68BA18631E136041
:10436000002CF7D180211300BC48012249011B68B1
:1043700002F0E8FB8021B148C900002202F0E2FB14
:104380008422B74BBA1813601C70FDF74DF9FCF787
:10439000C1FDB44B18787B64FCF78AFA1021AF4852
:1043A00002F0CAFBB04BB14A7B65187043425841DA
:1043B000BA66107003F0D4FFAD4B18603B65AD4B8F
:1043C0001C60FB63AC4B1C70BB61AC4B1C707B6115
:1043D000AB4B1C70FB62AB4B1C60FB60AA4B1C60C0
:1043E0003B60AA4B1C60FB61A94B1C603B61A94B65
:1043F000BB631C70A84B3B641C70A84B1C807B6289
:10440000A74B3B621C80A74B1A007B6300231370F1
:104410008022A54BBA18FB67A44B1360A44B7B66A4
:10442000A44B3B66A44BFB65A44BBB67A44BFB664C
:10443000A44BBB64FB6F1B78002B00D052E280239F
:10444000FB181B681B78002B00D043E27A6E1378B0
:104450005BB2002B09DBFF231478B86C21001370CA
:10446000FCF732FB2000FEF783F93A6E13785BB25B
:10447000002B06DBFF23107813703F2801D8FCF7D0
:1044800035FBFA6D13785BB2002B11DBFF23147838
:104490001370631E3E2B02D82000FCF71DFD210087
:1044A0008948FCF711FB80220123BA1812681370A7
:1044B000BB6F1B78002B00D0F9E1FB6E1B78DCB2E0
:1044C000002B00D001E2814E3378002B00D0D3E2E4
:1044D0001021624802F030FB7B6D1C78844200D1D1
:1044E00047E2187003F03CFF3B6D1860BB6E1B7811
:1044F000002B00D04EE28423FB181B681B78022B94
:1045000000D10AE2032B00D1EEE0714C012B00D167
:1045100057E22378002B20D053461A685B461B686D
:104520009A4200D262E253465A461B6812689B1AAE
:104530009BB28022920093420FD200232370654BDE
:104540001A78654B1B78002A00D174E3002B04D144
:104550003B4A013311680B4313608423FB181B682B
:104560001B78002B00D006E15B461A6853461B6897
:104570009A4200D106E1AE2358499B00CA58A43B99
:10458000D358002B00D0FDE0524615685A46396BCF
:104590001268534E0A603278D1B28846002A00D1A0
:1045A00055E35A464F481268825C0D2A01D100F04B
:1045B0009CFF0A2A01D100F098FF5A461268AA42CD
:1045C00001D200F0ACFE5A4680211268C900891A57
:1045D0005D4600290ED100F031FF2A688218D25CB6
:1045E0000D2A0AD02A688218D25C0A2A05D0013323
:1045F000994202D032789A42EFD8AB461D1E01D1C3
:1046000000F01CFF5B461B68A9B2C01805F0B6FAA3
:104610005B465A461B68EB18136080231268DB0068
:104620009A4202D300235A46136033789D4201D246
:1046300000F0F9FF0023337024E3C0460014004863
:10464000002C0140271B00201C17002018170020F9
:1046500014170020241B0020201B00200008004805
:10466000291B0020281B0020000000207C160020B1
:104670007816002074160020721600207116002093
:104680007016002068020020640200205C020020F6
:104690005802002055020020540200206E02002023
:1046A0006C0200204D020020801600207F160020A2
:1046B0000300002002000020010000207D160020E1
:1046C0008216002020BB000834BB000881160020A1
:1046D0000C1700200B1700200A170020981B002041
:1046E0004C02002020170020C64D2B78012B01D151
:1046F00000F06EFD2B78022B00D1F9E22B78062B0F
:1047000001D100F0D3FC2B78032B01D100F0D2FEB5
:104710002B78042B01D100F060FF2B78BA4C052BCD
:1047200000D0F6E6B94BBA4EBA4D1A782800316877
:10473000FDF7CCFC041E01D101F0E2F92100B648DE
:104740002A003368FCF7C0F92100B448FCF7BCF933
:10475000B34803F00BFE84220223BA1812681370C8
:10476000B04A13700122B04B1A708023FB181B68EB
:104770001A70A54CCDE6032B04D1A24B1B78042B59
:1047800000D1F1E672B68423FB181B687A6F1B78A0
:104790001278134300D1D0E162B6A44BBB651B78FD
:1047A000002B00D0E6E1A24C2378002B00D0B6E12C
:1047B0008423FB181B681B78002B00D03AE69D4A27
:1047C0001278002A00D135E69B4A1168002900D1F1
:1047D00030E672B611681360894662B6974B1B7853
:1047E000002B01D000F04EFF954A96495368964839
:1047F000096803400B4353607A6C944B11789448DA
:104800008A00521892009B185C684B46844201D87B
:1048100000F07EFD642B01D900F0B0FD01204B4675
:10482000002B01D100F003FE0124032800D98408E5
:1048300000255E46874B3B670023902204E0C0467C
:104840009022BB181B680133B9180B600B689C429F
:10485000F5D8534632681B689A4222D0AE233A6F8D
:104860009B00D258A43BD3589846002B19D15346ED
:104870001B6832689A4201D301F0A8F83C213268E3
:1048800088469A1A3B2A03D832689B1A9BB29846EC
:10489000714B30684146C01805F070F933684344E5
:1048A00033600135A945C7D1B34600F0C0FD0023F0
:1048B000BA6F6A481370FCF789F8FDF719FFFB6EB1
:1048C0001B78DCB2002B00D1FDE50023FA6E1370DB
:1048D000FDF77CFF80220023BA1812681370FDF7E1
:1048E000FFF8B3E50023FA6F1370FDF727F8A6E58C
:1048F0005B4B984201D900F03EFE8423FA22FB185C
:104900001B6892001B78904200D38CE1022B00D0F0
:10491000F8E58022534BD2009A61534A1378D9B2FA
:10492000002B00D0DAE151480378DAB2002B01D035
:1049300000F045FC4E490B785BB2002B01DA00F029
:10494000B9FCFF230C780B70631E3E2B02D82000AD
:10495000FCF7C2FA47482100FCF7B6F89620400061
:1049600003F004FDFCF746FE8423FB181B681B784C
:10497000C8E503F0F5FC3B6D1B68C01A0E2800D893
:10498000B4E5BB6E1D78002C00D0E2E2002D01D111
:1049900000F0CDFC03F0E4FCFB6B1B68C01AFA23AB
:1049A0005B019842A4D30124FB6A32211C70FBF7FF
:1049B000ABFB80222B4BD200044200D039E19A623B
:1049C00099E53B6C1B78002B00D0A6E1BB6B1B78F4
:1049D000002B00D09AE32378002B00D1D2E6534677
:1049E0001A685B461B689A4200D39CE580215346B7
:1049F0005A46C9008C461B68126863449B1A9BB2D6
:104A000097E5C046B01600200C1700200B000020D0
:104A100098160020A016002098C00008D0C00008FA
:104A2000DC050000B4160020B21600202A1B00206E
:104A3000BC1600200A170020C01600200B1700200B
:104A40000010024010170020FFFFFF8020CE00085A
:104A5000006CDC02981B0020201700205CB90008C5
:104A6000B70B000000140048B11600208716002084
:104A700007000020CCBB000880210122D848C900D3
:104A8000347002F05FF8802100224901D54802F01D
:104A900059F80A2003F06AFC802101224901D1481B
:104AA00002F050F83C2003F061FC80210022C90094
:104AB000CB4802F047F8CC4B1C60CC4B1C70CC4B65
:104AC0001C707B6F1C707C6C2078FBF7F1FE2178EA
:104AD000182900D900E18B005B18C64A9B00995841
:104AE000C548FBF7F1FFC54B1B78002B00D1EFE465
:104AF000C34B1B78012B01D100F0D9FCC149022B1B
:104B000001D000F002FCC04B1B78052B00D9B7E2A6
:104B1000BE4A9B009A58BE48FBF7D6FFD8E403F084
:104B20001FFCBC4B1B68C01ABB4B984200D83FE629
:104B300000232370FCF73AFE3AE662B64021A9480A
:104B400001F0FAFFB54B1870002800D19AE272B656
:104B5000B34B1869C0B2FDF7C1FF01228021A14803
:104B600001F0F0FF62B662B6AE4BBB651B78002B5E
:104B700000D118E66B46BB62AB4B80219C46E544F6
:104B800002AB002297484901FB6401F0DBFF0A20D9
:104B900003F0ECFB0022FB6C16009846A34CA44DDE
:104BA00004E00136AE4201D100F02FFFFDF750FACC
:104BB000236830001B041B0C2360FDF757F94346A4
:104BC0009855FF28EDD1B0463B2E01D800F065FF87
:104BD00085239B004446002699469649FD6C39671B
:104BE000AE223B6F92009A584B46D358002BFBD114
:104BF00028003C213C3C04F0C1FF3C363C353B2CBA
:104C0000EED8464501D200F0D6FC8423FB181B6881
:104C10001B78002B01D100F0B7FC0023BA6D137094
:104C2000BB6A9D46BFE50123BA69137080226C4BB5
:104C3000D2009A615FE4002B00D08EE47E4A7F4967
:104C400053687F48096803400B43536085E45B4623
:104C50001B68AB4200D246E35B461A68F1239B0017
:104C60009A4201D200F015FC5B46802118681B684F
:104C7000C900C91A734B89B2C01804F07FFF5B46A4
:104C800042461A602378002B00D17BE553461A6810
:104C90005B461B689A4201D200F0EFFB53465A462E
:104CA0001B6812689B1A9BB280229200934200D329
:104CB00068E500232370644B504A1B781278002B60
:104CC00001D100F047FD002A00D05BE501235F4AD7
:104CD00011680B43136055E55D4901E7002313702C
:104CE000FCF7ECFF8423FB181B681B78FFF70AFC1A
:104CF000584C2368002B00D100E503F031FB564BE4
:104D00001B68C01A632801D900F06FFD8423FB18CB
:104D10001B68524C1B78FFF7F9FB7B6B1B78002B51
:104D200001D100F0C4FE796A386A0B884C4D0288C4
:104D3000A8464C4E9A4200D1BBE04B4B80253B67C6
:104D40004A4BBC6599465B46FB645346B3468A466C
:104D50000400FE69ED02BB621EE03368AB4200D185
:104D6000F0E05B461B78002B10D053461A8823884E
:104D70009A4200D280E053461B8822889B1A3C4A04
:104D80009BB2D31A9BB2FF2B00D984E053461A88FA
:104D900023889A4200D186E0424623889BB2D15CA8
:104DA0002388C9B201339B059B0D23803368AB4236
:104DB000D3D23068431C3360FDF79CF84B46326811
:104DC0001B689A42CDD331682A48FBF77DFE8022CA
:104DD0004B46D20094464A461B6863441360C0E7C2
:104DE0000014004800080048C0160020C516002026
:104DF000C416002020CE000848BB00080A17002077
:104E00000917002080AD00080C00002090C70008A2
:104E100094B60008B8160020B70B0000261B00202F
:104E2000000C00482A1B002078ECFFFF000400481B
:104E300088130000981B002000100240101700206B
:104E4000FFFFFF80201700200B170020002C0140DF
:104E5000D0AA000898160020901600200C170020F9
:104E6000700200202C260020A0C100085002002063
:104E7000FF03000088C1000880215346C9008C460A
:104E80001B88228863449B1AE34A9BB2D31A9BB2C5
:104E9000FF2B00D87AE704F09DFE53461A8823883A
:104EA0009A4200D078E7FB6C5E469B46BB6ABC6DBD
:104EB0009A463378002B00D036E27B6B1B78002BB0
:104EC00001D1FFF726FB7B6A1A883B6A1B889A424E
:104ED00001D0FFF71EFB03F043FA3B691B68C01AC1
:104EE000632801D8FFF715FBCC4B1B78002B08D0AB
:104EF0008022FB69D2021B680633934201D800F07E
:104F000095FE8023F869DB02026819009A4200D8F6
:104F10000168C348FBF7D8FDC24B1B78002B01D0BA
:104F200000F0ABFEC048FBF751FD0023BA6B1370D5
:104F30003A6C13707A6B1370FA68136004F04AFECF
:104F4000FFF7E7FA386FFBF741FD33680133336051
:104F500007E7012C01D0FFF7C9FA002D01D1FFF7B7
:104F6000CAFA0023BA6E137003F0FAF9F96AFA6B01
:104F700009781268002901D000F010FD831AFA2286
:104F80005201934201D300F009FD7A691278002A98
:104F900001D000F01DFEA54A934201D900F018FE91
:104FA000BA691278002A01D000F017FEFA24A40092
:104FB000A34201D300F011FE8422BA1812681278BD
:104FC0000E2B01D800F0ECFC022A01D100F015FFF5
:104FD000012A01D100F0CBFE802101229448C900B2
:104FE00001F0B0FD802100224901924801F0AAFDA4
:104FF0000A2003F0BBF98021012249018D4801F00C
:10500000A1FD3C2003F0B2F980210022C9008848AC
:1050100001F098FD0023884A7C6C1360874A207851
:105020001370874A13707A6F1370FBF741FC217875
:10503000182901D900F098FE14224A43814BD15817
:105040008148FBF741FD814B1B78002B01D100F01B
:10505000A7FC7F4B1B78012B01D100F082FE7D491C
:10506000022B00D07C497D4B7D4A1B78052B02D852
:105070007C4A9B009A587C48FBF726FD00F090FC88
:10508000774A48E520216B4801F056FD774B1870B0
:10509000002800D160E17B681B78002B01D100F073
:1050A000EFFC72B6B86801F073F953E5704A1378F3
:1050B0005BB2002B01DAFFF75CFBFF23147813705F
:1050C000631E3E2B02D82000FBF706FF2100694833
:1050D000FBF7FAFCFBF710FEB02300211B029842FD
:1050E00000D2191A644B1B688B4200D940E3634815
:1050F000FBF7EAFC6248FBF769FC03232B70813362
:10510000FB181B685F4C1B78FFF700FA03F028F9C7
:105110003B691B68C01A632801D8FFF7FAF95A4B9C
:105120005A4D1B78002B28D02B68002B25D0F9680E
:105130002A680B6800269A4202D92E680B68F61A74
:10514000642029682B68704398462B689946FB6851
:105150001B683B67FAF7D8FFB865FA208000414624
:105160007043FAF7D1FF0A21FBF754F80091BB6DA9
:1051700049463A6F4648FBF7A7FC464AFE68904608
:10518000284A264B127831681B784046009200224C
:10519000FDF776F90023BA6B13703A683360136039
:1051A000FA692B6013603A6C13707A6A13803A6A5A
:1051B00013807A6B137004F00DFDFFF7AAF90170EC
:1051C000FBF7ECFE8423FB181B681B78FFF79AF9AA
:1051D00031493248FBF778FC3148FBF7F7FBFCF725
:1051E00037FFFCF7DBFE2F48FBF7F0FB2E48FBF701
:1051F000EDFB0022204B1A602C4B1A6003F0B0F834
:105200002B4B204C186002232B708233FB181B6839
:105210001B78FFF77BF9C046FF0300000E0000205B
:10522000DCC100080F000020B0B80008B70B000078
:105230000014004800080048C0160020C5160020D1
:10524000C416002020CE000848BB00080A17002022
:105250000917002080AD000870AD00080C00002088
:1052600064AD000890C7000894B60008251B002014
:1052700004000020CCBB00089816002098BE00084F
:1052800064BE00080C1700200817002060020020F0
:1052900004C2000870060020A0160020E4BB00082D
:1052A000F4BB000810BC00081CBC000894160020C9
:1052B00090160020DF490B785BB2002B53DADE49F1
:1052C0000B785BB2002B00DA74E2FF2308780B70D6
:1052D0003F2800D91AE5FBF709FC8423FB181B685B
:1052E0001B78FFF70FF95B461B68EB1A3B2B00D9C5
:1052F000CFE05B4618681968D04B691AC01889B2AC
:1053000004F03CFC5B461D60BCE4CD49FFF7FBFBB1
:10531000642B33D82100FAF7F7FEFFF780FA5A46DC
:105320001168691AFFF754F904F054FCC5E501232C
:10533000BA6E137003F014F88021FB6B0022186022
:10534000BB69C0481D707B6949011D70FB6A1D70F7
:1053500001F0F8FBFFF7CAF800228021B94801F0FC
:10536000F1FBFFF719FAFF2308780B70FDF700FA3D
:105370008423FB181B681B78FFF7C4F80023B24A8C
:1053800048460021FBF756F822000023FBF732F8CD
:10539000041E00D1F2E1AD4B5D4698468023DB0050
:1053A000994656462100642C00D96421942000239C
:1053B0003818036094203B184A001B6852188C462A
:1053C00052009A420AD9C04694203B181B683918EB
:1053D00001330B600B689342F5D361462A6833684A
:1053E000641A9A421FD0AE2342469B00D258A43B77
:1053F000D3589A46002B16D133682A689A4220D295
:105400003C212A688A469A1A3B2A03D82A689B1AA2
:105410009BB29A46894B28685146C01804F0AEFBEF
:105420002B6853442B60002CBCD1AB46B246884A53
:10543000884953680B405360FEF7FCFF0125FFF7D6
:10544000E1F84A462B68D31A3C2293463B2B04D8FA
:105450004A462B68D31A9BB29B46784B286859461C
:10546000C01804F08BFB2B685B444B4502D22B68C1
:105470005B449A4653462B60D5E7802153465A46F3
:10548000C9008C461B68126863449B1A9BB2FFF7E5
:105490000BFC5B461868694B3C21C01804F06EFB9E
:1054A0005B465A461B683C331360FFF7EBFB6A49C7
:1054B000FFF729FB694B1A78002A01D1FFF759F948
:1054C00000221A70664B1B78DCB2934200D02DE2AA
:1054D0006448FBF77BFA644B1C7005232B707F3309
:1054E000FB181B681B78FFF710F8882154225F4BCC
:1054F0005218D219138056224B235218D219137006
:105500005B461B689D4200D165E357235B18DA199F
:105510008023DB009C460023A14698462C005B4676
:1055200005008539100010E01A680131AA5CC9B283
:1055300002701A6801321A601A68624501D3424645
:105540001A601A680130A24209D01A68AA5C0D2AB2
:1055500003D01A68AA5C0A2A01D11029E4D14C466A
:105560009B46882254239B18D81904F007FB00237C
:105570003370FFF787FB962001237A698000137050
:10558000FBF75AF9FEF7B7FFFCF75CFB802100221E
:10559000C9002C4801F0D6FA0A2002F0E7FE1021DB
:1055A000284801F0C9FA002800D079E2012002F071
:1055B000DDFEFFF732FBAE23852224499B00C9584C
:1055C00092008B58002BFCD14346991BFB6C89B28F
:1055D000981904F0D3FAFFF718FBBB6E32781B78EA
:1055E0001A4300D1CCE080210022490115483270D5
:1055F00001F0A8FAFDF77CF81D48FBF7E7F91D4814
:10560000FBF7E4F99620C00002F0B0FE84220223EA
:10561000BA181268184C1370184A13700122184BEC
:105620001A70FEF776FF33785B1BDBB23370FFF73F
:1056300029FBC0460600002005000020201700209E
:1056400070AD00080008004840420F00981B002081
:1056500000100240FFFFFFF07CAD0008851600201F
:105660008416002018BF0008881600201B5B00006D
:10567000D4BF000814C000080C170020B416002086
:10568000B216002001250026E14C23682B4323603D
:10569000E04B3B67B14214D0B0465E468B4623696F
:1056A000AB43236104E0534632681B689A420FD132
:1056B00023691D42F7D001239C46E044C345EED147
:1056C000B3460121D24A13688B431360FEF7B2FE42
:1056D000AE233A6F9B00D258A43BD3589946002B77
:1056E000E6D153461B6832689A4213D23C21326895
:1056F00089469A1A3B2A03D832689B1A9BB299466C
:10570000C54B30684946C01804F038FA33684B443A
:105710003360CDE780223C213368D200D31AB965CB
:105720003B2B03D83368D21A93B2BB65BA4B3068AF
:10573000B96DC01804F022FAB96D80228C46336826
:10574000D2006344934202D28946336899444B465F
:105750003360ADE7002A01D0FFF714F8AF4AB04933
:105760005368B048096803400B435360FFF70AF8D9
:10577000AD48591AFBF7A8F9FFF7C8FA01340AE651
:10578000AA4B1978CCB2002900D0D3E102F0E8FD91
:10579000A74B1B68C01AA74B984201D8FFF7B6FA6F
:1057A0008021A5482200490101F0CCF9A348FBF76C
:1057B0000DF992E6A24B197849B2002900DBA7E166
:1057C000A04B1978002900D0BEE1BB6E1B78002BDE
:1057D00001D0FFF79BFA9620C000FBF72DF8842339
:1057E000FB181B681B78FEF78DFE97482168FBF7B6
:1057F0006BF9964B1B78002B24D0954B1E68002E1E
:1058000020D023689946002398464E4502D94B463E
:10581000F31A98464346642031005843FAF774FC63
:105820003867FA204246800050433100FAF76CFC9A
:105830000A21FAF7EFFC00914A4631003B6F854898
:10584000FBF742F9FBF758FAB02300221B029842FB
:1058500000D277E1B02321681B02994200D9B2E15E
:10586000914200D992E17C4B1A78022A00D156E28B
:105870001A78D6B2012A00D03CE4002277481A7088
:10588000FBF7A4F87648FBF7A1F8764B1E70764B31
:105890001B78002B00D046E2FCF7D4F9FA23AC22A7
:1058A0009B00BA181360AC217B181A687918531E34
:1058B0000B60002AF7D10B0080215F48C9001B68EC
:1058C00001F040F9FA23A8229B00BA181360A8221D
:1058D000BB181E68BA18731E1360002EF7D1130090
:1058E0001B687B6C1878FAF7E3FF534680211E6033
:1058F0005B465E4C320049014F481E60267001F045
:1059000021F90A2002F032FD802101224A48490192
:1059100001F018F902F024FD454B186004232B70A8
:105920008033FB181B681B78FEF7F0FD5048FBF72F
:105930004DF84B48FBF74AF84E48FBF747F84E48FE
:10594000FBF744F80122474B1A70474B1B78002B9A
:1059500000D0FCE0FCF776F9FA23B4229B00BA18D9
:105960001360B4217B181A687918531E0B60002A43
:10597000F7D10B0080213048C9001B6801F0E2F824
:10598000FA23B0229B00BA181360B022BB181E681D
:10599000BA18731E1360002EF7D1A0E7FCF7A8FE1B
:1059A0000023BA6913707A691370FA6A137084332A
:1059B000FB181B681A78002A01D0FEF797FD80219A
:1059C0002E48C90001F0BEF8FEF790FD80223C2170
:1059D0003368D2008B46D31A3B2B03D83368D31AD3
:1059E0009BB29B460C4B30685946C01804F0C6F871
:1059F00080223368D2005B44934202D233685B4416
:105A0000984643463360FEF74CFFB046FFF7E0F898
:105A1000002C0140981B002020170020001002409D
:105A200010170020FFFFFF80D0BE00088316002063
:105A30008C1600200F270000000800485CC00008FA
:105A400009000020B216002064BC00080B000020F2
:105A50009416002084BC00087E1600202CBE00088E
:105A60004CBE0008881600200E0000200C170020F5
:105A70003CBF000860BF00089CBF0008001400483D
:105A8000BC68200000F0F6FB0121200000F01EFCA5
:105A900001237A681370FFF704FB0026FFF7B1F8C3
:105AA00080210122D648490101F04CF87EE5D54815
:105AB000FAF78CFFFCF7CCFAFCF770FAD248FAF749
:105AC00085FFD24B8026A04600251C0076012800C9
:105AD000615D0135FCF70EFAB542F8D1FB69CC489F
