:020000040800F2
:1000000000400020A10600084154000845540008A3
:1000100000000000000000000000000000000000E0
:10002000000000000000000000000000495400082B
:1000300000000000000000004D540008515400086A
:100040004907000849070008490700084907000850
:10005000490700085954000865540008490700087A
:100060004907000849070008490700084907000830
:100070004907000849070008490700084907000820
:100080004907000849070008490700084907000810
:100090004907000849070008490700084907000800
:1000A00049070008490700084907000849070008F0
:1000B0004907000849070008490700084955000892
:1000C00010B5064C2378002B07D1054B002B02D02E
:1000D000044800E000BF0123237010BDE8010020A8
:1000E000000000008C9F0008044B10B5002B03D0CB
:1000F0000349044800E000BF10BDC04600000000F6
:10010000EC0100208C9F0008002243088B4274D32E
:1001100003098B425FD3030A8B4244D3030B8B4208
:1001200028D3030C8B420DD3FF22090212BA030C11
:100130008B4202D31212090265D0030B8B4219D3F2
:1001400000E0090AC30B8B4201D3CB03C01A524112
:10015000830B8B4201D38B03C01A5241430B8B425A
:1001600001D34B03C01A5241030B8B4201D30B0343
:10017000C01A5241C30A8B4201D3CB02C01A52416A
:10018000830A8B4201D38B02C01A5241430A8B422D
:1001900001D34B02C01A5241030A8B4201D30B0216
:1001A000C01A5241CDD2C3098B4201D3CB01C01A30
:1001B000524183098B4201D38B01C01A524143093A
:1001C0008B4201D34B01C01A524103098B4201D328
:1001D0000B01C01A5241C3088B4201D3CB00C01A95
:1001E000524183088B4201D38B00C01A524143080D
:1001F0008B4201D34B00C01A5241411A00D2014632
:10020000524110467047FFE701B5002000F0F0F8BA
:1002100002BDC0460029F7D076E7704703460B437E
:100220007FD4002243088B4274D303098B425FD3EF
:10023000030A8B4244D3030B8B4228D3030C8B421B
:100240000DD3FF22090212BA030C8B4202D3121201
:10025000090265D0030B8B4219D300E0090AC30BD6
:100260008B4201D3CB03C01A5241830B8B4201D383
:100270008B03C01A5241430B8B4201D34B03C01A6C
:100280005241030B8B4201D30B03C01A5241C30AE4
:100290008B4201D3CB02C01A5241830A8B4201D355
:1002A0008B02C01A5241430A8B4201D34B02C01A3F
:1002B0005241030A8B4201D30B02C01A5241CDD2E4
:1002C000C3098B4201D3CB01C01A524183098B422F
:1002D00001D38B01C01A524143098B4201D34B0118
:1002E000C01A524103098B4201D30B01C01A52417B
:1002F000C3088B4201D3CB00C01A524183088B4202
:1003000001D38B00C01A524143088B4201D34B00EA
:10031000C01A5241411A00D201465241104670475C
:100320005DE0CA0F00D04942031000D34042534061
:1003300000229C4603098B422DD3030A8B4212D321
:10034000FC22890112BA030A8B420CD38901921153
:100350008B4208D3890192118B4204D389013AD090
:10036000921100E08909C3098B4201D3CB01C01A65
:10037000524183098B4201D38B01C01A5241430978
:100380008B4201D34B01C01A524103098B4201D366
:100390000B01C01A5241C3088B4201D3CB00C01AD3
:1003A000524183088B4201D38B00C01A5241D9D2EB
:1003B00043088B4201D34B00C01A5241411A00D26C
:1003C0000146634652415B10104601D34042002B68
:1003D00000D54942704763465B1000D3404201B5E7
:1003E000002000F005F802BD0029F8D016E770479C
:1003F0007047C046002B11D1002A0FD1002900D12F
:10040000002802D00021C943080007B4024802A115
:100410004018029003BDC046D9FFFFFF03B46846F1
:1004200001B5029800F034F8019B9E4602B00CBC66
:100430007047C046F0B5CE469946030C9C4613045F
:1004400047461B0C1D000E0061460404240C80B5B9
:100450000700100C4B436543414360432C0CC0180C
:1004600024188C46A34203D980235B029846C444D7
:10047000494679435643230C2D042D0C89196344B6
:1004800024046019C918C0BCB946B046F0BDC046C6
:10049000F0B557464E464546DE46E0B504000D0031
:1004A0009246994683B08B4230D82DD0494650466B
:1004B00000F0BAF829000600200000F0B5F8331A61
:1004C0009846203B34D49B4653465A469340424676
:1004D0001F00534693401E00AF423BD8AF4200D1AD
:1004E00079E05B46A41BBD41002B00DA76E00022D8
:1004F00000230092019301235A4693400193012364
:1005000042469340009329E08242CFD90022002343
:10051000009201930C9B002B01D01C605D60009841
:10052000019903B0F0BCBB46B246A946A046F0BD57
:1005300042469B4620239B1A5246DA40414613000E
:100540004A468A40170042461F43534693401E00C6
:10055000AF42C3D900220023009201934346002BEF
:10056000D8D0FB0772081A4346467B080EE0AB4220
:1005700001D1A2420CD8A41A9D41012024196D4139
:100580000021013E24184D41002E06D0AB42EED989
:10059000013E24196D41002EF8D1009801995B4667
:1005A00000196941002B24DB2B005A464446D340F6
:1005B0002A00E2401C005B461500002B2ADB2600C7
:1005C0009E40330026004746BE403200801A9941C3
:1005D000009001919EE7A342BCD882E742462023C7
:1005E00000219B1A0022009101920122DA4001921F
:1005F00085E7424620239B1A2A0046469A4023005C
:10060000F340444613432A00E2401C005B461500B9
:10061000002BD4DA42462F002023260097409B1A55
:10062000DE403B003343CDE710B5002903D100F095
:1006300007F8203002E0080000F002F810BDC046C4
:100640001C2101231B04984201D3000C10391B0A02
:10065000984201D3000A08391B09984201D30009C6
:10066000043902A2105C40187047C046040302021D
:100670000101010100000000000000000023C25C35
:100680000133002AFBD1581E7047000003B47146A5
:10069000490840004900095E49008E4403BC704788
:1006A0001E4885461E4801681E4A914212D100210B
:1006B00001601D4801680122114301601B48016867
:1006C00003229143012211430160194801688D46BC
:1006D000416808471448016801221143016013482A
:1006E000016803229143016012481349134A002311
:1006F00002E0D458C4500433C4188C42F9D3104AD1
:10070000104C002301E013600432A242FBD304F03A
:1007100045FF08F0CDFF02F087FFFEE70040002014
:10072000F03F0020EFBEADDE181002400000014097
:1007300000C8FF1F00000020E4010020D0BE000818
:10074000E80100208C2E0020FEE70000F8B507002D
:1007500010000C001600FFF791FFA04216D80028E9
:1007600016D0002402E00134A04211D0395D335D7F
:100770000A00613A192A01D82039C9B21D00613D29
:10078000192D01D8203BDBB29942ECD00020F8BDF6
:100790000120FCE770B5040007F070F82100FFF7B6
:1007A00039FD0B0061088B421FD25801C01A80002E
:1007B000C018C000FFF7A8FC114B5C68002C00D1EA
:1007C000104CFA210E4B890040439D68FFF79CFCBA
:1007D000FA2160438900FFF797FC80220A4B641BD3
:1007E000D200A0420AD99A6170BDE41A6001001BD0
:1007F00080000019C000FFF787FCDDE79A62F3E78D
:1008000010E000E080BB000000140048F0B5C646D0
:1008100000B586B0182836D90F223D4B0F241A7028
:10082000002303930133FF3301933A4FFD3B01ADA6
:10083000EB600121384A90201368C0058B43136098
:100840000022364B29001A7002232A616B6005F0E2
:1008500061FAA3001B199B00FB181A69304B1A6040
:10086000304A1278002A4DD119681A68E023DB0556
:100870001A40F0231B050020194006F0B7FE06B011
:1008800080BCB846F0BD8600224F3618B600BE19AF
:10089000337A040098461E4B10221870002102A8DB
:1008A00008F0D2FE80235B0001AD0193FD3BEB60BD
:1008B0004346002BBDD000220021002006F096FE0A
:1008C0000022174B90201A6002232900C0056B609C
:1008D0002B6105F01FFA01210F4B1A688A431A6039
:1008E00072899A62B289DA62013252105A630B4AF3
:1008F000596111700B4A1278002AC0D11A680A4354
:100900001A60BCE700220021002006F06FFEB6E767
:10091000241B002028BC0008002C014007170020E1
:100920000C17002006170020F0B5D6464F46464665
:10093000C0B58046FFF7A2FE071E20D0184B8526C3
:100940009A46AE239B00994653464A4600249B583C
:10095000B6003D1B402D1FD8A9B212489A59002A53
:1009600016D14346181908F097FB53464A460D49DD
:100970009B589A59002A07D16419A742E9D8E0BCCC
:10098000BA46B146A846F0BD01390029F1D1F3E7D6
:1009900001380028E2D1E4E740254021DDE7C046E8
:1009A000981B0020400D0300F0B54F464646D64642
:1009B0008046C0B50F1E20D0184B85269A46AE2320
:1009C0009B00994653464A4600249B58B6003D1B5F
:1009D000402D1FD8A9B212489A59002A16D1434671
:1009E000181908F059FB53464A460D499B589A5925
:1009F000002A07D16419A742E9D8E0BCBA46B1463B
:100A0000A846F0BD01390029F1D1F3E701380028EB
:100A1000E2D1E4E740254021DDE7C046981B0020F5
:100A2000400D03000FB400B5A3B024AB04CB80216C
:100A300002A8019308F0EEFD02A8FFF775FF23B0AE
:100A400008BC04B01847C04670B500281FD0124B30
:100A50004001C3181A78012A18D1104A5D69841818
:100A60000F4A9E69944665440E48FFF75DFF3200C9
:100A700021000D48FFF7D6FF31002800FFF794FF53
:100A80000A48FFF751FF0122094B1A7070BD094E49
:100A9000094D0A4CE8E7C04600C0000801C0000844
:100AA00000C8000804A0000810A000083CA000082E
:100AB0008216002077060000B0B50008F49F0008F9
:100AC00000B5104B8FB01A78182A18D893000E4929
:100AD0009B189B005B58182168460C4A08F036FDAD
:100AE0006B460B4A202106A808F030FD094806A9EC
:100AF000FFF798FF1222084B1A700FB000BD074B8A
:100B0000E9E7C046241B002028BC000888A0000894
:100B100094A000089CA000084C020020EC9F000854
:100B200000B5164B83B01878172801D903B000BD63
:100B30000130C0B2FFF76AFE0122114B1A7006F0B5
:100B40009DFE104B1860FFF7BBFF802101220E486D
:100B5000C90005F085FA00230193019B0B4A9342DB
:100B600005DC019B01330193019B9342F9DD802158
:100B700000220548C90005F073FAD7E7241B0020BE
:100B8000B8160020B4160020001400485FEA0000E8
:100B900000B5164B83B01878002801D103B000BD12
:100BA0000138C0B2FFF732FE0122114B1A7006F075
:100BB00065FE104B1860FFF783FF802101220E486D
:100BC000C90005F04DFA00230193019B0B4A9342A3
:100BD00005DC019B01330193019B9342F9DD8021E8
:100BE00000220548C90005F03BFAD7E7241B002086
:100BF000B8160020B4160020001400485FEA000078
:100C0000012370B50C4E00243370002301200B4DDE
:100C10000B4A2B7001331178012903D10124411CA7
:100C20002B54C8B20133DBB22032402BF3D1002C5D
:100C300000D0307070BDC046090200200C020020B8
:100C400020C000080020054B05491A78012A01D16F
:100C50009A69801820338B42F7D1704720C0000872
:100C600000C80008F0B58DB004F0A0FF00233422C6
:100C7000012600930193174C174B02940396694683
:100C8000DA6001A804F008FF051E05D004F0A2FFF9
:100C9000FFF7B6FF0DB0F0BD11200F220F4904AFD2
:100CA00068443E7008F02AFD80235B0008930C4BDB
:100CB0000C4E0A930C4B09950C4D0B936E4421007E
:100CC000325900230220043404F0C2FFAC42F6D1B2
:100CD000DCE7C04600C0000800200240F49F000886
:100CE000770600001040FFF70101C0BF20C00008D8
:100CF000F0B54546DE4657464E46E0B53F4C00252A
:100D00003F4B4048A54402E02033834212D01A787A
:100D1000012AF9D16E1C14AA6D0154192200190080
:100D2000B0C9B0C2B0C9B0C2203330C930C2F5B208
:100D30008342ECD104F03AFF0023342201260093D1
:100D40000193314C314B029403966946DA6001A855
:100D500004F0A2FE804600280BD004F03BFFFFF712
:100D60004FFF2B4B9D44F0BCBB46B246A946A04664
:100D7000F0BD112004AF0F22264968443E7008F0F0
:100D8000BDFC80235B00089343460993224B234E0E
:100D90000A93234B1A4F0B936E44210032590023C0
:100DA0000220043404F054FFBC42F6D1002DD4D00C
:100DB00014AB99460CAB9A465B429B464F46534652
:100DC0004A4613CA13C313CA13C354460C4E03CA6C
:100DD00003C35E442268311900230220043404F066
:100DE00037FFA742F6D143460133DBB298462023B2
:100DF0009C46E144E3444545E1D1AEE7ACF7FFFF53
:100E000020C0000800C8000800C000080020024000
:100E100054080000F49F0008770600001040FFF718
:100E20000101C0BF0C4B10B59C46440164442378BB
:100E3000012B00D010BD04F0B9FE3422074B210075
:100E4000DA6001200022002304F002FF04F0C2FE59
:100E5000FFF74EFFEEE7C04600C00008002002404A
:100E60001D4B10B5DA691D4B9A4230D11C4B1D4900
:100E700002E020338B422DD01A78FF2AF9D01A785D
:100E8000012AF6D001240020154B164904E0002861
:100E90000ED120338B4206D01A78FF2AF7D12033A7
:100EA00001208B42F8D1002C0ED1FFF7A9FE10E0F3
:100EB0001A78012A08D020338B42F4D01A78FF2AFE
:100EC000E7D01A78012AF6D1FFF712FF01E0FFF709
:100ED000C9FE10BD0024D6E700C000080101C0BF54
:100EE00020C0000800C8000810B500240F4B0021E6
:100EF0001C600F4B10220F481C7008F0A5FB03224A
:100F00000D4B0E481C700E4B1A70FFF70DFD0D4C6B
:100F10002000FFF709FD0C48FFF706FD2000FFF752
:100F200003FD0A48FFF700FD10BDC04694160020DF
:100F3000981600209C160020AC16002004A0000883
:100F4000251B0020B0A00008E8A0000820A1000890
:100F5000F0B5D64646464F462A4BC0B598468CB0AB
:100F60006D461800FFF7E0FC2748FFF7DDFC404620
:100F7000FFF7DAFC2548FFF7D7FC4046FFF7D4FC23
:100F8000234B2A00190051C951C251C951C218330B
:100F9000160013CB13C213CB13C200231D4FFB56F5
:100FA000052B01DD05233B701B4A002491461B4A9B
:100FB000924608E048460134FFF734FD0435062C1C
:100FC0000DD00023FB56A2002968B258A342F1D1EC
:100FD00050460134FFF726FD0435062CF1D140467A
:100FE000FFF7A2FC0E48FFF79FFC4046FFF79CFC72
:100FF0000C48FFF799FC0CB0E0BCBA46B146A846D5
:10100000F0BDC046B0A000085CA1000894A1000893
:10101000A49F0008AF160020ECA10008CCA1000896
:1010200004A200083CA20008F0B5DE4657464E4632
:101030004546924BE0B59A46180087B0FFF774FC1E
:101040008F48FFF771FC5046FFF76EFC8D48FFF7A5
:101050006BFC5046FFF768FC8B4B01931B78002B11
:1010600000D1D7E00D270D230022884EB256BA4298
:1010700001DB013B3370864B00249846854B02AD63
:101080009946854B00969B460C2C00D9B6E042460B
:10109000A300D3589F46019B1B78002B00D0BCE0D7
:1010A0002A007E4B43CB43C21B787D491370009BC3
:1010B0002A001B785BB2A3422DD04846FFF7B2FC52
:1010C0000134BC42E0D15046FFF72EFC7548FFF7D3
:1010D0002BFC5046FFF728FC7348FFF725FC07B0B0
:1010E000F0BCBB46B246A946A046F0BD6F4B1B788C
:1010F000012B00D1B7E0022B00D1B8E06C4B1021DE
:101100006C4A280008F022FA009B2A001B786A49E2
:101110005BB2A342D1D15846FFF784FCD0E7019BD4
:101120001B78002B00D086E0644B10212800614A18
:1011300008F00CFA6249BAE7624B1B78012B00D128
:1011400087E0022B00D196E0032B00D191E05E4BAB
:1011500080E05E4B1B78002B73D1584B1021280088
:10116000544A08F0F3F95A49A1E75A4B1B78002B6F
:1011700065D1524B102128004E4A08F0E7F9564934
:1011800095E7564B1B78002B61D14C4B1021280062
:10119000484A08F0DBF9524989E7524B1978182977
:1011A0005FD88B00504A5B189B009B581021280089
:1011B000404A08F0CBF94D4979E74D4B1B78002B9D
:1011C00043D1414B102128004A4A08F0BFF94A494F
:1011D0006DE74A4B1B78002B35D1384B1021280086
:1011E000344A08F0B3F9464961E7464B102128001C
:1011F0001B68454A08F0AAF9444958E7444B1B7854
:10120000002B1AD12D4B102128002A4A08F09EF9F4
:1012100040494CE70B270B2326E73F4B1B78052B58
:1012200023D83E4A9B009B5810212800214A08F0F1
:101230008DF93B493BE73B4B77E73A4BE3E7394BCB
:1012400098E7384B8AE7374BC8E7374BBAE7354B57
:101250009CE7364B10212800164A08F077F93449EC
:1012600025E7344BA2E7344B49E7344BDCE7344BFA
:1012700045E7344BEEE7344BECE7C046B0A000083E
:1012800030A4000868A4000806170020AF1600204C
:10129000ACB30008F8A40008D8A40008C8A400084B
:1012A000F8A3000804A200083CA2000805170020CB
:1012B000ACA20008A0A4000814A400086CA20008B6
:1012C000DCA300080A00002080A20008070000201C
:1012D000A4A300080800002088A300080417002029
:1012E0006CA30008241B002028BC000850A30008A1
:1012F0000B000020BCA4000834A300080C00002050
:1013000018A3000810000020ACA40008FCA20008EC
:1013100014000020E0A200080900002098B5000891
:10132000C4A2000864A2000878A2000888A20008ED
:10133000C0A30008EC9F0008B8A20008A0A2000803
:10134000BCA2000898A2000890A20008F0B54E4682
:10135000DE4645465746E0B59FB0FFF751FC624B6D
:10136000624A98461B78914612789E1CF6B252B299
:10137000B24202DB4A46013313705D4D2800FFF78D
:10138000D3FA5C48FFF7D0FA2800FFF7CDFA5A48A5
:10139000FFF7CAFA2800FFF7C7FA002E4FD0574BC5
:1013A00000249A46564B9B46564B0493564B059346
:1013B0005B46AB460393350029E0544B1F5D002F7D
:1013C00064D0534A534B944680227F01FB189B699B
:1013D0006744D200934200D37EE006AE1021300075
:1013E0004D4A08F0B3F84B461B785BB2A3425DD080
:1013F0004A4A23005021019600970AA808F0A6F84F
:1014000050460AA90134FFF70DFBA54216DD4346FD
:101410001B78A342D1DC4A46127852B2A34247D08D
:1014200094424DD0342203990AA808F067F9013498
:1014300050460AA9FFF7F6FAA542E8DC5D46280007
:10144000FFF772FA0022364B36481978012901D18C
:101450009969521820338342F7D19305990D1B0DDA
:101460005B18414609785B0A920A01392E48FFF75A
:10147000D9FA2800FFF758FA2C48FFF755FA1FB0A1
:10148000F0BCBB46B246A946A046F0BD06210120ED
:10149000274F06AE0300009130001021254A08F0C6
:1014A00055F84B461B785BB2A342A1D1224AA0E774
:1014B00094420BD0342205990AA808F01FF99FE73F
:1014C0003C2204990AA808F019F999E73C221B4923
:1014D0000AA808F013F993E79905980A8B0D090DEE
:1014E000C918490AD5E7C04609020020AF160020F6
:1014F000B0A0000810A5000848A5000870AB0008BF
:1015000080A6000844A6000810A600080C020020CF
:1015100001C0000800C0000880A50008B8A50008A8
:1015200020C0000800C80008B4A60008F0A6000803
:10153000F49F000888A5000894A50008D4A5000819
:1015400010B50A48FFF7F0F9094B1B78002B04D0BF
:10155000012B08D0022B03D010BDFFF7F9FCFBE7ED
:10156000FFF7F4FEF8E7FFF75FFDF5E704A00008DA
:10157000B0160020F0B5DE4657464E464546E0B56B
:101580004F4A504B116885B0994236D00F239B4685
:101590000E3B9A46002398460233994600230127C2
:1015A00001260125002001219C46013310220092D2
:1015B0005C46454A14705446444A1770444A1670B3
:1015C000444A1570444A14704446444A14704C46C8
:1015D000434A14706446434A1470434A1070434AA5
:1015E0001170434A1370434B009A1A6005B0F0BC67
:1015F000BB46B246A946A046F0BD137957799B4633
:10160000137A96799A46937AD5799946D37A547A09
:101610009C46137B0193507B0290937B19000393AC
:10162000136952691800804600930198254B434482
:1016300080465B44DB199B195B1953441B190298C4
:101640004B446344434480464344884643449A425F
:101650009CD15B46182B01D90F239B467B1E9F41D3
:10166000731E9E416B1E9D415346FFB2F6B2EDB212
:10167000032B01D901239A46631E9C41E3B298468D
:101680004B46052B01D902239946614602220023CD
:101690008A425B416246019802995B421A40431EAE
:1016A00098414B1E9941039B94465A1E9341009AC0
:1016B000C0B2043AC9B2DBB23C2A00D878E775E779
:1016C00000F80108042C07BF241B00201400002090
:1016D0000C0000200B0000200A000020061700204C
:1016E0000900002005170020041700200800002032
:1016F0000700002010000020F0B557464E46454632
:10170000DE460023E0B58DB006A9CB733B4B0693B4
:101710003B4B1A783B4B93461A783B4B92461A78D0
:101720003A4B91461A783A4B90461A78394B140046
:1017300052461F78384B00941E78384B1D781302A0
:101740004A4610045A4613434246034312061343C3
:1017500007933B02300423432A0603431343274ADB
:10176000089394462E4B1C782E4B0C7318784873B4
:101770002D4B009A1B7801938B732C4B1B680B61CC
:10178000634494465B445344019A4B44434463444A
:101790009446DB199B195B191B19254C1B186344D4
:1017A000182220004B6107F041FF002806D10DB040
:1017B000F0BCBB46B246A946A046F0BD04F0F6F91F
:1017C000002302A90293039303A801330494059311
:1017D00004F062F900280DD102AB9C46154E164D5F
:1017E00066442100325900230220043404F030FA08
:1017F000AC42F6D104F0EEF9D9E7C046042C07BF9D
:10180000241B0020140000200C0000200B000020EE
:101810000A000020061700200900002005170020FC
:1018200004170020080000200700002010000020FE
:1018300000F801081008FEF718F8010802220B4B07
:1018400010B51A700023FF21094A0A4813700A4A8A
:1018500013700A4A11700A4A7F3913700122094B2A
:1018600049011A70002204F0FBFB10BD251B00206B
:10187000B016002000080048AF1600200600002027
:10188000AD160020AE16002010B5A0B03022002109
:1018900014A807F0D9FE1022002102A807F0D4FEF8
:1018A0001C2200210CA807F0CFFE1822002106A858
:1018B00007F0CAFE32231024139313A8313B16936A
:1018C0001B9318931794199405F0DCFB072300244D
:1018D0000121029302A8043B03930494059405F0AC
:1018E000F7FE80230CA89B020C93129405F0EAFAF1
:1018F0008022A0210020D205C90405F077FE8021B6
:101900000C4B0905DA6906A80A43DA61DB69222271
:101910000B400193019B80239B050793064B069484
:101920000993202308940A920B9305F081FB20B0C1
:1019300010BDC046001002407FBB000030B587B02C
:1019400014220021684607F07FFE8021154D0122F8
:101950002800C90004F084FB80212800012209012D
:1019600004F07EFBFF2200240023694612020E4889
:1019700000920193029404F0CDF9C022002369463D
:101980002800920000920193029404F0C3F900230E
:10199000064A6946064800920193029404F0BAF997
:1019A00007B030BD0008004800040048FFFF0000F9
:1019B0000010004830B583B0FFF79EFE802500225E
:1019C000364B374C1A70ED00364B200029001A6058
:1019D00004F046FBA562344C2278182A53D89300B1
:1019E00032499B189B0059583148FFF71BF8314B7F
:1019F0001B78002B10D0304B1B78012B4CD0022BC6
:101A000043D12E492E4B1B78052B43D82D4A9B00E2
:101A10009A582D48FFF706F8FFF790FFFA239B002E
:101A20000193019B5A1E0192002BFAD180210022C2
:101A30002648C900019B04F013FBFA239B00009386
:101A4000009B5A1E0092002BFAD12078009BFEF7D3
:101A5000DDFE8021002249011C4804F001FB0A2020
:101A600005F012FF802580210D4CED000122174862
:101A7000490104F0F5FA00222900200004F0F0FAF0
:101A8000A56203B030BD1249AEE70D4B11491B787A
:101A9000052BBBD9104ABCE71049B3E7251B002032
:101AA00000140048BC160020241B002028BC00089D
:101AB00030A700080617002005170020BCA2000868
:101AC0000900002098B500086CA70008000800482D
:101AD000EC9F0008ACA20008A0A20008B8A2000871
:101AE00070B50D00012680211B4A03041B0C82B037
:101AF0005361020C040032401848490004F0B0FA67
:101B00008021620C15483240890004F0A9FAFF21B7
:101B1000134B2D025A691148114029435961802104
:101B20000022090104F09CFA0A230193019B5A1E2A
:101B30000192002BFAD18021012208480901019B62
:101B400004F08EFA0A230093009B5A1E0092002B89
:101B5000FAD1009B02B070BD001000480008004898
:101B60000004004830B5802101251D4A03041B0CE8
:101B700085B05361020C04002A401A48490004F061
:101B80006FFA8021620C17482A40890004F068FA35
:101B90000A230393039B5A1E0392002BFAD1802140
:101BA00000221048C900039B04F05AFA0A2302934A
:101BB000029B5A1E0292002BFAD16A468021029B98
:101BC000094BD41D1B6907481B0ADBB2D371C9003E
:101BD000012204F045FA2078C0B205B030BDC046FD
:101BE000001000480008004800040048F8B50E0046
:101BF00005004027224C234A2368AA211B041B0C02
:101C0000134323602048FFF76BFF55211F48FFF760
:101C100067FFA0211C48FFF763FF31002800FFF792
:101C20005FFF23681A4E1B041B0C23602800FFF77C
:101C300099FF04002800FFF795FF444027420FD08A
:101C4000013E002EF2D12800FFF78CFF040028008F
:101C5000FFF788FF604007420FD001267642E5E794
:101C60002800FFF77FFF04002800FFF77BFF4440B8
:101C7000274202D0013E002ED8D10020F8BDC04638
:101C8000000400480000555555550000AA2A0000E0
:101C900050C3000070B54026264C274A2368AA216D
:101CA0001B041B0C134323602448FFF719FF552125
:101CB0002348FFF715FF80212048FFF711FFAA21D5
:101CC0001E48FFF70DFF55211D48FFF709FF1021A2
:101CD0001A48FFF705FF23681A4D1B041B0C2360ED
:101CE0000A20FFF73FFF04000A20FFF73BFF4440B4
:101CF00026420FD0013D002DF2D10A20FFF732FF1E
:101D000004000A20FFF72EFF604006420FD0012595
:101D10006D42E5E70A20FFF725FF04000A20FFF7E0
:101D200021FF4440264202D0013D002DD8D10020A1
:101D300070BDC046000400480000555555550000D0
:101D4000AA2A0000404B4C00D0B586B014220021D6
:101D5000684607F079FC8021154C01222000C9005B
:101D600004F07EF9802120000122090104F078F9B5
:101D7000C02201230026012769462000920000921C
:101D800001930296039703F0C5FF0123094A6946B0
:101D90000948009201930296039703F0BBFF07499D
:101DA000074A0B681B041B0C13430B6006B0D0BD25
:101DB00000080048FFFF0000001000480004004831
:101DC00000005555F0B5DE4657464E464546E0B54F
:101DD000CFB08B4603900492002901D1002081E10D
:101DE0000123D14A05E00133DBB22032402B00D180
:101DF0008BE11178FF29F6D15BB205930025032012
:101E0000C94BCA4902E020338B420DD01A78012A0F
:101E1000F9D15A699C691219033282439542F2D270
:101E2000203315008B42F1D15B4698225B19520298
:101E3000934200D8C3E00020BB4BBC491A78012A6A
:101E400001D19A69801820338B42F7D198235844E6
:101E50005B029842C2D8B648FEF766FD8023002593
:101E60009B029A46B34B0FACA9460126250001936D
:101E7000029403E001360435402E34D0AE4B72019B
:101E8000D7183B78012BF5D1AC49BB698C4601983A
:101E900062443100FEF7C6FD4B46A44A2B609046D3
:101EA0007B6900249844FFF74FFFBB69002B0FD0DC
:101EB0002B004546B04656469A46295D3019FFF735
:101EC00095FEBB690134A342F7D85546B246464653
:101ED0000322BB6901369A44BB690435033393433B
:101EE0009944402ECAD19648029CFEF71DFD03F08E
:101EF0005DFE0023002209938C4B09A90A920B93E3
:101F000026230AA80C9303F0C7FD4EAB9846802306
:101F10009B024D4601935B46834F0695079303E072
:101F200004342037444540D03B78012BF8D1FFF7EB
:101F300005FD802100228348C90004F091F87B4A06
:101F4000236891469944BB690022002B23D07E4B25
:101F5000A2469B464B46B946170002933D0000241B
:101F600000264B469B69FF209D4200D2F4E0A04032
:101F7000083406430135202CF3D1029B3200D919D5
:101F80000220002303F064FE4B469B690437BB42EA
:101F9000E4D84F465446019ABB6994469C44634634
:101FA0000434019320374445BED1079B069D9B46D0
:101FB00003F010FE6548FEF7B7FCFEF799FE5B4B99
:101FC000634C9A46AA4453465C446419DB0AE40A0B
:101FD000DB02E402E41AE40A994603F0E7FD002C70
:101FE00000D1C6E08027E402A0462B003F014F4409
:101FF000B84445463E00494698460EAC0B0002E008
:1020000004339E420CD01A680132F9D000230A939F
:102010002360013361602000A3600AA903F03CFD46
:1020200080231B019C4666443900B54201D06744B9
:10203000E4E74546FFF782FC802100224148C900C1
:1020400004F00EF8002398463F4B01959946230073
:102050005C469B46464600250027FF20A64248D303
:10206000A840083507430136202DF6D151460023FC
:1020700041443A00022003F0EBFD04239C46E04477
:1020800000264445E6D85B46A3461C000123237086
:1020900008AB9C4619200F2260440399019D07F06C
:1020A000ECFA049B342263745B46A361294B2674CB
:1020B00066826561E661DA60059B16AE5D011E4BC6
:1020C0002D1B9C46654422682919002302200434F4
:1020D00003F0BEFDA642F6D103F07CFDFEF790FDB5
:1020E0006B46187D4FB0F0BCBB46B246A946A04631
:1020F000F0BDFFF729FE4B464A461B6830001B0423
:102100001B0C1360FFF72EFDAAE7FEF7F1FD01237C
:10211000054A05E00133DBB22032402B00D15DE6F9
:102120001178FF29F6D167E620C0000800C8000832
:10213000A0A70008E4A7000800C0000801C000082C
:1021400010A8000800080048000400482CA8000857
:10215000FFCF000800200240FFF7F6FD5B465A461D
:102160001B681B041B0C1360019BE818FFF7FAFCAB
:10217000FDE60EAC5EE7C046F0B54E464546DE468F
:102180005746E0B587B01C0010AB1B780E008046A8
:10219000111E019300D1FBE032008148FEF742FCA2
:1021A000802100227F48490103F05AFF802101224B
:1021B000C9007D4803F054FF7C48FEF7B5FBFFF7EC
:1021C000C3FDFFF767FD7A48FEF7AEFB04AB9A4606
:1021D0005146784B1A6804929A888A809B798B7151
:1021E000002C2ED08023B51DDB029D4200D97EE05D
:1021F000092D29D90A212800FDF786FF814653467B
:102200009B1B9B466C4B64270093330000244E4677
:10221000994611E04346195D20000134FFF7E6FCC2
:1022200031002000FDF7F6FF002967D0AC4200D155
:1022300073E06437AC426ED2A145EBD85B46195DC2
:10224000EAE73500092DD5D8002D00D0A5E05B4880
:10225000FEF76AFB5A48FEF767FB5A48FEF764FB35
:10226000019B0125002B00D18EE05748FEF75CFB57
:10227000802100224C48C90003F0F2FEFFF75EFB0C
:10228000FA239B000393039B5A1E0392002BFAD15F
:10229000802100224348C900039B03F0E1FEFA239A
:1022A0009B000293029C631E0293002CFAD18021B2
:1022B000002249013B48029B03F0D2FE0A2005F0B0
:1022C000E3FA802101223748490103F0C9FE3F4B60
:1022D0001C703F4B1C703F4B1C703F4B1C70280008
:1022E00007B0F0BCBB46B246A946A046F0BD0A21E5
:1022F0003000FDF709FF3500814680E729003800EE
:10230000FDF702FF2B00010022000098FEF78AFB78
:102310006437AC4290D34E460BE029003800FDF7FD
:10232000F3FE254C01002B002A0020004E46FEF74C
:1023300079FB2248FEF7F8FA53469B1B00249A4685
:102340000AE0434620001F5DFFF70CFC87420CD1DA
:102350000134AC4200D17DE7A642F2D853462000BA
:102360001F5DFFF7FFFB8742F2D01C4D03003A00D0
:1023700028002100FEF756FB1248FEF7D5FA019B14
:102380000025002B00D070E71548FEF7CDFAA6E730
:1023900031001448FEF746FB02E7012399462EE779
:1023A00070A800080008004800140048ACA8000805
:1023B000BCA8000878A20008C4A80008ECA800087F
:1023C00038A9000840A900086CA90008C11600201F
:1023D000C0160020231B0020251B002000A9000898
:1023E00088A9000890A8000800B5114883B0FEF73E
:1023F0009BFA1049104B09781B78104A009110483D
:102400001049FFF7B9FE00230F4A13700F4A1360FB
:102410000F4A13600F4A13600F4A13700F4A13805C
:102420000F4A138000220F4B1A7003B000BDC04644
:10243000B8A900080C0000200B000020E8A9000843
:10244000B0B50008770600005502002068020020A1
:10245000640200205C020020540200206E02002072
:102460006C0200204D02002010B582B0002809D077
:102470003F2805D80E4B4001C3181A78012A06D010
:1024800002B010BDFFF7B0FFFFF794FAF8E7094A72
:10249000996982185C690848084B2018084C1B7819
:1024A00024780094FFF768FEFFF784FAE8E7C04657
:1024B00000C0000801C0000800C800080B00002090
:1024C0000C00002010B52E488AB0FEF72DFAAE237E
:1024D00085212C4C9B00E0582B4A89004358002B47
:1024E00049D100230193019B284A934205DC019BBB
:1024F00001330193019B9342F9DD200006F03AF984
:10250000200006F013F98021214B89025A6906A8A0
:102510000A435A615B690C220B4002930021029B23
:1025200007F092F8802290200123520104A9C005EF
:102530000492059303F0EEFB8021902000224901D4
:10254000C00503F08DFD00230393039B114A9342C2
:1025500005DC039B01330393039B9342F9DD0E4B90
:102560000E4A1A60BFF34F8F0D4B0E4ADA60BFF36D
:102570004F8FC046FDE7013A002AAFD1B1E7C04610
:1025800000AA0008981B0020400D03001FA10700AF
:10259000001002403F420F00F03F0020EFBEADDED2
:1025A00000ED00E00400FA0570B5764D04002B78CC
:1025B000002B05D1052807D8734B84001B599F4673
:1025C000012B02D0022B27D070BD0C28FCD86F4BFA
:1025D00084001B599F46FEF7CDFFFFF7EBF9F3E7A9
:1025E000022300222B706A4B1A706A4B01321A7058
:1025F000EAE700210122664B2A701970654B1A70B8
:10260000E2E76548FEF790F9FFF7EEFEDCE7FFF73B
:1026100073F8FFF7CFF9D7E7FEF7F2FA5F4B1B78B5
:10262000A3420AD87DD00023594A2B70137001228F
:10263000584B1A70C8E7FFF745FF594B185DFFF775
:1026400013FFC1E7574B1B78002B44D0564C207822
:10265000002900DC8FE006210130FDF7C5FE217066
:10266000B2E7504A137859424B411370ACE74F4AD6
:10267000137800295EDD032101330B401370A3E7BB
:102680004B4A137859424B4113709DE7494A1378DE
:1026900059424B41137097E7474A137859424B41CF
:1026A000137091E7454B1878002948DD1921013056
:1026B000FDF79AFEC8B2FEF7A9F885E7404A1378FD
:1026C00059424B4113707FE73E4A137859424B41C0
:1026D000137079E7002301222B702D4B1A702D4BBC
:1026E0001A7071E7384C207800291DDD0321013074
:1026F000FDF77AFE217067E7344A137859424B415F
:10270000137061E7324A1368002920DD042B29D0B9
:10271000082B2DD0102B28D0202B20D00423136081
:1027200052E7FEF7E1FB4FE703210230FDF75CFEC5
:10273000217049E7032103330B40137044E719214B
:102740001830FDF751FEC8B2FEF760F83CE7402BA9
:102750000BD0202B0CD0102B04D0082BDED0402324
:10276000136031E7082313602EE7202313602BE763
:102770001023136028E706210530FDF735FE217090
:1027800022E7C046B0160020E0B30008F8B3000806
:10279000AF160020AE16002034AA0008090200205F
:1027A0000C02002006170020090000200A0000206B
:1027B000070000200800002004170020241B002030
:1027C0000B00002014000020051700200C00002042
:1027D0001000002070B5902604000125F605C209FE
:1027E0008021300003F03CFCA20930002A40402147
:1027F00003F036FC620930002A40202103F030FC4F
:10280000220930002A40102103F02AFCE20830009F
:102810002A40082103F024FCA20830002A400421A9
:1028200003F01EFC620830002A40022103F018FC6D
:102830002A0030000121224003F012FC70BDC04686
:1028400010B5022800D010BD00228021104803F0EE
:1028500007FC104B104A19781278914203D10022DC
:102860000E4B1A70EFE71A780D49D2B2885C3F22FE
:102870001978C0B201310A401A70FFF7ABFF01228C
:102880008021034803F0ECFB0122044B1A70DAE7C5
:1028900000080048C1160020C0160020231B00209D
:1028A000C4160020F0B54546DE4657464E46E0B514
:1028B00004000D0095B0042906D90522AF4906F0A1
:1028C000CBFE002800D16FE029002000AC4AFDF7C4
:1028D0003DFF00285CD129002000AA4AFDF736FF01
:1028E000002855D129002000A74AFDF72FFF002816
:1028F0005ED129002000A54AFDF728FF071E57D109
:10290000A34E33789846002B00D0BBE0A14B1B7838
:10291000002B64D0A04B1B68AB4260D89F4B1B7848
:10292000002B00D1FDE2002D35D0022399469C4BAF
:1029300000219C460127B246601E401923783E2B99
:1029400016D82A2B1BD91A0065462B3AD2B2D5408D
:102950002F4214D004AA4D1C5354A04200D16EE360
:102960000134402D00D167E2237829003E2BE8D9BD
:102970001A004D465B3AAA43D2B2002AEAD0A042DE
:1029800000D1B2E20134D9E720229343432B02D194
:102990000122844B1A700127380015B0F0BCBB46E9
:1029A000B246A946A046F0BD01227F4B1A70F2E75D
:1029B0000222774BFF211A7000237C4A7C48137057
:1029C0007C4A13707C4A11707C4A8021137001226A
:1029D0007B4B49011A70002203F042FBDBE7794B85
:1029E0001B78012B00D198E0022B00D1AAE1032B28
:1029F00000D109E2744B1B78002B07D0734B1B7876
:102A0000002B00D0B3E1012D00D146E2002D00D112
:102A10003EE16F4B6F481F78037800229A460023EF
:102A20009B463F3398466C4B81469C466B4B6C4EA5
:102A30000195029319E00A2900D149E100239A4641
:102A400001339B460195404633780133034060468D
:102A50000078984204D03078029DC0B22954337077
:102A6000019B0132934200D80CE1A15C002FEAD017
:102A70005346019D0D29DED101230A219B469A462A
:102A80000195E0E7022B00D129E1032B5FD0012B58
:102A900000D080E704F0F2FE4246524B1860524BE1
:102AA0001A70524A13685B1913603C4B1B78002B59
:102AB00000D17FE2002D00D16DE702239946384B0B
:102AC00000219C460126B846601E401923783E2B03
:102AD00017D82A2B1CD91A0065462B3AD2B2D540FA
:102AE0002E4215D004AA4D1C5354A04201D100F02F
:102AF000F5FB0134402D00D1A4E2237829003E2BC0
:102B0000E7D91A004D465B3AAA43D2B2002AE9D06F
:102B1000A04200D18DE30134D8E7042D00D069E74D
:102B200023781B2B00D074E763785B2B00D070E711
:102B3000A378352B01D100F067FC362B00D068E775
:102B4000E3787E2B00D064E7FEF722F823E7284FD6
:102B50003B78002B00D033E1002D00D11BE7254B43
:102B6000002199460023984608339A464B46224A4C
:102B7000651902970396019362E0C0465CAA0008BB
:102B800064AA00086CAA000874AA00087CAA0008BD
:102B9000251B002014000020100000200417002036
:102BA0000F000A007D1600207E160020B0160020BF
:102BB00000080048AF16002006000020AD160020D7
:102BC000AE1600200A00002006170020051700207E
:102BD0000700002008020020C1160020C4160020B3
:102BE000C01600205802002055020020600200207C
:102BF000AC1600209C160020981600207F2B2BD0AE
:102C00001E00203E5E2E17D81678B4460E2E13D81E
:102C1000012667466644F6B2B1461670C64EF355B5
:102C2000B3460026B4464F465E466046F0553F29FF
:102C300002D804A8435401310134A54200D16CE20A
:102C400023781B2B00D15FE20D2B00D15DE10A2B15
:102C500000D15AE1082BD1D11378002BECD0464695
:102C60000198013BDBB21370C654CB1C3F2BE3D859
:102C7000574604AEB4467754202661444E708F7098
:102C80001900D9E75B464846002B01D05346037034
:102C9000AA4C2378002B00D07DE6A94BA94A1978CD
:102CA0001278914200D176E61A78A749D2B2885CB0
:102CB0003F221978C0B201310A401A70FFF78AFD2D
:102CC00001228021A14803F0CBF90123237062E6A1
:102CD000002B30D19A4601339B460195B3E69C4BBD
:102CE0001A78002A67D1002D00D154E6994E337826
:102CF000002B00D123E2012B00D17EE20621022B22
:102D000000D18FE22378012D0AD00023E25C202A33
:102D100002D0092A00D0C5E001339D42F6D13AE63F
:102D2000202BF2D100228C4B9A568C4B1A70012228
:102D30008B4B1A702FE60132954200D836E2002301
:102D4000A15C97E6032D00D054E623781B2B00D01E
:102D50005FE663785B2B02D04F2B00D059E6A37857
:102D6000412B00D155E3422B00D052E6ECE6012B7B
:102D700000D1C2E0022B00D048E6012D00D045E68C
:102D800023780D2B02D00A2B00D042E604A90A00BA
:102D9000744B31CB31C231CB31C2734B64201B78C1
:102DA000052B01D89B00585872B6704A13681B183F
:102DB000136062B6EFE5012218706D4B1A70EAE5F8
:102DC0003B78022B00D13DE23B78062B00D17BE122
:102DD0003B78032B00D1EDE13B78042B00D0DAE502
:102DE000002D00D1D7E52378202B09D000D9CBE5E1
:102DF0000D2B05D01B2B00D1CAE50A2B00D0CAE54C
:102E000001225C4B1A70C6E5012D00D0FEE5237847
:102E10002B2B00D1FDE22D2B00D195E6564A1278DE
:102E2000002A00D1F5E5554A1278002A00D093E235
:102E3000202B00D0EDE5A9E79046564680210127DA
:102E400001224F48C900377003F00AF9802100229F
:102E500049013E4803F004F900234A4C4A4E4B4ACC
:102E60002360336013604A4A17704A4A13704A4A13
:102E700013804A4A13800022494B1A7004F0FEFC6A
:102E8000484B2A0018604146474806F037FC47483F
:102E900025603560FDF748FD7DE52378202B00D0C7
:102EA000B7E573E7AB4200D375E5E7181B2A00D1FD
:102EB0004FE13478002C00D05FE11300313B042B4C
:102EC00000D8D2E2302A00D10BE22023110099432E
:102ED000512900D105E20D2A00D18BE20A2A00D146
:102EE00088E2202A00D056E51CE75646002900D18A
:102EF00051E504AB0D009846A0E7012D00D085E513
:102F00002378092B00D084E540E7294D029F2878DB
:102F1000002800D17AE1084C0023235401333B7090
:102F200039E5402D00D9402504AB2A0021001800C6
:102F3000984606F0E3FB81E79C160020231B002047
:102F4000C1160020C0160020C4160020000800484A
:102F500082160020B0160020AF16002006000020C8
:102F600005000020D49F000809000020BC160020A6
:102F7000AE1600207F16002006170020051700203F
:102F80000014004868020020640200205C02002057
:102F900055020020540200206E0200206C02002026
:102FA0004D020020580200207006002084AA00086C
:102FB00098160020CD4B99461B78002B4AD0002D47
:102FC00000D1E7E18023DB029C46C949C94B0020C0
:102FD00098468B46C84EC94A0297019433686345A8
:102FE00015D2594613880F8801339B059B0D9F42CC
:102FF0000DD017880199BFB2B9460F5C4C46BA464E
:1030000047465146395513803368013333600130E8
:10301000A842E3D35946029F10880B88984200D2F9
:10302000E2E012880B88D21A92B2B54B9B1A9BB27F
:103030007F2B00D9AFE40122B24B1A70ACE45646A4
:10304000290053E747469046A84B444699461B78CB
:10305000002BB7D18022AC4B52019A461B685B19FA
:10306000934200D827E153461E68931B9846B2420C
:1030700000D079E101234A461370A44B9C46664474
:103080007619002ED7D043469949E018A419994ED5
:10309000BC468A46B146994A974D444451461388E6
:1030A0000F8801339B059B0D9F4208D04946178826
:1030B0000678BFB2CE5513802B6801332B600130E8
:1030C0008442EBD16746B6E7002D00D163E40022CD
:1030D00020200EE0302B0FD01900814351290BD056
:1030E000190031390132082900D8ACE1954200D1EC
:1030F00051E4A35C1B2BEDD10223854A337013707E
:103100000122844B1A7046E4039E814A193B3370B6
:10311000137001227F4B1A703DE4002900D13AE47C
:10312000AE227D4B92009A5885239B00D358002BEA
:1031300000D030E489B204A805F0AEFF2BE4237878
:10314000012D01D00621E0E5202B00D1EAE5062182
:10315000DBE59A1CAA4206D278785B2800D13FE1D1
:103160004F2800D13CE13378013B012B00D80DE121
:1031700001226A4B1A70FFF70EFC012C00D10CE102
:10318000022C00D0A7E61300303BD9B2482900D961
:10319000A1E66348890041588F46624ADBB2127843
:1031A0009A4201D8FFF7F7FB5F4AA8E70023484699
:1031B0009A466BE5002D01D1FFF7EDFB23784E2BEE
:1031C00000D138E100D828E16E2B00D133E1202274
:1031D0009343592B01D0FFF7DEFB0122534B1A70AA
:1031E000534B1A70FFF7D7FB12880B888021C90058
:1031F0008C466244D21A92B217E74E4B19784B4272
:1032000059410123494299430D317BE54A4C102233
:103210004A49200006F031FA2000FDF72FFAC0B22B
:10322000287079E6FDF7ECFC3E4B19780231C9B203
:1032300068E54746002901D1FFF7ADFB04AB0D005F
:10324000984601E704F01AFB3D4B3E4A18601368AC
:103250005B191360002D01D1FFF79DFB8023DB027A
:1032600098460223384F9946384E651904E00134D8
:10327000A54201D1FFF78FFB3B782178002B0AD0C4
:103280003E2910D82A29F2D90A00314B2B3AD2B262
:10329000D340DB07EBD530684045E8D2431C3360B0
:1032A000FEF7A4FCE3E70B004A465B3B9343DBB22B
:1032B000002BDCD1EFE753461868264B2A00C018D4
:1032C000210006F01BFA534652461B685B19136037
:1032D000094A13685B191360FFF75DFB4746290035
:1032E000A8E70522104B1A701FE5C04654020020C3
:1032F0006C02002070020020640200206E02002098
:10330000FF0300002C2600206802002000F0FFFFD1
:10331000B0160020AE160020981B0020AD1600202D
:103320002CB4000809020020AF16002080160020EF
:1033300081160020061700209C160020C0AA000855
:103340008C16002090160020080000209416002003
:103350000F000A0070060020012A00D1D1E5022AE0
:1033600000D10EE5FFF755FB53461868994B4246CE
:10337000C018210006F0C2F9534652461B68434468
:103380001360954A13684344136073E60023934A1D
:103390003370B4E6924A93493EE61300313B082B62
:1033A00000D8FDE02023110099430B0041296CD087
:1033B0008D490978002905D0422B00D104E1432B27
:1033C00000D1FCE0302A02D0512B00D083E500234D
:1033D00001223370814B1A70844B1A70FFF7DBFAAD
:1033E000A25C333AD2B2112A00D9BCE680489200DE
:1033F0008258974604F042FA7E4B1B68C01A642834
:1034000001D8FFF7C8FA8DE4E3787E2B01D0FFF7EF
:1034100000FBFDF785FBFFF7BEFA0A3BDBB2162B7C
:1034200001D9FFF7B8FA744ADA401300DB0700D578
:10343000D3E6FFF7B0FA0022704B1A70704B0132DE
:103440001A70FFF7A8FA303BDBB2954208D9A25CAC
:10345000303AD2B2092A03D80A214B439B18DBB277
:10346000684A5BB21370FFF796FA04F007FA614BF3
:103470005A4A18603B78313B5BB21370624A137052
:103480000122624B1A70FFF786FA0922534B1A7019
:103490005D4B1A705D4B1C70FFF77DFA3378012B82
:1034A00001D0FFF778FA4D4A0139127852B28A42B8
:1034B00001DBFFF770FA54490A70544A1370FFF7A2
:1034C0006AFA464A137801335BB28B4200DA16E699
:1034D000002314E6414A1378013B58B21B0601D57C
:1034E000481E40B210700122404B1A70FFF753FA89
:1034F0000333AB4200D336E6E35C7E2B00D032E6EA
:103500003378022B01D0FFF746FA344B404A1B7840
:1035100012785BB2934201DBFFF73DFA3D4AD35C80
:10352000002B01D1FFF737FA3B4A5BB21370FFF76C
:1035300032FA2A4B364A1B7812785BB2934201DB8F
:10354000FFF729FA334AD256344B1A70FFF723FAA1
:10355000224B2F4A1B7812785BB2934201DBFFF7B4
:103560001AFA2C4AD2562E4B1A70FFF714FA01227F
:103570002C4B1A70FFF70FFA3378012B01D0FFF7AD
:103580000AFA164B01391B785BB28B4201DBFFF75D
:1035900002FA1D4A1370FF221C4B1A70FFF7FBF949
:1035A00004F06CF9134B0D4A18603B78313B5BB269
:1035B0001370154A1370154B1C70FFF7ECF90B22B2
:1035C000064B1A70FFF7B1FB0A22044B1A70FFF783
:1035D000ACFBC0467006002064020020AF1600203D
:1035E0006E0200206C02002006170020AE1600209C
:1035F00050B5000804020020090040008016002099
:103600008116002001000020060000200500002097
:10361000090200200C02002004000020030000200A
:103620000200002083160020F0B5DE4657464E46C5
:103630004546E0B50126BDB002AF04F003F9032111
:10364000FD4DFE4AAB6989463343AB61AB6900244B
:103650003340BB67BB6F13688B431360FEF714F9ED
:1036600078205C231B1814220021D81905F0ECFFE8
:1036700080226B69920313436B616B69F0481340BE
:10368000AC22B9180B600B0080221B686B69D20357
:1036900013436B616B691340B022B9180B600B00C8
:1036A00080221B686B69120313436B616B691340C3
:1036B000B422B9180B600B0080221B686B69920260
:1036C00013436B616B6992461340B822B9180B60C3
:1036D0000B0080221B686B69D20213436B616B691C
:1036E0001340BC22B9180B600B0080221B686B6969
:1036F000520313436B616B691340C022B9188022D7
:10370000D20090460B600B00002241461B6802F07D
:10371000A7FC0122CB49CC4802F0A2FC9020002259
:10372000FF21C00502F09CFC84210022C64849010B
:1037300002F096FCD423C54AF9180A60D8217A18F9
:103740001460DC227820783BBA1814601A18D1195A
:10375000BF4802F0DFFAD4234046FA181060D8219F
:10376000DC227918BA180E601460E0227820B918AB
:10377000783B0C601918C919B14802F0CBFAD42370
:103780000222F9180A60D821B248791808608346E5
:103790007820DA32B918783B0E601918C919AA488E
:1037A00002F0B8FAD4230420F9180860D8210833AD
:1037B00079180E60E022F9180C604946B8180160CB
:1037C0007820803B1918C9199F4802F0A3FAD42227
:1037D0000823B9180B6059460432B81801607820E4
:1037E000D433F918803B0C601918C919964802F0B7
:1037F00091FAD423FF21DC22F818016027397818C8
:103800000660B81804320460B81806607820783B67
:103810001818C1199020C00502F07CFAD42310209A
:10382000F9180860D8218346083378180460F8181E
:1038300006607820803B1818C119834802F06AFAA4
:10384000D4226023D821B818036078187C33046030
:10385000D23AF81802607820803B1818C1197A48CB
:1038600002F058FAD4237949F8180160D821DC22F3
:1038700078180460B81804607820783B1818C119CB
:10388000754802F047FAD4238421F81849010160F1
:10389000D821083378180660E022F81804607820F0
:1038A000803BBA1814601A18D119674802F032FA2E
:1038B000D422C023B818D8219B000360DC237818D9
:1038C0000460F81804607820803B1818C1195E481D
:1038D00002F020FAD4228023D821B8185B000360BC
:1038E000D23A781802604A46243BF818083104603E
:1038F000781802607820E132803BBA1814601A18F8
:103900009020D2191100C00502F004FAC023D4227D
:10391000D8211B01BA181360DC2378207A180831EB
:1039200016607918FA18803B14600E601918CA19CD
:103930001100454802F0EEF9D423FF21FA18116076
:10394000D8220833BA18FB18146078201C605C2356
:103950001A18D119414802F0DDF900220021052092
:1039600002F03AF8052002F061F80022002106205A
:1039700002F032F8062002F059F852466B696420D2
:1039800013436B616B6900211340FB67FB6F782366
:10399000C0180C22C01905F057FED42180227B18D4
:1039A00052011A6078205C231B1890200431924643
:1039B0007A181660D919C00502F0ACF990200022DF
:1039C0005146C00502F04CFB642003F05DFF9020DF
:1039D0005146C00502F0AAFA05F008FB78204C23F6
:1039E0001B180C220021D81905F02EFE1C4A1D4B75
:1039F0000420136080235B029361C2235946FF3386
:103A0000D3619E3B5061FF3B100093469160D454BC
:103A1000BA605460D46016611462946201F014FEBE
:103A2000C4210A2379180B605146BE33FB18196074
:103A3000CC234946FB1817E000100240000001406B
:103A400000140048040C000000080048FFFF0000BC
:103A5000001000480000211000040048000C00483D
:103A6000281B002000240140782219604C239B1859
:103A7000D919584601F01EFF8022AB691201134389
:103A8000AB61AB69DE481340A822B9180B600B008C
:103A9000E0221B68DB4BFF321C609A62783AFF3AE7
:103AA000DE625E639A61802212021E625A64802284
:103AB00041461A607F3A02F0D3FA502003F0E4FE48
:103AC00000224146CE4802F0CBFACF4B1C70BB66B9
:103AD000CE4B1C609B46CE4B1C603B63CD4B1C60A9
:103AE0009A46CD4B1C707B60CC4B1C60FDF726FFCB
:103AF000FA238C229B00BA1813608C217B181B6858
:103B000079185A1E0A60002BF7D10B008021002281
:103B1000C348C9001B6802F0A3FAFA2388229B005D
:103B2000BA1813608822BB181C68BA18631E136089
:103B3000002CF7D180211300B948012249011B68EC
:103B400002F08EFA80210022C900AD4802F088FA06
:103B5000B44B7B671C70FDF70DFDFDF781F9B24B8F
:103B600018787B64FCF752FE1021AD4802F072FA1F
:103B7000AE4BAF4AFB641870434258413A6610702E
:103B800003F07CFE0022AB4B18603B65AA4B1C6027
:103B9000FB63AA4B1C70BB61A94B1C707B61A94BDA
:103BA0001C70FB62A84B1C603B61A84B1C603B6017
:103BB000A74B1C60FB61A74B1C609C46A64B1C706E
:103BC000BB63A64B3B641C70A54B1C807B62A54B62
:103BD0001C803B62A44B1A707B63A44B1A78BB65B4
:103BE000002A00D0CDE1A24BFB66A24B3B67A24B63
:103BF000FB65A24B7B656346FB605346DA469B46FA
:103C0000FB6E1B78002B00D087E21021844802F065
:103C100021FAFB6C1C78844200D147E2187003F053
:103C20002DFE3B6D18603B6E1B78002B00D04EE2E2
:103C30007B6F1B78022B00D10EE2032B00D1C6E173
:103C4000012B00D1A2E13B6F1B78002B21D05B46FA
:103C50001A6853461B689A4200D2ADE15B46524651
:103C60001B6812689B1A9BB280229200934210D26A
:103C700000233A6F1370824B1A78824B1B78002A0C
:103C800000D15FE3002B04D15E4A013311680B437E
:103C900013607B6F1B78002B65D153461A685B4617
:103CA0001B689A4265D0AE2377499B00CA58A43B53
:103CB000D358002B5DD15A4616685246396B1268AC
:103CC000724D0A602A78D4B2002A00D146E35246E7
:103CD0006F481268825C0D2A01D100F0E4FE0A2AC6
:103CE00001D100F0E0FE52461268B24201D200F06B
:103CF0000AFE524680211268C900891A54460029DA
:103D00000ED100F02DFE22688218D25C0D2A0AD056
:103D100022688218D25C0A2A05D00133994202D067
:103D20002A789A42EFD8A2461C1E01D100F018FE54
:103D300053461B68A1B2C01805F0AEF9534652466F
:103D40001B68E318136080231268DB009A4202D3D9
:103D50000023524613602B789C4201D200F0A2FF50
:103D600000232B7013E3032B03D14A4B1B78042B46
:103D700093D072B67B6FBA6E1B781278134300D162
:103D80001FE262B6FB6D1B78002B00D035E27B6D25
:103D90001B78002B00D0B1E17B6F1B78002B00D08B
:103DA000EAE0384A1278002A00D1E5E03A4A116880
:103DB000002900D1E0E072B611681360894662B64E
:103DC0002F4B1B78002B01D000F004FF334A3449FD
:103DD00053683448096803400B4353607A6C324B94
:103DE000117832488A00521892009B185C684B4642
:103DF00084425DD9642B5FD8012000F072FFC04679
:103E000000140048002C0140231B0020181700203C
:103E10001417002010170020201B00201C1B00205E
:103E200000080048251B0020241B00200000002063
:103E30007C160020781600207416002072160020D0
:103E40007116002070160020680200206402002015
:103E50005C0200205802002055020020540200207D
:103E60006E0200206C0200204D0200207E16002011
:103E70007D16002008170020261B0020B816002001
:103E80000717002006170020981B00204C02002076
:103E90001C170020AC160020BC16002000100240A9
:103EA0000C170020FFFFFF8028BC0008006CDC021C
:103EB000642B01D800F012FF0023DB4A48460021A2
:103EC000FCF7B8FA22000023FCF794FA041E00D194
:103ED0000134D64B554698468023DB0099465E4612
:103EE0002100642C00D96421842000233818036049
:103EF00084203B184A001B6852188C46520093429B
:103F00000AD2C04684203B181B68391801330B6065
:103F10000B689342F5D361462A683368641A9A4263
:103F200021D0AE2342469B00D258A43BD3589A4698
:103F3000002B18D133682A689A4201D300F013FD90
:103F40003C212A688A469A1A3B2A03D82A689B1A77
:103F50009BB29A46B64B28685146C01805F09CF8AB
:103F60002B6853442B60002CBAD1AA46B346B14A01
:103F7000B14953680B405360BB6D1B78002B00D1D7
:103F80003EE60023BA6D1370FEF79CFA3B6C1B787B
:103F9000002B00D02FE2BB6B1B78002B00D0DEE3A0
:103FA0003B6F1B78002B00D1E3E65B461A68534653
:103FB0001B689A4200D351E680215B465246C900F5
:103FC0008C461B68126863449B1A9BB24CE69B4C60
:103FD0002378012B01D100F04CFC2378022B00D177
:103FE000D3E22378062B01D100F012FC2378032BB7
:103FF00001D100F03FFD2378042B01D100F0C9FD71
:104000002378052B00D01EE68D4B8E4D8E4C2968F3
:1040100020001A78FDF7D6FE011E01D101F030F81C
:104020008A4E220030002B68FCF7FCFC884800F028
:10403000C5FD884B984201D900F079FDFA227B6FCB
:1040400092001B78904200D374E1022B00D0F4E57B
:104050008022814BD2009A61804A1378D9B2002B1A
:1040600000D0C1E17E480378DAB2002B01D000F025
:10407000F9FB7C490B785BB2002B01DA00F019FCEC
:10408000FF230C780B70631E3E2B02D82000FCF738
:10409000C9FE21007448FCF7C5FC9620400003F0DF
:1040A000F3FBFDF74DFA7B6F1B78C6E503F0E6FBEB
:1040B0003B6D1B68C01A0E2800D8B4E53B6E1D7816
:1040C000002C00D0A0E2002D01D100F024FC03F070
:1040D000D5FBFB6B1B68C01AFA235B019842A8D37F
:1040E0000124FB6A32211C70FCF70EF880225A4B27
:1040F000D200044200D023E19A6299E503F0BEFBAE
:104100005A4B1B68C01A534B984200D844E6002310
:104110007A6D1370FDF7F0FA3EE680210024FB6E05
:1041200001224D48C9001C7001F09AFF8021002235
:1041300049014F4801F094FF0A2003F0A5FB8021BC
:10414000012249014A4801F08BFF3C2003F09CFB0F
:1041500080210022C900404801F082FF454B1C60CD
:10416000454B1C70454B1C70BB6E1C707C6C2078E2
:10417000FCF74CFB2178182900D933E18B005B1840
:104180003F4A9B0099583F48FCF74CFC3E4B1B783C
:10419000002B00D139E53D4B1B78012B01D100F0FC
:1041A00017FC3B49022B00D0ABE33A4B1B78052BA5
:1041B00000D9D2E2384A9B009A583848FCF732FCC2
:1041C00023E562B640212A4801F044FF344B1870C1
:1041D000002800D1ADE272B6324B1869C0B2FEF7CA
:1041E000F9FA01228021224801F03AFF62B662B654
:1041F000FB6D1B78002B00D1C9E56B46BB622A4BD7
:1042000080219C46E54402AB002219484901BB6469
:1042100001F026FF0A2003F037FB0022BB6C1600DA
:104220009846224C224D4AE040420F00981B002045
:104230001C17002000100240FFFFFFF0AC1600200A
:1042400008000020941600209C1600209CAF000857
:10425000DC050000B70B000000140048AD1600207C
:10426000831600200400002050AB0008B416002084
:1042700000080048BC160020C1160020C01600200F
:1042800028BC0008CCAA000806170020051700204B
:10429000BCA200080900002098B500086CA700081F
:1042A000221B0020000C004878ECFFFF00040048AF
:1042B000881300000136AE4201D100F0A1FEFDF7E7
:1042C00043FD236830001B041B0C2360FDF74AFCF0
:1042D00043469855FF28EDD1B0463B2E01D800F05B
:1042E0009FFE85239B00444600269946B049BD6C3D
:1042F0007966AE227B6E92009A584B46D358002BBB
:10430000FBD128003C213C3C04F0C6FE3C363C3549
:104310003B2CEED8B04501D900F029FC7B6F1B780F
:10432000002B01D100F00CFC0023FA6D1370BB6A66
:104330009D462CE50123BA69137080229D4BD20063
:104340009A6175E4002B00D0A3E49B4A9B49536813
:104350009B48096803400B4353609AE453461B682B
:10436000B34200D2BCE253461A68F1239B009A4242
:1043700000D220E35346802118681B68C900C91A7F
:10438000904B89B2C01804F087FE53461C603B6F07
:104390001B78002B00D1ECE45B461A6853461B687F
:1043A0009A4200D2FCE25B4652461B6812689B1A96
:1043B0009BB280229200934200D3DAE400233A6F4A
:1043C0001370814B814A1B781278002B01D100F0C9
:1043D0006FFC002A00D0CCE401237D4A11680B4316
:1043E0001360C6E47B49CEE600231370FDF7E2FAC2
:1043F0007B6F1B7821E47B6B1B78002B01D100F0D5
:1044000019FE796A386A0A880388734D734E9A4296
:104410006BD0734B80249946724BE4029846534606
:10442000BB645B46BB624B46AA46B3468946060060
:10443000FD697B661BE02B68A34200D19EE05346DA
:104440001B78002B0ED04B461A8833889A4232D301
:104450004B461B8832889B1A634A9BB2D31A9BB285
:10446000FF2B36D84B461A8833889A4238D05A46A2
:1044700033889BB2D15C3388C9B201339B059B0D55
:1044800033802B68A342D6D22868431C2B60FDF7EB
:10449000ADFB43462A681B689A42D0D3296853482B
:1044A000FCF7C0FA80224346D200944642461B687D
:1044B00063441360C3E780214B46C9008C461B88C8
:1044C000328863449B1A484A9BB2D31A9BB2FF2B93
:1044D000C8D904F00DFE4B461A8833889A42C6D1DB
:1044E000BB6C55469A46BB6A9B462B78002B00D086
:1044F0000EE27B6B1B78002B01D1FFF7A4FB7B6ADC
:104500001A883B6A1B889A4201D0FFF79CFB03F094
:10451000B5F9FB681B68C01A632801D8FFF793FB45
:10452000334B1B78002B08D08022FB69D2021B681A
:104530000633934201D800F0FEFD8023F869DB02C8
:10454000026819009A4200D801682A48FCF76AFA02
:10455000294B1B78002B01D000F07EFE2748FCF78A
:10456000E3F90023BA6B13703A6C13707A6B137013
:104570003A69136004F0BCFDFFF765FB786EFCF749
:10458000D3F92B6801332B6059E71D4D2B68002BA5
:1045900000D126E503F072F91A4B1B68C01A632894
:1045A00001D900F045FC7B6F1B78FFF749FBC04643
:1045B000981B002000140048001002400C17002037
:1045C000FFFFFF801C1700200717002006170020A0
:1045D000002C0140EC9F00082C26002070020020D7
:1045E0007CB0000850020020FF03000064B0000807
:1045F0000B000020B8B000080C00002088A90008BB
:10460000941600208C160020012C01D0FFF70BFB24
:10461000002D01D1FFF70CFB00233A6E137003F05D
:104620002DF9F96AFA6B09781268002901D000F0B7
:10463000B3FC831AFA225201934201D300F0ACFC7E
:104640007A691278002A01D000F064FDE24A9342B0
:1046500001D900F05FFDBA691278002A01D000F09C
:1046600091FDFA24A400A34201D300F08BFD7A6FE0
:1046700012780E2B01D800F091FC022A01D100F033
:1046800076FE012A01D100F02EFE80210122D348BE
:10469000C90001F0E5FC802100224901D04801F069
:1046A000DFFC0A2003F0F0F8802101224901CC4808
:1046B00001F0D6FC3C2003F0E7F880210022C9007D
:1046C000C64801F0CDFC0023C64A7C6C1360C64A84
:1046D00020781370C54A1370BA6E1370FCF796F801
:1046E0002178182901D900F0FBFD14224A43C04B60
:1046F000D158C048FCF796F9BF4B1B78002B01D16D
:1047000000F04CFCBD4B1B78012B01D100F0E5FD06
:10471000BB49022B00D0BB49BB4BBC4A1B78052BC5
:1047200002D8BB4A9B009A58BA48FCF77BF900F0C4
:1047300035FC2021AA4801F08DFCB74B18700028E9
:1047400000D1FDE07B681B78002B01D100F05BFC01
:1047500072B6B86801F0AAF840E5AC4A2DE503F05E
:104760008DF8FB681B68C01A632801D8FFF76BFA45
:10477000AA4BAB4C1B78002B29D02368002B26D0EA
:10478000396922680B6800259A4202D922680D68AF
:10479000551B6420216823682268684390463A6963
:1047A0007B661268BA64FBF7AFFC8146FA20800092
:1047B000796E6843FBF7A8FC0A21FBF72BFD994EA5
:1047C00000914B4641463000BA6CFCF72BF9964AF3
:1047D0003D69964E1278964B29681B7830000092FE
:1047E0000022FDF7C9FC0023BA6B13703A682B60F6
:1047F0001360FA69236013603A6C13707A6A13804D
:104800003A6A13807A6B137004F072FCFFF71BFA9C
:10481000884A13785BB2002B01DAFFF714FAFF2302
:10482000157813706B1E3E2B02D82800FCF7FAFA9D
:1048300029008148FCF7F6F8FCF704FA98230021D8
:104840005B02984200D2191A7C4B1B688B4200D93C
:104850003CE27B48FCF7E6F87A48FCF765F803236E
:104860002370A0E60170FCF73FFB7B6F1B78FFF71E
:10487000E4F975497548FCF7D5F87548FCF754F824
:10488000FDF762FAFDF706FA7248FCF74DF8724838
:10489000FCF74AF80022694B1A60704B1A6002F06C
:1048A000EDFF6F4B1860022323707B6F1B78FFF7BF
:1048B000C7F96C490B785BB2002B48DA6A490B7870
:1048C0005BB2002B00DA6FE2FF2308780B703F2801
:1048D00000D968E6FCF7B8F87B6F1B78FFF7ADF9F5
:1048E00053461B68F31A3B2B65D853461868196862
:1048F0005E4B711AC01889B204F0CEFB53461E609D
:1049000045E5404951E452461168711AFFF7F6F93E
:1049100004F0EEFBEDE501233A6E137002F0AEFFFA
:104920008021FB6B00221860BB692D481D707B69DC
:1049300049011D70FB6A1D7001F092FBFFF773F9CE
:1049400000228021264801F08BFBFFF71AFAFF2393
:1049500008780B70FDF788FD7B6F1B78FFF76DF90A
:104960000124FFF7E5F94A462B68D31A3C22934607
:104970003B2B04D84A462B68D31A9BB29B463B4B31
:1049800028685946C01804F087FB2B685B444B45E8
:1049900002D22B685B449A4653462B60FFF7E3FA3A
:1049A00080215B465246C9008C461B6812686344EE
:1049B0009B1A9BB2FDE4534618682C4B3C21C0184F
:1049C00004F06AFB534652461B683C331360DEE436
:1049D0002749FFF7EAFBC046B70B00000014004868
:1049E00000080048BC160020C1160020C016002098
:1049F00028BC0008CCAA00080617002005170020D4
:104A0000BCA20008ACA2000809000020A0A2000877
:104A100098B500086CA70008211B0020041700208F
:104A200060020020E0B000080C00002070060020AA
:104A30000B0000200100002050AB0008941600205D
:104A4000A8AD000878AD00089C16002068AB0008EF
:104A500078AB000894AB0008A0AB000890160020CB
:104A60008C16002003000020020000201C170020EC
:104A7000B8A20008D94B1A78002A01D1FFF7E3F851
:104A800000221A70D64B1B78DDB2934200D02AE286
:104A9000D448FBF749FFD44B1D70052323707B6F6F
:104AA0001B78FFF7CDF878214C22D04B5218D21941
:104AB00013804E224B235218D219137053461B6891
:104AC0009E4200D129E34F235B18DA19802400238A
:104AD000A8469C4635005346060075391000E40090
:104AE00010E01A680131B25CC9B202701A68013272
:104AF0001A601A68A24201D362461A601A6801302D
:104B0000AA4209D01A68B25C0D2A03D01A68B25CB6
:104B10000A2A01D11029E4D145469A4678224C232D
:104B20009B18D81904F0B8FA00232B702FE49620B4
:104B300001237A6980001370FBF72CFEFFF778F8E9
:104B4000FCF7FCFE80210022C900A94801F088FA88
:104B50000A2002F099FE1021A54801F07BFA0028F6
:104B600000D060E2012002F08FFEFFF7DDFBAE23F4
:104B70008522A0499B00C95892008B58002BFCD17C
:104B80004346991BBB6C89B2981904F085FAFFF76C
:104B9000C5FBF96E3B6E0A781B781A4300D1E7E03B
:104BA00000220A7080219248490101F059FAFDF76C
:104BB0001BFC9148FBF7B8FE9620C00002F064FE93
:104BC00002237A6F13708D4A137001228C4B1A7076
:104BD000FFF739F8012500268A4C23682B43236010
:104BE000844B7B66B14214D0B04656468A46236950
:104BF000AB43236104E05B4632681B689A420FD1E5
:104C000023691D42F7D001239C46E044C245EED102
:104C1000B24601217B4A13688B431360FFF7ACF95E
:104C2000AE237A6E9B00D258A43BD3589946002BF2
:104C3000E6D15B461B6832689A4213D23C21326847
:104C400089469A1A3B2A03D832689B1A9BB2994626
:104C50006D4B30684946C01804F01EFA33684B4467
:104C60003360CDE780223C213368D200D31AB96487
:104C70003B2B03D83368D21A93B2BB64624B3068C3
:104C8000B96CC01804F008FAB96C80228C463368FD
:104C9000D2006344934202D28946336899444B461A
:104CA0003360ADE72B781B1BDBB22B70FFF76FFB7C
:104CB000002A01D0FFF75DF8544A5549536855481A
:104CC000096803400B435360FFF753F8591A5248E1
:104CD000FBF7A8FE7B6F1B78FEF7B2FF2100FBF706
:104CE00013FA4B46002B01D1FFF741F901240328A9
:104CF00000D98408002556463E4B7B66002380225F
:104D000004E0C0468022BB181B680133B9180B6051
:104D10000B689C42F5D85B4632681B689A4221D0EA
:104D2000AE237A6E9B00D258A43BD3589846002BF2
:104D300018D15B461B6832689A4200D342E13C219D
:104D4000326888469A1A3B2A03D832689B1A9BB26B
:104D500098462D4B30684146C01804F09DF93368E1
:104D6000434433600135A945C8D1B246FFF7FFF887
:104D70002A4B1978CDB2002900D095E102F07EFDD2
:104D8000274B1B68C01A274B984200D80BE48021A0
:104D900017482A00490101F063F92348FBF7C4FDD5
:104DA00005232370FFF7FFFB204B197849B2002938
:104DB00000DB6AE1124B1978002900D07EE13B6EDE
:104DC0001B78002B01D0FFF7EEFB9620C000FBF70D
:104DD000E1FC7B6F1B78FEF730FFC0468116002098
:104DE0008016002028AE0008841600201B5B0000FF
:104DF00000080048981B0020ECAE0008B016002008
:104E0000AE160020002C01401C17002000100240AC
:104E10000C170020FFFFFF80E0AD00087F16002088
:104E2000881600200F27000060AF00080600002051
:104E3000E8482968FBF7F6FDE74B1B78002B24D0E8
:104E4000E64B1E68002E20D02B689946002398461A
:104E50004E4502D94B46F31A98464346642031002A
:104E60005843FBF751F97866FA20424680005043D8
:104E70003100FBF749F90A21FBF7CCF900914A46CA
:104E800031007B6ED648FBF7CDFDFBF7DBFE9823A8
:104E900000225B02984200D20EE1982329685B024F
:104EA000994200D930E1914200D8D5E48B1ACD481F
:104EB000FBF7B8FDCC48FBF737FDCC4B01269946F4
:104EC000CB4BCC4D984604E020350136454500D10A
:104ED00025E12B78012BF7D131004846AB696A1CDC
:104EE000FBF7A0FDF0E7C448FBF71EFDC348FBF746
:104EF0001BFDC348FBF718FD0122C24B1A70C24BC1
:104F00001B78002B00D0E0E0FCF718FDFA239C2270
:104F10009B00BA1813609C217B181A687918531EDD
:104F20000B60002AF7D10B008021B848C9001B682C
:104F300001F096F8FA2398229B00BA181360982281
:104F4000BB181D68BA186B1E1360002DF7D1130033
:104F50001B687B6C1878FBF759FC5B461D60534659
:104F600080211D603B6F2A004901A8481D7001F097
:104F700077F80A2002F088FC80210122A348490129
:104F800001F06EF802F07AFCA14B18600423237044
:104F90007B6F1B78FEF754FEFDF726FA0023BA69F3
:104FA00013707A691370FA6A13707B6F1A78002A8B
:104FB00001D0FEF738FE80219648C90001F050F874
:104FC000FEF731FE80223C213368D2008A46D31A94
:104FD0003B2B03D83368D31A9BB29A468E4B30686A
:104FE0005146C01804F058F880223368D200534468
:104FF000934202D233685344984643463360B1E645
:10500000B046FFF76EF9BC68200000F0C1FB01213B
:10501000200000F0E9FB01237A681370FFF798FB8A
:105020000026FFF777F9802101227848490101F035
:1050300017F897E5802500247848FBF775FCFCF706
:1050400083FEFCF727FE7648FBF76EFC754E6D017C
:105050002000315D0134FCF7C9FDAC42F8D1FB6999
:1050600071481C601968FBF7DDFCA0226F4B5201F0
:105070001A6001237A6B137004F03AF8FFF7C1F954
:105080006B48FBF751FC6B4898E56B4A1878117830
:10509000FF2249B21A70FDF787FA7B6F1B78022B4B
:1050A00001D0FEF7CAFD0AE08021584849011A7074
:1050B00000F0D6FF614871E61A1AEEE61A70FCF7A6
:1050C0003FFA7B6F1B78FEF7B8FD5D4D5B212868CA
:1050D000FCF78CFD28682D210130FCF787FD28683E
:1050E0005D210230FCF782FD28682B210330FCF79C
:1050F0007DFD28685B210430FCF778FD28685D2180
:105100000530FCF773FDFFE64E48FBF78BFCFA20F9
:10511000C00053E5FCF792FB40E70321FEE44A4858
:10512000FBF702FCFF22494B1A70062323707B6FAA
:105130001B78FEF785FDFC695B212068431C23601A
:10514000FCF754FD20682D21431C2360FCF74EFD25
:1051500020685D21431C2360FCF748FD20682B215B
:10516000431C2360FCF742FD20685B21431C236045
:10517000FCF73CFD20685D21431C2360FCF736FDF5
:10518000FFF7DBF9802101227B6F2248C9001A70EA
:1051900000F066FF8021002249011C4800F060FFFA
:1051A00000233A692A4C13603A682A481360FA6966
:1051B00023601360BA6B13703A6C13707A6A1380B1
:1051C0003A6A13807A6B1370FBF7AEFB03F090FF23
:1051D000E4E6C046E8AB0008080000209016002076
:1051E00008AC0008A4AC0008F4AC000828AD000826
:1051F00000C8000820C000084CAE000878AE0008C7
:10520000B4AE0008841600200B00002000080048FF
:1052100088160020001400481C17002010B0000859
:10522000BCA800087006002064B0000850020020EE
:10523000D4AF0008DC050000050000202CAF0008FA
:105240009416002058AC000848AD0008010000206A
:1052500060020020E4AA00084648FBF765FB8021B5
:1052600000224548C90000F0FBFEFCF767FBFA236B
:10527000A4229B00BA181360A4217B181A6879181D
:10528000531E0B60002AF7D10B0080213B48C90058
:105290001B6800F0E5FEFA23A0229B00BA181360F9
:1052A000A022BB181C68BA18631E1360002CF7D12B
:1052B000802113004901220030481B6800F0D0FE15
:1052C0000A2002F0E1FA802101222C48490100F075
:1052D000C7FE7B6F1C70FFF744F92949FFF71CFAE2
:1052E0002849FFF706FA802100222348C90000F070
:1052F000B7FEFCF723FB9423FB181C6094217B185A
:105300001A687918531E0B60002AF7D10B00802110
:105310001A48C9001B6800F0A3FEFA2390229B00E4
:10532000BA1813609022BB181C68BA18631E136069
:10533000002CF7D180211300490122000F481B687F
:1053400000F08EFE0A2002F09FFA802101220B4815
:10535000490100F085FE0C4B0C481C700C4B1C7076
:10536000BB6E1C707B6F1C70FBF7DEFA16E6FCF759
:1053700021FB13E66CA9000800140048000800484F
:10538000B8A20008EC9F0008C116002038AB000846
:10539000C01600207047C046012200B50F4B83B0F5
:1053A0009969052011439961996940420A40802119
:1053B0000092009ADA6949050A43DA61DB69002242
:1053C0000B4001930121019B00F006FB022000220B
:1053D0000121404200F000FB03B000BD001002407C
:1053E00010B5040088B01422002102A804F02CF9A2
:1053F000104B22689A4201D008B010BD80210E4B9C
:1054000089009A690D480A439A619A690A40802185
:105410000092009A5A6909030A435A615B690122A2
:105420000B400193019B032302A90292039300F016
:1054300071FCE1E700240140001002400008004830
:105440007047C046FEE7C0467047C0467047C0463A
:1054500010B502F007FA10BD10B5022000F006FEEC
:1054600010BDC0462C4B70B55B691B0732D52B4C69
:105470002378002B28D12A4A2A4953680B405360CD
:10548000C046C046284B294918690B68284D01338E
:105490009B050E689A0D2B68C0B29E4229D30B68FB
:1054A0002D685B1B9BB2FE25AD00AB4216D20B688C
:1054B000204D0A60E8542378002B23D001211E4A96
:1054C00013680B43136010E001211B4A13688B43E0
:1054D0001360D5E7082000F0C9FD70BD0B680A60B5
:1054E0000122144CE054154B1A7008220A4B5A61E1
:1054F000F3E78026F600B4460B682D6863445B1B17
:105500009BB2D0E7064A0E4953680E48096803402B
:105510000B435360E9E7C046000401400717002031
:1055200000100240FFFFFFF00004004810170020A9
:10553000181700201C170020002C0140081700201D
:105540000C170020FFFFFF8010B5024800F07EFE20
:1055500010BDC046502A00200C490D4A0300521AC3
:105560000C4910B50868002804D0C318934206D827
:105570000B6010BD0848C31808609342F8D904F0C6
:1055800091F80C23036001204042F2E70004000080
:1055900000400020681B0020902E00207047C0466D
:1055A000002370B5026882B0019391680333040050
:1055B0000B40012B31D09168204B194223D101219E
:1055C00093680B4393601E4B1E491868FAF79CFDC5
:1055D0000190019B002B05D0019B013B0193019B96
:1055E000002BF9D102F04AF90126050004E002F08F
:1055F00045F9401B022817D823681B681E42F6D0C5
:10560000002002B070BD1022A36B01201343A363DE
:10561000E36B0F3A1343E363F3E711680B42EFD1F7
:10562000D3681B04ECD4C6E71022A36B01201343FC
:10563000A363E36B3343E363E3E7C04617000080F3
:105640001800002040420F0070B5041E64D0836B28
:10565000002B68D0A36BDB0660D4226893685B07DD
:105660005CD4A36B47490B400631FF310B43A36366
:10567000032391680B40012B5BD01821D3688B4327
:10568000A1680B43D360136961689B009B080B43BF
:105690001361D3683C490B40D360237E617E9B033A
:1056A000C9030B43A07EE1680B4341030B43242154
:1056B000615C49000B43A16A01394D1EA9410903F0
:1056C0000B43216902394D42694189000B43E17E58
:1056D00001293ED0C220E169FF30814202D0206A18
:1056E00001430B43D168E56A1943D1608021490524
:1056F0008D4225D0691E062922D9D26823490A4045
:105700009A422CD01222A36B9343023A1343A36311
:10571000E36B0F3A1343E363012070BD1022A36BC8
:105720001343A363F8E73422C3638354FFF758FE9F
:1057300090E711680B42ACD1D3681B04A9D49CE755
:1057400007215069884350615069294001435161E4
:10575000D3E700280DD1802149020B43BAE700238B
:105760000322E363A36B00209343023A1343A36332
:10577000D3E72025A06B2843A063E06B0143E163DE
:10578000A8E7C046FDFEFFFF1902FEFFE7FF3F83CB
:10579000036810B59A680400520721D43422815C52
:1057A00001291DD001218154427E012A12D1A16B11
:1057B0000C4A00201140802252000A43A263342187
:1057C0000022E26362541C321A609A6830390A433C
:1057D0009A6010BDFFF7E4FE0028FAD12368E6E7DF
:1057E0000220F6E7FEF0FFFFF8B5446905000E0061
:1057F000082C04D003680C24DB68DB0741D402F0DA
:105800003DF807002A6813681C4204D1731C25D197
:1058100013682342FCD08023A96B9B000B43AB632E
:10582000C023D1681B01194213D1AB7E002B10D1CC
:1058300013681B070DD593685B072BD40C215368A5
:105840008B435360AB6B18490B400431FF310B4362
:10585000AB632B7E002B11D00020F8BD002E04D0AE
:1058600002F00CF8C01BB042CCD90422AB6B032071
:105870001343AB6300223423EA54EEE70C23136096
:10588000EAE72022836B1343836300223423C2544C
:105890000120E2E72021AB6B0B43AB63EB6B1F39BD
:1058A0000B43EB63D5E7C046FEFEFFFF0368186CB1
:1058B0007047C0460023F0B583B001933433C25C17
:1058C0000400C56A012A59D00122C25403689868AD
:1058D000400709D520220120A36B1343A36334237F
:1058E0000022E25403B0F0BD10267642B4460868A8
:1058F000324E4F6882408444B74227D09E6A32437A
:105900009A62072D1FD98022520595420CD007229A
:105910008D68596911408D4206D05969914359618A
:1059200059692A400A435A616346022B09D8244B1D
:1059300080211A68102825D011283AD049040A433A
:105940001A600020CBE7002DEED1E0E7996A914381
:1059500099626346022BF4D8194B1B6810280FD0AC
:105960001138421E9041174A40421040164A944650
:1059700060441840124B18600020B0E70220B1E7E5
:105980001248F6E709040A431A60114B11491868D6
:10599000FAF7BAFB83001B185B000193019B002BF5
:1059A000CFD0019B013B0193019B002BF9D100203B
:1059B00095E7C9030A4300201A6090E70110000030
:1059C00008270140000040FFFFFFBFFFFFFF7FFFF0
:1059D0001800002040420F00FF22032310B51400DE
:1059E0000340DB009C4089010A40E4439A400028C0
:1059F0000BDB0C4BC0219C46800880006044890072
:105A0000435823401343435010BD0F23064903401E
:105A10008C46083B9B089B006344D9690C401443A7
:105A2000DC61F1E700E100E000ED00E0002805DBCB
:105A30001F22012302409340014A13607047C04671
:105A400000E100E000280ADB1F220123024093400E
:105A5000802203498B50BFF34F8FBFF36F8F704786
:105A600000E100E08022431E5204012093420ED246
:105A7000C021074A07485360036A09061B021B0A34
:105A80000B430362002300209360073313607047C9
:105A900010E000E000ED00E0F0B546464F46D64687
:105AA000C0B52F4F06003B7E8846012B56D0012300
:105AB0003B7603682B48012B33D000F095F8002883
:105AC00033D1012342465B421360B3687568DB0241
:105AD0005B199D4229D20023234C994609E080237B
